{
  "_format": "hh-sol-artifact-1",
  "contractName": "OrderBook",
  "sourceName": "contracts/OrderBook.sol",
  "abi": [
    {
      "inputs": [
        {
          "internalType": "address[]",
          "name": "_FxPerpetuals",
          "type": "address[]"
        },
        {
          "internalType": "uint256[]",
          "name": "_baseTokenInfoArray",
          "type": "uint256[]"
        },
        {
          "internalType": "int256[]",
          "name": "_fundingRateBaseArray",
          "type": "int256[]"
        },
        {
          "internalType": "uint256[][]",
          "name": "_recentSalesBaseArray",
          "type": "uint256[][]"
        },
        {
          "internalType": "address",
          "name": "_USD",
          "type": "address"
        },
        {
          "internalType": "address",
          "name": "_Oracle",
          "type": "address"
        }
      ],
      "stateMutability": "nonpayable",
      "type": "constructor"
    },
    {
      "anonymous": false,
      "inputs": [
        {
          "indexed": true,
          "internalType": "address",
          "name": "previousOwner",
          "type": "address"
        },
        {
          "indexed": true,
          "internalType": "address",
          "name": "newOwner",
          "type": "address"
        }
      ],
      "name": "OwnershipTransferred",
      "type": "event"
    },
    {
      "inputs": [
        {
          "internalType": "uint256",
          "name": "",
          "type": "uint256"
        }
      ],
      "name": "FxPerpetuals",
      "outputs": [
        {
          "internalType": "address",
          "name": "",
          "type": "address"
        }
      ],
      "stateMutability": "view",
      "type": "function"
    },
    {
      "inputs": [
        {
          "internalType": "address",
          "name": "_perpetual",
          "type": "address"
        }
      ],
      "name": "addFxPerpetual",
      "outputs": [],
      "stateMutability": "nonpayable",
      "type": "function"
    },
    {
      "inputs": [
        {
          "internalType": "uint256",
          "name": "",
          "type": "uint256"
        }
      ],
      "name": "buyHeads",
      "outputs": [
        {
          "internalType": "uint256",
          "name": "",
          "type": "uint256"
        }
      ],
      "stateMutability": "view",
      "type": "function"
    },
    {
      "inputs": [
        {
          "internalType": "uint256",
          "name": "_ID",
          "type": "uint256"
        }
      ],
      "name": "deleteBuy",
      "outputs": [],
      "stateMutability": "nonpayable",
      "type": "function"
    },
    {
      "inputs": [
        {
          "internalType": "uint256",
          "name": "_ID",
          "type": "uint256"
        }
      ],
      "name": "deleteSell",
      "outputs": [],
      "stateMutability": "nonpayable",
      "type": "function"
    },
    {
      "inputs": [
        {
          "internalType": "uint256",
          "name": "",
          "type": "uint256"
        }
      ],
      "name": "fundingRates",
      "outputs": [
        {
          "internalType": "int256",
          "name": "",
          "type": "int256"
        }
      ],
      "stateMutability": "view",
      "type": "function"
    },
    {
      "inputs": [
        {
          "internalType": "uint256",
          "name": "_tokenIndex",
          "type": "uint256"
        },
        {
          "internalType": "uint256",
          "name": "_price",
          "type": "uint256"
        },
        {
          "internalType": "uint256",
          "name": "_volume",
          "type": "uint256"
        },
        {
          "internalType": "uint256",
          "name": "_targetInsertion",
          "type": "uint256"
        }
      ],
      "name": "limitBuy",
      "outputs": [],
      "stateMutability": "nonpayable",
      "type": "function"
    },
    {
      "inputs": [
        {
          "internalType": "uint256",
          "name": "_tokenIndex",
          "type": "uint256"
        },
        {
          "internalType": "uint256",
          "name": "_price",
          "type": "uint256"
        },
        {
          "internalType": "uint256",
          "name": "_volume",
          "type": "uint256"
        },
        {
          "internalType": "uint256",
          "name": "_targetInsertion",
          "type": "uint256"
        }
      ],
      "name": "limitSell",
      "outputs": [],
      "stateMutability": "nonpayable",
      "type": "function"
    },
    {
      "inputs": [
        {
          "internalType": "uint256",
          "name": "_tokenIndex",
          "type": "uint256"
        },
        {
          "internalType": "uint256",
          "name": "_maxPrice",
          "type": "uint256"
        },
        {
          "internalType": "uint256",
          "name": "_volume",
          "type": "uint256"
        }
      ],
      "name": "marketBuy",
      "outputs": [
        {
          "internalType": "uint256",
          "name": "",
          "type": "uint256"
        }
      ],
      "stateMutability": "nonpayable",
      "type": "function"
    },
    {
      "inputs": [
        {
          "internalType": "uint256",
          "name": "_tokenIndex",
          "type": "uint256"
        },
        {
          "internalType": "uint256",
          "name": "_minPrice",
          "type": "uint256"
        },
        {
          "internalType": "uint256",
          "name": "_volume",
          "type": "uint256"
        }
      ],
      "name": "marketSell",
      "outputs": [
        {
          "internalType": "uint256",
          "name": "",
          "type": "uint256"
        }
      ],
      "stateMutability": "nonpayable",
      "type": "function"
    },
    {
      "inputs": [
        {
          "internalType": "uint256",
          "name": "",
          "type": "uint256"
        }
      ],
      "name": "openBuyOrders",
      "outputs": [
        {
          "internalType": "uint256",
          "name": "",
          "type": "uint256"
        }
      ],
      "stateMutability": "view",
      "type": "function"
    },
    {
      "inputs": [
        {
          "internalType": "uint256",
          "name": "",
          "type": "uint256"
        }
      ],
      "name": "openSellOrders",
      "outputs": [
        {
          "internalType": "uint256",
          "name": "",
          "type": "uint256"
        }
      ],
      "stateMutability": "view",
      "type": "function"
    },
    {
      "inputs": [],
      "name": "owner",
      "outputs": [
        {
          "internalType": "address",
          "name": "",
          "type": "address"
        }
      ],
      "stateMutability": "view",
      "type": "function"
    },
    {
      "inputs": [
        {
          "internalType": "uint256",
          "name": "",
          "type": "uint256"
        }
      ],
      "name": "prices",
      "outputs": [
        {
          "internalType": "uint256",
          "name": "",
          "type": "uint256"
        }
      ],
      "stateMutability": "view",
      "type": "function"
    },
    {
      "inputs": [],
      "name": "renounceOwnership",
      "outputs": [],
      "stateMutability": "nonpayable",
      "type": "function"
    },
    {
      "inputs": [
        {
          "internalType": "uint256",
          "name": "",
          "type": "uint256"
        }
      ],
      "name": "sellHeads",
      "outputs": [
        {
          "internalType": "uint256",
          "name": "",
          "type": "uint256"
        }
      ],
      "stateMutability": "view",
      "type": "function"
    },
    {
      "inputs": [
        {
          "internalType": "address",
          "name": "newOwner",
          "type": "address"
        }
      ],
      "name": "transferOwnership",
      "outputs": [],
      "stateMutability": "nonpayable",
      "type": "function"
    }
  ],
  "bytecode": "0x60806040523480156200001157600080fd5b5060405162004619380380620046198339818101604052810190620000379190620007b6565b620000576200004b620001df60201b60201c565b620001e760201b60201c565b85600390805190602001906200006f929190620002ab565b5081600160006101000a81548173ffffffffffffffffffffffffffffffffffffffff021916908373ffffffffffffffffffffffffffffffffffffffff16021790555080600260006101000a81548173ffffffffffffffffffffffffffffffffffffffff021916908373ffffffffffffffffffffffffffffffffffffffff16021790555083600490805190602001906200010a9291906200033a565b508460059080519060200190620001239291906200038c565b5084600690805190602001906200013c9291906200038c565b508460079080519060200190620001559291906200038c565b5084600890805190602001906200016e9291906200038c565b508460099080519060200190620001879291906200038c565b5084600b9080519060200190620001a09291906200038c565b5084600c9080519060200190620001b99291906200038c565b5082600a9080519060200190620001d2929190620003de565b5050505050505062000aa1565b600033905090565b60008060009054906101000a900473ffffffffffffffffffffffffffffffffffffffff169050816000806101000a81548173ffffffffffffffffffffffffffffffffffffffff021916908373ffffffffffffffffffffffffffffffffffffffff1602179055508173ffffffffffffffffffffffffffffffffffffffff168173ffffffffffffffffffffffffffffffffffffffff167f8be0079c531659141344cd1fd0a4f28419497f9722a3daafe3b4186f6b6457e060405160405180910390a35050565b82805482825590600052602060002090810192821562000327579160200282015b82811115620003265782518260006101000a81548173ffffffffffffffffffffffffffffffffffffffff021916908373ffffffffffffffffffffffffffffffffffffffff16021790555091602001919060010190620002cc565b5b50905062000336919062000445565b5090565b82805482825590600052602060002090810192821562000379579160200282015b82811115620003785782518255916020019190600101906200035b565b5b50905062000388919062000464565b5090565b828054828255906000526020600020908101928215620003cb579160200282015b82811115620003ca578251825591602001919060010190620003ad565b5b509050620003da919062000445565b5090565b82805482825590600052602060002090810192821562000432579160200282015b8281111562000431578251829080519060200190620004209291906200038c565b5091602001919060010190620003ff565b5b50905062000441919062000483565b5090565b5b808211156200046057600081600090555060010162000446565b5090565b5b808211156200047f57600081600090555060010162000465565b5090565b5b80821115620004a757600081816200049d9190620004ab565b5060010162000484565b5090565b5080546000825590600052602060002090810190620004cb919062000445565b50565b6000620004e5620004df84620008d9565b620008b0565b905080838252602082019050828560208602820111156200050557600080fd5b60005b858110156200053957816200051e8882620006bd565b84526020840193506020830192505060018101905062000508565b5050509392505050565b60006200055a620005548462000908565b620008b0565b905080838252602082019050828560208602820111156200057a57600080fd5b60005b85811015620005c957815167ffffffffffffffff8111156200059e57600080fd5b808601620005ad89826200075b565b855260208501945060208401935050506001810190506200057d565b5050509392505050565b6000620005ea620005e48462000937565b620008b0565b905080838252602082019050828560208602820111156200060a57600080fd5b60005b858110156200063e578162000623888262000788565b8452602084019350602083019250506001810190506200060d565b5050509392505050565b60006200065f620006598462000966565b620008b0565b905080838252602082019050828560208602820111156200067f57600080fd5b60005b85811015620006b357816200069888826200079f565b84526020840193506020830192505060018101905062000682565b5050509392505050565b600081519050620006ce8162000a53565b92915050565b600082601f830112620006e657600080fd5b8151620006f8848260208601620004ce565b91505092915050565b600082601f8301126200071357600080fd5b81516200072584826020860162000543565b91505092915050565b600082601f8301126200074057600080fd5b815162000752848260208601620005d3565b91505092915050565b600082601f8301126200076d57600080fd5b81516200077f84826020860162000648565b91505092915050565b600081519050620007998162000a6d565b92915050565b600081519050620007b08162000a87565b92915050565b60008060008060008060c08789031215620007d057600080fd5b600087015167ffffffffffffffff811115620007eb57600080fd5b620007f989828a01620006d4565b965050602087015167ffffffffffffffff8111156200081757600080fd5b6200082589828a016200075b565b955050604087015167ffffffffffffffff8111156200084357600080fd5b6200085189828a016200072e565b945050606087015167ffffffffffffffff8111156200086f57600080fd5b6200087d89828a0162000701565b93505060806200089089828a01620006bd565b92505060a0620008a389828a01620006bd565b9150509295509295509295565b6000620008bc620008cf565b9050620008ca8282620009dd565b919050565b6000604051905090565b600067ffffffffffffffff821115620008f757620008f662000a13565b5b602082029050602081019050919050565b600067ffffffffffffffff82111562000926576200092562000a13565b5b602082029050602081019050919050565b600067ffffffffffffffff82111562000955576200095462000a13565b5b602082029050602081019050919050565b600067ffffffffffffffff82111562000984576200098362000a13565b5b602082029050602081019050919050565b6000620009a282620009b3565b9050919050565b6000819050919050565b600073ffffffffffffffffffffffffffffffffffffffff82169050919050565b6000819050919050565b620009e88262000a42565b810181811067ffffffffffffffff8211171562000a0a5762000a0962000a13565b5b80604052505050565b7f4e487b7100000000000000000000000000000000000000000000000000000000600052604160045260246000fd5b6000601f19601f8301169050919050565b62000a5e8162000995565b811462000a6a57600080fd5b50565b62000a7881620009a9565b811462000a8457600080fd5b50565b62000a9281620009d3565b811462000a9e57600080fd5b50565b613b688062000ab16000396000f3fe608060405234801561001057600080fd5b506004361061010b5760003560e01c80638da5cb5b116100a2578063cff93a2811610071578063cff93a28146102dc578063d6d423d81461030c578063db39cdc01461033c578063f0768cf714610358578063f2fde38b146103745761010b565b80638da5cb5b146102425780639ff1549c14610260578063b55e09121461027c578063bc31c1c1146102ac5761010b565b806359d5445b116100de57806359d5445b146101d05780635c285acb146101ec5780636ba755ef1461021c578063715018a6146102385761010b565b80631bed7a811461011057806335460d92146101405780633c8e5d4414610170578063476d4f3f146101a0575b600080fd5b61012a600480360381019061012591906135c5565b610390565b604051610137919061373c565b60405180910390f35b61015a600480360381019061015591906135c5565b6103cf565b604051610167919061383b565b60405180910390f35b61018a60048036038101906101859190613617565b6103f3565b604051610197919061383b565b60405180910390f35b6101ba60048036038101906101b591906135c5565b610bc5565b6040516101c7919061383b565b60405180910390f35b6101ea60048036038101906101e591906135c5565b610be9565b005b610206600480360381019061020191906135c5565b610e52565b604051610213919061383b565b60405180910390f35b61023660048036038101906102319190613666565b610e76565b005b61024061171e565b005b61024a6117a6565b604051610257919061373c565b60405180910390f35b61027a600480360381019061027591906135c5565b6117cf565b005b61029660048036038101906102919190613617565b611a38565b6040516102a3919061383b565b60405180910390f35b6102c660048036038101906102c191906135c5565b6121d6565b6040516102d3919061383b565b60405180910390f35b6102f660048036038101906102f191906135c5565b6121fa565b60405161030391906137e0565b60405180910390f35b610326600480360381019061032191906135c5565b61221e565b604051610333919061383b565b60405180910390f35b61035660048036038101906103519190613573565b612242565b005b610372600480360381019061036d9190613666565b6124bb565b005b61038e60048036038101906103899190613573565b612d5a565b005b600381815481106103a057600080fd5b906000526020600020016000915054906101000a900473ffffffffffffffffffffffffffffffffffffffff1681565b600781815481106103df57600080fd5b906000526020600020016000915090505481565b600083600080600090505b60058110156104b5576104a0600a8481548110610444577f4e487b7100000000000000000000000000000000000000000000000000000000600052603260045260246000fd5b906000526020600020018281548110610486577f4e487b7100000000000000000000000000000000000000000000000000000000600052603260045260246000fd5b906000526020600020015483612e5290919063ffffffff16565b915080806104ad906139ce565b9150506103fe565b506104ca600582612e6890919063ffffffff16565b60058381548110610504577f4e487b7100000000000000000000000000000000000000000000000000000000600052603260045260246000fd5b906000526020600020018190555060006003878154811061054e577f4e487b7100000000000000000000000000000000000000000000000000000000600052603260045260246000fd5b9060005260206000200160009054906101000a900473ffffffffffffffffffffffffffffffffffffffff16905061058e8587612e7e90919063ffffffff16565b600160009054906101000a900473ffffffffffffffffffffffffffffffffffffffff1673ffffffffffffffffffffffffffffffffffffffff1663dd62ed3e33306040518363ffffffff1660e01b81526004016105eb929190613757565b60206040518083038186803b15801561060357600080fd5b505afa158015610617573d6000803e3d6000fd5b505050506040513d601f19601f8201168201806040525081019061063b91906135ee565b101561064657600080fd5b600060098881548110610682577f4e487b7100000000000000000000000000000000000000000000000000000000600052603260045260246000fd5b90600052602060002001541161069757600080fd5b6000600788815481106106d3577f4e487b7100000000000000000000000000000000000000000000000000000000600052603260045260246000fd5b906000526020600020015490505b6000861180156107065750866011600083815260200190815260200160002060030154105b15610bb6576000601160008381526020019081526020016000209050868160040154106109a857600160009054906101000a900473ffffffffffffffffffffffffffffffffffffffff1673ffffffffffffffffffffffffffffffffffffffff166323b872dd338360000160009054906101000a900473ffffffffffffffffffffffffffffffffffffffff166107a885600301548c612e7e90919063ffffffff16565b6040518463ffffffff1660e01b81526004016107c693929190613780565b602060405180830381600087803b1580156107e057600080fd5b505af11580156107f4573d6000803e3d6000fd5b505050506040513d601f19601f82011682018060405250810190610818919061359c565b508273ffffffffffffffffffffffffffffffffffffffff1663a9059cbb33896040518363ffffffff1660e01b81526004016108549291906137b7565b602060405180830381600087803b15801561086e57600080fd5b505af1158015610882573d6000803e3d6000fd5b505050506040513d601f19601f820116820180604052508101906108a6919061359c565b506108be878260040154612e9490919063ffffffff16565b81600401819055506000816004015414156109415760116000838152602001908152602001600020600080820160006101000a81549073ffffffffffffffffffffffffffffffffffffffff021916905560018201600090556002820160009055600382016000905560048201600090556005820160009055600682016000905550505b600b898154811061097b577f4e487b7100000000000000000000000000000000000000000000000000000000600052603260045260246000fd5b906000526020600020015443111561099c5761099b898260030154612eaa565b5b60009550505050610bbc565b600160009054906101000a900473ffffffffffffffffffffffffffffffffffffffff1673ffffffffffffffffffffffffffffffffffffffff166323b872dd338360000160009054906101000a900473ffffffffffffffffffffffffffffffffffffffff16610a2785600301548660040154612e7e90919063ffffffff16565b6040518463ffffffff1660e01b8152600401610a4593929190613780565b602060405180830381600087803b158015610a5f57600080fd5b505af1158015610a73573d6000803e3d6000fd5b505050506040513d601f19601f82011682018060405250810190610a97919061359c565b508273ffffffffffffffffffffffffffffffffffffffff1663a9059cbb3383600401546040518363ffffffff1660e01b8152600401610ad79291906137b7565b602060405180830381600087803b158015610af157600080fd5b505af1158015610b05573d6000803e3d6000fd5b505050506040513d601f19601f82011682018060405250810190610b29919061359c565b50610b41816004015488612e9490919063ffffffff16565b965060116000838152602001908152602001600020600080820160006101000a81549073ffffffffffffffffffffffffffffffffffffffff02191690556001820160009055600282016000905560038201600090556004820160009055600582016000905560068201600090555050506106e1565b85945050505b50509392505050565b60068181548110610bd557600080fd5b906000526020600020016000915090505481565b6010600082815260200190815260200160002060000160009054906101000a900473ffffffffffffffffffffffffffffffffffffffff1673ffffffffffffffffffffffffffffffffffffffff163373ffffffffffffffffffffffffffffffffffffffff1614610c5757600080fd5b6006601060008381526020019081526020016000206001015481548110610ca7577f4e487b7100000000000000000000000000000000000000000000000000000000600052603260045260246000fd5b9060005260206000200154811415610cbe57600080fd5b600060106000838152602001908152602001600020600601541415610cfd57610cfc601060008381526020019081526020016000206001015461314e565b5b600060106000838152602001908152602001600020600501541415610d53576000601060006010600085815260200190815260200160002060060154815260200190815260200160002060050181905550610de2565b601060008281526020019081526020016000206005015460106000601060008581526020019081526020016000206006015481526020019081526020016000206005018190555060106000828152602001908152602001600020600601546010600060106000858152602001908152602001600020600501548152602001908152602001600020600601819055505b60106000828152602001908152602001600020600080820160006101000a81549073ffffffffffffffffffffffffffffffffffffffff0219169055600182016000905560028201600090556003820160009055600482016000905560058201600090556006820160009055505050565b60098181548110610e6257600080fd5b906000526020600020016000915090505481565b600060038581548110610eb2577f4e487b7100000000000000000000000000000000000000000000000000000000600052603260045260246000fd5b9060005260206000200160009054906101000a900473ffffffffffffffffffffffffffffffffffffffff169050610ef28484612e7e90919063ffffffff16565b8173ffffffffffffffffffffffffffffffffffffffff1663dd62ed3e33306040518363ffffffff1660e01b8152600401610f2d929190613757565b60206040518083038186803b158015610f4557600080fd5b505afa158015610f59573d6000803e3d6000fd5b505050506040513d601f19601f82011682018060405250810190610f7d91906135ee565b1015610f8857600080fd5b60008060088781548110610fc5577f4e487b7100000000000000000000000000000000000000000000000000000000600052603260045260246000fd5b9060005260206000200154111561108857610fe1868686611a38565b90506000811415610ff3575050611718565b8173ffffffffffffffffffffffffffffffffffffffff166323b872dd3330846040518463ffffffff1660e01b815260040161103093929190613780565b602060405180830381600087803b15801561104a57600080fd5b505af115801561105e573d6000803e3d6000fd5b505050506040513d601f19601f82011682018060405250810190611082919061359c565b50611119565b8173ffffffffffffffffffffffffffffffffffffffff166323b872dd3330876040518463ffffffff1660e01b81526004016110c593929190613780565b602060405180830381600087803b1580156110df57600080fd5b505af11580156110f3573d6000803e3d6000fd5b505050506040513d601f19601f82011682018060405250810190611117919061359c565b505b600e600081548092919061112c906139ce565b919050555060006040518060e001604052803373ffffffffffffffffffffffffffffffffffffffff168152602001888152602001600e5481526020018781526020016000841461117c578361117e565b865b815260200160008152602001600081525090508060116000600e54815260200190815260200160002060008201518160000160006101000a81548173ffffffffffffffffffffffffffffffffffffffff021916908373ffffffffffffffffffffffffffffffffffffffff1602179055506020820151816001015560408201518160020155606082015181600301556080820151816004015560a0820151816005015560c08201518160060155905050600060098881548110611269577f4e487b7100000000000000000000000000000000000000000000000000000000600052603260045260246000fd5b9060005260206000200154141561132757600e54600788815481106112b7577f4e487b7100000000000000000000000000000000000000000000000000000000600052603260045260246000fd5b9060005260206000200181905550600987815481106112ff577f4e487b7100000000000000000000000000000000000000000000000000000000600052603260045260246000fd5b90600052602060002001600081548092919061131a906139ce565b9190505550505050611718565b60006011600060078a81548110611367577f4e487b7100000000000000000000000000000000000000000000000000000000600052603260045260246000fd5b9060005260206000200154815260200190815260200160002090508060030154871015611459578160400151600789815481106113cd577f4e487b7100000000000000000000000000000000000000000000000000000000600052603260045260246000fd5b906000526020600020018190555080600201548260a00181815250508160400151816006018190555060098881548110611430577f4e487b7100000000000000000000000000000000000000000000000000000000600052603260045260246000fd5b90600052602060002001600081548092919061144b906139ce565b919050555050505050611718565b60008160050154905060008114156114ea578260400151826005018190555081600201548360c0018181525050600989815481106114c0577f4e487b7100000000000000000000000000000000000000000000000000000000600052603260045260246000fd5b9060005260206000200160008154809291906114db906139ce565b91905055505050505050611718565b8860116000888152602001908152602001600020600101541480156115245750876011600088815260200190815260200160002060030154105b1561152d578590505b5b876011600083815260200190815260200160002060030154101561158e576000601160008381526020019081526020016000206005015414156115705761158e565b6011600082815260200190815260200160002060050154905061152e565b60006011600083815260200190815260200160002060050154141561163a5782604001516011600083815260200190815260200160002060050181905550808360c001818152505060098981548110611610577f4e487b7100000000000000000000000000000000000000000000000000000000600052603260045260246000fd5b90600052602060002001600081548092919061162b906139ce565b91905055505050505050611718565b826040015160116000601160008581526020019081526020016000206006015481526020019081526020016000206005018190555060116000828152602001908152602001600020600601548360c0018181525050808360a001818152505082604001516011600083815260200190815260200160002060060181905550600989815481106116f2577f4e487b7100000000000000000000000000000000000000000000000000000000600052603260045260246000fd5b90600052602060002001600081548092919061170d906139ce565b919050555050505050505b50505050565b611726613299565b73ffffffffffffffffffffffffffffffffffffffff166117446117a6565b73ffffffffffffffffffffffffffffffffffffffff161461179a576040517f08c379a00000000000000000000000000000000000000000000000000000000081526004016117919061381b565b60405180910390fd5b6117a460006132a1565b565b60008060009054906101000a900473ffffffffffffffffffffffffffffffffffffffff16905090565b6011600082815260200190815260200160002060000160009054906101000a900473ffffffffffffffffffffffffffffffffffffffff1673ffffffffffffffffffffffffffffffffffffffff163373ffffffffffffffffffffffffffffffffffffffff161461183d57600080fd5b600760116000838152602001908152602001600020600101548154811061188d577f4e487b7100000000000000000000000000000000000000000000000000000000600052603260045260246000fd5b90600052602060002001548114156118a457600080fd5b6000601160008381526020019081526020016000206006015414156118e3576118e26011600083815260200190815260200160002060010154613365565b5b6000601160008381526020019081526020016000206005015414156119395760006011600060116000858152602001908152602001600020600601548152602001908152602001600020600501819055506119c8565b601160008281526020019081526020016000206005015460116000601160008581526020019081526020016000206006015481526020019081526020016000206005018190555060116000828152602001908152602001600020600601546011600060116000858152602001908152602001600020600501548152602001908152602001600020600601819055505b60116000828152602001908152602001600020600080820160006101000a81549073ffffffffffffffffffffffffffffffffffffffff0219169055600182016000905560028201600090556003820160009055600482016000905560058201600090556006820160009055505050565b600083600080600090505b6005811015611afa57611ae5600a8481548110611a89577f4e487b7100000000000000000000000000000000000000000000000000000000600052603260045260246000fd5b906000526020600020018281548110611acb577f4e487b7100000000000000000000000000000000000000000000000000000000600052603260045260246000fd5b906000526020600020015483612e5290919063ffffffff16565b91508080611af2906139ce565b915050611a43565b50611b0f600582612e6890919063ffffffff16565b60058381548110611b49577f4e487b7100000000000000000000000000000000000000000000000000000000600052603260045260246000fd5b9060005260206000200181905550600060038781548110611b93577f4e487b7100000000000000000000000000000000000000000000000000000000600052603260045260246000fd5b9060005260206000200160009054906101000a900473ffffffffffffffffffffffffffffffffffffffff169050848173ffffffffffffffffffffffffffffffffffffffff1663dd62ed3e33306040518363ffffffff1660e01b8152600401611bfc929190613757565b60206040518083038186803b158015611c1457600080fd5b505afa158015611c28573d6000803e3d6000fd5b505050506040513d601f19601f82011682018060405250810190611c4c91906135ee565b1015611c5757600080fd5b600060088881548110611c93577f4e487b7100000000000000000000000000000000000000000000000000000000600052603260045260246000fd5b906000526020600020015411611ca857600080fd5b600060068881548110611ce4577f4e487b7100000000000000000000000000000000000000000000000000000000600052603260045260246000fd5b906000526020600020015490505b600086118015611d175750866010600083815260200190815260200160002060030154115b156121c757600060106000838152602001908152602001600020905086816004015410611fb957600160009054906101000a900473ffffffffffffffffffffffffffffffffffffffff1673ffffffffffffffffffffffffffffffffffffffff1663a9059cbb33611d9484600301548b612e7e90919063ffffffff16565b6040518363ffffffff1660e01b8152600401611db19291906137b7565b602060405180830381600087803b158015611dcb57600080fd5b505af1158015611ddf573d6000803e3d6000fd5b505050506040513d601f19601f82011682018060405250810190611e03919061359c565b508273ffffffffffffffffffffffffffffffffffffffff166323b872dd338360000160009054906101000a900473ffffffffffffffffffffffffffffffffffffffff168a6040518463ffffffff1660e01b8152600401611e6593929190613780565b602060405180830381600087803b158015611e7f57600080fd5b505af1158015611e93573d6000803e3d6000fd5b505050506040513d601f19601f82011682018060405250810190611eb7919061359c565b50611ecf878260040154612e9490919063ffffffff16565b8160040181905550600081600401541415611f525760106000838152602001908152602001600020600080820160006101000a81549073ffffffffffffffffffffffffffffffffffffffff021916905560018201600090556002820160009055600382016000905560048201600090556005820160009055600682016000905550505b600b8981548110611f8c577f4e487b7100000000000000000000000000000000000000000000000000000000600052603260045260246000fd5b9060005260206000200154431115611fad57611fac898260030154612eaa565b5b600095505050506121cd565b600160009054906101000a900473ffffffffffffffffffffffffffffffffffffffff1673ffffffffffffffffffffffffffffffffffffffff1663a9059cbb3361201384600301548560040154612e7e90919063ffffffff16565b6040518363ffffffff1660e01b81526004016120309291906137b7565b602060405180830381600087803b15801561204a57600080fd5b505af115801561205e573d6000803e3d6000fd5b505050506040513d601f19601f82011682018060405250810190612082919061359c565b508273ffffffffffffffffffffffffffffffffffffffff166323b872dd338360000160009054906101000a900473ffffffffffffffffffffffffffffffffffffffff1684600401546040518463ffffffff1660e01b81526004016120e893929190613780565b602060405180830381600087803b15801561210257600080fd5b505af1158015612116573d6000803e3d6000fd5b505050506040513d601f19601f8201168201806040525081019061213a919061359c565b50612152816004015488612e9490919063ffffffff16565b965060106000838152602001908152602001600020600080820160006101000a81549073ffffffffffffffffffffffffffffffffffffffff0219169055600182016000905560028201600090556003820160009055600482016000905560058201600090556006820160009055505050611cf2565b85945050505b50509392505050565b600581815481106121e657600080fd5b906000526020600020016000915090505481565b6004818154811061220a57600080fd5b906000526020600020016000915090505481565b6008818154811061222e57600080fd5b906000526020600020016000915090505481565b61224a613299565b73ffffffffffffffffffffffffffffffffffffffff166122686117a6565b73ffffffffffffffffffffffffffffffffffffffff16146122be576040517f08c379a00000000000000000000000000000000000000000000000000000000081526004016122b59061381b565b60405180910390fd5b6003819080600181540180825580915050600190039060005260206000200160009091909190916101000a81548173ffffffffffffffffffffffffffffffffffffffff021916908373ffffffffffffffffffffffffffffffffffffffff160217905550600460009080600181540180825580915050600190039060005260206000200160009091909190915055600660009080600181540180825580915050600190039060005260206000200160009091909190915055600760009080600181540180825580915050600190039060005260206000200160009091909190915055600860009080600181540180825580915050600190039060005260206000200160009091909190915055600560009080600181540180825580915050600190039060005260206000200160009091909190915055600c60009080600181540180825580915050600190039060005260206000200160009091909190915055600b60009080600181540180825580915050600190039060005260206000200160009091909190915055600a6040518060a00160405280600060ff168152602001600060ff168152602001600060ff168152602001600060ff168152602001600060ff16815250908060018154018082558091505060019003906000526020600020016000909190919091509060056124b79291906134b0565b5050565b6124ce8383612e7e90919063ffffffff16565b600160009054906101000a900473ffffffffffffffffffffffffffffffffffffffff1673ffffffffffffffffffffffffffffffffffffffff1663dd62ed3e33306040518363ffffffff1660e01b815260040161252b929190613757565b60206040518083038186803b15801561254357600080fd5b505afa158015612557573d6000803e3d6000fd5b505050506040513d601f19601f8201168201806040525081019061257b91906135ee565b101561258657600080fd5b600080600986815481106125c3577f4e487b7100000000000000000000000000000000000000000000000000000000600052603260045260246000fd5b906000526020600020015411156126a7576125df8585856103f3565b905060008114156125f05750612d54565b600160009054906101000a900473ffffffffffffffffffffffffffffffffffffffff1673ffffffffffffffffffffffffffffffffffffffff166323b872dd3330846040518463ffffffff1660e01b815260040161264f93929190613780565b602060405180830381600087803b15801561266957600080fd5b505af115801561267d573d6000803e3d6000fd5b505050506040513d601f19601f820116820180604052508101906126a1919061359c565b5061275a565b600160009054906101000a900473ffffffffffffffffffffffffffffffffffffffff1673ffffffffffffffffffffffffffffffffffffffff166323b872dd3330866040518463ffffffff1660e01b815260040161270693929190613780565b602060405180830381600087803b15801561272057600080fd5b505af1158015612734573d6000803e3d6000fd5b505050506040513d601f19601f82011682018060405250810190612758919061359c565b505b600d600081548092919061276d906139ce565b919050555060006040518060e001604052803373ffffffffffffffffffffffffffffffffffffffff168152602001878152602001600d548152602001868152602001600084146127bd57836127bf565b855b815260200160008152602001600081525090508060106000600d54815260200190815260200160002060008201518160000160006101000a81548173ffffffffffffffffffffffffffffffffffffffff021916908373ffffffffffffffffffffffffffffffffffffffff1602179055506020820151816001015560408201518160020155606082015181600301556080820151816004015560a0820151816005015560c082015181600601559050506000600887815481106128aa577f4e487b7100000000000000000000000000000000000000000000000000000000600052603260045260246000fd5b9060005260206000200154141561296757600d54600687815481106128f8577f4e487b7100000000000000000000000000000000000000000000000000000000600052603260045260246000fd5b906000526020600020018190555060088681548110612940577f4e487b7100000000000000000000000000000000000000000000000000000000600052603260045260246000fd5b90600052602060002001600081548092919061295b906139ce565b91905055505050612d54565b600060106000600689815481106129a7577f4e487b7100000000000000000000000000000000000000000000000000000000600052603260045260246000fd5b9060005260206000200154815260200190815260200160002090508060030154861115612a9857816040015160068881548110612a0d577f4e487b7100000000000000000000000000000000000000000000000000000000600052603260045260246000fd5b906000526020600020018190555080600201548260a00181815250508160400151816006018190555060088781548110612a70577f4e487b7100000000000000000000000000000000000000000000000000000000600052603260045260246000fd5b906000526020600020016000815480929190612a8b906139ce565b9190505550505050612d54565b6000816005015490506000811415612b28578260400151826005018190555081600201548360c001818152505060088881548110612aff577f4e487b7100000000000000000000000000000000000000000000000000000000600052603260045260246000fd5b906000526020600020016000815480929190612b1a906139ce565b919050555050505050612d54565b876010600087815260200190815260200160002060010154148015612b625750866010600087815260200190815260200160002060030154115b15612b6b578490505b5b8660106000838152602001908152602001600020600301541115612bcc57600060106000838152602001908152602001600020600501541415612bae57612bcc565b60106000828152602001908152602001600020600501549050612b6c565b600060106000838152602001908152602001600020600501541415612c775782604001516010600083815260200190815260200160002060050181905550808360c001818152505060088881548110612c4e577f4e487b7100000000000000000000000000000000000000000000000000000000600052603260045260246000fd5b906000526020600020016000815480929190612c69906139ce565b919050555050505050612d54565b826040015160106000601060008581526020019081526020016000206006015481526020019081526020016000206005018190555060106000828152602001908152602001600020600601548360c0018181525050808360a00181815250508260400151601060008381526020019081526020016000206006018190555060088881548110612d2f577f4e487b7100000000000000000000000000000000000000000000000000000000600052603260045260246000fd5b906000526020600020016000815480929190612d4a906139ce565b9190505550505050505b50505050565b612d62613299565b73ffffffffffffffffffffffffffffffffffffffff16612d806117a6565b73ffffffffffffffffffffffffffffffffffffffff1614612dd6576040517f08c379a0000000000000000000000000000000000000000000000000000000008152600401612dcd9061381b565b60405180910390fd5b600073ffffffffffffffffffffffffffffffffffffffff168173ffffffffffffffffffffffffffffffffffffffff161415612e46576040517f08c379a0000000000000000000000000000000000000000000000000000000008152600401612e3d906137fb565b60405180910390fd5b612e4f816132a1565b50565b60008183612e609190613867565b905092915050565b60008183612e7691906138bd565b905092915050565b60008183612e8c91906138ee565b905092915050565b60008183612ea29190613948565b905092915050565b6005600c8381548110612ee6577f4e487b7100000000000000000000000000000000000000000000000000000000600052603260045260246000fd5b90600052602060002001541015612fcb5780600a8381548110612f32577f4e487b7100000000000000000000000000000000000000000000000000000000600052603260045260246000fd5b90600052602060002001600c8481548110612f76577f4e487b7100000000000000000000000000000000000000000000000000000000600052603260045260246000fd5b906000526020600020015481548110612fb8577f4e487b7100000000000000000000000000000000000000000000000000000000600052603260045260246000fd5b90600052602060002001819055506130a6565b80600a8381548110613006577f4e487b7100000000000000000000000000000000000000000000000000000000600052603260045260246000fd5b90600052602060002001600081548110613049577f4e487b7100000000000000000000000000000000000000000000000000000000600052603260045260246000fd5b90600052602060002001819055506001600c8381548110613093577f4e487b7100000000000000000000000000000000000000000000000000000000600052603260045260246000fd5b906000526020600020018190555061314a565b600c82815481106130e0577f4e487b7100000000000000000000000000000000000000000000000000000000600052603260045260246000fd5b9060005260206000200160008154809291906130fb906139ce565b919050555043600b838154811061313b577f4e487b7100000000000000000000000000000000000000000000000000000000600052603260045260246000fd5b90600052602060002001819055505b5050565b60006006828154811061318a577f4e487b7100000000000000000000000000000000000000000000000000000000600052603260045260246000fd5b906000526020600020015490506010600082815260200190815260200160002060050154600683815481106131e8577f4e487b7100000000000000000000000000000000000000000000000000000000600052603260045260246000fd5b9060005260206000200181905550600060106000601060008581526020019081526020016000206005015481526020019081526020016000206006018190555060106000828152602001908152602001600020600080820160006101000a81549073ffffffffffffffffffffffffffffffffffffffff021916905560018201600090556002820160009055600382016000905560048201600090556005820160009055600682016000905550505050565b600033905090565b60008060009054906101000a900473ffffffffffffffffffffffffffffffffffffffff169050816000806101000a81548173ffffffffffffffffffffffffffffffffffffffff021916908373ffffffffffffffffffffffffffffffffffffffff1602179055508173ffffffffffffffffffffffffffffffffffffffff168173ffffffffffffffffffffffffffffffffffffffff167f8be0079c531659141344cd1fd0a4f28419497f9722a3daafe3b4186f6b6457e060405160405180910390a35050565b6000600782815481106133a1577f4e487b7100000000000000000000000000000000000000000000000000000000600052603260045260246000fd5b906000526020600020015490506011600082815260200190815260200160002060050154600783815481106133ff577f4e487b7100000000000000000000000000000000000000000000000000000000600052603260045260246000fd5b9060005260206000200181905550600060116000601160008581526020019081526020016000206005015481526020019081526020016000206006018190555060116000828152602001908152602001600020600080820160006101000a81549073ffffffffffffffffffffffffffffffffffffffff021916905560018201600090556002820160009055600382016000905560048201600090556005820160009055600682016000905550505050565b8280548282559060005260206000209081019282156134f1579160200282015b828111156134f0578251829060ff169055916020019190600101906134d0565b5b5090506134fe9190613502565b5090565b5b8082111561351b576000816000905550600101613503565b5090565b60008135905061352e81613aed565b92915050565b60008151905061354381613b04565b92915050565b60008135905061355881613b1b565b92915050565b60008151905061356d81613b1b565b92915050565b60006020828403121561358557600080fd5b60006135938482850161351f565b91505092915050565b6000602082840312156135ae57600080fd5b60006135bc84828501613534565b91505092915050565b6000602082840312156135d757600080fd5b60006135e584828501613549565b91505092915050565b60006020828403121561360057600080fd5b600061360e8482850161355e565b91505092915050565b60008060006060848603121561362c57600080fd5b600061363a86828701613549565b935050602061364b86828701613549565b925050604061365c86828701613549565b9150509250925092565b6000806000806080858703121561367c57600080fd5b600061368a87828801613549565b945050602061369b87828801613549565b93505060406136ac87828801613549565b92505060606136bd87828801613549565b91505092959194509250565b6136d28161397c565b82525050565b6136e18161399a565b82525050565b60006136f4602683613856565b91506136ff82613a75565b604082019050919050565b6000613717602083613856565b915061372282613ac4565b602082019050919050565b613736816139c4565b82525050565b600060208201905061375160008301846136c9565b92915050565b600060408201905061376c60008301856136c9565b61377960208301846136c9565b9392505050565b600060608201905061379560008301866136c9565b6137a260208301856136c9565b6137af604083018461372d565b949350505050565b60006040820190506137cc60008301856136c9565b6137d9602083018461372d565b9392505050565b60006020820190506137f560008301846136d8565b92915050565b60006020820190508181036000830152613814816136e7565b9050919050565b600060208201905081810360008301526138348161370a565b9050919050565b6000602082019050613850600083018461372d565b92915050565b600082825260208201905092915050565b6000613872826139c4565b915061387d836139c4565b9250827fffffffffffffffffffffffffffffffffffffffffffffffffffffffffffffffff038211156138b2576138b1613a17565b5b828201905092915050565b60006138c8826139c4565b91506138d3836139c4565b9250826138e3576138e2613a46565b5b828204905092915050565b60006138f9826139c4565b9150613904836139c4565b9250817fffffffffffffffffffffffffffffffffffffffffffffffffffffffffffffffff048311821515161561393d5761393c613a17565b5b828202905092915050565b6000613953826139c4565b915061395e836139c4565b92508282101561397157613970613a17565b5b828203905092915050565b6000613987826139a4565b9050919050565b60008115159050919050565b6000819050919050565b600073ffffffffffffffffffffffffffffffffffffffff82169050919050565b6000819050919050565b60006139d9826139c4565b91507fffffffffffffffffffffffffffffffffffffffffffffffffffffffffffffffff821415613a0c57613a0b613a17565b5b600182019050919050565b7f4e487b7100000000000000000000000000000000000000000000000000000000600052601160045260246000fd5b7f4e487b7100000000000000000000000000000000000000000000000000000000600052601260045260246000fd5b7f4f776e61626c653a206e6577206f776e657220697320746865207a65726f206160008201527f6464726573730000000000000000000000000000000000000000000000000000602082015250565b7f4f776e61626c653a2063616c6c6572206973206e6f7420746865206f776e6572600082015250565b613af68161397c565b8114613b0157600080fd5b50565b613b0d8161398e565b8114613b1857600080fd5b50565b613b24816139c4565b8114613b2f57600080fd5b5056fea264697066735822122024a3dd7caa4b01ef52959969d60153104a7902c2bea45428b4fdea2cf03cdc5964736f6c63430008040033",
  "linkReferences": {},
  "deployedLinkReferences": {}
}