{
  "_format": "hh-sol-artifact-1",
  "contractName": "FxBase",
  "sourceName": "contracts/Vaults/FxBase.sol",
  "abi": [
    {
      "inputs": [
        {
          "internalType": "address[]",
          "name": "_collateralWhitelist",
          "type": "address[]"
        },
        {
          "internalType": "address",
          "name": "_oracle",
          "type": "address"
        },
        {
          "internalType": "address",
          "name": "_OrderBook",
          "type": "address"
        },
        {
          "internalType": "uint256",
          "name": "_debtTokenIndex",
          "type": "uint256"
        },
        {
          "internalType": "string",
          "name": "_name",
          "type": "string"
        },
        {
          "internalType": "string",
          "name": "_symbol",
          "type": "string"
        }
      ],
      "stateMutability": "nonpayable",
      "type": "constructor"
    },
    {
      "anonymous": false,
      "inputs": [
        {
          "indexed": true,
          "internalType": "address",
          "name": "owner",
          "type": "address"
        },
        {
          "indexed": true,
          "internalType": "address",
          "name": "spender",
          "type": "address"
        },
        {
          "indexed": false,
          "internalType": "uint256",
          "name": "value",
          "type": "uint256"
        }
      ],
      "name": "Approval",
      "type": "event"
    },
    {
      "anonymous": false,
      "inputs": [
        {
          "indexed": true,
          "internalType": "address",
          "name": "from",
          "type": "address"
        },
        {
          "indexed": true,
          "internalType": "address",
          "name": "to",
          "type": "address"
        },
        {
          "indexed": false,
          "internalType": "uint256",
          "name": "value",
          "type": "uint256"
        }
      ],
      "name": "Transfer",
      "type": "event"
    },
    {
      "inputs": [],
      "name": "DYNAMIC_BALANCE_MULTIPLIER",
      "outputs": [
        {
          "internalType": "uint256",
          "name": "",
          "type": "uint256"
        }
      ],
      "stateMutability": "view",
      "type": "function"
    },
    {
      "inputs": [
        {
          "internalType": "uint256",
          "name": "",
          "type": "uint256"
        }
      ],
      "name": "Vaults",
      "outputs": [
        {
          "internalType": "address",
          "name": "Owner",
          "type": "address"
        },
        {
          "internalType": "uint256",
          "name": "CollateralIndex",
          "type": "uint256"
        },
        {
          "internalType": "uint256",
          "name": "Collateral",
          "type": "uint256"
        },
        {
          "internalType": "uint256",
          "name": "Debt",
          "type": "uint256"
        },
        {
          "internalType": "uint256",
          "name": "ID",
          "type": "uint256"
        }
      ],
      "stateMutability": "view",
      "type": "function"
    },
    {
      "inputs": [
        {
          "internalType": "address",
          "name": "_collateral",
          "type": "address"
        }
      ],
      "name": "addCollateralOption",
      "outputs": [],
      "stateMutability": "nonpayable",
      "type": "function"
    },
    {
      "inputs": [
        {
          "internalType": "address",
          "name": "owner",
          "type": "address"
        },
        {
          "internalType": "address",
          "name": "spender",
          "type": "address"
        }
      ],
      "name": "allowance",
      "outputs": [
        {
          "internalType": "uint256",
          "name": "",
          "type": "uint256"
        }
      ],
      "stateMutability": "view",
      "type": "function"
    },
    {
      "inputs": [
        {
          "internalType": "address",
          "name": "spender",
          "type": "address"
        },
        {
          "internalType": "uint256",
          "name": "amount",
          "type": "uint256"
        }
      ],
      "name": "approve",
      "outputs": [
        {
          "internalType": "bool",
          "name": "",
          "type": "bool"
        }
      ],
      "stateMutability": "nonpayable",
      "type": "function"
    },
    {
      "inputs": [
        {
          "internalType": "address",
          "name": "account",
          "type": "address"
        }
      ],
      "name": "balanceOf",
      "outputs": [
        {
          "internalType": "uint256",
          "name": "",
          "type": "uint256"
        }
      ],
      "stateMutability": "view",
      "type": "function"
    },
    {
      "inputs": [
        {
          "internalType": "uint256",
          "name": "_vaultID",
          "type": "uint256"
        },
        {
          "internalType": "uint256",
          "name": "_amount",
          "type": "uint256"
        }
      ],
      "name": "borrow",
      "outputs": [],
      "stateMutability": "nonpayable",
      "type": "function"
    },
    {
      "inputs": [
        {
          "internalType": "uint256",
          "name": "_vaultID",
          "type": "uint256"
        }
      ],
      "name": "closePosition",
      "outputs": [],
      "stateMutability": "nonpayable",
      "type": "function"
    },
    {
      "inputs": [
        {
          "internalType": "uint256",
          "name": "",
          "type": "uint256"
        }
      ],
      "name": "collateralWhitelist",
      "outputs": [
        {
          "internalType": "address",
          "name": "",
          "type": "address"
        }
      ],
      "stateMutability": "view",
      "type": "function"
    },
    {
      "inputs": [],
      "name": "decimals",
      "outputs": [
        {
          "internalType": "uint8",
          "name": "",
          "type": "uint8"
        }
      ],
      "stateMutability": "view",
      "type": "function"
    },
    {
      "inputs": [
        {
          "internalType": "address",
          "name": "spender",
          "type": "address"
        },
        {
          "internalType": "uint256",
          "name": "subtractedValue",
          "type": "uint256"
        }
      ],
      "name": "decreaseAllowance",
      "outputs": [
        {
          "internalType": "bool",
          "name": "",
          "type": "bool"
        }
      ],
      "stateMutability": "nonpayable",
      "type": "function"
    },
    {
      "inputs": [
        {
          "internalType": "address",
          "name": "spender",
          "type": "address"
        },
        {
          "internalType": "uint256",
          "name": "addedValue",
          "type": "uint256"
        }
      ],
      "name": "increaseAllowance",
      "outputs": [
        {
          "internalType": "bool",
          "name": "",
          "type": "bool"
        }
      ],
      "stateMutability": "nonpayable",
      "type": "function"
    },
    {
      "inputs": [
        {
          "internalType": "uint256",
          "name": "",
          "type": "uint256"
        }
      ],
      "name": "isClosed",
      "outputs": [
        {
          "internalType": "bool",
          "name": "",
          "type": "bool"
        }
      ],
      "stateMutability": "view",
      "type": "function"
    },
    {
      "inputs": [
        {
          "internalType": "uint256",
          "name": "_vaultID",
          "type": "uint256"
        }
      ],
      "name": "liquidate",
      "outputs": [],
      "stateMutability": "nonpayable",
      "type": "function"
    },
    {
      "inputs": [],
      "name": "name",
      "outputs": [
        {
          "internalType": "string",
          "name": "",
          "type": "string"
        }
      ],
      "stateMutability": "view",
      "type": "function"
    },
    {
      "inputs": [
        {
          "internalType": "uint256",
          "name": "_collateralIndex",
          "type": "uint256"
        }
      ],
      "name": "openVault",
      "outputs": [
        {
          "internalType": "uint256",
          "name": "",
          "type": "uint256"
        }
      ],
      "stateMutability": "nonpayable",
      "type": "function"
    },
    {
      "inputs": [
        {
          "internalType": "uint256",
          "name": "_vaultID",
          "type": "uint256"
        },
        {
          "internalType": "uint256",
          "name": "_amount",
          "type": "uint256"
        }
      ],
      "name": "repay",
      "outputs": [],
      "stateMutability": "nonpayable",
      "type": "function"
    },
    {
      "inputs": [
        {
          "internalType": "uint256",
          "name": "_vaultID",
          "type": "uint256"
        },
        {
          "internalType": "uint256",
          "name": "_amount",
          "type": "uint256"
        }
      ],
      "name": "supply",
      "outputs": [],
      "stateMutability": "nonpayable",
      "type": "function"
    },
    {
      "inputs": [],
      "name": "symbol",
      "outputs": [
        {
          "internalType": "string",
          "name": "",
          "type": "string"
        }
      ],
      "stateMutability": "view",
      "type": "function"
    },
    {
      "inputs": [],
      "name": "totalSupply",
      "outputs": [
        {
          "internalType": "uint256",
          "name": "",
          "type": "uint256"
        }
      ],
      "stateMutability": "view",
      "type": "function"
    },
    {
      "inputs": [
        {
          "internalType": "address",
          "name": "to",
          "type": "address"
        },
        {
          "internalType": "uint256",
          "name": "amount",
          "type": "uint256"
        }
      ],
      "name": "transfer",
      "outputs": [
        {
          "internalType": "bool",
          "name": "",
          "type": "bool"
        }
      ],
      "stateMutability": "nonpayable",
      "type": "function"
    },
    {
      "inputs": [
        {
          "internalType": "address",
          "name": "from",
          "type": "address"
        },
        {
          "internalType": "address",
          "name": "to",
          "type": "address"
        },
        {
          "internalType": "uint256",
          "name": "amount",
          "type": "uint256"
        }
      ],
      "name": "transferFrom",
      "outputs": [
        {
          "internalType": "bool",
          "name": "",
          "type": "bool"
        }
      ],
      "stateMutability": "nonpayable",
      "type": "function"
    },
    {
      "inputs": [
        {
          "internalType": "uint256",
          "name": "_fundingRate",
          "type": "uint256"
        }
      ],
      "name": "updateDynamicMultiplier",
      "outputs": [],
      "stateMutability": "nonpayable",
      "type": "function"
    },
    {
      "inputs": [
        {
          "internalType": "uint256",
          "name": "_vaultID",
          "type": "uint256"
        },
        {
          "internalType": "uint256",
          "name": "_amount",
          "type": "uint256"
        }
      ],
      "name": "withdraw",
      "outputs": [],
      "stateMutability": "nonpayable",
      "type": "function"
    },
    {
      "stateMutability": "payable",
      "type": "receive"
    }
  ],
  "bytecode": "0x60806040523480156200001157600080fd5b50604051620035893803806200358983398181016040528101906200003791906200040a565b818181600390805190602001906200005192919062000189565b5080600490805190602001906200006a92919062000189565b50505084600d60006101000a81548173ffffffffffffffffffffffffffffffffffffffff021916908373ffffffffffffffffffffffffffffffffffffffff1602179055508260068190555085600a9080519060200190620000cd9291906200021a565b50670de0b6b3a7640000600781905550670de0b6b3a764000060098190555067016345785d8a000060088190555033600b60006101000a81548173ffffffffffffffffffffffffffffffffffffffff021916908373ffffffffffffffffffffffffffffffffffffffff16021790555083600c60006101000a81548173ffffffffffffffffffffffffffffffffffffffff021916908373ffffffffffffffffffffffffffffffffffffffff160217905550505050505050620006fc565b8280546200019790620005ed565b90600052602060002090601f016020900481019282620001bb576000855562000207565b82601f10620001d657805160ff191683800117855562000207565b8280016001018555821562000207579182015b8281111562000206578251825591602001919060010190620001e9565b5b509050620002169190620002a9565b5090565b82805482825590600052602060002090810192821562000296579160200282015b82811115620002955782518260006101000a81548173ffffffffffffffffffffffffffffffffffffffff021916908373ffffffffffffffffffffffffffffffffffffffff160217905550916020019190600101906200023b565b5b509050620002a59190620002a9565b5090565b5b80821115620002c4576000816000905550600101620002aa565b5090565b6000620002df620002d98462000514565b620004eb565b90508083825260208201905082856020860282011115620002ff57600080fd5b60005b8581101562000333578162000318888262000382565b84526020840193506020830192505060018101905062000302565b5050509392505050565b6000620003546200034e8462000543565b620004eb565b9050828152602081018484840111156200036d57600080fd5b6200037a848285620005b7565b509392505050565b6000815190506200039381620006c8565b92915050565b600082601f830112620003ab57600080fd5b8151620003bd848260208601620002c8565b91505092915050565b600082601f830112620003d857600080fd5b8151620003ea8482602086016200033d565b91505092915050565b6000815190506200040481620006e2565b92915050565b60008060008060008060c087890312156200042457600080fd5b600087015167ffffffffffffffff8111156200043f57600080fd5b6200044d89828a0162000399565b96505060206200046089828a0162000382565b95505060406200047389828a0162000382565b94505060606200048689828a01620003f3565b935050608087015167ffffffffffffffff811115620004a457600080fd5b620004b289828a01620003c6565b92505060a087015167ffffffffffffffff811115620004d057600080fd5b620004de89828a01620003c6565b9150509295509295509295565b6000620004f76200050a565b905062000505828262000623565b919050565b6000604051905090565b600067ffffffffffffffff82111562000532576200053162000688565b5b602082029050602081019050919050565b600067ffffffffffffffff82111562000561576200056062000688565b5b6200056c82620006b7565b9050602081019050919050565b600062000586826200058d565b9050919050565b600073ffffffffffffffffffffffffffffffffffffffff82169050919050565b6000819050919050565b60005b83811015620005d7578082015181840152602081019050620005ba565b83811115620005e7576000848401525b50505050565b600060028204905060018216806200060657607f821691505b602082108114156200061d576200061c62000659565b5b50919050565b6200062e82620006b7565b810181811067ffffffffffffffff8211171562000650576200064f62000688565b5b80604052505050565b7f4e487b7100000000000000000000000000000000000000000000000000000000600052602260045260246000fd5b7f4e487b7100000000000000000000000000000000000000000000000000000000600052604160045260246000fd5b6000601f19601f8301169050919050565b620006d38162000579565b8114620006df57600080fd5b50565b620006ed81620005ad565b8114620006f957600080fd5b50565b612e7d806200070c6000396000f3fe60806040526004361061014f5760003560e01c80636feba3ca116100b6578063a9059cbb1161006f578063a9059cbb146104d7578063d5c78a2814610514578063d8aed14514610551578063daecfa6c1461057a578063dd62ed3e146105a3578063fcd96b02146105e057610156565b80636feba3ca146103b757806370a08231146103e05780638f9bf8331461041d57806395d89b4114610446578063a126d60114610471578063a457c2d71461049a57610156565b8063313ce56711610108578063313ce5671461029157806339509351146102bc578063415f1240146102f9578063441a3e70146103225780635aca84151461034b578063626f5c021461038c57610156565b806304a2ce7e1461015b57806306fdde0314610198578063095ea7b3146101c35780630ecbcdab1461020057806318160ddd1461022957806323b872dd1461025457610156565b3661015657005b600080fd5b34801561016757600080fd5b50610182600480360381019061017d9190612416565b61061d565b60405161018f919061287f565b60405180910390f35b3480156101a457600080fd5b506101ad610747565b6040516101ba919061273d565b60405180910390f35b3480156101cf57600080fd5b506101ea60048036038101906101e591906123b1565b6107d9565b6040516101f79190612722565b60405180910390f35b34801561020c57600080fd5b5061022760048036038101906102229190612468565b6107fc565b005b34801561023557600080fd5b5061023e610a57565b60405161024b919061287f565b60405180910390f35b34801561026057600080fd5b5061027b60048036038101906102769190612362565b610a61565b6040516102889190612722565b60405180910390f35b34801561029d57600080fd5b506102a6610a90565b6040516102b3919061289a565b60405180910390f35b3480156102c857600080fd5b506102e360048036038101906102de91906123b1565b610a99565b6040516102f09190612722565b60405180910390f35b34801561030557600080fd5b50610320600480360381019061031b9190612416565b610ad0565b005b34801561032e57600080fd5b5061034960048036038101906103449190612468565b610b1b565b005b34801561035757600080fd5b50610372600480360381019061036d9190612416565b610d66565b6040516103839594939291906126cf565b60405180910390f35b34801561039857600080fd5b506103a1610dcc565b6040516103ae919061287f565b60405180910390f35b3480156103c357600080fd5b506103de60048036038101906103d991906122fd565b610dd2565b005b3480156103ec57600080fd5b50610407600480360381019061040291906122fd565b610e92565b604051610414919061287f565b60405180910390f35b34801561042957600080fd5b50610444600480360381019061043f9190612416565b610eda565b005b34801561045257600080fd5b5061045b610f6c565b604051610468919061273d565b60405180910390f35b34801561047d57600080fd5b5061049860048036038101906104939190612416565b610ffe565b005b3480156104a657600080fd5b506104c160048036038101906104bc91906123b1565b611160565b6040516104ce9190612722565b60405180910390f35b3480156104e357600080fd5b506104fe60048036038101906104f991906123b1565b6111d7565b60405161050b9190612722565b60405180910390f35b34801561052057600080fd5b5061053b60048036038101906105369190612416565b6111fa565b6040516105489190612722565b60405180910390f35b34801561055d57600080fd5b5061057860048036038101906105739190612468565b61121a565b005b34801561058657600080fd5b506105a1600480360381019061059c9190612468565b6112ef565b005b3480156105af57600080fd5b506105ca60048036038101906105c59190612326565b611492565b6040516105d7919061287f565b60405180910390f35b3480156105ec57600080fd5b5061060760048036038101906106029190612416565b611519565b6040516106149190612654565b60405180910390f35b6000806040518060a001604052803373ffffffffffffffffffffffffffffffffffffffff1681526020018481526020016000815260200160008152602001600554815250905080600e8260800151815481106106a2577f4e487b7100000000000000000000000000000000000000000000000000000000600052603260045260246000fd5b906000526020600020906005020160008201518160000160006101000a81548173ffffffffffffffffffffffffffffffffffffffff021916908373ffffffffffffffffffffffffffffffffffffffff160217905550602082015181600101556040820151816002015560608201518160030155608082015181600401559050506005600081548092919061073590612aa0565b91905055508060800151915050919050565b60606003805461075690612a6e565b80601f016020809104026020016040519081016040528092919081815260200182805461078290612a6e565b80156107cf5780601f106107a4576101008083540402835291602001916107cf565b820191906000526020600020905b8154815290600101906020018083116107b257829003601f168201915b5050505050905090565b6000806107e4611558565b90506107f1818585611560565b600191505092915050565b816000600e8281548110610839577f4e487b7100000000000000000000000000000000000000000000000000000000600052603260045260246000fd5b90600052602060002090600502016040518060a00160405290816000820160009054906101000a900473ffffffffffffffffffffffffffffffffffffffff1673ffffffffffffffffffffffffffffffffffffffff1673ffffffffffffffffffffffffffffffffffffffff1681526020016001820154815260200160028201548152602001600382015481526020016004820154815250509050806000015173ffffffffffffffffffffffffffffffffffffffff163373ffffffffffffffffffffffffffffffffffffffff161461090e57600080fd5b83600f600082815260200190815260200160002060009054906101000a900460ff161561093a57600080fd5b6000600e8681548110610976577f4e487b7100000000000000000000000000000000000000000000000000000000600052603260045260246000fd5b9060005260206000209060050201905060006109aa6006546109a588856003015461172b90919063ffffffff16565b611741565b905060006109d76007546109c96009548561183190919063ffffffff16565b61184790919063ffffffff16565b905060006109ed84600101548560020154611741565b9050600854610a1982610a0b6007548661183190919063ffffffff16565b61184790919063ffffffff16565b11610a2357600080fd5b610a3a88856003015461172b90919063ffffffff16565b8460030181905550610a4c338961185d565b505050505050505050565b6000600254905090565b600080610a6c611558565b9050610a798582856119bd565b610a84858585611a49565b60019150509392505050565b60006012905090565b600080610aa4611558565b9050610ac5818585610ab68589611492565b610ac091906128d1565b611560565b600191505092915050565b80600f600082815260200190815260200160002060009054906101000a900460ff1615610afc57600080fd5b610b0582611ce6565b610b0e57600080fd5b610b1782611e64565b5050565b816000600e8281548110610b58577f4e487b7100000000000000000000000000000000000000000000000000000000600052603260045260246000fd5b90600052602060002090600502016040518060a00160405290816000820160009054906101000a900473ffffffffffffffffffffffffffffffffffffffff1673ffffffffffffffffffffffffffffffffffffffff1673ffffffffffffffffffffffffffffffffffffffff1681526020016001820154815260200160028201548152602001600382015481526020016004820154815250509050806000015173ffffffffffffffffffffffffffffffffffffffff163373ffffffffffffffffffffffffffffffffffffffff1614610c2d57600080fd5b83600f600082815260200190815260200160002060009054906101000a900460ff1615610c5957600080fd5b6000600e8681548110610c95577f4e487b7100000000000000000000000000000000000000000000000000000000600052603260045260246000fd5b906000526020600020906005020190506000610cdf600654610cda600754610ccc600954876003015461183190919063ffffffff16565b61184790919063ffffffff16565b611741565b90506000610d078360010154610d028986600201546120b290919063ffffffff16565b611741565b9050600854610d3382610d256007548661183190919063ffffffff16565b61184790919063ffffffff16565b11610d3d57600080fd5b610d548784600201546120b290919063ffffffff16565b83600201819055505050505050505050565b600e8181548110610d7657600080fd5b90600052602060002090600502016000915090508060000160009054906101000a900473ffffffffffffffffffffffffffffffffffffffff16908060010154908060020154908060030154908060040154905085565b60095481565b600b60009054906101000a900473ffffffffffffffffffffffffffffffffffffffff1673ffffffffffffffffffffffffffffffffffffffff163373ffffffffffffffffffffffffffffffffffffffff1614610e2c57600080fd5b600a819080600181540180825580915050600190039060005260206000200160009091909190916101000a81548173ffffffffffffffffffffffffffffffffffffffff021916908373ffffffffffffffffffffffffffffffffffffffff16021790555050565b60008060008373ffffffffffffffffffffffffffffffffffffffff1673ffffffffffffffffffffffffffffffffffffffff168152602001908152602001600020549050919050565b600c60009054906101000a900473ffffffffffffffffffffffffffffffffffffffff1673ffffffffffffffffffffffffffffffffffffffff163373ffffffffffffffffffffffffffffffffffffffff1614610f3457600080fd5b6000610f4b8260095461183190919063ffffffff16565b9050610f626007548261184790919063ffffffff16565b6009819055505050565b606060048054610f7b90612a6e565b80601f0160208091040260200160405190810160405280929190818152602001828054610fa790612a6e565b8015610ff45780601f10610fc957610100808354040283529160200191610ff4565b820191906000526020600020905b815481529060010190602001808311610fd757829003601f168201915b5050505050905090565b6005546000600e828154811061103d577f4e487b7100000000000000000000000000000000000000000000000000000000600052603260045260246000fd5b90600052602060002090600502016040518060a00160405290816000820160009054906101000a900473ffffffffffffffffffffffffffffffffffffffff1673ffffffffffffffffffffffffffffffffffffffff1673ffffffffffffffffffffffffffffffffffffffff1681526020016001820154815260200160028201548152602001600382015481526020016004820154815250509050806000015173ffffffffffffffffffffffffffffffffffffffff163373ffffffffffffffffffffffffffffffffffffffff161461111257600080fd5b82600f600082815260200190815260200160002060009054906101000a900460ff161561113e57600080fd5b61114784611ce6565b1561115157600080fd5b61115a84611e64565b50505050565b60008061116b611558565b905060006111798286611492565b9050838110156111be576040517f08c379a00000000000000000000000000000000000000000000000000000000081526004016111b59061283f565b60405180910390fd5b6111cb8286868403611560565b60019250505092915050565b6000806111e2611558565b90506111ef818585611a49565b600191505092915050565b600f6020528060005260406000206000915054906101000a900460ff1681565b81600f600082815260200190815260200160002060009054906101000a900460ff161561124657600080fd5b6000600e8481548110611282577f4e487b7100000000000000000000000000000000000000000000000000000000600052603260045260246000fd5b9060005260206000209060050201905060006112bd6009546112af6007548761183190919063ffffffff16565b61184790919063ffffffff16565b90506112d68183600301546120b290919063ffffffff16565b82600301819055506112e833856120c8565b5050505050565b81600f600082815260200190815260200160002060009054906101000a900460ff161561131b57600080fd5b6000600e8481548110611357577f4e487b7100000000000000000000000000000000000000000000000000000000600052603260045260246000fd5b906000526020600020906005020190506000600a8260010154815481106113a7577f4e487b7100000000000000000000000000000000000000000000000000000000600052603260045260246000fd5b9060005260206000200160009054906101000a900473ffffffffffffffffffffffffffffffffffffffff1690508073ffffffffffffffffffffffffffffffffffffffff166323b872dd3330876040518463ffffffff1660e01b81526004016114119392919061266f565b602060405180830381600087803b15801561142b57600080fd5b505af115801561143f573d6000803e3d6000fd5b505050506040513d601f19601f8201168201806040525081019061146391906123ed565b61146c57600080fd5b61148384836002015461172b90919063ffffffff16565b82600201819055505050505050565b6000600160008473ffffffffffffffffffffffffffffffffffffffff1673ffffffffffffffffffffffffffffffffffffffff16815260200190815260200160002060008373ffffffffffffffffffffffffffffffffffffffff1673ffffffffffffffffffffffffffffffffffffffff16815260200190815260200160002054905092915050565b600a818154811061152957600080fd5b906000526020600020016000915054906101000a900473ffffffffffffffffffffffffffffffffffffffff1681565b600033905090565b600073ffffffffffffffffffffffffffffffffffffffff168373ffffffffffffffffffffffffffffffffffffffff1614156115d0576040517f08c379a00000000000000000000000000000000000000000000000000000000081526004016115c79061281f565b60405180910390fd5b600073ffffffffffffffffffffffffffffffffffffffff168273ffffffffffffffffffffffffffffffffffffffff161415611640576040517f08c379a00000000000000000000000000000000000000000000000000000000081526004016116379061279f565b60405180910390fd5b80600160008573ffffffffffffffffffffffffffffffffffffffff1673ffffffffffffffffffffffffffffffffffffffff16815260200190815260200160002060008473ffffffffffffffffffffffffffffffffffffffff1673ffffffffffffffffffffffffffffffffffffffff168152602001908152602001600020819055508173ffffffffffffffffffffffffffffffffffffffff168373ffffffffffffffffffffffffffffffffffffffff167f8c5be1e5ebec7d5bd14f71427d1e84f3dd0314c0f7b2291e5b200ac8c7c3b9258360405161171e919061287f565b60405180910390a3505050565b6000818361173991906128d1565b905092915050565b600080600d60009054906101000a900473ffffffffffffffffffffffffffffffffffffffff1673ffffffffffffffffffffffffffffffffffffffff1663e7572230856040518263ffffffff1660e01b815260040161179f919061287f565b60206040518083038186803b1580156117b757600080fd5b505afa1580156117cb573d6000803e3d6000fd5b505050506040513d601f19601f820116820180604052508101906117ef919061243f565b90506000811461182557611820600754611812858461183190919063ffffffff16565b61184790919063ffffffff16565b611828565b60005b91505092915050565b6000818361183f9190612958565b905092915050565b600081836118559190612927565b905092915050565b600073ffffffffffffffffffffffffffffffffffffffff168273ffffffffffffffffffffffffffffffffffffffff1614156118cd576040517f08c379a00000000000000000000000000000000000000000000000000000000081526004016118c49061285f565b60405180910390fd5b6118d96000838361229f565b80600260008282546118eb91906128d1565b92505081905550806000808473ffffffffffffffffffffffffffffffffffffffff1673ffffffffffffffffffffffffffffffffffffffff168152602001908152602001600020600082825461194091906128d1565b925050819055508173ffffffffffffffffffffffffffffffffffffffff16600073ffffffffffffffffffffffffffffffffffffffff167fddf252ad1be2c89b69c2b068fc378daa952ba7f163c4a11628f55a4df523b3ef836040516119a5919061287f565b60405180910390a36119b9600083836122a4565b5050565b60006119c98484611492565b90507fffffffffffffffffffffffffffffffffffffffffffffffffffffffffffffffff8114611a435781811015611a35576040517f08c379a0000000000000000000000000000000000000000000000000000000008152600401611a2c906127bf565b60405180910390fd5b611a428484848403611560565b5b50505050565b600073ffffffffffffffffffffffffffffffffffffffff168373ffffffffffffffffffffffffffffffffffffffff161415611ab9576040517f08c379a0000000000000000000000000000000000000000000000000000000008152600401611ab0906127ff565b60405180910390fd5b600073ffffffffffffffffffffffffffffffffffffffff168273ffffffffffffffffffffffffffffffffffffffff161415611b29576040517f08c379a0000000000000000000000000000000000000000000000000000000008152600401611b209061275f565b60405180910390fd5b611b3483838361229f565b60008060008573ffffffffffffffffffffffffffffffffffffffff1673ffffffffffffffffffffffffffffffffffffffff168152602001908152602001600020549050611ba0600754611b926009548461183190919063ffffffff16565b61184790919063ffffffff16565b821115611bac57600080fd5b6000611bc36009548461184790919063ffffffff16565b9050611bd881836120b290919063ffffffff16565b6000808773ffffffffffffffffffffffffffffffffffffffff1673ffffffffffffffffffffffffffffffffffffffff16815260200190815260200160002081905550826000808673ffffffffffffffffffffffffffffffffffffffff1673ffffffffffffffffffffffffffffffffffffffff1681526020019081526020016000206000828254611c6891906128d1565b925050819055508373ffffffffffffffffffffffffffffffffffffffff168573ffffffffffffffffffffffffffffffffffffffff167fddf252ad1be2c89b69c2b068fc378daa952ba7f163c4a11628f55a4df523b3ef85604051611ccc919061287f565b60405180910390a3611cdf8585856122a4565b5050505050565b600080600e8381548110611d23577f4e487b7100000000000000000000000000000000000000000000000000000000600052603260045260246000fd5b90600052602060002090600502016040518060a00160405290816000820160009054906101000a900473ffffffffffffffffffffffffffffffffffffffff1673ffffffffffffffffffffffffffffffffffffffff1673ffffffffffffffffffffffffffffffffffffffff16815260200160018201548152602001600282015481526020016003820154815260200160048201548152505090506000611deb600754611ddd600954856060015161183190919063ffffffff16565b61184790919063ffffffff16565b90506000611dfb60065483611741565b90506000611e1184602001518560400151611741565b9050600854611e3d82611e2f6007548661183190919063ffffffff16565b61184790919063ffffffff16565b11158015611e59575060008114158015611e58575060008214155b5b945050505050919050565b6000600e8281548110611ea0577f4e487b7100000000000000000000000000000000000000000000000000000000600052603260045260246000fd5b906000526020600020906005020190506000600a826001015481548110611ef0577f4e487b7100000000000000000000000000000000000000000000000000000000600052603260045260246000fd5b9060005260206000200160009054906101000a900473ffffffffffffffffffffffffffffffffffffffff169050611f543330611f4f600754611f41600954886003015461183190919063ffffffff16565b61184790919063ffffffff16565b610a61565b611f5d57600080fd5b8073ffffffffffffffffffffffffffffffffffffffff1663a9059cbb3384600201546040518363ffffffff1660e01b8152600401611f9c9291906126a6565b602060405180830381600087803b158015611fb657600080fd5b505af1158015611fca573d6000803e3d6000fd5b505050506040513d601f19601f82011682018060405250810190611fee91906123ed565b50600e8381548110612029577f4e487b7100000000000000000000000000000000000000000000000000000000600052603260045260246000fd5b9060005260206000209060050201600080820160006101000a81549073ffffffffffffffffffffffffffffffffffffffff0219169055600182016000905560028201600090556003820160009055600482016000905550506001600f600085815260200190815260200160002060006101000a81548160ff021916908315150217905550505050565b600081836120c091906129b2565b905092915050565b600073ffffffffffffffffffffffffffffffffffffffff168273ffffffffffffffffffffffffffffffffffffffff161415612138576040517f08c379a000000000000000000000000000000000000000000000000000000000815260040161212f906127df565b60405180910390fd5b6121448260008361229f565b60008060008473ffffffffffffffffffffffffffffffffffffffff1673ffffffffffffffffffffffffffffffffffffffff168152602001908152602001600020549050818110156121ca576040517f08c379a00000000000000000000000000000000000000000000000000000000081526004016121c19061277f565b60405180910390fd5b8181036000808573ffffffffffffffffffffffffffffffffffffffff1673ffffffffffffffffffffffffffffffffffffffff16815260200190815260200160002081905550816002600082825461222191906129b2565b92505081905550600073ffffffffffffffffffffffffffffffffffffffff168373ffffffffffffffffffffffffffffffffffffffff167fddf252ad1be2c89b69c2b068fc378daa952ba7f163c4a11628f55a4df523b3ef84604051612286919061287f565b60405180910390a361229a836000846122a4565b505050565b505050565b505050565b6000813590506122b881612e02565b92915050565b6000815190506122cd81612e19565b92915050565b6000813590506122e281612e30565b92915050565b6000815190506122f781612e30565b92915050565b60006020828403121561230f57600080fd5b600061231d848285016122a9565b91505092915050565b6000806040838503121561233957600080fd5b6000612347858286016122a9565b9250506020612358858286016122a9565b9150509250929050565b60008060006060848603121561237757600080fd5b6000612385868287016122a9565b9350506020612396868287016122a9565b92505060406123a7868287016122d3565b9150509250925092565b600080604083850312156123c457600080fd5b60006123d2858286016122a9565b92505060206123e3858286016122d3565b9150509250929050565b6000602082840312156123ff57600080fd5b600061240d848285016122be565b91505092915050565b60006020828403121561242857600080fd5b6000612436848285016122d3565b91505092915050565b60006020828403121561245157600080fd5b600061245f848285016122e8565b91505092915050565b6000806040838503121561247b57600080fd5b6000612489858286016122d3565b925050602061249a858286016122d3565b9150509250929050565b6124ad816129e6565b82525050565b6124bc816129f8565b82525050565b60006124cd826128b5565b6124d781856128c0565b93506124e7818560208601612a3b565b6124f081612b76565b840191505092915050565b60006125086023836128c0565b915061251382612b87565b604082019050919050565b600061252b6022836128c0565b915061253682612bd6565b604082019050919050565b600061254e6022836128c0565b915061255982612c25565b604082019050919050565b6000612571601d836128c0565b915061257c82612c74565b602082019050919050565b60006125946021836128c0565b915061259f82612c9d565b604082019050919050565b60006125b76025836128c0565b91506125c282612cec565b604082019050919050565b60006125da6024836128c0565b91506125e582612d3b565b604082019050919050565b60006125fd6025836128c0565b915061260882612d8a565b604082019050919050565b6000612620601f836128c0565b915061262b82612dd9565b602082019050919050565b61263f81612a24565b82525050565b61264e81612a2e565b82525050565b600060208201905061266960008301846124a4565b92915050565b600060608201905061268460008301866124a4565b61269160208301856124a4565b61269e6040830184612636565b949350505050565b60006040820190506126bb60008301856124a4565b6126c86020830184612636565b9392505050565b600060a0820190506126e460008301886124a4565b6126f16020830187612636565b6126fe6040830186612636565b61270b6060830185612636565b6127186080830184612636565b9695505050505050565b600060208201905061273760008301846124b3565b92915050565b6000602082019050818103600083015261275781846124c2565b905092915050565b60006020820190508181036000830152612778816124fb565b9050919050565b600060208201905081810360008301526127988161251e565b9050919050565b600060208201905081810360008301526127b881612541565b9050919050565b600060208201905081810360008301526127d881612564565b9050919050565b600060208201905081810360008301526127f881612587565b9050919050565b60006020820190508181036000830152612818816125aa565b9050919050565b60006020820190508181036000830152612838816125cd565b9050919050565b60006020820190508181036000830152612858816125f0565b9050919050565b6000602082019050818103600083015261287881612613565b9050919050565b60006020820190506128946000830184612636565b92915050565b60006020820190506128af6000830184612645565b92915050565b600081519050919050565b600082825260208201905092915050565b60006128dc82612a24565b91506128e783612a24565b9250827fffffffffffffffffffffffffffffffffffffffffffffffffffffffffffffffff0382111561291c5761291b612ae9565b5b828201905092915050565b600061293282612a24565b915061293d83612a24565b92508261294d5761294c612b18565b5b828204905092915050565b600061296382612a24565b915061296e83612a24565b9250817fffffffffffffffffffffffffffffffffffffffffffffffffffffffffffffffff04831182151516156129a7576129a6612ae9565b5b828202905092915050565b60006129bd82612a24565b91506129c883612a24565b9250828210156129db576129da612ae9565b5b828203905092915050565b60006129f182612a04565b9050919050565b60008115159050919050565b600073ffffffffffffffffffffffffffffffffffffffff82169050919050565b6000819050919050565b600060ff82169050919050565b60005b83811015612a59578082015181840152602081019050612a3e565b83811115612a68576000848401525b50505050565b60006002820490506001821680612a8657607f821691505b60208210811415612a9a57612a99612b47565b5b50919050565b6000612aab82612a24565b91507fffffffffffffffffffffffffffffffffffffffffffffffffffffffffffffffff821415612ade57612add612ae9565b5b600182019050919050565b7f4e487b7100000000000000000000000000000000000000000000000000000000600052601160045260246000fd5b7f4e487b7100000000000000000000000000000000000000000000000000000000600052601260045260246000fd5b7f4e487b7100000000000000000000000000000000000000000000000000000000600052602260045260246000fd5b6000601f19601f8301169050919050565b7f45524332303a207472616e7366657220746f20746865207a65726f206164647260008201527f6573730000000000000000000000000000000000000000000000000000000000602082015250565b7f45524332303a206275726e20616d6f756e7420657863656564732062616c616e60008201527f6365000000000000000000000000000000000000000000000000000000000000602082015250565b7f45524332303a20617070726f766520746f20746865207a65726f20616464726560008201527f7373000000000000000000000000000000000000000000000000000000000000602082015250565b7f45524332303a20696e73756666696369656e7420616c6c6f77616e6365000000600082015250565b7f45524332303a206275726e2066726f6d20746865207a65726f2061646472657360008201527f7300000000000000000000000000000000000000000000000000000000000000602082015250565b7f45524332303a207472616e736665722066726f6d20746865207a65726f20616460008201527f6472657373000000000000000000000000000000000000000000000000000000602082015250565b7f45524332303a20617070726f76652066726f6d20746865207a65726f2061646460008201527f7265737300000000000000000000000000000000000000000000000000000000602082015250565b7f45524332303a2064656372656173656420616c6c6f77616e63652062656c6f7760008201527f207a65726f000000000000000000000000000000000000000000000000000000602082015250565b7f45524332303a206d696e7420746f20746865207a65726f206164647265737300600082015250565b612e0b816129e6565b8114612e1657600080fd5b50565b612e22816129f8565b8114612e2d57600080fd5b50565b612e3981612a24565b8114612e4457600080fd5b5056fea2646970667358221220d0dd9fee90483c10da9c34a314959738ab536d98af725996faeb79062385bb1c64736f6c63430008040033",
  "linkReferences": {},
  "deployedLinkReferences": {}
}