{
  "_format": "hh-sol-artifact-1",
  "contractName": "FxBase",
  "sourceName": "contracts/Vaults/FxBase.sol",
  "abi": [
    {
      "inputs": [
        {
          "internalType": "address[]",
          "name": "_collateralWhitelist",
          "type": "address[]"
        },
        {
          "internalType": "address",
          "name": "_oracle",
          "type": "address"
        },
        {
          "internalType": "address",
          "name": "_OrderBook",
          "type": "address"
        },
        {
          "internalType": "uint256",
          "name": "_debtTokenIndex",
          "type": "uint256"
        },
        {
          "internalType": "string",
          "name": "_name",
          "type": "string"
        },
        {
          "internalType": "string",
          "name": "_symbol",
          "type": "string"
        }
      ],
      "stateMutability": "nonpayable",
      "type": "constructor"
    },
    {
      "anonymous": false,
      "inputs": [
        {
          "indexed": true,
          "internalType": "address",
          "name": "owner",
          "type": "address"
        },
        {
          "indexed": true,
          "internalType": "address",
          "name": "spender",
          "type": "address"
        },
        {
          "indexed": false,
          "internalType": "uint256",
          "name": "value",
          "type": "uint256"
        }
      ],
      "name": "Approval",
      "type": "event"
    },
    {
      "anonymous": false,
      "inputs": [
        {
          "indexed": true,
          "internalType": "address",
          "name": "from",
          "type": "address"
        },
        {
          "indexed": true,
          "internalType": "address",
          "name": "to",
          "type": "address"
        },
        {
          "indexed": false,
          "internalType": "uint256",
          "name": "value",
          "type": "uint256"
        }
      ],
      "name": "Transfer",
      "type": "event"
    },
    {
      "inputs": [],
      "name": "DYNAMIC_BALANCE_MULTIPLIER",
      "outputs": [
        {
          "internalType": "uint256",
          "name": "",
          "type": "uint256"
        }
      ],
      "stateMutability": "view",
      "type": "function"
    },
    {
      "inputs": [
        {
          "internalType": "uint256",
          "name": "",
          "type": "uint256"
        }
      ],
      "name": "Vaults",
      "outputs": [
        {
          "internalType": "address",
          "name": "Owner",
          "type": "address"
        },
        {
          "internalType": "uint256",
          "name": "CollateralIndex",
          "type": "uint256"
        },
        {
          "internalType": "uint256",
          "name": "Collateral",
          "type": "uint256"
        },
        {
          "internalType": "uint256",
          "name": "Debt",
          "type": "uint256"
        },
        {
          "internalType": "uint256",
          "name": "ID",
          "type": "uint256"
        }
      ],
      "stateMutability": "view",
      "type": "function"
    },
    {
      "inputs": [
        {
          "internalType": "address",
          "name": "_collateral",
          "type": "address"
        }
      ],
      "name": "addCollateralOption",
      "outputs": [],
      "stateMutability": "nonpayable",
      "type": "function"
    },
    {
      "inputs": [
        {
          "internalType": "address",
          "name": "owner",
          "type": "address"
        },
        {
          "internalType": "address",
          "name": "spender",
          "type": "address"
        }
      ],
      "name": "allowance",
      "outputs": [
        {
          "internalType": "uint256",
          "name": "",
          "type": "uint256"
        }
      ],
      "stateMutability": "view",
      "type": "function"
    },
    {
      "inputs": [
        {
          "internalType": "address",
          "name": "spender",
          "type": "address"
        },
        {
          "internalType": "uint256",
          "name": "amount",
          "type": "uint256"
        }
      ],
      "name": "approve",
      "outputs": [
        {
          "internalType": "bool",
          "name": "",
          "type": "bool"
        }
      ],
      "stateMutability": "nonpayable",
      "type": "function"
    },
    {
      "inputs": [
        {
          "internalType": "address",
          "name": "account",
          "type": "address"
        }
      ],
      "name": "balanceOf",
      "outputs": [
        {
          "internalType": "uint256",
          "name": "",
          "type": "uint256"
        }
      ],
      "stateMutability": "view",
      "type": "function"
    },
    {
      "inputs": [
        {
          "internalType": "uint256",
          "name": "_vaultID",
          "type": "uint256"
        },
        {
          "internalType": "uint256",
          "name": "_amount",
          "type": "uint256"
        }
      ],
      "name": "borrow",
      "outputs": [],
      "stateMutability": "nonpayable",
      "type": "function"
    },
    {
      "inputs": [
        {
          "internalType": "uint256",
          "name": "_vaultID",
          "type": "uint256"
        }
      ],
      "name": "closePosition",
      "outputs": [],
      "stateMutability": "nonpayable",
      "type": "function"
    },
    {
      "inputs": [
        {
          "internalType": "uint256",
          "name": "",
          "type": "uint256"
        }
      ],
      "name": "collateralWhitelist",
      "outputs": [
        {
          "internalType": "address",
          "name": "",
          "type": "address"
        }
      ],
      "stateMutability": "view",
      "type": "function"
    },
    {
      "inputs": [],
      "name": "decimals",
      "outputs": [
        {
          "internalType": "uint8",
          "name": "",
          "type": "uint8"
        }
      ],
      "stateMutability": "view",
      "type": "function"
    },
    {
      "inputs": [
        {
          "internalType": "address",
          "name": "spender",
          "type": "address"
        },
        {
          "internalType": "uint256",
          "name": "subtractedValue",
          "type": "uint256"
        }
      ],
      "name": "decreaseAllowance",
      "outputs": [
        {
          "internalType": "bool",
          "name": "",
          "type": "bool"
        }
      ],
      "stateMutability": "nonpayable",
      "type": "function"
    },
    {
      "inputs": [
        {
          "internalType": "address",
          "name": "spender",
          "type": "address"
        },
        {
          "internalType": "uint256",
          "name": "addedValue",
          "type": "uint256"
        }
      ],
      "name": "increaseAllowance",
      "outputs": [
        {
          "internalType": "bool",
          "name": "",
          "type": "bool"
        }
      ],
      "stateMutability": "nonpayable",
      "type": "function"
    },
    {
      "inputs": [
        {
          "internalType": "uint256",
          "name": "",
          "type": "uint256"
        }
      ],
      "name": "isClosed",
      "outputs": [
        {
          "internalType": "bool",
          "name": "",
          "type": "bool"
        }
      ],
      "stateMutability": "view",
      "type": "function"
    },
    {
      "inputs": [
        {
          "internalType": "uint256",
          "name": "_vaultID",
          "type": "uint256"
        }
      ],
      "name": "liquidate",
      "outputs": [],
      "stateMutability": "nonpayable",
      "type": "function"
    },
    {
      "inputs": [],
      "name": "name",
      "outputs": [
        {
          "internalType": "string",
          "name": "",
          "type": "string"
        }
      ],
      "stateMutability": "view",
      "type": "function"
    },
    {
      "inputs": [
        {
          "internalType": "uint256",
          "name": "_collateralIndex",
          "type": "uint256"
        }
      ],
      "name": "openVault",
      "outputs": [
        {
          "internalType": "uint256",
          "name": "",
          "type": "uint256"
        }
      ],
      "stateMutability": "nonpayable",
      "type": "function"
    },
    {
      "inputs": [
        {
          "internalType": "uint256",
          "name": "_vaultID",
          "type": "uint256"
        },
        {
          "internalType": "uint256",
          "name": "_amount",
          "type": "uint256"
        }
      ],
      "name": "repay",
      "outputs": [],
      "stateMutability": "nonpayable",
      "type": "function"
    },
    {
      "inputs": [
        {
          "internalType": "uint256",
          "name": "_vaultID",
          "type": "uint256"
        },
        {
          "internalType": "uint256",
          "name": "_amount",
          "type": "uint256"
        }
      ],
      "name": "supply",
      "outputs": [],
      "stateMutability": "nonpayable",
      "type": "function"
    },
    {
      "inputs": [],
      "name": "symbol",
      "outputs": [
        {
          "internalType": "string",
          "name": "",
          "type": "string"
        }
      ],
      "stateMutability": "view",
      "type": "function"
    },
    {
      "inputs": [],
      "name": "totalSupply",
      "outputs": [
        {
          "internalType": "uint256",
          "name": "",
          "type": "uint256"
        }
      ],
      "stateMutability": "view",
      "type": "function"
    },
    {
      "inputs": [
        {
          "internalType": "address",
          "name": "to",
          "type": "address"
        },
        {
          "internalType": "uint256",
          "name": "amount",
          "type": "uint256"
        }
      ],
      "name": "transfer",
      "outputs": [
        {
          "internalType": "bool",
          "name": "",
          "type": "bool"
        }
      ],
      "stateMutability": "nonpayable",
      "type": "function"
    },
    {
      "inputs": [
        {
          "internalType": "address",
          "name": "from",
          "type": "address"
        },
        {
          "internalType": "address",
          "name": "to",
          "type": "address"
        },
        {
          "internalType": "uint256",
          "name": "amount",
          "type": "uint256"
        }
      ],
      "name": "transferFrom",
      "outputs": [
        {
          "internalType": "bool",
          "name": "",
          "type": "bool"
        }
      ],
      "stateMutability": "nonpayable",
      "type": "function"
    },
    {
      "inputs": [
        {
          "internalType": "int256",
          "name": "_fundingRate",
          "type": "int256"
        }
      ],
      "name": "updateDynamicMultipliers",
      "outputs": [],
      "stateMutability": "nonpayable",
      "type": "function"
    },
    {
      "inputs": [
        {
          "internalType": "uint256",
          "name": "_vaultID",
          "type": "uint256"
        },
        {
          "internalType": "uint256",
          "name": "_amount",
          "type": "uint256"
        }
      ],
      "name": "withdraw",
      "outputs": [],
      "stateMutability": "nonpayable",
      "type": "function"
    },
    {
      "stateMutability": "payable",
      "type": "receive"
    }
  ],
  "bytecode": "0x60806040523480156200001157600080fd5b50604051620031f6380380620031f68339818101604052810190620000379190620003fb565b81818160039080519060200190620000519291906200017a565b5080600490805190602001906200006a9291906200017a565b50505084600d60006101000a81548173ffffffffffffffffffffffffffffffffffffffff021916908373ffffffffffffffffffffffffffffffffffffffff1602179055508260068190555085600a9080519060200190620000cd9291906200020b565b50670de0b6b3a764000060078190555067016345785d8a000060088190555033600b60006101000a81548173ffffffffffffffffffffffffffffffffffffffff021916908373ffffffffffffffffffffffffffffffffffffffff16021790555083600c60006101000a81548173ffffffffffffffffffffffffffffffffffffffff021916908373ffffffffffffffffffffffffffffffffffffffff160217905550505050505050620006ed565b8280546200018890620005de565b90600052602060002090601f016020900481019282620001ac5760008555620001f8565b82601f10620001c757805160ff1916838001178555620001f8565b82800160010185558215620001f8579182015b82811115620001f7578251825591602001919060010190620001da565b5b5090506200020791906200029a565b5090565b82805482825590600052602060002090810192821562000287579160200282015b82811115620002865782518260006101000a81548173ffffffffffffffffffffffffffffffffffffffff021916908373ffffffffffffffffffffffffffffffffffffffff160217905550916020019190600101906200022c565b5b5090506200029691906200029a565b5090565b5b80821115620002b55760008160009055506001016200029b565b5090565b6000620002d0620002ca8462000505565b620004dc565b90508083825260208201905082856020860282011115620002f057600080fd5b60005b8581101562000324578162000309888262000373565b845260208401935060208301925050600181019050620002f3565b5050509392505050565b6000620003456200033f8462000534565b620004dc565b9050828152602081018484840111156200035e57600080fd5b6200036b848285620005a8565b509392505050565b6000815190506200038481620006b9565b92915050565b600082601f8301126200039c57600080fd5b8151620003ae848260208601620002b9565b91505092915050565b600082601f830112620003c957600080fd5b8151620003db8482602086016200032e565b91505092915050565b600081519050620003f581620006d3565b92915050565b60008060008060008060c087890312156200041557600080fd5b600087015167ffffffffffffffff8111156200043057600080fd5b6200043e89828a016200038a565b96505060206200045189828a0162000373565b95505060406200046489828a0162000373565b94505060606200047789828a01620003e4565b935050608087015167ffffffffffffffff8111156200049557600080fd5b620004a389828a01620003b7565b92505060a087015167ffffffffffffffff811115620004c157600080fd5b620004cf89828a01620003b7565b9150509295509295509295565b6000620004e8620004fb565b9050620004f6828262000614565b919050565b6000604051905090565b600067ffffffffffffffff82111562000523576200052262000679565b5b602082029050602081019050919050565b600067ffffffffffffffff82111562000552576200055162000679565b5b6200055d82620006a8565b9050602081019050919050565b600062000577826200057e565b9050919050565b600073ffffffffffffffffffffffffffffffffffffffff82169050919050565b6000819050919050565b60005b83811015620005c8578082015181840152602081019050620005ab565b83811115620005d8576000848401525b50505050565b60006002820490506001821680620005f757607f821691505b602082108114156200060e576200060d6200064a565b5b50919050565b6200061f82620006a8565b810181811067ffffffffffffffff8211171562000641576200064062000679565b5b80604052505050565b7f4e487b7100000000000000000000000000000000000000000000000000000000600052602260045260246000fd5b7f4e487b7100000000000000000000000000000000000000000000000000000000600052604160045260246000fd5b6000601f19601f8301169050919050565b620006c4816200056a565b8114620006d057600080fd5b50565b620006de816200059e565b8114620006ea57600080fd5b50565b612af980620006fd6000396000f3fe60806040526004361061014f5760003560e01c80636d085490116100b6578063a9059cbb1161006f578063a9059cbb146104d7578063d5c78a2814610514578063d8aed14514610551578063daecfa6c1461057a578063dd62ed3e146105a3578063fcd96b02146105e057610156565b80636d085490146103b75780636feba3ca146103e057806370a082311461040957806395d89b4114610446578063a126d60114610471578063a457c2d71461049a57610156565b8063313ce56711610108578063313ce5671461029157806339509351146102bc578063415f1240146102f9578063441a3e70146103225780635aca84151461034b578063626f5c021461038c57610156565b806304a2ce7e1461015b57806306fdde0314610198578063095ea7b3146101c35780630ecbcdab1461020057806318160ddd1461022957806323b872dd1461025457610156565b3661015657005b600080fd5b34801561016757600080fd5b50610182600480360381019061017d9190612071565b61061d565b60405161018f91906124da565b60405180910390f35b3480156101a457600080fd5b506101ad610712565b6040516101ba9190612398565b60405180910390f35b3480156101cf57600080fd5b506101ea60048036038101906101e59190611fe3565b6107a4565b6040516101f7919061237d565b60405180910390f35b34801561020c57600080fd5b50610227600480360381019061022291906120c3565b6107c7565b005b34801561023557600080fd5b5061023e61098b565b60405161024b91906124da565b60405180910390f35b34801561026057600080fd5b5061027b60048036038101906102769190611f94565b610995565b604051610288919061237d565b60405180910390f35b34801561029d57600080fd5b506102a66109c4565b6040516102b391906124f5565b60405180910390f35b3480156102c857600080fd5b506102e360048036038101906102de9190611fe3565b6109cd565b6040516102f0919061237d565b60405180910390f35b34801561030557600080fd5b50610320600480360381019061031b9190612071565b610a04565b005b34801561032e57600080fd5b50610349600480360381019061034491906120c3565b610a22565b005b34801561035757600080fd5b50610372600480360381019061036d9190612071565b610bd6565b60405161038395949392919061232a565b60405180910390f35b34801561039857600080fd5b506103a1610c2c565b6040516103ae91906124da565b60405180910390f35b3480156103c357600080fd5b506103de60048036038101906103d99190612048565b610c32565b005b3480156103ec57600080fd5b5061040760048036038101906104029190611f2f565b610c8f565b005b34801561041557600080fd5b50610430600480360381019061042b9190611f2f565b610d4f565b60405161043d91906124da565b60405180910390f35b34801561045257600080fd5b5061045b610d97565b6040516104689190612398565b60405180910390f35b34801561047d57600080fd5b5061049860048036038101906104939190612071565b610e29565b005b3480156104a657600080fd5b506104c160048036038101906104bc9190611fe3565b610f29565b6040516104ce919061237d565b60405180910390f35b3480156104e357600080fd5b506104fe60048036038101906104f99190611fe3565b610fa0565b60405161050b919061237d565b60405180910390f35b34801561052057600080fd5b5061053b60048036038101906105369190612071565b610fc3565b604051610548919061237d565b60405180910390f35b34801561055d57600080fd5b50610578600480360381019061057391906120c3565b610fe3565b005b34801561058657600080fd5b506105a1600480360381019061059c91906120c3565b611056565b005b3480156105af57600080fd5b506105ca60048036038101906105c59190611f58565b611197565b6040516105d791906124da565b60405180910390f35b3480156105ec57600080fd5b5061060760048036038101906106029190612071565b61121e565b60405161061491906122af565b60405180910390f35b6000806040518060a001604052803373ffffffffffffffffffffffffffffffffffffffff1681526020018481526020016000815260200160008152602001600554815250905080600e60008360800151815260200190815260200160002060008201518160000160006101000a81548173ffffffffffffffffffffffffffffffffffffffff021916908373ffffffffffffffffffffffffffffffffffffffff160217905550602082015181600101556040820151816002015560608201518160030155608082015181600401559050506005600081548092919061070090612705565b91905055508060800151915050919050565b606060038054610721906126d3565b80601f016020809104026020016040519081016040528092919081815260200182805461074d906126d3565b801561079a5780601f1061076f5761010080835404028352916020019161079a565b820191906000526020600020905b81548152906001019060200180831161077d57829003601f168201915b5050505050905090565b6000806107af61125d565b90506107bc818585611265565b600191505092915050565b816000600e60008381526020019081526020016000206040518060a00160405290816000820160009054906101000a900473ffffffffffffffffffffffffffffffffffffffff1673ffffffffffffffffffffffffffffffffffffffff1673ffffffffffffffffffffffffffffffffffffffff1681526020016001820154815260200160028201548152602001600382015481526020016004820154815250509050806000015173ffffffffffffffffffffffffffffffffffffffff163373ffffffffffffffffffffffffffffffffffffffff16146108a457600080fd5b6000600e6000868152602001908152602001600020905060006108df6006546108da87856003015461143090919063ffffffff16565b611446565b9050600061090c6007546108fe6009548561153690919063ffffffff16565b61154c90919063ffffffff16565b9050600061092284600101548560020154611446565b905060085461094e826109406007548661153690919063ffffffff16565b61154c90919063ffffffff16565b1161095857600080fd5b61096f87856003015461143090919063ffffffff16565b84600301819055506109813388611562565b5050505050505050565b6000600254905090565b6000806109a061125d565b90506109ad8582856116c2565b6109b885858561174e565b60019150509392505050565b60006012905090565b6000806109d861125d565b90506109f98185856109ea8589611197565b6109f4919061252c565b611265565b600191505092915050565b610a0d816119eb565b610a1657600080fd5b610a1f81611b34565b50565b816000600e60008381526020019081526020016000206040518060a00160405290816000820160009054906101000a900473ffffffffffffffffffffffffffffffffffffffff1673ffffffffffffffffffffffffffffffffffffffff1673ffffffffffffffffffffffffffffffffffffffff1681526020016001820154815260200160028201548152602001600382015481526020016004820154815250509050806000015173ffffffffffffffffffffffffffffffffffffffff163373ffffffffffffffffffffffffffffffffffffffff1614610aff57600080fd5b6000600e600086815260200190815260200160002090506000610b50600654610b4b600754610b3d600954876003015461153690919063ffffffff16565b61154c90919063ffffffff16565b611446565b90506000610b788360010154610b73888660020154611ccf90919063ffffffff16565b611446565b9050600854610ba482610b966007548661153690919063ffffffff16565b61154c90919063ffffffff16565b11610bae57600080fd5b610bc5868460020154611ccf90919063ffffffff16565b836002018190555050505050505050565b600e6020528060005260406000206000915090508060000160009054906101000a900473ffffffffffffffffffffffffffffffffffffffff16908060010154908060020154908060030154908060040154905085565b60095481565b600c60009054906101000a900473ffffffffffffffffffffffffffffffffffffffff1673ffffffffffffffffffffffffffffffffffffffff163373ffffffffffffffffffffffffffffffffffffffff1614610c8c57600080fd5b50565b600b60009054906101000a900473ffffffffffffffffffffffffffffffffffffffff1673ffffffffffffffffffffffffffffffffffffffff163373ffffffffffffffffffffffffffffffffffffffff1614610ce957600080fd5b600a819080600181540180825580915050600190039060005260206000200160009091909190916101000a81548173ffffffffffffffffffffffffffffffffffffffff021916908373ffffffffffffffffffffffffffffffffffffffff16021790555050565b60008060008373ffffffffffffffffffffffffffffffffffffffff1673ffffffffffffffffffffffffffffffffffffffff168152602001908152602001600020549050919050565b606060048054610da6906126d3565b80601f0160208091040260200160405190810160405280929190818152602001828054610dd2906126d3565b8015610e1f5780601f10610df457610100808354040283529160200191610e1f565b820191906000526020600020905b815481529060010190602001808311610e0257829003601f168201915b5050505050905090565b6005546000600e60008381526020019081526020016000206040518060a00160405290816000820160009054906101000a900473ffffffffffffffffffffffffffffffffffffffff1673ffffffffffffffffffffffffffffffffffffffff1673ffffffffffffffffffffffffffffffffffffffff1681526020016001820154815260200160028201548152602001600382015481526020016004820154815250509050806000015173ffffffffffffffffffffffffffffffffffffffff163373ffffffffffffffffffffffffffffffffffffffff1614610f0857600080fd5b610f11836119eb565b15610f1b57600080fd5b610f2483611b34565b505050565b600080610f3461125d565b90506000610f428286611197565b905083811015610f87576040517f08c379a0000000000000000000000000000000000000000000000000000000008152600401610f7e9061249a565b60405180910390fd5b610f948286868403611265565b60019250505092915050565b600080610fab61125d565b9050610fb881858561174e565b600191505092915050565b600f6020528060005260406000206000915054906101000a900460ff1681565b6000600e6000848152602001908152602001600020905060006110256009546110176007548661153690919063ffffffff16565b61154c90919063ffffffff16565b905061103e818360030154611ccf90919063ffffffff16565b82600301819055506110503384611ce5565b50505050565b6000600e600084815260200190815260200160002090506000600a8260010154815481106110ad577f4e487b7100000000000000000000000000000000000000000000000000000000600052603260045260246000fd5b9060005260206000200160009054906101000a900473ffffffffffffffffffffffffffffffffffffffff1690508073ffffffffffffffffffffffffffffffffffffffff166323b872dd3330866040518463ffffffff1660e01b8152600401611117939291906122ca565b602060405180830381600087803b15801561113157600080fd5b505af1158015611145573d6000803e3d6000fd5b505050506040513d601f19601f82011682018060405250810190611169919061201f565b61117257600080fd5b61118983836002015461143090919063ffffffff16565b826002018190555050505050565b6000600160008473ffffffffffffffffffffffffffffffffffffffff1673ffffffffffffffffffffffffffffffffffffffff16815260200190815260200160002060008373ffffffffffffffffffffffffffffffffffffffff1673ffffffffffffffffffffffffffffffffffffffff16815260200190815260200160002054905092915050565b600a818154811061122e57600080fd5b906000526020600020016000915054906101000a900473ffffffffffffffffffffffffffffffffffffffff1681565b600033905090565b600073ffffffffffffffffffffffffffffffffffffffff168373ffffffffffffffffffffffffffffffffffffffff1614156112d5576040517f08c379a00000000000000000000000000000000000000000000000000000000081526004016112cc9061247a565b60405180910390fd5b600073ffffffffffffffffffffffffffffffffffffffff168273ffffffffffffffffffffffffffffffffffffffff161415611345576040517f08c379a000000000000000000000000000000000000000000000000000000000815260040161133c906123fa565b60405180910390fd5b80600160008573ffffffffffffffffffffffffffffffffffffffff1673ffffffffffffffffffffffffffffffffffffffff16815260200190815260200160002060008473ffffffffffffffffffffffffffffffffffffffff1673ffffffffffffffffffffffffffffffffffffffff168152602001908152602001600020819055508173ffffffffffffffffffffffffffffffffffffffff168373ffffffffffffffffffffffffffffffffffffffff167f8c5be1e5ebec7d5bd14f71427d1e84f3dd0314c0f7b2291e5b200ac8c7c3b9258360405161142391906124da565b60405180910390a3505050565b6000818361143e919061252c565b905092915050565b600080600d60009054906101000a900473ffffffffffffffffffffffffffffffffffffffff1673ffffffffffffffffffffffffffffffffffffffff1663e7572230856040518263ffffffff1660e01b81526004016114a491906124da565b60206040518083038186803b1580156114bc57600080fd5b505afa1580156114d0573d6000803e3d6000fd5b505050506040513d601f19601f820116820180604052508101906114f4919061209a565b90506000811461152a57611525600754611517858461153690919063ffffffff16565b61154c90919063ffffffff16565b61152d565b60005b91505092915050565b6000818361154491906125b3565b905092915050565b6000818361155a9190612582565b905092915050565b600073ffffffffffffffffffffffffffffffffffffffff168273ffffffffffffffffffffffffffffffffffffffff1614156115d2576040517f08c379a00000000000000000000000000000000000000000000000000000000081526004016115c9906124ba565b60405180910390fd5b6115de60008383611ebc565b80600260008282546115f0919061252c565b92505081905550806000808473ffffffffffffffffffffffffffffffffffffffff1673ffffffffffffffffffffffffffffffffffffffff1681526020019081526020016000206000828254611645919061252c565b925050819055508173ffffffffffffffffffffffffffffffffffffffff16600073ffffffffffffffffffffffffffffffffffffffff167fddf252ad1be2c89b69c2b068fc378daa952ba7f163c4a11628f55a4df523b3ef836040516116aa91906124da565b60405180910390a36116be60008383611ec1565b5050565b60006116ce8484611197565b90507fffffffffffffffffffffffffffffffffffffffffffffffffffffffffffffffff8114611748578181101561173a576040517f08c379a00000000000000000000000000000000000000000000000000000000081526004016117319061241a565b60405180910390fd5b6117478484848403611265565b5b50505050565b600073ffffffffffffffffffffffffffffffffffffffff168373ffffffffffffffffffffffffffffffffffffffff1614156117be576040517f08c379a00000000000000000000000000000000000000000000000000000000081526004016117b59061245a565b60405180910390fd5b600073ffffffffffffffffffffffffffffffffffffffff168273ffffffffffffffffffffffffffffffffffffffff16141561182e576040517f08c379a0000000000000000000000000000000000000000000000000000000008152600401611825906123ba565b60405180910390fd5b611839838383611ebc565b60008060008573ffffffffffffffffffffffffffffffffffffffff1673ffffffffffffffffffffffffffffffffffffffff1681526020019081526020016000205490506118a56007546118976009548461153690919063ffffffff16565b61154c90919063ffffffff16565b8211156118b157600080fd5b60006118c86009548461154c90919063ffffffff16565b90506118dd8183611ccf90919063ffffffff16565b6000808773ffffffffffffffffffffffffffffffffffffffff1673ffffffffffffffffffffffffffffffffffffffff16815260200190815260200160002081905550826000808673ffffffffffffffffffffffffffffffffffffffff1673ffffffffffffffffffffffffffffffffffffffff168152602001908152602001600020600082825461196d919061252c565b925050819055508373ffffffffffffffffffffffffffffffffffffffff168573ffffffffffffffffffffffffffffffffffffffff167fddf252ad1be2c89b69c2b068fc378daa952ba7f163c4a11628f55a4df523b3ef856040516119d191906124da565b60405180910390a36119e4858585611ec1565b5050505050565b600080600e60008481526020019081526020016000206040518060a00160405290816000820160009054906101000a900473ffffffffffffffffffffffffffffffffffffffff1673ffffffffffffffffffffffffffffffffffffffff1673ffffffffffffffffffffffffffffffffffffffff16815260200160018201548152602001600282015481526020016003820154815260200160048201548152505090506000611abb600754611aad600954856060015161153690919063ffffffff16565b61154c90919063ffffffff16565b90506000611acb60065483611446565b90506000611ae184602001518560400151611446565b9050600854611b0d82611aff6007548661153690919063ffffffff16565b61154c90919063ffffffff16565b11158015611b29575060008114158015611b28575060008214155b5b945050505050919050565b6000600e600083815260200190815260200160002090506000600a826001015481548110611b8b577f4e487b7100000000000000000000000000000000000000000000000000000000600052603260045260246000fd5b9060005260206000200160009054906101000a900473ffffffffffffffffffffffffffffffffffffffff169050611bef3330611bea600754611bdc600954886003015461153690919063ffffffff16565b61154c90919063ffffffff16565b610995565b611bf857600080fd5b8073ffffffffffffffffffffffffffffffffffffffff1663a9059cbb3384600201546040518363ffffffff1660e01b8152600401611c37929190612301565b602060405180830381600087803b158015611c5157600080fd5b505af1158015611c65573d6000803e3d6000fd5b505050506040513d601f19601f82011682018060405250810190611c89919061201f565b5060008260020181905550600082600301819055506001600f600085815260200190815260200160002060006101000a81548160ff021916908315150217905550505050565b60008183611cdd919061260d565b905092915050565b600073ffffffffffffffffffffffffffffffffffffffff168273ffffffffffffffffffffffffffffffffffffffff161415611d55576040517f08c379a0000000000000000000000000000000000000000000000000000000008152600401611d4c9061243a565b60405180910390fd5b611d6182600083611ebc565b60008060008473ffffffffffffffffffffffffffffffffffffffff1673ffffffffffffffffffffffffffffffffffffffff16815260200190815260200160002054905081811015611de7576040517f08c379a0000000000000000000000000000000000000000000000000000000008152600401611dde906123da565b60405180910390fd5b8181036000808573ffffffffffffffffffffffffffffffffffffffff1673ffffffffffffffffffffffffffffffffffffffff168152602001908152602001600020819055508160026000828254611e3e919061260d565b92505081905550600073ffffffffffffffffffffffffffffffffffffffff168373ffffffffffffffffffffffffffffffffffffffff167fddf252ad1be2c89b69c2b068fc378daa952ba7f163c4a11628f55a4df523b3ef84604051611ea391906124da565b60405180910390a3611eb783600084611ec1565b505050565b505050565b505050565b600081359050611ed581612a67565b92915050565b600081519050611eea81612a7e565b92915050565b600081359050611eff81612a95565b92915050565b600081359050611f1481612aac565b92915050565b600081519050611f2981612aac565b92915050565b600060208284031215611f4157600080fd5b6000611f4f84828501611ec6565b91505092915050565b60008060408385031215611f6b57600080fd5b6000611f7985828601611ec6565b9250506020611f8a85828601611ec6565b9150509250929050565b600080600060608486031215611fa957600080fd5b6000611fb786828701611ec6565b9350506020611fc886828701611ec6565b9250506040611fd986828701611f05565b9150509250925092565b60008060408385031215611ff657600080fd5b600061200485828601611ec6565b925050602061201585828601611f05565b9150509250929050565b60006020828403121561203157600080fd5b600061203f84828501611edb565b91505092915050565b60006020828403121561205a57600080fd5b600061206884828501611ef0565b91505092915050565b60006020828403121561208357600080fd5b600061209184828501611f05565b91505092915050565b6000602082840312156120ac57600080fd5b60006120ba84828501611f1a565b91505092915050565b600080604083850312156120d657600080fd5b60006120e485828601611f05565b92505060206120f585828601611f05565b9150509250929050565b61210881612641565b82525050565b61211781612653565b82525050565b600061212882612510565b612132818561251b565b93506121428185602086016126a0565b61214b816127db565b840191505092915050565b600061216360238361251b565b915061216e826127ec565b604082019050919050565b600061218660228361251b565b91506121918261283b565b604082019050919050565b60006121a960228361251b565b91506121b48261288a565b604082019050919050565b60006121cc601d8361251b565b91506121d7826128d9565b602082019050919050565b60006121ef60218361251b565b91506121fa82612902565b604082019050919050565b600061221260258361251b565b915061221d82612951565b604082019050919050565b600061223560248361251b565b9150612240826129a0565b604082019050919050565b600061225860258361251b565b9150612263826129ef565b604082019050919050565b600061227b601f8361251b565b915061228682612a3e565b602082019050919050565b61229a81612689565b82525050565b6122a981612693565b82525050565b60006020820190506122c460008301846120ff565b92915050565b60006060820190506122df60008301866120ff565b6122ec60208301856120ff565b6122f96040830184612291565b949350505050565b600060408201905061231660008301856120ff565b6123236020830184612291565b9392505050565b600060a08201905061233f60008301886120ff565b61234c6020830187612291565b6123596040830186612291565b6123666060830185612291565b6123736080830184612291565b9695505050505050565b6000602082019050612392600083018461210e565b92915050565b600060208201905081810360008301526123b2818461211d565b905092915050565b600060208201905081810360008301526123d381612156565b9050919050565b600060208201905081810360008301526123f381612179565b9050919050565b600060208201905081810360008301526124138161219c565b9050919050565b60006020820190508181036000830152612433816121bf565b9050919050565b60006020820190508181036000830152612453816121e2565b9050919050565b6000602082019050818103600083015261247381612205565b9050919050565b6000602082019050818103600083015261249381612228565b9050919050565b600060208201905081810360008301526124b38161224b565b9050919050565b600060208201905081810360008301526124d38161226e565b9050919050565b60006020820190506124ef6000830184612291565b92915050565b600060208201905061250a60008301846122a0565b92915050565b600081519050919050565b600082825260208201905092915050565b600061253782612689565b915061254283612689565b9250827fffffffffffffffffffffffffffffffffffffffffffffffffffffffffffffffff038211156125775761257661274e565b5b828201905092915050565b600061258d82612689565b915061259883612689565b9250826125a8576125a761277d565b5b828204905092915050565b60006125be82612689565b91506125c983612689565b9250817fffffffffffffffffffffffffffffffffffffffffffffffffffffffffffffffff04831182151516156126025761260161274e565b5b828202905092915050565b600061261882612689565b915061262383612689565b9250828210156126365761263561274e565b5b828203905092915050565b600061264c82612669565b9050919050565b60008115159050919050565b6000819050919050565b600073ffffffffffffffffffffffffffffffffffffffff82169050919050565b6000819050919050565b600060ff82169050919050565b60005b838110156126be5780820151818401526020810190506126a3565b838111156126cd576000848401525b50505050565b600060028204905060018216806126eb57607f821691505b602082108114156126ff576126fe6127ac565b5b50919050565b600061271082612689565b91507fffffffffffffffffffffffffffffffffffffffffffffffffffffffffffffffff8214156127435761274261274e565b5b600182019050919050565b7f4e487b7100000000000000000000000000000000000000000000000000000000600052601160045260246000fd5b7f4e487b7100000000000000000000000000000000000000000000000000000000600052601260045260246000fd5b7f4e487b7100000000000000000000000000000000000000000000000000000000600052602260045260246000fd5b6000601f19601f8301169050919050565b7f45524332303a207472616e7366657220746f20746865207a65726f206164647260008201527f6573730000000000000000000000000000000000000000000000000000000000602082015250565b7f45524332303a206275726e20616d6f756e7420657863656564732062616c616e60008201527f6365000000000000000000000000000000000000000000000000000000000000602082015250565b7f45524332303a20617070726f766520746f20746865207a65726f20616464726560008201527f7373000000000000000000000000000000000000000000000000000000000000602082015250565b7f45524332303a20696e73756666696369656e7420616c6c6f77616e6365000000600082015250565b7f45524332303a206275726e2066726f6d20746865207a65726f2061646472657360008201527f7300000000000000000000000000000000000000000000000000000000000000602082015250565b7f45524332303a207472616e736665722066726f6d20746865207a65726f20616460008201527f6472657373000000000000000000000000000000000000000000000000000000602082015250565b7f45524332303a20617070726f76652066726f6d20746865207a65726f2061646460008201527f7265737300000000000000000000000000000000000000000000000000000000602082015250565b7f45524332303a2064656372656173656420616c6c6f77616e63652062656c6f7760008201527f207a65726f000000000000000000000000000000000000000000000000000000602082015250565b7f45524332303a206d696e7420746f20746865207a65726f206164647265737300600082015250565b612a7081612641565b8114612a7b57600080fd5b50565b612a8781612653565b8114612a9257600080fd5b50565b612a9e8161265f565b8114612aa957600080fd5b50565b612ab581612689565b8114612ac057600080fd5b5056fea2646970667358221220f8f8958731093d08d59863438fa1fcd3d04bc518cd4875f1c58021cf4a4a7fbc64736f6c63430008040033",
  "linkReferences": {},
  "deployedLinkReferences": {}
}