{
  "_format": "hh-sol-artifact-1",
  "contractName": "FxBase",
  "sourceName": "contracts/Vaults/FxBase.sol",
  "abi": [
    {
      "inputs": [
        {
          "internalType": "address[]",
          "name": "_collateralWhitelist",
          "type": "address[]"
        },
        {
          "internalType": "address",
          "name": "_oracle",
          "type": "address"
        },
        {
          "internalType": "address",
          "name": "_OrderBook",
          "type": "address"
        },
        {
          "internalType": "uint256",
          "name": "_debtTokenIndex",
          "type": "uint256"
        },
        {
          "internalType": "string",
          "name": "_name",
          "type": "string"
        },
        {
          "internalType": "string",
          "name": "_symbol",
          "type": "string"
        }
      ],
      "stateMutability": "nonpayable",
      "type": "constructor"
    },
    {
      "anonymous": false,
      "inputs": [
        {
          "indexed": true,
          "internalType": "address",
          "name": "owner",
          "type": "address"
        },
        {
          "indexed": true,
          "internalType": "address",
          "name": "spender",
          "type": "address"
        },
        {
          "indexed": false,
          "internalType": "uint256",
          "name": "value",
          "type": "uint256"
        }
      ],
      "name": "Approval",
      "type": "event"
    },
    {
      "anonymous": false,
      "inputs": [
        {
          "indexed": true,
          "internalType": "address",
          "name": "from",
          "type": "address"
        },
        {
          "indexed": true,
          "internalType": "address",
          "name": "to",
          "type": "address"
        },
        {
          "indexed": false,
          "internalType": "uint256",
          "name": "value",
          "type": "uint256"
        }
      ],
      "name": "Transfer",
      "type": "event"
    },
    {
      "inputs": [],
      "name": "DYNAMIC_BALANCE_MULTIPLIER",
      "outputs": [
        {
          "internalType": "uint256",
          "name": "",
          "type": "uint256"
        }
      ],
      "stateMutability": "view",
      "type": "function"
    },
    {
      "inputs": [
        {
          "internalType": "uint256",
          "name": "",
          "type": "uint256"
        }
      ],
      "name": "Vaults",
      "outputs": [
        {
          "internalType": "address",
          "name": "Owner",
          "type": "address"
        },
        {
          "internalType": "uint256",
          "name": "CollateralIndex",
          "type": "uint256"
        },
        {
          "internalType": "uint256",
          "name": "Collateral",
          "type": "uint256"
        },
        {
          "internalType": "uint256",
          "name": "Debt",
          "type": "uint256"
        },
        {
          "internalType": "uint256",
          "name": "ID",
          "type": "uint256"
        }
      ],
      "stateMutability": "view",
      "type": "function"
    },
    {
      "inputs": [
        {
          "internalType": "address",
          "name": "_collateral",
          "type": "address"
        }
      ],
      "name": "addCollateralOption",
      "outputs": [],
      "stateMutability": "nonpayable",
      "type": "function"
    },
    {
      "inputs": [
        {
          "internalType": "address",
          "name": "owner",
          "type": "address"
        },
        {
          "internalType": "address",
          "name": "spender",
          "type": "address"
        }
      ],
      "name": "allowance",
      "outputs": [
        {
          "internalType": "uint256",
          "name": "",
          "type": "uint256"
        }
      ],
      "stateMutability": "view",
      "type": "function"
    },
    {
      "inputs": [
        {
          "internalType": "address",
          "name": "spender",
          "type": "address"
        },
        {
          "internalType": "uint256",
          "name": "amount",
          "type": "uint256"
        }
      ],
      "name": "approve",
      "outputs": [
        {
          "internalType": "bool",
          "name": "",
          "type": "bool"
        }
      ],
      "stateMutability": "nonpayable",
      "type": "function"
    },
    {
      "inputs": [
        {
          "internalType": "address",
          "name": "account",
          "type": "address"
        }
      ],
      "name": "balanceOf",
      "outputs": [
        {
          "internalType": "uint256",
          "name": "",
          "type": "uint256"
        }
      ],
      "stateMutability": "view",
      "type": "function"
    },
    {
      "inputs": [
        {
          "internalType": "uint256",
          "name": "_vaultID",
          "type": "uint256"
        },
        {
          "internalType": "uint256",
          "name": "_amount",
          "type": "uint256"
        }
      ],
      "name": "borrow",
      "outputs": [],
      "stateMutability": "nonpayable",
      "type": "function"
    },
    {
      "inputs": [
        {
          "internalType": "uint256",
          "name": "_vaultID",
          "type": "uint256"
        }
      ],
      "name": "closePosition",
      "outputs": [],
      "stateMutability": "nonpayable",
      "type": "function"
    },
    {
      "inputs": [
        {
          "internalType": "uint256",
          "name": "",
          "type": "uint256"
        }
      ],
      "name": "collateralWhitelist",
      "outputs": [
        {
          "internalType": "address",
          "name": "",
          "type": "address"
        }
      ],
      "stateMutability": "view",
      "type": "function"
    },
    {
      "inputs": [],
      "name": "decimals",
      "outputs": [
        {
          "internalType": "uint8",
          "name": "",
          "type": "uint8"
        }
      ],
      "stateMutability": "view",
      "type": "function"
    },
    {
      "inputs": [
        {
          "internalType": "address",
          "name": "spender",
          "type": "address"
        },
        {
          "internalType": "uint256",
          "name": "subtractedValue",
          "type": "uint256"
        }
      ],
      "name": "decreaseAllowance",
      "outputs": [
        {
          "internalType": "bool",
          "name": "",
          "type": "bool"
        }
      ],
      "stateMutability": "nonpayable",
      "type": "function"
    },
    {
      "inputs": [
        {
          "internalType": "address",
          "name": "spender",
          "type": "address"
        },
        {
          "internalType": "uint256",
          "name": "addedValue",
          "type": "uint256"
        }
      ],
      "name": "increaseAllowance",
      "outputs": [
        {
          "internalType": "bool",
          "name": "",
          "type": "bool"
        }
      ],
      "stateMutability": "nonpayable",
      "type": "function"
    },
    {
      "inputs": [
        {
          "internalType": "uint256",
          "name": "",
          "type": "uint256"
        }
      ],
      "name": "isClosed",
      "outputs": [
        {
          "internalType": "bool",
          "name": "",
          "type": "bool"
        }
      ],
      "stateMutability": "view",
      "type": "function"
    },
    {
      "inputs": [
        {
          "internalType": "uint256",
          "name": "_vaultID",
          "type": "uint256"
        }
      ],
      "name": "liquidate",
      "outputs": [],
      "stateMutability": "nonpayable",
      "type": "function"
    },
    {
      "inputs": [],
      "name": "name",
      "outputs": [
        {
          "internalType": "string",
          "name": "",
          "type": "string"
        }
      ],
      "stateMutability": "view",
      "type": "function"
    },
    {
      "inputs": [
        {
          "internalType": "uint256",
          "name": "_collateralIndex",
          "type": "uint256"
        }
      ],
      "name": "openVault",
      "outputs": [
        {
          "internalType": "uint256",
          "name": "",
          "type": "uint256"
        }
      ],
      "stateMutability": "nonpayable",
      "type": "function"
    },
    {
      "inputs": [
        {
          "internalType": "uint256",
          "name": "_vaultID",
          "type": "uint256"
        },
        {
          "internalType": "uint256",
          "name": "_amount",
          "type": "uint256"
        }
      ],
      "name": "repay",
      "outputs": [],
      "stateMutability": "nonpayable",
      "type": "function"
    },
    {
      "inputs": [
        {
          "internalType": "uint256",
          "name": "_vaultID",
          "type": "uint256"
        },
        {
          "internalType": "uint256",
          "name": "_amount",
          "type": "uint256"
        }
      ],
      "name": "supply",
      "outputs": [],
      "stateMutability": "nonpayable",
      "type": "function"
    },
    {
      "inputs": [],
      "name": "symbol",
      "outputs": [
        {
          "internalType": "string",
          "name": "",
          "type": "string"
        }
      ],
      "stateMutability": "view",
      "type": "function"
    },
    {
      "inputs": [],
      "name": "totalSupply",
      "outputs": [
        {
          "internalType": "uint256",
          "name": "",
          "type": "uint256"
        }
      ],
      "stateMutability": "view",
      "type": "function"
    },
    {
      "inputs": [
        {
          "internalType": "address",
          "name": "to",
          "type": "address"
        },
        {
          "internalType": "uint256",
          "name": "amount",
          "type": "uint256"
        }
      ],
      "name": "transfer",
      "outputs": [
        {
          "internalType": "bool",
          "name": "",
          "type": "bool"
        }
      ],
      "stateMutability": "nonpayable",
      "type": "function"
    },
    {
      "inputs": [
        {
          "internalType": "address",
          "name": "from",
          "type": "address"
        },
        {
          "internalType": "address",
          "name": "to",
          "type": "address"
        },
        {
          "internalType": "uint256",
          "name": "amount",
          "type": "uint256"
        }
      ],
      "name": "transferFrom",
      "outputs": [
        {
          "internalType": "bool",
          "name": "",
          "type": "bool"
        }
      ],
      "stateMutability": "nonpayable",
      "type": "function"
    },
    {
      "inputs": [
        {
          "internalType": "int256",
          "name": "_fundingRate",
          "type": "int256"
        }
      ],
      "name": "updateDynamicMultiplier",
      "outputs": [],
      "stateMutability": "nonpayable",
      "type": "function"
    },
    {
      "inputs": [
        {
          "internalType": "uint256",
          "name": "_vaultID",
          "type": "uint256"
        },
        {
          "internalType": "uint256",
          "name": "_amount",
          "type": "uint256"
        }
      ],
      "name": "withdraw",
      "outputs": [],
      "stateMutability": "nonpayable",
      "type": "function"
    },
    {
      "stateMutability": "payable",
      "type": "receive"
    }
  ],
  "bytecode": "0x60806040523480156200001157600080fd5b50604051620035a4380380620035a48339818101604052810190620000379190620003fb565b81818160039080519060200190620000519291906200017a565b5080600490805190602001906200006a9291906200017a565b50505084600d60006101000a81548173ffffffffffffffffffffffffffffffffffffffff021916908373ffffffffffffffffffffffffffffffffffffffff1602179055508260068190555085600a9080519060200190620000cd9291906200020b565b50670de0b6b3a764000060078190555067016345785d8a000060088190555033600b60006101000a81548173ffffffffffffffffffffffffffffffffffffffff021916908373ffffffffffffffffffffffffffffffffffffffff16021790555083600c60006101000a81548173ffffffffffffffffffffffffffffffffffffffff021916908373ffffffffffffffffffffffffffffffffffffffff160217905550505050505050620006ed565b8280546200018890620005de565b90600052602060002090601f016020900481019282620001ac5760008555620001f8565b82601f10620001c757805160ff1916838001178555620001f8565b82800160010185558215620001f8579182015b82811115620001f7578251825591602001919060010190620001da565b5b5090506200020791906200029a565b5090565b82805482825590600052602060002090810192821562000287579160200282015b82811115620002865782518260006101000a81548173ffffffffffffffffffffffffffffffffffffffff021916908373ffffffffffffffffffffffffffffffffffffffff160217905550916020019190600101906200022c565b5b5090506200029691906200029a565b5090565b5b80821115620002b55760008160009055506001016200029b565b5090565b6000620002d0620002ca8462000505565b620004dc565b90508083825260208201905082856020860282011115620002f057600080fd5b60005b8581101562000324578162000309888262000373565b845260208401935060208301925050600181019050620002f3565b5050509392505050565b6000620003456200033f8462000534565b620004dc565b9050828152602081018484840111156200035e57600080fd5b6200036b848285620005a8565b509392505050565b6000815190506200038481620006b9565b92915050565b600082601f8301126200039c57600080fd5b8151620003ae848260208601620002b9565b91505092915050565b600082601f830112620003c957600080fd5b8151620003db8482602086016200032e565b91505092915050565b600081519050620003f581620006d3565b92915050565b60008060008060008060c087890312156200041557600080fd5b600087015167ffffffffffffffff8111156200043057600080fd5b6200043e89828a016200038a565b96505060206200045189828a0162000373565b95505060406200046489828a0162000373565b94505060606200047789828a01620003e4565b935050608087015167ffffffffffffffff8111156200049557600080fd5b620004a389828a01620003b7565b92505060a087015167ffffffffffffffff811115620004c157600080fd5b620004cf89828a01620003b7565b9150509295509295509295565b6000620004e8620004fb565b9050620004f6828262000614565b919050565b6000604051905090565b600067ffffffffffffffff82111562000523576200052262000679565b5b602082029050602081019050919050565b600067ffffffffffffffff82111562000552576200055162000679565b5b6200055d82620006a8565b9050602081019050919050565b600062000577826200057e565b9050919050565b600073ffffffffffffffffffffffffffffffffffffffff82169050919050565b6000819050919050565b60005b83811015620005c8578082015181840152602081019050620005ab565b83811115620005d8576000848401525b50505050565b60006002820490506001821680620005f757607f821691505b602082108114156200060e576200060d6200064a565b5b50919050565b6200061f82620006a8565b810181811067ffffffffffffffff8211171562000641576200064062000679565b5b80604052505050565b7f4e487b7100000000000000000000000000000000000000000000000000000000600052602260045260246000fd5b7f4e487b7100000000000000000000000000000000000000000000000000000000600052604160045260246000fd5b6000601f19601f8301169050919050565b620006c4816200056a565b8114620006d057600080fd5b50565b620006de816200059e565b8114620006ea57600080fd5b50565b612ea780620006fd6000396000f3fe60806040526004361061014f5760003560e01c80636feba3ca116100b6578063a9059cbb1161006f578063a9059cbb146104d7578063d5c78a2814610514578063d8aed14514610551578063daecfa6c1461057a578063dd62ed3e146105a3578063fcd96b02146105e057610156565b80636feba3ca146103b757806370a08231146103e057806395d89b411461041d5780639975b19f14610448578063a126d60114610471578063a457c2d71461049a57610156565b8063313ce56711610108578063313ce5671461029157806339509351146102bc578063415f1240146102f9578063441a3e70146103225780635aca84151461034b578063626f5c021461038c57610156565b806304a2ce7e1461015b57806306fdde0314610198578063095ea7b3146101c35780630ecbcdab1461020057806318160ddd1461022957806323b872dd1461025457610156565b3661015657005b600080fd5b34801561016757600080fd5b50610182600480360381019061017d919061241f565b61061d565b60405161018f9190612888565b60405180910390f35b3480156101a457600080fd5b506101ad610747565b6040516101ba9190612746565b60405180910390f35b3480156101cf57600080fd5b506101ea60048036038101906101e59190612391565b6107d9565b6040516101f7919061272b565b60405180910390f35b34801561020c57600080fd5b5061022760048036038101906102229190612471565b6107fc565b005b34801561023557600080fd5b5061023e610a57565b60405161024b9190612888565b60405180910390f35b34801561026057600080fd5b5061027b60048036038101906102769190612342565b610a61565b604051610288919061272b565b60405180910390f35b34801561029d57600080fd5b506102a6610a90565b6040516102b391906128a3565b60405180910390f35b3480156102c857600080fd5b506102e360048036038101906102de9190612391565b610a99565b6040516102f0919061272b565b60405180910390f35b34801561030557600080fd5b50610320600480360381019061031b919061241f565b610ad0565b005b34801561032e57600080fd5b5061034960048036038101906103449190612471565b610b1b565b005b34801561035757600080fd5b50610372600480360381019061036d919061241f565b610d66565b6040516103839594939291906126d8565b60405180910390f35b34801561039857600080fd5b506103a1610dcc565b6040516103ae9190612888565b60405180910390f35b3480156103c357600080fd5b506103de60048036038101906103d991906122dd565b610dd2565b005b3480156103ec57600080fd5b50610407600480360381019061040291906122dd565b610e92565b6040516104149190612888565b60405180910390f35b34801561042957600080fd5b50610432610eda565b60405161043f9190612746565b60405180910390f35b34801561045457600080fd5b5061046f600480360381019061046a91906123f6565b610f6c565b005b34801561047d57600080fd5b506104986004803603810190610493919061241f565b610fc9565b005b3480156104a657600080fd5b506104c160048036038101906104bc9190612391565b61112b565b6040516104ce919061272b565b60405180910390f35b3480156104e357600080fd5b506104fe60048036038101906104f99190612391565b6111a2565b60405161050b919061272b565b60405180910390f35b34801561052057600080fd5b5061053b6004803603810190610536919061241f565b6111c5565b604051610548919061272b565b60405180910390f35b34801561055d57600080fd5b5061057860048036038101906105739190612471565b6111e5565b005b34801561058657600080fd5b506105a1600480360381019061059c9190612471565b6112ba565b005b3480156105af57600080fd5b506105ca60048036038101906105c59190612306565b61145d565b6040516105d79190612888565b60405180910390f35b3480156105ec57600080fd5b506106076004803603810190610602919061241f565b6114e4565b604051610614919061265d565b60405180910390f35b6000806040518060a001604052803373ffffffffffffffffffffffffffffffffffffffff1681526020018481526020016000815260200160008152602001600554815250905080600e8260800151815481106106a2577f4e487b7100000000000000000000000000000000000000000000000000000000600052603260045260246000fd5b906000526020600020906005020160008201518160000160006101000a81548173ffffffffffffffffffffffffffffffffffffffff021916908373ffffffffffffffffffffffffffffffffffffffff160217905550602082015181600101556040820151816002015560608201518160030155608082015181600401559050506005600081548092919061073590612ab3565b91905055508060800151915050919050565b60606003805461075690612a81565b80601f016020809104026020016040519081016040528092919081815260200182805461078290612a81565b80156107cf5780601f106107a4576101008083540402835291602001916107cf565b820191906000526020600020905b8154815290600101906020018083116107b257829003601f168201915b5050505050905090565b6000806107e4611523565b90506107f181858561152b565b600191505092915050565b816000600e8281548110610839577f4e487b7100000000000000000000000000000000000000000000000000000000600052603260045260246000fd5b90600052602060002090600502016040518060a00160405290816000820160009054906101000a900473ffffffffffffffffffffffffffffffffffffffff1673ffffffffffffffffffffffffffffffffffffffff1673ffffffffffffffffffffffffffffffffffffffff1681526020016001820154815260200160028201548152602001600382015481526020016004820154815250509050806000015173ffffffffffffffffffffffffffffffffffffffff163373ffffffffffffffffffffffffffffffffffffffff161461090e57600080fd5b83600f600082815260200190815260200160002060009054906101000a900460ff161561093a57600080fd5b6000600e8681548110610976577f4e487b7100000000000000000000000000000000000000000000000000000000600052603260045260246000fd5b9060005260206000209060050201905060006109aa6006546109a58885600301546116f690919063ffffffff16565b61170c565b905060006109d76007546109c9600954856117fc90919063ffffffff16565b61181290919063ffffffff16565b905060006109ed8460010154856002015461170c565b9050600854610a1982610a0b600754866117fc90919063ffffffff16565b61181290919063ffffffff16565b11610a2357600080fd5b610a3a8885600301546116f690919063ffffffff16565b8460030181905550610a4c3389611828565b505050505050505050565b6000600254905090565b600080610a6c611523565b9050610a79858285611988565b610a84858585611a14565b60019150509392505050565b60006012905090565b600080610aa4611523565b9050610ac5818585610ab6858961145d565b610ac091906128da565b61152b565b600191505092915050565b80600f600082815260200190815260200160002060009054906101000a900460ff1615610afc57600080fd5b610b0582611cb1565b610b0e57600080fd5b610b1782611e2f565b5050565b816000600e8281548110610b58577f4e487b7100000000000000000000000000000000000000000000000000000000600052603260045260246000fd5b90600052602060002090600502016040518060a00160405290816000820160009054906101000a900473ffffffffffffffffffffffffffffffffffffffff1673ffffffffffffffffffffffffffffffffffffffff1673ffffffffffffffffffffffffffffffffffffffff1681526020016001820154815260200160028201548152602001600382015481526020016004820154815250509050806000015173ffffffffffffffffffffffffffffffffffffffff163373ffffffffffffffffffffffffffffffffffffffff1614610c2d57600080fd5b83600f600082815260200190815260200160002060009054906101000a900460ff1615610c5957600080fd5b6000600e8681548110610c95577f4e487b7100000000000000000000000000000000000000000000000000000000600052603260045260246000fd5b906000526020600020906005020190506000610cdf600654610cda600754610ccc60095487600301546117fc90919063ffffffff16565b61181290919063ffffffff16565b61170c565b90506000610d078360010154610d0289866002015461207d90919063ffffffff16565b61170c565b9050600854610d3382610d25600754866117fc90919063ffffffff16565b61181290919063ffffffff16565b11610d3d57600080fd5b610d5487846002015461207d90919063ffffffff16565b83600201819055505050505050505050565b600e8181548110610d7657600080fd5b90600052602060002090600502016000915090508060000160009054906101000a900473ffffffffffffffffffffffffffffffffffffffff16908060010154908060020154908060030154908060040154905085565b60095481565b600b60009054906101000a900473ffffffffffffffffffffffffffffffffffffffff1673ffffffffffffffffffffffffffffffffffffffff163373ffffffffffffffffffffffffffffffffffffffff1614610e2c57600080fd5b600a819080600181540180825580915050600190039060005260206000200160009091909190916101000a81548173ffffffffffffffffffffffffffffffffffffffff021916908373ffffffffffffffffffffffffffffffffffffffff16021790555050565b60008060008373ffffffffffffffffffffffffffffffffffffffff1673ffffffffffffffffffffffffffffffffffffffff168152602001908152602001600020549050919050565b606060048054610ee990612a81565b80601f0160208091040260200160405190810160405280929190818152602001828054610f1590612a81565b8015610f625780601f10610f3757610100808354040283529160200191610f62565b820191906000526020600020905b815481529060010190602001808311610f4557829003601f168201915b5050505050905090565b600c60009054906101000a900473ffffffffffffffffffffffffffffffffffffffff1673ffffffffffffffffffffffffffffffffffffffff163373ffffffffffffffffffffffffffffffffffffffff1614610fc657600080fd5b50565b6005546000600e8281548110611008577f4e487b7100000000000000000000000000000000000000000000000000000000600052603260045260246000fd5b90600052602060002090600502016040518060a00160405290816000820160009054906101000a900473ffffffffffffffffffffffffffffffffffffffff1673ffffffffffffffffffffffffffffffffffffffff1673ffffffffffffffffffffffffffffffffffffffff1681526020016001820154815260200160028201548152602001600382015481526020016004820154815250509050806000015173ffffffffffffffffffffffffffffffffffffffff163373ffffffffffffffffffffffffffffffffffffffff16146110dd57600080fd5b82600f600082815260200190815260200160002060009054906101000a900460ff161561110957600080fd5b61111284611cb1565b1561111c57600080fd5b61112584611e2f565b50505050565b600080611136611523565b90506000611144828661145d565b905083811015611189576040517f08c379a000000000000000000000000000000000000000000000000000000000815260040161118090612848565b60405180910390fd5b611196828686840361152b565b60019250505092915050565b6000806111ad611523565b90506111ba818585611a14565b600191505092915050565b600f6020528060005260406000206000915054906101000a900460ff1681565b81600f600082815260200190815260200160002060009054906101000a900460ff161561121157600080fd5b6000600e848154811061124d577f4e487b7100000000000000000000000000000000000000000000000000000000600052603260045260246000fd5b90600052602060002090600502019050600061128860095461127a600754876117fc90919063ffffffff16565b61181290919063ffffffff16565b90506112a181836003015461207d90919063ffffffff16565b82600301819055506112b33385612093565b5050505050565b81600f600082815260200190815260200160002060009054906101000a900460ff16156112e657600080fd5b6000600e8481548110611322577f4e487b7100000000000000000000000000000000000000000000000000000000600052603260045260246000fd5b906000526020600020906005020190506000600a826001015481548110611372577f4e487b7100000000000000000000000000000000000000000000000000000000600052603260045260246000fd5b9060005260206000200160009054906101000a900473ffffffffffffffffffffffffffffffffffffffff1690508073ffffffffffffffffffffffffffffffffffffffff166323b872dd3330876040518463ffffffff1660e01b81526004016113dc93929190612678565b602060405180830381600087803b1580156113f657600080fd5b505af115801561140a573d6000803e3d6000fd5b505050506040513d601f19601f8201168201806040525081019061142e91906123cd565b61143757600080fd5b61144e8483600201546116f690919063ffffffff16565b82600201819055505050505050565b6000600160008473ffffffffffffffffffffffffffffffffffffffff1673ffffffffffffffffffffffffffffffffffffffff16815260200190815260200160002060008373ffffffffffffffffffffffffffffffffffffffff1673ffffffffffffffffffffffffffffffffffffffff16815260200190815260200160002054905092915050565b600a81815481106114f457600080fd5b906000526020600020016000915054906101000a900473ffffffffffffffffffffffffffffffffffffffff1681565b600033905090565b600073ffffffffffffffffffffffffffffffffffffffff168373ffffffffffffffffffffffffffffffffffffffff16141561159b576040517f08c379a000000000000000000000000000000000000000000000000000000000815260040161159290612828565b60405180910390fd5b600073ffffffffffffffffffffffffffffffffffffffff168273ffffffffffffffffffffffffffffffffffffffff16141561160b576040517f08c379a0000000000000000000000000000000000000000000000000000000008152600401611602906127a8565b60405180910390fd5b80600160008573ffffffffffffffffffffffffffffffffffffffff1673ffffffffffffffffffffffffffffffffffffffff16815260200190815260200160002060008473ffffffffffffffffffffffffffffffffffffffff1673ffffffffffffffffffffffffffffffffffffffff168152602001908152602001600020819055508173ffffffffffffffffffffffffffffffffffffffff168373ffffffffffffffffffffffffffffffffffffffff167f8c5be1e5ebec7d5bd14f71427d1e84f3dd0314c0f7b2291e5b200ac8c7c3b925836040516116e99190612888565b60405180910390a3505050565b6000818361170491906128da565b905092915050565b600080600d60009054906101000a900473ffffffffffffffffffffffffffffffffffffffff1673ffffffffffffffffffffffffffffffffffffffff1663e7572230856040518263ffffffff1660e01b815260040161176a9190612888565b60206040518083038186803b15801561178257600080fd5b505afa158015611796573d6000803e3d6000fd5b505050506040513d601f19601f820116820180604052508101906117ba9190612448565b9050600081146117f0576117eb6007546117dd85846117fc90919063ffffffff16565b61181290919063ffffffff16565b6117f3565b60005b91505092915050565b6000818361180a9190612961565b905092915050565b600081836118209190612930565b905092915050565b600073ffffffffffffffffffffffffffffffffffffffff168273ffffffffffffffffffffffffffffffffffffffff161415611898576040517f08c379a000000000000000000000000000000000000000000000000000000000815260040161188f90612868565b60405180910390fd5b6118a46000838361226a565b80600260008282546118b691906128da565b92505081905550806000808473ffffffffffffffffffffffffffffffffffffffff1673ffffffffffffffffffffffffffffffffffffffff168152602001908152602001600020600082825461190b91906128da565b925050819055508173ffffffffffffffffffffffffffffffffffffffff16600073ffffffffffffffffffffffffffffffffffffffff167fddf252ad1be2c89b69c2b068fc378daa952ba7f163c4a11628f55a4df523b3ef836040516119709190612888565b60405180910390a36119846000838361226f565b5050565b6000611994848461145d565b90507fffffffffffffffffffffffffffffffffffffffffffffffffffffffffffffffff8114611a0e5781811015611a00576040517f08c379a00000000000000000000000000000000000000000000000000000000081526004016119f7906127c8565b60405180910390fd5b611a0d848484840361152b565b5b50505050565b600073ffffffffffffffffffffffffffffffffffffffff168373ffffffffffffffffffffffffffffffffffffffff161415611a84576040517f08c379a0000000000000000000000000000000000000000000000000000000008152600401611a7b90612808565b60405180910390fd5b600073ffffffffffffffffffffffffffffffffffffffff168273ffffffffffffffffffffffffffffffffffffffff161415611af4576040517f08c379a0000000000000000000000000000000000000000000000000000000008152600401611aeb90612768565b60405180910390fd5b611aff83838361226a565b60008060008573ffffffffffffffffffffffffffffffffffffffff1673ffffffffffffffffffffffffffffffffffffffff168152602001908152602001600020549050611b6b600754611b5d600954846117fc90919063ffffffff16565b61181290919063ffffffff16565b821115611b7757600080fd5b6000611b8e6009548461181290919063ffffffff16565b9050611ba3818361207d90919063ffffffff16565b6000808773ffffffffffffffffffffffffffffffffffffffff1673ffffffffffffffffffffffffffffffffffffffff16815260200190815260200160002081905550826000808673ffffffffffffffffffffffffffffffffffffffff1673ffffffffffffffffffffffffffffffffffffffff1681526020019081526020016000206000828254611c3391906128da565b925050819055508373ffffffffffffffffffffffffffffffffffffffff168573ffffffffffffffffffffffffffffffffffffffff167fddf252ad1be2c89b69c2b068fc378daa952ba7f163c4a11628f55a4df523b3ef85604051611c979190612888565b60405180910390a3611caa85858561226f565b5050505050565b600080600e8381548110611cee577f4e487b7100000000000000000000000000000000000000000000000000000000600052603260045260246000fd5b90600052602060002090600502016040518060a00160405290816000820160009054906101000a900473ffffffffffffffffffffffffffffffffffffffff1673ffffffffffffffffffffffffffffffffffffffff1673ffffffffffffffffffffffffffffffffffffffff16815260200160018201548152602001600282015481526020016003820154815260200160048201548152505090506000611db6600754611da860095485606001516117fc90919063ffffffff16565b61181290919063ffffffff16565b90506000611dc66006548361170c565b90506000611ddc8460200151856040015161170c565b9050600854611e0882611dfa600754866117fc90919063ffffffff16565b61181290919063ffffffff16565b11158015611e24575060008114158015611e23575060008214155b5b945050505050919050565b6000600e8281548110611e6b577f4e487b7100000000000000000000000000000000000000000000000000000000600052603260045260246000fd5b906000526020600020906005020190506000600a826001015481548110611ebb577f4e487b7100000000000000000000000000000000000000000000000000000000600052603260045260246000fd5b9060005260206000200160009054906101000a900473ffffffffffffffffffffffffffffffffffffffff169050611f1f3330611f1a600754611f0c60095488600301546117fc90919063ffffffff16565b61181290919063ffffffff16565b610a61565b611f2857600080fd5b8073ffffffffffffffffffffffffffffffffffffffff1663a9059cbb3384600201546040518363ffffffff1660e01b8152600401611f679291906126af565b602060405180830381600087803b158015611f8157600080fd5b505af1158015611f95573d6000803e3d6000fd5b505050506040513d601f19601f82011682018060405250810190611fb991906123cd565b50600e8381548110611ff4577f4e487b7100000000000000000000000000000000000000000000000000000000600052603260045260246000fd5b9060005260206000209060050201600080820160006101000a81549073ffffffffffffffffffffffffffffffffffffffff0219169055600182016000905560028201600090556003820160009055600482016000905550506001600f600085815260200190815260200160002060006101000a81548160ff021916908315150217905550505050565b6000818361208b91906129bb565b905092915050565b600073ffffffffffffffffffffffffffffffffffffffff168273ffffffffffffffffffffffffffffffffffffffff161415612103576040517f08c379a00000000000000000000000000000000000000000000000000000000081526004016120fa906127e8565b60405180910390fd5b61210f8260008361226a565b60008060008473ffffffffffffffffffffffffffffffffffffffff1673ffffffffffffffffffffffffffffffffffffffff16815260200190815260200160002054905081811015612195576040517f08c379a000000000000000000000000000000000000000000000000000000000815260040161218c90612788565b60405180910390fd5b8181036000808573ffffffffffffffffffffffffffffffffffffffff1673ffffffffffffffffffffffffffffffffffffffff1681526020019081526020016000208190555081600260008282546121ec91906129bb565b92505081905550600073ffffffffffffffffffffffffffffffffffffffff168373ffffffffffffffffffffffffffffffffffffffff167fddf252ad1be2c89b69c2b068fc378daa952ba7f163c4a11628f55a4df523b3ef846040516122519190612888565b60405180910390a36122658360008461226f565b505050565b505050565b505050565b60008135905061228381612e15565b92915050565b60008151905061229881612e2c565b92915050565b6000813590506122ad81612e43565b92915050565b6000813590506122c281612e5a565b92915050565b6000815190506122d781612e5a565b92915050565b6000602082840312156122ef57600080fd5b60006122fd84828501612274565b91505092915050565b6000806040838503121561231957600080fd5b600061232785828601612274565b925050602061233885828601612274565b9150509250929050565b60008060006060848603121561235757600080fd5b600061236586828701612274565b935050602061237686828701612274565b9250506040612387868287016122b3565b9150509250925092565b600080604083850312156123a457600080fd5b60006123b285828601612274565b92505060206123c3858286016122b3565b9150509250929050565b6000602082840312156123df57600080fd5b60006123ed84828501612289565b91505092915050565b60006020828403121561240857600080fd5b60006124168482850161229e565b91505092915050565b60006020828403121561243157600080fd5b600061243f848285016122b3565b91505092915050565b60006020828403121561245a57600080fd5b6000612468848285016122c8565b91505092915050565b6000806040838503121561248457600080fd5b6000612492858286016122b3565b92505060206124a3858286016122b3565b9150509250929050565b6124b6816129ef565b82525050565b6124c581612a01565b82525050565b60006124d6826128be565b6124e081856128c9565b93506124f0818560208601612a4e565b6124f981612b89565b840191505092915050565b60006125116023836128c9565b915061251c82612b9a565b604082019050919050565b60006125346022836128c9565b915061253f82612be9565b604082019050919050565b60006125576022836128c9565b915061256282612c38565b604082019050919050565b600061257a601d836128c9565b915061258582612c87565b602082019050919050565b600061259d6021836128c9565b91506125a882612cb0565b604082019050919050565b60006125c06025836128c9565b91506125cb82612cff565b604082019050919050565b60006125e36024836128c9565b91506125ee82612d4e565b604082019050919050565b60006126066025836128c9565b915061261182612d9d565b604082019050919050565b6000612629601f836128c9565b915061263482612dec565b602082019050919050565b61264881612a37565b82525050565b61265781612a41565b82525050565b600060208201905061267260008301846124ad565b92915050565b600060608201905061268d60008301866124ad565b61269a60208301856124ad565b6126a7604083018461263f565b949350505050565b60006040820190506126c460008301856124ad565b6126d1602083018461263f565b9392505050565b600060a0820190506126ed60008301886124ad565b6126fa602083018761263f565b612707604083018661263f565b612714606083018561263f565b612721608083018461263f565b9695505050505050565b600060208201905061274060008301846124bc565b92915050565b6000602082019050818103600083015261276081846124cb565b905092915050565b6000602082019050818103600083015261278181612504565b9050919050565b600060208201905081810360008301526127a181612527565b9050919050565b600060208201905081810360008301526127c18161254a565b9050919050565b600060208201905081810360008301526127e18161256d565b9050919050565b6000602082019050818103600083015261280181612590565b9050919050565b60006020820190508181036000830152612821816125b3565b9050919050565b60006020820190508181036000830152612841816125d6565b9050919050565b60006020820190508181036000830152612861816125f9565b9050919050565b600060208201905081810360008301526128818161261c565b9050919050565b600060208201905061289d600083018461263f565b92915050565b60006020820190506128b8600083018461264e565b92915050565b600081519050919050565b600082825260208201905092915050565b60006128e582612a37565b91506128f083612a37565b9250827fffffffffffffffffffffffffffffffffffffffffffffffffffffffffffffffff0382111561292557612924612afc565b5b828201905092915050565b600061293b82612a37565b915061294683612a37565b92508261295657612955612b2b565b5b828204905092915050565b600061296c82612a37565b915061297783612a37565b9250817fffffffffffffffffffffffffffffffffffffffffffffffffffffffffffffffff04831182151516156129b0576129af612afc565b5b828202905092915050565b60006129c682612a37565b91506129d183612a37565b9250828210156129e4576129e3612afc565b5b828203905092915050565b60006129fa82612a17565b9050919050565b60008115159050919050565b6000819050919050565b600073ffffffffffffffffffffffffffffffffffffffff82169050919050565b6000819050919050565b600060ff82169050919050565b60005b83811015612a6c578082015181840152602081019050612a51565b83811115612a7b576000848401525b50505050565b60006002820490506001821680612a9957607f821691505b60208210811415612aad57612aac612b5a565b5b50919050565b6000612abe82612a37565b91507fffffffffffffffffffffffffffffffffffffffffffffffffffffffffffffffff821415612af157612af0612afc565b5b600182019050919050565b7f4e487b7100000000000000000000000000000000000000000000000000000000600052601160045260246000fd5b7f4e487b7100000000000000000000000000000000000000000000000000000000600052601260045260246000fd5b7f4e487b7100000000000000000000000000000000000000000000000000000000600052602260045260246000fd5b6000601f19601f8301169050919050565b7f45524332303a207472616e7366657220746f20746865207a65726f206164647260008201527f6573730000000000000000000000000000000000000000000000000000000000602082015250565b7f45524332303a206275726e20616d6f756e7420657863656564732062616c616e60008201527f6365000000000000000000000000000000000000000000000000000000000000602082015250565b7f45524332303a20617070726f766520746f20746865207a65726f20616464726560008201527f7373000000000000000000000000000000000000000000000000000000000000602082015250565b7f45524332303a20696e73756666696369656e7420616c6c6f77616e6365000000600082015250565b7f45524332303a206275726e2066726f6d20746865207a65726f2061646472657360008201527f7300000000000000000000000000000000000000000000000000000000000000602082015250565b7f45524332303a207472616e736665722066726f6d20746865207a65726f20616460008201527f6472657373000000000000000000000000000000000000000000000000000000602082015250565b7f45524332303a20617070726f76652066726f6d20746865207a65726f2061646460008201527f7265737300000000000000000000000000000000000000000000000000000000602082015250565b7f45524332303a2064656372656173656420616c6c6f77616e63652062656c6f7760008201527f207a65726f000000000000000000000000000000000000000000000000000000602082015250565b7f45524332303a206d696e7420746f20746865207a65726f206164647265737300600082015250565b612e1e816129ef565b8114612e2957600080fd5b50565b612e3581612a01565b8114612e4057600080fd5b50565b612e4c81612a0d565b8114612e5757600080fd5b50565b612e6381612a37565b8114612e6e57600080fd5b5056fea2646970667358221220b975185d5aca875510a945fba3c8574e1b429c2d8f758530e04c6f6f8cf2f93c64736f6c63430008040033",
  "linkReferences": {},
  "deployedLinkReferences": {}
}