{
  "_format": "hh-sol-artifact-1",
  "contractName": "FxPerpStatic",
  "sourceName": "contracts/Vaults/FxPerpStatic.sol",
  "abi": [
    {
      "anonymous": false,
      "inputs": [
        {
          "indexed": true,
          "internalType": "address",
          "name": "owner",
          "type": "address"
        },
        {
          "indexed": true,
          "internalType": "address",
          "name": "spender",
          "type": "address"
        },
        {
          "indexed": false,
          "internalType": "uint256",
          "name": "value",
          "type": "uint256"
        }
      ],
      "name": "Approval",
      "type": "event"
    },
    {
      "anonymous": false,
      "inputs": [
        {
          "indexed": false,
          "internalType": "uint8",
          "name": "version",
          "type": "uint8"
        }
      ],
      "name": "Initialized",
      "type": "event"
    },
    {
      "anonymous": false,
      "inputs": [
        {
          "indexed": true,
          "internalType": "address",
          "name": "from",
          "type": "address"
        },
        {
          "indexed": true,
          "internalType": "address",
          "name": "to",
          "type": "address"
        },
        {
          "indexed": false,
          "internalType": "uint256",
          "name": "value",
          "type": "uint256"
        }
      ],
      "name": "Transfer",
      "type": "event"
    },
    {
      "inputs": [
        {
          "internalType": "address",
          "name": "owner",
          "type": "address"
        },
        {
          "internalType": "address",
          "name": "spender",
          "type": "address"
        }
      ],
      "name": "allowance",
      "outputs": [
        {
          "internalType": "uint256",
          "name": "",
          "type": "uint256"
        }
      ],
      "stateMutability": "view",
      "type": "function"
    },
    {
      "inputs": [
        {
          "internalType": "address",
          "name": "spender",
          "type": "address"
        },
        {
          "internalType": "uint256",
          "name": "amount",
          "type": "uint256"
        }
      ],
      "name": "approve",
      "outputs": [
        {
          "internalType": "bool",
          "name": "",
          "type": "bool"
        }
      ],
      "stateMutability": "nonpayable",
      "type": "function"
    },
    {
      "inputs": [
        {
          "internalType": "address",
          "name": "account",
          "type": "address"
        }
      ],
      "name": "balanceOf",
      "outputs": [
        {
          "internalType": "uint256",
          "name": "",
          "type": "uint256"
        }
      ],
      "stateMutability": "view",
      "type": "function"
    },
    {
      "inputs": [
        {
          "internalType": "address",
          "name": "_account",
          "type": "address"
        },
        {
          "internalType": "uint256",
          "name": "_amount",
          "type": "uint256"
        }
      ],
      "name": "burn",
      "outputs": [],
      "stateMutability": "nonpayable",
      "type": "function"
    },
    {
      "inputs": [],
      "name": "decimals",
      "outputs": [
        {
          "internalType": "uint8",
          "name": "",
          "type": "uint8"
        }
      ],
      "stateMutability": "view",
      "type": "function"
    },
    {
      "inputs": [
        {
          "internalType": "address",
          "name": "spender",
          "type": "address"
        },
        {
          "internalType": "uint256",
          "name": "subtractedValue",
          "type": "uint256"
        }
      ],
      "name": "decreaseAllowance",
      "outputs": [
        {
          "internalType": "bool",
          "name": "",
          "type": "bool"
        }
      ],
      "stateMutability": "nonpayable",
      "type": "function"
    },
    {
      "inputs": [
        {
          "internalType": "address",
          "name": "spender",
          "type": "address"
        },
        {
          "internalType": "uint256",
          "name": "addedValue",
          "type": "uint256"
        }
      ],
      "name": "increaseAllowance",
      "outputs": [
        {
          "internalType": "bool",
          "name": "",
          "type": "bool"
        }
      ],
      "stateMutability": "nonpayable",
      "type": "function"
    },
    {
      "inputs": [
        {
          "internalType": "string",
          "name": "_name",
          "type": "string"
        },
        {
          "internalType": "string",
          "name": "_symbol",
          "type": "string"
        },
        {
          "internalType": "address",
          "name": "_vaults",
          "type": "address"
        }
      ],
      "name": "initialize",
      "outputs": [],
      "stateMutability": "nonpayable",
      "type": "function"
    },
    {
      "inputs": [
        {
          "internalType": "address",
          "name": "_account",
          "type": "address"
        },
        {
          "internalType": "uint256",
          "name": "_amount",
          "type": "uint256"
        }
      ],
      "name": "mint",
      "outputs": [],
      "stateMutability": "nonpayable",
      "type": "function"
    },
    {
      "inputs": [],
      "name": "name",
      "outputs": [
        {
          "internalType": "string",
          "name": "",
          "type": "string"
        }
      ],
      "stateMutability": "view",
      "type": "function"
    },
    {
      "inputs": [
        {
          "internalType": "uint256",
          "name": "_staticAmount",
          "type": "uint256"
        }
      ],
      "name": "portToDynamic",
      "outputs": [],
      "stateMutability": "nonpayable",
      "type": "function"
    },
    {
      "inputs": [
        {
          "internalType": "address",
          "name": "_perpDynamic",
          "type": "address"
        }
      ],
      "name": "setDynamic",
      "outputs": [],
      "stateMutability": "nonpayable",
      "type": "function"
    },
    {
      "inputs": [],
      "name": "symbol",
      "outputs": [
        {
          "internalType": "string",
          "name": "",
          "type": "string"
        }
      ],
      "stateMutability": "view",
      "type": "function"
    },
    {
      "inputs": [],
      "name": "totalSupply",
      "outputs": [
        {
          "internalType": "uint256",
          "name": "",
          "type": "uint256"
        }
      ],
      "stateMutability": "view",
      "type": "function"
    },
    {
      "inputs": [
        {
          "internalType": "address",
          "name": "to",
          "type": "address"
        },
        {
          "internalType": "uint256",
          "name": "amount",
          "type": "uint256"
        }
      ],
      "name": "transfer",
      "outputs": [
        {
          "internalType": "bool",
          "name": "",
          "type": "bool"
        }
      ],
      "stateMutability": "nonpayable",
      "type": "function"
    },
    {
      "inputs": [
        {
          "internalType": "address",
          "name": "from",
          "type": "address"
        },
        {
          "internalType": "address",
          "name": "to",
          "type": "address"
        },
        {
          "internalType": "uint256",
          "name": "amount",
          "type": "uint256"
        }
      ],
      "name": "transferFrom",
      "outputs": [
        {
          "internalType": "bool",
          "name": "",
          "type": "bool"
        }
      ],
      "stateMutability": "nonpayable",
      "type": "function"
    }
  ],
  "bytecode": "0x608060405234801561001057600080fd5b506121f4806100206000396000f3fe608060405234801561001057600080fd5b50600436106101005760003560e01c806370a08231116100975780639dc29fac116100665780639dc29fac146102ad578063a457c2d7146102c9578063a9059cbb146102f9578063dd62ed3e1461032957610100565b806370a082311461022757806380d6aacd146102575780638b63c1581461027357806395d89b411461028f57610100565b806323b872dd116100d357806323b872dd1461018d578063313ce567146101bd57806339509351146101db57806340c10f191461020b57610100565b806306fdde0314610105578063077f224a14610123578063095ea7b31461013f57806318160ddd1461016f575b600080fd5b61010d610359565b60405161011a91906119aa565b60405180910390f35b61013d6004803603810190610138919061167b565b6103eb565b005b6101596004803603810190610154919061163f565b6104c5565b6040516101669190611974565b60405180910390f35b6101776104e8565b6040516101849190611b4c565b60405180910390f35b6101a760048036038101906101a291906115f0565b6104f2565b6040516101b49190611974565b60405180910390f35b6101c5610521565b6040516101d29190611b67565b60405180910390f35b6101f560048036038101906101f0919061163f565b61052a565b6040516102029190611974565b60405180910390f35b6102256004803603810190610220919061163f565b610561565b005b610241600480360381019061023c919061158b565b610621565b60405161024e9190611b4c565b60405180910390f35b610271600480360381019061026c91906116fa565b61066a565b005b61028d6004803603810190610288919061158b565b610752565b005b6102976107cb565b6040516102a491906119aa565b60405180910390f35b6102c760048036038101906102c2919061163f565b61085d565b005b6102e360048036038101906102de919061163f565b61091d565b6040516102f09190611974565b60405180910390f35b610313600480360381019061030e919061163f565b610994565b6040516103209190611974565b60405180910390f35b610343600480360381019061033e91906115b4565b6109b7565b6040516103509190611b4c565b60405180910390f35b60606036805461036890611d27565b80601f016020809104026020016040519081016040528092919081815260200182805461039490611d27565b80156103e15780601f106103b6576101008083540402835291602001916103e1565b820191906000526020600020905b8154815290600101906020018083116103c457829003601f168201915b5050505050905090565b60006103f76001610a3e565b9050801561041b576001600060016101000a81548160ff0219169083151502179055505b81606560006101000a81548173ffffffffffffffffffffffffffffffffffffffff021916908373ffffffffffffffffffffffffffffffffffffffff1602179055506104668484610b2e565b80156104bf5760008060016101000a81548160ff0219169083151502179055507f7f26b83ff96e1f2b6a682f133852f6798a09c465da95921460cefb384740249860016040516104b6919061198f565b60405180910390a15b50505050565b6000806104d0610b8b565b90506104dd818585610b93565b600191505092915050565b6000603554905090565b6000806104fd610b8b565b905061050a858285610d5e565b610515858585610dea565b60019150509392505050565b60006012905090565b600080610535610b8b565b905061055681858561054785896109b7565b6105519190611bf4565b610b93565b600191505092915050565b606560009054906101000a900473ffffffffffffffffffffffffffffffffffffffff1673ffffffffffffffffffffffffffffffffffffffff163373ffffffffffffffffffffffffffffffffffffffff16148061060a5750606660009054906101000a900473ffffffffffffffffffffffffffffffffffffffff1673ffffffffffffffffffffffffffffffffffffffff163373ffffffffffffffffffffffffffffffffffffffff16145b61061357600080fd5b61061d828261106e565b5050565b6000603360008373ffffffffffffffffffffffffffffffffffffffff1673ffffffffffffffffffffffffffffffffffffffff168152602001908152602001600020549050919050565b80603360003373ffffffffffffffffffffffffffffffffffffffff1673ffffffffffffffffffffffffffffffffffffffff1681526020019081526020016000205410156106b657600080fd5b6106c033826111cf565b606660009054906101000a900473ffffffffffffffffffffffffffffffffffffffff1673ffffffffffffffffffffffffffffffffffffffff166340c10f1933836040518363ffffffff1660e01b815260040161071d92919061194b565b600060405180830381600087803b15801561073757600080fd5b505af115801561074b573d6000803e3d6000fd5b5050505050565b606660149054906101000a900460ff161561076c57600080fd5b80606660006101000a81548173ffffffffffffffffffffffffffffffffffffffff021916908373ffffffffffffffffffffffffffffffffffffffff1602179055506001606660146101000a81548160ff02191690831515021790555050565b6060603780546107da90611d27565b80601f016020809104026020016040519081016040528092919081815260200182805461080690611d27565b80156108535780601f1061082857610100808354040283529160200191610853565b820191906000526020600020905b81548152906001019060200180831161083657829003601f168201915b5050505050905090565b606560009054906101000a900473ffffffffffffffffffffffffffffffffffffffff1673ffffffffffffffffffffffffffffffffffffffff163373ffffffffffffffffffffffffffffffffffffffff1614806109065750606660009054906101000a900473ffffffffffffffffffffffffffffffffffffffff1673ffffffffffffffffffffffffffffffffffffffff163373ffffffffffffffffffffffffffffffffffffffff16145b61090f57600080fd5b61091982826111cf565b5050565b600080610928610b8b565b9050600061093682866109b7565b90508381101561097b576040517f08c379a000000000000000000000000000000000000000000000000000000000815260040161097290611b0c565b60405180910390fd5b6109888286868403610b93565b60019250505092915050565b60008061099f610b8b565b90506109ac818585610dea565b600191505092915050565b6000603460008473ffffffffffffffffffffffffffffffffffffffff1673ffffffffffffffffffffffffffffffffffffffff16815260200190815260200160002060008373ffffffffffffffffffffffffffffffffffffffff1673ffffffffffffffffffffffffffffffffffffffff16815260200190815260200160002054905092915050565b60008060019054906101000a900460ff1615610ab55760018260ff16148015610a6d5750610a6b306113a8565b155b610aac576040517f08c379a0000000000000000000000000000000000000000000000000000000008152600401610aa390611a6c565b60405180910390fd5b60009050610b29565b8160ff1660008054906101000a900460ff1660ff1610610b0a576040517f08c379a0000000000000000000000000000000000000000000000000000000008152600401610b0190611a6c565b60405180910390fd5b816000806101000a81548160ff021916908360ff160217905550600190505b919050565b600060019054906101000a900460ff16610b7d576040517f08c379a0000000000000000000000000000000000000000000000000000000008152600401610b7490611aec565b60405180910390fd5b610b8782826113cb565b5050565b600033905090565b600073ffffffffffffffffffffffffffffffffffffffff168373ffffffffffffffffffffffffffffffffffffffff161415610c03576040517f08c379a0000000000000000000000000000000000000000000000000000000008152600401610bfa90611acc565b60405180910390fd5b600073ffffffffffffffffffffffffffffffffffffffff168273ffffffffffffffffffffffffffffffffffffffff161415610c73576040517f08c379a0000000000000000000000000000000000000000000000000000000008152600401610c6a90611a0c565b60405180910390fd5b80603460008573ffffffffffffffffffffffffffffffffffffffff1673ffffffffffffffffffffffffffffffffffffffff16815260200190815260200160002060008473ffffffffffffffffffffffffffffffffffffffff1673ffffffffffffffffffffffffffffffffffffffff168152602001908152602001600020819055508173ffffffffffffffffffffffffffffffffffffffff168373ffffffffffffffffffffffffffffffffffffffff167f8c5be1e5ebec7d5bd14f71427d1e84f3dd0314c0f7b2291e5b200ac8c7c3b92583604051610d519190611b4c565b60405180910390a3505050565b6000610d6a84846109b7565b90507fffffffffffffffffffffffffffffffffffffffffffffffffffffffffffffffff8114610de45781811015610dd6576040517f08c379a0000000000000000000000000000000000000000000000000000000008152600401610dcd90611a2c565b60405180910390fd5b610de38484848403610b93565b5b50505050565b600073ffffffffffffffffffffffffffffffffffffffff168373ffffffffffffffffffffffffffffffffffffffff161415610e5a576040517f08c379a0000000000000000000000000000000000000000000000000000000008152600401610e5190611aac565b60405180910390fd5b600073ffffffffffffffffffffffffffffffffffffffff168273ffffffffffffffffffffffffffffffffffffffff161415610eca576040517f08c379a0000000000000000000000000000000000000000000000000000000008152600401610ec1906119cc565b60405180910390fd5b610ed583838361144c565b6000603360008573ffffffffffffffffffffffffffffffffffffffff1673ffffffffffffffffffffffffffffffffffffffff16815260200190815260200160002054905081811015610f5c576040517f08c379a0000000000000000000000000000000000000000000000000000000008152600401610f5390611a4c565b60405180910390fd5b818103603360008673ffffffffffffffffffffffffffffffffffffffff1673ffffffffffffffffffffffffffffffffffffffff1681526020019081526020016000208190555081603360008573ffffffffffffffffffffffffffffffffffffffff1673ffffffffffffffffffffffffffffffffffffffff1681526020019081526020016000206000828254610ff19190611bf4565b925050819055508273ffffffffffffffffffffffffffffffffffffffff168473ffffffffffffffffffffffffffffffffffffffff167fddf252ad1be2c89b69c2b068fc378daa952ba7f163c4a11628f55a4df523b3ef846040516110559190611b4c565b60405180910390a3611068848484611451565b50505050565b600073ffffffffffffffffffffffffffffffffffffffff168273ffffffffffffffffffffffffffffffffffffffff1614156110de576040517f08c379a00000000000000000000000000000000000000000000000000000000081526004016110d590611b2c565b60405180910390fd5b6110ea6000838361144c565b80603560008282546110fc9190611bf4565b9250508190555080603360008473ffffffffffffffffffffffffffffffffffffffff1673ffffffffffffffffffffffffffffffffffffffff16815260200190815260200160002060008282546111529190611bf4565b925050819055508173ffffffffffffffffffffffffffffffffffffffff16600073ffffffffffffffffffffffffffffffffffffffff167fddf252ad1be2c89b69c2b068fc378daa952ba7f163c4a11628f55a4df523b3ef836040516111b79190611b4c565b60405180910390a36111cb60008383611451565b5050565b600073ffffffffffffffffffffffffffffffffffffffff168273ffffffffffffffffffffffffffffffffffffffff16141561123f576040517f08c379a000000000000000000000000000000000000000000000000000000000815260040161123690611a8c565b60405180910390fd5b61124b8260008361144c565b6000603360008473ffffffffffffffffffffffffffffffffffffffff1673ffffffffffffffffffffffffffffffffffffffff168152602001908152602001600020549050818110156112d2576040517f08c379a00000000000000000000000000000000000000000000000000000000081526004016112c9906119ec565b60405180910390fd5b818103603360008573ffffffffffffffffffffffffffffffffffffffff1673ffffffffffffffffffffffffffffffffffffffff16815260200190815260200160002081905550816035600082825461132a9190611c4a565b92505081905550600073ffffffffffffffffffffffffffffffffffffffff168373ffffffffffffffffffffffffffffffffffffffff167fddf252ad1be2c89b69c2b068fc378daa952ba7f163c4a11628f55a4df523b3ef8460405161138f9190611b4c565b60405180910390a36113a383600084611451565b505050565b6000808273ffffffffffffffffffffffffffffffffffffffff163b119050919050565b600060019054906101000a900460ff1661141a576040517f08c379a000000000000000000000000000000000000000000000000000000000815260040161141190611aec565b60405180910390fd5b8160369080519060200190611430929190611456565b508060379080519060200190611447929190611456565b505050565b505050565b505050565b82805461146290611d27565b90600052602060002090601f01602090048101928261148457600085556114cb565b82601f1061149d57805160ff19168380011785556114cb565b828001600101855582156114cb579182015b828111156114ca5782518255916020019190600101906114af565b5b5090506114d891906114dc565b5090565b5b808211156114f55760008160009055506001016114dd565b5090565b600061150c61150784611ba7565b611b82565b90508281526020810184848401111561152457600080fd5b61152f848285611ce5565b509392505050565b60008135905061154681612190565b92915050565b600082601f83011261155d57600080fd5b813561156d8482602086016114f9565b91505092915050565b600081359050611585816121a7565b92915050565b60006020828403121561159d57600080fd5b60006115ab84828501611537565b91505092915050565b600080604083850312156115c757600080fd5b60006115d585828601611537565b92505060206115e685828601611537565b9150509250929050565b60008060006060848603121561160557600080fd5b600061161386828701611537565b935050602061162486828701611537565b925050604061163586828701611576565b9150509250925092565b6000806040838503121561165257600080fd5b600061166085828601611537565b925050602061167185828601611576565b9150509250929050565b60008060006060848603121561169057600080fd5b600084013567ffffffffffffffff8111156116aa57600080fd5b6116b68682870161154c565b935050602084013567ffffffffffffffff8111156116d357600080fd5b6116df8682870161154c565b92505060406116f086828701611537565b9150509250925092565b60006020828403121561170c57600080fd5b600061171a84828501611576565b91505092915050565b61172c81611c7e565b82525050565b61173b81611c90565b82525050565b61174a81611cd3565b82525050565b600061175b82611bd8565b6117658185611be3565b9350611775818560208601611cf4565b61177e81611e17565b840191505092915050565b6000611796602383611be3565b91506117a182611e28565b604082019050919050565b60006117b9602283611be3565b91506117c482611e77565b604082019050919050565b60006117dc602283611be3565b91506117e782611ec6565b604082019050919050565b60006117ff601d83611be3565b915061180a82611f15565b602082019050919050565b6000611822602683611be3565b915061182d82611f3e565b604082019050919050565b6000611845602e83611be3565b915061185082611f8d565b604082019050919050565b6000611868602183611be3565b915061187382611fdc565b604082019050919050565b600061188b602583611be3565b91506118968261202b565b604082019050919050565b60006118ae602483611be3565b91506118b98261207a565b604082019050919050565b60006118d1602b83611be3565b91506118dc826120c9565b604082019050919050565b60006118f4602583611be3565b91506118ff82612118565b604082019050919050565b6000611917601f83611be3565b915061192282612167565b602082019050919050565b61193681611cbc565b82525050565b61194581611cc6565b82525050565b60006040820190506119606000830185611723565b61196d602083018461192d565b9392505050565b60006020820190506119896000830184611732565b92915050565b60006020820190506119a46000830184611741565b92915050565b600060208201905081810360008301526119c48184611750565b905092915050565b600060208201905081810360008301526119e581611789565b9050919050565b60006020820190508181036000830152611a05816117ac565b9050919050565b60006020820190508181036000830152611a25816117cf565b9050919050565b60006020820190508181036000830152611a45816117f2565b9050919050565b60006020820190508181036000830152611a6581611815565b9050919050565b60006020820190508181036000830152611a8581611838565b9050919050565b60006020820190508181036000830152611aa58161185b565b9050919050565b60006020820190508181036000830152611ac58161187e565b9050919050565b60006020820190508181036000830152611ae5816118a1565b9050919050565b60006020820190508181036000830152611b05816118c4565b9050919050565b60006020820190508181036000830152611b25816118e7565b9050919050565b60006020820190508181036000830152611b458161190a565b9050919050565b6000602082019050611b61600083018461192d565b92915050565b6000602082019050611b7c600083018461193c565b92915050565b6000611b8c611b9d565b9050611b988282611d59565b919050565b6000604051905090565b600067ffffffffffffffff821115611bc257611bc1611de8565b5b611bcb82611e17565b9050602081019050919050565b600081519050919050565b600082825260208201905092915050565b6000611bff82611cbc565b9150611c0a83611cbc565b9250827fffffffffffffffffffffffffffffffffffffffffffffffffffffffffffffffff03821115611c3f57611c3e611d8a565b5b828201905092915050565b6000611c5582611cbc565b9150611c6083611cbc565b925082821015611c7357611c72611d8a565b5b828203905092915050565b6000611c8982611c9c565b9050919050565b60008115159050919050565b600073ffffffffffffffffffffffffffffffffffffffff82169050919050565b6000819050919050565b600060ff82169050919050565b6000611cde82611cc6565b9050919050565b82818337600083830152505050565b60005b83811015611d12578082015181840152602081019050611cf7565b83811115611d21576000848401525b50505050565b60006002820490506001821680611d3f57607f821691505b60208210811415611d5357611d52611db9565b5b50919050565b611d6282611e17565b810181811067ffffffffffffffff82111715611d8157611d80611de8565b5b80604052505050565b7f4e487b7100000000000000000000000000000000000000000000000000000000600052601160045260246000fd5b7f4e487b7100000000000000000000000000000000000000000000000000000000600052602260045260246000fd5b7f4e487b7100000000000000000000000000000000000000000000000000000000600052604160045260246000fd5b6000601f19601f8301169050919050565b7f45524332303a207472616e7366657220746f20746865207a65726f206164647260008201527f6573730000000000000000000000000000000000000000000000000000000000602082015250565b7f45524332303a206275726e20616d6f756e7420657863656564732062616c616e60008201527f6365000000000000000000000000000000000000000000000000000000000000602082015250565b7f45524332303a20617070726f766520746f20746865207a65726f20616464726560008201527f7373000000000000000000000000000000000000000000000000000000000000602082015250565b7f45524332303a20696e73756666696369656e7420616c6c6f77616e6365000000600082015250565b7f45524332303a207472616e7366657220616d6f756e742065786365656473206260008201527f616c616e63650000000000000000000000000000000000000000000000000000602082015250565b7f496e697469616c697a61626c653a20636f6e747261637420697320616c72656160008201527f647920696e697469616c697a6564000000000000000000000000000000000000602082015250565b7f45524332303a206275726e2066726f6d20746865207a65726f2061646472657360008201527f7300000000000000000000000000000000000000000000000000000000000000602082015250565b7f45524332303a207472616e736665722066726f6d20746865207a65726f20616460008201527f6472657373000000000000000000000000000000000000000000000000000000602082015250565b7f45524332303a20617070726f76652066726f6d20746865207a65726f2061646460008201527f7265737300000000000000000000000000000000000000000000000000000000602082015250565b7f496e697469616c697a61626c653a20636f6e7472616374206973206e6f74206960008201527f6e697469616c697a696e67000000000000000000000000000000000000000000602082015250565b7f45524332303a2064656372656173656420616c6c6f77616e63652062656c6f7760008201527f207a65726f000000000000000000000000000000000000000000000000000000602082015250565b7f45524332303a206d696e7420746f20746865207a65726f206164647265737300600082015250565b61219981611c7e565b81146121a457600080fd5b50565b6121b081611cbc565b81146121bb57600080fd5b5056fea264697066735822122077fc0fbb4a9ed3352bf34a4d1e157e313fba480ac424476d1fda05e41861536b64736f6c63430008040033",
  "linkReferences": {},
  "deployedLinkReferences": {}
}