{
  "_format": "hh-sol-artifact-1",
  "contractName": "FxPerpStatic",
  "sourceName": "contracts/Vaults/FxPerpStatic.sol",
  "abi": [
    {
      "inputs": [
        {
          "internalType": "string",
          "name": "_name",
          "type": "string"
        },
        {
          "internalType": "string",
          "name": "_symbol",
          "type": "string"
        },
        {
          "internalType": "address",
          "name": "_vaults",
          "type": "address"
        }
      ],
      "stateMutability": "nonpayable",
      "type": "constructor"
    },
    {
      "anonymous": false,
      "inputs": [
        {
          "indexed": true,
          "internalType": "address",
          "name": "owner",
          "type": "address"
        },
        {
          "indexed": true,
          "internalType": "address",
          "name": "spender",
          "type": "address"
        },
        {
          "indexed": false,
          "internalType": "uint256",
          "name": "value",
          "type": "uint256"
        }
      ],
      "name": "Approval",
      "type": "event"
    },
    {
      "anonymous": false,
      "inputs": [
        {
          "indexed": true,
          "internalType": "address",
          "name": "from",
          "type": "address"
        },
        {
          "indexed": true,
          "internalType": "address",
          "name": "to",
          "type": "address"
        },
        {
          "indexed": false,
          "internalType": "uint256",
          "name": "value",
          "type": "uint256"
        }
      ],
      "name": "Transfer",
      "type": "event"
    },
    {
      "inputs": [
        {
          "internalType": "address",
          "name": "owner",
          "type": "address"
        },
        {
          "internalType": "address",
          "name": "spender",
          "type": "address"
        }
      ],
      "name": "allowance",
      "outputs": [
        {
          "internalType": "uint256",
          "name": "",
          "type": "uint256"
        }
      ],
      "stateMutability": "view",
      "type": "function"
    },
    {
      "inputs": [
        {
          "internalType": "address",
          "name": "spender",
          "type": "address"
        },
        {
          "internalType": "uint256",
          "name": "amount",
          "type": "uint256"
        }
      ],
      "name": "approve",
      "outputs": [
        {
          "internalType": "bool",
          "name": "",
          "type": "bool"
        }
      ],
      "stateMutability": "nonpayable",
      "type": "function"
    },
    {
      "inputs": [
        {
          "internalType": "address",
          "name": "account",
          "type": "address"
        }
      ],
      "name": "balanceOf",
      "outputs": [
        {
          "internalType": "uint256",
          "name": "",
          "type": "uint256"
        }
      ],
      "stateMutability": "view",
      "type": "function"
    },
    {
      "inputs": [
        {
          "internalType": "address",
          "name": "_account",
          "type": "address"
        },
        {
          "internalType": "uint256",
          "name": "_amount",
          "type": "uint256"
        }
      ],
      "name": "burn",
      "outputs": [],
      "stateMutability": "nonpayable",
      "type": "function"
    },
    {
      "inputs": [],
      "name": "decimals",
      "outputs": [
        {
          "internalType": "uint8",
          "name": "",
          "type": "uint8"
        }
      ],
      "stateMutability": "view",
      "type": "function"
    },
    {
      "inputs": [
        {
          "internalType": "address",
          "name": "spender",
          "type": "address"
        },
        {
          "internalType": "uint256",
          "name": "subtractedValue",
          "type": "uint256"
        }
      ],
      "name": "decreaseAllowance",
      "outputs": [
        {
          "internalType": "bool",
          "name": "",
          "type": "bool"
        }
      ],
      "stateMutability": "nonpayable",
      "type": "function"
    },
    {
      "inputs": [
        {
          "internalType": "address",
          "name": "spender",
          "type": "address"
        },
        {
          "internalType": "uint256",
          "name": "addedValue",
          "type": "uint256"
        }
      ],
      "name": "increaseAllowance",
      "outputs": [
        {
          "internalType": "bool",
          "name": "",
          "type": "bool"
        }
      ],
      "stateMutability": "nonpayable",
      "type": "function"
    },
    {
      "inputs": [
        {
          "internalType": "address",
          "name": "_account",
          "type": "address"
        },
        {
          "internalType": "uint256",
          "name": "_amount",
          "type": "uint256"
        }
      ],
      "name": "mint",
      "outputs": [],
      "stateMutability": "nonpayable",
      "type": "function"
    },
    {
      "inputs": [],
      "name": "name",
      "outputs": [
        {
          "internalType": "string",
          "name": "",
          "type": "string"
        }
      ],
      "stateMutability": "view",
      "type": "function"
    },
    {
      "inputs": [
        {
          "internalType": "uint256",
          "name": "_staticAmount",
          "type": "uint256"
        }
      ],
      "name": "portToDynamic",
      "outputs": [],
      "stateMutability": "nonpayable",
      "type": "function"
    },
    {
      "inputs": [
        {
          "internalType": "address",
          "name": "_perpDynamic",
          "type": "address"
        }
      ],
      "name": "setDynamic",
      "outputs": [],
      "stateMutability": "nonpayable",
      "type": "function"
    },
    {
      "inputs": [],
      "name": "symbol",
      "outputs": [
        {
          "internalType": "string",
          "name": "",
          "type": "string"
        }
      ],
      "stateMutability": "view",
      "type": "function"
    },
    {
      "inputs": [],
      "name": "totalSupply",
      "outputs": [
        {
          "internalType": "uint256",
          "name": "",
          "type": "uint256"
        }
      ],
      "stateMutability": "view",
      "type": "function"
    },
    {
      "inputs": [
        {
          "internalType": "address",
          "name": "to",
          "type": "address"
        },
        {
          "internalType": "uint256",
          "name": "amount",
          "type": "uint256"
        }
      ],
      "name": "transfer",
      "outputs": [
        {
          "internalType": "bool",
          "name": "",
          "type": "bool"
        }
      ],
      "stateMutability": "nonpayable",
      "type": "function"
    },
    {
      "inputs": [
        {
          "internalType": "address",
          "name": "from",
          "type": "address"
        },
        {
          "internalType": "address",
          "name": "to",
          "type": "address"
        },
        {
          "internalType": "uint256",
          "name": "amount",
          "type": "uint256"
        }
      ],
      "name": "transferFrom",
      "outputs": [
        {
          "internalType": "bool",
          "name": "",
          "type": "bool"
        }
      ],
      "stateMutability": "nonpayable",
      "type": "function"
    }
  ],
  "bytecode": "0x60806040523480156200001157600080fd5b5060405162001f9138038062001f918339818101604052810190620000379190620001f0565b8282816003908051906020019062000051929190620000b7565b5080600490805190602001906200006a929190620000b7565b50505080600560006101000a81548173ffffffffffffffffffffffffffffffffffffffff021916908373ffffffffffffffffffffffffffffffffffffffff16021790555050505062000436565b828054620000c59062000341565b90600052602060002090601f016020900481019282620000e9576000855562000135565b82601f106200010457805160ff191683800117855562000135565b8280016001018555821562000135579182015b828111156200013457825182559160200191906001019062000117565b5b50905062000144919062000148565b5090565b5b808211156200016357600081600090555060010162000149565b5090565b60006200017e6200017884620002a1565b62000278565b9050828152602081018484840111156200019757600080fd5b620001a48482856200030b565b509392505050565b600081519050620001bd816200041c565b92915050565b600082601f830112620001d557600080fd5b8151620001e784826020860162000167565b91505092915050565b6000806000606084860312156200020657600080fd5b600084015167ffffffffffffffff8111156200022157600080fd5b6200022f86828701620001c3565b935050602084015167ffffffffffffffff8111156200024d57600080fd5b6200025b86828701620001c3565b92505060406200026e86828701620001ac565b9150509250925092565b60006200028462000297565b905062000292828262000377565b919050565b6000604051905090565b600067ffffffffffffffff821115620002bf57620002be620003dc565b5b620002ca826200040b565b9050602081019050919050565b6000620002e482620002eb565b9050919050565b600073ffffffffffffffffffffffffffffffffffffffff82169050919050565b60005b838110156200032b5780820151818401526020810190506200030e565b838111156200033b576000848401525b50505050565b600060028204905060018216806200035a57607f821691505b60208210811415620003715762000370620003ad565b5b50919050565b62000382826200040b565b810181811067ffffffffffffffff82111715620003a457620003a3620003dc565b5b80604052505050565b7f4e487b7100000000000000000000000000000000000000000000000000000000600052602260045260246000fd5b7f4e487b7100000000000000000000000000000000000000000000000000000000600052604160045260246000fd5b6000601f19601f8301169050919050565b6200042781620002d7565b81146200043357600080fd5b50565b611b4b80620004466000396000f3fe608060405234801561001057600080fd5b50600436106100f55760003560e01c806370a08231116100975780639dc29fac116100665780639dc29fac14610286578063a457c2d7146102a2578063a9059cbb146102d2578063dd62ed3e14610302576100f5565b806370a082311461020057806380d6aacd146102305780638b63c1581461024c57806395d89b4114610268576100f5565b806323b872dd116100d357806323b872dd14610166578063313ce5671461019657806339509351146101b457806340c10f19146101e4576100f5565b806306fdde03146100fa578063095ea7b31461011857806318160ddd14610148575b600080fd5b610102610332565b60405161010f91906114b6565b60405180910390f35b610132600480360381019061012d919061123a565b6103c4565b60405161013f919061149b565b60405180910390f35b6101506103e7565b60405161015d9190611618565b60405180910390f35b610180600480360381019061017b91906111eb565b6103f1565b60405161018d919061149b565b60405180910390f35b61019e610420565b6040516101ab9190611633565b60405180910390f35b6101ce60048036038101906101c9919061123a565b610429565b6040516101db919061149b565b60405180910390f35b6101fe60048036038101906101f9919061123a565b610460565b005b61021a60048036038101906102159190611186565b610520565b6040516102279190611618565b60405180910390f35b61024a60048036038101906102459190611276565b610568565b005b61026660048036038101906102619190611186565b61064f565b005b6102706106c8565b60405161027d91906114b6565b60405180910390f35b6102a0600480360381019061029b919061123a565b61075a565b005b6102bc60048036038101906102b7919061123a565b61081a565b6040516102c9919061149b565b60405180910390f35b6102ec60048036038101906102e7919061123a565b610891565b6040516102f9919061149b565b60405180910390f35b61031c600480360381019061031791906111af565b6108b4565b6040516103299190611618565b60405180910390f35b6060600380546103419061177c565b80601f016020809104026020016040519081016040528092919081815260200182805461036d9061177c565b80156103ba5780601f1061038f576101008083540402835291602001916103ba565b820191906000526020600020905b81548152906001019060200180831161039d57829003601f168201915b5050505050905090565b6000806103cf61093b565b90506103dc818585610943565b600191505092915050565b6000600254905090565b6000806103fc61093b565b9050610409858285610b0e565b610414858585610b9a565b60019150509392505050565b60006012905090565b60008061043461093b565b905061045581858561044685896108b4565b610450919061166a565b610943565b600191505092915050565b600560009054906101000a900473ffffffffffffffffffffffffffffffffffffffff1673ffffffffffffffffffffffffffffffffffffffff163373ffffffffffffffffffffffffffffffffffffffff1614806105095750600660009054906101000a900473ffffffffffffffffffffffffffffffffffffffff1673ffffffffffffffffffffffffffffffffffffffff163373ffffffffffffffffffffffffffffffffffffffff16145b61051257600080fd5b61051c8282610e1b565b5050565b60008060008373ffffffffffffffffffffffffffffffffffffffff1673ffffffffffffffffffffffffffffffffffffffff168152602001908152602001600020549050919050565b806000803373ffffffffffffffffffffffffffffffffffffffff1673ffffffffffffffffffffffffffffffffffffffff1681526020019081526020016000205410156105b357600080fd5b6105bd3382610f7b565b600660009054906101000a900473ffffffffffffffffffffffffffffffffffffffff1673ffffffffffffffffffffffffffffffffffffffff166340c10f1933836040518363ffffffff1660e01b815260040161061a929190611472565b600060405180830381600087803b15801561063457600080fd5b505af1158015610648573d6000803e3d6000fd5b5050505050565b600660149054906101000a900460ff161561066957600080fd5b80600660006101000a81548173ffffffffffffffffffffffffffffffffffffffff021916908373ffffffffffffffffffffffffffffffffffffffff1602179055506001600660146101000a81548160ff02191690831515021790555050565b6060600480546106d79061177c565b80601f01602080910402602001604051908101604052809291908181526020018280546107039061177c565b80156107505780601f1061072557610100808354040283529160200191610750565b820191906000526020600020905b81548152906001019060200180831161073357829003601f168201915b5050505050905090565b600560009054906101000a900473ffffffffffffffffffffffffffffffffffffffff1673ffffffffffffffffffffffffffffffffffffffff163373ffffffffffffffffffffffffffffffffffffffff1614806108035750600660009054906101000a900473ffffffffffffffffffffffffffffffffffffffff1673ffffffffffffffffffffffffffffffffffffffff163373ffffffffffffffffffffffffffffffffffffffff16145b61080c57600080fd5b6108168282610f7b565b5050565b60008061082561093b565b9050600061083382866108b4565b905083811015610878576040517f08c379a000000000000000000000000000000000000000000000000000000000815260040161086f906115d8565b60405180910390fd5b6108858286868403610943565b60019250505092915050565b60008061089c61093b565b90506108a9818585610b9a565b600191505092915050565b6000600160008473ffffffffffffffffffffffffffffffffffffffff1673ffffffffffffffffffffffffffffffffffffffff16815260200190815260200160002060008373ffffffffffffffffffffffffffffffffffffffff1673ffffffffffffffffffffffffffffffffffffffff16815260200190815260200160002054905092915050565b600033905090565b600073ffffffffffffffffffffffffffffffffffffffff168373ffffffffffffffffffffffffffffffffffffffff1614156109b3576040517f08c379a00000000000000000000000000000000000000000000000000000000081526004016109aa906115b8565b60405180910390fd5b600073ffffffffffffffffffffffffffffffffffffffff168273ffffffffffffffffffffffffffffffffffffffff161415610a23576040517f08c379a0000000000000000000000000000000000000000000000000000000008152600401610a1a90611518565b60405180910390fd5b80600160008573ffffffffffffffffffffffffffffffffffffffff1673ffffffffffffffffffffffffffffffffffffffff16815260200190815260200160002060008473ffffffffffffffffffffffffffffffffffffffff1673ffffffffffffffffffffffffffffffffffffffff168152602001908152602001600020819055508173ffffffffffffffffffffffffffffffffffffffff168373ffffffffffffffffffffffffffffffffffffffff167f8c5be1e5ebec7d5bd14f71427d1e84f3dd0314c0f7b2291e5b200ac8c7c3b92583604051610b019190611618565b60405180910390a3505050565b6000610b1a84846108b4565b90507fffffffffffffffffffffffffffffffffffffffffffffffffffffffffffffffff8114610b945781811015610b86576040517f08c379a0000000000000000000000000000000000000000000000000000000008152600401610b7d90611538565b60405180910390fd5b610b938484848403610943565b5b50505050565b600073ffffffffffffffffffffffffffffffffffffffff168373ffffffffffffffffffffffffffffffffffffffff161415610c0a576040517f08c379a0000000000000000000000000000000000000000000000000000000008152600401610c0190611598565b60405180910390fd5b600073ffffffffffffffffffffffffffffffffffffffff168273ffffffffffffffffffffffffffffffffffffffff161415610c7a576040517f08c379a0000000000000000000000000000000000000000000000000000000008152600401610c71906114d8565b60405180910390fd5b610c85838383611152565b60008060008573ffffffffffffffffffffffffffffffffffffffff1673ffffffffffffffffffffffffffffffffffffffff16815260200190815260200160002054905081811015610d0b576040517f08c379a0000000000000000000000000000000000000000000000000000000008152600401610d0290611558565b60405180910390fd5b8181036000808673ffffffffffffffffffffffffffffffffffffffff1673ffffffffffffffffffffffffffffffffffffffff16815260200190815260200160002081905550816000808573ffffffffffffffffffffffffffffffffffffffff1673ffffffffffffffffffffffffffffffffffffffff1681526020019081526020016000206000828254610d9e919061166a565b925050819055508273ffffffffffffffffffffffffffffffffffffffff168473ffffffffffffffffffffffffffffffffffffffff167fddf252ad1be2c89b69c2b068fc378daa952ba7f163c4a11628f55a4df523b3ef84604051610e029190611618565b60405180910390a3610e15848484611157565b50505050565b600073ffffffffffffffffffffffffffffffffffffffff168273ffffffffffffffffffffffffffffffffffffffff161415610e8b576040517f08c379a0000000000000000000000000000000000000000000000000000000008152600401610e82906115f8565b60405180910390fd5b610e9760008383611152565b8060026000828254610ea9919061166a565b92505081905550806000808473ffffffffffffffffffffffffffffffffffffffff1673ffffffffffffffffffffffffffffffffffffffff1681526020019081526020016000206000828254610efe919061166a565b925050819055508173ffffffffffffffffffffffffffffffffffffffff16600073ffffffffffffffffffffffffffffffffffffffff167fddf252ad1be2c89b69c2b068fc378daa952ba7f163c4a11628f55a4df523b3ef83604051610f639190611618565b60405180910390a3610f7760008383611157565b5050565b600073ffffffffffffffffffffffffffffffffffffffff168273ffffffffffffffffffffffffffffffffffffffff161415610feb576040517f08c379a0000000000000000000000000000000000000000000000000000000008152600401610fe290611578565b60405180910390fd5b610ff782600083611152565b60008060008473ffffffffffffffffffffffffffffffffffffffff1673ffffffffffffffffffffffffffffffffffffffff1681526020019081526020016000205490508181101561107d576040517f08c379a0000000000000000000000000000000000000000000000000000000008152600401611074906114f8565b60405180910390fd5b8181036000808573ffffffffffffffffffffffffffffffffffffffff1673ffffffffffffffffffffffffffffffffffffffff1681526020019081526020016000208190555081600260008282546110d491906116c0565b92505081905550600073ffffffffffffffffffffffffffffffffffffffff168373ffffffffffffffffffffffffffffffffffffffff167fddf252ad1be2c89b69c2b068fc378daa952ba7f163c4a11628f55a4df523b3ef846040516111399190611618565b60405180910390a361114d83600084611157565b505050565b505050565b505050565b60008135905061116b81611ae7565b92915050565b60008135905061118081611afe565b92915050565b60006020828403121561119857600080fd5b60006111a68482850161115c565b91505092915050565b600080604083850312156111c257600080fd5b60006111d08582860161115c565b92505060206111e18582860161115c565b9150509250929050565b60008060006060848603121561120057600080fd5b600061120e8682870161115c565b935050602061121f8682870161115c565b925050604061123086828701611171565b9150509250925092565b6000806040838503121561124d57600080fd5b600061125b8582860161115c565b925050602061126c85828601611171565b9150509250929050565b60006020828403121561128857600080fd5b600061129684828501611171565b91505092915050565b6112a8816116f4565b82525050565b6112b781611706565b82525050565b60006112c88261164e565b6112d28185611659565b93506112e2818560208601611749565b6112eb8161180c565b840191505092915050565b6000611303602383611659565b915061130e8261181d565b604082019050919050565b6000611326602283611659565b91506113318261186c565b604082019050919050565b6000611349602283611659565b9150611354826118bb565b604082019050919050565b600061136c601d83611659565b91506113778261190a565b602082019050919050565b600061138f602683611659565b915061139a82611933565b604082019050919050565b60006113b2602183611659565b91506113bd82611982565b604082019050919050565b60006113d5602583611659565b91506113e0826119d1565b604082019050919050565b60006113f8602483611659565b915061140382611a20565b604082019050919050565b600061141b602583611659565b915061142682611a6f565b604082019050919050565b600061143e601f83611659565b915061144982611abe565b602082019050919050565b61145d81611732565b82525050565b61146c8161173c565b82525050565b6000604082019050611487600083018561129f565b6114946020830184611454565b9392505050565b60006020820190506114b060008301846112ae565b92915050565b600060208201905081810360008301526114d081846112bd565b905092915050565b600060208201905081810360008301526114f1816112f6565b9050919050565b6000602082019050818103600083015261151181611319565b9050919050565b600060208201905081810360008301526115318161133c565b9050919050565b600060208201905081810360008301526115518161135f565b9050919050565b6000602082019050818103600083015261157181611382565b9050919050565b60006020820190508181036000830152611591816113a5565b9050919050565b600060208201905081810360008301526115b1816113c8565b9050919050565b600060208201905081810360008301526115d1816113eb565b9050919050565b600060208201905081810360008301526115f18161140e565b9050919050565b6000602082019050818103600083015261161181611431565b9050919050565b600060208201905061162d6000830184611454565b92915050565b60006020820190506116486000830184611463565b92915050565b600081519050919050565b600082825260208201905092915050565b600061167582611732565b915061168083611732565b9250827fffffffffffffffffffffffffffffffffffffffffffffffffffffffffffffffff038211156116b5576116b46117ae565b5b828201905092915050565b60006116cb82611732565b91506116d683611732565b9250828210156116e9576116e86117ae565b5b828203905092915050565b60006116ff82611712565b9050919050565b60008115159050919050565b600073ffffffffffffffffffffffffffffffffffffffff82169050919050565b6000819050919050565b600060ff82169050919050565b60005b8381101561176757808201518184015260208101905061174c565b83811115611776576000848401525b50505050565b6000600282049050600182168061179457607f821691505b602082108114156117a8576117a76117dd565b5b50919050565b7f4e487b7100000000000000000000000000000000000000000000000000000000600052601160045260246000fd5b7f4e487b7100000000000000000000000000000000000000000000000000000000600052602260045260246000fd5b6000601f19601f8301169050919050565b7f45524332303a207472616e7366657220746f20746865207a65726f206164647260008201527f6573730000000000000000000000000000000000000000000000000000000000602082015250565b7f45524332303a206275726e20616d6f756e7420657863656564732062616c616e60008201527f6365000000000000000000000000000000000000000000000000000000000000602082015250565b7f45524332303a20617070726f766520746f20746865207a65726f20616464726560008201527f7373000000000000000000000000000000000000000000000000000000000000602082015250565b7f45524332303a20696e73756666696369656e7420616c6c6f77616e6365000000600082015250565b7f45524332303a207472616e7366657220616d6f756e742065786365656473206260008201527f616c616e63650000000000000000000000000000000000000000000000000000602082015250565b7f45524332303a206275726e2066726f6d20746865207a65726f2061646472657360008201527f7300000000000000000000000000000000000000000000000000000000000000602082015250565b7f45524332303a207472616e736665722066726f6d20746865207a65726f20616460008201527f6472657373000000000000000000000000000000000000000000000000000000602082015250565b7f45524332303a20617070726f76652066726f6d20746865207a65726f2061646460008201527f7265737300000000000000000000000000000000000000000000000000000000602082015250565b7f45524332303a2064656372656173656420616c6c6f77616e63652062656c6f7760008201527f207a65726f000000000000000000000000000000000000000000000000000000602082015250565b7f45524332303a206d696e7420746f20746865207a65726f206164647265737300600082015250565b611af0816116f4565b8114611afb57600080fd5b50565b611b0781611732565b8114611b1257600080fd5b5056fea26469706673582212208ab37979e118c93621df624a95a499fe8263aebc37de0ee63fd33eaee2fbedc564736f6c63430008040033",
  "linkReferences": {},
  "deployedLinkReferences": {}
}