{
  "_format": "hh-sol-artifact-1",
  "contractName": "RateOracle",
  "sourceName": "contracts/RateOracle.sol",
  "abi": [
    {
      "anonymous": false,
      "inputs": [
        {
          "indexed": false,
          "internalType": "uint8",
          "name": "version",
          "type": "uint8"
        }
      ],
      "name": "Initialized",
      "type": "event"
    },
    {
      "anonymous": false,
      "inputs": [
        {
          "indexed": true,
          "internalType": "address",
          "name": "previousOwner",
          "type": "address"
        },
        {
          "indexed": true,
          "internalType": "address",
          "name": "newOwner",
          "type": "address"
        }
      ],
      "name": "OwnershipTransferred",
      "type": "event"
    },
    {
      "inputs": [
        {
          "internalType": "bytes32",
          "name": "_priceFeedKey",
          "type": "bytes32"
        },
        {
          "internalType": "address",
          "name": "_aggregator",
          "type": "address"
        }
      ],
      "name": "addAggregator",
      "outputs": [],
      "stateMutability": "nonpayable",
      "type": "function"
    },
    {
      "inputs": [],
      "name": "candidate",
      "outputs": [
        {
          "internalType": "address",
          "name": "",
          "type": "address"
        }
      ],
      "stateMutability": "view",
      "type": "function"
    },
    {
      "inputs": [
        {
          "internalType": "bytes32",
          "name": "_priceFeedKey",
          "type": "bytes32"
        }
      ],
      "name": "getAggregator",
      "outputs": [
        {
          "internalType": "contract AggregatorV3Interface",
          "name": "",
          "type": "address"
        }
      ],
      "stateMutability": "view",
      "type": "function"
    },
    {
      "inputs": [
        {
          "internalType": "bytes32",
          "name": "_priceFeedKey",
          "type": "bytes32"
        }
      ],
      "name": "getLatestTimestamp",
      "outputs": [
        {
          "internalType": "uint256",
          "name": "",
          "type": "uint256"
        }
      ],
      "stateMutability": "view",
      "type": "function"
    },
    {
      "inputs": [
        {
          "internalType": "bytes32",
          "name": "_priceFeedKey",
          "type": "bytes32"
        },
        {
          "internalType": "uint256",
          "name": "_numOfRoundBack",
          "type": "uint256"
        }
      ],
      "name": "getPreviousPrice",
      "outputs": [
        {
          "internalType": "uint256",
          "name": "",
          "type": "uint256"
        }
      ],
      "stateMutability": "view",
      "type": "function"
    },
    {
      "inputs": [
        {
          "internalType": "bytes32",
          "name": "_priceFeedKey",
          "type": "bytes32"
        },
        {
          "internalType": "uint256",
          "name": "_numOfRoundBack",
          "type": "uint256"
        }
      ],
      "name": "getPreviousTimestamp",
      "outputs": [
        {
          "internalType": "uint256",
          "name": "",
          "type": "uint256"
        }
      ],
      "stateMutability": "view",
      "type": "function"
    },
    {
      "inputs": [
        {
          "internalType": "bytes32",
          "name": "_priceFeedKey",
          "type": "bytes32"
        }
      ],
      "name": "getPrice",
      "outputs": [
        {
          "internalType": "uint256",
          "name": "",
          "type": "uint256"
        }
      ],
      "stateMutability": "view",
      "type": "function"
    },
    {
      "inputs": [
        {
          "internalType": "bytes32",
          "name": "_priceFeedKey",
          "type": "bytes32"
        },
        {
          "internalType": "uint256",
          "name": "_interval",
          "type": "uint256"
        }
      ],
      "name": "getTwapPrice",
      "outputs": [
        {
          "internalType": "uint256",
          "name": "",
          "type": "uint256"
        }
      ],
      "stateMutability": "view",
      "type": "function"
    },
    {
      "inputs": [],
      "name": "initialize",
      "outputs": [],
      "stateMutability": "nonpayable",
      "type": "function"
    },
    {
      "inputs": [],
      "name": "owner",
      "outputs": [
        {
          "internalType": "address",
          "name": "",
          "type": "address"
        }
      ],
      "stateMutability": "view",
      "type": "function"
    },
    {
      "inputs": [
        {
          "internalType": "bytes32",
          "name": "",
          "type": "bytes32"
        }
      ],
      "name": "priceFeedDecimalMap",
      "outputs": [
        {
          "internalType": "uint8",
          "name": "",
          "type": "uint8"
        }
      ],
      "stateMutability": "view",
      "type": "function"
    },
    {
      "inputs": [
        {
          "internalType": "uint256",
          "name": "",
          "type": "uint256"
        }
      ],
      "name": "priceFeedKeys",
      "outputs": [
        {
          "internalType": "bytes32",
          "name": "",
          "type": "bytes32"
        }
      ],
      "stateMutability": "view",
      "type": "function"
    },
    {
      "inputs": [
        {
          "internalType": "bytes32",
          "name": "",
          "type": "bytes32"
        }
      ],
      "name": "priceFeedMap",
      "outputs": [
        {
          "internalType": "contract AggregatorV3Interface",
          "name": "",
          "type": "address"
        }
      ],
      "stateMutability": "view",
      "type": "function"
    },
    {
      "inputs": [
        {
          "internalType": "bytes32",
          "name": "_priceFeedKey",
          "type": "bytes32"
        }
      ],
      "name": "removeAggregator",
      "outputs": [],
      "stateMutability": "nonpayable",
      "type": "function"
    },
    {
      "inputs": [],
      "name": "renounceOwnership",
      "outputs": [],
      "stateMutability": "nonpayable",
      "type": "function"
    },
    {
      "inputs": [
        {
          "internalType": "bytes32",
          "name": "_priceFeedKey",
          "type": "bytes32"
        },
        {
          "internalType": "uint256",
          "name": "_price",
          "type": "uint256"
        },
        {
          "internalType": "uint256",
          "name": "_timestamp",
          "type": "uint256"
        },
        {
          "internalType": "uint256",
          "name": "_roundId",
          "type": "uint256"
        }
      ],
      "name": "setLatestData",
      "outputs": [],
      "stateMutability": "nonpayable",
      "type": "function"
    },
    {
      "inputs": [
        {
          "internalType": "address",
          "name": "newOwner",
          "type": "address"
        }
      ],
      "name": "setOwner",
      "outputs": [],
      "stateMutability": "nonpayable",
      "type": "function"
    },
    {
      "inputs": [],
      "name": "updateOwner",
      "outputs": [],
      "stateMutability": "nonpayable",
      "type": "function"
    }
  ],
  "bytecode": "0x608060405234801561001057600080fd5b50612d41806100206000396000f3fe608060405234801561001057600080fd5b50600436106101165760003560e01c80636c8381f8116100a25780638129fc1c116100715780638129fc1c146103035780638da5cb5b1461030d578063914b14c51461032b578063a2173df41461035b578063bc5920ba1461038b57610116565b80636c8381f81461027b5780636d4b858514610299578063715018a6146102c95780637ad22632146102d357610116565b80632bed9e0c116100e95780632bed9e0c146101b357806331d98b3f146101cf578063331b1816146101ff5780633f0e084f1461022f57806359bb180e1461024b57610116565b8063031d64bd1461011b57806313af403514610137578063250742cc146101535780632a0ab1dd14610183575b600080fd5b61013560048036038101906101309190611f5b565b610395565b005b610151600480360381019061014c9190611e91565b6103d0565b005b61016d60048036038101906101689190611eba565b61063d565b60405161017a91906122ed565b60405180910390f35b61019d60048036038101906101989190611fbe565b610670565b6040516101aa91906122d2565b60405180910390f35b6101cd60048036038101906101c89190611eba565b610694565b005b6101e960048036038101906101e49190611eba565b61090e565b6040516101f691906124c3565b60405180910390f35b61021960048036038101906102149190611eba565b610967565b60405161022691906122ed565b60405180910390f35b61024960048036038101906102449190611ee3565b6109a4565b005b61026560048036038101906102609190611f1f565b610bd5565b60405161027291906124c3565b60405180910390f35b610283610d8d565b60405161029091906122b7565b60405180910390f35b6102b360048036038101906102ae9190611eba565b610db7565b6040516102c091906124f9565b60405180910390f35b6102d1610dd7565b005b6102ed60048036038101906102e89190611eba565b610f2f565b6040516102fa91906124c3565b60405180910390f35b61030b610f5f565b005b610315610ff3565b60405161032291906122b7565b60405180910390f35b61034560048036038101906103409190611f1f565b61101d565b60405161035291906124c3565b60405180910390f35b61037560048036038101906103709190611f1f565b6111fb565b60405161038291906124c3565b60405180910390f35b61039361145a565b005b6040517f08c379a00000000000000000000000000000000000000000000000000000000081526004016103c790612343565b60405180910390fd5b6103d86116c8565b73ffffffffffffffffffffffffffffffffffffffff16603360009054906101000a900473ffffffffffffffffffffffffffffffffffffffff1673ffffffffffffffffffffffffffffffffffffffff1614610467576040517f08c379a000000000000000000000000000000000000000000000000000000000815260040161045e90612443565b60405180910390fd5b600073ffffffffffffffffffffffffffffffffffffffff168173ffffffffffffffffffffffffffffffffffffffff1614156104d7576040517f08c379a00000000000000000000000000000000000000000000000000000000081526004016104ce906123e3565b60405180910390fd5b603360009054906101000a900473ffffffffffffffffffffffffffffffffffffffff1673ffffffffffffffffffffffffffffffffffffffff168173ffffffffffffffffffffffffffffffffffffffff161415610568576040517f08c379a000000000000000000000000000000000000000000000000000000000815260040161055f906124a3565b60405180910390fd5b603460009054906101000a900473ffffffffffffffffffffffffffffffffffffffff1673ffffffffffffffffffffffffffffffffffffffff168173ffffffffffffffffffffffffffffffffffffffff1614156105f9576040517f08c379a00000000000000000000000000000000000000000000000000000000081526004016105f090612363565b60405180910390fd5b80603460006101000a81548173ffffffffffffffffffffffffffffffffffffffff021916908373ffffffffffffffffffffffffffffffffffffffff16021790555050565b60996020528060005260406000206000915054906101000a900473ffffffffffffffffffffffffffffffffffffffff1681565b609a818154811061068057600080fd5b906000526020600020016000915090505481565b61069c6116c8565b73ffffffffffffffffffffffffffffffffffffffff16603360009054906101000a900473ffffffffffffffffffffffffffffffffffffffff1673ffffffffffffffffffffffffffffffffffffffff161461072b576040517f08c379a000000000000000000000000000000000000000000000000000000000815260040161072290612443565b60405180910390fd5b61073c61073782610967565b6116d0565b6099600082815260200190815260200160002060006101000a81549073ffffffffffffffffffffffffffffffffffffffff0219169055609b600082815260200190815260200160002060006101000a81549060ff02191690556000609a80549050905060005b818110156109095782609a82815481106107e5577f4e487b7100000000000000000000000000000000000000000000000000000000600052603260045260246000fd5b906000526020600020015414156108f6576001826108039190612777565b81146108a357609a6001836108189190612777565b8154811061084f577f4e487b7100000000000000000000000000000000000000000000000000000000600052603260045260246000fd5b9060005260206000200154609a8281548110610894577f4e487b7100000000000000000000000000000000000000000000000000000000600052603260045260246000fd5b90600052602060002001819055505b609a8054806108db577f4e487b7100000000000000000000000000000000000000000000000000000000600052603160045260246000fd5b60019003818190600052602060002001600090559055610909565b808061090190612888565b9150506107a2565b505050565b60008061091a83610967565b9050610925816116d0565b600061093082611743565b5091505061095e81609b600087815260200190815260200160002060009054906101000a900460ff1661181d565b92505050919050565b60006099600083815260200190815260200160002060009054906101000a900473ffffffffffffffffffffffffffffffffffffffff169050919050565b6109ac6116c8565b73ffffffffffffffffffffffffffffffffffffffff16603360009054906101000a900473ffffffffffffffffffffffffffffffffffffffff1673ffffffffffffffffffffffffffffffffffffffff1614610a3b576040517f08c379a0000000000000000000000000000000000000000000000000000000008152600401610a3290612443565b60405180910390fd5b610a44816116d0565b600073ffffffffffffffffffffffffffffffffffffffff166099600084815260200190815260200160002060009054906101000a900473ffffffffffffffffffffffffffffffffffffffff1673ffffffffffffffffffffffffffffffffffffffff161415610ad657609a8290806001815401808255809150506001900390600052602060002001600090919091909150555b806099600084815260200190815260200160002060006101000a81548173ffffffffffffffffffffffffffffffffffffffff021916908373ffffffffffffffffffffffffffffffffffffffff1602179055508073ffffffffffffffffffffffffffffffffffffffff1663313ce5676040518163ffffffff1660e01b815260040160206040518083038186803b158015610b6e57600080fd5b505afa158015610b82573d6000803e3d6000fd5b505050506040513d601f19601f82011682018060405250810190610ba6919061205e565b609b600084815260200190815260200160002060006101000a81548160ff021916908360ff1602179055505050565b600080610be184610967565b9050610bec816116d0565b60008173ffffffffffffffffffffffffffffffffffffffff1663feaf968c6040518163ffffffff1660e01b815260040160a06040518083038186803b158015610c3457600080fd5b505afa158015610c48573d6000803e3d6000fd5b505050506040513d601f19601f82011682018060405250810190610c6c9190611fe7565b50505050905060008169ffffffffffffffffffff16118015610c9a5750838169ffffffffffffffffffff1610155b610cd9576040517f08c379a0000000000000000000000000000000000000000000000000000000008152600401610cd090612463565b60405180910390fd5b6000808373ffffffffffffffffffffffffffffffffffffffff16639a6fc8f58785610d0491906127ab565b6040518263ffffffff1660e01b8152600401610d2091906124de565b60a06040518083038186803b158015610d3857600080fd5b505afa158015610d4c573d6000803e3d6000fd5b505050506040513d601f19601f82011682018060405250810190610d709190611fe7565b50935050925050610d8082611863565b8094505050505092915050565b6000603460009054906101000a900473ffffffffffffffffffffffffffffffffffffffff16905090565b609b6020528060005260406000206000915054906101000a900460ff1681565b610ddf6116c8565b73ffffffffffffffffffffffffffffffffffffffff16603360009054906101000a900473ffffffffffffffffffffffffffffffffffffffff1673ffffffffffffffffffffffffffffffffffffffff1614610e6e576040517f08c379a0000000000000000000000000000000000000000000000000000000008152600401610e6590612443565b60405180910390fd5b600073ffffffffffffffffffffffffffffffffffffffff16603360009054906101000a900473ffffffffffffffffffffffffffffffffffffffff1673ffffffffffffffffffffffffffffffffffffffff167f8be0079c531659141344cd1fd0a4f28419497f9722a3daafe3b4186f6b6457e060405160405180910390a36000603360006101000a81548173ffffffffffffffffffffffffffffffffffffffff021916908373ffffffffffffffffffffffffffffffffffffffff160217905550565b600080610f3b83610967565b9050610f46816116d0565b6000610f5182611743565b925050508092505050919050565b6000610f6b60016118a9565b90508015610f8f576001600060016101000a81548160ff0219169083151502179055505b610f97611999565b8015610ff05760008060016101000a81548160ff0219169083151502179055507f7f26b83ff96e1f2b6a682f133852f6798a09c465da95921460cefb38474024986001604051610fe79190612308565b60405180910390a15b50565b6000603360009054906101000a900473ffffffffffffffffffffffffffffffffffffffff16905090565b60008061102984610967565b9050611034816116d0565b60008173ffffffffffffffffffffffffffffffffffffffff1663feaf968c6040518163ffffffff1660e01b815260040160a06040518083038186803b15801561107c57600080fd5b505afa158015611090573d6000803e3d6000fd5b505050506040513d601f19601f820116820180604052508101906110b49190611fe7565b50505050905060008169ffffffffffffffffffff161180156110e25750838169ffffffffffffffffffff1610155b611121576040517f08c379a000000000000000000000000000000000000000000000000000000000815260040161111890612463565b60405180910390fd5b60008273ffffffffffffffffffffffffffffffffffffffff16639a6fc8f5868461114b91906127ab565b6040518263ffffffff1660e01b815260040161116791906124de565b60a06040518083038186803b15801561117f57600080fd5b505afa158015611193573d6000803e3d6000fd5b505050506040513d601f19601f820116820180604052508101906111b79190611fe7565b5050509150506111c681611863565b6111f081609b600089815260200190815260200160002060009054906101000a900460ff1661181d565b935050505092915050565b60008061120784610967565b9050611212816116d0565b6000831415611256576040517f08c379a000000000000000000000000000000000000000000000000000000000815260040161124d90612483565b60405180910390fd5b6000609b600086815260200190815260200160002060009054906101000a900460ff169050600080600061128985611743565b92509250925060006112ab8861129d611a35565b611a3d90919063ffffffff16565b9050808210806112c7575060008469ffffffffffffffffffff16145b156112e3576112d6838661181d565b9650505050505050611454565b60008290506000611304826112f6611a35565b611a3d90919063ffffffff16565b9050600061131b8287611a5390919063ffffffff16565b90505b60011561142c5760008769ffffffffffffffffffff161415611366576113566113508383611a6990919063ffffffff16565b8961181d565b9950505050505050505050611454565b60018761137391906127ab565b96506000806113828b8a611a7f565b92509250508581116113ce576113c56113b66113a78888611a3d90919063ffffffff16565b84611a5390919063ffffffff16565b84611bed90919063ffffffff16565b9250505061142c565b60006113e38287611a3d90919063ffffffff16565b905061140a6113fb8285611a5390919063ffffffff16565b85611bed90919063ffffffff16565b935061141f8186611bed90919063ffffffff16565b945081955050505061131e565b6114486114428c83611a6990919063ffffffff16565b8961181d565b99505050505050505050505b92915050565b600073ffffffffffffffffffffffffffffffffffffffff16603460009054906101000a900473ffffffffffffffffffffffffffffffffffffffff1673ffffffffffffffffffffffffffffffffffffffff1614156114ec576040517f08c379a00000000000000000000000000000000000000000000000000000000081526004016114e390612423565b60405180910390fd5b6114f46116c8565b73ffffffffffffffffffffffffffffffffffffffff16603460009054906101000a900473ffffffffffffffffffffffffffffffffffffffff1673ffffffffffffffffffffffffffffffffffffffff1614611583576040517f08c379a000000000000000000000000000000000000000000000000000000000815260040161157a90612383565b60405180910390fd5b603460009054906101000a900473ffffffffffffffffffffffffffffffffffffffff1673ffffffffffffffffffffffffffffffffffffffff16603360009054906101000a900473ffffffffffffffffffffffffffffffffffffffff1673ffffffffffffffffffffffffffffffffffffffff167f8be0079c531659141344cd1fd0a4f28419497f9722a3daafe3b4186f6b6457e060405160405180910390a3603460009054906101000a900473ffffffffffffffffffffffffffffffffffffffff16603360006101000a81548173ffffffffffffffffffffffffffffffffffffffff021916908373ffffffffffffffffffffffffffffffffffffffff1602179055506000603460006101000a81548173ffffffffffffffffffffffffffffffffffffffff021916908373ffffffffffffffffffffffffffffffffffffffff160217905550565b600033905090565b600073ffffffffffffffffffffffffffffffffffffffff168173ffffffffffffffffffffffffffffffffffffffff161415611740576040517f08c379a0000000000000000000000000000000000000000000000000000000008152600401611737906123a3565b60405180910390fd5b50565b6000806000806000808673ffffffffffffffffffffffffffffffffffffffff1663feaf968c6040518163ffffffff1660e01b815260040160a06040518083038186803b15801561179257600080fd5b505afa1580156117a6573d6000803e3d6000fd5b505050506040513d601f19601f820116820180604052508101906117ca9190611fe7565b5093505092509250819450600082121561180a576117e783611c03565b6117fd876001856117f891906127ab565b611a7f565b8093508197508295505050505b8285829550955095505050509193909250565b600061185b8260ff16600a61183291906125ff565b61184d670de0b6b3a764000086611a5390919063ffffffff16565b611a6990919063ffffffff16565b905092915050565b600081136118a6576040517f08c379a000000000000000000000000000000000000000000000000000000000815260040161189d90612323565b60405180910390fd5b50565b60008060019054906101000a900460ff16156119205760018260ff161480156118d857506118d630611c55565b155b611917576040517f08c379a000000000000000000000000000000000000000000000000000000000815260040161190e906123c3565b60405180910390fd5b60009050611994565b8160ff1660008054906101000a900460ff1660ff1610611975576040517f08c379a000000000000000000000000000000000000000000000000000000000815260040161196c906123c3565b60405180910390fd5b816000806101000a81548160ff021916908360ff160217905550600190505b919050565b60006119a560016118a9565b905080156119c9576001600060016101000a81548160ff0219169083151502179055505b6119d1611c78565b6119d9611cc9565b8015611a325760008060016101000a81548160ff0219169083151502179055507f7f26b83ff96e1f2b6a682f133852f6798a09c465da95921460cefb38474024986001604051611a299190612308565b60405180910390a15b50565b600042905090565b60008183611a4b9190612777565b905092915050565b60008183611a61919061271d565b905092915050565b60008183611a77919061257b565b905092915050565b6000806000806000808773ffffffffffffffffffffffffffffffffffffffff16639a6fc8f5886040518263ffffffff1660e01b8152600401611ac191906124de565b60a06040518083038186803b158015611ad957600080fd5b505afa158015611aed573d6000803e3d6000fd5b505050506040513d601f19601f82011682018060405250810190611b119190611fe7565b50935050925092505b6000821215611bda57611b2c83611c03565b600183611b3991906127ab565b92508773ffffffffffffffffffffffffffffffffffffffff16639a6fc8f5846040518263ffffffff1660e01b8152600401611b7491906124de565b60a06040518083038186803b158015611b8c57600080fd5b505afa158015611ba0573d6000803e3d6000fd5b505050506040513d601f19601f82011682018060405250810190611bc49190611fe7565b9091929350909150508092508193505050611b1a565b8282829550955095505050509250925092565b60008183611bfb9190612525565b905092915050565b60008169ffffffffffffffffffff1611611c52576040517f08c379a0000000000000000000000000000000000000000000000000000000008152600401611c4990612463565b60405180910390fd5b50565b6000808273ffffffffffffffffffffffffffffffffffffffff163b119050919050565b600060019054906101000a900460ff16611cc7576040517f08c379a0000000000000000000000000000000000000000000000000000000008152600401611cbe90612403565b60405180910390fd5b565b6000611cd560016118a9565b90508015611cf9576001600060016101000a81548160ff0219169083151502179055505b6000611d036116c8565b905080603360006101000a81548173ffffffffffffffffffffffffffffffffffffffff021916908373ffffffffffffffffffffffffffffffffffffffff1602179055508073ffffffffffffffffffffffffffffffffffffffff16600073ffffffffffffffffffffffffffffffffffffffff167f8be0079c531659141344cd1fd0a4f28419497f9722a3daafe3b4186f6b6457e060405160405180910390a3508015611dfb5760008060016101000a81548160ff0219169083151502179055507f7f26b83ff96e1f2b6a682f133852f6798a09c465da95921460cefb38474024986001604051611df29190612308565b60405180910390a15b50565b600081359050611e0d81612c81565b92915050565b600081359050611e2281612c98565b92915050565b600081519050611e3781612caf565b92915050565b600081359050611e4c81612cc6565b92915050565b600081519050611e6181612cc6565b92915050565b600081519050611e7681612cf4565b92915050565b600081519050611e8b81612cdd565b92915050565b600060208284031215611ea357600080fd5b6000611eb184828501611dfe565b91505092915050565b600060208284031215611ecc57600080fd5b6000611eda84828501611e13565b91505092915050565b60008060408385031215611ef657600080fd5b6000611f0485828601611e13565b9250506020611f1585828601611dfe565b9150509250929050565b60008060408385031215611f3257600080fd5b6000611f4085828601611e13565b9250506020611f5185828601611e3d565b9150509250929050565b60008060008060808587031215611f7157600080fd5b6000611f7f87828801611e13565b9450506020611f9087828801611e3d565b9350506040611fa187828801611e3d565b9250506060611fb287828801611e3d565b91505092959194509250565b600060208284031215611fd057600080fd5b6000611fde84828501611e3d565b91505092915050565b600080600080600060a08688031215611fff57600080fd5b600061200d88828901611e67565b955050602061201e88828901611e28565b945050604061202f88828901611e52565b935050606061204088828901611e52565b925050608061205188828901611e67565b9150509295509295909350565b60006020828403121561207057600080fd5b600061207e84828501611e7c565b91505092915050565b612090816127df565b82525050565b61209f816127f1565b82525050565b6120ae81612852565b82525050565b6120bd81612876565b82525050565b60006120d0600e83612514565b91506120db8261293c565b602082019050919050565b60006120f3600b83612514565b91506120fe82612965565b602082019050919050565b6000612116602783612514565b91506121218261298e565b604082019050919050565b6000612139602783612514565b9150612144826129dd565b604082019050919050565b600061215c600d83612514565b915061216782612a2c565b602082019050919050565b600061217f602e83612514565b915061218a82612a55565b604082019050919050565b60006121a2602283612514565b91506121ad82612aa4565b604082019050919050565b60006121c5602b83612514565b91506121d082612af3565b604082019050919050565b60006121e8602f83612514565b91506121f382612b42565b604082019050919050565b600061220b602d83612514565b915061221682612b91565b604082019050919050565b600061222e601283612514565b915061223982612be0565b602082019050919050565b6000612251601383612514565b915061225c82612c09565b602082019050919050565b6000612274602683612514565b915061227f82612c32565b604082019050919050565b61229381612825565b82525050565b6122a28161283c565b82525050565b6122b18161282f565b82525050565b60006020820190506122cc6000830184612087565b92915050565b60006020820190506122e76000830184612096565b92915050565b600060208201905061230260008301846120a5565b92915050565b600060208201905061231d60008301846120b4565b92915050565b6000602082019050818103600083015261233c816120c3565b9050919050565b6000602082019050818103600083015261235c816120e6565b9050919050565b6000602082019050818103600083015261237c81612109565b9050919050565b6000602082019050818103600083015261239c8161212c565b9050919050565b600060208201905081810360008301526123bc8161214f565b9050919050565b600060208201905081810360008301526123dc81612172565b9050919050565b600060208201905081810360008301526123fc81612195565b9050919050565b6000602082019050818103600083015261241c816121b8565b9050919050565b6000602082019050818103600083015261243c816121db565b9050919050565b6000602082019050818103600083015261245c816121fe565b9050919050565b6000602082019050818103600083015261247c81612221565b9050919050565b6000602082019050818103600083015261249c81612244565b9050919050565b600060208201905081810360008301526124bc81612267565b9050919050565b60006020820190506124d8600083018461228a565b92915050565b60006020820190506124f36000830184612299565b92915050565b600060208201905061250e60008301846122a8565b92915050565b600082825260208201905092915050565b600061253082612825565b915061253b83612825565b9250827fffffffffffffffffffffffffffffffffffffffffffffffffffffffffffffffff038211156125705761256f6128d1565b5b828201905092915050565b600061258682612825565b915061259183612825565b9250826125a1576125a0612900565b5b828204905092915050565b6000808291508390505b60018511156125f6578086048111156125d2576125d16128d1565b5b60018516156125e15780820291505b80810290506125ef8561292f565b94506125b6565b94509492505050565b600061260a82612825565b915061261583612825565b92506126427fffffffffffffffffffffffffffffffffffffffffffffffffffffffffffffffff848461264a565b905092915050565b60008261265a5760019050612716565b816126685760009050612716565b816001811461267e5760028114612688576126b7565b6001915050612716565b60ff84111561269a576126996128d1565b5b8360020a9150848211156126b1576126b06128d1565b5b50612716565b5060208310610133831016604e8410600b84101617156126ec5782820a9050838111156126e7576126e66128d1565b5b612716565b6126f984848460016125ac565b925090508184048111156127105761270f6128d1565b5b81810290505b9392505050565b600061272882612825565b915061273383612825565b9250817fffffffffffffffffffffffffffffffffffffffffffffffffffffffffffffffff048311821515161561276c5761276b6128d1565b5b828202905092915050565b600061278282612825565b915061278d83612825565b9250828210156127a05761279f6128d1565b5b828203905092915050565b60006127b68261283c565b91506127c18361283c565b9250828210156127d4576127d36128d1565b5b828203905092915050565b60006127ea82612805565b9050919050565b6000819050919050565b6000819050919050565b600073ffffffffffffffffffffffffffffffffffffffff82169050919050565b6000819050919050565b600060ff82169050919050565b600069ffffffffffffffffffff82169050919050565b600061285d82612864565b9050919050565b600061286f82612805565b9050919050565b60006128818261282f565b9050919050565b600061289382612825565b91507fffffffffffffffffffffffffffffffffffffffffffffffffffffffffffffffff8214156128c6576128c56128d1565b5b600182019050919050565b7f4e487b7100000000000000000000000000000000000000000000000000000000600052601160045260246000fd5b7f4e487b7100000000000000000000000000000000000000000000000000000000600052601260045260246000fd5b60008160011c9050919050565b7f4e65676174697665207072696365000000000000000000000000000000000000600082015250565b7f6e6f7420737570706f7274000000000000000000000000000000000000000000600082015250565b7f5065727046694f776e61626c65557067726164653a2073616d6520617320636160008201527f6e64696461746500000000000000000000000000000000000000000000000000602082015250565b7f5065727046694f776e61626c65557067726164653a206e6f7420746865206e6560008201527f77206f776e657200000000000000000000000000000000000000000000000000602082015250565b7f656d707479206164647265737300000000000000000000000000000000000000600082015250565b7f496e697469616c697a61626c653a20636f6e747261637420697320616c72656160008201527f647920696e697469616c697a6564000000000000000000000000000000000000602082015250565b7f5065727046694f776e61626c65557067726164653a207a65726f20616464726560008201527f7373000000000000000000000000000000000000000000000000000000000000602082015250565b7f496e697469616c697a61626c653a20636f6e7472616374206973206e6f74206960008201527f6e697469616c697a696e67000000000000000000000000000000000000000000602082015250565b7f5065727046694f776e61626c65557067726164653a2063616e6469646174652060008201527f6973207a65726f20616464726573730000000000000000000000000000000000602082015250565b7f5065727046694f776e61626c65557067726164653a2063616c6c65722069732060008201527f6e6f7420746865206f776e657200000000000000000000000000000000000000602082015250565b7f4e6f7420656e6f75676820686973746f72790000000000000000000000000000600082015250565b7f696e74657276616c2063616e2774206265203000000000000000000000000000600082015250565b7f5065727046694f776e61626c65557067726164653a2073616d65206173206f7260008201527f6967696e616c0000000000000000000000000000000000000000000000000000602082015250565b612c8a816127df565b8114612c9557600080fd5b50565b612ca1816127f1565b8114612cac57600080fd5b50565b612cb8816127fb565b8114612cc357600080fd5b50565b612ccf81612825565b8114612cda57600080fd5b50565b612ce68161282f565b8114612cf157600080fd5b50565b612cfd8161283c565b8114612d0857600080fd5b5056fea264697066735822122038138af5372628047c2114ca34cc7efd43940769b3d21fd96809c440d488d1ef64736f6c63430008040033",
  "linkReferences": {},
  "deployedLinkReferences": {}
}