{
  "_format": "hh-sol-artifact-1",
  "contractName": "RateOracle",
  "sourceName": "contracts/RateOracle.sol",
  "abi": [
    {
      "inputs": [
        {
          "internalType": "uint256",
          "name": "_id",
          "type": "uint256"
        }
      ],
      "name": "getPrice",
      "outputs": [
        {
          "internalType": "uint256",
          "name": "",
          "type": "uint256"
        }
      ],
      "stateMutability": "view",
      "type": "function"
    },
    {
      "inputs": [
        {
          "internalType": "uint256",
          "name": "_id",
          "type": "uint256"
        }
      ],
      "name": "getTWAP",
      "outputs": [
        {
          "internalType": "int256",
          "name": "",
          "type": "int256"
        }
      ],
      "stateMutability": "view",
      "type": "function"
    },
    {
      "inputs": [],
      "name": "price",
      "outputs": [
        {
          "internalType": "uint256",
          "name": "",
          "type": "uint256"
        }
      ],
      "stateMutability": "view",
      "type": "function"
    },
    {
      "inputs": [],
      "name": "price2",
      "outputs": [
        {
          "internalType": "uint256",
          "name": "",
          "type": "uint256"
        }
      ],
      "stateMutability": "view",
      "type": "function"
    },
    {
      "inputs": [
        {
          "internalType": "uint256",
          "name": "_price",
          "type": "uint256"
        }
      ],
      "name": "setPrice",
      "outputs": [],
      "stateMutability": "nonpayable",
      "type": "function"
    },
    {
      "inputs": [
        {
          "internalType": "uint256",
          "name": "_price2",
          "type": "uint256"
        }
      ],
      "name": "setPrice2",
      "outputs": [],
      "stateMutability": "nonpayable",
      "type": "function"
    },
    {
      "inputs": [
        {
          "internalType": "int256",
          "name": "_twap",
          "type": "int256"
        }
      ],
      "name": "setTWAP",
      "outputs": [],
      "stateMutability": "nonpayable",
      "type": "function"
    },
    {
      "inputs": [],
      "name": "twap",
      "outputs": [
        {
          "internalType": "int256",
          "name": "",
          "type": "int256"
        }
      ],
      "stateMutability": "view",
      "type": "function"
    }
  ],
  "bytecode": "0x608060405234801561001057600080fd5b5061033e806100206000396000f3fe608060405234801561001057600080fd5b50600436106100885760003560e01c8063ccf27a4e1161005b578063ccf27a4e14610103578063e75722301461011f578063f061ba471461014f578063f30d3d1b1461016b57610088565b80631208aa181461008d57806327a3181d146100ab57806391b7f5ed146100c9578063a035b1fe146100e5575b600080fd5b61009561019b565b6040516100a29190610290565b60405180910390f35b6100b36101a1565b6040516100c091906102ab565b60405180910390f35b6100e360048036038101906100de9190610249565b6101a7565b005b6100ed6101b1565b6040516100fa91906102ab565b60405180910390f35b61011d60048036038101906101189190610249565b6101b7565b005b61013960048036038101906101349190610249565b6101c1565b60405161014691906102ab565b60405180910390f35b61016960048036038101906101649190610220565b6101e0565b005b61018560048036038101906101809190610249565b6101ea565b6040516101929190610290565b60405180910390f35b60025481565b60015481565b8060008190555050565b60005481565b8060018190555050565b6000808214156101d55760005490506101db565b60015490505b919050565b8060028190555050565b60006002549050919050565b600081359050610205816102da565b92915050565b60008135905061021a816102f1565b92915050565b60006020828403121561023257600080fd5b6000610240848285016101f6565b91505092915050565b60006020828403121561025b57600080fd5b60006102698482850161020b565b91505092915050565b61027b816102c6565b82525050565b61028a816102d0565b82525050565b60006020820190506102a56000830184610272565b92915050565b60006020820190506102c06000830184610281565b92915050565b6000819050919050565b6000819050919050565b6102e3816102c6565b81146102ee57600080fd5b50565b6102fa816102d0565b811461030557600080fd5b5056fea2646970667358221220ad3bd1870a5050f73803d449bb9b96bceb3816c4367805107dd187b4ed3d34a664736f6c63430008040033",
  "linkReferences": {},
  "deployedLinkReferences": {}
}