{
  "_format": "hh-sol-artifact-1",
  "contractName": "RateOracle",
  "sourceName": "contracts/Vaults/RateOracle.sol",
  "abi": [
    {
      "inputs": [
        {
          "internalType": "uint256",
          "name": "_id",
          "type": "uint256"
        }
      ],
      "name": "getPrice",
      "outputs": [
        {
          "internalType": "uint256",
          "name": "",
          "type": "uint256"
        }
      ],
      "stateMutability": "view",
      "type": "function"
    },
    {
      "inputs": [
        {
          "internalType": "uint256",
          "name": "_id",
          "type": "uint256"
        }
      ],
      "name": "getTWAP",
      "outputs": [
        {
          "internalType": "int256",
          "name": "",
          "type": "int256"
        }
      ],
      "stateMutability": "view",
      "type": "function"
    }
  ],
  "bytecode": "0x608060405234801561001057600080fd5b5061019c806100206000396000f3fe608060405234801561001057600080fd5b50600436106100365760003560e01c8063e75722301461003b578063f30d3d1b1461006b575b600080fd5b610055600480360381019061005091906100be565b61009b565b6040516100629190610120565b60405180910390f35b610085600480360381019061008091906100be565b6100a2565b6040516100929190610105565b60405180910390f35b6000919050565b6000919050565b6000813590506100b88161014f565b92915050565b6000602082840312156100d057600080fd5b60006100de848285016100a9565b91505092915050565b6100f08161013b565b82525050565b6100ff81610145565b82525050565b600060208201905061011a60008301846100e7565b92915050565b600060208201905061013560008301846100f6565b92915050565b6000819050919050565b6000819050919050565b61015881610145565b811461016357600080fd5b5056fea2646970667358221220755c1359220187e011c44fda951c9b81d8f017b835d302b7fd1bdb960a8f1cb264736f6c63430008040033",
  "linkReferences": {},
  "deployedLinkReferences": {}
}