{
  "_format": "hh-sol-artifact-1",
  "contractName": "RateOracle",
  "sourceName": "contracts/Vaults/RateOracle.sol",
  "abi": [
    {
      "inputs": [
        {
          "internalType": "uint256",
          "name": "_id",
          "type": "uint256"
        }
      ],
      "name": "getPrice",
      "outputs": [
        {
          "internalType": "uint256",
          "name": "",
          "type": "uint256"
        }
      ],
      "stateMutability": "view",
      "type": "function"
    },
    {
      "inputs": [
        {
          "internalType": "uint256",
          "name": "_id",
          "type": "uint256"
        }
      ],
      "name": "getTWAP",
      "outputs": [
        {
          "internalType": "int256",
          "name": "",
          "type": "int256"
        }
      ],
      "stateMutability": "view",
      "type": "function"
    },
    {
      "inputs": [],
      "name": "price",
      "outputs": [
        {
          "internalType": "uint256",
          "name": "",
          "type": "uint256"
        }
      ],
      "stateMutability": "view",
      "type": "function"
    },
    {
      "inputs": [
        {
          "internalType": "uint256",
          "name": "_price",
          "type": "uint256"
        }
      ],
      "name": "setPrice",
      "outputs": [],
      "stateMutability": "nonpayable",
      "type": "function"
    },
    {
      "inputs": [
        {
          "internalType": "int256",
          "name": "_twap",
          "type": "int256"
        }
      ],
      "name": "setTWAP",
      "outputs": [],
      "stateMutability": "nonpayable",
      "type": "function"
    },
    {
      "inputs": [],
      "name": "twap",
      "outputs": [
        {
          "internalType": "int256",
          "name": "",
          "type": "int256"
        }
      ],
      "stateMutability": "view",
      "type": "function"
    }
  ],
  "bytecode": "0x608060405234801561001057600080fd5b506102ba806100206000396000f3fe608060405234801561001057600080fd5b50600436106100625760003560e01c80631208aa181461006757806391b7f5ed14610085578063a035b1fe146100a1578063e7572230146100bf578063f061ba47146100ef578063f30d3d1b1461010b575b600080fd5b61006f61013b565b60405161007c919061020c565b60405180910390f35b61009f600480360381019061009a91906101c5565b610141565b005b6100a961014b565b6040516100b69190610227565b60405180910390f35b6100d960048036038101906100d491906101c5565b610151565b6040516100e69190610227565b60405180910390f35b6101096004803603810190610104919061019c565b61015c565b005b610125600480360381019061012091906101c5565b610166565b604051610132919061020c565b60405180910390f35b60015481565b8060008190555050565b60005481565b600080549050919050565b8060018190555050565b60006001549050919050565b60008135905061018181610256565b92915050565b6000813590506101968161026d565b92915050565b6000602082840312156101ae57600080fd5b60006101bc84828501610172565b91505092915050565b6000602082840312156101d757600080fd5b60006101e584828501610187565b91505092915050565b6101f781610242565b82525050565b6102068161024c565b82525050565b600060208201905061022160008301846101ee565b92915050565b600060208201905061023c60008301846101fd565b92915050565b6000819050919050565b6000819050919050565b61025f81610242565b811461026a57600080fd5b50565b6102768161024c565b811461028157600080fd5b5056fea26469706673582212209a2bb0d4f03c26c4962dbe36421b454498971bb9491c0cb981fafce68d2d073f64736f6c63430008040033",
  "linkReferences": {},
  "deployedLinkReferences": {}
}