{
  "_format": "hh-sol-artifact-1",
  "contractName": "RateOracle",
  "sourceName": "contracts/Vaults/RateOracle.sol",
  "abi": [
    {
      "inputs": [
        {
          "internalType": "address[]",
          "name": "_oracles",
          "type": "address[]"
        }
      ],
      "stateMutability": "nonpayable",
      "type": "constructor"
    },
    {
      "anonymous": false,
      "inputs": [
        {
          "indexed": true,
          "internalType": "address",
          "name": "previousOwner",
          "type": "address"
        },
        {
          "indexed": true,
          "internalType": "address",
          "name": "newOwner",
          "type": "address"
        }
      ],
      "name": "OwnershipTransferred",
      "type": "event"
    },
    {
      "inputs": [
        {
          "internalType": "address",
          "name": "_oracle",
          "type": "address"
        }
      ],
      "name": "addOracle",
      "outputs": [],
      "stateMutability": "nonpayable",
      "type": "function"
    },
    {
      "inputs": [
        {
          "internalType": "uint256",
          "name": "_oracleIndex",
          "type": "uint256"
        }
      ],
      "name": "getPrice",
      "outputs": [
        {
          "internalType": "int256",
          "name": "",
          "type": "int256"
        }
      ],
      "stateMutability": "view",
      "type": "function"
    },
    {
      "inputs": [],
      "name": "owner",
      "outputs": [
        {
          "internalType": "address",
          "name": "",
          "type": "address"
        }
      ],
      "stateMutability": "view",
      "type": "function"
    },
    {
      "inputs": [],
      "name": "renounceOwnership",
      "outputs": [],
      "stateMutability": "nonpayable",
      "type": "function"
    },
    {
      "inputs": [
        {
          "internalType": "address",
          "name": "newOwner",
          "type": "address"
        }
      ],
      "name": "transferOwnership",
      "outputs": [],
      "stateMutability": "nonpayable",
      "type": "function"
    }
  ],
  "bytecode": "0x60806040523480156200001157600080fd5b5060405162000d5d38038062000d5d8339818101604052810190620000379190620002ab565b620000576200004b6200012660201b60201c565b6200012e60201b60201c565b60005b81518110156200011e576001828281518110620000a0577f4e487b7100000000000000000000000000000000000000000000000000000000600052603260045260246000fd5b60200260200101519080600181540180825580915050600190039060005260206000200160009091909190916101000a81548173ffffffffffffffffffffffffffffffffffffffff021916908373ffffffffffffffffffffffffffffffffffffffff16021790555080806200011590620003bc565b9150506200005a565b505062000493565b600033905090565b60008060009054906101000a900473ffffffffffffffffffffffffffffffffffffffff169050816000806101000a81548173ffffffffffffffffffffffffffffffffffffffff021916908373ffffffffffffffffffffffffffffffffffffffff1602179055508173ffffffffffffffffffffffffffffffffffffffff168173ffffffffffffffffffffffffffffffffffffffff167f8be0079c531659141344cd1fd0a4f28419497f9722a3daafe3b4186f6b6457e060405160405180910390a35050565b600062000209620002038462000319565b620002f0565b905080838252602082019050828560208602820111156200022957600080fd5b60005b858110156200025d578162000242888262000267565b8452602084019350602083019250506001810190506200022c565b5050509392505050565b600081519050620002788162000479565b92915050565b600082601f8301126200029057600080fd5b8151620002a2848260208601620001f2565b91505092915050565b600060208284031215620002be57600080fd5b600082015167ffffffffffffffff811115620002d957600080fd5b620002e7848285016200027e565b91505092915050565b6000620002fc6200030f565b90506200030a828262000386565b919050565b6000604051905090565b600067ffffffffffffffff82111562000337576200033662000439565b5b602082029050602081019050919050565b600062000355826200035c565b9050919050565b600073ffffffffffffffffffffffffffffffffffffffff82169050919050565b6000819050919050565b620003918262000468565b810181811067ffffffffffffffff82111715620003b357620003b262000439565b5b80604052505050565b6000620003c9826200037c565b91507fffffffffffffffffffffffffffffffffffffffffffffffffffffffffffffffff821415620003ff57620003fe6200040a565b5b600182019050919050565b7f4e487b7100000000000000000000000000000000000000000000000000000000600052601160045260246000fd5b7f4e487b7100000000000000000000000000000000000000000000000000000000600052604160045260246000fd5b6000601f19601f8301169050919050565b620004848162000348565b81146200049057600080fd5b50565b6108ba80620004a36000396000f3fe608060405234801561001057600080fd5b50600436106100575760003560e01c8063715018a61461005c5780638da5cb5b14610066578063df5dd1a514610084578063e7572230146100a0578063f2fde38b146100d0575b600080fd5b6100646100ec565b005b61006e610174565b60405161007b91906106cd565b60405180910390f35b61009e600480360381019061009991906105a0565b61019d565b005b6100ba60048036038101906100b591906105c9565b61027f565b6040516100c791906106e8565b60405180910390f35b6100ea60048036038101906100e591906105a0565b610373565b005b6100f461046b565b73ffffffffffffffffffffffffffffffffffffffff16610112610174565b73ffffffffffffffffffffffffffffffffffffffff1614610168576040517f08c379a000000000000000000000000000000000000000000000000000000000815260040161015f90610723565b60405180910390fd5b6101726000610473565b565b60008060009054906101000a900473ffffffffffffffffffffffffffffffffffffffff16905090565b6101a561046b565b73ffffffffffffffffffffffffffffffffffffffff166101c3610174565b73ffffffffffffffffffffffffffffffffffffffff1614610219576040517f08c379a000000000000000000000000000000000000000000000000000000000815260040161021090610723565b60405180910390fd5b6001819080600181540180825580915050600190039060005260206000200160009091909190916101000a81548173ffffffffffffffffffffffffffffffffffffffff021916908373ffffffffffffffffffffffffffffffffffffffff16021790555050565b600080600183815481106102bc577f4e487b7100000000000000000000000000000000000000000000000000000000600052603260045260246000fd5b9060005260206000200160009054906101000a900473ffffffffffffffffffffffffffffffffffffffff1673ffffffffffffffffffffffffffffffffffffffff1663feaf968c6040518163ffffffff1660e01b815260040160a06040518083038186803b15801561032c57600080fd5b505afa158015610340573d6000803e3d6000fd5b505050506040513d601f19601f8201168201806040525081019061036491906105f2565b50505091505080915050919050565b61037b61046b565b73ffffffffffffffffffffffffffffffffffffffff16610399610174565b73ffffffffffffffffffffffffffffffffffffffff16146103ef576040517f08c379a00000000000000000000000000000000000000000000000000000000081526004016103e690610723565b60405180910390fd5b600073ffffffffffffffffffffffffffffffffffffffff168173ffffffffffffffffffffffffffffffffffffffff16141561045f576040517f08c379a000000000000000000000000000000000000000000000000000000000815260040161045690610703565b60405180910390fd5b61046881610473565b50565b600033905090565b60008060009054906101000a900473ffffffffffffffffffffffffffffffffffffffff169050816000806101000a81548173ffffffffffffffffffffffffffffffffffffffff021916908373ffffffffffffffffffffffffffffffffffffffff1602179055508173ffffffffffffffffffffffffffffffffffffffff168173ffffffffffffffffffffffffffffffffffffffff167f8be0079c531659141344cd1fd0a4f28419497f9722a3daafe3b4186f6b6457e060405160405180910390a35050565b60008135905061054681610828565b92915050565b60008151905061055b8161083f565b92915050565b60008135905061057081610856565b92915050565b60008151905061058581610856565b92915050565b60008151905061059a8161086d565b92915050565b6000602082840312156105b257600080fd5b60006105c084828501610537565b91505092915050565b6000602082840312156105db57600080fd5b60006105e984828501610561565b91505092915050565b600080600080600060a0868803121561060a57600080fd5b60006106188882890161058b565b95505060206106298882890161054c565b945050604061063a88828901610576565b935050606061064b88828901610576565b925050608061065c8882890161058b565b9150509295509295909350565b61067281610754565b82525050565b61068181610766565b82525050565b6000610694602683610743565b915061069f826107b0565b604082019050919050565b60006106b7602083610743565b91506106c2826107ff565b602082019050919050565b60006020820190506106e26000830184610669565b92915050565b60006020820190506106fd6000830184610678565b92915050565b6000602082019050818103600083015261071c81610687565b9050919050565b6000602082019050818103600083015261073c816106aa565b9050919050565b600082825260208201905092915050565b600061075f82610770565b9050919050565b6000819050919050565b600073ffffffffffffffffffffffffffffffffffffffff82169050919050565b6000819050919050565b600069ffffffffffffffffffff82169050919050565b7f4f776e61626c653a206e6577206f776e657220697320746865207a65726f206160008201527f6464726573730000000000000000000000000000000000000000000000000000602082015250565b7f4f776e61626c653a2063616c6c6572206973206e6f7420746865206f776e6572600082015250565b61083181610754565b811461083c57600080fd5b50565b61084881610766565b811461085357600080fd5b50565b61085f81610790565b811461086a57600080fd5b50565b6108768161079a565b811461088157600080fd5b5056fea264697066735822122050501567e5e5c42d617af2a686c0394472f65265e923ab1cc49d2bb6922f76e264736f6c63430008040033",
  "linkReferences": {},
  "deployedLinkReferences": {}
}