{
  "_format": "hh-sol-artifact-1",
  "contractName": "FxUSD",
  "sourceName": "contracts/Vaults/FxUSD.sol",
  "abi": [
    {
      "inputs": [
        {
          "internalType": "address[]",
          "name": "_collateralWhitelist",
          "type": "address[]"
        },
        {
          "internalType": "address",
          "name": "_oracle",
          "type": "address"
        },
        {
          "internalType": "address",
          "name": "_OrderBook",
          "type": "address"
        },
        {
          "internalType": "uint256",
          "name": "_debtTokenIndex",
          "type": "uint256"
        },
        {
          "internalType": "string",
          "name": "_name",
          "type": "string"
        },
        {
          "internalType": "string",
          "name": "_symbol",
          "type": "string"
        }
      ],
      "stateMutability": "nonpayable",
      "type": "constructor"
    },
    {
      "anonymous": false,
      "inputs": [
        {
          "indexed": true,
          "internalType": "address",
          "name": "owner",
          "type": "address"
        },
        {
          "indexed": true,
          "internalType": "address",
          "name": "spender",
          "type": "address"
        },
        {
          "indexed": false,
          "internalType": "uint256",
          "name": "value",
          "type": "uint256"
        }
      ],
      "name": "Approval",
      "type": "event"
    },
    {
      "anonymous": false,
      "inputs": [
        {
          "indexed": true,
          "internalType": "address",
          "name": "from",
          "type": "address"
        },
        {
          "indexed": true,
          "internalType": "address",
          "name": "to",
          "type": "address"
        },
        {
          "indexed": false,
          "internalType": "uint256",
          "name": "value",
          "type": "uint256"
        }
      ],
      "name": "Transfer",
      "type": "event"
    },
    {
      "inputs": [],
      "name": "DYNAMIC_BALANCE_MULTIPLIER",
      "outputs": [
        {
          "internalType": "uint256",
          "name": "",
          "type": "uint256"
        }
      ],
      "stateMutability": "view",
      "type": "function"
    },
    {
      "inputs": [
        {
          "internalType": "uint256",
          "name": "",
          "type": "uint256"
        }
      ],
      "name": "Vaults",
      "outputs": [
        {
          "internalType": "address",
          "name": "Owner",
          "type": "address"
        },
        {
          "internalType": "uint256",
          "name": "CollateralIndex",
          "type": "uint256"
        },
        {
          "internalType": "uint256",
          "name": "Collateral",
          "type": "uint256"
        },
        {
          "internalType": "uint256",
          "name": "Debt",
          "type": "uint256"
        },
        {
          "internalType": "uint256",
          "name": "ID",
          "type": "uint256"
        }
      ],
      "stateMutability": "view",
      "type": "function"
    },
    {
      "inputs": [
        {
          "internalType": "address",
          "name": "_collateral",
          "type": "address"
        }
      ],
      "name": "addCollateralOption",
      "outputs": [],
      "stateMutability": "nonpayable",
      "type": "function"
    },
    {
      "inputs": [
        {
          "internalType": "address",
          "name": "owner",
          "type": "address"
        },
        {
          "internalType": "address",
          "name": "spender",
          "type": "address"
        }
      ],
      "name": "allowance",
      "outputs": [
        {
          "internalType": "uint256",
          "name": "",
          "type": "uint256"
        }
      ],
      "stateMutability": "view",
      "type": "function"
    },
    {
      "inputs": [
        {
          "internalType": "address",
          "name": "spender",
          "type": "address"
        },
        {
          "internalType": "uint256",
          "name": "amount",
          "type": "uint256"
        }
      ],
      "name": "approve",
      "outputs": [
        {
          "internalType": "bool",
          "name": "",
          "type": "bool"
        }
      ],
      "stateMutability": "nonpayable",
      "type": "function"
    },
    {
      "inputs": [
        {
          "internalType": "address",
          "name": "account",
          "type": "address"
        }
      ],
      "name": "balanceOf",
      "outputs": [
        {
          "internalType": "uint256",
          "name": "",
          "type": "uint256"
        }
      ],
      "stateMutability": "view",
      "type": "function"
    },
    {
      "inputs": [
        {
          "internalType": "uint256",
          "name": "_vaultID",
          "type": "uint256"
        },
        {
          "internalType": "uint256",
          "name": "_amount",
          "type": "uint256"
        }
      ],
      "name": "borrow",
      "outputs": [],
      "stateMutability": "nonpayable",
      "type": "function"
    },
    {
      "inputs": [
        {
          "internalType": "uint256",
          "name": "_vaultID",
          "type": "uint256"
        }
      ],
      "name": "closePosition",
      "outputs": [],
      "stateMutability": "nonpayable",
      "type": "function"
    },
    {
      "inputs": [
        {
          "internalType": "uint256",
          "name": "",
          "type": "uint256"
        }
      ],
      "name": "collateralWhitelist",
      "outputs": [
        {
          "internalType": "address",
          "name": "",
          "type": "address"
        }
      ],
      "stateMutability": "view",
      "type": "function"
    },
    {
      "inputs": [],
      "name": "decimals",
      "outputs": [
        {
          "internalType": "uint8",
          "name": "",
          "type": "uint8"
        }
      ],
      "stateMutability": "view",
      "type": "function"
    },
    {
      "inputs": [
        {
          "internalType": "address",
          "name": "spender",
          "type": "address"
        },
        {
          "internalType": "uint256",
          "name": "subtractedValue",
          "type": "uint256"
        }
      ],
      "name": "decreaseAllowance",
      "outputs": [
        {
          "internalType": "bool",
          "name": "",
          "type": "bool"
        }
      ],
      "stateMutability": "nonpayable",
      "type": "function"
    },
    {
      "inputs": [
        {
          "internalType": "address",
          "name": "spender",
          "type": "address"
        },
        {
          "internalType": "uint256",
          "name": "addedValue",
          "type": "uint256"
        }
      ],
      "name": "increaseAllowance",
      "outputs": [
        {
          "internalType": "bool",
          "name": "",
          "type": "bool"
        }
      ],
      "stateMutability": "nonpayable",
      "type": "function"
    },
    {
      "inputs": [
        {
          "internalType": "uint256",
          "name": "",
          "type": "uint256"
        }
      ],
      "name": "isClosed",
      "outputs": [
        {
          "internalType": "bool",
          "name": "",
          "type": "bool"
        }
      ],
      "stateMutability": "view",
      "type": "function"
    },
    {
      "inputs": [
        {
          "internalType": "uint256",
          "name": "_vaultID",
          "type": "uint256"
        }
      ],
      "name": "liquidate",
      "outputs": [],
      "stateMutability": "nonpayable",
      "type": "function"
    },
    {
      "inputs": [],
      "name": "name",
      "outputs": [
        {
          "internalType": "string",
          "name": "",
          "type": "string"
        }
      ],
      "stateMutability": "view",
      "type": "function"
    },
    {
      "inputs": [
        {
          "internalType": "uint256",
          "name": "_collateralIndex",
          "type": "uint256"
        }
      ],
      "name": "openVault",
      "outputs": [
        {
          "internalType": "uint256",
          "name": "",
          "type": "uint256"
        }
      ],
      "stateMutability": "nonpayable",
      "type": "function"
    },
    {
      "inputs": [
        {
          "internalType": "uint256",
          "name": "_vaultID",
          "type": "uint256"
        },
        {
          "internalType": "uint256",
          "name": "_amount",
          "type": "uint256"
        }
      ],
      "name": "repay",
      "outputs": [],
      "stateMutability": "nonpayable",
      "type": "function"
    },
    {
      "inputs": [
        {
          "internalType": "uint256",
          "name": "_vaultID",
          "type": "uint256"
        },
        {
          "internalType": "uint256",
          "name": "_amount",
          "type": "uint256"
        }
      ],
      "name": "supply",
      "outputs": [],
      "stateMutability": "nonpayable",
      "type": "function"
    },
    {
      "inputs": [],
      "name": "symbol",
      "outputs": [
        {
          "internalType": "string",
          "name": "",
          "type": "string"
        }
      ],
      "stateMutability": "view",
      "type": "function"
    },
    {
      "inputs": [],
      "name": "totalSupply",
      "outputs": [
        {
          "internalType": "uint256",
          "name": "",
          "type": "uint256"
        }
      ],
      "stateMutability": "view",
      "type": "function"
    },
    {
      "inputs": [
        {
          "internalType": "address",
          "name": "to",
          "type": "address"
        },
        {
          "internalType": "uint256",
          "name": "amount",
          "type": "uint256"
        }
      ],
      "name": "transfer",
      "outputs": [
        {
          "internalType": "bool",
          "name": "",
          "type": "bool"
        }
      ],
      "stateMutability": "nonpayable",
      "type": "function"
    },
    {
      "inputs": [
        {
          "internalType": "address",
          "name": "from",
          "type": "address"
        },
        {
          "internalType": "address",
          "name": "to",
          "type": "address"
        },
        {
          "internalType": "uint256",
          "name": "amount",
          "type": "uint256"
        }
      ],
      "name": "transferFrom",
      "outputs": [
        {
          "internalType": "bool",
          "name": "",
          "type": "bool"
        }
      ],
      "stateMutability": "nonpayable",
      "type": "function"
    },
    {
      "inputs": [
        {
          "internalType": "int256",
          "name": "_fundingRate",
          "type": "int256"
        }
      ],
      "name": "updateDynamicMultipliers",
      "outputs": [],
      "stateMutability": "nonpayable",
      "type": "function"
    },
    {
      "inputs": [
        {
          "internalType": "uint256",
          "name": "_vaultID",
          "type": "uint256"
        },
        {
          "internalType": "uint256",
          "name": "_amount",
          "type": "uint256"
        }
      ],
      "name": "withdraw",
      "outputs": [],
      "stateMutability": "nonpayable",
      "type": "function"
    },
    {
      "stateMutability": "payable",
      "type": "receive"
    }
  ],
  "bytecode": "0x60806040523480156200001157600080fd5b506040516200319b3803806200319b833981810160405281019062000037919062000407565b858585858585818181600390805190602001906200005792919062000186565b5080600490805190602001906200007092919062000186565b50505084600d60006101000a81548173ffffffffffffffffffffffffffffffffffffffff021916908373ffffffffffffffffffffffffffffffffffffffff1602179055508260068190555085600a9080519060200190620000d392919062000217565b50670de0b6b3a764000060078190555067016345785d8a000060088190555033600b60006101000a81548173ffffffffffffffffffffffffffffffffffffffff021916908373ffffffffffffffffffffffffffffffffffffffff16021790555083600c60006101000a81548173ffffffffffffffffffffffffffffffffffffffff021916908373ffffffffffffffffffffffffffffffffffffffff160217905550505050505050505050505050620006f9565b8280546200019490620005ea565b90600052602060002090601f016020900481019282620001b8576000855562000204565b82601f10620001d357805160ff191683800117855562000204565b8280016001018555821562000204579182015b8281111562000203578251825591602001919060010190620001e6565b5b509050620002139190620002a6565b5090565b82805482825590600052602060002090810192821562000293579160200282015b82811115620002925782518260006101000a81548173ffffffffffffffffffffffffffffffffffffffff021916908373ffffffffffffffffffffffffffffffffffffffff1602179055509160200191906001019062000238565b5b509050620002a29190620002a6565b5090565b5b80821115620002c1576000816000905550600101620002a7565b5090565b6000620002dc620002d68462000511565b620004e8565b90508083825260208201905082856020860282011115620002fc57600080fd5b60005b858110156200033057816200031588826200037f565b845260208401935060208301925050600181019050620002ff565b5050509392505050565b6000620003516200034b8462000540565b620004e8565b9050828152602081018484840111156200036a57600080fd5b62000377848285620005b4565b509392505050565b6000815190506200039081620006c5565b92915050565b600082601f830112620003a857600080fd5b8151620003ba848260208601620002c5565b91505092915050565b600082601f830112620003d557600080fd5b8151620003e78482602086016200033a565b91505092915050565b6000815190506200040181620006df565b92915050565b60008060008060008060c087890312156200042157600080fd5b600087015167ffffffffffffffff8111156200043c57600080fd5b6200044a89828a0162000396565b96505060206200045d89828a016200037f565b95505060406200047089828a016200037f565b94505060606200048389828a01620003f0565b935050608087015167ffffffffffffffff811115620004a157600080fd5b620004af89828a01620003c3565b92505060a087015167ffffffffffffffff811115620004cd57600080fd5b620004db89828a01620003c3565b9150509295509295509295565b6000620004f462000507565b905062000502828262000620565b919050565b6000604051905090565b600067ffffffffffffffff8211156200052f576200052e62000685565b5b602082029050602081019050919050565b600067ffffffffffffffff8211156200055e576200055d62000685565b5b6200056982620006b4565b9050602081019050919050565b600062000583826200058a565b9050919050565b600073ffffffffffffffffffffffffffffffffffffffff82169050919050565b6000819050919050565b60005b83811015620005d4578082015181840152602081019050620005b7565b83811115620005e4576000848401525b50505050565b600060028204905060018216806200060357607f821691505b602082108114156200061a576200061962000656565b5b50919050565b6200062b82620006b4565b810181811067ffffffffffffffff821117156200064d576200064c62000685565b5b80604052505050565b7f4e487b7100000000000000000000000000000000000000000000000000000000600052602260045260246000fd5b7f4e487b7100000000000000000000000000000000000000000000000000000000600052604160045260246000fd5b6000601f19601f8301169050919050565b620006d08162000576565b8114620006dc57600080fd5b50565b620006ea81620005aa565b8114620006f657600080fd5b50565b612a9280620007096000396000f3fe60806040526004361061014f5760003560e01c80636d085490116100b6578063a9059cbb1161006f578063a9059cbb146104d7578063d5c78a2814610514578063d8aed14514610551578063daecfa6c1461057a578063dd62ed3e146105a3578063fcd96b02146105e057610156565b80636d085490146103b75780636feba3ca146103e057806370a082311461040957806395d89b4114610446578063a126d60114610471578063a457c2d71461049a57610156565b8063313ce56711610108578063313ce5671461029157806339509351146102bc578063415f1240146102f9578063441a3e70146103225780635aca84151461034b578063626f5c021461038c57610156565b806304a2ce7e1461015b57806306fdde0314610198578063095ea7b3146101c35780630ecbcdab1461020057806318160ddd1461022957806323b872dd1461025457610156565b3661015657005b600080fd5b34801561016757600080fd5b50610182600480360381019061017d919061200a565b61061d565b60405161018f9190612473565b60405180910390f35b3480156101a457600080fd5b506101ad610712565b6040516101ba9190612331565b60405180910390f35b3480156101cf57600080fd5b506101ea60048036038101906101e59190611f7c565b6107a4565b6040516101f79190612316565b60405180910390f35b34801561020c57600080fd5b506102276004803603810190610222919061205c565b6107c7565b005b34801561023557600080fd5b5061023e61096a565b60405161024b9190612473565b60405180910390f35b34801561026057600080fd5b5061027b60048036038101906102769190611f2d565b610974565b6040516102889190612316565b60405180910390f35b34801561029d57600080fd5b506102a66109a3565b6040516102b3919061248e565b60405180910390f35b3480156102c857600080fd5b506102e360048036038101906102de9190611f7c565b6109ac565b6040516102f09190612316565b60405180910390f35b34801561030557600080fd5b50610320600480360381019061031b919061200a565b6109e3565b005b34801561032e57600080fd5b506103496004803603810190610344919061205c565b610a01565b005b34801561035757600080fd5b50610372600480360381019061036d919061200a565b610baa565b6040516103839594939291906122c3565b60405180910390f35b34801561039857600080fd5b506103a1610c00565b6040516103ae9190612473565b60405180910390f35b3480156103c357600080fd5b506103de60048036038101906103d99190611fe1565b610c06565b005b3480156103ec57600080fd5b5061040760048036038101906104029190611ec8565b610c63565b005b34801561041557600080fd5b50610430600480360381019061042b9190611ec8565b610d23565b60405161043d9190612473565b60405180910390f35b34801561045257600080fd5b5061045b610d6b565b6040516104689190612331565b60405180910390f35b34801561047d57600080fd5b506104986004803603810190610493919061200a565b610dfd565b005b3480156104a657600080fd5b506104c160048036038101906104bc9190611f7c565b610efd565b6040516104ce9190612316565b60405180910390f35b3480156104e357600080fd5b506104fe60048036038101906104f99190611f7c565b610f74565b60405161050b9190612316565b60405180910390f35b34801561052057600080fd5b5061053b6004803603810190610536919061200a565b610f97565b6040516105489190612316565b60405180910390f35b34801561055d57600080fd5b506105786004803603810190610573919061205c565b610fb7565b005b34801561058657600080fd5b506105a1600480360381019061059c919061205c565b61102a565b005b3480156105af57600080fd5b506105ca60048036038101906105c59190611ef1565b61116b565b6040516105d79190612473565b60405180910390f35b3480156105ec57600080fd5b506106076004803603810190610602919061200a565b6111f2565b6040516106149190612248565b60405180910390f35b6000806040518060a001604052803373ffffffffffffffffffffffffffffffffffffffff1681526020018481526020016000815260200160008152602001600554815250905080600e60008360800151815260200190815260200160002060008201518160000160006101000a81548173ffffffffffffffffffffffffffffffffffffffff021916908373ffffffffffffffffffffffffffffffffffffffff16021790555060208201518160010155604082015181600201556060820151816003015560808201518160040155905050600560008154809291906107009061269e565b91905055508060800151915050919050565b6060600380546107219061266c565b80601f016020809104026020016040519081016040528092919081815260200182805461074d9061266c565b801561079a5780601f1061076f5761010080835404028352916020019161079a565b820191906000526020600020905b81548152906001019060200180831161077d57829003601f168201915b5050505050905090565b6000806107af611231565b90506107bc818585611239565b600191505092915050565b816000600e60008381526020019081526020016000206040518060a00160405290816000820160009054906101000a900473ffffffffffffffffffffffffffffffffffffffff1673ffffffffffffffffffffffffffffffffffffffff1673ffffffffffffffffffffffffffffffffffffffff1681526020016001820154815260200160028201548152602001600382015481526020016004820154815250509050806000015173ffffffffffffffffffffffffffffffffffffffff163373ffffffffffffffffffffffffffffffffffffffff16146108a457600080fd5b6000600e6000868152602001908152602001600020905060006108d485836003015461140490919063ffffffff16565b905060006109016007546108f36009548561141a90919063ffffffff16565b61143090919063ffffffff16565b9050600061091784600101548560020154611446565b9050600854610943826109356007548661141a90919063ffffffff16565b61143090919063ffffffff16565b1161094d57600080fd5b8284600301819055506109603388611536565b5050505050505050565b6000600254905090565b60008061097f611231565b905061098c858285611696565b610997858585611722565b60019150509392505050565b60006012905090565b6000806109b7611231565b90506109d88185856109c9858961116b565b6109d391906124c5565b611239565b600191505092915050565b6109ec816119bf565b6109f557600080fd5b6109fe81611acd565b50565b816000600e60008381526020019081526020016000206040518060a00160405290816000820160009054906101000a900473ffffffffffffffffffffffffffffffffffffffff1673ffffffffffffffffffffffffffffffffffffffff1673ffffffffffffffffffffffffffffffffffffffff1681526020016001820154815260200160028201548152602001600382015481526020016004820154815250509050806000015173ffffffffffffffffffffffffffffffffffffffff163373ffffffffffffffffffffffffffffffffffffffff1614610ade57600080fd5b6000600e600086815260200190815260200160002090506000610b1b8260010154610b16878560020154611c6890919063ffffffff16565b611446565b90506000610b4c600754610b3e600954866003015461141a90919063ffffffff16565b61143090919063ffffffff16565b9050600854610b7883610b6a6007548561141a90919063ffffffff16565b61143090919063ffffffff16565b11610b8257600080fd5b610b99868460020154611c6890919063ffffffff16565b836002018190555050505050505050565b600e6020528060005260406000206000915090508060000160009054906101000a900473ffffffffffffffffffffffffffffffffffffffff16908060010154908060020154908060030154908060040154905085565b60095481565b600c60009054906101000a900473ffffffffffffffffffffffffffffffffffffffff1673ffffffffffffffffffffffffffffffffffffffff163373ffffffffffffffffffffffffffffffffffffffff1614610c6057600080fd5b50565b600b60009054906101000a900473ffffffffffffffffffffffffffffffffffffffff1673ffffffffffffffffffffffffffffffffffffffff163373ffffffffffffffffffffffffffffffffffffffff1614610cbd57600080fd5b600a819080600181540180825580915050600190039060005260206000200160009091909190916101000a81548173ffffffffffffffffffffffffffffffffffffffff021916908373ffffffffffffffffffffffffffffffffffffffff16021790555050565b60008060008373ffffffffffffffffffffffffffffffffffffffff1673ffffffffffffffffffffffffffffffffffffffff168152602001908152602001600020549050919050565b606060048054610d7a9061266c565b80601f0160208091040260200160405190810160405280929190818152602001828054610da69061266c565b8015610df35780601f10610dc857610100808354040283529160200191610df3565b820191906000526020600020905b815481529060010190602001808311610dd657829003601f168201915b5050505050905090565b6005546000600e60008381526020019081526020016000206040518060a00160405290816000820160009054906101000a900473ffffffffffffffffffffffffffffffffffffffff1673ffffffffffffffffffffffffffffffffffffffff1673ffffffffffffffffffffffffffffffffffffffff1681526020016001820154815260200160028201548152602001600382015481526020016004820154815250509050806000015173ffffffffffffffffffffffffffffffffffffffff163373ffffffffffffffffffffffffffffffffffffffff1614610edc57600080fd5b610ee5836119bf565b15610eef57600080fd5b610ef883611acd565b505050565b600080610f08611231565b90506000610f16828661116b565b905083811015610f5b576040517f08c379a0000000000000000000000000000000000000000000000000000000008152600401610f5290612433565b60405180910390fd5b610f688286868403611239565b60019250505092915050565b600080610f7f611231565b9050610f8c818585611722565b600191505092915050565b600f6020528060005260406000206000915054906101000a900460ff1681565b6000600e600084815260200190815260200160002090506000610ff9600954610feb6007548661141a90919063ffffffff16565b61143090919063ffffffff16565b9050611012818360030154611c6890919063ffffffff16565b82600301819055506110243384611c7e565b50505050565b6000600e600084815260200190815260200160002090506000600a826001015481548110611081577f4e487b7100000000000000000000000000000000000000000000000000000000600052603260045260246000fd5b9060005260206000200160009054906101000a900473ffffffffffffffffffffffffffffffffffffffff1690508073ffffffffffffffffffffffffffffffffffffffff166323b872dd3330866040518463ffffffff1660e01b81526004016110eb93929190612263565b602060405180830381600087803b15801561110557600080fd5b505af1158015611119573d6000803e3d6000fd5b505050506040513d601f19601f8201168201806040525081019061113d9190611fb8565b61114657600080fd5b61115d83836002015461140490919063ffffffff16565b826002018190555050505050565b6000600160008473ffffffffffffffffffffffffffffffffffffffff1673ffffffffffffffffffffffffffffffffffffffff16815260200190815260200160002060008373ffffffffffffffffffffffffffffffffffffffff1673ffffffffffffffffffffffffffffffffffffffff16815260200190815260200160002054905092915050565b600a818154811061120257600080fd5b906000526020600020016000915054906101000a900473ffffffffffffffffffffffffffffffffffffffff1681565b600033905090565b600073ffffffffffffffffffffffffffffffffffffffff168373ffffffffffffffffffffffffffffffffffffffff1614156112a9576040517f08c379a00000000000000000000000000000000000000000000000000000000081526004016112a090612413565b60405180910390fd5b600073ffffffffffffffffffffffffffffffffffffffff168273ffffffffffffffffffffffffffffffffffffffff161415611319576040517f08c379a000000000000000000000000000000000000000000000000000000000815260040161131090612393565b60405180910390fd5b80600160008573ffffffffffffffffffffffffffffffffffffffff1673ffffffffffffffffffffffffffffffffffffffff16815260200190815260200160002060008473ffffffffffffffffffffffffffffffffffffffff1673ffffffffffffffffffffffffffffffffffffffff168152602001908152602001600020819055508173ffffffffffffffffffffffffffffffffffffffff168373ffffffffffffffffffffffffffffffffffffffff167f8c5be1e5ebec7d5bd14f71427d1e84f3dd0314c0f7b2291e5b200ac8c7c3b925836040516113f79190612473565b60405180910390a3505050565b6000818361141291906124c5565b905092915050565b60008183611428919061254c565b905092915050565b6000818361143e919061251b565b905092915050565b600080600d60009054906101000a900473ffffffffffffffffffffffffffffffffffffffff1673ffffffffffffffffffffffffffffffffffffffff1663e7572230856040518263ffffffff1660e01b81526004016114a49190612473565b60206040518083038186803b1580156114bc57600080fd5b505afa1580156114d0573d6000803e3d6000fd5b505050506040513d601f19601f820116820180604052508101906114f49190612033565b90506000811461152a57611525600754611517858461141a90919063ffffffff16565b61143090919063ffffffff16565b61152d565b60005b91505092915050565b600073ffffffffffffffffffffffffffffffffffffffff168273ffffffffffffffffffffffffffffffffffffffff1614156115a6576040517f08c379a000000000000000000000000000000000000000000000000000000000815260040161159d90612453565b60405180910390fd5b6115b260008383611e55565b80600260008282546115c491906124c5565b92505081905550806000808473ffffffffffffffffffffffffffffffffffffffff1673ffffffffffffffffffffffffffffffffffffffff168152602001908152602001600020600082825461161991906124c5565b925050819055508173ffffffffffffffffffffffffffffffffffffffff16600073ffffffffffffffffffffffffffffffffffffffff167fddf252ad1be2c89b69c2b068fc378daa952ba7f163c4a11628f55a4df523b3ef8360405161167e9190612473565b60405180910390a361169260008383611e5a565b5050565b60006116a2848461116b565b90507fffffffffffffffffffffffffffffffffffffffffffffffffffffffffffffffff811461171c578181101561170e576040517f08c379a0000000000000000000000000000000000000000000000000000000008152600401611705906123b3565b60405180910390fd5b61171b8484848403611239565b5b50505050565b600073ffffffffffffffffffffffffffffffffffffffff168373ffffffffffffffffffffffffffffffffffffffff161415611792576040517f08c379a0000000000000000000000000000000000000000000000000000000008152600401611789906123f3565b60405180910390fd5b600073ffffffffffffffffffffffffffffffffffffffff168273ffffffffffffffffffffffffffffffffffffffff161415611802576040517f08c379a00000000000000000000000000000000000000000000000000000000081526004016117f990612353565b60405180910390fd5b61180d838383611e55565b60008060008573ffffffffffffffffffffffffffffffffffffffff1673ffffffffffffffffffffffffffffffffffffffff16815260200190815260200160002054905061187960075461186b6009548461141a90919063ffffffff16565b61143090919063ffffffff16565b82111561188557600080fd5b600061189c6009548461143090919063ffffffff16565b90506118b18183611c6890919063ffffffff16565b6000808773ffffffffffffffffffffffffffffffffffffffff1673ffffffffffffffffffffffffffffffffffffffff16815260200190815260200160002081905550826000808673ffffffffffffffffffffffffffffffffffffffff1673ffffffffffffffffffffffffffffffffffffffff168152602001908152602001600020600082825461194191906124c5565b925050819055508373ffffffffffffffffffffffffffffffffffffffff168573ffffffffffffffffffffffffffffffffffffffff167fddf252ad1be2c89b69c2b068fc378daa952ba7f163c4a11628f55a4df523b3ef856040516119a59190612473565b60405180910390a36119b8858585611e5a565b5050505050565b600080600e60008481526020019081526020016000206040518060a00160405290816000820160009054906101000a900473ffffffffffffffffffffffffffffffffffffffff1673ffffffffffffffffffffffffffffffffffffffff1673ffffffffffffffffffffffffffffffffffffffff16815260200160018201548152602001600282015481526020016003820154815260200160048201548152505090506000611a7482602001518360400151611446565b9050600854611aa482611a96600754866060015161141a90919063ffffffff16565b61143090919063ffffffff16565b11158015611ac4575060008114158015611ac357506000826060015114155b5b92505050919050565b6000600e600083815260200190815260200160002090506000600a826001015481548110611b24577f4e487b7100000000000000000000000000000000000000000000000000000000600052603260045260246000fd5b9060005260206000200160009054906101000a900473ffffffffffffffffffffffffffffffffffffffff169050611b883330611b83600754611b75600954886003015461141a90919063ffffffff16565b61143090919063ffffffff16565b610974565b611b9157600080fd5b8073ffffffffffffffffffffffffffffffffffffffff1663a9059cbb3384600201546040518363ffffffff1660e01b8152600401611bd092919061229a565b602060405180830381600087803b158015611bea57600080fd5b505af1158015611bfe573d6000803e3d6000fd5b505050506040513d601f19601f82011682018060405250810190611c229190611fb8565b5060008260020181905550600082600301819055506001600f600085815260200190815260200160002060006101000a81548160ff021916908315150217905550505050565b60008183611c7691906125a6565b905092915050565b600073ffffffffffffffffffffffffffffffffffffffff168273ffffffffffffffffffffffffffffffffffffffff161415611cee576040517f08c379a0000000000000000000000000000000000000000000000000000000008152600401611ce5906123d3565b60405180910390fd5b611cfa82600083611e55565b60008060008473ffffffffffffffffffffffffffffffffffffffff1673ffffffffffffffffffffffffffffffffffffffff16815260200190815260200160002054905081811015611d80576040517f08c379a0000000000000000000000000000000000000000000000000000000008152600401611d7790612373565b60405180910390fd5b8181036000808573ffffffffffffffffffffffffffffffffffffffff1673ffffffffffffffffffffffffffffffffffffffff168152602001908152602001600020819055508160026000828254611dd791906125a6565b92505081905550600073ffffffffffffffffffffffffffffffffffffffff168373ffffffffffffffffffffffffffffffffffffffff167fddf252ad1be2c89b69c2b068fc378daa952ba7f163c4a11628f55a4df523b3ef84604051611e3c9190612473565b60405180910390a3611e5083600084611e5a565b505050565b505050565b505050565b600081359050611e6e81612a00565b92915050565b600081519050611e8381612a17565b92915050565b600081359050611e9881612a2e565b92915050565b600081359050611ead81612a45565b92915050565b600081519050611ec281612a45565b92915050565b600060208284031215611eda57600080fd5b6000611ee884828501611e5f565b91505092915050565b60008060408385031215611f0457600080fd5b6000611f1285828601611e5f565b9250506020611f2385828601611e5f565b9150509250929050565b600080600060608486031215611f4257600080fd5b6000611f5086828701611e5f565b9350506020611f6186828701611e5f565b9250506040611f7286828701611e9e565b9150509250925092565b60008060408385031215611f8f57600080fd5b6000611f9d85828601611e5f565b9250506020611fae85828601611e9e565b9150509250929050565b600060208284031215611fca57600080fd5b6000611fd884828501611e74565b91505092915050565b600060208284031215611ff357600080fd5b600061200184828501611e89565b91505092915050565b60006020828403121561201c57600080fd5b600061202a84828501611e9e565b91505092915050565b60006020828403121561204557600080fd5b600061205384828501611eb3565b91505092915050565b6000806040838503121561206f57600080fd5b600061207d85828601611e9e565b925050602061208e85828601611e9e565b9150509250929050565b6120a1816125da565b82525050565b6120b0816125ec565b82525050565b60006120c1826124a9565b6120cb81856124b4565b93506120db818560208601612639565b6120e481612774565b840191505092915050565b60006120fc6023836124b4565b915061210782612785565b604082019050919050565b600061211f6022836124b4565b915061212a826127d4565b604082019050919050565b60006121426022836124b4565b915061214d82612823565b604082019050919050565b6000612165601d836124b4565b915061217082612872565b602082019050919050565b60006121886021836124b4565b91506121938261289b565b604082019050919050565b60006121ab6025836124b4565b91506121b6826128ea565b604082019050919050565b60006121ce6024836124b4565b91506121d982612939565b604082019050919050565b60006121f16025836124b4565b91506121fc82612988565b604082019050919050565b6000612214601f836124b4565b915061221f826129d7565b602082019050919050565b61223381612622565b82525050565b6122428161262c565b82525050565b600060208201905061225d6000830184612098565b92915050565b60006060820190506122786000830186612098565b6122856020830185612098565b612292604083018461222a565b949350505050565b60006040820190506122af6000830185612098565b6122bc602083018461222a565b9392505050565b600060a0820190506122d86000830188612098565b6122e5602083018761222a565b6122f2604083018661222a565b6122ff606083018561222a565b61230c608083018461222a565b9695505050505050565b600060208201905061232b60008301846120a7565b92915050565b6000602082019050818103600083015261234b81846120b6565b905092915050565b6000602082019050818103600083015261236c816120ef565b9050919050565b6000602082019050818103600083015261238c81612112565b9050919050565b600060208201905081810360008301526123ac81612135565b9050919050565b600060208201905081810360008301526123cc81612158565b9050919050565b600060208201905081810360008301526123ec8161217b565b9050919050565b6000602082019050818103600083015261240c8161219e565b9050919050565b6000602082019050818103600083015261242c816121c1565b9050919050565b6000602082019050818103600083015261244c816121e4565b9050919050565b6000602082019050818103600083015261246c81612207565b9050919050565b6000602082019050612488600083018461222a565b92915050565b60006020820190506124a36000830184612239565b92915050565b600081519050919050565b600082825260208201905092915050565b60006124d082612622565b91506124db83612622565b9250827fffffffffffffffffffffffffffffffffffffffffffffffffffffffffffffffff038211156125105761250f6126e7565b5b828201905092915050565b600061252682612622565b915061253183612622565b92508261254157612540612716565b5b828204905092915050565b600061255782612622565b915061256283612622565b9250817fffffffffffffffffffffffffffffffffffffffffffffffffffffffffffffffff048311821515161561259b5761259a6126e7565b5b828202905092915050565b60006125b182612622565b91506125bc83612622565b9250828210156125cf576125ce6126e7565b5b828203905092915050565b60006125e582612602565b9050919050565b60008115159050919050565b6000819050919050565b600073ffffffffffffffffffffffffffffffffffffffff82169050919050565b6000819050919050565b600060ff82169050919050565b60005b8381101561265757808201518184015260208101905061263c565b83811115612666576000848401525b50505050565b6000600282049050600182168061268457607f821691505b6020821081141561269857612697612745565b5b50919050565b60006126a982612622565b91507fffffffffffffffffffffffffffffffffffffffffffffffffffffffffffffffff8214156126dc576126db6126e7565b5b600182019050919050565b7f4e487b7100000000000000000000000000000000000000000000000000000000600052601160045260246000fd5b7f4e487b7100000000000000000000000000000000000000000000000000000000600052601260045260246000fd5b7f4e487b7100000000000000000000000000000000000000000000000000000000600052602260045260246000fd5b6000601f19601f8301169050919050565b7f45524332303a207472616e7366657220746f20746865207a65726f206164647260008201527f6573730000000000000000000000000000000000000000000000000000000000602082015250565b7f45524332303a206275726e20616d6f756e7420657863656564732062616c616e60008201527f6365000000000000000000000000000000000000000000000000000000000000602082015250565b7f45524332303a20617070726f766520746f20746865207a65726f20616464726560008201527f7373000000000000000000000000000000000000000000000000000000000000602082015250565b7f45524332303a20696e73756666696369656e7420616c6c6f77616e6365000000600082015250565b7f45524332303a206275726e2066726f6d20746865207a65726f2061646472657360008201527f7300000000000000000000000000000000000000000000000000000000000000602082015250565b7f45524332303a207472616e736665722066726f6d20746865207a65726f20616460008201527f6472657373000000000000000000000000000000000000000000000000000000602082015250565b7f45524332303a20617070726f76652066726f6d20746865207a65726f2061646460008201527f7265737300000000000000000000000000000000000000000000000000000000602082015250565b7f45524332303a2064656372656173656420616c6c6f77616e63652062656c6f7760008201527f207a65726f000000000000000000000000000000000000000000000000000000602082015250565b7f45524332303a206d696e7420746f20746865207a65726f206164647265737300600082015250565b612a09816125da565b8114612a1457600080fd5b50565b612a20816125ec565b8114612a2b57600080fd5b50565b612a37816125f8565b8114612a4257600080fd5b50565b612a4e81612622565b8114612a5957600080fd5b5056fea2646970667358221220d5dcdb9ad629b5c2c193064d3300cc72aa9d5962b13286f420d978d21d0f50df64736f6c63430008040033",
  "linkReferences": {},
  "deployedLinkReferences": {}
}