{
  "_format": "hh-sol-artifact-1",
  "contractName": "FxUSD",
  "sourceName": "contracts/Vaults/FxUSD.sol",
  "abi": [
    {
      "inputs": [
        {
          "internalType": "address[]",
          "name": "_collateralWhitelist",
          "type": "address[]"
        },
        {
          "internalType": "address",
          "name": "_oracle",
          "type": "address"
        },
        {
          "internalType": "address",
          "name": "_OrderBook",
          "type": "address"
        },
        {
          "internalType": "uint256",
          "name": "_debtTokenIndex",
          "type": "uint256"
        },
        {
          "internalType": "string",
          "name": "_name",
          "type": "string"
        },
        {
          "internalType": "string",
          "name": "_symbol",
          "type": "string"
        }
      ],
      "stateMutability": "nonpayable",
      "type": "constructor"
    },
    {
      "anonymous": false,
      "inputs": [
        {
          "indexed": true,
          "internalType": "address",
          "name": "owner",
          "type": "address"
        },
        {
          "indexed": true,
          "internalType": "address",
          "name": "spender",
          "type": "address"
        },
        {
          "indexed": false,
          "internalType": "uint256",
          "name": "value",
          "type": "uint256"
        }
      ],
      "name": "Approval",
      "type": "event"
    },
    {
      "anonymous": false,
      "inputs": [
        {
          "indexed": true,
          "internalType": "address",
          "name": "from",
          "type": "address"
        },
        {
          "indexed": true,
          "internalType": "address",
          "name": "to",
          "type": "address"
        },
        {
          "indexed": false,
          "internalType": "uint256",
          "name": "value",
          "type": "uint256"
        }
      ],
      "name": "Transfer",
      "type": "event"
    },
    {
      "inputs": [],
      "name": "DYNAMIC_BALANCE_MULTIPLIER",
      "outputs": [
        {
          "internalType": "uint256",
          "name": "",
          "type": "uint256"
        }
      ],
      "stateMutability": "view",
      "type": "function"
    },
    {
      "inputs": [
        {
          "internalType": "uint256",
          "name": "",
          "type": "uint256"
        }
      ],
      "name": "Vaults",
      "outputs": [
        {
          "internalType": "address",
          "name": "Owner",
          "type": "address"
        },
        {
          "internalType": "uint256",
          "name": "CollateralIndex",
          "type": "uint256"
        },
        {
          "internalType": "uint256",
          "name": "Collateral",
          "type": "uint256"
        },
        {
          "internalType": "uint256",
          "name": "Debt",
          "type": "uint256"
        },
        {
          "internalType": "uint256",
          "name": "ID",
          "type": "uint256"
        }
      ],
      "stateMutability": "view",
      "type": "function"
    },
    {
      "inputs": [
        {
          "internalType": "address",
          "name": "_collateral",
          "type": "address"
        }
      ],
      "name": "addCollateralOption",
      "outputs": [],
      "stateMutability": "nonpayable",
      "type": "function"
    },
    {
      "inputs": [
        {
          "internalType": "address",
          "name": "owner",
          "type": "address"
        },
        {
          "internalType": "address",
          "name": "spender",
          "type": "address"
        }
      ],
      "name": "allowance",
      "outputs": [
        {
          "internalType": "uint256",
          "name": "",
          "type": "uint256"
        }
      ],
      "stateMutability": "view",
      "type": "function"
    },
    {
      "inputs": [
        {
          "internalType": "address",
          "name": "spender",
          "type": "address"
        },
        {
          "internalType": "uint256",
          "name": "amount",
          "type": "uint256"
        }
      ],
      "name": "approve",
      "outputs": [
        {
          "internalType": "bool",
          "name": "",
          "type": "bool"
        }
      ],
      "stateMutability": "nonpayable",
      "type": "function"
    },
    {
      "inputs": [
        {
          "internalType": "address",
          "name": "account",
          "type": "address"
        }
      ],
      "name": "balanceOf",
      "outputs": [
        {
          "internalType": "uint256",
          "name": "",
          "type": "uint256"
        }
      ],
      "stateMutability": "view",
      "type": "function"
    },
    {
      "inputs": [
        {
          "internalType": "uint256",
          "name": "_vaultID",
          "type": "uint256"
        },
        {
          "internalType": "uint256",
          "name": "_amount",
          "type": "uint256"
        }
      ],
      "name": "borrow",
      "outputs": [],
      "stateMutability": "nonpayable",
      "type": "function"
    },
    {
      "inputs": [
        {
          "internalType": "uint256",
          "name": "_vaultID",
          "type": "uint256"
        }
      ],
      "name": "closePosition",
      "outputs": [],
      "stateMutability": "nonpayable",
      "type": "function"
    },
    {
      "inputs": [
        {
          "internalType": "uint256",
          "name": "",
          "type": "uint256"
        }
      ],
      "name": "collateralWhitelist",
      "outputs": [
        {
          "internalType": "address",
          "name": "",
          "type": "address"
        }
      ],
      "stateMutability": "view",
      "type": "function"
    },
    {
      "inputs": [],
      "name": "decimals",
      "outputs": [
        {
          "internalType": "uint8",
          "name": "",
          "type": "uint8"
        }
      ],
      "stateMutability": "view",
      "type": "function"
    },
    {
      "inputs": [
        {
          "internalType": "address",
          "name": "spender",
          "type": "address"
        },
        {
          "internalType": "uint256",
          "name": "subtractedValue",
          "type": "uint256"
        }
      ],
      "name": "decreaseAllowance",
      "outputs": [
        {
          "internalType": "bool",
          "name": "",
          "type": "bool"
        }
      ],
      "stateMutability": "nonpayable",
      "type": "function"
    },
    {
      "inputs": [
        {
          "internalType": "address",
          "name": "spender",
          "type": "address"
        },
        {
          "internalType": "uint256",
          "name": "addedValue",
          "type": "uint256"
        }
      ],
      "name": "increaseAllowance",
      "outputs": [
        {
          "internalType": "bool",
          "name": "",
          "type": "bool"
        }
      ],
      "stateMutability": "nonpayable",
      "type": "function"
    },
    {
      "inputs": [
        {
          "internalType": "uint256",
          "name": "",
          "type": "uint256"
        }
      ],
      "name": "isClosed",
      "outputs": [
        {
          "internalType": "bool",
          "name": "",
          "type": "bool"
        }
      ],
      "stateMutability": "view",
      "type": "function"
    },
    {
      "inputs": [
        {
          "internalType": "uint256",
          "name": "_vaultID",
          "type": "uint256"
        }
      ],
      "name": "liquidate",
      "outputs": [],
      "stateMutability": "nonpayable",
      "type": "function"
    },
    {
      "inputs": [],
      "name": "name",
      "outputs": [
        {
          "internalType": "string",
          "name": "",
          "type": "string"
        }
      ],
      "stateMutability": "view",
      "type": "function"
    },
    {
      "inputs": [
        {
          "internalType": "uint256",
          "name": "_collateralIndex",
          "type": "uint256"
        }
      ],
      "name": "openVault",
      "outputs": [
        {
          "internalType": "uint256",
          "name": "",
          "type": "uint256"
        }
      ],
      "stateMutability": "nonpayable",
      "type": "function"
    },
    {
      "inputs": [
        {
          "internalType": "uint256",
          "name": "_vaultID",
          "type": "uint256"
        },
        {
          "internalType": "uint256",
          "name": "_amount",
          "type": "uint256"
        }
      ],
      "name": "repay",
      "outputs": [],
      "stateMutability": "nonpayable",
      "type": "function"
    },
    {
      "inputs": [
        {
          "internalType": "uint256",
          "name": "_vaultID",
          "type": "uint256"
        },
        {
          "internalType": "uint256",
          "name": "_amount",
          "type": "uint256"
        }
      ],
      "name": "supply",
      "outputs": [],
      "stateMutability": "nonpayable",
      "type": "function"
    },
    {
      "inputs": [],
      "name": "symbol",
      "outputs": [
        {
          "internalType": "string",
          "name": "",
          "type": "string"
        }
      ],
      "stateMutability": "view",
      "type": "function"
    },
    {
      "inputs": [],
      "name": "totalSupply",
      "outputs": [
        {
          "internalType": "uint256",
          "name": "",
          "type": "uint256"
        }
      ],
      "stateMutability": "view",
      "type": "function"
    },
    {
      "inputs": [
        {
          "internalType": "address",
          "name": "to",
          "type": "address"
        },
        {
          "internalType": "uint256",
          "name": "amount",
          "type": "uint256"
        }
      ],
      "name": "transfer",
      "outputs": [
        {
          "internalType": "bool",
          "name": "",
          "type": "bool"
        }
      ],
      "stateMutability": "nonpayable",
      "type": "function"
    },
    {
      "inputs": [
        {
          "internalType": "address",
          "name": "from",
          "type": "address"
        },
        {
          "internalType": "address",
          "name": "to",
          "type": "address"
        },
        {
          "internalType": "uint256",
          "name": "amount",
          "type": "uint256"
        }
      ],
      "name": "transferFrom",
      "outputs": [
        {
          "internalType": "bool",
          "name": "",
          "type": "bool"
        }
      ],
      "stateMutability": "nonpayable",
      "type": "function"
    },
    {
      "inputs": [
        {
          "internalType": "uint256",
          "name": "_fundingRate",
          "type": "uint256"
        }
      ],
      "name": "updateDynamicMultiplier",
      "outputs": [],
      "stateMutability": "nonpayable",
      "type": "function"
    },
    {
      "inputs": [
        {
          "internalType": "uint256",
          "name": "_vaultID",
          "type": "uint256"
        },
        {
          "internalType": "uint256",
          "name": "_amount",
          "type": "uint256"
        }
      ],
      "name": "withdraw",
      "outputs": [],
      "stateMutability": "nonpayable",
      "type": "function"
    },
    {
      "stateMutability": "payable",
      "type": "receive"
    }
  ],
  "bytecode": "0x60806040523480156200001157600080fd5b506040516200352e3803806200352e833981810160405281019062000037919062000416565b858585858585818181600390805190602001906200005792919062000195565b5080600490805190602001906200007092919062000195565b50505084600d60006101000a81548173ffffffffffffffffffffffffffffffffffffffff021916908373ffffffffffffffffffffffffffffffffffffffff1602179055508260068190555085600a9080519060200190620000d392919062000226565b50670de0b6b3a7640000600781905550670de0b6b3a764000060098190555067016345785d8a000060088190555033600b60006101000a81548173ffffffffffffffffffffffffffffffffffffffff021916908373ffffffffffffffffffffffffffffffffffffffff16021790555083600c60006101000a81548173ffffffffffffffffffffffffffffffffffffffff021916908373ffffffffffffffffffffffffffffffffffffffff16021790555050505050505050505050505062000708565b828054620001a390620005f9565b90600052602060002090601f016020900481019282620001c7576000855562000213565b82601f10620001e257805160ff191683800117855562000213565b8280016001018555821562000213579182015b8281111562000212578251825591602001919060010190620001f5565b5b509050620002229190620002b5565b5090565b828054828255906000526020600020908101928215620002a2579160200282015b82811115620002a15782518260006101000a81548173ffffffffffffffffffffffffffffffffffffffff021916908373ffffffffffffffffffffffffffffffffffffffff1602179055509160200191906001019062000247565b5b509050620002b19190620002b5565b5090565b5b80821115620002d0576000816000905550600101620002b6565b5090565b6000620002eb620002e58462000520565b620004f7565b905080838252602082019050828560208602820111156200030b57600080fd5b60005b858110156200033f57816200032488826200038e565b8452602084019350602083019250506001810190506200030e565b5050509392505050565b6000620003606200035a846200054f565b620004f7565b9050828152602081018484840111156200037957600080fd5b62000386848285620005c3565b509392505050565b6000815190506200039f81620006d4565b92915050565b600082601f830112620003b757600080fd5b8151620003c9848260208601620002d4565b91505092915050565b600082601f830112620003e457600080fd5b8151620003f684826020860162000349565b91505092915050565b6000815190506200041081620006ee565b92915050565b60008060008060008060c087890312156200043057600080fd5b600087015167ffffffffffffffff8111156200044b57600080fd5b6200045989828a01620003a5565b96505060206200046c89828a016200038e565b95505060406200047f89828a016200038e565b94505060606200049289828a01620003ff565b935050608087015167ffffffffffffffff811115620004b057600080fd5b620004be89828a01620003d2565b92505060a087015167ffffffffffffffff811115620004dc57600080fd5b620004ea89828a01620003d2565b9150509295509295509295565b60006200050362000516565b90506200051182826200062f565b919050565b6000604051905090565b600067ffffffffffffffff8211156200053e576200053d62000694565b5b602082029050602081019050919050565b600067ffffffffffffffff8211156200056d576200056c62000694565b5b6200057882620006c3565b9050602081019050919050565b6000620005928262000599565b9050919050565b600073ffffffffffffffffffffffffffffffffffffffff82169050919050565b6000819050919050565b60005b83811015620005e3578082015181840152602081019050620005c6565b83811115620005f3576000848401525b50505050565b600060028204905060018216806200061257607f821691505b6020821081141562000629576200062862000665565b5b50919050565b6200063a82620006c3565b810181811067ffffffffffffffff821117156200065c576200065b62000694565b5b80604052505050565b7f4e487b7100000000000000000000000000000000000000000000000000000000600052602260045260246000fd5b7f4e487b7100000000000000000000000000000000000000000000000000000000600052604160045260246000fd5b6000601f19601f8301169050919050565b620006df8162000585565b8114620006eb57600080fd5b50565b620006f981620005b9565b81146200070557600080fd5b50565b612e1680620007186000396000f3fe60806040526004361061014f5760003560e01c80636feba3ca116100b6578063a9059cbb1161006f578063a9059cbb146104d7578063d5c78a2814610514578063d8aed14514610551578063daecfa6c1461057a578063dd62ed3e146105a3578063fcd96b02146105e057610156565b80636feba3ca146103b757806370a08231146103e05780638f9bf8331461041d57806395d89b4114610446578063a126d60114610471578063a457c2d71461049a57610156565b8063313ce56711610108578063313ce5671461029157806339509351146102bc578063415f1240146102f9578063441a3e70146103225780635aca84151461034b578063626f5c021461038c57610156565b806304a2ce7e1461015b57806306fdde0314610198578063095ea7b3146101c35780630ecbcdab1461020057806318160ddd1461022957806323b872dd1461025457610156565b3661015657005b600080fd5b34801561016757600080fd5b50610182600480360381019061017d91906123af565b61061d565b60405161018f9190612818565b60405180910390f35b3480156101a457600080fd5b506101ad610747565b6040516101ba91906126d6565b60405180910390f35b3480156101cf57600080fd5b506101ea60048036038101906101e5919061234a565b6107d9565b6040516101f791906126bb565b60405180910390f35b34801561020c57600080fd5b5061022760048036038101906102229190612401565b6107fc565b005b34801561023557600080fd5b5061023e610a36565b60405161024b9190612818565b60405180910390f35b34801561026057600080fd5b5061027b600480360381019061027691906122fb565b610a40565b60405161028891906126bb565b60405180910390f35b34801561029d57600080fd5b506102a6610a6f565b6040516102b39190612833565b60405180910390f35b3480156102c857600080fd5b506102e360048036038101906102de919061234a565b610a78565b6040516102f091906126bb565b60405180910390f35b34801561030557600080fd5b50610320600480360381019061031b91906123af565b610aaf565b005b34801561032e57600080fd5b5061034960048036038101906103449190612401565b610afa565b005b34801561035757600080fd5b50610372600480360381019061036d91906123af565b610d3a565b604051610383959493929190612668565b60405180910390f35b34801561039857600080fd5b506103a1610da0565b6040516103ae9190612818565b60405180910390f35b3480156103c357600080fd5b506103de60048036038101906103d99190612296565b610da6565b005b3480156103ec57600080fd5b5061040760048036038101906104029190612296565b610e66565b6040516104149190612818565b60405180910390f35b34801561042957600080fd5b50610444600480360381019061043f91906123af565b610eae565b005b34801561045257600080fd5b5061045b610f40565b60405161046891906126d6565b60405180910390f35b34801561047d57600080fd5b50610498600480360381019061049391906123af565b610fd2565b005b3480156104a657600080fd5b506104c160048036038101906104bc919061234a565b611134565b6040516104ce91906126bb565b60405180910390f35b3480156104e357600080fd5b506104fe60048036038101906104f9919061234a565b6111ab565b60405161050b91906126bb565b60405180910390f35b34801561052057600080fd5b5061053b600480360381019061053691906123af565b6111ce565b60405161054891906126bb565b60405180910390f35b34801561055d57600080fd5b5061057860048036038101906105739190612401565b6111ee565b005b34801561058657600080fd5b506105a1600480360381019061059c9190612401565b6112c3565b005b3480156105af57600080fd5b506105ca60048036038101906105c591906122bf565b611466565b6040516105d79190612818565b60405180910390f35b3480156105ec57600080fd5b50610607600480360381019061060291906123af565b6114ed565b60405161061491906125ed565b60405180910390f35b6000806040518060a001604052803373ffffffffffffffffffffffffffffffffffffffff1681526020018481526020016000815260200160008152602001600554815250905080600e8260800151815481106106a2577f4e487b7100000000000000000000000000000000000000000000000000000000600052603260045260246000fd5b906000526020600020906005020160008201518160000160006101000a81548173ffffffffffffffffffffffffffffffffffffffff021916908373ffffffffffffffffffffffffffffffffffffffff160217905550602082015181600101556040820151816002015560608201518160030155608082015181600401559050506005600081548092919061073590612a39565b91905055508060800151915050919050565b60606003805461075690612a07565b80601f016020809104026020016040519081016040528092919081815260200182805461078290612a07565b80156107cf5780601f106107a4576101008083540402835291602001916107cf565b820191906000526020600020905b8154815290600101906020018083116107b257829003601f168201915b5050505050905090565b6000806107e461152c565b90506107f1818585611534565b600191505092915050565b816000600e8281548110610839577f4e487b7100000000000000000000000000000000000000000000000000000000600052603260045260246000fd5b90600052602060002090600502016040518060a00160405290816000820160009054906101000a900473ffffffffffffffffffffffffffffffffffffffff1673ffffffffffffffffffffffffffffffffffffffff1673ffffffffffffffffffffffffffffffffffffffff1681526020016001820154815260200160028201548152602001600382015481526020016004820154815250509050806000015173ffffffffffffffffffffffffffffffffffffffff163373ffffffffffffffffffffffffffffffffffffffff161461090e57600080fd5b83600f600082815260200190815260200160002060009054906101000a900460ff161561093a57600080fd5b6000600e8681548110610976577f4e487b7100000000000000000000000000000000000000000000000000000000600052603260045260246000fd5b90600052602060002090600502019050600061099f8683600301546116ff90919063ffffffff16565b905060006109cc6007546109be6009548561171590919063ffffffff16565b61172b90919063ffffffff16565b905060006109e284600101548560020154611741565b9050600854610a0e82610a006007548661171590919063ffffffff16565b61172b90919063ffffffff16565b11610a1857600080fd5b828460030181905550610a2b3389611831565b505050505050505050565b6000600254905090565b600080610a4b61152c565b9050610a58858285611991565b610a63858585611a1d565b60019150509392505050565b60006012905090565b600080610a8361152c565b9050610aa4818585610a958589611466565b610a9f919061286a565b611534565b600191505092915050565b80600f600082815260200190815260200160002060009054906101000a900460ff1615610adb57600080fd5b610ae482611cba565b610aed57600080fd5b610af682611dfd565b5050565b816000600e8281548110610b37577f4e487b7100000000000000000000000000000000000000000000000000000000600052603260045260246000fd5b90600052602060002090600502016040518060a00160405290816000820160009054906101000a900473ffffffffffffffffffffffffffffffffffffffff1673ffffffffffffffffffffffffffffffffffffffff1673ffffffffffffffffffffffffffffffffffffffff1681526020016001820154815260200160028201548152602001600382015481526020016004820154815250509050806000015173ffffffffffffffffffffffffffffffffffffffff163373ffffffffffffffffffffffffffffffffffffffff1614610c0c57600080fd5b83600f600082815260200190815260200160002060009054906101000a900460ff1615610c3857600080fd5b6000600e8681548110610c74577f4e487b7100000000000000000000000000000000000000000000000000000000600052603260045260246000fd5b906000526020600020906005020190506000610caa8260010154610ca588856002015461204b90919063ffffffff16565b611741565b90506000610cdb600754610ccd600954866003015461171590919063ffffffff16565b61172b90919063ffffffff16565b9050600854610d0783610cf96007548561171590919063ffffffff16565b61172b90919063ffffffff16565b11610d1157600080fd5b610d2887846002015461204b90919063ffffffff16565b83600201819055505050505050505050565b600e8181548110610d4a57600080fd5b90600052602060002090600502016000915090508060000160009054906101000a900473ffffffffffffffffffffffffffffffffffffffff16908060010154908060020154908060030154908060040154905085565b60095481565b600b60009054906101000a900473ffffffffffffffffffffffffffffffffffffffff1673ffffffffffffffffffffffffffffffffffffffff163373ffffffffffffffffffffffffffffffffffffffff1614610e0057600080fd5b600a819080600181540180825580915050600190039060005260206000200160009091909190916101000a81548173ffffffffffffffffffffffffffffffffffffffff021916908373ffffffffffffffffffffffffffffffffffffffff16021790555050565b60008060008373ffffffffffffffffffffffffffffffffffffffff1673ffffffffffffffffffffffffffffffffffffffff168152602001908152602001600020549050919050565b600c60009054906101000a900473ffffffffffffffffffffffffffffffffffffffff1673ffffffffffffffffffffffffffffffffffffffff163373ffffffffffffffffffffffffffffffffffffffff1614610f0857600080fd5b6000610f1f8260095461171590919063ffffffff16565b9050610f366007548261172b90919063ffffffff16565b6009819055505050565b606060048054610f4f90612a07565b80601f0160208091040260200160405190810160405280929190818152602001828054610f7b90612a07565b8015610fc85780601f10610f9d57610100808354040283529160200191610fc8565b820191906000526020600020905b815481529060010190602001808311610fab57829003601f168201915b5050505050905090565b6005546000600e8281548110611011577f4e487b7100000000000000000000000000000000000000000000000000000000600052603260045260246000fd5b90600052602060002090600502016040518060a00160405290816000820160009054906101000a900473ffffffffffffffffffffffffffffffffffffffff1673ffffffffffffffffffffffffffffffffffffffff1673ffffffffffffffffffffffffffffffffffffffff1681526020016001820154815260200160028201548152602001600382015481526020016004820154815250509050806000015173ffffffffffffffffffffffffffffffffffffffff163373ffffffffffffffffffffffffffffffffffffffff16146110e657600080fd5b82600f600082815260200190815260200160002060009054906101000a900460ff161561111257600080fd5b61111b84611cba565b1561112557600080fd5b61112e84611dfd565b50505050565b60008061113f61152c565b9050600061114d8286611466565b905083811015611192576040517f08c379a0000000000000000000000000000000000000000000000000000000008152600401611189906127d8565b60405180910390fd5b61119f8286868403611534565b60019250505092915050565b6000806111b661152c565b90506111c3818585611a1d565b600191505092915050565b600f6020528060005260406000206000915054906101000a900460ff1681565b81600f600082815260200190815260200160002060009054906101000a900460ff161561121a57600080fd5b6000600e8481548110611256577f4e487b7100000000000000000000000000000000000000000000000000000000600052603260045260246000fd5b9060005260206000209060050201905060006112916009546112836007548761171590919063ffffffff16565b61172b90919063ffffffff16565b90506112aa81836003015461204b90919063ffffffff16565b82600301819055506112bc3385612061565b5050505050565b81600f600082815260200190815260200160002060009054906101000a900460ff16156112ef57600080fd5b6000600e848154811061132b577f4e487b7100000000000000000000000000000000000000000000000000000000600052603260045260246000fd5b906000526020600020906005020190506000600a82600101548154811061137b577f4e487b7100000000000000000000000000000000000000000000000000000000600052603260045260246000fd5b9060005260206000200160009054906101000a900473ffffffffffffffffffffffffffffffffffffffff1690508073ffffffffffffffffffffffffffffffffffffffff166323b872dd3330876040518463ffffffff1660e01b81526004016113e593929190612608565b602060405180830381600087803b1580156113ff57600080fd5b505af1158015611413573d6000803e3d6000fd5b505050506040513d601f19601f820116820180604052508101906114379190612386565b61144057600080fd5b6114578483600201546116ff90919063ffffffff16565b82600201819055505050505050565b6000600160008473ffffffffffffffffffffffffffffffffffffffff1673ffffffffffffffffffffffffffffffffffffffff16815260200190815260200160002060008373ffffffffffffffffffffffffffffffffffffffff1673ffffffffffffffffffffffffffffffffffffffff16815260200190815260200160002054905092915050565b600a81815481106114fd57600080fd5b906000526020600020016000915054906101000a900473ffffffffffffffffffffffffffffffffffffffff1681565b600033905090565b600073ffffffffffffffffffffffffffffffffffffffff168373ffffffffffffffffffffffffffffffffffffffff1614156115a4576040517f08c379a000000000000000000000000000000000000000000000000000000000815260040161159b906127b8565b60405180910390fd5b600073ffffffffffffffffffffffffffffffffffffffff168273ffffffffffffffffffffffffffffffffffffffff161415611614576040517f08c379a000000000000000000000000000000000000000000000000000000000815260040161160b90612738565b60405180910390fd5b80600160008573ffffffffffffffffffffffffffffffffffffffff1673ffffffffffffffffffffffffffffffffffffffff16815260200190815260200160002060008473ffffffffffffffffffffffffffffffffffffffff1673ffffffffffffffffffffffffffffffffffffffff168152602001908152602001600020819055508173ffffffffffffffffffffffffffffffffffffffff168373ffffffffffffffffffffffffffffffffffffffff167f8c5be1e5ebec7d5bd14f71427d1e84f3dd0314c0f7b2291e5b200ac8c7c3b925836040516116f29190612818565b60405180910390a3505050565b6000818361170d919061286a565b905092915050565b6000818361172391906128f1565b905092915050565b6000818361173991906128c0565b905092915050565b600080600d60009054906101000a900473ffffffffffffffffffffffffffffffffffffffff1673ffffffffffffffffffffffffffffffffffffffff1663e7572230856040518263ffffffff1660e01b815260040161179f9190612818565b60206040518083038186803b1580156117b757600080fd5b505afa1580156117cb573d6000803e3d6000fd5b505050506040513d601f19601f820116820180604052508101906117ef91906123d8565b90506000811461182557611820600754611812858461171590919063ffffffff16565b61172b90919063ffffffff16565b611828565b60005b91505092915050565b600073ffffffffffffffffffffffffffffffffffffffff168273ffffffffffffffffffffffffffffffffffffffff1614156118a1576040517f08c379a0000000000000000000000000000000000000000000000000000000008152600401611898906127f8565b60405180910390fd5b6118ad60008383612238565b80600260008282546118bf919061286a565b92505081905550806000808473ffffffffffffffffffffffffffffffffffffffff1673ffffffffffffffffffffffffffffffffffffffff1681526020019081526020016000206000828254611914919061286a565b925050819055508173ffffffffffffffffffffffffffffffffffffffff16600073ffffffffffffffffffffffffffffffffffffffff167fddf252ad1be2c89b69c2b068fc378daa952ba7f163c4a11628f55a4df523b3ef836040516119799190612818565b60405180910390a361198d6000838361223d565b5050565b600061199d8484611466565b90507fffffffffffffffffffffffffffffffffffffffffffffffffffffffffffffffff8114611a175781811015611a09576040517f08c379a0000000000000000000000000000000000000000000000000000000008152600401611a0090612758565b60405180910390fd5b611a168484848403611534565b5b50505050565b600073ffffffffffffffffffffffffffffffffffffffff168373ffffffffffffffffffffffffffffffffffffffff161415611a8d576040517f08c379a0000000000000000000000000000000000000000000000000000000008152600401611a8490612798565b60405180910390fd5b600073ffffffffffffffffffffffffffffffffffffffff168273ffffffffffffffffffffffffffffffffffffffff161415611afd576040517f08c379a0000000000000000000000000000000000000000000000000000000008152600401611af4906126f8565b60405180910390fd5b611b08838383612238565b60008060008573ffffffffffffffffffffffffffffffffffffffff1673ffffffffffffffffffffffffffffffffffffffff168152602001908152602001600020549050611b74600754611b666009548461171590919063ffffffff16565b61172b90919063ffffffff16565b821115611b8057600080fd5b6000611b976009548461172b90919063ffffffff16565b9050611bac818361204b90919063ffffffff16565b6000808773ffffffffffffffffffffffffffffffffffffffff1673ffffffffffffffffffffffffffffffffffffffff16815260200190815260200160002081905550826000808673ffffffffffffffffffffffffffffffffffffffff1673ffffffffffffffffffffffffffffffffffffffff1681526020019081526020016000206000828254611c3c919061286a565b925050819055508373ffffffffffffffffffffffffffffffffffffffff168573ffffffffffffffffffffffffffffffffffffffff167fddf252ad1be2c89b69c2b068fc378daa952ba7f163c4a11628f55a4df523b3ef85604051611ca09190612818565b60405180910390a3611cb385858561223d565b5050505050565b600080600e8381548110611cf7577f4e487b7100000000000000000000000000000000000000000000000000000000600052603260045260246000fd5b90600052602060002090600502016040518060a00160405290816000820160009054906101000a900473ffffffffffffffffffffffffffffffffffffffff1673ffffffffffffffffffffffffffffffffffffffff1673ffffffffffffffffffffffffffffffffffffffff16815260200160018201548152602001600282015481526020016003820154815260200160048201548152505090506000611da482602001518360400151611741565b9050600854611dd482611dc6600754866060015161171590919063ffffffff16565b61172b90919063ffffffff16565b11158015611df4575060008114158015611df357506000826060015114155b5b92505050919050565b6000600e8281548110611e39577f4e487b7100000000000000000000000000000000000000000000000000000000600052603260045260246000fd5b906000526020600020906005020190506000600a826001015481548110611e89577f4e487b7100000000000000000000000000000000000000000000000000000000600052603260045260246000fd5b9060005260206000200160009054906101000a900473ffffffffffffffffffffffffffffffffffffffff169050611eed3330611ee8600754611eda600954886003015461171590919063ffffffff16565b61172b90919063ffffffff16565b610a40565b611ef657600080fd5b8073ffffffffffffffffffffffffffffffffffffffff1663a9059cbb3384600201546040518363ffffffff1660e01b8152600401611f3592919061263f565b602060405180830381600087803b158015611f4f57600080fd5b505af1158015611f63573d6000803e3d6000fd5b505050506040513d601f19601f82011682018060405250810190611f879190612386565b50600e8381548110611fc2577f4e487b7100000000000000000000000000000000000000000000000000000000600052603260045260246000fd5b9060005260206000209060050201600080820160006101000a81549073ffffffffffffffffffffffffffffffffffffffff0219169055600182016000905560028201600090556003820160009055600482016000905550506001600f600085815260200190815260200160002060006101000a81548160ff021916908315150217905550505050565b60008183612059919061294b565b905092915050565b600073ffffffffffffffffffffffffffffffffffffffff168273ffffffffffffffffffffffffffffffffffffffff1614156120d1576040517f08c379a00000000000000000000000000000000000000000000000000000000081526004016120c890612778565b60405180910390fd5b6120dd82600083612238565b60008060008473ffffffffffffffffffffffffffffffffffffffff1673ffffffffffffffffffffffffffffffffffffffff16815260200190815260200160002054905081811015612163576040517f08c379a000000000000000000000000000000000000000000000000000000000815260040161215a90612718565b60405180910390fd5b8181036000808573ffffffffffffffffffffffffffffffffffffffff1673ffffffffffffffffffffffffffffffffffffffff1681526020019081526020016000208190555081600260008282546121ba919061294b565b92505081905550600073ffffffffffffffffffffffffffffffffffffffff168373ffffffffffffffffffffffffffffffffffffffff167fddf252ad1be2c89b69c2b068fc378daa952ba7f163c4a11628f55a4df523b3ef8460405161221f9190612818565b60405180910390a36122338360008461223d565b505050565b505050565b505050565b60008135905061225181612d9b565b92915050565b60008151905061226681612db2565b92915050565b60008135905061227b81612dc9565b92915050565b60008151905061229081612dc9565b92915050565b6000602082840312156122a857600080fd5b60006122b684828501612242565b91505092915050565b600080604083850312156122d257600080fd5b60006122e085828601612242565b92505060206122f185828601612242565b9150509250929050565b60008060006060848603121561231057600080fd5b600061231e86828701612242565b935050602061232f86828701612242565b92505060406123408682870161226c565b9150509250925092565b6000806040838503121561235d57600080fd5b600061236b85828601612242565b925050602061237c8582860161226c565b9150509250929050565b60006020828403121561239857600080fd5b60006123a684828501612257565b91505092915050565b6000602082840312156123c157600080fd5b60006123cf8482850161226c565b91505092915050565b6000602082840312156123ea57600080fd5b60006123f884828501612281565b91505092915050565b6000806040838503121561241457600080fd5b60006124228582860161226c565b92505060206124338582860161226c565b9150509250929050565b6124468161297f565b82525050565b61245581612991565b82525050565b60006124668261284e565b6124708185612859565b93506124808185602086016129d4565b61248981612b0f565b840191505092915050565b60006124a1602383612859565b91506124ac82612b20565b604082019050919050565b60006124c4602283612859565b91506124cf82612b6f565b604082019050919050565b60006124e7602283612859565b91506124f282612bbe565b604082019050919050565b600061250a601d83612859565b915061251582612c0d565b602082019050919050565b600061252d602183612859565b915061253882612c36565b604082019050919050565b6000612550602583612859565b915061255b82612c85565b604082019050919050565b6000612573602483612859565b915061257e82612cd4565b604082019050919050565b6000612596602583612859565b91506125a182612d23565b604082019050919050565b60006125b9601f83612859565b91506125c482612d72565b602082019050919050565b6125d8816129bd565b82525050565b6125e7816129c7565b82525050565b6000602082019050612602600083018461243d565b92915050565b600060608201905061261d600083018661243d565b61262a602083018561243d565b61263760408301846125cf565b949350505050565b6000604082019050612654600083018561243d565b61266160208301846125cf565b9392505050565b600060a08201905061267d600083018861243d565b61268a60208301876125cf565b61269760408301866125cf565b6126a460608301856125cf565b6126b160808301846125cf565b9695505050505050565b60006020820190506126d0600083018461244c565b92915050565b600060208201905081810360008301526126f0818461245b565b905092915050565b6000602082019050818103600083015261271181612494565b9050919050565b60006020820190508181036000830152612731816124b7565b9050919050565b60006020820190508181036000830152612751816124da565b9050919050565b60006020820190508181036000830152612771816124fd565b9050919050565b6000602082019050818103600083015261279181612520565b9050919050565b600060208201905081810360008301526127b181612543565b9050919050565b600060208201905081810360008301526127d181612566565b9050919050565b600060208201905081810360008301526127f181612589565b9050919050565b60006020820190508181036000830152612811816125ac565b9050919050565b600060208201905061282d60008301846125cf565b92915050565b600060208201905061284860008301846125de565b92915050565b600081519050919050565b600082825260208201905092915050565b6000612875826129bd565b9150612880836129bd565b9250827fffffffffffffffffffffffffffffffffffffffffffffffffffffffffffffffff038211156128b5576128b4612a82565b5b828201905092915050565b60006128cb826129bd565b91506128d6836129bd565b9250826128e6576128e5612ab1565b5b828204905092915050565b60006128fc826129bd565b9150612907836129bd565b9250817fffffffffffffffffffffffffffffffffffffffffffffffffffffffffffffffff04831182151516156129405761293f612a82565b5b828202905092915050565b6000612956826129bd565b9150612961836129bd565b92508282101561297457612973612a82565b5b828203905092915050565b600061298a8261299d565b9050919050565b60008115159050919050565b600073ffffffffffffffffffffffffffffffffffffffff82169050919050565b6000819050919050565b600060ff82169050919050565b60005b838110156129f25780820151818401526020810190506129d7565b83811115612a01576000848401525b50505050565b60006002820490506001821680612a1f57607f821691505b60208210811415612a3357612a32612ae0565b5b50919050565b6000612a44826129bd565b91507fffffffffffffffffffffffffffffffffffffffffffffffffffffffffffffffff821415612a7757612a76612a82565b5b600182019050919050565b7f4e487b7100000000000000000000000000000000000000000000000000000000600052601160045260246000fd5b7f4e487b7100000000000000000000000000000000000000000000000000000000600052601260045260246000fd5b7f4e487b7100000000000000000000000000000000000000000000000000000000600052602260045260246000fd5b6000601f19601f8301169050919050565b7f45524332303a207472616e7366657220746f20746865207a65726f206164647260008201527f6573730000000000000000000000000000000000000000000000000000000000602082015250565b7f45524332303a206275726e20616d6f756e7420657863656564732062616c616e60008201527f6365000000000000000000000000000000000000000000000000000000000000602082015250565b7f45524332303a20617070726f766520746f20746865207a65726f20616464726560008201527f7373000000000000000000000000000000000000000000000000000000000000602082015250565b7f45524332303a20696e73756666696369656e7420616c6c6f77616e6365000000600082015250565b7f45524332303a206275726e2066726f6d20746865207a65726f2061646472657360008201527f7300000000000000000000000000000000000000000000000000000000000000602082015250565b7f45524332303a207472616e736665722066726f6d20746865207a65726f20616460008201527f6472657373000000000000000000000000000000000000000000000000000000602082015250565b7f45524332303a20617070726f76652066726f6d20746865207a65726f2061646460008201527f7265737300000000000000000000000000000000000000000000000000000000602082015250565b7f45524332303a2064656372656173656420616c6c6f77616e63652062656c6f7760008201527f207a65726f000000000000000000000000000000000000000000000000000000602082015250565b7f45524332303a206d696e7420746f20746865207a65726f206164647265737300600082015250565b612da48161297f565b8114612daf57600080fd5b50565b612dbb81612991565b8114612dc657600080fd5b50565b612dd2816129bd565b8114612ddd57600080fd5b5056fea26469706673582212209fced12bd2bbc155f6b011e24cbfe8f9e4511cda8cf9c1f28eaabdb93ea0b9ed64736f6c63430008040033",
  "linkReferences": {},
  "deployedLinkReferences": {}
}