{
  "_format": "hh-sol-artifact-1",
  "contractName": "FxUSD",
  "sourceName": "contracts/Vaults/FxUSD.sol",
  "abi": [
    {
      "inputs": [
        {
          "internalType": "address[]",
          "name": "_collateralWhitelist",
          "type": "address[]"
        },
        {
          "internalType": "address",
          "name": "_oracle",
          "type": "address"
        },
        {
          "internalType": "address",
          "name": "_OrderBook",
          "type": "address"
        },
        {
          "internalType": "uint256",
          "name": "_debtTokenIndex",
          "type": "uint256"
        },
        {
          "internalType": "string",
          "name": "_name",
          "type": "string"
        },
        {
          "internalType": "string",
          "name": "_symbol",
          "type": "string"
        }
      ],
      "stateMutability": "nonpayable",
      "type": "constructor"
    },
    {
      "anonymous": false,
      "inputs": [
        {
          "indexed": true,
          "internalType": "address",
          "name": "owner",
          "type": "address"
        },
        {
          "indexed": true,
          "internalType": "address",
          "name": "spender",
          "type": "address"
        },
        {
          "indexed": false,
          "internalType": "uint256",
          "name": "value",
          "type": "uint256"
        }
      ],
      "name": "Approval",
      "type": "event"
    },
    {
      "anonymous": false,
      "inputs": [
        {
          "indexed": true,
          "internalType": "address",
          "name": "from",
          "type": "address"
        },
        {
          "indexed": true,
          "internalType": "address",
          "name": "to",
          "type": "address"
        },
        {
          "indexed": false,
          "internalType": "uint256",
          "name": "value",
          "type": "uint256"
        }
      ],
      "name": "Transfer",
      "type": "event"
    },
    {
      "inputs": [],
      "name": "DYNAMIC_BALANCE_MULTIPLIER",
      "outputs": [
        {
          "internalType": "uint256",
          "name": "",
          "type": "uint256"
        }
      ],
      "stateMutability": "view",
      "type": "function"
    },
    {
      "inputs": [
        {
          "internalType": "uint256",
          "name": "",
          "type": "uint256"
        }
      ],
      "name": "Vaults",
      "outputs": [
        {
          "internalType": "address",
          "name": "Owner",
          "type": "address"
        },
        {
          "internalType": "uint256",
          "name": "CollateralIndex",
          "type": "uint256"
        },
        {
          "internalType": "uint256",
          "name": "Collateral",
          "type": "uint256"
        },
        {
          "internalType": "uint256",
          "name": "Debt",
          "type": "uint256"
        },
        {
          "internalType": "uint256",
          "name": "ID",
          "type": "uint256"
        }
      ],
      "stateMutability": "view",
      "type": "function"
    },
    {
      "inputs": [
        {
          "internalType": "address",
          "name": "_collateral",
          "type": "address"
        }
      ],
      "name": "addCollateralOption",
      "outputs": [],
      "stateMutability": "nonpayable",
      "type": "function"
    },
    {
      "inputs": [
        {
          "internalType": "address",
          "name": "owner",
          "type": "address"
        },
        {
          "internalType": "address",
          "name": "spender",
          "type": "address"
        }
      ],
      "name": "allowance",
      "outputs": [
        {
          "internalType": "uint256",
          "name": "",
          "type": "uint256"
        }
      ],
      "stateMutability": "view",
      "type": "function"
    },
    {
      "inputs": [
        {
          "internalType": "address",
          "name": "spender",
          "type": "address"
        },
        {
          "internalType": "uint256",
          "name": "amount",
          "type": "uint256"
        }
      ],
      "name": "approve",
      "outputs": [
        {
          "internalType": "bool",
          "name": "",
          "type": "bool"
        }
      ],
      "stateMutability": "nonpayable",
      "type": "function"
    },
    {
      "inputs": [
        {
          "internalType": "address",
          "name": "account",
          "type": "address"
        }
      ],
      "name": "balanceOf",
      "outputs": [
        {
          "internalType": "uint256",
          "name": "",
          "type": "uint256"
        }
      ],
      "stateMutability": "view",
      "type": "function"
    },
    {
      "inputs": [
        {
          "internalType": "uint256",
          "name": "_vaultID",
          "type": "uint256"
        },
        {
          "internalType": "uint256",
          "name": "_amount",
          "type": "uint256"
        }
      ],
      "name": "borrow",
      "outputs": [],
      "stateMutability": "nonpayable",
      "type": "function"
    },
    {
      "inputs": [
        {
          "internalType": "uint256",
          "name": "_vaultID",
          "type": "uint256"
        }
      ],
      "name": "closePosition",
      "outputs": [],
      "stateMutability": "nonpayable",
      "type": "function"
    },
    {
      "inputs": [
        {
          "internalType": "uint256",
          "name": "",
          "type": "uint256"
        }
      ],
      "name": "collateralWhitelist",
      "outputs": [
        {
          "internalType": "address",
          "name": "",
          "type": "address"
        }
      ],
      "stateMutability": "view",
      "type": "function"
    },
    {
      "inputs": [],
      "name": "decimals",
      "outputs": [
        {
          "internalType": "uint8",
          "name": "",
          "type": "uint8"
        }
      ],
      "stateMutability": "view",
      "type": "function"
    },
    {
      "inputs": [
        {
          "internalType": "address",
          "name": "spender",
          "type": "address"
        },
        {
          "internalType": "uint256",
          "name": "subtractedValue",
          "type": "uint256"
        }
      ],
      "name": "decreaseAllowance",
      "outputs": [
        {
          "internalType": "bool",
          "name": "",
          "type": "bool"
        }
      ],
      "stateMutability": "nonpayable",
      "type": "function"
    },
    {
      "inputs": [
        {
          "internalType": "address",
          "name": "spender",
          "type": "address"
        },
        {
          "internalType": "uint256",
          "name": "addedValue",
          "type": "uint256"
        }
      ],
      "name": "increaseAllowance",
      "outputs": [
        {
          "internalType": "bool",
          "name": "",
          "type": "bool"
        }
      ],
      "stateMutability": "nonpayable",
      "type": "function"
    },
    {
      "inputs": [
        {
          "internalType": "uint256",
          "name": "",
          "type": "uint256"
        }
      ],
      "name": "isClosed",
      "outputs": [
        {
          "internalType": "bool",
          "name": "",
          "type": "bool"
        }
      ],
      "stateMutability": "view",
      "type": "function"
    },
    {
      "inputs": [
        {
          "internalType": "uint256",
          "name": "_vaultID",
          "type": "uint256"
        }
      ],
      "name": "liquidate",
      "outputs": [],
      "stateMutability": "nonpayable",
      "type": "function"
    },
    {
      "inputs": [],
      "name": "name",
      "outputs": [
        {
          "internalType": "string",
          "name": "",
          "type": "string"
        }
      ],
      "stateMutability": "view",
      "type": "function"
    },
    {
      "inputs": [
        {
          "internalType": "uint256",
          "name": "_collateralIndex",
          "type": "uint256"
        }
      ],
      "name": "openVault",
      "outputs": [
        {
          "internalType": "uint256",
          "name": "",
          "type": "uint256"
        }
      ],
      "stateMutability": "nonpayable",
      "type": "function"
    },
    {
      "inputs": [
        {
          "internalType": "uint256",
          "name": "_vaultID",
          "type": "uint256"
        },
        {
          "internalType": "uint256",
          "name": "_amount",
          "type": "uint256"
        }
      ],
      "name": "repay",
      "outputs": [],
      "stateMutability": "nonpayable",
      "type": "function"
    },
    {
      "inputs": [
        {
          "internalType": "uint256",
          "name": "_vaultID",
          "type": "uint256"
        },
        {
          "internalType": "uint256",
          "name": "_amount",
          "type": "uint256"
        }
      ],
      "name": "supply",
      "outputs": [],
      "stateMutability": "nonpayable",
      "type": "function"
    },
    {
      "inputs": [],
      "name": "symbol",
      "outputs": [
        {
          "internalType": "string",
          "name": "",
          "type": "string"
        }
      ],
      "stateMutability": "view",
      "type": "function"
    },
    {
      "inputs": [],
      "name": "totalSupply",
      "outputs": [
        {
          "internalType": "uint256",
          "name": "",
          "type": "uint256"
        }
      ],
      "stateMutability": "view",
      "type": "function"
    },
    {
      "inputs": [
        {
          "internalType": "address",
          "name": "to",
          "type": "address"
        },
        {
          "internalType": "uint256",
          "name": "amount",
          "type": "uint256"
        }
      ],
      "name": "transfer",
      "outputs": [
        {
          "internalType": "bool",
          "name": "",
          "type": "bool"
        }
      ],
      "stateMutability": "nonpayable",
      "type": "function"
    },
    {
      "inputs": [
        {
          "internalType": "address",
          "name": "from",
          "type": "address"
        },
        {
          "internalType": "address",
          "name": "to",
          "type": "address"
        },
        {
          "internalType": "uint256",
          "name": "amount",
          "type": "uint256"
        }
      ],
      "name": "transferFrom",
      "outputs": [
        {
          "internalType": "bool",
          "name": "",
          "type": "bool"
        }
      ],
      "stateMutability": "nonpayable",
      "type": "function"
    },
    {
      "inputs": [
        {
          "internalType": "int256",
          "name": "_fundingRate",
          "type": "int256"
        }
      ],
      "name": "updateDynamicMultiplier",
      "outputs": [],
      "stateMutability": "nonpayable",
      "type": "function"
    },
    {
      "inputs": [
        {
          "internalType": "uint256",
          "name": "_vaultID",
          "type": "uint256"
        },
        {
          "internalType": "uint256",
          "name": "_amount",
          "type": "uint256"
        }
      ],
      "name": "withdraw",
      "outputs": [],
      "stateMutability": "nonpayable",
      "type": "function"
    },
    {
      "stateMutability": "payable",
      "type": "receive"
    }
  ],
  "bytecode": "0x60806040523480156200001157600080fd5b50604051620034ef380380620034ef833981810160405281019062000037919062000407565b858585858585818181600390805190602001906200005792919062000186565b5080600490805190602001906200007092919062000186565b50505084600d60006101000a81548173ffffffffffffffffffffffffffffffffffffffff021916908373ffffffffffffffffffffffffffffffffffffffff1602179055508260068190555085600a9080519060200190620000d392919062000217565b50670de0b6b3a764000060078190555067016345785d8a000060088190555033600b60006101000a81548173ffffffffffffffffffffffffffffffffffffffff021916908373ffffffffffffffffffffffffffffffffffffffff16021790555083600c60006101000a81548173ffffffffffffffffffffffffffffffffffffffff021916908373ffffffffffffffffffffffffffffffffffffffff160217905550505050505050505050505050620006f9565b8280546200019490620005ea565b90600052602060002090601f016020900481019282620001b8576000855562000204565b82601f10620001d357805160ff191683800117855562000204565b8280016001018555821562000204579182015b8281111562000203578251825591602001919060010190620001e6565b5b509050620002139190620002a6565b5090565b82805482825590600052602060002090810192821562000293579160200282015b82811115620002925782518260006101000a81548173ffffffffffffffffffffffffffffffffffffffff021916908373ffffffffffffffffffffffffffffffffffffffff1602179055509160200191906001019062000238565b5b509050620002a29190620002a6565b5090565b5b80821115620002c1576000816000905550600101620002a7565b5090565b6000620002dc620002d68462000511565b620004e8565b90508083825260208201905082856020860282011115620002fc57600080fd5b60005b858110156200033057816200031588826200037f565b845260208401935060208301925050600181019050620002ff565b5050509392505050565b6000620003516200034b8462000540565b620004e8565b9050828152602081018484840111156200036a57600080fd5b62000377848285620005b4565b509392505050565b6000815190506200039081620006c5565b92915050565b600082601f830112620003a857600080fd5b8151620003ba848260208601620002c5565b91505092915050565b600082601f830112620003d557600080fd5b8151620003e78482602086016200033a565b91505092915050565b6000815190506200040181620006df565b92915050565b60008060008060008060c087890312156200042157600080fd5b600087015167ffffffffffffffff8111156200043c57600080fd5b6200044a89828a0162000396565b96505060206200045d89828a016200037f565b95505060406200047089828a016200037f565b94505060606200048389828a01620003f0565b935050608087015167ffffffffffffffff811115620004a157600080fd5b620004af89828a01620003c3565b92505060a087015167ffffffffffffffff811115620004cd57600080fd5b620004db89828a01620003c3565b9150509295509295509295565b6000620004f462000507565b905062000502828262000620565b919050565b6000604051905090565b600067ffffffffffffffff8211156200052f576200052e62000685565b5b602082029050602081019050919050565b600067ffffffffffffffff8211156200055e576200055d62000685565b5b6200056982620006b4565b9050602081019050919050565b600062000583826200058a565b9050919050565b600073ffffffffffffffffffffffffffffffffffffffff82169050919050565b6000819050919050565b60005b83811015620005d4578082015181840152602081019050620005b7565b83811115620005e4576000848401525b50505050565b600060028204905060018216806200060357607f821691505b602082108114156200061a576200061962000656565b5b50919050565b6200062b82620006b4565b810181811067ffffffffffffffff821117156200064d576200064c62000685565b5b80604052505050565b7f4e487b7100000000000000000000000000000000000000000000000000000000600052602260045260246000fd5b7f4e487b7100000000000000000000000000000000000000000000000000000000600052604160045260246000fd5b6000601f19601f8301169050919050565b620006d08162000576565b8114620006dc57600080fd5b50565b620006ea81620005aa565b8114620006f657600080fd5b50565b612de680620007096000396000f3fe60806040526004361061014f5760003560e01c80636feba3ca116100b6578063a9059cbb1161006f578063a9059cbb146104d7578063d5c78a2814610514578063d8aed14514610551578063daecfa6c1461057a578063dd62ed3e146105a3578063fcd96b02146105e057610156565b80636feba3ca146103b757806370a08231146103e057806395d89b411461041d5780639975b19f14610448578063a126d60114610471578063a457c2d71461049a57610156565b8063313ce56711610108578063313ce5671461029157806339509351146102bc578063415f1240146102f9578063441a3e70146103225780635aca84151461034b578063626f5c021461038c57610156565b806304a2ce7e1461015b57806306fdde0314610198578063095ea7b3146101c35780630ecbcdab1461020057806318160ddd1461022957806323b872dd1461025457610156565b3661015657005b600080fd5b34801561016757600080fd5b50610182600480360381019061017d919061235e565b61061d565b60405161018f91906127c7565b60405180910390f35b3480156101a457600080fd5b506101ad610747565b6040516101ba9190612685565b60405180910390f35b3480156101cf57600080fd5b506101ea60048036038101906101e591906122d0565b6107d9565b6040516101f7919061266a565b60405180910390f35b34801561020c57600080fd5b50610227600480360381019061022291906123b0565b6107fc565b005b34801561023557600080fd5b5061023e610a09565b60405161024b91906127c7565b60405180910390f35b34801561026057600080fd5b5061027b60048036038101906102769190612281565b610a13565b604051610288919061266a565b60405180910390f35b34801561029d57600080fd5b506102a6610a42565b6040516102b391906127e2565b60405180910390f35b3480156102c857600080fd5b506102e360048036038101906102de91906122d0565b610a4b565b6040516102f0919061266a565b60405180910390f35b34801561030557600080fd5b50610320600480360381019061031b919061235e565b610a82565b005b34801561032e57600080fd5b50610349600480360381019061034491906123b0565b610acd565b005b34801561035757600080fd5b50610372600480360381019061036d919061235e565b610ce0565b604051610383959493929190612617565b60405180910390f35b34801561039857600080fd5b506103a1610d46565b6040516103ae91906127c7565b60405180910390f35b3480156103c357600080fd5b506103de60048036038101906103d9919061221c565b610d4c565b005b3480156103ec57600080fd5b506104076004803603810190610402919061221c565b610e0c565b60405161041491906127c7565b60405180910390f35b34801561042957600080fd5b50610432610e54565b60405161043f9190612685565b60405180910390f35b34801561045457600080fd5b5061046f600480360381019061046a9190612335565b610ee6565b005b34801561047d57600080fd5b506104986004803603810190610493919061235e565b610f43565b005b3480156104a657600080fd5b506104c160048036038101906104bc91906122d0565b6110a5565b6040516104ce919061266a565b60405180910390f35b3480156104e357600080fd5b506104fe60048036038101906104f991906122d0565b61111c565b60405161050b919061266a565b60405180910390f35b34801561052057600080fd5b5061053b6004803603810190610536919061235e565b61113f565b604051610548919061266a565b60405180910390f35b34801561055d57600080fd5b50610578600480360381019061057391906123b0565b61115f565b005b34801561058657600080fd5b506105a1600480360381019061059c91906123b0565b611234565b005b3480156105af57600080fd5b506105ca60048036038101906105c59190612245565b6113d7565b6040516105d791906127c7565b60405180910390f35b3480156105ec57600080fd5b506106076004803603810190610602919061235e565b61145e565b604051610614919061259c565b60405180910390f35b6000806040518060a001604052803373ffffffffffffffffffffffffffffffffffffffff1681526020018481526020016000815260200160008152602001600554815250905080600e8260800151815481106106a2577f4e487b7100000000000000000000000000000000000000000000000000000000600052603260045260246000fd5b906000526020600020906005020160008201518160000160006101000a81548173ffffffffffffffffffffffffffffffffffffffff021916908373ffffffffffffffffffffffffffffffffffffffff1602179055506020820151816001015560408201518160020155606082015181600301556080820151816004015590505060056000815480929190610735906129f2565b91905055508060800151915050919050565b606060038054610756906129c0565b80601f0160208091040260200160405190810160405280929190818152602001828054610782906129c0565b80156107cf5780601f106107a4576101008083540402835291602001916107cf565b820191906000526020600020905b8154815290600101906020018083116107b257829003601f168201915b5050505050905090565b6000806107e461149d565b90506107f18185856114a5565b600191505092915050565b816000600e8281548110610839577f4e487b7100000000000000000000000000000000000000000000000000000000600052603260045260246000fd5b90600052602060002090600502016040518060a00160405290816000820160009054906101000a900473ffffffffffffffffffffffffffffffffffffffff1673ffffffffffffffffffffffffffffffffffffffff1673ffffffffffffffffffffffffffffffffffffffff1681526020016001820154815260200160028201548152602001600382015481526020016004820154815250509050806000015173ffffffffffffffffffffffffffffffffffffffff163373ffffffffffffffffffffffffffffffffffffffff161461090e57600080fd5b6000600e858154811061094a577f4e487b7100000000000000000000000000000000000000000000000000000000600052603260045260246000fd5b90600052602060002090600502019050600061097385836003015461167090919063ffffffff16565b905060006109a06007546109926009548561168690919063ffffffff16565b61169c90919063ffffffff16565b905060006109b6846001015485600201546116b2565b90506008546109e2826109d46007548661168690919063ffffffff16565b61169c90919063ffffffff16565b116109ec57600080fd5b8284600301819055506109ff33886117a2565b5050505050505050565b6000600254905090565b600080610a1e61149d565b9050610a2b858285611902565b610a3685858561198e565b60019150509392505050565b60006012905090565b600080610a5661149d565b9050610a77818585610a6885896113d7565b610a729190612819565b6114a5565b600191505092915050565b80600f600082815260200190815260200160002060009054906101000a900460ff1615610aae57600080fd5b610ab782611c2b565b610ac057600080fd5b610ac982611d6e565b5050565b816000600e8281548110610b0a577f4e487b7100000000000000000000000000000000000000000000000000000000600052603260045260246000fd5b90600052602060002090600502016040518060a00160405290816000820160009054906101000a900473ffffffffffffffffffffffffffffffffffffffff1673ffffffffffffffffffffffffffffffffffffffff1673ffffffffffffffffffffffffffffffffffffffff1681526020016001820154815260200160028201548152602001600382015481526020016004820154815250509050806000015173ffffffffffffffffffffffffffffffffffffffff163373ffffffffffffffffffffffffffffffffffffffff1614610bdf57600080fd5b6000600e8581548110610c1b577f4e487b7100000000000000000000000000000000000000000000000000000000600052603260045260246000fd5b906000526020600020906005020190506000610c518260010154610c4c878560020154611fbc90919063ffffffff16565b6116b2565b90506000610c82600754610c74600954866003015461168690919063ffffffff16565b61169c90919063ffffffff16565b9050600854610cae83610ca06007548561168690919063ffffffff16565b61169c90919063ffffffff16565b11610cb857600080fd5b610ccf868460020154611fbc90919063ffffffff16565b836002018190555050505050505050565b600e8181548110610cf057600080fd5b90600052602060002090600502016000915090508060000160009054906101000a900473ffffffffffffffffffffffffffffffffffffffff16908060010154908060020154908060030154908060040154905085565b60095481565b600b60009054906101000a900473ffffffffffffffffffffffffffffffffffffffff1673ffffffffffffffffffffffffffffffffffffffff163373ffffffffffffffffffffffffffffffffffffffff1614610da657600080fd5b600a819080600181540180825580915050600190039060005260206000200160009091909190916101000a81548173ffffffffffffffffffffffffffffffffffffffff021916908373ffffffffffffffffffffffffffffffffffffffff16021790555050565b60008060008373ffffffffffffffffffffffffffffffffffffffff1673ffffffffffffffffffffffffffffffffffffffff168152602001908152602001600020549050919050565b606060048054610e63906129c0565b80601f0160208091040260200160405190810160405280929190818152602001828054610e8f906129c0565b8015610edc5780601f10610eb157610100808354040283529160200191610edc565b820191906000526020600020905b815481529060010190602001808311610ebf57829003601f168201915b5050505050905090565b600c60009054906101000a900473ffffffffffffffffffffffffffffffffffffffff1673ffffffffffffffffffffffffffffffffffffffff163373ffffffffffffffffffffffffffffffffffffffff1614610f4057600080fd5b50565b6005546000600e8281548110610f82577f4e487b7100000000000000000000000000000000000000000000000000000000600052603260045260246000fd5b90600052602060002090600502016040518060a00160405290816000820160009054906101000a900473ffffffffffffffffffffffffffffffffffffffff1673ffffffffffffffffffffffffffffffffffffffff1673ffffffffffffffffffffffffffffffffffffffff1681526020016001820154815260200160028201548152602001600382015481526020016004820154815250509050806000015173ffffffffffffffffffffffffffffffffffffffff163373ffffffffffffffffffffffffffffffffffffffff161461105757600080fd5b82600f600082815260200190815260200160002060009054906101000a900460ff161561108357600080fd5b61108c84611c2b565b1561109657600080fd5b61109f84611d6e565b50505050565b6000806110b061149d565b905060006110be82866113d7565b905083811015611103576040517f08c379a00000000000000000000000000000000000000000000000000000000081526004016110fa90612787565b60405180910390fd5b61111082868684036114a5565b60019250505092915050565b60008061112761149d565b905061113481858561198e565b600191505092915050565b600f6020528060005260406000206000915054906101000a900460ff1681565b81600f600082815260200190815260200160002060009054906101000a900460ff161561118b57600080fd5b6000600e84815481106111c7577f4e487b7100000000000000000000000000000000000000000000000000000000600052603260045260246000fd5b9060005260206000209060050201905060006112026009546111f46007548761168690919063ffffffff16565b61169c90919063ffffffff16565b905061121b818360030154611fbc90919063ffffffff16565b826003018190555061122d3385611fd2565b5050505050565b81600f600082815260200190815260200160002060009054906101000a900460ff161561126057600080fd5b6000600e848154811061129c577f4e487b7100000000000000000000000000000000000000000000000000000000600052603260045260246000fd5b906000526020600020906005020190506000600a8260010154815481106112ec577f4e487b7100000000000000000000000000000000000000000000000000000000600052603260045260246000fd5b9060005260206000200160009054906101000a900473ffffffffffffffffffffffffffffffffffffffff1690508073ffffffffffffffffffffffffffffffffffffffff166323b872dd3330876040518463ffffffff1660e01b8152600401611356939291906125b7565b602060405180830381600087803b15801561137057600080fd5b505af1158015611384573d6000803e3d6000fd5b505050506040513d601f19601f820116820180604052508101906113a8919061230c565b6113b157600080fd5b6113c884836002015461167090919063ffffffff16565b82600201819055505050505050565b6000600160008473ffffffffffffffffffffffffffffffffffffffff1673ffffffffffffffffffffffffffffffffffffffff16815260200190815260200160002060008373ffffffffffffffffffffffffffffffffffffffff1673ffffffffffffffffffffffffffffffffffffffff16815260200190815260200160002054905092915050565b600a818154811061146e57600080fd5b906000526020600020016000915054906101000a900473ffffffffffffffffffffffffffffffffffffffff1681565b600033905090565b600073ffffffffffffffffffffffffffffffffffffffff168373ffffffffffffffffffffffffffffffffffffffff161415611515576040517f08c379a000000000000000000000000000000000000000000000000000000000815260040161150c90612767565b60405180910390fd5b600073ffffffffffffffffffffffffffffffffffffffff168273ffffffffffffffffffffffffffffffffffffffff161415611585576040517f08c379a000000000000000000000000000000000000000000000000000000000815260040161157c906126e7565b60405180910390fd5b80600160008573ffffffffffffffffffffffffffffffffffffffff1673ffffffffffffffffffffffffffffffffffffffff16815260200190815260200160002060008473ffffffffffffffffffffffffffffffffffffffff1673ffffffffffffffffffffffffffffffffffffffff168152602001908152602001600020819055508173ffffffffffffffffffffffffffffffffffffffff168373ffffffffffffffffffffffffffffffffffffffff167f8c5be1e5ebec7d5bd14f71427d1e84f3dd0314c0f7b2291e5b200ac8c7c3b9258360405161166391906127c7565b60405180910390a3505050565b6000818361167e9190612819565b905092915050565b6000818361169491906128a0565b905092915050565b600081836116aa919061286f565b905092915050565b600080600d60009054906101000a900473ffffffffffffffffffffffffffffffffffffffff1673ffffffffffffffffffffffffffffffffffffffff1663e7572230856040518263ffffffff1660e01b815260040161171091906127c7565b60206040518083038186803b15801561172857600080fd5b505afa15801561173c573d6000803e3d6000fd5b505050506040513d601f19601f820116820180604052508101906117609190612387565b90506000811461179657611791600754611783858461168690919063ffffffff16565b61169c90919063ffffffff16565b611799565b60005b91505092915050565b600073ffffffffffffffffffffffffffffffffffffffff168273ffffffffffffffffffffffffffffffffffffffff161415611812576040517f08c379a0000000000000000000000000000000000000000000000000000000008152600401611809906127a7565b60405180910390fd5b61181e600083836121a9565b80600260008282546118309190612819565b92505081905550806000808473ffffffffffffffffffffffffffffffffffffffff1673ffffffffffffffffffffffffffffffffffffffff16815260200190815260200160002060008282546118859190612819565b925050819055508173ffffffffffffffffffffffffffffffffffffffff16600073ffffffffffffffffffffffffffffffffffffffff167fddf252ad1be2c89b69c2b068fc378daa952ba7f163c4a11628f55a4df523b3ef836040516118ea91906127c7565b60405180910390a36118fe600083836121ae565b5050565b600061190e84846113d7565b90507fffffffffffffffffffffffffffffffffffffffffffffffffffffffffffffffff8114611988578181101561197a576040517f08c379a000000000000000000000000000000000000000000000000000000000815260040161197190612707565b60405180910390fd5b61198784848484036114a5565b5b50505050565b600073ffffffffffffffffffffffffffffffffffffffff168373ffffffffffffffffffffffffffffffffffffffff1614156119fe576040517f08c379a00000000000000000000000000000000000000000000000000000000081526004016119f590612747565b60405180910390fd5b600073ffffffffffffffffffffffffffffffffffffffff168273ffffffffffffffffffffffffffffffffffffffff161415611a6e576040517f08c379a0000000000000000000000000000000000000000000000000000000008152600401611a65906126a7565b60405180910390fd5b611a798383836121a9565b60008060008573ffffffffffffffffffffffffffffffffffffffff1673ffffffffffffffffffffffffffffffffffffffff168152602001908152602001600020549050611ae5600754611ad76009548461168690919063ffffffff16565b61169c90919063ffffffff16565b821115611af157600080fd5b6000611b086009548461169c90919063ffffffff16565b9050611b1d8183611fbc90919063ffffffff16565b6000808773ffffffffffffffffffffffffffffffffffffffff1673ffffffffffffffffffffffffffffffffffffffff16815260200190815260200160002081905550826000808673ffffffffffffffffffffffffffffffffffffffff1673ffffffffffffffffffffffffffffffffffffffff1681526020019081526020016000206000828254611bad9190612819565b925050819055508373ffffffffffffffffffffffffffffffffffffffff168573ffffffffffffffffffffffffffffffffffffffff167fddf252ad1be2c89b69c2b068fc378daa952ba7f163c4a11628f55a4df523b3ef85604051611c1191906127c7565b60405180910390a3611c248585856121ae565b5050505050565b600080600e8381548110611c68577f4e487b7100000000000000000000000000000000000000000000000000000000600052603260045260246000fd5b90600052602060002090600502016040518060a00160405290816000820160009054906101000a900473ffffffffffffffffffffffffffffffffffffffff1673ffffffffffffffffffffffffffffffffffffffff1673ffffffffffffffffffffffffffffffffffffffff16815260200160018201548152602001600282015481526020016003820154815260200160048201548152505090506000611d15826020015183604001516116b2565b9050600854611d4582611d37600754866060015161168690919063ffffffff16565b61169c90919063ffffffff16565b11158015611d65575060008114158015611d6457506000826060015114155b5b92505050919050565b6000600e8281548110611daa577f4e487b7100000000000000000000000000000000000000000000000000000000600052603260045260246000fd5b906000526020600020906005020190506000600a826001015481548110611dfa577f4e487b7100000000000000000000000000000000000000000000000000000000600052603260045260246000fd5b9060005260206000200160009054906101000a900473ffffffffffffffffffffffffffffffffffffffff169050611e5e3330611e59600754611e4b600954886003015461168690919063ffffffff16565b61169c90919063ffffffff16565b610a13565b611e6757600080fd5b8073ffffffffffffffffffffffffffffffffffffffff1663a9059cbb3384600201546040518363ffffffff1660e01b8152600401611ea69291906125ee565b602060405180830381600087803b158015611ec057600080fd5b505af1158015611ed4573d6000803e3d6000fd5b505050506040513d601f19601f82011682018060405250810190611ef8919061230c565b50600e8381548110611f33577f4e487b7100000000000000000000000000000000000000000000000000000000600052603260045260246000fd5b9060005260206000209060050201600080820160006101000a81549073ffffffffffffffffffffffffffffffffffffffff0219169055600182016000905560028201600090556003820160009055600482016000905550506001600f600085815260200190815260200160002060006101000a81548160ff021916908315150217905550505050565b60008183611fca91906128fa565b905092915050565b600073ffffffffffffffffffffffffffffffffffffffff168273ffffffffffffffffffffffffffffffffffffffff161415612042576040517f08c379a000000000000000000000000000000000000000000000000000000000815260040161203990612727565b60405180910390fd5b61204e826000836121a9565b60008060008473ffffffffffffffffffffffffffffffffffffffff1673ffffffffffffffffffffffffffffffffffffffff168152602001908152602001600020549050818110156120d4576040517f08c379a00000000000000000000000000000000000000000000000000000000081526004016120cb906126c7565b60405180910390fd5b8181036000808573ffffffffffffffffffffffffffffffffffffffff1673ffffffffffffffffffffffffffffffffffffffff16815260200190815260200160002081905550816002600082825461212b91906128fa565b92505081905550600073ffffffffffffffffffffffffffffffffffffffff168373ffffffffffffffffffffffffffffffffffffffff167fddf252ad1be2c89b69c2b068fc378daa952ba7f163c4a11628f55a4df523b3ef8460405161219091906127c7565b60405180910390a36121a4836000846121ae565b505050565b505050565b505050565b6000813590506121c281612d54565b92915050565b6000815190506121d781612d6b565b92915050565b6000813590506121ec81612d82565b92915050565b60008135905061220181612d99565b92915050565b60008151905061221681612d99565b92915050565b60006020828403121561222e57600080fd5b600061223c848285016121b3565b91505092915050565b6000806040838503121561225857600080fd5b6000612266858286016121b3565b9250506020612277858286016121b3565b9150509250929050565b60008060006060848603121561229657600080fd5b60006122a4868287016121b3565b93505060206122b5868287016121b3565b92505060406122c6868287016121f2565b9150509250925092565b600080604083850312156122e357600080fd5b60006122f1858286016121b3565b9250506020612302858286016121f2565b9150509250929050565b60006020828403121561231e57600080fd5b600061232c848285016121c8565b91505092915050565b60006020828403121561234757600080fd5b6000612355848285016121dd565b91505092915050565b60006020828403121561237057600080fd5b600061237e848285016121f2565b91505092915050565b60006020828403121561239957600080fd5b60006123a784828501612207565b91505092915050565b600080604083850312156123c357600080fd5b60006123d1858286016121f2565b92505060206123e2858286016121f2565b9150509250929050565b6123f58161292e565b82525050565b61240481612940565b82525050565b6000612415826127fd565b61241f8185612808565b935061242f81856020860161298d565b61243881612ac8565b840191505092915050565b6000612450602383612808565b915061245b82612ad9565b604082019050919050565b6000612473602283612808565b915061247e82612b28565b604082019050919050565b6000612496602283612808565b91506124a182612b77565b604082019050919050565b60006124b9601d83612808565b91506124c482612bc6565b602082019050919050565b60006124dc602183612808565b91506124e782612bef565b604082019050919050565b60006124ff602583612808565b915061250a82612c3e565b604082019050919050565b6000612522602483612808565b915061252d82612c8d565b604082019050919050565b6000612545602583612808565b915061255082612cdc565b604082019050919050565b6000612568601f83612808565b915061257382612d2b565b602082019050919050565b61258781612976565b82525050565b61259681612980565b82525050565b60006020820190506125b160008301846123ec565b92915050565b60006060820190506125cc60008301866123ec565b6125d960208301856123ec565b6125e6604083018461257e565b949350505050565b600060408201905061260360008301856123ec565b612610602083018461257e565b9392505050565b600060a08201905061262c60008301886123ec565b612639602083018761257e565b612646604083018661257e565b612653606083018561257e565b612660608083018461257e565b9695505050505050565b600060208201905061267f60008301846123fb565b92915050565b6000602082019050818103600083015261269f818461240a565b905092915050565b600060208201905081810360008301526126c081612443565b9050919050565b600060208201905081810360008301526126e081612466565b9050919050565b6000602082019050818103600083015261270081612489565b9050919050565b60006020820190508181036000830152612720816124ac565b9050919050565b60006020820190508181036000830152612740816124cf565b9050919050565b60006020820190508181036000830152612760816124f2565b9050919050565b6000602082019050818103600083015261278081612515565b9050919050565b600060208201905081810360008301526127a081612538565b9050919050565b600060208201905081810360008301526127c08161255b565b9050919050565b60006020820190506127dc600083018461257e565b92915050565b60006020820190506127f7600083018461258d565b92915050565b600081519050919050565b600082825260208201905092915050565b600061282482612976565b915061282f83612976565b9250827fffffffffffffffffffffffffffffffffffffffffffffffffffffffffffffffff0382111561286457612863612a3b565b5b828201905092915050565b600061287a82612976565b915061288583612976565b92508261289557612894612a6a565b5b828204905092915050565b60006128ab82612976565b91506128b683612976565b9250817fffffffffffffffffffffffffffffffffffffffffffffffffffffffffffffffff04831182151516156128ef576128ee612a3b565b5b828202905092915050565b600061290582612976565b915061291083612976565b92508282101561292357612922612a3b565b5b828203905092915050565b600061293982612956565b9050919050565b60008115159050919050565b6000819050919050565b600073ffffffffffffffffffffffffffffffffffffffff82169050919050565b6000819050919050565b600060ff82169050919050565b60005b838110156129ab578082015181840152602081019050612990565b838111156129ba576000848401525b50505050565b600060028204905060018216806129d857607f821691505b602082108114156129ec576129eb612a99565b5b50919050565b60006129fd82612976565b91507fffffffffffffffffffffffffffffffffffffffffffffffffffffffffffffffff821415612a3057612a2f612a3b565b5b600182019050919050565b7f4e487b7100000000000000000000000000000000000000000000000000000000600052601160045260246000fd5b7f4e487b7100000000000000000000000000000000000000000000000000000000600052601260045260246000fd5b7f4e487b7100000000000000000000000000000000000000000000000000000000600052602260045260246000fd5b6000601f19601f8301169050919050565b7f45524332303a207472616e7366657220746f20746865207a65726f206164647260008201527f6573730000000000000000000000000000000000000000000000000000000000602082015250565b7f45524332303a206275726e20616d6f756e7420657863656564732062616c616e60008201527f6365000000000000000000000000000000000000000000000000000000000000602082015250565b7f45524332303a20617070726f766520746f20746865207a65726f20616464726560008201527f7373000000000000000000000000000000000000000000000000000000000000602082015250565b7f45524332303a20696e73756666696369656e7420616c6c6f77616e6365000000600082015250565b7f45524332303a206275726e2066726f6d20746865207a65726f2061646472657360008201527f7300000000000000000000000000000000000000000000000000000000000000602082015250565b7f45524332303a207472616e736665722066726f6d20746865207a65726f20616460008201527f6472657373000000000000000000000000000000000000000000000000000000602082015250565b7f45524332303a20617070726f76652066726f6d20746865207a65726f2061646460008201527f7265737300000000000000000000000000000000000000000000000000000000602082015250565b7f45524332303a2064656372656173656420616c6c6f77616e63652062656c6f7760008201527f207a65726f000000000000000000000000000000000000000000000000000000602082015250565b7f45524332303a206d696e7420746f20746865207a65726f206164647265737300600082015250565b612d5d8161292e565b8114612d6857600080fd5b50565b612d7481612940565b8114612d7f57600080fd5b50565b612d8b8161294c565b8114612d9657600080fd5b50565b612da281612976565b8114612dad57600080fd5b5056fea26469706673582212209d1daa638046324cd3424bca728aa65c808a73d9896fbe6c102a7eb306b576c964736f6c63430008040033",
  "linkReferences": {},
  "deployedLinkReferences": {}
}