{
  "_format": "hh-sol-artifact-1",
  "contractName": "FxPerpDynamic",
  "sourceName": "contracts/Vaults/FxPerpDynamic.sol",
  "abi": [
    {
      "anonymous": false,
      "inputs": [
        {
          "indexed": true,
          "internalType": "address",
          "name": "owner",
          "type": "address"
        },
        {
          "indexed": true,
          "internalType": "address",
          "name": "spender",
          "type": "address"
        },
        {
          "indexed": false,
          "internalType": "uint256",
          "name": "value",
          "type": "uint256"
        }
      ],
      "name": "Approval",
      "type": "event"
    },
    {
      "anonymous": false,
      "inputs": [
        {
          "indexed": false,
          "internalType": "uint8",
          "name": "version",
          "type": "uint8"
        }
      ],
      "name": "Initialized",
      "type": "event"
    },
    {
      "anonymous": false,
      "inputs": [
        {
          "indexed": true,
          "internalType": "address",
          "name": "from",
          "type": "address"
        },
        {
          "indexed": true,
          "internalType": "address",
          "name": "to",
          "type": "address"
        },
        {
          "indexed": false,
          "internalType": "uint256",
          "name": "value",
          "type": "uint256"
        }
      ],
      "name": "Transfer",
      "type": "event"
    },
    {
      "inputs": [],
      "name": "DYNAMIC_BALANCE_MULTIPLIER",
      "outputs": [
        {
          "internalType": "uint256",
          "name": "",
          "type": "uint256"
        }
      ],
      "stateMutability": "view",
      "type": "function"
    },
    {
      "inputs": [
        {
          "internalType": "address",
          "name": "owner",
          "type": "address"
        },
        {
          "internalType": "address",
          "name": "spender",
          "type": "address"
        }
      ],
      "name": "allowance",
      "outputs": [
        {
          "internalType": "uint256",
          "name": "",
          "type": "uint256"
        }
      ],
      "stateMutability": "view",
      "type": "function"
    },
    {
      "inputs": [
        {
          "internalType": "address",
          "name": "spender",
          "type": "address"
        },
        {
          "internalType": "uint256",
          "name": "amount",
          "type": "uint256"
        }
      ],
      "name": "approve",
      "outputs": [
        {
          "internalType": "bool",
          "name": "",
          "type": "bool"
        }
      ],
      "stateMutability": "nonpayable",
      "type": "function"
    },
    {
      "inputs": [
        {
          "internalType": "address",
          "name": "account",
          "type": "address"
        }
      ],
      "name": "balanceOf",
      "outputs": [
        {
          "internalType": "uint256",
          "name": "",
          "type": "uint256"
        }
      ],
      "stateMutability": "view",
      "type": "function"
    },
    {
      "inputs": [],
      "name": "decimals",
      "outputs": [
        {
          "internalType": "uint8",
          "name": "",
          "type": "uint8"
        }
      ],
      "stateMutability": "view",
      "type": "function"
    },
    {
      "inputs": [
        {
          "internalType": "address",
          "name": "spender",
          "type": "address"
        },
        {
          "internalType": "uint256",
          "name": "subtractedValue",
          "type": "uint256"
        }
      ],
      "name": "decreaseAllowance",
      "outputs": [
        {
          "internalType": "bool",
          "name": "",
          "type": "bool"
        }
      ],
      "stateMutability": "nonpayable",
      "type": "function"
    },
    {
      "inputs": [
        {
          "internalType": "address",
          "name": "spender",
          "type": "address"
        },
        {
          "internalType": "uint256",
          "name": "addedValue",
          "type": "uint256"
        }
      ],
      "name": "increaseAllowance",
      "outputs": [
        {
          "internalType": "bool",
          "name": "",
          "type": "bool"
        }
      ],
      "stateMutability": "nonpayable",
      "type": "function"
    },
    {
      "inputs": [
        {
          "internalType": "string",
          "name": "_name",
          "type": "string"
        },
        {
          "internalType": "string",
          "name": "_symbol",
          "type": "string"
        },
        {
          "internalType": "address",
          "name": "_vaults",
          "type": "address"
        },
        {
          "internalType": "address",
          "name": "_perpStatic",
          "type": "address"
        }
      ],
      "name": "initialize",
      "outputs": [],
      "stateMutability": "nonpayable",
      "type": "function"
    },
    {
      "inputs": [
        {
          "internalType": "address",
          "name": "_account",
          "type": "address"
        },
        {
          "internalType": "uint256",
          "name": "_amount",
          "type": "uint256"
        }
      ],
      "name": "mint",
      "outputs": [],
      "stateMutability": "nonpayable",
      "type": "function"
    },
    {
      "inputs": [],
      "name": "name",
      "outputs": [
        {
          "internalType": "string",
          "name": "",
          "type": "string"
        }
      ],
      "stateMutability": "view",
      "type": "function"
    },
    {
      "inputs": [
        {
          "internalType": "uint256",
          "name": "_staticAmount",
          "type": "uint256"
        }
      ],
      "name": "portToStatic",
      "outputs": [],
      "stateMutability": "nonpayable",
      "type": "function"
    },
    {
      "inputs": [],
      "name": "symbol",
      "outputs": [
        {
          "internalType": "string",
          "name": "",
          "type": "string"
        }
      ],
      "stateMutability": "view",
      "type": "function"
    },
    {
      "inputs": [],
      "name": "totalSupply",
      "outputs": [
        {
          "internalType": "uint256",
          "name": "",
          "type": "uint256"
        }
      ],
      "stateMutability": "view",
      "type": "function"
    },
    {
      "inputs": [
        {
          "internalType": "address",
          "name": "to",
          "type": "address"
        },
        {
          "internalType": "uint256",
          "name": "amount",
          "type": "uint256"
        }
      ],
      "name": "transfer",
      "outputs": [
        {
          "internalType": "bool",
          "name": "",
          "type": "bool"
        }
      ],
      "stateMutability": "nonpayable",
      "type": "function"
    },
    {
      "inputs": [
        {
          "internalType": "address",
          "name": "from",
          "type": "address"
        },
        {
          "internalType": "address",
          "name": "to",
          "type": "address"
        },
        {
          "internalType": "uint256",
          "name": "amount",
          "type": "uint256"
        }
      ],
      "name": "transferFrom",
      "outputs": [
        {
          "internalType": "bool",
          "name": "",
          "type": "bool"
        }
      ],
      "stateMutability": "nonpayable",
      "type": "function"
    },
    {
      "inputs": [
        {
          "internalType": "uint256",
          "name": "_multiplier",
          "type": "uint256"
        }
      ],
      "name": "updateDynamicMultiplier",
      "outputs": [],
      "stateMutability": "nonpayable",
      "type": "function"
    }
  ],
  "bytecode": "0x608060405234801561001057600080fd5b5061236d806100206000396000f3fe608060405234801561001057600080fd5b50600436106101005760003560e01c806370a0823111610097578063a457c2d711610066578063a457c2d7146102af578063a9059cbb146102df578063ad80484e1461030f578063dd62ed3e1461032b57610100565b806370a08231146102295780638f15b414146102595780638f9bf8331461027557806395d89b411461029157610100565b8063313ce567116100d3578063313ce567146101a157806339509351146101bf57806340c10f19146101ef578063626f5c021461020b57610100565b806306fdde0314610105578063095ea7b31461012357806318160ddd1461015357806323b872dd14610171575b600080fd5b61010d61035b565b60405161011a9190611a69565b60405180910390f35b61013d600480360381019061013891906116ea565b6103ed565b60405161014a9190611a33565b60405180910390f35b61015b610410565b6040516101689190611c0b565b60405180910390f35b61018b6004803603810190610186919061169b565b61041a565b6040516101989190611a33565b60405180910390f35b6101a9610449565b6040516101b69190611c26565b60405180910390f35b6101d960048036038101906101d491906116ea565b610452565b6040516101e69190611a33565b60405180910390f35b610209600480360381019061020491906116ea565b610489565b005b6102136104f1565b6040516102209190611c0b565b60405180910390f35b610243600480360381019061023e9190611636565b6104f7565b6040516102509190611c0b565b60405180910390f35b610273600480360381019061026e9190611726565b610568565b005b61028f600480360381019061028a91906117b9565b6106a2565b005b610299610706565b6040516102a69190611a69565b60405180910390f35b6102c960048036038101906102c491906116ea565b610798565b6040516102d69190611a33565b60405180910390f35b6102f960048036038101906102f491906116ea565b61080f565b6040516103069190611a33565b60405180910390f35b610329600480360381019061032491906117b9565b610832565b005b6103456004803603810190610340919061165f565b61091a565b6040516103529190611c0b565b60405180910390f35b60606036805461036a90611e71565b80601f016020809104026020016040519081016040528092919081815260200182805461039690611e71565b80156103e35780601f106103b8576101008083540402835291602001916103e3565b820191906000526020600020905b8154815290600101906020018083116103c657829003601f168201915b5050505050905090565b6000806103f86109c9565b90506104058185856109d1565b600191505092915050565b6000603554905090565b6000806104256109c9565b9050610432858285610a0f565b61043d858585610a9b565b60019150509392505050565b60006012905090565b60008061045d6109c9565b905061047e81858561046f858961091a565b6104799190611cb3565b6109d1565b600191505092915050565b606660009054906101000a900473ffffffffffffffffffffffffffffffffffffffff1673ffffffffffffffffffffffffffffffffffffffff163373ffffffffffffffffffffffffffffffffffffffff16146104e357600080fd5b6104ed8282610ad9565b5050565b60675481565b6000610561606854610553606754603360008773ffffffffffffffffffffffffffffffffffffffff1673ffffffffffffffffffffffffffffffffffffffff16815260200190815260200160002054610b1590919063ffffffff16565b610b2b90919063ffffffff16565b9050919050565b60006105746001610b41565b90508015610598576001600060016101000a81548160ff0219169083151502179055505b82606560006101000a81548173ffffffffffffffffffffffffffffffffffffffff021916908373ffffffffffffffffffffffffffffffffffffffff16021790555081606660006101000a81548173ffffffffffffffffffffffffffffffffffffffff021916908373ffffffffffffffffffffffffffffffffffffffff160217905550670de0b6b3a7640000606881905550670de0b6b3a76400006067819055506106428585610c31565b801561069b5760008060016101000a81548160ff0219169083151502179055507f7f26b83ff96e1f2b6a682f133852f6798a09c465da95921460cefb384740249860016040516106929190611a4e565b60405180910390a15b5050505050565b606560009054906101000a900473ffffffffffffffffffffffffffffffffffffffff1673ffffffffffffffffffffffffffffffffffffffff163373ffffffffffffffffffffffffffffffffffffffff16146106fc57600080fd5b8060678190555050565b60606037805461071590611e71565b80601f016020809104026020016040519081016040528092919081815260200182805461074190611e71565b801561078e5780601f106107635761010080835404028352916020019161078e565b820191906000526020600020905b81548152906001019060200180831161077157829003601f168201915b5050505050905090565b6000806107a36109c9565b905060006107b1828661091a565b9050838110156107f6576040517f08c379a00000000000000000000000000000000000000000000000000000000081526004016107ed90611bcb565b60405180910390fd5b61080382868684036109d1565b60019250505092915050565b60008061081a6109c9565b9050610827818585610a9b565b600191505092915050565b80603360003373ffffffffffffffffffffffffffffffffffffffff1673ffffffffffffffffffffffffffffffffffffffff16815260200190815260200160002054101561087e57600080fd5b6108883382610c8e565b606660009054906101000a900473ffffffffffffffffffffffffffffffffffffffff1673ffffffffffffffffffffffffffffffffffffffff166340c10f1933836040518363ffffffff1660e01b81526004016108e5929190611a0a565b600060405180830381600087803b1580156108ff57600080fd5b505af1158015610913573d6000803e3d6000fd5b5050505050565b60006109c16068546109b3606754603460008873ffffffffffffffffffffffffffffffffffffffff1673ffffffffffffffffffffffffffffffffffffffff16815260200190815260200160002060008773ffffffffffffffffffffffffffffffffffffffff1673ffffffffffffffffffffffffffffffffffffffff16815260200190815260200160002054610b1590919063ffffffff16565b610b2b90919063ffffffff16565b905092915050565b600033905090565b60006109fc6067546109ee60685485610b1590919063ffffffff16565b610b2b90919063ffffffff16565b9050610a09848483610cca565b50505050565b6000610a1b848461091a565b90507fffffffffffffffffffffffffffffffffffffffffffffffffffffffffffffffff8114610a955781811015610a87576040517f08c379a0000000000000000000000000000000000000000000000000000000008152600401610a7e90611aeb565b60405180910390fd5b610a9484848484036109d1565b5b50505050565b6000610ac6606754610ab860685485610b1590919063ffffffff16565b610b2b90919063ffffffff16565b9050610ad3848483610e95565b50505050565b6000610b04606754610af660685485610b1590919063ffffffff16565b610b2b90919063ffffffff16565b9050610b108382611119565b505050565b60008183610b239190611d3a565b905092915050565b60008183610b399190611d09565b905092915050565b60008060019054906101000a900460ff1615610bb85760018260ff16148015610b705750610b6e3061127a565b155b610baf576040517f08c379a0000000000000000000000000000000000000000000000000000000008152600401610ba690611b2b565b60405180910390fd5b60009050610c2c565b8160ff1660008054906101000a900460ff1660ff1610610c0d576040517f08c379a0000000000000000000000000000000000000000000000000000000008152600401610c0490611b2b565b60405180910390fd5b816000806101000a81548160ff021916908360ff160217905550600190505b919050565b600060019054906101000a900460ff16610c80576040517f08c379a0000000000000000000000000000000000000000000000000000000008152600401610c7790611bab565b60405180910390fd5b610c8a828261129d565b5050565b6000610cb9606754610cab60685485610b1590919063ffffffff16565b610b2b90919063ffffffff16565b9050610cc5838261131e565b505050565b600073ffffffffffffffffffffffffffffffffffffffff168373ffffffffffffffffffffffffffffffffffffffff161415610d3a576040517f08c379a0000000000000000000000000000000000000000000000000000000008152600401610d3190611b8b565b60405180910390fd5b600073ffffffffffffffffffffffffffffffffffffffff168273ffffffffffffffffffffffffffffffffffffffff161415610daa576040517f08c379a0000000000000000000000000000000000000000000000000000000008152600401610da190611acb565b60405180910390fd5b80603460008573ffffffffffffffffffffffffffffffffffffffff1673ffffffffffffffffffffffffffffffffffffffff16815260200190815260200160002060008473ffffffffffffffffffffffffffffffffffffffff1673ffffffffffffffffffffffffffffffffffffffff168152602001908152602001600020819055508173ffffffffffffffffffffffffffffffffffffffff168373ffffffffffffffffffffffffffffffffffffffff167f8c5be1e5ebec7d5bd14f71427d1e84f3dd0314c0f7b2291e5b200ac8c7c3b92583604051610e889190611c0b565b60405180910390a3505050565b600073ffffffffffffffffffffffffffffffffffffffff168373ffffffffffffffffffffffffffffffffffffffff161415610f05576040517f08c379a0000000000000000000000000000000000000000000000000000000008152600401610efc90611b6b565b60405180910390fd5b600073ffffffffffffffffffffffffffffffffffffffff168273ffffffffffffffffffffffffffffffffffffffff161415610f75576040517f08c379a0000000000000000000000000000000000000000000000000000000008152600401610f6c90611a8b565b60405180910390fd5b610f808383836114f7565b6000603360008573ffffffffffffffffffffffffffffffffffffffff1673ffffffffffffffffffffffffffffffffffffffff16815260200190815260200160002054905081811015611007576040517f08c379a0000000000000000000000000000000000000000000000000000000008152600401610ffe90611b0b565b60405180910390fd5b818103603360008673ffffffffffffffffffffffffffffffffffffffff1673ffffffffffffffffffffffffffffffffffffffff1681526020019081526020016000208190555081603360008573ffffffffffffffffffffffffffffffffffffffff1673ffffffffffffffffffffffffffffffffffffffff168152602001908152602001600020600082825461109c9190611cb3565b925050819055508273ffffffffffffffffffffffffffffffffffffffff168473ffffffffffffffffffffffffffffffffffffffff167fddf252ad1be2c89b69c2b068fc378daa952ba7f163c4a11628f55a4df523b3ef846040516111009190611c0b565b60405180910390a36111138484846114fc565b50505050565b600073ffffffffffffffffffffffffffffffffffffffff168273ffffffffffffffffffffffffffffffffffffffff161415611189576040517f08c379a000000000000000000000000000000000000000000000000000000000815260040161118090611beb565b60405180910390fd5b611195600083836114f7565b80603560008282546111a79190611cb3565b9250508190555080603360008473ffffffffffffffffffffffffffffffffffffffff1673ffffffffffffffffffffffffffffffffffffffff16815260200190815260200160002060008282546111fd9190611cb3565b925050819055508173ffffffffffffffffffffffffffffffffffffffff16600073ffffffffffffffffffffffffffffffffffffffff167fddf252ad1be2c89b69c2b068fc378daa952ba7f163c4a11628f55a4df523b3ef836040516112629190611c0b565b60405180910390a3611276600083836114fc565b5050565b6000808273ffffffffffffffffffffffffffffffffffffffff163b119050919050565b600060019054906101000a900460ff166112ec576040517f08c379a00000000000000000000000000000000000000000000000000000000081526004016112e390611bab565b60405180910390fd5b8160369080519060200190611302929190611501565b508060379080519060200190611319929190611501565b505050565b600073ffffffffffffffffffffffffffffffffffffffff168273ffffffffffffffffffffffffffffffffffffffff16141561138e576040517f08c379a000000000000000000000000000000000000000000000000000000000815260040161138590611b4b565b60405180910390fd5b61139a826000836114f7565b6000603360008473ffffffffffffffffffffffffffffffffffffffff1673ffffffffffffffffffffffffffffffffffffffff16815260200190815260200160002054905081811015611421576040517f08c379a000000000000000000000000000000000000000000000000000000000815260040161141890611aab565b60405180910390fd5b818103603360008573ffffffffffffffffffffffffffffffffffffffff1673ffffffffffffffffffffffffffffffffffffffff1681526020019081526020016000208190555081603560008282546114799190611d94565b92505081905550600073ffffffffffffffffffffffffffffffffffffffff168373ffffffffffffffffffffffffffffffffffffffff167fddf252ad1be2c89b69c2b068fc378daa952ba7f163c4a11628f55a4df523b3ef846040516114de9190611c0b565b60405180910390a36114f2836000846114fc565b505050565b505050565b505050565b82805461150d90611e71565b90600052602060002090601f01602090048101928261152f5760008555611576565b82601f1061154857805160ff1916838001178555611576565b82800160010185558215611576579182015b8281111561157557825182559160200191906001019061155a565b5b5090506115839190611587565b5090565b5b808211156115a0576000816000905550600101611588565b5090565b60006115b76115b284611c66565b611c41565b9050828152602081018484840111156115cf57600080fd5b6115da848285611e2f565b509392505050565b6000813590506115f181612309565b92915050565b600082601f83011261160857600080fd5b81356116188482602086016115a4565b91505092915050565b60008135905061163081612320565b92915050565b60006020828403121561164857600080fd5b6000611656848285016115e2565b91505092915050565b6000806040838503121561167257600080fd5b6000611680858286016115e2565b9250506020611691858286016115e2565b9150509250929050565b6000806000606084860312156116b057600080fd5b60006116be868287016115e2565b93505060206116cf868287016115e2565b92505060406116e086828701611621565b9150509250925092565b600080604083850312156116fd57600080fd5b600061170b858286016115e2565b925050602061171c85828601611621565b9150509250929050565b6000806000806080858703121561173c57600080fd5b600085013567ffffffffffffffff81111561175657600080fd5b611762878288016115f7565b945050602085013567ffffffffffffffff81111561177f57600080fd5b61178b878288016115f7565b935050604061179c878288016115e2565b92505060606117ad878288016115e2565b91505092959194509250565b6000602082840312156117cb57600080fd5b60006117d984828501611621565b91505092915050565b6117eb81611dc8565b82525050565b6117fa81611dda565b82525050565b61180981611e1d565b82525050565b600061181a82611c97565b6118248185611ca2565b9350611834818560208601611e3e565b61183d81611f90565b840191505092915050565b6000611855602383611ca2565b915061186082611fa1565b604082019050919050565b6000611878602283611ca2565b915061188382611ff0565b604082019050919050565b600061189b602283611ca2565b91506118a68261203f565b604082019050919050565b60006118be601d83611ca2565b91506118c98261208e565b602082019050919050565b60006118e1602683611ca2565b91506118ec826120b7565b604082019050919050565b6000611904602e83611ca2565b915061190f82612106565b604082019050919050565b6000611927602183611ca2565b915061193282612155565b604082019050919050565b600061194a602583611ca2565b9150611955826121a4565b604082019050919050565b600061196d602483611ca2565b9150611978826121f3565b604082019050919050565b6000611990602b83611ca2565b915061199b82612242565b604082019050919050565b60006119b3602583611ca2565b91506119be82612291565b604082019050919050565b60006119d6601f83611ca2565b91506119e1826122e0565b602082019050919050565b6119f581611e06565b82525050565b611a0481611e10565b82525050565b6000604082019050611a1f60008301856117e2565b611a2c60208301846119ec565b9392505050565b6000602082019050611a4860008301846117f1565b92915050565b6000602082019050611a636000830184611800565b92915050565b60006020820190508181036000830152611a83818461180f565b905092915050565b60006020820190508181036000830152611aa481611848565b9050919050565b60006020820190508181036000830152611ac48161186b565b9050919050565b60006020820190508181036000830152611ae48161188e565b9050919050565b60006020820190508181036000830152611b04816118b1565b9050919050565b60006020820190508181036000830152611b24816118d4565b9050919050565b60006020820190508181036000830152611b44816118f7565b9050919050565b60006020820190508181036000830152611b648161191a565b9050919050565b60006020820190508181036000830152611b848161193d565b9050919050565b60006020820190508181036000830152611ba481611960565b9050919050565b60006020820190508181036000830152611bc481611983565b9050919050565b60006020820190508181036000830152611be4816119a6565b9050919050565b60006020820190508181036000830152611c04816119c9565b9050919050565b6000602082019050611c2060008301846119ec565b92915050565b6000602082019050611c3b60008301846119fb565b92915050565b6000611c4b611c5c565b9050611c578282611ea3565b919050565b6000604051905090565b600067ffffffffffffffff821115611c8157611c80611f61565b5b611c8a82611f90565b9050602081019050919050565b600081519050919050565b600082825260208201905092915050565b6000611cbe82611e06565b9150611cc983611e06565b9250827fffffffffffffffffffffffffffffffffffffffffffffffffffffffffffffffff03821115611cfe57611cfd611ed4565b5b828201905092915050565b6000611d1482611e06565b9150611d1f83611e06565b925082611d2f57611d2e611f03565b5b828204905092915050565b6000611d4582611e06565b9150611d5083611e06565b9250817fffffffffffffffffffffffffffffffffffffffffffffffffffffffffffffffff0483118215151615611d8957611d88611ed4565b5b828202905092915050565b6000611d9f82611e06565b9150611daa83611e06565b925082821015611dbd57611dbc611ed4565b5b828203905092915050565b6000611dd382611de6565b9050919050565b60008115159050919050565b600073ffffffffffffffffffffffffffffffffffffffff82169050919050565b6000819050919050565b600060ff82169050919050565b6000611e2882611e10565b9050919050565b82818337600083830152505050565b60005b83811015611e5c578082015181840152602081019050611e41565b83811115611e6b576000848401525b50505050565b60006002820490506001821680611e8957607f821691505b60208210811415611e9d57611e9c611f32565b5b50919050565b611eac82611f90565b810181811067ffffffffffffffff82111715611ecb57611eca611f61565b5b80604052505050565b7f4e487b7100000000000000000000000000000000000000000000000000000000600052601160045260246000fd5b7f4e487b7100000000000000000000000000000000000000000000000000000000600052601260045260246000fd5b7f4e487b7100000000000000000000000000000000000000000000000000000000600052602260045260246000fd5b7f4e487b7100000000000000000000000000000000000000000000000000000000600052604160045260246000fd5b6000601f19601f8301169050919050565b7f45524332303a207472616e7366657220746f20746865207a65726f206164647260008201527f6573730000000000000000000000000000000000000000000000000000000000602082015250565b7f45524332303a206275726e20616d6f756e7420657863656564732062616c616e60008201527f6365000000000000000000000000000000000000000000000000000000000000602082015250565b7f45524332303a20617070726f766520746f20746865207a65726f20616464726560008201527f7373000000000000000000000000000000000000000000000000000000000000602082015250565b7f45524332303a20696e73756666696369656e7420616c6c6f77616e6365000000600082015250565b7f45524332303a207472616e7366657220616d6f756e742065786365656473206260008201527f616c616e63650000000000000000000000000000000000000000000000000000602082015250565b7f496e697469616c697a61626c653a20636f6e747261637420697320616c72656160008201527f647920696e697469616c697a6564000000000000000000000000000000000000602082015250565b7f45524332303a206275726e2066726f6d20746865207a65726f2061646472657360008201527f7300000000000000000000000000000000000000000000000000000000000000602082015250565b7f45524332303a207472616e736665722066726f6d20746865207a65726f20616460008201527f6472657373000000000000000000000000000000000000000000000000000000602082015250565b7f45524332303a20617070726f76652066726f6d20746865207a65726f2061646460008201527f7265737300000000000000000000000000000000000000000000000000000000602082015250565b7f496e697469616c697a61626c653a20636f6e7472616374206973206e6f74206960008201527f6e697469616c697a696e67000000000000000000000000000000000000000000602082015250565b7f45524332303a2064656372656173656420616c6c6f77616e63652062656c6f7760008201527f207a65726f000000000000000000000000000000000000000000000000000000602082015250565b7f45524332303a206d696e7420746f20746865207a65726f206164647265737300600082015250565b61231281611dc8565b811461231d57600080fd5b50565b61232981611e06565b811461233457600080fd5b5056fea2646970667358221220022844042d0a520b56791b8c4416fbd4d5461a25ffd6d990eaf7115e4ddedb3764736f6c63430008040033",
  "linkReferences": {},
  "deployedLinkReferences": {}
}