{
  "_format": "hh-sol-artifact-1",
  "contractName": "FxPerpDynamic",
  "sourceName": "contracts/Vaults/FxPerpDynamic.sol",
  "abi": [
    {
      "inputs": [
        {
          "internalType": "string",
          "name": "_name",
          "type": "string"
        },
        {
          "internalType": "string",
          "name": "_symbol",
          "type": "string"
        },
        {
          "internalType": "address",
          "name": "_vaults",
          "type": "address"
        },
        {
          "internalType": "address",
          "name": "_perpStatic",
          "type": "address"
        }
      ],
      "stateMutability": "nonpayable",
      "type": "constructor"
    },
    {
      "anonymous": false,
      "inputs": [
        {
          "indexed": true,
          "internalType": "address",
          "name": "owner",
          "type": "address"
        },
        {
          "indexed": true,
          "internalType": "address",
          "name": "spender",
          "type": "address"
        },
        {
          "indexed": false,
          "internalType": "uint256",
          "name": "value",
          "type": "uint256"
        }
      ],
      "name": "Approval",
      "type": "event"
    },
    {
      "anonymous": false,
      "inputs": [
        {
          "indexed": true,
          "internalType": "address",
          "name": "from",
          "type": "address"
        },
        {
          "indexed": true,
          "internalType": "address",
          "name": "to",
          "type": "address"
        },
        {
          "indexed": false,
          "internalType": "uint256",
          "name": "value",
          "type": "uint256"
        }
      ],
      "name": "Transfer",
      "type": "event"
    },
    {
      "inputs": [],
      "name": "DYNAMIC_BALANCE_MULTIPLIER",
      "outputs": [
        {
          "internalType": "uint256",
          "name": "",
          "type": "uint256"
        }
      ],
      "stateMutability": "view",
      "type": "function"
    },
    {
      "inputs": [
        {
          "internalType": "address",
          "name": "owner",
          "type": "address"
        },
        {
          "internalType": "address",
          "name": "spender",
          "type": "address"
        }
      ],
      "name": "allowance",
      "outputs": [
        {
          "internalType": "uint256",
          "name": "",
          "type": "uint256"
        }
      ],
      "stateMutability": "view",
      "type": "function"
    },
    {
      "inputs": [
        {
          "internalType": "address",
          "name": "spender",
          "type": "address"
        },
        {
          "internalType": "uint256",
          "name": "amount",
          "type": "uint256"
        }
      ],
      "name": "approve",
      "outputs": [
        {
          "internalType": "bool",
          "name": "",
          "type": "bool"
        }
      ],
      "stateMutability": "nonpayable",
      "type": "function"
    },
    {
      "inputs": [
        {
          "internalType": "address",
          "name": "account",
          "type": "address"
        }
      ],
      "name": "balanceOf",
      "outputs": [
        {
          "internalType": "uint256",
          "name": "",
          "type": "uint256"
        }
      ],
      "stateMutability": "view",
      "type": "function"
    },
    {
      "inputs": [],
      "name": "decimals",
      "outputs": [
        {
          "internalType": "uint8",
          "name": "",
          "type": "uint8"
        }
      ],
      "stateMutability": "view",
      "type": "function"
    },
    {
      "inputs": [
        {
          "internalType": "address",
          "name": "spender",
          "type": "address"
        },
        {
          "internalType": "uint256",
          "name": "subtractedValue",
          "type": "uint256"
        }
      ],
      "name": "decreaseAllowance",
      "outputs": [
        {
          "internalType": "bool",
          "name": "",
          "type": "bool"
        }
      ],
      "stateMutability": "nonpayable",
      "type": "function"
    },
    {
      "inputs": [
        {
          "internalType": "address",
          "name": "spender",
          "type": "address"
        },
        {
          "internalType": "uint256",
          "name": "addedValue",
          "type": "uint256"
        }
      ],
      "name": "increaseAllowance",
      "outputs": [
        {
          "internalType": "bool",
          "name": "",
          "type": "bool"
        }
      ],
      "stateMutability": "nonpayable",
      "type": "function"
    },
    {
      "inputs": [
        {
          "internalType": "address",
          "name": "_account",
          "type": "address"
        },
        {
          "internalType": "uint256",
          "name": "_amount",
          "type": "uint256"
        }
      ],
      "name": "mint",
      "outputs": [],
      "stateMutability": "nonpayable",
      "type": "function"
    },
    {
      "inputs": [],
      "name": "name",
      "outputs": [
        {
          "internalType": "string",
          "name": "",
          "type": "string"
        }
      ],
      "stateMutability": "view",
      "type": "function"
    },
    {
      "inputs": [
        {
          "internalType": "uint256",
          "name": "_staticAmount",
          "type": "uint256"
        }
      ],
      "name": "portToStatic",
      "outputs": [],
      "stateMutability": "nonpayable",
      "type": "function"
    },
    {
      "inputs": [],
      "name": "symbol",
      "outputs": [
        {
          "internalType": "string",
          "name": "",
          "type": "string"
        }
      ],
      "stateMutability": "view",
      "type": "function"
    },
    {
      "inputs": [],
      "name": "totalSupply",
      "outputs": [
        {
          "internalType": "uint256",
          "name": "",
          "type": "uint256"
        }
      ],
      "stateMutability": "view",
      "type": "function"
    },
    {
      "inputs": [
        {
          "internalType": "address",
          "name": "to",
          "type": "address"
        },
        {
          "internalType": "uint256",
          "name": "amount",
          "type": "uint256"
        }
      ],
      "name": "transfer",
      "outputs": [
        {
          "internalType": "bool",
          "name": "",
          "type": "bool"
        }
      ],
      "stateMutability": "nonpayable",
      "type": "function"
    },
    {
      "inputs": [
        {
          "internalType": "address",
          "name": "from",
          "type": "address"
        },
        {
          "internalType": "address",
          "name": "to",
          "type": "address"
        },
        {
          "internalType": "uint256",
          "name": "amount",
          "type": "uint256"
        }
      ],
      "name": "transferFrom",
      "outputs": [
        {
          "internalType": "bool",
          "name": "",
          "type": "bool"
        }
      ],
      "stateMutability": "nonpayable",
      "type": "function"
    },
    {
      "inputs": [
        {
          "internalType": "uint256",
          "name": "_multiplier",
          "type": "uint256"
        }
      ],
      "name": "updateDynamicMultiplier",
      "outputs": [],
      "stateMutability": "nonpayable",
      "type": "function"
    }
  ],
  "bytecode": "0x60806040523480156200001157600080fd5b506040516200210c3803806200210c833981810160405281019062000037919062000250565b838381600390805190602001906200005192919062000117565b5080600490805190602001906200006a92919062000117565b50505081600560006101000a81548173ffffffffffffffffffffffffffffffffffffffff021916908373ffffffffffffffffffffffffffffffffffffffff16021790555080600660006101000a81548173ffffffffffffffffffffffffffffffffffffffff021916908373ffffffffffffffffffffffffffffffffffffffff160217905550670de0b6b3a7640000600881905550670de0b6b3a764000060078190555050505050620004ac565b8280546200012590620003b7565b90600052602060002090601f01602090048101928262000149576000855562000195565b82601f106200016457805160ff191683800117855562000195565b8280016001018555821562000195579182015b828111156200019457825182559160200191906001019062000177565b5b509050620001a49190620001a8565b5090565b5b80821115620001c3576000816000905550600101620001a9565b5090565b6000620001de620001d88462000317565b620002ee565b905082815260208101848484011115620001f757600080fd5b6200020484828562000381565b509392505050565b6000815190506200021d8162000492565b92915050565b600082601f8301126200023557600080fd5b815162000247848260208601620001c7565b91505092915050565b600080600080608085870312156200026757600080fd5b600085015167ffffffffffffffff8111156200028257600080fd5b620002908782880162000223565b945050602085015167ffffffffffffffff811115620002ae57600080fd5b620002bc8782880162000223565b9350506040620002cf878288016200020c565b9250506060620002e2878288016200020c565b91505092959194509250565b6000620002fa6200030d565b9050620003088282620003ed565b919050565b6000604051905090565b600067ffffffffffffffff82111562000335576200033462000452565b5b620003408262000481565b9050602081019050919050565b60006200035a8262000361565b9050919050565b600073ffffffffffffffffffffffffffffffffffffffff82169050919050565b60005b83811015620003a157808201518184015260208101905062000384565b83811115620003b1576000848401525b50505050565b60006002820490506001821680620003d057607f821691505b60208210811415620003e757620003e662000423565b5b50919050565b620003f88262000481565b810181811067ffffffffffffffff821117156200041a576200041962000452565b5b80604052505050565b7f4e487b7100000000000000000000000000000000000000000000000000000000600052602260045260246000fd5b7f4e487b7100000000000000000000000000000000000000000000000000000000600052604160045260246000fd5b6000601f19601f8301169050919050565b6200049d816200034d565b8114620004a957600080fd5b50565b611c5080620004bc6000396000f3fe608060405234801561001057600080fd5b50600436106100f55760003560e01c8063626f5c0211610097578063a457c2d711610066578063a457c2d714610288578063a9059cbb146102b8578063ad80484e146102e8578063dd62ed3e14610304576100f5565b8063626f5c021461020057806370a082311461021e5780638f9bf8331461024e57806395d89b411461026a576100f5565b806323b872dd116100d357806323b872dd14610166578063313ce5671461019657806339509351146101b457806340c10f19146101e4576100f5565b806306fdde03146100fa578063095ea7b31461011857806318160ddd14610148575b600080fd5b610102610334565b60405161010f9190611501565b60405180910390f35b610132600480360381019061012d9190611285565b6103c6565b60405161013f91906114e6565b60405180910390f35b6101506103e9565b60405161015d9190611663565b60405180910390f35b610180600480360381019061017b9190611236565b6103f3565b60405161018d91906114e6565b60405180910390f35b61019e610422565b6040516101ab919061167e565b60405180910390f35b6101ce60048036038101906101c99190611285565b61042b565b6040516101db91906114e6565b60405180910390f35b6101fe60048036038101906101f99190611285565b610462565b005b6102086104ca565b6040516102159190611663565b60405180910390f35b610238600480360381019061023391906111d1565b6104d0565b6040516102459190611663565b60405180910390f35b610268600480360381019061026391906112c1565b610540565b005b6102726105a4565b60405161027f9190611501565b60405180910390f35b6102a2600480360381019061029d9190611285565b610636565b6040516102af91906114e6565b60405180910390f35b6102d260048036038101906102cd9190611285565b6106ad565b6040516102df91906114e6565b60405180910390f35b61030260048036038101906102fd91906112c1565b6106d0565b005b61031e600480360381019061031991906111fa565b6107b7565b60405161032b9190611663565b60405180910390f35b60606003805461034390611852565b80601f016020809104026020016040519081016040528092919081815260200182805461036f90611852565b80156103bc5780601f10610391576101008083540402835291602001916103bc565b820191906000526020600020905b81548152906001019060200180831161039f57829003601f168201915b5050505050905090565b6000806103d1610866565b90506103de81858561086e565b600191505092915050565b6000600254905090565b6000806103fe610866565b905061040b8582856108ac565b610416858585610938565b60019150509392505050565b60006012905090565b600080610436610866565b905061045781858561044885896107b7565b61045291906116b5565b61086e565b600191505092915050565b600660009054906101000a900473ffffffffffffffffffffffffffffffffffffffff1673ffffffffffffffffffffffffffffffffffffffff163373ffffffffffffffffffffffffffffffffffffffff16146104bc57600080fd5b6104c68282610976565b5050565b60075481565b600061053960085461052b6007546000808773ffffffffffffffffffffffffffffffffffffffff1673ffffffffffffffffffffffffffffffffffffffff168152602001908152602001600020546109b290919063ffffffff16565b6109c890919063ffffffff16565b9050919050565b600560009054906101000a900473ffffffffffffffffffffffffffffffffffffffff1673ffffffffffffffffffffffffffffffffffffffff163373ffffffffffffffffffffffffffffffffffffffff161461059a57600080fd5b8060078190555050565b6060600480546105b390611852565b80601f01602080910402602001604051908101604052809291908181526020018280546105df90611852565b801561062c5780601f106106015761010080835404028352916020019161062c565b820191906000526020600020905b81548152906001019060200180831161060f57829003601f168201915b5050505050905090565b600080610641610866565b9050600061064f82866107b7565b905083811015610694576040517f08c379a000000000000000000000000000000000000000000000000000000000815260040161068b90611623565b60405180910390fd5b6106a1828686840361086e565b60019250505092915050565b6000806106b8610866565b90506106c5818585610938565b600191505092915050565b806000803373ffffffffffffffffffffffffffffffffffffffff1673ffffffffffffffffffffffffffffffffffffffff16815260200190815260200160002054101561071b57600080fd5b61072533826109de565b600660009054906101000a900473ffffffffffffffffffffffffffffffffffffffff1673ffffffffffffffffffffffffffffffffffffffff166340c10f1933836040518363ffffffff1660e01b81526004016107829291906114bd565b600060405180830381600087803b15801561079c57600080fd5b505af11580156107b0573d6000803e3d6000fd5b5050505050565b600061085e600854610850600754600160008873ffffffffffffffffffffffffffffffffffffffff1673ffffffffffffffffffffffffffffffffffffffff16815260200190815260200160002060008773ffffffffffffffffffffffffffffffffffffffff1673ffffffffffffffffffffffffffffffffffffffff168152602001908152602001600020546109b290919063ffffffff16565b6109c890919063ffffffff16565b905092915050565b600033905090565b600061089960075461088b600854856109b290919063ffffffff16565b6109c890919063ffffffff16565b90506108a6848483610a1a565b50505050565b60006108b884846107b7565b90507fffffffffffffffffffffffffffffffffffffffffffffffffffffffffffffffff81146109325781811015610924576040517f08c379a000000000000000000000000000000000000000000000000000000000815260040161091b90611583565b60405180910390fd5b610931848484840361086e565b5b50505050565b6000610963600754610955600854856109b290919063ffffffff16565b6109c890919063ffffffff16565b9050610970848483610be5565b50505050565b60006109a1600754610993600854856109b290919063ffffffff16565b6109c890919063ffffffff16565b90506109ad8382610e66565b505050565b600081836109c0919061173c565b905092915050565b600081836109d6919061170b565b905092915050565b6000610a096007546109fb600854856109b290919063ffffffff16565b6109c890919063ffffffff16565b9050610a158382610fc6565b505050565b600073ffffffffffffffffffffffffffffffffffffffff168373ffffffffffffffffffffffffffffffffffffffff161415610a8a576040517f08c379a0000000000000000000000000000000000000000000000000000000008152600401610a8190611603565b60405180910390fd5b600073ffffffffffffffffffffffffffffffffffffffff168273ffffffffffffffffffffffffffffffffffffffff161415610afa576040517f08c379a0000000000000000000000000000000000000000000000000000000008152600401610af190611563565b60405180910390fd5b80600160008573ffffffffffffffffffffffffffffffffffffffff1673ffffffffffffffffffffffffffffffffffffffff16815260200190815260200160002060008473ffffffffffffffffffffffffffffffffffffffff1673ffffffffffffffffffffffffffffffffffffffff168152602001908152602001600020819055508173ffffffffffffffffffffffffffffffffffffffff168373ffffffffffffffffffffffffffffffffffffffff167f8c5be1e5ebec7d5bd14f71427d1e84f3dd0314c0f7b2291e5b200ac8c7c3b92583604051610bd89190611663565b60405180910390a3505050565b600073ffffffffffffffffffffffffffffffffffffffff168373ffffffffffffffffffffffffffffffffffffffff161415610c55576040517f08c379a0000000000000000000000000000000000000000000000000000000008152600401610c4c906115e3565b60405180910390fd5b600073ffffffffffffffffffffffffffffffffffffffff168273ffffffffffffffffffffffffffffffffffffffff161415610cc5576040517f08c379a0000000000000000000000000000000000000000000000000000000008152600401610cbc90611523565b60405180910390fd5b610cd083838361119d565b60008060008573ffffffffffffffffffffffffffffffffffffffff1673ffffffffffffffffffffffffffffffffffffffff16815260200190815260200160002054905081811015610d56576040517f08c379a0000000000000000000000000000000000000000000000000000000008152600401610d4d906115a3565b60405180910390fd5b8181036000808673ffffffffffffffffffffffffffffffffffffffff1673ffffffffffffffffffffffffffffffffffffffff16815260200190815260200160002081905550816000808573ffffffffffffffffffffffffffffffffffffffff1673ffffffffffffffffffffffffffffffffffffffff1681526020019081526020016000206000828254610de991906116b5565b925050819055508273ffffffffffffffffffffffffffffffffffffffff168473ffffffffffffffffffffffffffffffffffffffff167fddf252ad1be2c89b69c2b068fc378daa952ba7f163c4a11628f55a4df523b3ef84604051610e4d9190611663565b60405180910390a3610e608484846111a2565b50505050565b600073ffffffffffffffffffffffffffffffffffffffff168273ffffffffffffffffffffffffffffffffffffffff161415610ed6576040517f08c379a0000000000000000000000000000000000000000000000000000000008152600401610ecd90611643565b60405180910390fd5b610ee26000838361119d565b8060026000828254610ef491906116b5565b92505081905550806000808473ffffffffffffffffffffffffffffffffffffffff1673ffffffffffffffffffffffffffffffffffffffff1681526020019081526020016000206000828254610f4991906116b5565b925050819055508173ffffffffffffffffffffffffffffffffffffffff16600073ffffffffffffffffffffffffffffffffffffffff167fddf252ad1be2c89b69c2b068fc378daa952ba7f163c4a11628f55a4df523b3ef83604051610fae9190611663565b60405180910390a3610fc2600083836111a2565b5050565b600073ffffffffffffffffffffffffffffffffffffffff168273ffffffffffffffffffffffffffffffffffffffff161415611036576040517f08c379a000000000000000000000000000000000000000000000000000000000815260040161102d906115c3565b60405180910390fd5b6110428260008361119d565b60008060008473ffffffffffffffffffffffffffffffffffffffff1673ffffffffffffffffffffffffffffffffffffffff168152602001908152602001600020549050818110156110c8576040517f08c379a00000000000000000000000000000000000000000000000000000000081526004016110bf90611543565b60405180910390fd5b8181036000808573ffffffffffffffffffffffffffffffffffffffff1673ffffffffffffffffffffffffffffffffffffffff16815260200190815260200160002081905550816002600082825461111f9190611796565b92505081905550600073ffffffffffffffffffffffffffffffffffffffff168373ffffffffffffffffffffffffffffffffffffffff167fddf252ad1be2c89b69c2b068fc378daa952ba7f163c4a11628f55a4df523b3ef846040516111849190611663565b60405180910390a3611198836000846111a2565b505050565b505050565b505050565b6000813590506111b681611bec565b92915050565b6000813590506111cb81611c03565b92915050565b6000602082840312156111e357600080fd5b60006111f1848285016111a7565b91505092915050565b6000806040838503121561120d57600080fd5b600061121b858286016111a7565b925050602061122c858286016111a7565b9150509250929050565b60008060006060848603121561124b57600080fd5b6000611259868287016111a7565b935050602061126a868287016111a7565b925050604061127b868287016111bc565b9150509250925092565b6000806040838503121561129857600080fd5b60006112a6858286016111a7565b92505060206112b7858286016111bc565b9150509250929050565b6000602082840312156112d357600080fd5b60006112e1848285016111bc565b91505092915050565b6112f3816117ca565b82525050565b611302816117dc565b82525050565b600061131382611699565b61131d81856116a4565b935061132d81856020860161181f565b61133681611911565b840191505092915050565b600061134e6023836116a4565b915061135982611922565b604082019050919050565b60006113716022836116a4565b915061137c82611971565b604082019050919050565b60006113946022836116a4565b915061139f826119c0565b604082019050919050565b60006113b7601d836116a4565b91506113c282611a0f565b602082019050919050565b60006113da6026836116a4565b91506113e582611a38565b604082019050919050565b60006113fd6021836116a4565b915061140882611a87565b604082019050919050565b60006114206025836116a4565b915061142b82611ad6565b604082019050919050565b60006114436024836116a4565b915061144e82611b25565b604082019050919050565b60006114666025836116a4565b915061147182611b74565b604082019050919050565b6000611489601f836116a4565b915061149482611bc3565b602082019050919050565b6114a881611808565b82525050565b6114b781611812565b82525050565b60006040820190506114d260008301856112ea565b6114df602083018461149f565b9392505050565b60006020820190506114fb60008301846112f9565b92915050565b6000602082019050818103600083015261151b8184611308565b905092915050565b6000602082019050818103600083015261153c81611341565b9050919050565b6000602082019050818103600083015261155c81611364565b9050919050565b6000602082019050818103600083015261157c81611387565b9050919050565b6000602082019050818103600083015261159c816113aa565b9050919050565b600060208201905081810360008301526115bc816113cd565b9050919050565b600060208201905081810360008301526115dc816113f0565b9050919050565b600060208201905081810360008301526115fc81611413565b9050919050565b6000602082019050818103600083015261161c81611436565b9050919050565b6000602082019050818103600083015261163c81611459565b9050919050565b6000602082019050818103600083015261165c8161147c565b9050919050565b6000602082019050611678600083018461149f565b92915050565b600060208201905061169360008301846114ae565b92915050565b600081519050919050565b600082825260208201905092915050565b60006116c082611808565b91506116cb83611808565b9250827fffffffffffffffffffffffffffffffffffffffffffffffffffffffffffffffff03821115611700576116ff611884565b5b828201905092915050565b600061171682611808565b915061172183611808565b925082611731576117306118b3565b5b828204905092915050565b600061174782611808565b915061175283611808565b9250817fffffffffffffffffffffffffffffffffffffffffffffffffffffffffffffffff048311821515161561178b5761178a611884565b5b828202905092915050565b60006117a182611808565b91506117ac83611808565b9250828210156117bf576117be611884565b5b828203905092915050565b60006117d5826117e8565b9050919050565b60008115159050919050565b600073ffffffffffffffffffffffffffffffffffffffff82169050919050565b6000819050919050565b600060ff82169050919050565b60005b8381101561183d578082015181840152602081019050611822565b8381111561184c576000848401525b50505050565b6000600282049050600182168061186a57607f821691505b6020821081141561187e5761187d6118e2565b5b50919050565b7f4e487b7100000000000000000000000000000000000000000000000000000000600052601160045260246000fd5b7f4e487b7100000000000000000000000000000000000000000000000000000000600052601260045260246000fd5b7f4e487b7100000000000000000000000000000000000000000000000000000000600052602260045260246000fd5b6000601f19601f8301169050919050565b7f45524332303a207472616e7366657220746f20746865207a65726f206164647260008201527f6573730000000000000000000000000000000000000000000000000000000000602082015250565b7f45524332303a206275726e20616d6f756e7420657863656564732062616c616e60008201527f6365000000000000000000000000000000000000000000000000000000000000602082015250565b7f45524332303a20617070726f766520746f20746865207a65726f20616464726560008201527f7373000000000000000000000000000000000000000000000000000000000000602082015250565b7f45524332303a20696e73756666696369656e7420616c6c6f77616e6365000000600082015250565b7f45524332303a207472616e7366657220616d6f756e742065786365656473206260008201527f616c616e63650000000000000000000000000000000000000000000000000000602082015250565b7f45524332303a206275726e2066726f6d20746865207a65726f2061646472657360008201527f7300000000000000000000000000000000000000000000000000000000000000602082015250565b7f45524332303a207472616e736665722066726f6d20746865207a65726f20616460008201527f6472657373000000000000000000000000000000000000000000000000000000602082015250565b7f45524332303a20617070726f76652066726f6d20746865207a65726f2061646460008201527f7265737300000000000000000000000000000000000000000000000000000000602082015250565b7f45524332303a2064656372656173656420616c6c6f77616e63652062656c6f7760008201527f207a65726f000000000000000000000000000000000000000000000000000000602082015250565b7f45524332303a206d696e7420746f20746865207a65726f206164647265737300600082015250565b611bf5816117ca565b8114611c0057600080fd5b50565b611c0c81611808565b8114611c1757600080fd5b5056fea2646970667358221220ddbfec3fb14110dcd6270c3da0e99e57caa7a86f3500cc30ea1fb4546337393b64736f6c63430008040033",
  "linkReferences": {},
  "deployedLinkReferences": {}
}