{
  "_format": "hh-sol-artifact-1",
  "contractName": "FxUSDVaults",
  "sourceName": "contracts/Vaults/FxUSDVaults.sol",
  "abi": [
    {
      "anonymous": false,
      "inputs": [
        {
          "indexed": false,
          "internalType": "uint8",
          "name": "version",
          "type": "uint8"
        }
      ],
      "name": "Initialized",
      "type": "event"
    },
    {
      "inputs": [],
      "name": "DYNAMIC_DEBT_MULTIPLIER",
      "outputs": [
        {
          "internalType": "uint256",
          "name": "",
          "type": "uint256"
        }
      ],
      "stateMutability": "view",
      "type": "function"
    },
    {
      "inputs": [
        {
          "internalType": "uint256",
          "name": "",
          "type": "uint256"
        }
      ],
      "name": "Vaults",
      "outputs": [
        {
          "internalType": "address",
          "name": "Owner",
          "type": "address"
        },
        {
          "internalType": "uint256",
          "name": "CollateralIndex",
          "type": "uint256"
        },
        {
          "internalType": "uint256",
          "name": "Collateral",
          "type": "uint256"
        },
        {
          "internalType": "uint256",
          "name": "Debt",
          "type": "uint256"
        },
        {
          "internalType": "uint256",
          "name": "ID",
          "type": "uint256"
        }
      ],
      "stateMutability": "view",
      "type": "function"
    },
    {
      "inputs": [
        {
          "internalType": "address",
          "name": "_collateral",
          "type": "address"
        },
        {
          "internalType": "bytes32",
          "name": "_priceFeedKey",
          "type": "bytes32"
        }
      ],
      "name": "addCollateralOption",
      "outputs": [],
      "stateMutability": "nonpayable",
      "type": "function"
    },
    {
      "inputs": [
        {
          "internalType": "uint256",
          "name": "_vaultID",
          "type": "uint256"
        },
        {
          "internalType": "uint256",
          "name": "_amount",
          "type": "uint256"
        }
      ],
      "name": "borrow",
      "outputs": [],
      "stateMutability": "nonpayable",
      "type": "function"
    },
    {
      "inputs": [
        {
          "internalType": "uint256",
          "name": "_vaultID",
          "type": "uint256"
        }
      ],
      "name": "closeVault",
      "outputs": [],
      "stateMutability": "nonpayable",
      "type": "function"
    },
    {
      "inputs": [
        {
          "internalType": "uint256",
          "name": "",
          "type": "uint256"
        }
      ],
      "name": "collateralWhitelist",
      "outputs": [
        {
          "internalType": "address",
          "name": "",
          "type": "address"
        }
      ],
      "stateMutability": "view",
      "type": "function"
    },
    {
      "inputs": [
        {
          "internalType": "uint256",
          "name": "_index",
          "type": "uint256"
        }
      ],
      "name": "getVault",
      "outputs": [
        {
          "internalType": "address",
          "name": "vaultOwner",
          "type": "address"
        },
        {
          "internalType": "uint256",
          "name": "collateralIndex",
          "type": "uint256"
        },
        {
          "internalType": "uint256",
          "name": "collateral",
          "type": "uint256"
        },
        {
          "internalType": "uint256",
          "name": "debt",
          "type": "uint256"
        },
        {
          "internalType": "uint256",
          "name": "id",
          "type": "uint256"
        }
      ],
      "stateMutability": "view",
      "type": "function"
    },
    {
      "inputs": [
        {
          "internalType": "address[]",
          "name": "_collateralWhitelist",
          "type": "address[]"
        },
        {
          "internalType": "bytes32[]",
          "name": "_priceFeedKeys",
          "type": "bytes32[]"
        },
        {
          "internalType": "address",
          "name": "_oracle",
          "type": "address"
        },
        {
          "internalType": "uint256",
          "name": "_debtTokenIndex",
          "type": "uint256"
        }
      ],
      "name": "initialize",
      "outputs": [],
      "stateMutability": "nonpayable",
      "type": "function"
    },
    {
      "inputs": [
        {
          "internalType": "uint256",
          "name": "",
          "type": "uint256"
        }
      ],
      "name": "isClosed",
      "outputs": [
        {
          "internalType": "bool",
          "name": "",
          "type": "bool"
        }
      ],
      "stateMutability": "view",
      "type": "function"
    },
    {
      "inputs": [
        {
          "internalType": "uint256",
          "name": "_vaultID",
          "type": "uint256"
        }
      ],
      "name": "liquidate",
      "outputs": [],
      "stateMutability": "nonpayable",
      "type": "function"
    },
    {
      "inputs": [
        {
          "internalType": "uint256",
          "name": "_collateralIndex",
          "type": "uint256"
        }
      ],
      "name": "openVault",
      "outputs": [
        {
          "internalType": "uint256",
          "name": "",
          "type": "uint256"
        }
      ],
      "stateMutability": "nonpayable",
      "type": "function"
    },
    {
      "inputs": [],
      "name": "owner",
      "outputs": [
        {
          "internalType": "address",
          "name": "",
          "type": "address"
        }
      ],
      "stateMutability": "view",
      "type": "function"
    },
    {
      "inputs": [
        {
          "internalType": "uint256",
          "name": "",
          "type": "uint256"
        }
      ],
      "name": "priceFeedKeys",
      "outputs": [
        {
          "internalType": "bytes32",
          "name": "",
          "type": "bytes32"
        }
      ],
      "stateMutability": "view",
      "type": "function"
    },
    {
      "inputs": [
        {
          "internalType": "uint256",
          "name": "_vaultID",
          "type": "uint256"
        },
        {
          "internalType": "uint256",
          "name": "_amount",
          "type": "uint256"
        }
      ],
      "name": "repay",
      "outputs": [],
      "stateMutability": "nonpayable",
      "type": "function"
    },
    {
      "inputs": [
        {
          "internalType": "address",
          "name": "_perpStatic",
          "type": "address"
        },
        {
          "internalType": "address",
          "name": "_perpDynamic",
          "type": "address"
        },
        {
          "internalType": "address",
          "name": "_OrderBook",
          "type": "address"
        }
      ],
      "name": "setState",
      "outputs": [],
      "stateMutability": "nonpayable",
      "type": "function"
    },
    {
      "inputs": [
        {
          "internalType": "uint256",
          "name": "_vaultID",
          "type": "uint256"
        },
        {
          "internalType": "uint256",
          "name": "_amount",
          "type": "uint256"
        }
      ],
      "name": "supply",
      "outputs": [],
      "stateMutability": "nonpayable",
      "type": "function"
    },
    {
      "inputs": [
        {
          "internalType": "uint256",
          "name": "_fundingRate",
          "type": "uint256"
        }
      ],
      "name": "updateDynamicMultiplier",
      "outputs": [],
      "stateMutability": "nonpayable",
      "type": "function"
    },
    {
      "inputs": [
        {
          "internalType": "uint256",
          "name": "_vaultID",
          "type": "uint256"
        },
        {
          "internalType": "uint256",
          "name": "_amount",
          "type": "uint256"
        }
      ],
      "name": "withdraw",
      "outputs": [],
      "stateMutability": "nonpayable",
      "type": "function"
    },
    {
      "stateMutability": "payable",
      "type": "receive"
    }
  ],
  "bytecode": "0x608060405234801561001057600080fd5b50612923806100206000396000f3fe60806040526004361061010d5760003560e01c80638da5cb5b11610095578063d8aed14511610064578063d8aed1451461039c578063d9d75db4146103c5578063daecfa6c146103ee578063f987714f14610417578063fcd96b021461044257610114565b80638da5cb5b146102ca5780638f9bf833146102f55780639403b6341461031e578063d5c78a281461035f57610114565b80632a0ab1dd116100dc5780632a0ab1dd146101d1578063360c32881461020e578063415f124014610237578063441a3e70146102605780635aca84151461028957610114565b806304a2ce7e146101195780630afbd698146101565780630ecbcdab1461017f5780631301c210146101a857610114565b3661011457005b600080fd5b34801561012557600080fd5b50610140600480360381019061013b91906122c0565b61047f565b60405161014d91906124fb565b60405180910390f35b34801561016257600080fd5b5061017d60048036038101906101789190612204565b610599565b005b34801561018b57600080fd5b506101a660048036038101906101a19190612312565b610635565b005b3480156101b457600080fd5b506101cf60048036038101906101ca91906121c8565b6108d3565b005b3480156101dd57600080fd5b506101f860048036038101906101f391906122c0565b6109d3565b60405161020591906124a5565b60405180910390f35b34801561021a57600080fd5b50610235600480360381019061023091906122c0565b6109f7565b005b34801561024357600080fd5b5061025e600480360381019061025991906122c0565b610b44565b005b34801561026c57600080fd5b5061028760048036038101906102829190612312565b610b8f565b005b34801561029557600080fd5b506102b060048036038101906102ab91906122c0565b610eaa565b6040516102c1959493929190612437565b60405180910390f35b3480156102d657600080fd5b506102df610f10565b6040516102ec91906123bc565b60405180910390f35b34801561030157600080fd5b5061031c600480360381019061031791906122c0565b610f36565b005b34801561032a57600080fd5b50610345600480360381019061034091906122c0565b611057565b604051610356959493929190612437565b60405180910390f35b34801561036b57600080fd5b50610386600480360381019061038191906122c0565b611160565b604051610393919061248a565b60405180910390f35b3480156103a857600080fd5b506103c360048036038101906103be9190612312565b611180565b005b3480156103d157600080fd5b506103ec60048036038101906103e79190612179565b6112bd565b005b3480156103fa57600080fd5b5061041560048036038101906104109190612312565b6113ba565b005b34801561042357600080fd5b5061042c61155d565b60405161043991906124fb565b60405180910390f35b34801561044e57600080fd5b50610469600480360381019061046491906122c0565b611563565b60405161047691906123bc565b60405180910390f35b6000600680549050821061049257600080fd5b60006040518060a001604052803373ffffffffffffffffffffffffffffffffffffffff16815260200184815260200160008152602001600081526020016001548152509050600d81908060018154018082558091505060019003906000526020600020906005020160009091909190915060008201518160000160006101000a81548173ffffffffffffffffffffffffffffffffffffffff021916908373ffffffffffffffffffffffffffffffffffffffff160217905550602082015181600101556040820151816002015560608201518160030155608082015181600401555050600160008154809291906105879061275b565b91905055508060800151915050919050565b60006105a560016115a2565b905080156105c9576001600060016101000a81548160ff0219169083151502179055505b6105d585858585611692565b801561062e5760008060016101000a81548160ff0219169083151502179055507f7f26b83ff96e1f2b6a682f133852f6798a09c465da95921460cefb3847402498600160405161062591906124c0565b60405180910390a15b5050505050565b816000600d8281548110610672577f4e487b7100000000000000000000000000000000000000000000000000000000600052603260045260246000fd5b90600052602060002090600502016040518060a00160405290816000820160009054906101000a900473ffffffffffffffffffffffffffffffffffffffff1673ffffffffffffffffffffffffffffffffffffffff1673ffffffffffffffffffffffffffffffffffffffff1681526020016001820154815260200160028201548152602001600382015481526020016004820154815250509050806000015173ffffffffffffffffffffffffffffffffffffffff163373ffffffffffffffffffffffffffffffffffffffff161461074757600080fd5b83600e600082815260200190815260200160002060009054906101000a900460ff161561077357600080fd5b6000600d86815481106107af577f4e487b7100000000000000000000000000000000000000000000000000000000600052603260045260246000fd5b9060005260206000209060050201905060006107d886836003015461180690919063ffffffff16565b905060006108056003546107f76005548561181c90919063ffffffff16565b61183290919063ffffffff16565b9050600061081b84600101548560020154611848565b9050610827828261197c565b61083057600080fd5b828460030181905550600c60009054906101000a900473ffffffffffffffffffffffffffffffffffffffff1673ffffffffffffffffffffffffffffffffffffffff166340c10f19338a6040518363ffffffff1660e01b815260040161089692919061240e565b600060405180830381600087803b1580156108b057600080fd5b505af11580156108c4573d6000803e3d6000fd5b50505050505050505050505050565b600860009054906101000a900473ffffffffffffffffffffffffffffffffffffffff1673ffffffffffffffffffffffffffffffffffffffff163373ffffffffffffffffffffffffffffffffffffffff161461092d57600080fd5b6007805490506006805490501461094357600080fd5b6006829080600181540180825580915050600190039060005260206000200160009091909190916101000a81548173ffffffffffffffffffffffffffffffffffffffff021916908373ffffffffffffffffffffffffffffffffffffffff16021790555060078190806001815401808255809150506001900390600052602060002001600090919091909150555050565b600781815481106109e357600080fd5b906000526020600020016000915090505481565b806000600d8281548110610a34577f4e487b7100000000000000000000000000000000000000000000000000000000600052603260045260246000fd5b90600052602060002090600502016040518060a00160405290816000820160009054906101000a900473ffffffffffffffffffffffffffffffffffffffff1673ffffffffffffffffffffffffffffffffffffffff1673ffffffffffffffffffffffffffffffffffffffff1681526020016001820154815260200160028201548152602001600382015481526020016004820154815250509050806000015173ffffffffffffffffffffffffffffffffffffffff163373ffffffffffffffffffffffffffffffffffffffff1614610b0957600080fd5b82600e600082815260200190815260200160002060009054906101000a900460ff1615610b3557600080fd5b610b3e846119de565b50505050565b80600e600082815260200190815260200160002060009054906101000a900460ff1615610b7057600080fd5b610b7982611d3a565b610b8257600080fd5b610b8b826119de565b5050565b816000600d8281548110610bcc577f4e487b7100000000000000000000000000000000000000000000000000000000600052603260045260246000fd5b90600052602060002090600502016040518060a00160405290816000820160009054906101000a900473ffffffffffffffffffffffffffffffffffffffff1673ffffffffffffffffffffffffffffffffffffffff1673ffffffffffffffffffffffffffffffffffffffff1681526020016001820154815260200160028201548152602001600382015481526020016004820154815250509050806000015173ffffffffffffffffffffffffffffffffffffffff163373ffffffffffffffffffffffffffffffffffffffff1614610ca157600080fd5b83600e600082815260200190815260200160002060009054906101000a900460ff1615610ccd57600080fd5b6000600d8681548110610d09577f4e487b7100000000000000000000000000000000000000000000000000000000600052603260045260246000fd5b906000526020600020906005020190506000610d3f8260010154610d3a888560020154611e9a90919063ffffffff16565b611848565b90506000610d70600354610d62600554866003015461181c90919063ffffffff16565b61183290919063ffffffff16565b9050610d7c818361197c565b610d8557600080fd5b610d9c878460020154611e9a90919063ffffffff16565b836002018190555060006006846001015481548110610de4577f4e487b7100000000000000000000000000000000000000000000000000000000600052603260045260246000fd5b9060005260206000200160009054906101000a900473ffffffffffffffffffffffffffffffffffffffff1690508073ffffffffffffffffffffffffffffffffffffffff1663a9059cbb338a6040518363ffffffff1660e01b8152600401610e4c92919061240e565b602060405180830381600087803b158015610e6657600080fd5b505af1158015610e7a573d6000803e3d6000fd5b505050506040513d601f19601f82011682018060405250810190610e9e9190612297565b50505050505050505050565b600d8181548110610eba57600080fd5b90600052602060002090600502016000915090508060000160009054906101000a900473ffffffffffffffffffffffffffffffffffffffff16908060010154908060020154908060030154908060040154905085565b600860009054906101000a900473ffffffffffffffffffffffffffffffffffffffff1681565b600960009054906101000a900473ffffffffffffffffffffffffffffffffffffffff1673ffffffffffffffffffffffffffffffffffffffff163373ffffffffffffffffffffffffffffffffffffffff1614610f9057600080fd5b6000610fa78260055461181c90919063ffffffff16565b9050610fbe6003548261183290919063ffffffff16565b600581905550600a60009054906101000a900473ffffffffffffffffffffffffffffffffffffffff1673ffffffffffffffffffffffffffffffffffffffff16638f9bf8336005546040518263ffffffff1660e01b815260040161102191906124fb565b600060405180830381600087803b15801561103b57600080fd5b505af115801561104f573d6000803e3d6000fd5b505050505050565b600080600080600080600d878154811061109a577f4e487b7100000000000000000000000000000000000000000000000000000000600052603260045260246000fd5b90600052602060002090600502016040518060a00160405290816000820160009054906101000a900473ffffffffffffffffffffffffffffffffffffffff1673ffffffffffffffffffffffffffffffffffffffff1673ffffffffffffffffffffffffffffffffffffffff168152602001600182015481526020016002820154815260200160038201548152602001600482015481525050905080600001518160200151826040015183606001518460800151955095509550955095505091939590929450565b600e6020528060005260406000206000915054906101000a900460ff1681565b81600e600082815260200190815260200160002060009054906101000a900460ff16156111ac57600080fd5b6000600d84815481106111e8577f4e487b7100000000000000000000000000000000000000000000000000000000600052603260045260246000fd5b90600052602060002090600502019050828160030154101561120957600080fd5b611220838260030154611e9a90919063ffffffff16565b8160030181905550600c60009054906101000a900473ffffffffffffffffffffffffffffffffffffffff1673ffffffffffffffffffffffffffffffffffffffff16639dc29fac33856040518363ffffffff1660e01b815260040161128592919061240e565b600060405180830381600087803b15801561129f57600080fd5b505af11580156112b3573d6000803e3d6000fd5b5050505050505050565b600960149054906101000a900460ff16156112d757600080fd5b82600c60006101000a81548173ffffffffffffffffffffffffffffffffffffffff021916908373ffffffffffffffffffffffffffffffffffffffff16021790555081600a60006101000a81548173ffffffffffffffffffffffffffffffffffffffff021916908373ffffffffffffffffffffffffffffffffffffffff16021790555080600960006101000a81548173ffffffffffffffffffffffffffffffffffffffff021916908373ffffffffffffffffffffffffffffffffffffffff1602179055506001600960146101000a81548160ff021916908315150217905550505050565b81600e600082815260200190815260200160002060009054906101000a900460ff16156113e657600080fd5b6000600d8481548110611422577f4e487b7100000000000000000000000000000000000000000000000000000000600052603260045260246000fd5b9060005260206000209060050201905060006006826001015481548110611472577f4e487b7100000000000000000000000000000000000000000000000000000000600052603260045260246000fd5b9060005260206000200160009054906101000a900473ffffffffffffffffffffffffffffffffffffffff1690508073ffffffffffffffffffffffffffffffffffffffff166323b872dd3330876040518463ffffffff1660e01b81526004016114dc939291906123d7565b602060405180830381600087803b1580156114f657600080fd5b505af115801561150a573d6000803e3d6000fd5b505050506040513d601f19601f8201168201806040525081019061152e9190612297565b61153757600080fd5b61154e84836002015461180690919063ffffffff16565b82600201819055505050505050565b60055481565b6006818154811061157357600080fd5b906000526020600020016000915054906101000a900473ffffffffffffffffffffffffffffffffffffffff1681565b60008060019054906101000a900460ff16156116195760018260ff161480156115d157506115cf30611eb0565b155b611610576040517f08c379a0000000000000000000000000000000000000000000000000000000008152600401611607906124db565b60405180910390fd5b6000905061168d565b8160ff1660008054906101000a900460ff1660ff161061166e576040517f08c379a0000000000000000000000000000000000000000000000000000000008152600401611665906124db565b60405180910390fd5b816000806101000a81548160ff021916908360ff160217905550600190505b919050565b600061169e60016115a2565b905080156116c2576001600060016101000a81548160ff0219169083151502179055505b82600b60006101000a81548173ffffffffffffffffffffffffffffffffffffffff021916908373ffffffffffffffffffffffffffffffffffffffff160217905550816002819055508460069080519060200190611720929190611ed3565b508360079080519060200190611737929190611f5d565b50670de0b6b3a7640000600381905550670de0b6b3a7640000600581905550670c7d713b49da000060048190555033600860006101000a81548173ffffffffffffffffffffffffffffffffffffffff021916908373ffffffffffffffffffffffffffffffffffffffff16021790555080156117ff5760008060016101000a81548160ff0219169083151502179055507f7f26b83ff96e1f2b6a682f133852f6798a09c465da95921460cefb384740249860016040516117f691906124c0565b60405180910390a15b5050505050565b6000818361181491906125a4565b905092915050565b6000818361182a919061262b565b905092915050565b6000818361184091906125fa565b905092915050565b600080600b60009054906101000a900473ffffffffffffffffffffffffffffffffffffffff1673ffffffffffffffffffffffffffffffffffffffff166331d98b3f600786815481106118c3577f4e487b7100000000000000000000000000000000000000000000000000000000600052603260045260246000fd5b90600052602060002001546040518263ffffffff1660e01b81526004016118ea91906124a5565b60206040518083038186803b15801561190257600080fd5b505afa158015611916573d6000803e3d6000fd5b505050506040513d601f19601f8201168201806040525081019061193a91906122e9565b9050600081146119705761196b60035461195d858461181c90919063ffffffff16565b61183290919063ffffffff16565b611973565b60005b91505092915050565b6000806119a860035461199a6005548761181c90919063ffffffff16565b61183290919063ffffffff16565b90506004546119d4846119c66003548561181c90919063ffffffff16565b61183290919063ffffffff16565b1091505092915050565b6000600d8281548110611a1a577f4e487b7100000000000000000000000000000000000000000000000000000000600052603260045260246000fd5b9060005260206000209060050201905060006006826001015481548110611a6a577f4e487b7100000000000000000000000000000000000000000000000000000000600052603260045260246000fd5b9060005260206000200160009054906101000a900473ffffffffffffffffffffffffffffffffffffffff1690508160030154600c60009054906101000a900473ffffffffffffffffffffffffffffffffffffffff1673ffffffffffffffffffffffffffffffffffffffff166370a08231336040518263ffffffff1660e01b8152600401611af791906123bc565b60206040518083038186803b158015611b0f57600080fd5b505afa158015611b23573d6000803e3d6000fd5b505050506040513d601f19601f82011682018060405250810190611b4791906122e9565b1015611b5257600080fd5b600c60009054906101000a900473ffffffffffffffffffffffffffffffffffffffff1673ffffffffffffffffffffffffffffffffffffffff16639dc29fac3384600301546040518363ffffffff1660e01b8152600401611bb392919061240e565b600060405180830381600087803b158015611bcd57600080fd5b505af1158015611be1573d6000803e3d6000fd5b505050508073ffffffffffffffffffffffffffffffffffffffff1663a9059cbb3384600201546040518363ffffffff1660e01b8152600401611c2492919061240e565b602060405180830381600087803b158015611c3e57600080fd5b505af1158015611c52573d6000803e3d6000fd5b505050506040513d601f19601f82011682018060405250810190611c769190612297565b50600d8381548110611cb1577f4e487b7100000000000000000000000000000000000000000000000000000000600052603260045260246000fd5b9060005260206000209060050201600080820160006101000a81549073ffffffffffffffffffffffffffffffffffffffff0219169055600182016000905560028201600090556003820160009055600482016000905550506001600e600085815260200190815260200160002060006101000a81548160ff021916908315150217905550505050565b600080600d8381548110611d77577f4e487b7100000000000000000000000000000000000000000000000000000000600052603260045260246000fd5b90600052602060002090600502016040518060a00160405290816000820160009054906101000a900473ffffffffffffffffffffffffffffffffffffffff1673ffffffffffffffffffffffffffffffffffffffff1673ffffffffffffffffffffffffffffffffffffffff16815260200160018201548152602001600282015481526020016003820154815260200160048201548152505090506000611e2482602001518360400151611848565b90506000611e55600354611e47600554866060015161181c90919063ffffffff16565b61183290919063ffffffff16565b9050600454611e8183611e736003548561181c90919063ffffffff16565b61183290919063ffffffff16565b10158015611e90575060008114155b9350505050919050565b60008183611ea89190612685565b905092915050565b6000808273ffffffffffffffffffffffffffffffffffffffff163b119050919050565b828054828255906000526020600020908101928215611f4c579160200282015b82811115611f4b5782518260006101000a81548173ffffffffffffffffffffffffffffffffffffffff021916908373ffffffffffffffffffffffffffffffffffffffff16021790555091602001919060010190611ef3565b5b509050611f599190611faa565b5090565b828054828255906000526020600020908101928215611f99579160200282015b82811115611f98578251825591602001919060010190611f7d565b5b509050611fa69190611fc7565b5090565b5b80821115611fc3576000816000905550600101611fab565b5090565b5b80821115611fe0576000816000905550600101611fc8565b5090565b6000611ff7611ff28461253b565b612516565b9050808382526020820190508285602086028201111561201657600080fd5b60005b85811015612046578161202c88826120bc565b845260208401935060208301925050600181019050612019565b5050509392505050565b600061206361205e84612567565b612516565b9050808382526020820190508285602086028201111561208257600080fd5b60005b858110156120b25781612098888261213a565b845260208401935060208301925050600181019050612085565b5050509392505050565b6000813590506120cb81612891565b92915050565b600082601f8301126120e257600080fd5b81356120f2848260208601611fe4565b91505092915050565b600082601f83011261210c57600080fd5b813561211c848260208601612050565b91505092915050565b600081519050612134816128a8565b92915050565b600081359050612149816128bf565b92915050565b60008135905061215e816128d6565b92915050565b600081519050612173816128d6565b92915050565b60008060006060848603121561218e57600080fd5b600061219c868287016120bc565b93505060206121ad868287016120bc565b92505060406121be868287016120bc565b9150509250925092565b600080604083850312156121db57600080fd5b60006121e9858286016120bc565b92505060206121fa8582860161213a565b9150509250929050565b6000806000806080858703121561221a57600080fd5b600085013567ffffffffffffffff81111561223457600080fd5b612240878288016120d1565b945050602085013567ffffffffffffffff81111561225d57600080fd5b612269878288016120fb565b935050604061227a878288016120bc565b925050606061228b8782880161214f565b91505092959194509250565b6000602082840312156122a957600080fd5b60006122b784828501612125565b91505092915050565b6000602082840312156122d257600080fd5b60006122e08482850161214f565b91505092915050565b6000602082840312156122fb57600080fd5b600061230984828501612164565b91505092915050565b6000806040838503121561232557600080fd5b60006123338582860161214f565b92505060206123448582860161214f565b9150509250929050565b612357816126b9565b82525050565b612366816126cb565b82525050565b612375816126d7565b82525050565b61238481612718565b82525050565b6000612397602e83612593565b91506123a282612842565b604082019050919050565b6123b681612701565b82525050565b60006020820190506123d1600083018461234e565b92915050565b60006060820190506123ec600083018661234e565b6123f9602083018561234e565b61240660408301846123ad565b949350505050565b6000604082019050612423600083018561234e565b61243060208301846123ad565b9392505050565b600060a08201905061244c600083018861234e565b61245960208301876123ad565b61246660408301866123ad565b61247360608301856123ad565b61248060808301846123ad565b9695505050505050565b600060208201905061249f600083018461235d565b92915050565b60006020820190506124ba600083018461236c565b92915050565b60006020820190506124d5600083018461237b565b92915050565b600060208201905081810360008301526124f48161238a565b9050919050565b600060208201905061251060008301846123ad565b92915050565b6000612520612531565b905061252c828261272a565b919050565b6000604051905090565b600067ffffffffffffffff82111561255657612555612802565b5b602082029050602081019050919050565b600067ffffffffffffffff82111561258257612581612802565b5b602082029050602081019050919050565b600082825260208201905092915050565b60006125af82612701565b91506125ba83612701565b9250827fffffffffffffffffffffffffffffffffffffffffffffffffffffffffffffffff038211156125ef576125ee6127a4565b5b828201905092915050565b600061260582612701565b915061261083612701565b9250826126205761261f6127d3565b5b828204905092915050565b600061263682612701565b915061264183612701565b9250817fffffffffffffffffffffffffffffffffffffffffffffffffffffffffffffffff048311821515161561267a576126796127a4565b5b828202905092915050565b600061269082612701565b915061269b83612701565b9250828210156126ae576126ad6127a4565b5b828203905092915050565b60006126c4826126e1565b9050919050565b60008115159050919050565b6000819050919050565b600073ffffffffffffffffffffffffffffffffffffffff82169050919050565b6000819050919050565b600060ff82169050919050565b60006127238261270b565b9050919050565b61273382612831565b810181811067ffffffffffffffff8211171561275257612751612802565b5b80604052505050565b600061276682612701565b91507fffffffffffffffffffffffffffffffffffffffffffffffffffffffffffffffff821415612799576127986127a4565b5b600182019050919050565b7f4e487b7100000000000000000000000000000000000000000000000000000000600052601160045260246000fd5b7f4e487b7100000000000000000000000000000000000000000000000000000000600052601260045260246000fd5b7f4e487b7100000000000000000000000000000000000000000000000000000000600052604160045260246000fd5b6000601f19601f8301169050919050565b7f496e697469616c697a61626c653a20636f6e747261637420697320616c72656160008201527f647920696e697469616c697a6564000000000000000000000000000000000000602082015250565b61289a816126b9565b81146128a557600080fd5b50565b6128b1816126cb565b81146128bc57600080fd5b50565b6128c8816126d7565b81146128d357600080fd5b50565b6128df81612701565b81146128ea57600080fd5b5056fea264697066735822122030d41f4b868f9ddfa54a8611be253033783d55079f2f2fa8d10c2ee4a4c0c18a64736f6c63430008040033",
  "linkReferences": {},
  "deployedLinkReferences": {}
}