{
  "_format": "hh-sol-artifact-1",
  "contractName": "FxUSDVaults",
  "sourceName": "contracts/Vaults/FxUSDVaults.sol",
  "abi": [
    {
      "anonymous": false,
      "inputs": [
        {
          "indexed": false,
          "internalType": "uint8",
          "name": "version",
          "type": "uint8"
        }
      ],
      "name": "Initialized",
      "type": "event"
    },
    {
      "inputs": [],
      "name": "DYNAMIC_DEBT_MULTIPLIER",
      "outputs": [
        {
          "internalType": "uint256",
          "name": "",
          "type": "uint256"
        }
      ],
      "stateMutability": "view",
      "type": "function"
    },
    {
      "inputs": [
        {
          "internalType": "uint256",
          "name": "",
          "type": "uint256"
        }
      ],
      "name": "Vaults",
      "outputs": [
        {
          "internalType": "address",
          "name": "Owner",
          "type": "address"
        },
        {
          "internalType": "uint256",
          "name": "CollateralIndex",
          "type": "uint256"
        },
        {
          "internalType": "uint256",
          "name": "Collateral",
          "type": "uint256"
        },
        {
          "internalType": "uint256",
          "name": "Debt",
          "type": "uint256"
        },
        {
          "internalType": "uint256",
          "name": "ID",
          "type": "uint256"
        }
      ],
      "stateMutability": "view",
      "type": "function"
    },
    {
      "inputs": [
        {
          "internalType": "address",
          "name": "_collateral",
          "type": "address"
        },
        {
          "internalType": "bytes32",
          "name": "_priceFeedKey",
          "type": "bytes32"
        }
      ],
      "name": "addCollateralOption",
      "outputs": [],
      "stateMutability": "nonpayable",
      "type": "function"
    },
    {
      "inputs": [
        {
          "internalType": "uint256",
          "name": "_vaultID",
          "type": "uint256"
        },
        {
          "internalType": "uint256",
          "name": "_amount",
          "type": "uint256"
        }
      ],
      "name": "borrow",
      "outputs": [],
      "stateMutability": "nonpayable",
      "type": "function"
    },
    {
      "inputs": [
        {
          "internalType": "uint256",
          "name": "_vaultID",
          "type": "uint256"
        }
      ],
      "name": "closeVault",
      "outputs": [],
      "stateMutability": "nonpayable",
      "type": "function"
    },
    {
      "inputs": [
        {
          "internalType": "uint256",
          "name": "",
          "type": "uint256"
        }
      ],
      "name": "collateralWhitelist",
      "outputs": [
        {
          "internalType": "address",
          "name": "",
          "type": "address"
        }
      ],
      "stateMutability": "view",
      "type": "function"
    },
    {
      "inputs": [
        {
          "internalType": "uint256",
          "name": "_index",
          "type": "uint256"
        }
      ],
      "name": "getVault",
      "outputs": [
        {
          "internalType": "address",
          "name": "vaultOwner",
          "type": "address"
        },
        {
          "internalType": "uint256",
          "name": "collateralIndex",
          "type": "uint256"
        },
        {
          "internalType": "uint256",
          "name": "collateral",
          "type": "uint256"
        },
        {
          "internalType": "uint256",
          "name": "debt",
          "type": "uint256"
        },
        {
          "internalType": "uint256",
          "name": "id",
          "type": "uint256"
        }
      ],
      "stateMutability": "view",
      "type": "function"
    },
    {
      "inputs": [
        {
          "internalType": "address[]",
          "name": "_collateralWhitelist",
          "type": "address[]"
        },
        {
          "internalType": "address",
          "name": "_oracle",
          "type": "address"
        },
        {
          "internalType": "uint256",
          "name": "_debtTokenIndex",
          "type": "uint256"
        }
      ],
      "name": "initialize",
      "outputs": [],
      "stateMutability": "nonpayable",
      "type": "function"
    },
    {
      "inputs": [
        {
          "internalType": "uint256",
          "name": "",
          "type": "uint256"
        }
      ],
      "name": "isClosed",
      "outputs": [
        {
          "internalType": "bool",
          "name": "",
          "type": "bool"
        }
      ],
      "stateMutability": "view",
      "type": "function"
    },
    {
      "inputs": [
        {
          "internalType": "uint256",
          "name": "_vaultID",
          "type": "uint256"
        }
      ],
      "name": "liquidate",
      "outputs": [],
      "stateMutability": "nonpayable",
      "type": "function"
    },
    {
      "inputs": [
        {
          "internalType": "uint256",
          "name": "_collateralIndex",
          "type": "uint256"
        }
      ],
      "name": "openVault",
      "outputs": [
        {
          "internalType": "uint256",
          "name": "",
          "type": "uint256"
        }
      ],
      "stateMutability": "nonpayable",
      "type": "function"
    },
    {
      "inputs": [],
      "name": "owner",
      "outputs": [
        {
          "internalType": "address",
          "name": "",
          "type": "address"
        }
      ],
      "stateMutability": "view",
      "type": "function"
    },
    {
      "inputs": [
        {
          "internalType": "uint256",
          "name": "",
          "type": "uint256"
        }
      ],
      "name": "priceFeedKeys",
      "outputs": [
        {
          "internalType": "bytes32",
          "name": "",
          "type": "bytes32"
        }
      ],
      "stateMutability": "view",
      "type": "function"
    },
    {
      "inputs": [
        {
          "internalType": "uint256",
          "name": "_vaultID",
          "type": "uint256"
        },
        {
          "internalType": "uint256",
          "name": "_amount",
          "type": "uint256"
        }
      ],
      "name": "repay",
      "outputs": [],
      "stateMutability": "nonpayable",
      "type": "function"
    },
    {
      "inputs": [
        {
          "internalType": "address",
          "name": "_perpStatic",
          "type": "address"
        },
        {
          "internalType": "address",
          "name": "_perpDynamic",
          "type": "address"
        },
        {
          "internalType": "address",
          "name": "_OrderBook",
          "type": "address"
        }
      ],
      "name": "setState",
      "outputs": [],
      "stateMutability": "nonpayable",
      "type": "function"
    },
    {
      "inputs": [
        {
          "internalType": "uint256",
          "name": "_vaultID",
          "type": "uint256"
        },
        {
          "internalType": "uint256",
          "name": "_amount",
          "type": "uint256"
        }
      ],
      "name": "supply",
      "outputs": [],
      "stateMutability": "nonpayable",
      "type": "function"
    },
    {
      "inputs": [
        {
          "internalType": "uint256",
          "name": "_fundingRate",
          "type": "uint256"
        }
      ],
      "name": "updateDynamicMultiplier",
      "outputs": [],
      "stateMutability": "nonpayable",
      "type": "function"
    },
    {
      "inputs": [
        {
          "internalType": "uint256",
          "name": "_vaultID",
          "type": "uint256"
        },
        {
          "internalType": "uint256",
          "name": "_amount",
          "type": "uint256"
        }
      ],
      "name": "withdraw",
      "outputs": [],
      "stateMutability": "nonpayable",
      "type": "function"
    },
    {
      "stateMutability": "payable",
      "type": "receive"
    }
  ],
  "bytecode": "0x608060405234801561001057600080fd5b506127b1806100206000396000f3fe60806040526004361061010d5760003560e01c80638da5cb5b11610095578063d8aed14511610064578063d8aed1451461039c578063d9d75db4146103c5578063daecfa6c146103ee578063f987714f14610417578063fcd96b021461044257610114565b80638da5cb5b146102ca5780638f9bf833146102f55780639403b6341461031e578063d5c78a281461035f57610114565b8063360c3288116100dc578063360c3288146101e5578063415f12401461020e578063441a3e70146102375780635aca8415146102605780638cefbdd4146102a157610114565b806304a2ce7e146101195780630ecbcdab146101565780631301c2101461017f5780632a0ab1dd146101a857610114565b3661011457005b600080fd5b34801561012557600080fd5b50610140600480360381019061013b919061217a565b61047f565b60405161014d91906123b5565b60405180910390f35b34801561016257600080fd5b5061017d600480360381019061017891906121cc565b610599565b005b34801561018b57600080fd5b506101a660048036038101906101a191906120ae565b610837565b005b3480156101b457600080fd5b506101cf60048036038101906101ca919061217a565b610937565b6040516101dc919061235f565b60405180910390f35b3480156101f157600080fd5b5061020c6004803603810190610207919061217a565b61095b565b005b34801561021a57600080fd5b506102356004803603810190610230919061217a565b610aa8565b005b34801561024357600080fd5b5061025e600480360381019061025991906121cc565b610af3565b005b34801561026c57600080fd5b506102876004803603810190610282919061217a565b610e0e565b6040516102989594939291906122f1565b60405180910390f35b3480156102ad57600080fd5b506102c860048036038101906102c391906120ea565b610e74565b005b3480156102d657600080fd5b506102df610f0e565b6040516102ec9190612276565b60405180910390f35b34801561030157600080fd5b5061031c6004803603810190610317919061217a565b610f34565b005b34801561032a57600080fd5b506103456004803603810190610340919061217a565b611055565b6040516103569594939291906122f1565b60405180910390f35b34801561036b57600080fd5b506103866004803603810190610381919061217a565b61115e565b6040516103939190612344565b60405180910390f35b3480156103a857600080fd5b506103c360048036038101906103be91906121cc565b61117e565b005b3480156103d157600080fd5b506103ec60048036038101906103e7919061205f565b6112bb565b005b3480156103fa57600080fd5b50610415600480360381019061041091906121cc565b6113b8565b005b34801561042357600080fd5b5061042c61155b565b60405161043991906123b5565b60405180910390f35b34801561044e57600080fd5b506104696004803603810190610464919061217a565b611561565b6040516104769190612276565b60405180910390f35b6000600680549050821061049257600080fd5b60006040518060a001604052803373ffffffffffffffffffffffffffffffffffffffff16815260200184815260200160008152602001600081526020016001548152509050600d81908060018154018082558091505060019003906000526020600020906005020160009091909190915060008201518160000160006101000a81548173ffffffffffffffffffffffffffffffffffffffff021916908373ffffffffffffffffffffffffffffffffffffffff16021790555060208201518160010155604082015181600201556060820151816003015560808201518160040155505060016000815480929190610587906125e9565b91905055508060800151915050919050565b816000600d82815481106105d6577f4e487b7100000000000000000000000000000000000000000000000000000000600052603260045260246000fd5b90600052602060002090600502016040518060a00160405290816000820160009054906101000a900473ffffffffffffffffffffffffffffffffffffffff1673ffffffffffffffffffffffffffffffffffffffff1673ffffffffffffffffffffffffffffffffffffffff1681526020016001820154815260200160028201548152602001600382015481526020016004820154815250509050806000015173ffffffffffffffffffffffffffffffffffffffff163373ffffffffffffffffffffffffffffffffffffffff16146106ab57600080fd5b83600e600082815260200190815260200160002060009054906101000a900460ff16156106d757600080fd5b6000600d8681548110610713577f4e487b7100000000000000000000000000000000000000000000000000000000600052603260045260246000fd5b90600052602060002090600502019050600061073c8683600301546115a090919063ffffffff16565b9050600061076960035461075b600554856115b690919063ffffffff16565b6115cc90919063ffffffff16565b9050600061077f846001015485600201546115e2565b905061078b8282611716565b61079457600080fd5b828460030181905550600c60009054906101000a900473ffffffffffffffffffffffffffffffffffffffff1673ffffffffffffffffffffffffffffffffffffffff166340c10f19338a6040518363ffffffff1660e01b81526004016107fa9291906122c8565b600060405180830381600087803b15801561081457600080fd5b505af1158015610828573d6000803e3d6000fd5b50505050505050505050505050565b600860009054906101000a900473ffffffffffffffffffffffffffffffffffffffff1673ffffffffffffffffffffffffffffffffffffffff163373ffffffffffffffffffffffffffffffffffffffff161461089157600080fd5b600780549050600680549050146108a757600080fd5b6006829080600181540180825580915050600190039060005260206000200160009091909190916101000a81548173ffffffffffffffffffffffffffffffffffffffff021916908373ffffffffffffffffffffffffffffffffffffffff16021790555060078190806001815401808255809150506001900390600052602060002001600090919091909150555050565b6007818154811061094757600080fd5b906000526020600020016000915090505481565b806000600d8281548110610998577f4e487b7100000000000000000000000000000000000000000000000000000000600052603260045260246000fd5b90600052602060002090600502016040518060a00160405290816000820160009054906101000a900473ffffffffffffffffffffffffffffffffffffffff1673ffffffffffffffffffffffffffffffffffffffff1673ffffffffffffffffffffffffffffffffffffffff1681526020016001820154815260200160028201548152602001600382015481526020016004820154815250509050806000015173ffffffffffffffffffffffffffffffffffffffff163373ffffffffffffffffffffffffffffffffffffffff1614610a6d57600080fd5b82600e600082815260200190815260200160002060009054906101000a900460ff1615610a9957600080fd5b610aa284611778565b50505050565b80600e600082815260200190815260200160002060009054906101000a900460ff1615610ad457600080fd5b610add82611ad4565b610ae657600080fd5b610aef82611778565b5050565b816000600d8281548110610b30577f4e487b7100000000000000000000000000000000000000000000000000000000600052603260045260246000fd5b90600052602060002090600502016040518060a00160405290816000820160009054906101000a900473ffffffffffffffffffffffffffffffffffffffff1673ffffffffffffffffffffffffffffffffffffffff1673ffffffffffffffffffffffffffffffffffffffff1681526020016001820154815260200160028201548152602001600382015481526020016004820154815250509050806000015173ffffffffffffffffffffffffffffffffffffffff163373ffffffffffffffffffffffffffffffffffffffff1614610c0557600080fd5b83600e600082815260200190815260200160002060009054906101000a900460ff1615610c3157600080fd5b6000600d8681548110610c6d577f4e487b7100000000000000000000000000000000000000000000000000000000600052603260045260246000fd5b906000526020600020906005020190506000610ca38260010154610c9e888560020154611c3490919063ffffffff16565b6115e2565b90506000610cd4600354610cc660055486600301546115b690919063ffffffff16565b6115cc90919063ffffffff16565b9050610ce08183611716565b610ce957600080fd5b610d00878460020154611c3490919063ffffffff16565b836002018190555060006006846001015481548110610d48577f4e487b7100000000000000000000000000000000000000000000000000000000600052603260045260246000fd5b9060005260206000200160009054906101000a900473ffffffffffffffffffffffffffffffffffffffff1690508073ffffffffffffffffffffffffffffffffffffffff1663a9059cbb338a6040518363ffffffff1660e01b8152600401610db09291906122c8565b602060405180830381600087803b158015610dca57600080fd5b505af1158015610dde573d6000803e3d6000fd5b505050506040513d601f19601f82011682018060405250810190610e029190612151565b50505050505050505050565b600d8181548110610e1e57600080fd5b90600052602060002090600502016000915090508060000160009054906101000a900473ffffffffffffffffffffffffffffffffffffffff16908060010154908060020154908060030154908060040154905085565b6000610e806001611c4a565b90508015610ea4576001600060016101000a81548160ff0219169083151502179055505b610eaf848484611d3a565b8015610f085760008060016101000a81548160ff0219169083151502179055507f7f26b83ff96e1f2b6a682f133852f6798a09c465da95921460cefb38474024986001604051610eff919061237a565b60405180910390a15b50505050565b600860009054906101000a900473ffffffffffffffffffffffffffffffffffffffff1681565b600960009054906101000a900473ffffffffffffffffffffffffffffffffffffffff1673ffffffffffffffffffffffffffffffffffffffff163373ffffffffffffffffffffffffffffffffffffffff1614610f8e57600080fd5b6000610fa5826005546115b690919063ffffffff16565b9050610fbc600354826115cc90919063ffffffff16565b600581905550600a60009054906101000a900473ffffffffffffffffffffffffffffffffffffffff1673ffffffffffffffffffffffffffffffffffffffff16638f9bf8336005546040518263ffffffff1660e01b815260040161101f91906123b5565b600060405180830381600087803b15801561103957600080fd5b505af115801561104d573d6000803e3d6000fd5b505050505050565b600080600080600080600d8781548110611098577f4e487b7100000000000000000000000000000000000000000000000000000000600052603260045260246000fd5b90600052602060002090600502016040518060a00160405290816000820160009054906101000a900473ffffffffffffffffffffffffffffffffffffffff1673ffffffffffffffffffffffffffffffffffffffff1673ffffffffffffffffffffffffffffffffffffffff168152602001600182015481526020016002820154815260200160038201548152602001600482015481525050905080600001518160200151826040015183606001518460800151955095509550955095505091939590929450565b600e6020528060005260406000206000915054906101000a900460ff1681565b81600e600082815260200190815260200160002060009054906101000a900460ff16156111aa57600080fd5b6000600d84815481106111e6577f4e487b7100000000000000000000000000000000000000000000000000000000600052603260045260246000fd5b90600052602060002090600502019050828160030154101561120757600080fd5b61121e838260030154611c3490919063ffffffff16565b8160030181905550600c60009054906101000a900473ffffffffffffffffffffffffffffffffffffffff1673ffffffffffffffffffffffffffffffffffffffff16639dc29fac33856040518363ffffffff1660e01b81526004016112839291906122c8565b600060405180830381600087803b15801561129d57600080fd5b505af11580156112b1573d6000803e3d6000fd5b5050505050505050565b600960149054906101000a900460ff16156112d557600080fd5b82600c60006101000a81548173ffffffffffffffffffffffffffffffffffffffff021916908373ffffffffffffffffffffffffffffffffffffffff16021790555081600a60006101000a81548173ffffffffffffffffffffffffffffffffffffffff021916908373ffffffffffffffffffffffffffffffffffffffff16021790555080600960006101000a81548173ffffffffffffffffffffffffffffffffffffffff021916908373ffffffffffffffffffffffffffffffffffffffff1602179055506001600960146101000a81548160ff021916908315150217905550505050565b81600e600082815260200190815260200160002060009054906101000a900460ff16156113e457600080fd5b6000600d8481548110611420577f4e487b7100000000000000000000000000000000000000000000000000000000600052603260045260246000fd5b9060005260206000209060050201905060006006826001015481548110611470577f4e487b7100000000000000000000000000000000000000000000000000000000600052603260045260246000fd5b9060005260206000200160009054906101000a900473ffffffffffffffffffffffffffffffffffffffff1690508073ffffffffffffffffffffffffffffffffffffffff166323b872dd3330876040518463ffffffff1660e01b81526004016114da93929190612291565b602060405180830381600087803b1580156114f457600080fd5b505af1158015611508573d6000803e3d6000fd5b505050506040513d601f19601f8201168201806040525081019061152c9190612151565b61153557600080fd5b61154c8483600201546115a090919063ffffffff16565b82600201819055505050505050565b60055481565b6006818154811061157157600080fd5b906000526020600020016000915054906101000a900473ffffffffffffffffffffffffffffffffffffffff1681565b600081836115ae9190612432565b905092915050565b600081836115c491906124b9565b905092915050565b600081836115da9190612488565b905092915050565b600080600b60009054906101000a900473ffffffffffffffffffffffffffffffffffffffff1673ffffffffffffffffffffffffffffffffffffffff166331d98b3f6007868154811061165d577f4e487b7100000000000000000000000000000000000000000000000000000000600052603260045260246000fd5b90600052602060002001546040518263ffffffff1660e01b8152600401611684919061235f565b60206040518083038186803b15801561169c57600080fd5b505afa1580156116b0573d6000803e3d6000fd5b505050506040513d601f19601f820116820180604052508101906116d491906121a3565b90506000811461170a576117056003546116f785846115b690919063ffffffff16565b6115cc90919063ffffffff16565b61170d565b60005b91505092915050565b600080611742600354611734600554876115b690919063ffffffff16565b6115cc90919063ffffffff16565b905060045461176e84611760600354856115b690919063ffffffff16565b6115cc90919063ffffffff16565b1091505092915050565b6000600d82815481106117b4577f4e487b7100000000000000000000000000000000000000000000000000000000600052603260045260246000fd5b9060005260206000209060050201905060006006826001015481548110611804577f4e487b7100000000000000000000000000000000000000000000000000000000600052603260045260246000fd5b9060005260206000200160009054906101000a900473ffffffffffffffffffffffffffffffffffffffff1690508160030154600c60009054906101000a900473ffffffffffffffffffffffffffffffffffffffff1673ffffffffffffffffffffffffffffffffffffffff166370a08231336040518263ffffffff1660e01b81526004016118919190612276565b60206040518083038186803b1580156118a957600080fd5b505afa1580156118bd573d6000803e3d6000fd5b505050506040513d601f19601f820116820180604052508101906118e191906121a3565b10156118ec57600080fd5b600c60009054906101000a900473ffffffffffffffffffffffffffffffffffffffff1673ffffffffffffffffffffffffffffffffffffffff16639dc29fac3384600301546040518363ffffffff1660e01b815260040161194d9291906122c8565b600060405180830381600087803b15801561196757600080fd5b505af115801561197b573d6000803e3d6000fd5b505050508073ffffffffffffffffffffffffffffffffffffffff1663a9059cbb3384600201546040518363ffffffff1660e01b81526004016119be9291906122c8565b602060405180830381600087803b1580156119d857600080fd5b505af11580156119ec573d6000803e3d6000fd5b505050506040513d601f19601f82011682018060405250810190611a109190612151565b50600d8381548110611a4b577f4e487b7100000000000000000000000000000000000000000000000000000000600052603260045260246000fd5b9060005260206000209060050201600080820160006101000a81549073ffffffffffffffffffffffffffffffffffffffff0219169055600182016000905560028201600090556003820160009055600482016000905550506001600e600085815260200190815260200160002060006101000a81548160ff021916908315150217905550505050565b600080600d8381548110611b11577f4e487b7100000000000000000000000000000000000000000000000000000000600052603260045260246000fd5b90600052602060002090600502016040518060a00160405290816000820160009054906101000a900473ffffffffffffffffffffffffffffffffffffffff1673ffffffffffffffffffffffffffffffffffffffff1673ffffffffffffffffffffffffffffffffffffffff16815260200160018201548152602001600282015481526020016003820154815260200160048201548152505090506000611bbe826020015183604001516115e2565b90506000611bef600354611be160055486606001516115b690919063ffffffff16565b6115cc90919063ffffffff16565b9050600454611c1b83611c0d600354856115b690919063ffffffff16565b6115cc90919063ffffffff16565b10158015611c2a575060008114155b9350505050919050565b60008183611c429190612513565b905092915050565b60008060019054906101000a900460ff1615611cc15760018260ff16148015611c795750611c7730611e96565b155b611cb8576040517f08c379a0000000000000000000000000000000000000000000000000000000008152600401611caf90612395565b60405180910390fd5b60009050611d35565b8160ff1660008054906101000a900460ff1660ff1610611d16576040517f08c379a0000000000000000000000000000000000000000000000000000000008152600401611d0d90612395565b60405180910390fd5b816000806101000a81548160ff021916908360ff160217905550600190505b919050565b6000611d466001611c4a565b90508015611d6a576001600060016101000a81548160ff0219169083151502179055505b82600b60006101000a81548173ffffffffffffffffffffffffffffffffffffffff021916908373ffffffffffffffffffffffffffffffffffffffff160217905550816002819055508360069080519060200190611dc8929190611eb9565b50670de0b6b3a7640000600381905550670de0b6b3a7640000600581905550670c7d713b49da000060048190555033600860006101000a81548173ffffffffffffffffffffffffffffffffffffffff021916908373ffffffffffffffffffffffffffffffffffffffff1602179055508015611e905760008060016101000a81548160ff0219169083151502179055507f7f26b83ff96e1f2b6a682f133852f6798a09c465da95921460cefb38474024986001604051611e87919061237a565b60405180910390a15b50505050565b6000808273ffffffffffffffffffffffffffffffffffffffff163b119050919050565b828054828255906000526020600020908101928215611f32579160200282015b82811115611f315782518260006101000a81548173ffffffffffffffffffffffffffffffffffffffff021916908373ffffffffffffffffffffffffffffffffffffffff16021790555091602001919060010190611ed9565b5b509050611f3f9190611f43565b5090565b5b80821115611f5c576000816000905550600101611f44565b5090565b6000611f73611f6e846123f5565b6123d0565b90508083825260208201905082856020860282011115611f9257600080fd5b60005b85811015611fc25781611fa88882611fcc565b845260208401935060208301925050600181019050611f95565b5050509392505050565b600081359050611fdb8161271f565b92915050565b600082601f830112611ff257600080fd5b8135612002848260208601611f60565b91505092915050565b60008151905061201a81612736565b92915050565b60008135905061202f8161274d565b92915050565b60008135905061204481612764565b92915050565b60008151905061205981612764565b92915050565b60008060006060848603121561207457600080fd5b600061208286828701611fcc565b935050602061209386828701611fcc565b92505060406120a486828701611fcc565b9150509250925092565b600080604083850312156120c157600080fd5b60006120cf85828601611fcc565b92505060206120e085828601612020565b9150509250929050565b6000806000606084860312156120ff57600080fd5b600084013567ffffffffffffffff81111561211957600080fd5b61212586828701611fe1565b935050602061213686828701611fcc565b925050604061214786828701612035565b9150509250925092565b60006020828403121561216357600080fd5b60006121718482850161200b565b91505092915050565b60006020828403121561218c57600080fd5b600061219a84828501612035565b91505092915050565b6000602082840312156121b557600080fd5b60006121c38482850161204a565b91505092915050565b600080604083850312156121df57600080fd5b60006121ed85828601612035565b92505060206121fe85828601612035565b9150509250929050565b61221181612547565b82525050565b61222081612559565b82525050565b61222f81612565565b82525050565b61223e816125a6565b82525050565b6000612251602e83612421565b915061225c826126d0565b604082019050919050565b6122708161258f565b82525050565b600060208201905061228b6000830184612208565b92915050565b60006060820190506122a66000830186612208565b6122b36020830185612208565b6122c06040830184612267565b949350505050565b60006040820190506122dd6000830185612208565b6122ea6020830184612267565b9392505050565b600060a0820190506123066000830188612208565b6123136020830187612267565b6123206040830186612267565b61232d6060830185612267565b61233a6080830184612267565b9695505050505050565b60006020820190506123596000830184612217565b92915050565b60006020820190506123746000830184612226565b92915050565b600060208201905061238f6000830184612235565b92915050565b600060208201905081810360008301526123ae81612244565b9050919050565b60006020820190506123ca6000830184612267565b92915050565b60006123da6123eb565b90506123e682826125b8565b919050565b6000604051905090565b600067ffffffffffffffff8211156124105761240f612690565b5b602082029050602081019050919050565b600082825260208201905092915050565b600061243d8261258f565b91506124488361258f565b9250827fffffffffffffffffffffffffffffffffffffffffffffffffffffffffffffffff0382111561247d5761247c612632565b5b828201905092915050565b60006124938261258f565b915061249e8361258f565b9250826124ae576124ad612661565b5b828204905092915050565b60006124c48261258f565b91506124cf8361258f565b9250817fffffffffffffffffffffffffffffffffffffffffffffffffffffffffffffffff048311821515161561250857612507612632565b5b828202905092915050565b600061251e8261258f565b91506125298361258f565b92508282101561253c5761253b612632565b5b828203905092915050565b60006125528261256f565b9050919050565b60008115159050919050565b6000819050919050565b600073ffffffffffffffffffffffffffffffffffffffff82169050919050565b6000819050919050565b600060ff82169050919050565b60006125b182612599565b9050919050565b6125c1826126bf565b810181811067ffffffffffffffff821117156125e0576125df612690565b5b80604052505050565b60006125f48261258f565b91507fffffffffffffffffffffffffffffffffffffffffffffffffffffffffffffffff82141561262757612626612632565b5b600182019050919050565b7f4e487b7100000000000000000000000000000000000000000000000000000000600052601160045260246000fd5b7f4e487b7100000000000000000000000000000000000000000000000000000000600052601260045260246000fd5b7f4e487b7100000000000000000000000000000000000000000000000000000000600052604160045260246000fd5b6000601f19601f8301169050919050565b7f496e697469616c697a61626c653a20636f6e747261637420697320616c72656160008201527f647920696e697469616c697a6564000000000000000000000000000000000000602082015250565b61272881612547565b811461273357600080fd5b50565b61273f81612559565b811461274a57600080fd5b50565b61275681612565565b811461276157600080fd5b50565b61276d8161258f565b811461277857600080fd5b5056fea26469706673582212204ef1cd8a8b5fa180bd3d478f7f636cbfbf58e4de72712c109e88a08a0471314464736f6c63430008040033",
  "linkReferences": {},
  "deployedLinkReferences": {}
}