{
  "_format": "hh-sol-artifact-1",
  "contractName": "FxUSDVaults",
  "sourceName": "contracts/Vaults/FxUSDVaults.sol",
  "abi": [
    {
      "anonymous": false,
      "inputs": [
        {
          "indexed": false,
          "internalType": "uint8",
          "name": "version",
          "type": "uint8"
        }
      ],
      "name": "Initialized",
      "type": "event"
    },
    {
      "inputs": [],
      "name": "DYNAMIC_DEBT_MULTIPLIER",
      "outputs": [
        {
          "internalType": "uint256",
          "name": "",
          "type": "uint256"
        }
      ],
      "stateMutability": "view",
      "type": "function"
    },
    {
      "inputs": [
        {
          "internalType": "uint256",
          "name": "",
          "type": "uint256"
        }
      ],
      "name": "Vaults",
      "outputs": [
        {
          "internalType": "address",
          "name": "Owner",
          "type": "address"
        },
        {
          "internalType": "uint256",
          "name": "CollateralIndex",
          "type": "uint256"
        },
        {
          "internalType": "uint256",
          "name": "Collateral",
          "type": "uint256"
        },
        {
          "internalType": "uint256",
          "name": "Debt",
          "type": "uint256"
        },
        {
          "internalType": "uint256",
          "name": "ID",
          "type": "uint256"
        }
      ],
      "stateMutability": "view",
      "type": "function"
    },
    {
      "inputs": [
        {
          "internalType": "address",
          "name": "_collateral",
          "type": "address"
        }
      ],
      "name": "addCollateralOption",
      "outputs": [],
      "stateMutability": "nonpayable",
      "type": "function"
    },
    {
      "inputs": [
        {
          "internalType": "uint256",
          "name": "_vaultID",
          "type": "uint256"
        },
        {
          "internalType": "uint256",
          "name": "_amount",
          "type": "uint256"
        }
      ],
      "name": "borrow",
      "outputs": [],
      "stateMutability": "nonpayable",
      "type": "function"
    },
    {
      "inputs": [
        {
          "internalType": "uint256",
          "name": "_vaultID",
          "type": "uint256"
        }
      ],
      "name": "closeVault",
      "outputs": [],
      "stateMutability": "nonpayable",
      "type": "function"
    },
    {
      "inputs": [
        {
          "internalType": "uint256",
          "name": "",
          "type": "uint256"
        }
      ],
      "name": "collateralWhitelist",
      "outputs": [
        {
          "internalType": "address",
          "name": "",
          "type": "address"
        }
      ],
      "stateMutability": "view",
      "type": "function"
    },
    {
      "inputs": [
        {
          "internalType": "uint256",
          "name": "_index",
          "type": "uint256"
        }
      ],
      "name": "getVault",
      "outputs": [
        {
          "internalType": "address",
          "name": "vaultOwner",
          "type": "address"
        },
        {
          "internalType": "uint256",
          "name": "collateralIndex",
          "type": "uint256"
        },
        {
          "internalType": "uint256",
          "name": "collateral",
          "type": "uint256"
        },
        {
          "internalType": "uint256",
          "name": "debt",
          "type": "uint256"
        },
        {
          "internalType": "uint256",
          "name": "id",
          "type": "uint256"
        }
      ],
      "stateMutability": "view",
      "type": "function"
    },
    {
      "inputs": [
        {
          "internalType": "address[]",
          "name": "_collateralWhitelist",
          "type": "address[]"
        },
        {
          "internalType": "bytes32[]",
          "name": "_priceFeedKeys",
          "type": "bytes32[]"
        },
        {
          "internalType": "address",
          "name": "_oracle",
          "type": "address"
        },
        {
          "internalType": "uint256",
          "name": "_debtTokenIndex",
          "type": "uint256"
        }
      ],
      "name": "initialize",
      "outputs": [],
      "stateMutability": "nonpayable",
      "type": "function"
    },
    {
      "inputs": [
        {
          "internalType": "uint256",
          "name": "",
          "type": "uint256"
        }
      ],
      "name": "isClosed",
      "outputs": [
        {
          "internalType": "bool",
          "name": "",
          "type": "bool"
        }
      ],
      "stateMutability": "view",
      "type": "function"
    },
    {
      "inputs": [
        {
          "internalType": "uint256",
          "name": "_vaultID",
          "type": "uint256"
        }
      ],
      "name": "liquidate",
      "outputs": [],
      "stateMutability": "nonpayable",
      "type": "function"
    },
    {
      "inputs": [
        {
          "internalType": "uint256",
          "name": "_collateralIndex",
          "type": "uint256"
        }
      ],
      "name": "openVault",
      "outputs": [
        {
          "internalType": "uint256",
          "name": "",
          "type": "uint256"
        }
      ],
      "stateMutability": "nonpayable",
      "type": "function"
    },
    {
      "inputs": [],
      "name": "owner",
      "outputs": [
        {
          "internalType": "address",
          "name": "",
          "type": "address"
        }
      ],
      "stateMutability": "view",
      "type": "function"
    },
    {
      "inputs": [
        {
          "internalType": "uint256",
          "name": "",
          "type": "uint256"
        }
      ],
      "name": "priceFeedKeys",
      "outputs": [
        {
          "internalType": "bytes32",
          "name": "",
          "type": "bytes32"
        }
      ],
      "stateMutability": "view",
      "type": "function"
    },
    {
      "inputs": [
        {
          "internalType": "uint256",
          "name": "_vaultID",
          "type": "uint256"
        },
        {
          "internalType": "uint256",
          "name": "_amount",
          "type": "uint256"
        }
      ],
      "name": "repay",
      "outputs": [],
      "stateMutability": "nonpayable",
      "type": "function"
    },
    {
      "inputs": [
        {
          "internalType": "address",
          "name": "_perpStatic",
          "type": "address"
        },
        {
          "internalType": "address",
          "name": "_perpDynamic",
          "type": "address"
        },
        {
          "internalType": "address",
          "name": "_OrderBook",
          "type": "address"
        }
      ],
      "name": "setState",
      "outputs": [],
      "stateMutability": "nonpayable",
      "type": "function"
    },
    {
      "inputs": [
        {
          "internalType": "uint256",
          "name": "_vaultID",
          "type": "uint256"
        },
        {
          "internalType": "uint256",
          "name": "_amount",
          "type": "uint256"
        }
      ],
      "name": "supply",
      "outputs": [],
      "stateMutability": "nonpayable",
      "type": "function"
    },
    {
      "inputs": [
        {
          "internalType": "uint256",
          "name": "_fundingRate",
          "type": "uint256"
        }
      ],
      "name": "updateDynamicMultiplier",
      "outputs": [],
      "stateMutability": "nonpayable",
      "type": "function"
    },
    {
      "inputs": [
        {
          "internalType": "uint256",
          "name": "_vaultID",
          "type": "uint256"
        },
        {
          "internalType": "uint256",
          "name": "_amount",
          "type": "uint256"
        }
      ],
      "name": "withdraw",
      "outputs": [],
      "stateMutability": "nonpayable",
      "type": "function"
    },
    {
      "stateMutability": "payable",
      "type": "receive"
    }
  ],
  "bytecode": "0x608060405234801561001057600080fd5b50612927806100206000396000f3fe60806040526004361061010d5760003560e01c80638da5cb5b11610095578063d8aed14511610064578063d8aed1451461039c578063d9d75db4146103c5578063daecfa6c146103ee578063f987714f14610417578063fcd96b021461044257610114565b80638da5cb5b146102ca5780638f9bf833146102f55780639403b6341461031e578063d5c78a281461035f57610114565b8063360c3288116100dc578063360c3288146101e5578063415f12401461020e578063441a3e70146102375780635aca8415146102605780636feba3ca146102a157610114565b806304a2ce7e146101195780630afbd698146101565780630ecbcdab1461017f5780632a0ab1dd146101a857610114565b3661011457005b600080fd5b34801561012557600080fd5b50610140600480360381019061013b9190612232565b61047f565b60405161014d91906124b0565b60405180910390f35b34801561016257600080fd5b5061017d60048036038101906101789190612176565b610599565b005b34801561018b57600080fd5b506101a660048036038101906101a19190612284565b610635565b005b3480156101b457600080fd5b506101cf60048036038101906101ca9190612232565b6108d3565b6040516101dc919061243a565b60405180910390f35b3480156101f157600080fd5b5061020c60048036038101906102079190612232565b6108f7565b005b34801561021a57600080fd5b5061023560048036038101906102309190612232565b610a44565b005b34801561024357600080fd5b5061025e60048036038101906102599190612284565b610a8f565b005b34801561026c57600080fd5b5061028760048036038101906102829190612232565b610daa565b6040516102989594939291906123cc565b60405180910390f35b3480156102ad57600080fd5b506102c860048036038101906102c391906120fe565b610e10565b005b3480156102d657600080fd5b506102df610ed0565b6040516102ec9190612351565b60405180910390f35b34801561030157600080fd5b5061031c60048036038101906103179190612232565b610ef6565b005b34801561032a57600080fd5b5061034560048036038101906103409190612232565b611017565b6040516103569594939291906123cc565b60405180910390f35b34801561036b57600080fd5b5061038660048036038101906103819190612232565b611120565b604051610393919061241f565b60405180910390f35b3480156103a857600080fd5b506103c360048036038101906103be9190612284565b611140565b005b3480156103d157600080fd5b506103ec60048036038101906103e79190612127565b61127d565b005b3480156103fa57600080fd5b5061041560048036038101906104109190612284565b61137a565b005b34801561042357600080fd5b5061042c61151d565b60405161043991906124b0565b60405180910390f35b34801561044e57600080fd5b5061046960048036038101906104649190612232565b611523565b6040516104769190612351565b60405180910390f35b6000600680549050821061049257600080fd5b60006040518060a001604052803373ffffffffffffffffffffffffffffffffffffffff16815260200184815260200160008152602001600081526020016001548152509050600d81908060018154018082558091505060019003906000526020600020906005020160009091909190915060008201518160000160006101000a81548173ffffffffffffffffffffffffffffffffffffffff021916908373ffffffffffffffffffffffffffffffffffffffff1602179055506020820151816001015560408201518160020155606082015181600301556080820151816004015550506001600081548092919061058790612710565b91905055508060800151915050919050565b60006105a56001611562565b905080156105c9576001600060016101000a81548160ff0219169083151502179055505b6105d585858585611652565b801561062e5760008060016101000a81548160ff0219169083151502179055507f7f26b83ff96e1f2b6a682f133852f6798a09c465da95921460cefb384740249860016040516106259190612455565b60405180910390a15b5050505050565b816000600d8281548110610672577f4e487b7100000000000000000000000000000000000000000000000000000000600052603260045260246000fd5b90600052602060002090600502016040518060a00160405290816000820160009054906101000a900473ffffffffffffffffffffffffffffffffffffffff1673ffffffffffffffffffffffffffffffffffffffff1673ffffffffffffffffffffffffffffffffffffffff1681526020016001820154815260200160028201548152602001600382015481526020016004820154815250509050806000015173ffffffffffffffffffffffffffffffffffffffff163373ffffffffffffffffffffffffffffffffffffffff161461074757600080fd5b83600e600082815260200190815260200160002060009054906101000a900460ff161561077357600080fd5b6000600d86815481106107af577f4e487b7100000000000000000000000000000000000000000000000000000000600052603260045260246000fd5b9060005260206000209060050201905060006107d886836003015461178b90919063ffffffff16565b905060006108056003546107f7600554856117a190919063ffffffff16565b6117b790919063ffffffff16565b9050600061081b846001015485600201546117cd565b90506108278282611901565b61083057600080fd5b828460030181905550600c60009054906101000a900473ffffffffffffffffffffffffffffffffffffffff1673ffffffffffffffffffffffffffffffffffffffff166340c10f19338a6040518363ffffffff1660e01b81526004016108969291906123a3565b600060405180830381600087803b1580156108b057600080fd5b505af11580156108c4573d6000803e3d6000fd5b50505050505050505050505050565b600781815481106108e357600080fd5b906000526020600020016000915090505481565b806000600d8281548110610934577f4e487b7100000000000000000000000000000000000000000000000000000000600052603260045260246000fd5b90600052602060002090600502016040518060a00160405290816000820160009054906101000a900473ffffffffffffffffffffffffffffffffffffffff1673ffffffffffffffffffffffffffffffffffffffff1673ffffffffffffffffffffffffffffffffffffffff1681526020016001820154815260200160028201548152602001600382015481526020016004820154815250509050806000015173ffffffffffffffffffffffffffffffffffffffff163373ffffffffffffffffffffffffffffffffffffffff1614610a0957600080fd5b82600e600082815260200190815260200160002060009054906101000a900460ff1615610a3557600080fd5b610a3e84611963565b50505050565b80600e600082815260200190815260200160002060009054906101000a900460ff1615610a7057600080fd5b610a7982611cbf565b610a8257600080fd5b610a8b82611963565b5050565b816000600d8281548110610acc577f4e487b7100000000000000000000000000000000000000000000000000000000600052603260045260246000fd5b90600052602060002090600502016040518060a00160405290816000820160009054906101000a900473ffffffffffffffffffffffffffffffffffffffff1673ffffffffffffffffffffffffffffffffffffffff1673ffffffffffffffffffffffffffffffffffffffff1681526020016001820154815260200160028201548152602001600382015481526020016004820154815250509050806000015173ffffffffffffffffffffffffffffffffffffffff163373ffffffffffffffffffffffffffffffffffffffff1614610ba157600080fd5b83600e600082815260200190815260200160002060009054906101000a900460ff1615610bcd57600080fd5b6000600d8681548110610c09577f4e487b7100000000000000000000000000000000000000000000000000000000600052603260045260246000fd5b906000526020600020906005020190506000610c3f8260010154610c3a888560020154611e1f90919063ffffffff16565b6117cd565b90506000610c70600354610c6260055486600301546117a190919063ffffffff16565b6117b790919063ffffffff16565b9050610c7c8183611901565b610c8557600080fd5b610c9c878460020154611e1f90919063ffffffff16565b836002018190555060006006846001015481548110610ce4577f4e487b7100000000000000000000000000000000000000000000000000000000600052603260045260246000fd5b9060005260206000200160009054906101000a900473ffffffffffffffffffffffffffffffffffffffff1690508073ffffffffffffffffffffffffffffffffffffffff1663a9059cbb338a6040518363ffffffff1660e01b8152600401610d4c9291906123a3565b602060405180830381600087803b158015610d6657600080fd5b505af1158015610d7a573d6000803e3d6000fd5b505050506040513d601f19601f82011682018060405250810190610d9e9190612209565b50505050505050505050565b600d8181548110610dba57600080fd5b90600052602060002090600502016000915090508060000160009054906101000a900473ffffffffffffffffffffffffffffffffffffffff16908060010154908060020154908060030154908060040154905085565b600860009054906101000a900473ffffffffffffffffffffffffffffffffffffffff1673ffffffffffffffffffffffffffffffffffffffff163373ffffffffffffffffffffffffffffffffffffffff1614610e6a57600080fd5b6006819080600181540180825580915050600190039060005260206000200160009091909190916101000a81548173ffffffffffffffffffffffffffffffffffffffff021916908373ffffffffffffffffffffffffffffffffffffffff16021790555050565b600860009054906101000a900473ffffffffffffffffffffffffffffffffffffffff1681565b600960009054906101000a900473ffffffffffffffffffffffffffffffffffffffff1673ffffffffffffffffffffffffffffffffffffffff163373ffffffffffffffffffffffffffffffffffffffff1614610f5057600080fd5b6000610f67826005546117a190919063ffffffff16565b9050610f7e600354826117b790919063ffffffff16565b600581905550600a60009054906101000a900473ffffffffffffffffffffffffffffffffffffffff1673ffffffffffffffffffffffffffffffffffffffff16638f9bf8336005546040518263ffffffff1660e01b8152600401610fe191906124b0565b600060405180830381600087803b158015610ffb57600080fd5b505af115801561100f573d6000803e3d6000fd5b505050505050565b600080600080600080600d878154811061105a577f4e487b7100000000000000000000000000000000000000000000000000000000600052603260045260246000fd5b90600052602060002090600502016040518060a00160405290816000820160009054906101000a900473ffffffffffffffffffffffffffffffffffffffff1673ffffffffffffffffffffffffffffffffffffffff1673ffffffffffffffffffffffffffffffffffffffff168152602001600182015481526020016002820154815260200160038201548152602001600482015481525050905080600001518160200151826040015183606001518460800151955095509550955095505091939590929450565b600e6020528060005260406000206000915054906101000a900460ff1681565b81600e600082815260200190815260200160002060009054906101000a900460ff161561116c57600080fd5b6000600d84815481106111a8577f4e487b7100000000000000000000000000000000000000000000000000000000600052603260045260246000fd5b9060005260206000209060050201905082816003015410156111c957600080fd5b6111e0838260030154611e1f90919063ffffffff16565b8160030181905550600c60009054906101000a900473ffffffffffffffffffffffffffffffffffffffff1673ffffffffffffffffffffffffffffffffffffffff16639dc29fac33856040518363ffffffff1660e01b81526004016112459291906123a3565b600060405180830381600087803b15801561125f57600080fd5b505af1158015611273573d6000803e3d6000fd5b5050505050505050565b600960149054906101000a900460ff161561129757600080fd5b82600c60006101000a81548173ffffffffffffffffffffffffffffffffffffffff021916908373ffffffffffffffffffffffffffffffffffffffff16021790555081600a60006101000a81548173ffffffffffffffffffffffffffffffffffffffff021916908373ffffffffffffffffffffffffffffffffffffffff16021790555080600960006101000a81548173ffffffffffffffffffffffffffffffffffffffff021916908373ffffffffffffffffffffffffffffffffffffffff1602179055506001600960146101000a81548160ff021916908315150217905550505050565b81600e600082815260200190815260200160002060009054906101000a900460ff16156113a657600080fd5b6000600d84815481106113e2577f4e487b7100000000000000000000000000000000000000000000000000000000600052603260045260246000fd5b9060005260206000209060050201905060006006826001015481548110611432577f4e487b7100000000000000000000000000000000000000000000000000000000600052603260045260246000fd5b9060005260206000200160009054906101000a900473ffffffffffffffffffffffffffffffffffffffff1690508073ffffffffffffffffffffffffffffffffffffffff166323b872dd3330876040518463ffffffff1660e01b815260040161149c9392919061236c565b602060405180830381600087803b1580156114b657600080fd5b505af11580156114ca573d6000803e3d6000fd5b505050506040513d601f19601f820116820180604052508101906114ee9190612209565b6114f757600080fd5b61150e84836002015461178b90919063ffffffff16565b82600201819055505050505050565b60055481565b6006818154811061153357600080fd5b906000526020600020016000915054906101000a900473ffffffffffffffffffffffffffffffffffffffff1681565b60008060019054906101000a900460ff16156115d95760018260ff16148015611591575061158f30611e35565b155b6115d0576040517f08c379a00000000000000000000000000000000000000000000000000000000081526004016115c790612470565b60405180910390fd5b6000905061164d565b8160ff1660008054906101000a900460ff1660ff161061162e576040517f08c379a000000000000000000000000000000000000000000000000000000000815260040161162590612470565b60405180910390fd5b816000806101000a81548160ff021916908360ff160217905550600190505b919050565b600060019054906101000a900460ff166116a1576040517f08c379a000000000000000000000000000000000000000000000000000000000815260040161169890612490565b60405180910390fd5b81600b60006101000a81548173ffffffffffffffffffffffffffffffffffffffff021916908373ffffffffffffffffffffffffffffffffffffffff1602179055508060028190555083600690805190602001906116ff929190611e58565b508260079080519060200190611716929190611ee2565b50670de0b6b3a7640000600381905550670de0b6b3a7640000600581905550670c7d713b49da000060048190555033600860006101000a81548173ffffffffffffffffffffffffffffffffffffffff021916908373ffffffffffffffffffffffffffffffffffffffff16021790555050505050565b600081836117999190612559565b905092915050565b600081836117af91906125e0565b905092915050565b600081836117c591906125af565b905092915050565b600080600b60009054906101000a900473ffffffffffffffffffffffffffffffffffffffff1673ffffffffffffffffffffffffffffffffffffffff166331d98b3f60078681548110611848577f4e487b7100000000000000000000000000000000000000000000000000000000600052603260045260246000fd5b90600052602060002001546040518263ffffffff1660e01b815260040161186f919061243a565b60206040518083038186803b15801561188757600080fd5b505afa15801561189b573d6000803e3d6000fd5b505050506040513d601f19601f820116820180604052508101906118bf919061225b565b9050600081146118f5576118f06003546118e285846117a190919063ffffffff16565b6117b790919063ffffffff16565b6118f8565b60005b91505092915050565b60008061192d60035461191f600554876117a190919063ffffffff16565b6117b790919063ffffffff16565b90506004546119598461194b600354856117a190919063ffffffff16565b6117b790919063ffffffff16565b1091505092915050565b6000600d828154811061199f577f4e487b7100000000000000000000000000000000000000000000000000000000600052603260045260246000fd5b90600052602060002090600502019050600060068260010154815481106119ef577f4e487b7100000000000000000000000000000000000000000000000000000000600052603260045260246000fd5b9060005260206000200160009054906101000a900473ffffffffffffffffffffffffffffffffffffffff1690508160030154600c60009054906101000a900473ffffffffffffffffffffffffffffffffffffffff1673ffffffffffffffffffffffffffffffffffffffff166370a08231336040518263ffffffff1660e01b8152600401611a7c9190612351565b60206040518083038186803b158015611a9457600080fd5b505afa158015611aa8573d6000803e3d6000fd5b505050506040513d601f19601f82011682018060405250810190611acc919061225b565b1015611ad757600080fd5b600c60009054906101000a900473ffffffffffffffffffffffffffffffffffffffff1673ffffffffffffffffffffffffffffffffffffffff16639dc29fac3384600301546040518363ffffffff1660e01b8152600401611b389291906123a3565b600060405180830381600087803b158015611b5257600080fd5b505af1158015611b66573d6000803e3d6000fd5b505050508073ffffffffffffffffffffffffffffffffffffffff1663a9059cbb3384600201546040518363ffffffff1660e01b8152600401611ba99291906123a3565b602060405180830381600087803b158015611bc357600080fd5b505af1158015611bd7573d6000803e3d6000fd5b505050506040513d601f19601f82011682018060405250810190611bfb9190612209565b50600d8381548110611c36577f4e487b7100000000000000000000000000000000000000000000000000000000600052603260045260246000fd5b9060005260206000209060050201600080820160006101000a81549073ffffffffffffffffffffffffffffffffffffffff0219169055600182016000905560028201600090556003820160009055600482016000905550506001600e600085815260200190815260200160002060006101000a81548160ff021916908315150217905550505050565b600080600d8381548110611cfc577f4e487b7100000000000000000000000000000000000000000000000000000000600052603260045260246000fd5b90600052602060002090600502016040518060a00160405290816000820160009054906101000a900473ffffffffffffffffffffffffffffffffffffffff1673ffffffffffffffffffffffffffffffffffffffff1673ffffffffffffffffffffffffffffffffffffffff16815260200160018201548152602001600282015481526020016003820154815260200160048201548152505090506000611da9826020015183604001516117cd565b90506000611dda600354611dcc60055486606001516117a190919063ffffffff16565b6117b790919063ffffffff16565b9050600454611e0683611df8600354856117a190919063ffffffff16565b6117b790919063ffffffff16565b10158015611e15575060008114155b9350505050919050565b60008183611e2d919061263a565b905092915050565b6000808273ffffffffffffffffffffffffffffffffffffffff163b119050919050565b828054828255906000526020600020908101928215611ed1579160200282015b82811115611ed05782518260006101000a81548173ffffffffffffffffffffffffffffffffffffffff021916908373ffffffffffffffffffffffffffffffffffffffff16021790555091602001919060010190611e78565b5b509050611ede9190611f2f565b5090565b828054828255906000526020600020908101928215611f1e579160200282015b82811115611f1d578251825591602001919060010190611f02565b5b509050611f2b9190611f4c565b5090565b5b80821115611f48576000816000905550600101611f30565b5090565b5b80821115611f65576000816000905550600101611f4d565b5090565b6000611f7c611f77846124f0565b6124cb565b90508083825260208201905082856020860282011115611f9b57600080fd5b60005b85811015611fcb5781611fb18882612041565b845260208401935060208301925050600181019050611f9e565b5050509392505050565b6000611fe8611fe38461251c565b6124cb565b9050808382526020820190508285602086028201111561200757600080fd5b60005b85811015612037578161201d88826120bf565b84526020840193506020830192505060018101905061200a565b5050509392505050565b60008135905061205081612895565b92915050565b600082601f83011261206757600080fd5b8135612077848260208601611f69565b91505092915050565b600082601f83011261209157600080fd5b81356120a1848260208601611fd5565b91505092915050565b6000815190506120b9816128ac565b92915050565b6000813590506120ce816128c3565b92915050565b6000813590506120e3816128da565b92915050565b6000815190506120f8816128da565b92915050565b60006020828403121561211057600080fd5b600061211e84828501612041565b91505092915050565b60008060006060848603121561213c57600080fd5b600061214a86828701612041565b935050602061215b86828701612041565b925050604061216c86828701612041565b9150509250925092565b6000806000806080858703121561218c57600080fd5b600085013567ffffffffffffffff8111156121a657600080fd5b6121b287828801612056565b945050602085013567ffffffffffffffff8111156121cf57600080fd5b6121db87828801612080565b93505060406121ec87828801612041565b92505060606121fd878288016120d4565b91505092959194509250565b60006020828403121561221b57600080fd5b6000612229848285016120aa565b91505092915050565b60006020828403121561224457600080fd5b6000612252848285016120d4565b91505092915050565b60006020828403121561226d57600080fd5b600061227b848285016120e9565b91505092915050565b6000806040838503121561229757600080fd5b60006122a5858286016120d4565b92505060206122b6858286016120d4565b9150509250929050565b6122c98161266e565b82525050565b6122d881612680565b82525050565b6122e78161268c565b82525050565b6122f6816126cd565b82525050565b6000612309602e83612548565b9150612314826127f7565b604082019050919050565b600061232c602b83612548565b915061233782612846565b604082019050919050565b61234b816126b6565b82525050565b600060208201905061236660008301846122c0565b92915050565b600060608201905061238160008301866122c0565b61238e60208301856122c0565b61239b6040830184612342565b949350505050565b60006040820190506123b860008301856122c0565b6123c56020830184612342565b9392505050565b600060a0820190506123e160008301886122c0565b6123ee6020830187612342565b6123fb6040830186612342565b6124086060830185612342565b6124156080830184612342565b9695505050505050565b600060208201905061243460008301846122cf565b92915050565b600060208201905061244f60008301846122de565b92915050565b600060208201905061246a60008301846122ed565b92915050565b60006020820190508181036000830152612489816122fc565b9050919050565b600060208201905081810360008301526124a98161231f565b9050919050565b60006020820190506124c56000830184612342565b92915050565b60006124d56124e6565b90506124e182826126df565b919050565b6000604051905090565b600067ffffffffffffffff82111561250b5761250a6127b7565b5b602082029050602081019050919050565b600067ffffffffffffffff821115612537576125366127b7565b5b602082029050602081019050919050565b600082825260208201905092915050565b6000612564826126b6565b915061256f836126b6565b9250827fffffffffffffffffffffffffffffffffffffffffffffffffffffffffffffffff038211156125a4576125a3612759565b5b828201905092915050565b60006125ba826126b6565b91506125c5836126b6565b9250826125d5576125d4612788565b5b828204905092915050565b60006125eb826126b6565b91506125f6836126b6565b9250817fffffffffffffffffffffffffffffffffffffffffffffffffffffffffffffffff048311821515161561262f5761262e612759565b5b828202905092915050565b6000612645826126b6565b9150612650836126b6565b92508282101561266357612662612759565b5b828203905092915050565b600061267982612696565b9050919050565b60008115159050919050565b6000819050919050565b600073ffffffffffffffffffffffffffffffffffffffff82169050919050565b6000819050919050565b600060ff82169050919050565b60006126d8826126c0565b9050919050565b6126e8826127e6565b810181811067ffffffffffffffff82111715612707576127066127b7565b5b80604052505050565b600061271b826126b6565b91507fffffffffffffffffffffffffffffffffffffffffffffffffffffffffffffffff82141561274e5761274d612759565b5b600182019050919050565b7f4e487b7100000000000000000000000000000000000000000000000000000000600052601160045260246000fd5b7f4e487b7100000000000000000000000000000000000000000000000000000000600052601260045260246000fd5b7f4e487b7100000000000000000000000000000000000000000000000000000000600052604160045260246000fd5b6000601f19601f8301169050919050565b7f496e697469616c697a61626c653a20636f6e747261637420697320616c72656160008201527f647920696e697469616c697a6564000000000000000000000000000000000000602082015250565b7f496e697469616c697a61626c653a20636f6e7472616374206973206e6f74206960008201527f6e697469616c697a696e67000000000000000000000000000000000000000000602082015250565b61289e8161266e565b81146128a957600080fd5b50565b6128b581612680565b81146128c057600080fd5b50565b6128cc8161268c565b81146128d757600080fd5b50565b6128e3816126b6565b81146128ee57600080fd5b5056fea264697066735822122065496df304fde29f29045fcf5d67d44ba92907a02d04fb551639585f1e6f310564736f6c63430008040033",
  "linkReferences": {},
  "deployedLinkReferences": {}
}