{
  "_format": "hh-sol-artifact-1",
  "contractName": "FxUSDVaults",
  "sourceName": "contracts/Vaults/FxUSDVaults.sol",
  "abi": [
    {
      "inputs": [
        {
          "internalType": "address[]",
          "name": "_collateralWhitelist",
          "type": "address[]"
        },
        {
          "internalType": "address",
          "name": "_oracle",
          "type": "address"
        },
        {
          "internalType": "uint256",
          "name": "_debtTokenIndex",
          "type": "uint256"
        }
      ],
      "stateMutability": "nonpayable",
      "type": "constructor"
    },
    {
      "inputs": [],
      "name": "DYNAMIC_DEBT_MULTIPLIER",
      "outputs": [
        {
          "internalType": "uint256",
          "name": "",
          "type": "uint256"
        }
      ],
      "stateMutability": "view",
      "type": "function"
    },
    {
      "inputs": [
        {
          "internalType": "uint256",
          "name": "",
          "type": "uint256"
        }
      ],
      "name": "Vaults",
      "outputs": [
        {
          "internalType": "address",
          "name": "Owner",
          "type": "address"
        },
        {
          "internalType": "uint256",
          "name": "CollateralIndex",
          "type": "uint256"
        },
        {
          "internalType": "uint256",
          "name": "Collateral",
          "type": "uint256"
        },
        {
          "internalType": "uint256",
          "name": "Debt",
          "type": "uint256"
        },
        {
          "internalType": "uint256",
          "name": "ID",
          "type": "uint256"
        }
      ],
      "stateMutability": "view",
      "type": "function"
    },
    {
      "inputs": [
        {
          "internalType": "address",
          "name": "_collateral",
          "type": "address"
        }
      ],
      "name": "addCollateralOption",
      "outputs": [],
      "stateMutability": "nonpayable",
      "type": "function"
    },
    {
      "inputs": [
        {
          "internalType": "uint256",
          "name": "_vaultID",
          "type": "uint256"
        },
        {
          "internalType": "uint256",
          "name": "_amount",
          "type": "uint256"
        }
      ],
      "name": "borrow",
      "outputs": [],
      "stateMutability": "nonpayable",
      "type": "function"
    },
    {
      "inputs": [
        {
          "internalType": "uint256",
          "name": "_vaultID",
          "type": "uint256"
        }
      ],
      "name": "closeVault",
      "outputs": [],
      "stateMutability": "nonpayable",
      "type": "function"
    },
    {
      "inputs": [
        {
          "internalType": "uint256",
          "name": "",
          "type": "uint256"
        }
      ],
      "name": "collateralWhitelist",
      "outputs": [
        {
          "internalType": "address",
          "name": "",
          "type": "address"
        }
      ],
      "stateMutability": "view",
      "type": "function"
    },
    {
      "inputs": [
        {
          "internalType": "uint256",
          "name": "_index",
          "type": "uint256"
        }
      ],
      "name": "getVault",
      "outputs": [
        {
          "internalType": "address",
          "name": "vaultOwner",
          "type": "address"
        },
        {
          "internalType": "uint256",
          "name": "collateralIndex",
          "type": "uint256"
        },
        {
          "internalType": "uint256",
          "name": "collateral",
          "type": "uint256"
        },
        {
          "internalType": "uint256",
          "name": "debt",
          "type": "uint256"
        },
        {
          "internalType": "uint256",
          "name": "id",
          "type": "uint256"
        }
      ],
      "stateMutability": "view",
      "type": "function"
    },
    {
      "inputs": [
        {
          "internalType": "uint256",
          "name": "",
          "type": "uint256"
        }
      ],
      "name": "isClosed",
      "outputs": [
        {
          "internalType": "bool",
          "name": "",
          "type": "bool"
        }
      ],
      "stateMutability": "view",
      "type": "function"
    },
    {
      "inputs": [
        {
          "internalType": "uint256",
          "name": "_vaultID",
          "type": "uint256"
        }
      ],
      "name": "liquidate",
      "outputs": [],
      "stateMutability": "nonpayable",
      "type": "function"
    },
    {
      "inputs": [
        {
          "internalType": "uint256",
          "name": "_collateralIndex",
          "type": "uint256"
        }
      ],
      "name": "openVault",
      "outputs": [
        {
          "internalType": "uint256",
          "name": "",
          "type": "uint256"
        }
      ],
      "stateMutability": "nonpayable",
      "type": "function"
    },
    {
      "inputs": [],
      "name": "owner",
      "outputs": [
        {
          "internalType": "address",
          "name": "",
          "type": "address"
        }
      ],
      "stateMutability": "view",
      "type": "function"
    },
    {
      "inputs": [
        {
          "internalType": "uint256",
          "name": "_vaultID",
          "type": "uint256"
        },
        {
          "internalType": "uint256",
          "name": "_amount",
          "type": "uint256"
        }
      ],
      "name": "repay",
      "outputs": [],
      "stateMutability": "nonpayable",
      "type": "function"
    },
    {
      "inputs": [
        {
          "internalType": "address",
          "name": "_perpStatic",
          "type": "address"
        },
        {
          "internalType": "address",
          "name": "_perpDynamic",
          "type": "address"
        },
        {
          "internalType": "address",
          "name": "_OrderBook",
          "type": "address"
        }
      ],
      "name": "setState",
      "outputs": [],
      "stateMutability": "nonpayable",
      "type": "function"
    },
    {
      "inputs": [
        {
          "internalType": "uint256",
          "name": "_vaultID",
          "type": "uint256"
        },
        {
          "internalType": "uint256",
          "name": "_amount",
          "type": "uint256"
        }
      ],
      "name": "supply",
      "outputs": [],
      "stateMutability": "nonpayable",
      "type": "function"
    },
    {
      "inputs": [
        {
          "internalType": "uint256",
          "name": "_fundingRate",
          "type": "uint256"
        }
      ],
      "name": "updateDynamicMultiplier",
      "outputs": [],
      "stateMutability": "nonpayable",
      "type": "function"
    },
    {
      "inputs": [
        {
          "internalType": "uint256",
          "name": "_vaultID",
          "type": "uint256"
        },
        {
          "internalType": "uint256",
          "name": "_amount",
          "type": "uint256"
        }
      ],
      "name": "withdraw",
      "outputs": [],
      "stateMutability": "nonpayable",
      "type": "function"
    },
    {
      "stateMutability": "payable",
      "type": "receive"
    }
  ],
  "bytecode": "0x60806040523480156200001157600080fd5b50604051620023fe380380620023fe833981810160405281019062000037919062000293565b82828281600960006101000a81548173ffffffffffffffffffffffffffffffffffffffff021916908373ffffffffffffffffffffffffffffffffffffffff1602179055508060018190555082600590805190602001906200009a92919062000115565b50670de0b6b3a7640000600281905550670de0b6b3a7640000600481905550670c7d713b49da000060038190555033600660006101000a81548173ffffffffffffffffffffffffffffffffffffffff021916908373ffffffffffffffffffffffffffffffffffffffff16021790555050505050505062000442565b82805482825590600052602060002090810192821562000191579160200282015b82811115620001905782518260006101000a81548173ffffffffffffffffffffffffffffffffffffffff021916908373ffffffffffffffffffffffffffffffffffffffff1602179055509160200191906001019062000136565b5b509050620001a09190620001a4565b5090565b5b80821115620001bf576000816000905550600101620001a5565b5090565b6000620001da620001d4846200032b565b62000302565b90508083825260208201905082856020860282011115620001fa57600080fd5b60005b858110156200022e578162000213888262000238565b845260208401935060208301925050600181019050620001fd565b5050509392505050565b60008151905062000249816200040e565b92915050565b600082601f8301126200026157600080fd5b815162000273848260208601620001c3565b91505092915050565b6000815190506200028d8162000428565b92915050565b600080600060608486031215620002a957600080fd5b600084015167ffffffffffffffff811115620002c457600080fd5b620002d2868287016200024f565b9350506020620002e58682870162000238565b9250506040620002f8868287016200027c565b9150509250925092565b60006200030e62000321565b90506200031c828262000398565b919050565b6000604051905090565b600067ffffffffffffffff821115620003495762000348620003ce565b5b602082029050602081019050919050565b600062000367826200036e565b9050919050565b600073ffffffffffffffffffffffffffffffffffffffff82169050919050565b6000819050919050565b620003a382620003fd565b810181811067ffffffffffffffff82111715620003c557620003c4620003ce565b5b80604052505050565b7f4e487b7100000000000000000000000000000000000000000000000000000000600052604160045260246000fd5b6000601f19601f8301169050919050565b62000419816200035a565b81146200042557600080fd5b50565b62000433816200038e565b81146200043f57600080fd5b50565b611fac80620004526000396000f3fe6080604052600436106100f75760003560e01c80638f9bf8331161008a578063d9d75db411610059578063d9d75db414610349578063daecfa6c14610372578063f987714f1461039b578063fcd96b02146103c6576100fe565b80638f9bf833146102795780639403b634146102a2578063d5c78a28146102e3578063d8aed14514610320576100fe565b8063441a3e70116100c6578063441a3e70146101bb5780635aca8415146101e45780636feba3ca146102255780638da5cb5b1461024e576100fe565b806304a2ce7e146101035780630ecbcdab14610140578063360c328814610169578063415f124014610192576100fe565b366100fe57005b600080fd5b34801561010f57600080fd5b5061012a60048036038101906101259190611b6e565b610403565b6040516101379190611d12565b60405180910390f35b34801561014c57600080fd5b5061016760048036038101906101629190611bc0565b61050a565b005b34801561017557600080fd5b50610190600480360381019061018b9190611b6e565b6107a8565b005b34801561019e57600080fd5b506101b960048036038101906101b49190611b6e565b6108f5565b005b3480156101c757600080fd5b506101e260048036038101906101dd9190611bc0565b610940565b005b3480156101f057600080fd5b5061020b60048036038101906102069190611b6e565b610c5b565b60405161021c959493929190611ca4565b60405180910390f35b34801561023157600080fd5b5061024c60048036038101906102479190611acd565b610cc1565b005b34801561025a57600080fd5b50610263610d81565b6040516102709190611c29565b60405180910390f35b34801561028557600080fd5b506102a0600480360381019061029b9190611b6e565b610da7565b005b3480156102ae57600080fd5b506102c960048036038101906102c49190611b6e565b610ec8565b6040516102da959493929190611ca4565b60405180910390f35b3480156102ef57600080fd5b5061030a60048036038101906103059190611b6e565b610fd1565b6040516103179190611cf7565b60405180910390f35b34801561032c57600080fd5b5061034760048036038101906103429190611bc0565b610ff1565b005b34801561035557600080fd5b50610370600480360381019061036b9190611af6565b61112e565b005b34801561037e57600080fd5b5061039960048036038101906103949190611bc0565b61122b565b005b3480156103a757600080fd5b506103b06113ce565b6040516103bd9190611d12565b60405180910390f35b3480156103d257600080fd5b506103ed60048036038101906103e89190611b6e565b6113d4565b6040516103fa9190611c29565b60405180910390f35b6000806040518060a001604052803373ffffffffffffffffffffffffffffffffffffffff16815260200184815260200160008152602001600081526020016000548152509050600b81908060018154018082558091505060019003906000526020600020906005020160009091909190915060008201518160000160006101000a81548173ffffffffffffffffffffffffffffffffffffffff021916908373ffffffffffffffffffffffffffffffffffffffff1602179055506020820151816001015560408201518160020155606082015181600301556080820151816004015550506000808154809291906104f890611e8a565b91905055508060800151915050919050565b816000600b8281548110610547577f4e487b7100000000000000000000000000000000000000000000000000000000600052603260045260246000fd5b90600052602060002090600502016040518060a00160405290816000820160009054906101000a900473ffffffffffffffffffffffffffffffffffffffff1673ffffffffffffffffffffffffffffffffffffffff1673ffffffffffffffffffffffffffffffffffffffff1681526020016001820154815260200160028201548152602001600382015481526020016004820154815250509050806000015173ffffffffffffffffffffffffffffffffffffffff163373ffffffffffffffffffffffffffffffffffffffff161461061c57600080fd5b83600c600082815260200190815260200160002060009054906101000a900460ff161561064857600080fd5b6000600b8681548110610684577f4e487b7100000000000000000000000000000000000000000000000000000000600052603260045260246000fd5b9060005260206000209060050201905060006106ad86836003015461141390919063ffffffff16565b905060006106da6002546106cc6004548561142990919063ffffffff16565b61143f90919063ffffffff16565b905060006106f084600101548560020154611455565b90506106fc8282611545565b61070557600080fd5b828460030181905550600a60009054906101000a900473ffffffffffffffffffffffffffffffffffffffff1673ffffffffffffffffffffffffffffffffffffffff166340c10f19338a6040518363ffffffff1660e01b815260040161076b929190611c7b565b600060405180830381600087803b15801561078557600080fd5b505af1158015610799573d6000803e3d6000fd5b50505050505050505050505050565b806000600b82815481106107e5577f4e487b7100000000000000000000000000000000000000000000000000000000600052603260045260246000fd5b90600052602060002090600502016040518060a00160405290816000820160009054906101000a900473ffffffffffffffffffffffffffffffffffffffff1673ffffffffffffffffffffffffffffffffffffffff1673ffffffffffffffffffffffffffffffffffffffff1681526020016001820154815260200160028201548152602001600382015481526020016004820154815250509050806000015173ffffffffffffffffffffffffffffffffffffffff163373ffffffffffffffffffffffffffffffffffffffff16146108ba57600080fd5b82600c600082815260200190815260200160002060009054906101000a900460ff16156108e657600080fd5b6108ef846115a7565b50505050565b80600c600082815260200190815260200160002060009054906101000a900460ff161561092157600080fd5b61092a82611903565b61093357600080fd5b61093c826115a7565b5050565b816000600b828154811061097d577f4e487b7100000000000000000000000000000000000000000000000000000000600052603260045260246000fd5b90600052602060002090600502016040518060a00160405290816000820160009054906101000a900473ffffffffffffffffffffffffffffffffffffffff1673ffffffffffffffffffffffffffffffffffffffff1673ffffffffffffffffffffffffffffffffffffffff1681526020016001820154815260200160028201548152602001600382015481526020016004820154815250509050806000015173ffffffffffffffffffffffffffffffffffffffff163373ffffffffffffffffffffffffffffffffffffffff1614610a5257600080fd5b83600c600082815260200190815260200160002060009054906101000a900460ff1615610a7e57600080fd5b6000600b8681548110610aba577f4e487b7100000000000000000000000000000000000000000000000000000000600052603260045260246000fd5b906000526020600020906005020190506000610af08260010154610aeb888560020154611a6390919063ffffffff16565b611455565b90506000610b21600254610b13600454866003015461142990919063ffffffff16565b61143f90919063ffffffff16565b9050610b2d8183611545565b610b3657600080fd5b610b4d878460020154611a6390919063ffffffff16565b836002018190555060006005846001015481548110610b95577f4e487b7100000000000000000000000000000000000000000000000000000000600052603260045260246000fd5b9060005260206000200160009054906101000a900473ffffffffffffffffffffffffffffffffffffffff1690508073ffffffffffffffffffffffffffffffffffffffff1663a9059cbb338a6040518363ffffffff1660e01b8152600401610bfd929190611c7b565b602060405180830381600087803b158015610c1757600080fd5b505af1158015610c2b573d6000803e3d6000fd5b505050506040513d601f19601f82011682018060405250810190610c4f9190611b45565b50505050505050505050565b600b8181548110610c6b57600080fd5b90600052602060002090600502016000915090508060000160009054906101000a900473ffffffffffffffffffffffffffffffffffffffff16908060010154908060020154908060030154908060040154905085565b600660009054906101000a900473ffffffffffffffffffffffffffffffffffffffff1673ffffffffffffffffffffffffffffffffffffffff163373ffffffffffffffffffffffffffffffffffffffff1614610d1b57600080fd5b6005819080600181540180825580915050600190039060005260206000200160009091909190916101000a81548173ffffffffffffffffffffffffffffffffffffffff021916908373ffffffffffffffffffffffffffffffffffffffff16021790555050565b600660009054906101000a900473ffffffffffffffffffffffffffffffffffffffff1681565b600760009054906101000a900473ffffffffffffffffffffffffffffffffffffffff1673ffffffffffffffffffffffffffffffffffffffff163373ffffffffffffffffffffffffffffffffffffffff1614610e0157600080fd5b6000610e188260045461142990919063ffffffff16565b9050610e2f6002548261143f90919063ffffffff16565b600481905550600860009054906101000a900473ffffffffffffffffffffffffffffffffffffffff1673ffffffffffffffffffffffffffffffffffffffff16638f9bf8336004546040518263ffffffff1660e01b8152600401610e929190611d12565b600060405180830381600087803b158015610eac57600080fd5b505af1158015610ec0573d6000803e3d6000fd5b505050505050565b600080600080600080600b8781548110610f0b577f4e487b7100000000000000000000000000000000000000000000000000000000600052603260045260246000fd5b90600052602060002090600502016040518060a00160405290816000820160009054906101000a900473ffffffffffffffffffffffffffffffffffffffff1673ffffffffffffffffffffffffffffffffffffffff1673ffffffffffffffffffffffffffffffffffffffff168152602001600182015481526020016002820154815260200160038201548152602001600482015481525050905080600001518160200151826040015183606001518460800151955095509550955095505091939590929450565b600c6020528060005260406000206000915054906101000a900460ff1681565b81600c600082815260200190815260200160002060009054906101000a900460ff161561101d57600080fd5b6000600b8481548110611059577f4e487b7100000000000000000000000000000000000000000000000000000000600052603260045260246000fd5b90600052602060002090600502019050828160030154101561107a57600080fd5b611091838260030154611a6390919063ffffffff16565b8160030181905550600a60009054906101000a900473ffffffffffffffffffffffffffffffffffffffff1673ffffffffffffffffffffffffffffffffffffffff16639dc29fac33856040518363ffffffff1660e01b81526004016110f6929190611c7b565b600060405180830381600087803b15801561111057600080fd5b505af1158015611124573d6000803e3d6000fd5b5050505050505050565b600760149054906101000a900460ff161561114857600080fd5b82600a60006101000a81548173ffffffffffffffffffffffffffffffffffffffff021916908373ffffffffffffffffffffffffffffffffffffffff16021790555081600860006101000a81548173ffffffffffffffffffffffffffffffffffffffff021916908373ffffffffffffffffffffffffffffffffffffffff16021790555080600760006101000a81548173ffffffffffffffffffffffffffffffffffffffff021916908373ffffffffffffffffffffffffffffffffffffffff1602179055506001600760146101000a81548160ff021916908315150217905550505050565b81600c600082815260200190815260200160002060009054906101000a900460ff161561125757600080fd5b6000600b8481548110611293577f4e487b7100000000000000000000000000000000000000000000000000000000600052603260045260246000fd5b90600052602060002090600502019050600060058260010154815481106112e3577f4e487b7100000000000000000000000000000000000000000000000000000000600052603260045260246000fd5b9060005260206000200160009054906101000a900473ffffffffffffffffffffffffffffffffffffffff1690508073ffffffffffffffffffffffffffffffffffffffff166323b872dd3330876040518463ffffffff1660e01b815260040161134d93929190611c44565b602060405180830381600087803b15801561136757600080fd5b505af115801561137b573d6000803e3d6000fd5b505050506040513d601f19601f8201168201806040525081019061139f9190611b45565b6113a857600080fd5b6113bf84836002015461141390919063ffffffff16565b82600201819055505050505050565b60045481565b600581815481106113e457600080fd5b906000526020600020016000915054906101000a900473ffffffffffffffffffffffffffffffffffffffff1681565b600081836114219190611d2d565b905092915050565b600081836114379190611db4565b905092915050565b6000818361144d9190611d83565b905092915050565b600080600960009054906101000a900473ffffffffffffffffffffffffffffffffffffffff1673ffffffffffffffffffffffffffffffffffffffff1663e7572230856040518263ffffffff1660e01b81526004016114b39190611d12565b60206040518083038186803b1580156114cb57600080fd5b505afa1580156114df573d6000803e3d6000fd5b505050506040513d601f19601f820116820180604052508101906115039190611b97565b90506000811461153957611534600254611526858461142990919063ffffffff16565b61143f90919063ffffffff16565b61153c565b60005b91505092915050565b6000806115716002546115636004548761142990919063ffffffff16565b61143f90919063ffffffff16565b905060035461159d8461158f6002548561142990919063ffffffff16565b61143f90919063ffffffff16565b1091505092915050565b6000600b82815481106115e3577f4e487b7100000000000000000000000000000000000000000000000000000000600052603260045260246000fd5b9060005260206000209060050201905060006005826001015481548110611633577f4e487b7100000000000000000000000000000000000000000000000000000000600052603260045260246000fd5b9060005260206000200160009054906101000a900473ffffffffffffffffffffffffffffffffffffffff1690508160030154600a60009054906101000a900473ffffffffffffffffffffffffffffffffffffffff1673ffffffffffffffffffffffffffffffffffffffff166370a08231336040518263ffffffff1660e01b81526004016116c09190611c29565b60206040518083038186803b1580156116d857600080fd5b505afa1580156116ec573d6000803e3d6000fd5b505050506040513d601f19601f820116820180604052508101906117109190611b97565b101561171b57600080fd5b600a60009054906101000a900473ffffffffffffffffffffffffffffffffffffffff1673ffffffffffffffffffffffffffffffffffffffff16639dc29fac3384600301546040518363ffffffff1660e01b815260040161177c929190611c7b565b600060405180830381600087803b15801561179657600080fd5b505af11580156117aa573d6000803e3d6000fd5b505050508073ffffffffffffffffffffffffffffffffffffffff1663a9059cbb3384600201546040518363ffffffff1660e01b81526004016117ed929190611c7b565b602060405180830381600087803b15801561180757600080fd5b505af115801561181b573d6000803e3d6000fd5b505050506040513d601f19601f8201168201806040525081019061183f9190611b45565b50600b838154811061187a577f4e487b7100000000000000000000000000000000000000000000000000000000600052603260045260246000fd5b9060005260206000209060050201600080820160006101000a81549073ffffffffffffffffffffffffffffffffffffffff0219169055600182016000905560028201600090556003820160009055600482016000905550506001600c600085815260200190815260200160002060006101000a81548160ff021916908315150217905550505050565b600080600b8381548110611940577f4e487b7100000000000000000000000000000000000000000000000000000000600052603260045260246000fd5b90600052602060002090600502016040518060a00160405290816000820160009054906101000a900473ffffffffffffffffffffffffffffffffffffffff1673ffffffffffffffffffffffffffffffffffffffff1673ffffffffffffffffffffffffffffffffffffffff168152602001600182015481526020016002820154815260200160038201548152602001600482015481525050905060006119ed82602001518360400151611455565b90506000611a1e600254611a10600454866060015161142990919063ffffffff16565b61143f90919063ffffffff16565b9050600354611a4a83611a3c6002548561142990919063ffffffff16565b61143f90919063ffffffff16565b10158015611a59575060008114155b9350505050919050565b60008183611a719190611e0e565b905092915050565b600081359050611a8881611f31565b92915050565b600081519050611a9d81611f48565b92915050565b600081359050611ab281611f5f565b92915050565b600081519050611ac781611f5f565b92915050565b600060208284031215611adf57600080fd5b6000611aed84828501611a79565b91505092915050565b600080600060608486031215611b0b57600080fd5b6000611b1986828701611a79565b9350506020611b2a86828701611a79565b9250506040611b3b86828701611a79565b9150509250925092565b600060208284031215611b5757600080fd5b6000611b6584828501611a8e565b91505092915050565b600060208284031215611b8057600080fd5b6000611b8e84828501611aa3565b91505092915050565b600060208284031215611ba957600080fd5b6000611bb784828501611ab8565b91505092915050565b60008060408385031215611bd357600080fd5b6000611be185828601611aa3565b9250506020611bf285828601611aa3565b9150509250929050565b611c0581611e42565b82525050565b611c1481611e54565b82525050565b611c2381611e80565b82525050565b6000602082019050611c3e6000830184611bfc565b92915050565b6000606082019050611c596000830186611bfc565b611c666020830185611bfc565b611c736040830184611c1a565b949350505050565b6000604082019050611c906000830185611bfc565b611c9d6020830184611c1a565b9392505050565b600060a082019050611cb96000830188611bfc565b611cc66020830187611c1a565b611cd36040830186611c1a565b611ce06060830185611c1a565b611ced6080830184611c1a565b9695505050505050565b6000602082019050611d0c6000830184611c0b565b92915050565b6000602082019050611d276000830184611c1a565b92915050565b6000611d3882611e80565b9150611d4383611e80565b9250827fffffffffffffffffffffffffffffffffffffffffffffffffffffffffffffffff03821115611d7857611d77611ed3565b5b828201905092915050565b6000611d8e82611e80565b9150611d9983611e80565b925082611da957611da8611f02565b5b828204905092915050565b6000611dbf82611e80565b9150611dca83611e80565b9250817fffffffffffffffffffffffffffffffffffffffffffffffffffffffffffffffff0483118215151615611e0357611e02611ed3565b5b828202905092915050565b6000611e1982611e80565b9150611e2483611e80565b925082821015611e3757611e36611ed3565b5b828203905092915050565b6000611e4d82611e60565b9050919050565b60008115159050919050565b600073ffffffffffffffffffffffffffffffffffffffff82169050919050565b6000819050919050565b6000611e9582611e80565b91507fffffffffffffffffffffffffffffffffffffffffffffffffffffffffffffffff821415611ec857611ec7611ed3565b5b600182019050919050565b7f4e487b7100000000000000000000000000000000000000000000000000000000600052601160045260246000fd5b7f4e487b7100000000000000000000000000000000000000000000000000000000600052601260045260246000fd5b611f3a81611e42565b8114611f4557600080fd5b50565b611f5181611e54565b8114611f5c57600080fd5b50565b611f6881611e80565b8114611f7357600080fd5b5056fea2646970667358221220b6550c3b1db355fbb2dcb2d603666a5884a0e65ace86e991d704a4eb6e5f290b64736f6c63430008040033",
  "linkReferences": {},
  "deployedLinkReferences": {}
}