{
  "_format": "hh-sol-artifact-1",
  "contractName": "DummyToken",
  "sourceName": "contracts/dummy/DummyToken.sol",
  "abi": [
    {
      "anonymous": false,
      "inputs": [
        {
          "indexed": true,
          "internalType": "address",
          "name": "owner",
          "type": "address"
        },
        {
          "indexed": true,
          "internalType": "address",
          "name": "spender",
          "type": "address"
        },
        {
          "indexed": false,
          "internalType": "uint256",
          "name": "value",
          "type": "uint256"
        }
      ],
      "name": "Approval",
      "type": "event"
    },
    {
      "anonymous": false,
      "inputs": [
        {
          "indexed": false,
          "internalType": "uint8",
          "name": "version",
          "type": "uint8"
        }
      ],
      "name": "Initialized",
      "type": "event"
    },
    {
      "anonymous": false,
      "inputs": [
        {
          "indexed": true,
          "internalType": "address",
          "name": "from",
          "type": "address"
        },
        {
          "indexed": true,
          "internalType": "address",
          "name": "to",
          "type": "address"
        },
        {
          "indexed": false,
          "internalType": "uint256",
          "name": "value",
          "type": "uint256"
        }
      ],
      "name": "Transfer",
      "type": "event"
    },
    {
      "inputs": [
        {
          "internalType": "address",
          "name": "owner",
          "type": "address"
        },
        {
          "internalType": "address",
          "name": "spender",
          "type": "address"
        }
      ],
      "name": "allowance",
      "outputs": [
        {
          "internalType": "uint256",
          "name": "",
          "type": "uint256"
        }
      ],
      "stateMutability": "view",
      "type": "function"
    },
    {
      "inputs": [
        {
          "internalType": "address",
          "name": "spender",
          "type": "address"
        },
        {
          "internalType": "uint256",
          "name": "amount",
          "type": "uint256"
        }
      ],
      "name": "approve",
      "outputs": [
        {
          "internalType": "bool",
          "name": "",
          "type": "bool"
        }
      ],
      "stateMutability": "nonpayable",
      "type": "function"
    },
    {
      "inputs": [
        {
          "internalType": "address",
          "name": "account",
          "type": "address"
        }
      ],
      "name": "balanceOf",
      "outputs": [
        {
          "internalType": "uint256",
          "name": "",
          "type": "uint256"
        }
      ],
      "stateMutability": "view",
      "type": "function"
    },
    {
      "inputs": [],
      "name": "decimals",
      "outputs": [
        {
          "internalType": "uint8",
          "name": "",
          "type": "uint8"
        }
      ],
      "stateMutability": "view",
      "type": "function"
    },
    {
      "inputs": [
        {
          "internalType": "address",
          "name": "spender",
          "type": "address"
        },
        {
          "internalType": "uint256",
          "name": "subtractedValue",
          "type": "uint256"
        }
      ],
      "name": "decreaseAllowance",
      "outputs": [
        {
          "internalType": "bool",
          "name": "",
          "type": "bool"
        }
      ],
      "stateMutability": "nonpayable",
      "type": "function"
    },
    {
      "inputs": [
        {
          "internalType": "address",
          "name": "spender",
          "type": "address"
        },
        {
          "internalType": "uint256",
          "name": "addedValue",
          "type": "uint256"
        }
      ],
      "name": "increaseAllowance",
      "outputs": [
        {
          "internalType": "bool",
          "name": "",
          "type": "bool"
        }
      ],
      "stateMutability": "nonpayable",
      "type": "function"
    },
    {
      "inputs": [],
      "name": "initialize",
      "outputs": [],
      "stateMutability": "nonpayable",
      "type": "function"
    },
    {
      "inputs": [
        {
          "internalType": "uint256",
          "name": "_amount",
          "type": "uint256"
        }
      ],
      "name": "mint",
      "outputs": [],
      "stateMutability": "nonpayable",
      "type": "function"
    },
    {
      "inputs": [],
      "name": "name",
      "outputs": [
        {
          "internalType": "string",
          "name": "",
          "type": "string"
        }
      ],
      "stateMutability": "view",
      "type": "function"
    },
    {
      "inputs": [],
      "name": "symbol",
      "outputs": [
        {
          "internalType": "string",
          "name": "",
          "type": "string"
        }
      ],
      "stateMutability": "view",
      "type": "function"
    },
    {
      "inputs": [],
      "name": "totalSupply",
      "outputs": [
        {
          "internalType": "uint256",
          "name": "",
          "type": "uint256"
        }
      ],
      "stateMutability": "view",
      "type": "function"
    },
    {
      "inputs": [
        {
          "internalType": "address",
          "name": "to",
          "type": "address"
        },
        {
          "internalType": "uint256",
          "name": "amount",
          "type": "uint256"
        }
      ],
      "name": "transfer",
      "outputs": [
        {
          "internalType": "bool",
          "name": "",
          "type": "bool"
        }
      ],
      "stateMutability": "nonpayable",
      "type": "function"
    },
    {
      "inputs": [
        {
          "internalType": "address",
          "name": "from",
          "type": "address"
        },
        {
          "internalType": "address",
          "name": "to",
          "type": "address"
        },
        {
          "internalType": "uint256",
          "name": "amount",
          "type": "uint256"
        }
      ],
      "name": "transferFrom",
      "outputs": [
        {
          "internalType": "bool",
          "name": "",
          "type": "bool"
        }
      ],
      "stateMutability": "nonpayable",
      "type": "function"
    }
  ],
  "bytecode": "0x608060405234801561001057600080fd5b5061199a806100206000396000f3fe608060405234801561001057600080fd5b50600436106100cf5760003560e01c806370a082311161008c578063a0712d6811610066578063a0712d6814610216578063a457c2d714610232578063a9059cbb14610262578063dd62ed3e14610292576100cf565b806370a08231146101be5780638129fc1c146101ee57806395d89b41146101f8576100cf565b806306fdde03146100d4578063095ea7b3146100f257806318160ddd1461012257806323b872dd14610140578063313ce56714610170578063395093511461018e575b600080fd5b6100dc6102c2565b6040516100e99190611327565b60405180910390f35b61010c600480360381019061010791906110b9565b610354565b60405161011991906112f1565b60405180910390f35b61012a610377565b6040516101379190611489565b60405180910390f35b61015a6004803603810190610155919061106a565b610381565b60405161016791906112f1565b60405180910390f35b6101786103b0565b60405161018591906114a4565b60405180910390f35b6101a860048036038101906101a391906110b9565b6103b9565b6040516101b591906112f1565b60405180910390f35b6101d860048036038101906101d39190611005565b6103f0565b6040516101e59190611489565b60405180910390f35b6101f6610439565b005b610200610539565b60405161020d9190611327565b60405180910390f35b610230600480360381019061022b91906110f5565b6105cb565b005b61024c600480360381019061024791906110b9565b6105d8565b60405161025991906112f1565b60405180910390f35b61027c600480360381019061027791906110b9565b61064f565b60405161028991906112f1565b60405180910390f35b6102ac60048036038101906102a7919061102e565b610672565b6040516102b99190611489565b60405180910390f35b6060603680546102d1906115cb565b80601f01602080910402602001604051908101604052809291908181526020018280546102fd906115cb565b801561034a5780601f1061031f5761010080835404028352916020019161034a565b820191906000526020600020905b81548152906001019060200180831161032d57829003601f168201915b5050505050905090565b60008061035f6106f9565b905061036c818585610701565b600191505092915050565b6000603554905090565b60008061038c6106f9565b90506103998582856108cc565b6103a4858585610958565b60019150509392505050565b60006012905090565b6000806103c46106f9565b90506103e58185856103d68589610672565b6103e091906114db565b610701565b600191505092915050565b6000603360008373ffffffffffffffffffffffffffffffffffffffff1673ffffffffffffffffffffffffffffffffffffffff168152602001908152602001600020549050919050565b60006104456001610bdc565b90508015610469576001600060016101000a81548160ff0219169083151502179055505b6104dd6040518060400160405280600a81526020017f44756d6d79546f6b656e000000000000000000000000000000000000000000008152506040518060400160405280600281526020017f4454000000000000000000000000000000000000000000000000000000000000815250610ccc565b80156105365760008060016101000a81548160ff0219169083151502179055507f7f26b83ff96e1f2b6a682f133852f6798a09c465da95921460cefb3847402498600160405161052d919061130c565b60405180910390a15b50565b606060378054610548906115cb565b80601f0160208091040260200160405190810160405280929190818152602001828054610574906115cb565b80156105c15780601f10610596576101008083540402835291602001916105c1565b820191906000526020600020905b8154815290600101906020018083116105a457829003601f168201915b5050505050905090565b6105d53382610d29565b50565b6000806105e36106f9565b905060006105f18286610672565b905083811015610636576040517f08c379a000000000000000000000000000000000000000000000000000000000815260040161062d90611449565b60405180910390fd5b6106438286868403610701565b60019250505092915050565b60008061065a6106f9565b9050610667818585610958565b600191505092915050565b6000603460008473ffffffffffffffffffffffffffffffffffffffff1673ffffffffffffffffffffffffffffffffffffffff16815260200190815260200160002060008373ffffffffffffffffffffffffffffffffffffffff1673ffffffffffffffffffffffffffffffffffffffff16815260200190815260200160002054905092915050565b600033905090565b600073ffffffffffffffffffffffffffffffffffffffff168373ffffffffffffffffffffffffffffffffffffffff161415610771576040517f08c379a000000000000000000000000000000000000000000000000000000000815260040161076890611409565b60405180910390fd5b600073ffffffffffffffffffffffffffffffffffffffff168273ffffffffffffffffffffffffffffffffffffffff1614156107e1576040517f08c379a00000000000000000000000000000000000000000000000000000000081526004016107d890611369565b60405180910390fd5b80603460008573ffffffffffffffffffffffffffffffffffffffff1673ffffffffffffffffffffffffffffffffffffffff16815260200190815260200160002060008473ffffffffffffffffffffffffffffffffffffffff1673ffffffffffffffffffffffffffffffffffffffff168152602001908152602001600020819055508173ffffffffffffffffffffffffffffffffffffffff168373ffffffffffffffffffffffffffffffffffffffff167f8c5be1e5ebec7d5bd14f71427d1e84f3dd0314c0f7b2291e5b200ac8c7c3b925836040516108bf9190611489565b60405180910390a3505050565b60006108d88484610672565b90507fffffffffffffffffffffffffffffffffffffffffffffffffffffffffffffffff81146109525781811015610944576040517f08c379a000000000000000000000000000000000000000000000000000000000815260040161093b90611389565b60405180910390fd5b6109518484848403610701565b5b50505050565b600073ffffffffffffffffffffffffffffffffffffffff168373ffffffffffffffffffffffffffffffffffffffff1614156109c8576040517f08c379a00000000000000000000000000000000000000000000000000000000081526004016109bf906113e9565b60405180910390fd5b600073ffffffffffffffffffffffffffffffffffffffff168273ffffffffffffffffffffffffffffffffffffffff161415610a38576040517f08c379a0000000000000000000000000000000000000000000000000000000008152600401610a2f90611349565b60405180910390fd5b610a43838383610e8a565b6000603360008573ffffffffffffffffffffffffffffffffffffffff1673ffffffffffffffffffffffffffffffffffffffff16815260200190815260200160002054905081811015610aca576040517f08c379a0000000000000000000000000000000000000000000000000000000008152600401610ac1906113a9565b60405180910390fd5b818103603360008673ffffffffffffffffffffffffffffffffffffffff1673ffffffffffffffffffffffffffffffffffffffff1681526020019081526020016000208190555081603360008573ffffffffffffffffffffffffffffffffffffffff1673ffffffffffffffffffffffffffffffffffffffff1681526020019081526020016000206000828254610b5f91906114db565b925050819055508273ffffffffffffffffffffffffffffffffffffffff168473ffffffffffffffffffffffffffffffffffffffff167fddf252ad1be2c89b69c2b068fc378daa952ba7f163c4a11628f55a4df523b3ef84604051610bc39190611489565b60405180910390a3610bd6848484610e8f565b50505050565b60008060019054906101000a900460ff1615610c535760018260ff16148015610c0b5750610c0930610e94565b155b610c4a576040517f08c379a0000000000000000000000000000000000000000000000000000000008152600401610c41906113c9565b60405180910390fd5b60009050610cc7565b8160ff1660008054906101000a900460ff1660ff1610610ca8576040517f08c379a0000000000000000000000000000000000000000000000000000000008152600401610c9f906113c9565b60405180910390fd5b816000806101000a81548160ff021916908360ff160217905550600190505b919050565b600060019054906101000a900460ff16610d1b576040517f08c379a0000000000000000000000000000000000000000000000000000000008152600401610d1290611429565b60405180910390fd5b610d258282610eb7565b5050565b600073ffffffffffffffffffffffffffffffffffffffff168273ffffffffffffffffffffffffffffffffffffffff161415610d99576040517f08c379a0000000000000000000000000000000000000000000000000000000008152600401610d9090611469565b60405180910390fd5b610da560008383610e8a565b8060356000828254610db791906114db565b9250508190555080603360008473ffffffffffffffffffffffffffffffffffffffff1673ffffffffffffffffffffffffffffffffffffffff1681526020019081526020016000206000828254610e0d91906114db565b925050819055508173ffffffffffffffffffffffffffffffffffffffff16600073ffffffffffffffffffffffffffffffffffffffff167fddf252ad1be2c89b69c2b068fc378daa952ba7f163c4a11628f55a4df523b3ef83604051610e729190611489565b60405180910390a3610e8660008383610e8f565b5050565b505050565b505050565b6000808273ffffffffffffffffffffffffffffffffffffffff163b119050919050565b600060019054906101000a900460ff16610f06576040517f08c379a0000000000000000000000000000000000000000000000000000000008152600401610efd90611429565b60405180910390fd5b8160369080519060200190610f1c929190610f38565b508060379080519060200190610f33929190610f38565b505050565b828054610f44906115cb565b90600052602060002090601f016020900481019282610f665760008555610fad565b82601f10610f7f57805160ff1916838001178555610fad565b82800160010185558215610fad579182015b82811115610fac578251825591602001919060010190610f91565b5b509050610fba9190610fbe565b5090565b5b80821115610fd7576000816000905550600101610fbf565b5090565b600081359050610fea81611936565b92915050565b600081359050610fff8161194d565b92915050565b60006020828403121561101757600080fd5b600061102584828501610fdb565b91505092915050565b6000806040838503121561104157600080fd5b600061104f85828601610fdb565b925050602061106085828601610fdb565b9150509250929050565b60008060006060848603121561107f57600080fd5b600061108d86828701610fdb565b935050602061109e86828701610fdb565b92505060406110af86828701610ff0565b9150509250925092565b600080604083850312156110cc57600080fd5b60006110da85828601610fdb565b92505060206110eb85828601610ff0565b9150509250929050565b60006020828403121561110757600080fd5b600061111584828501610ff0565b91505092915050565b61112781611543565b82525050565b61113681611586565b82525050565b6000611147826114bf565b61115181856114ca565b9350611161818560208601611598565b61116a8161165b565b840191505092915050565b60006111826023836114ca565b915061118d8261166c565b604082019050919050565b60006111a56022836114ca565b91506111b0826116bb565b604082019050919050565b60006111c8601d836114ca565b91506111d38261170a565b602082019050919050565b60006111eb6026836114ca565b91506111f682611733565b604082019050919050565b600061120e602e836114ca565b915061121982611782565b604082019050919050565b60006112316025836114ca565b915061123c826117d1565b604082019050919050565b60006112546024836114ca565b915061125f82611820565b604082019050919050565b6000611277602b836114ca565b91506112828261186f565b604082019050919050565b600061129a6025836114ca565b91506112a5826118be565b604082019050919050565b60006112bd601f836114ca565b91506112c88261190d565b602082019050919050565b6112dc8161156f565b82525050565b6112eb81611579565b82525050565b6000602082019050611306600083018461111e565b92915050565b6000602082019050611321600083018461112d565b92915050565b60006020820190508181036000830152611341818461113c565b905092915050565b6000602082019050818103600083015261136281611175565b9050919050565b6000602082019050818103600083015261138281611198565b9050919050565b600060208201905081810360008301526113a2816111bb565b9050919050565b600060208201905081810360008301526113c2816111de565b9050919050565b600060208201905081810360008301526113e281611201565b9050919050565b6000602082019050818103600083015261140281611224565b9050919050565b6000602082019050818103600083015261142281611247565b9050919050565b600060208201905081810360008301526114428161126a565b9050919050565b600060208201905081810360008301526114628161128d565b9050919050565b60006020820190508181036000830152611482816112b0565b9050919050565b600060208201905061149e60008301846112d3565b92915050565b60006020820190506114b960008301846112e2565b92915050565b600081519050919050565b600082825260208201905092915050565b60006114e68261156f565b91506114f18361156f565b9250827fffffffffffffffffffffffffffffffffffffffffffffffffffffffffffffffff03821115611526576115256115fd565b5b828201905092915050565b600061153c8261154f565b9050919050565b60008115159050919050565b600073ffffffffffffffffffffffffffffffffffffffff82169050919050565b6000819050919050565b600060ff82169050919050565b600061159182611579565b9050919050565b60005b838110156115b657808201518184015260208101905061159b565b838111156115c5576000848401525b50505050565b600060028204905060018216806115e357607f821691505b602082108114156115f7576115f661162c565b5b50919050565b7f4e487b7100000000000000000000000000000000000000000000000000000000600052601160045260246000fd5b7f4e487b7100000000000000000000000000000000000000000000000000000000600052602260045260246000fd5b6000601f19601f8301169050919050565b7f45524332303a207472616e7366657220746f20746865207a65726f206164647260008201527f6573730000000000000000000000000000000000000000000000000000000000602082015250565b7f45524332303a20617070726f766520746f20746865207a65726f20616464726560008201527f7373000000000000000000000000000000000000000000000000000000000000602082015250565b7f45524332303a20696e73756666696369656e7420616c6c6f77616e6365000000600082015250565b7f45524332303a207472616e7366657220616d6f756e742065786365656473206260008201527f616c616e63650000000000000000000000000000000000000000000000000000602082015250565b7f496e697469616c697a61626c653a20636f6e747261637420697320616c72656160008201527f647920696e697469616c697a6564000000000000000000000000000000000000602082015250565b7f45524332303a207472616e736665722066726f6d20746865207a65726f20616460008201527f6472657373000000000000000000000000000000000000000000000000000000602082015250565b7f45524332303a20617070726f76652066726f6d20746865207a65726f2061646460008201527f7265737300000000000000000000000000000000000000000000000000000000602082015250565b7f496e697469616c697a61626c653a20636f6e7472616374206973206e6f74206960008201527f6e697469616c697a696e67000000000000000000000000000000000000000000602082015250565b7f45524332303a2064656372656173656420616c6c6f77616e63652062656c6f7760008201527f207a65726f000000000000000000000000000000000000000000000000000000602082015250565b7f45524332303a206d696e7420746f20746865207a65726f206164647265737300600082015250565b61193f81611531565b811461194a57600080fd5b50565b6119568161156f565b811461196157600080fd5b5056fea26469706673582212206bbfb13a2a5671a1c1e095b534767905f03635cffe87e7ebb37b1b80d2d5066664736f6c63430008040033",
  "linkReferences": {},
  "deployedLinkReferences": {}
}