{
  "_format": "hh-sol-artifact-1",
  "contractName": "PerpFiOwnableUpgrade",
  "sourceName": "contracts/utils/PerpFiOwnableUpgrade.sol",
  "abi": [
    {
      "anonymous": false,
      "inputs": [
        {
          "indexed": false,
          "internalType": "uint8",
          "name": "version",
          "type": "uint8"
        }
      ],
      "name": "Initialized",
      "type": "event"
    },
    {
      "anonymous": false,
      "inputs": [
        {
          "indexed": true,
          "internalType": "address",
          "name": "previousOwner",
          "type": "address"
        },
        {
          "indexed": true,
          "internalType": "address",
          "name": "newOwner",
          "type": "address"
        }
      ],
      "name": "OwnershipTransferred",
      "type": "event"
    },
    {
      "inputs": [],
      "name": "candidate",
      "outputs": [
        {
          "internalType": "address",
          "name": "",
          "type": "address"
        }
      ],
      "stateMutability": "view",
      "type": "function"
    },
    {
      "inputs": [],
      "name": "owner",
      "outputs": [
        {
          "internalType": "address",
          "name": "",
          "type": "address"
        }
      ],
      "stateMutability": "view",
      "type": "function"
    },
    {
      "inputs": [],
      "name": "renounceOwnership",
      "outputs": [],
      "stateMutability": "nonpayable",
      "type": "function"
    },
    {
      "inputs": [
        {
          "internalType": "address",
          "name": "newOwner",
          "type": "address"
        }
      ],
      "name": "setOwner",
      "outputs": [],
      "stateMutability": "nonpayable",
      "type": "function"
    },
    {
      "inputs": [],
      "name": "updateOwner",
      "outputs": [],
      "stateMutability": "nonpayable",
      "type": "function"
    }
  ],
  "bytecode": "0x608060405234801561001057600080fd5b50610bbb806100206000396000f3fe608060405234801561001057600080fd5b50600436106100575760003560e01c806313af40351461005c5780636c8381f814610078578063715018a6146100965780638da5cb5b146100a0578063bc5920ba146100be575b600080fd5b6100766004803603810190610071919061076c565b6100c8565b005b610080610335565b60405161008d9190610876565b60405180910390f35b61009e61035f565b005b6100a86104b7565b6040516100b59190610876565b60405180910390f35b6100c66104e1565b005b6100d061074f565b73ffffffffffffffffffffffffffffffffffffffff16603360009054906101000a900473ffffffffffffffffffffffffffffffffffffffff1673ffffffffffffffffffffffffffffffffffffffff161461015f576040517f08c379a000000000000000000000000000000000000000000000000000000000815260040161015690610911565b60405180910390fd5b600073ffffffffffffffffffffffffffffffffffffffff168173ffffffffffffffffffffffffffffffffffffffff1614156101cf576040517f08c379a00000000000000000000000000000000000000000000000000000000081526004016101c6906108d1565b60405180910390fd5b603360009054906101000a900473ffffffffffffffffffffffffffffffffffffffff1673ffffffffffffffffffffffffffffffffffffffff168173ffffffffffffffffffffffffffffffffffffffff161415610260576040517f08c379a000000000000000000000000000000000000000000000000000000000815260040161025790610931565b60405180910390fd5b603460009054906101000a900473ffffffffffffffffffffffffffffffffffffffff1673ffffffffffffffffffffffffffffffffffffffff168173ffffffffffffffffffffffffffffffffffffffff1614156102f1576040517f08c379a00000000000000000000000000000000000000000000000000000000081526004016102e890610891565b60405180910390fd5b80603460006101000a81548173ffffffffffffffffffffffffffffffffffffffff021916908373ffffffffffffffffffffffffffffffffffffffff16021790555050565b6000603460009054906101000a900473ffffffffffffffffffffffffffffffffffffffff16905090565b61036761074f565b73ffffffffffffffffffffffffffffffffffffffff16603360009054906101000a900473ffffffffffffffffffffffffffffffffffffffff1673ffffffffffffffffffffffffffffffffffffffff16146103f6576040517f08c379a00000000000000000000000000000000000000000000000000000000081526004016103ed90610911565b60405180910390fd5b600073ffffffffffffffffffffffffffffffffffffffff16603360009054906101000a900473ffffffffffffffffffffffffffffffffffffffff1673ffffffffffffffffffffffffffffffffffffffff167f8be0079c531659141344cd1fd0a4f28419497f9722a3daafe3b4186f6b6457e060405160405180910390a36000603360006101000a81548173ffffffffffffffffffffffffffffffffffffffff021916908373ffffffffffffffffffffffffffffffffffffffff160217905550565b6000603360009054906101000a900473ffffffffffffffffffffffffffffffffffffffff16905090565b600073ffffffffffffffffffffffffffffffffffffffff16603460009054906101000a900473ffffffffffffffffffffffffffffffffffffffff1673ffffffffffffffffffffffffffffffffffffffff161415610573576040517f08c379a000000000000000000000000000000000000000000000000000000000815260040161056a906108f1565b60405180910390fd5b61057b61074f565b73ffffffffffffffffffffffffffffffffffffffff16603460009054906101000a900473ffffffffffffffffffffffffffffffffffffffff1673ffffffffffffffffffffffffffffffffffffffff161461060a576040517f08c379a0000000000000000000000000000000000000000000000000000000008152600401610601906108b1565b60405180910390fd5b603460009054906101000a900473ffffffffffffffffffffffffffffffffffffffff1673ffffffffffffffffffffffffffffffffffffffff16603360009054906101000a900473ffffffffffffffffffffffffffffffffffffffff1673ffffffffffffffffffffffffffffffffffffffff167f8be0079c531659141344cd1fd0a4f28419497f9722a3daafe3b4186f6b6457e060405160405180910390a3603460009054906101000a900473ffffffffffffffffffffffffffffffffffffffff16603360006101000a81548173ffffffffffffffffffffffffffffffffffffffff021916908373ffffffffffffffffffffffffffffffffffffffff1602179055506000603460006101000a81548173ffffffffffffffffffffffffffffffffffffffff021916908373ffffffffffffffffffffffffffffffffffffffff160217905550565b600033905090565b60008135905061076681610b6e565b92915050565b60006020828403121561077e57600080fd5b600061078c84828501610757565b91505092915050565b61079e81610962565b82525050565b60006107b1602783610951565b91506107bc82610994565b604082019050919050565b60006107d4602783610951565b91506107df826109e3565b604082019050919050565b60006107f7602283610951565b915061080282610a32565b604082019050919050565b600061081a602f83610951565b915061082582610a81565b604082019050919050565b600061083d602d83610951565b915061084882610ad0565b604082019050919050565b6000610860602683610951565b915061086b82610b1f565b604082019050919050565b600060208201905061088b6000830184610795565b92915050565b600060208201905081810360008301526108aa816107a4565b9050919050565b600060208201905081810360008301526108ca816107c7565b9050919050565b600060208201905081810360008301526108ea816107ea565b9050919050565b6000602082019050818103600083015261090a8161080d565b9050919050565b6000602082019050818103600083015261092a81610830565b9050919050565b6000602082019050818103600083015261094a81610853565b9050919050565b600082825260208201905092915050565b600061096d82610974565b9050919050565b600073ffffffffffffffffffffffffffffffffffffffff82169050919050565b7f5065727046694f776e61626c65557067726164653a2073616d6520617320636160008201527f6e64696461746500000000000000000000000000000000000000000000000000602082015250565b7f5065727046694f776e61626c65557067726164653a206e6f7420746865206e6560008201527f77206f776e657200000000000000000000000000000000000000000000000000602082015250565b7f5065727046694f776e61626c65557067726164653a207a65726f20616464726560008201527f7373000000000000000000000000000000000000000000000000000000000000602082015250565b7f5065727046694f776e61626c65557067726164653a2063616e6469646174652060008201527f6973207a65726f20616464726573730000000000000000000000000000000000602082015250565b7f5065727046694f776e61626c65557067726164653a2063616c6c65722069732060008201527f6e6f7420746865206f776e657200000000000000000000000000000000000000602082015250565b7f5065727046694f776e61626c65557067726164653a2073616d65206173206f7260008201527f6967696e616c0000000000000000000000000000000000000000000000000000602082015250565b610b7781610962565b8114610b8257600080fd5b5056fea2646970667358221220acc35a8ac3b7087ab1e58be8b54d09a63d2b8b6abc814912188f9af7ce73684064736f6c63430008040033",
  "linkReferences": {},
  "deployedLinkReferences": {}
}