{
  "_format": "hh-sol-artifact-1",
  "contractName": "OrderBook",
  "sourceName": "contracts/OrderBook/OrderBook.sol",
  "abi": [
    {
      "anonymous": false,
      "inputs": [
        {
          "indexed": false,
          "internalType": "uint8",
          "name": "version",
          "type": "uint8"
        }
      ],
      "name": "Initialized",
      "type": "event"
    },
    {
      "anonymous": false,
      "inputs": [
        {
          "indexed": true,
          "internalType": "address",
          "name": "previousOwner",
          "type": "address"
        },
        {
          "indexed": true,
          "internalType": "address",
          "name": "newOwner",
          "type": "address"
        }
      ],
      "name": "OwnershipTransferred",
      "type": "event"
    },
    {
      "inputs": [
        {
          "internalType": "uint256",
          "name": "",
          "type": "uint256"
        }
      ],
      "name": "FxPerpetuals",
      "outputs": [
        {
          "internalType": "address",
          "name": "",
          "type": "address"
        }
      ],
      "stateMutability": "view",
      "type": "function"
    },
    {
      "inputs": [
        {
          "internalType": "uint256",
          "name": "",
          "type": "uint256"
        }
      ],
      "name": "Vaults",
      "outputs": [
        {
          "internalType": "address",
          "name": "",
          "type": "address"
        }
      ],
      "stateMutability": "view",
      "type": "function"
    },
    {
      "inputs": [
        {
          "internalType": "address",
          "name": "_perpetual",
          "type": "address"
        },
        {
          "internalType": "address",
          "name": "_vault",
          "type": "address"
        },
        {
          "internalType": "bytes32",
          "name": "_priceFeedKey",
          "type": "bytes32"
        }
      ],
      "name": "addFxPerpetual",
      "outputs": [],
      "stateMutability": "nonpayable",
      "type": "function"
    },
    {
      "inputs": [
        {
          "internalType": "uint256",
          "name": "",
          "type": "uint256"
        }
      ],
      "name": "buyHeads",
      "outputs": [
        {
          "internalType": "uint256",
          "name": "",
          "type": "uint256"
        }
      ],
      "stateMutability": "view",
      "type": "function"
    },
    {
      "inputs": [],
      "name": "buyID",
      "outputs": [
        {
          "internalType": "uint256",
          "name": "",
          "type": "uint256"
        }
      ],
      "stateMutability": "view",
      "type": "function"
    },
    {
      "inputs": [
        {
          "internalType": "uint256",
          "name": "_ID",
          "type": "uint256"
        }
      ],
      "name": "deleteBuy",
      "outputs": [],
      "stateMutability": "nonpayable",
      "type": "function"
    },
    {
      "inputs": [
        {
          "internalType": "uint256",
          "name": "_ID",
          "type": "uint256"
        }
      ],
      "name": "deleteSell",
      "outputs": [],
      "stateMutability": "nonpayable",
      "type": "function"
    },
    {
      "inputs": [
        {
          "internalType": "uint256",
          "name": "_ID",
          "type": "uint256"
        }
      ],
      "name": "getBuy",
      "outputs": [
        {
          "internalType": "address",
          "name": "maker",
          "type": "address"
        },
        {
          "internalType": "uint256",
          "name": "index",
          "type": "uint256"
        },
        {
          "internalType": "uint256",
          "name": "id",
          "type": "uint256"
        },
        {
          "internalType": "uint256",
          "name": "price",
          "type": "uint256"
        },
        {
          "internalType": "uint256",
          "name": "volume",
          "type": "uint256"
        },
        {
          "internalType": "uint256",
          "name": "next",
          "type": "uint256"
        },
        {
          "internalType": "uint256",
          "name": "prev",
          "type": "uint256"
        }
      ],
      "stateMutability": "view",
      "type": "function"
    },
    {
      "inputs": [
        {
          "internalType": "uint256",
          "name": "_tokenIndex",
          "type": "uint256"
        }
      ],
      "name": "getBuyHead",
      "outputs": [
        {
          "internalType": "uint256",
          "name": "",
          "type": "uint256"
        }
      ],
      "stateMutability": "view",
      "type": "function"
    },
    {
      "inputs": [
        {
          "internalType": "uint256",
          "name": "_tokenIndex",
          "type": "uint256"
        }
      ],
      "name": "getOpenBuyOrders",
      "outputs": [
        {
          "internalType": "uint256",
          "name": "",
          "type": "uint256"
        }
      ],
      "stateMutability": "view",
      "type": "function"
    },
    {
      "inputs": [
        {
          "internalType": "uint256",
          "name": "_tokenIndex",
          "type": "uint256"
        }
      ],
      "name": "getOpenSellOrders",
      "outputs": [
        {
          "internalType": "uint256",
          "name": "",
          "type": "uint256"
        }
      ],
      "stateMutability": "view",
      "type": "function"
    },
    {
      "inputs": [
        {
          "internalType": "uint256",
          "name": "_ID",
          "type": "uint256"
        }
      ],
      "name": "getSell",
      "outputs": [
        {
          "internalType": "address",
          "name": "maker",
          "type": "address"
        },
        {
          "internalType": "uint256",
          "name": "index",
          "type": "uint256"
        },
        {
          "internalType": "uint256",
          "name": "id",
          "type": "uint256"
        },
        {
          "internalType": "uint256",
          "name": "price",
          "type": "uint256"
        },
        {
          "internalType": "uint256",
          "name": "volume",
          "type": "uint256"
        },
        {
          "internalType": "uint256",
          "name": "next",
          "type": "uint256"
        },
        {
          "internalType": "uint256",
          "name": "prev",
          "type": "uint256"
        }
      ],
      "stateMutability": "view",
      "type": "function"
    },
    {
      "inputs": [
        {
          "internalType": "uint256",
          "name": "_tokenIndex",
          "type": "uint256"
        }
      ],
      "name": "getSellHead",
      "outputs": [
        {
          "internalType": "uint256",
          "name": "",
          "type": "uint256"
        }
      ],
      "stateMutability": "view",
      "type": "function"
    },
    {
      "inputs": [
        {
          "internalType": "address[]",
          "name": "_FxPerpetuals",
          "type": "address[]"
        },
        {
          "internalType": "address[]",
          "name": "_Vaults",
          "type": "address[]"
        },
        {
          "internalType": "bytes32[]",
          "name": "_priceFeedKeys",
          "type": "bytes32[]"
        },
        {
          "internalType": "address",
          "name": "_USD",
          "type": "address"
        },
        {
          "internalType": "address",
          "name": "_Oracle",
          "type": "address"
        }
      ],
      "name": "initialize",
      "outputs": [],
      "stateMutability": "nonpayable",
      "type": "function"
    },
    {
      "inputs": [
        {
          "internalType": "uint256",
          "name": "",
          "type": "uint256"
        }
      ],
      "name": "lastCumulativePriceUpdate",
      "outputs": [
        {
          "internalType": "uint256",
          "name": "",
          "type": "uint256"
        }
      ],
      "stateMutability": "view",
      "type": "function"
    },
    {
      "inputs": [
        {
          "internalType": "uint256",
          "name": "",
          "type": "uint256"
        }
      ],
      "name": "lastPriceCumulative",
      "outputs": [
        {
          "internalType": "uint256",
          "name": "",
          "type": "uint256"
        }
      ],
      "stateMutability": "view",
      "type": "function"
    },
    {
      "inputs": [
        {
          "internalType": "uint256",
          "name": "_tokenIndex",
          "type": "uint256"
        },
        {
          "internalType": "uint256",
          "name": "_price",
          "type": "uint256"
        },
        {
          "internalType": "uint256",
          "name": "_volume",
          "type": "uint256"
        },
        {
          "internalType": "uint256",
          "name": "_targetInsertion",
          "type": "uint256"
        }
      ],
      "name": "limitBuy",
      "outputs": [],
      "stateMutability": "nonpayable",
      "type": "function"
    },
    {
      "inputs": [
        {
          "internalType": "uint256",
          "name": "_tokenIndex",
          "type": "uint256"
        },
        {
          "internalType": "uint256",
          "name": "_price",
          "type": "uint256"
        },
        {
          "internalType": "uint256",
          "name": "_volume",
          "type": "uint256"
        },
        {
          "internalType": "uint256",
          "name": "_targetInsertion",
          "type": "uint256"
        }
      ],
      "name": "limitSell",
      "outputs": [],
      "stateMutability": "nonpayable",
      "type": "function"
    },
    {
      "inputs": [
        {
          "internalType": "uint256",
          "name": "_tokenIndex",
          "type": "uint256"
        },
        {
          "internalType": "uint256",
          "name": "_maxPrice",
          "type": "uint256"
        },
        {
          "internalType": "uint256",
          "name": "_volume",
          "type": "uint256"
        }
      ],
      "name": "marketBuy",
      "outputs": [
        {
          "internalType": "uint256",
          "name": "",
          "type": "uint256"
        }
      ],
      "stateMutability": "nonpayable",
      "type": "function"
    },
    {
      "inputs": [
        {
          "internalType": "uint256",
          "name": "_tokenIndex",
          "type": "uint256"
        },
        {
          "internalType": "uint256",
          "name": "_minPrice",
          "type": "uint256"
        },
        {
          "internalType": "uint256",
          "name": "_volume",
          "type": "uint256"
        }
      ],
      "name": "marketSell",
      "outputs": [
        {
          "internalType": "uint256",
          "name": "",
          "type": "uint256"
        }
      ],
      "stateMutability": "nonpayable",
      "type": "function"
    },
    {
      "inputs": [
        {
          "internalType": "uint256",
          "name": "",
          "type": "uint256"
        }
      ],
      "name": "openBuyOrders",
      "outputs": [
        {
          "internalType": "uint256",
          "name": "",
          "type": "uint256"
        }
      ],
      "stateMutability": "view",
      "type": "function"
    },
    {
      "inputs": [
        {
          "internalType": "uint256",
          "name": "",
          "type": "uint256"
        }
      ],
      "name": "openSellOrders",
      "outputs": [
        {
          "internalType": "uint256",
          "name": "",
          "type": "uint256"
        }
      ],
      "stateMutability": "view",
      "type": "function"
    },
    {
      "inputs": [],
      "name": "owner",
      "outputs": [
        {
          "internalType": "address",
          "name": "",
          "type": "address"
        }
      ],
      "stateMutability": "view",
      "type": "function"
    },
    {
      "inputs": [
        {
          "internalType": "uint256",
          "name": "",
          "type": "uint256"
        }
      ],
      "name": "priceCumulative",
      "outputs": [
        {
          "internalType": "uint256",
          "name": "",
          "type": "uint256"
        }
      ],
      "stateMutability": "view",
      "type": "function"
    },
    {
      "inputs": [],
      "name": "renounceOwnership",
      "outputs": [],
      "stateMutability": "nonpayable",
      "type": "function"
    },
    {
      "inputs": [
        {
          "internalType": "uint256",
          "name": "",
          "type": "uint256"
        }
      ],
      "name": "sellHeads",
      "outputs": [
        {
          "internalType": "uint256",
          "name": "",
          "type": "uint256"
        }
      ],
      "stateMutability": "view",
      "type": "function"
    },
    {
      "inputs": [],
      "name": "sellID",
      "outputs": [
        {
          "internalType": "uint256",
          "name": "",
          "type": "uint256"
        }
      ],
      "stateMutability": "view",
      "type": "function"
    },
    {
      "inputs": [
        {
          "internalType": "uint256",
          "name": "",
          "type": "uint256"
        }
      ],
      "name": "totalPriceDataPoints",
      "outputs": [
        {
          "internalType": "uint256",
          "name": "",
          "type": "uint256"
        }
      ],
      "stateMutability": "view",
      "type": "function"
    },
    {
      "inputs": [
        {
          "internalType": "address",
          "name": "newOwner",
          "type": "address"
        }
      ],
      "name": "transferOwnership",
      "outputs": [],
      "stateMutability": "nonpayable",
      "type": "function"
    }
  ],
  "bytecode": "0x608060405234801561001057600080fd5b506149f8806100206000396000f3fe608060405234801561001057600080fd5b50600436106101cf5760003560e01c80638da5cb5b11610104578063c146ce0a116100a2578063dde4a70b11610071578063dde4a70b146105c4578063f0768cf7146105fa578063f2fde38b14610616578063f32a547c14610632576101cf565b8063c146ce0a14610504578063c2b422d014610534578063c8ccd72714610564578063d6d423d814610594576101cf565b80639ff1549c116100de5780639ff1549c14610458578063a813643c14610474578063affb21a3146104a4578063b55e0912146104d4576101cf565b80638da5cb5b146103ec57806393a7215e1461040a5780639a699d4a14610428576101cf565b806359d5445b116101715780636ba755ef1161014b5780636ba755ef146103665780636f41e8c214610382578063715018a6146103b25780637d9c5d4c146103bc576101cf565b806359d5445b146102ea5780635aca8415146103065780635c285acb14610336576101cf565b80633c8e5d44116101ad5780633c8e5d441461025057806344e9887b14610280578063476d4f3f1461029e5780635091bf94146102ce576101cf565b8063173c719a146101d45780631bed7a81146101f057806335460d9214610220575b600080fd5b6101ee60048036038101906101e99190613eb8565b610668565b005b61020a60048036038101906102059190613fa0565b6107ef565b604051610217919061416c565b60405180910390f35b61023a60048036038101906102359190613fa0565b61082e565b6040516102479190614343565b60405180910390f35b61026a60048036038101906102659190613ff2565b610846565b6040516102779190614343565b60405180910390f35b610288610e07565b6040516102959190614343565b60405180910390f35b6102b860048036038101906102b39190613fa0565b610e0d565b6040516102c59190614343565b60405180910390f35b6102e860048036038101906102e39190613e69565b610e25565b005b61030460048036038101906102ff9190613fa0565b610f95565b005b610320600480360381019061031b9190613fa0565b611117565b60405161032d919061416c565b60405180910390f35b610350600480360381019061034b9190613fa0565b611156565b60405161035d9190614343565b60405180910390f35b610380600480360381019061037b9190614041565b61116e565b005b61039c60048036038101906103979190613fa0565b611a37565b6040516103a99190614343565b60405180910390f35b6103ba611a54565b005b6103d660048036038101906103d19190613fa0565b611adc565b6040516103e39190614343565b60405180910390f35b6103f4611af9565b604051610401919061416c565b60405180910390f35b610412611b23565b60405161041f9190614343565b60405180910390f35b610442600480360381019061043d9190613fa0565b611b29565b60405161044f9190614343565b60405180910390f35b610472600480360381019061046d9190613fa0565b611b41565b005b61048e60048036038101906104899190613fa0565b611cdf565b60405161049b9190614343565b60405180910390f35b6104be60048036038101906104b99190613fa0565b611cf7565b6040516104cb9190614343565b60405180910390f35b6104ee60048036038101906104e99190613ff2565b611d14565b6040516104fb9190614343565b60405180910390f35b61051e60048036038101906105199190613fa0565b61228d565b60405161052b9190614343565b60405180910390f35b61054e60048036038101906105499190613fa0565b6122a5565b60405161055b9190614343565b60405180910390f35b61057e60048036038101906105799190613fa0565b6122bd565b60405161058b9190614343565b60405180910390f35b6105ae60048036038101906105a99190613fa0565b6122da565b6040516105bb9190614343565b60405180910390f35b6105de60048036038101906105d99190613fa0565b6122f2565b6040516105f19796959493929190614210565b60405180910390f35b610614600480360381019061060f9190614041565b6123ed565b005b610630600480360381019061062b9190613e40565b612cd7565b005b61064c60048036038101906106479190613fa0565b612dcf565b60405161065f9796959493929190614210565b60405180910390f35b60006106746001612eca565b90508015610698576001600060016101000a81548160ff0219169083151502179055505b85606790805190602001906106ae929190613b9a565b5084606890805190602001906106c5929190613b9a565b5083607190805190602001906106dc929190613c24565b5082606560006101000a81548173ffffffffffffffffffffffffffffffffffffffff021916908373ffffffffffffffffffffffffffffffffffffffff16021790555081606660006101000a81548173ffffffffffffffffffffffffffffffffffffffff021916908373ffffffffffffffffffffffffffffffffffffffff160217905550670de0b6b3a7640000607481905550610e1060768190555060186077819055504260758190555061078e612fba565b80156107e75760008060016101000a81548160ff0219169083151502179055507f7f26b83ff96e1f2b6a682f133852f6798a09c465da95921460cefb384740249860016040516107de91906142a8565b60405180910390a15b505050505050565b606781815481106107ff57600080fd5b906000526020600020016000915054906101000a900473ffffffffffffffffffffffffffffffffffffffff1681565b606a6020528060005260406000206000915090505481565b60008060678581548110610883577f4e487b7100000000000000000000000000000000000000000000000000000000600052603260045260246000fd5b9060005260206000200160009054906101000a900473ffffffffffffffffffffffffffffffffffffffff1690506108d76074546108c9858761301390919063ffffffff16565b61302990919063ffffffff16565b606560009054906101000a900473ffffffffffffffffffffffffffffffffffffffff1673ffffffffffffffffffffffffffffffffffffffff1663dd62ed3e33306040518363ffffffff1660e01b8152600401610934929190614187565b60206040518083038186803b15801561094c57600080fd5b505afa158015610960573d6000803e3d6000fd5b505050506040513d601f19601f820116820180604052508101906109849190613fc9565b101561098f57600080fd5b6000606c600087815260200190815260200160002054116109af57600080fd5b6000606a60008781526020019081526020016000205490505b6000841180156109ee575084607960008381526020019081526020016000206003015411155b80156109fb575060008114155b15610dfa57600060796000838152602001908152602001600020905084816004015410610c2f57606560009054906101000a900473ffffffffffffffffffffffffffffffffffffffff1673ffffffffffffffffffffffffffffffffffffffff166323b872dd338360000160009054906101000a900473ffffffffffffffffffffffffffffffffffffffff16610ab1607454610aa387600301548c61301390919063ffffffff16565b61302990919063ffffffff16565b6040518463ffffffff1660e01b8152600401610acf939291906141b0565b602060405180830381600087803b158015610ae957600080fd5b505af1158015610afd573d6000803e3d6000fd5b505050506040513d601f19601f82011682018060405250810190610b219190613f77565b508273ffffffffffffffffffffffffffffffffffffffff1663a9059cbb33876040518363ffffffff1660e01b8152600401610b5d9291906141e7565b602060405180830381600087803b158015610b7757600080fd5b505af1158015610b8b573d6000803e3d6000fd5b505050506040513d601f19601f82011682018060405250810190610baf9190613f77565b50610bc785826004015461303f90919063ffffffff16565b8160040181905550610bf6601e607060008a81526020019081526020016000205461305590919063ffffffff16565b421115610c0c57610c0b87826003015461306b565b5b600081600401541415610c2357610c2282613113565b5b60009350505050610e00565b606560009054906101000a900473ffffffffffffffffffffffffffffffffffffffff1673ffffffffffffffffffffffffffffffffffffffff166323b872dd338360000160009054906101000a900473ffffffffffffffffffffffffffffffffffffffff16610cc2607454610cb48760030154886004015461301390919063ffffffff16565b61302990919063ffffffff16565b6040518463ffffffff1660e01b8152600401610ce0939291906141b0565b602060405180830381600087803b158015610cfa57600080fd5b505af1158015610d0e573d6000803e3d6000fd5b505050506040513d601f19601f82011682018060405250810190610d329190613f77565b508273ffffffffffffffffffffffffffffffffffffffff1663a9059cbb3383600401546040518363ffffffff1660e01b8152600401610d729291906141e7565b602060405180830381600087803b158015610d8c57600080fd5b505af1158015610da0573d6000803e3d6000fd5b505050506040513d601f19601f82011682018060405250810190610dc49190613f77565b50610ddc81600401548661303f90919063ffffffff16565b9450600082905081600501549250610df381613113565b50506109c8565b83925050505b9392505050565b60735481565b60696020528060005260406000206000915090505481565b610e2d6132eb565b73ffffffffffffffffffffffffffffffffffffffff16610e4b611af9565b73ffffffffffffffffffffffffffffffffffffffff1614610ea1576040517f08c379a0000000000000000000000000000000000000000000000000000000008152600401610e9890614303565b60405180910390fd5b6067839080600181540180825580915050600190039060005260206000200160009091909190916101000a81548173ffffffffffffffffffffffffffffffffffffffff021916908373ffffffffffffffffffffffffffffffffffffffff1602179055506068829080600181540180825580915050600190039060005260206000200160009091909190916101000a81548173ffffffffffffffffffffffffffffffffffffffff021916908373ffffffffffffffffffffffffffffffffffffffff1602179055506071819080600181540180825580915050600190039060005260206000200160009091909190915055505050565b6000610fea607454610fdc6078600086815260200190815260200160002060030154607860008781526020019081526020016000206004015461301390919063ffffffff16565b61302990919063ffffffff16565b9050606560009054906101000a900473ffffffffffffffffffffffffffffffffffffffff1673ffffffffffffffffffffffffffffffffffffffff1663a9059cbb33836040518363ffffffff1660e01b81526004016110499291906141e7565b602060405180830381600087803b15801561106357600080fd5b505af1158015611077573d6000803e3d6000fd5b505050506040513d601f19601f8201168201806040525081019061109b9190613f77565b506078600083815260200190815260200160002060000160009054906101000a900473ffffffffffffffffffffffffffffffffffffffff1673ffffffffffffffffffffffffffffffffffffffff163373ffffffffffffffffffffffffffffffffffffffff161461110a57600080fd5b611113826132f3565b5050565b6068818154811061112757600080fd5b906000526020600020016000915054906101000a900473ffffffffffffffffffffffffffffffffffffffff1681565b606c6020528060005260406000206000915090505481565b6000606785815481106111aa577f4e487b7100000000000000000000000000000000000000000000000000000000600052603260045260246000fd5b9060005260206000200160009054906101000a900473ffffffffffffffffffffffffffffffffffffffff169050600080606b60008881526020019081526020016000205411156112a6576111ff868686611d14565b90506000811415611211575050611a31565b8173ffffffffffffffffffffffffffffffffffffffff166323b872dd3330846040518463ffffffff1660e01b815260040161124e939291906141b0565b602060405180830381600087803b15801561126857600080fd5b505af115801561127c573d6000803e3d6000fd5b505050506040513d601f19601f820116820180604052508101906112a09190613f77565b50611337565b8173ffffffffffffffffffffffffffffffffffffffff166323b872dd3330876040518463ffffffff1660e01b81526004016112e3939291906141b0565b602060405180830381600087803b1580156112fd57600080fd5b505af1158015611311573d6000803e3d6000fd5b505050506040513d601f19601f820116820180604052508101906113359190613f77565b505b6073600081548092919061134a90614769565b919050555060006040518060e001604052803373ffffffffffffffffffffffffffffffffffffffff16815260200188815260200160735481526020018781526020016000841461139a578361139c565b865b815260200160008152602001600081525090508060796000607354815260200190815260200160002060008201518160000160006101000a81548173ffffffffffffffffffffffffffffffffffffffff021916908373ffffffffffffffffffffffffffffffffffffffff1602179055506020820151816001015560408201518160020155606082015181600301556080820151816004015560a0820151816005015560c082015181600601559050506000606c60008981526020019081526020016000205414156114b257607354606a600089815260200190815260200160002081905550606c600088815260200190815260200160002060008154809291906114a590614769565b9190505550505050611a31565b600060796000606a60008b8152602001908152602001600020548152602001908152602001600020905080600301548710156115ed578160400151606a60008a81526020019081526020016000208190555080600201548260a001818152505081604001518160060181905550606c6000898152602001908152602001600020600081548092919061154390614769565b91905055508160796000607354815260200190815260200160002060008201518160000160006101000a81548173ffffffffffffffffffffffffffffffffffffffff021916908373ffffffffffffffffffffffffffffffffffffffff1602179055506020820151816001015560408201518160020155606082015181600301556080820151816004015560a0820151816005015560c0820151816006015590505050505050611a31565b60008160050154905060008114156116e9578260400151826005018190555081600201548360c0018181525050606c60008a8152602001908152602001600020600081548092919061163e90614769565b91905055508260796000607354815260200190815260200160002060008201518160000160006101000a81548173ffffffffffffffffffffffffffffffffffffffff021916908373ffffffffffffffffffffffffffffffffffffffff1602179055506020820151816001015560408201518160020155606082015181600301556080820151816004015560a0820151816005015560c082015181600601559050505050505050611a31565b8860796000888152602001908152602001600020600101541480156117235750876079600088815260200190815260200160002060030154105b801561174657506000607960008881526020019081526020016000206004015414155b1561174f578590505b5b87607960008381526020019081526020016000206003015410156117b057600060796000838152602001908152602001600020600501541415611792576117b0565b60796000828152602001908152602001600020600501549050611750565b600060796000838152602001908152602001600020600501541480156117eb5750876079600083815260200190815260200160002060030154105b156118e85782604001516079600083815260200190815260200160002060050181905550808360c0018181525050606c60008a8152602001908152602001600020600081548092919061183d90614769565b91905055508260796000607354815260200190815260200160002060008201518160000160006101000a81548173ffffffffffffffffffffffffffffffffffffffff021916908373ffffffffffffffffffffffffffffffffffffffff1602179055506020820151816001015560408201518160020155606082015181600301556080820151816004015560a0820151816005015560c082015181600601559050505050505050611a31565b826040015160796000607960008581526020019081526020016000206006015481526020019081526020016000206005018190555060796000828152602001908152602001600020600601548360c0018181525050808360a001818152505082604001516079600083815260200190815260200160002060060181905550606c60008a8152602001908152602001600020600081548092919061198a90614769565b91905055508260796000607354815260200190815260200160002060008201518160000160006101000a81548173ffffffffffffffffffffffffffffffffffffffff021916908373ffffffffffffffffffffffffffffffffffffffff1602179055506020820151816001015560408201518160020155606082015181600301556080820151816004015560a0820151816005015560c0820151816006015590505050505050505b50505050565b6000606c6000838152602001908152602001600020549050919050565b611a5c6132eb565b73ffffffffffffffffffffffffffffffffffffffff16611a7a611af9565b73ffffffffffffffffffffffffffffffffffffffff1614611ad0576040517f08c379a0000000000000000000000000000000000000000000000000000000008152600401611ac790614303565b60405180910390fd5b611ada60006134cb565b565b6000606b6000838152602001908152602001600020549050919050565b6000603360009054906101000a900473ffffffffffffffffffffffffffffffffffffffff16905090565b60725481565b606e6020528060005260406000206000915090505481565b60006067607960008481526020019081526020016000206001015481548110611b93577f4e487b7100000000000000000000000000000000000000000000000000000000600052603260045260246000fd5b9060005260206000200160009054906101000a900473ffffffffffffffffffffffffffffffffffffffff1690508073ffffffffffffffffffffffffffffffffffffffff1663a9059cbb3360796000868152602001908152602001600020600401546040518363ffffffff1660e01b8152600401611c119291906141e7565b602060405180830381600087803b158015611c2b57600080fd5b505af1158015611c3f573d6000803e3d6000fd5b505050506040513d601f19601f82011682018060405250810190611c639190613f77565b506079600083815260200190815260200160002060000160009054906101000a900473ffffffffffffffffffffffffffffffffffffffff1673ffffffffffffffffffffffffffffffffffffffff163373ffffffffffffffffffffffffffffffffffffffff1614611cd257600080fd5b611cdb82613113565b5050565b606d6020528060005260406000206000915090505481565b600060696000838152602001908152602001600020549050919050565b60008060678581548110611d51577f4e487b7100000000000000000000000000000000000000000000000000000000600052603260045260246000fd5b9060005260206000200160009054906101000a900473ffffffffffffffffffffffffffffffffffffffff169050828173ffffffffffffffffffffffffffffffffffffffff1663dd62ed3e33306040518363ffffffff1660e01b8152600401611dba929190614187565b60206040518083038186803b158015611dd257600080fd5b505afa158015611de6573d6000803e3d6000fd5b505050506040513d601f19601f82011682018060405250810190611e0a9190613fc9565b1015611e1557600080fd5b6000606b60008781526020019081526020016000205411611e3557600080fd5b6000606960008781526020019081526020016000205490505b600084118015611e74575084607860008381526020019081526020016000206003015410155b8015611e81575060008114155b15612280576000607860008381526020019081526020016000209050848160040154106120b557606560009054906101000a900473ffffffffffffffffffffffffffffffffffffffff1673ffffffffffffffffffffffffffffffffffffffff1663a9059cbb33611f12607454611f0486600301548b61301390919063ffffffff16565b61302990919063ffffffff16565b6040518363ffffffff1660e01b8152600401611f2f9291906141e7565b602060405180830381600087803b158015611f4957600080fd5b505af1158015611f5d573d6000803e3d6000fd5b505050506040513d601f19601f82011682018060405250810190611f819190613f77565b508273ffffffffffffffffffffffffffffffffffffffff166323b872dd338360000160009054906101000a900473ffffffffffffffffffffffffffffffffffffffff16886040518463ffffffff1660e01b8152600401611fe3939291906141b0565b602060405180830381600087803b158015611ffd57600080fd5b505af1158015612011573d6000803e3d6000fd5b505050506040513d601f19601f820116820180604052508101906120359190613f77565b5061204d85826004015461303f90919063ffffffff16565b816004018190555061207c601e607060008a81526020019081526020016000205461305590919063ffffffff16565b4211156120925761209187826003015461306b565b5b6000816004015414156120a9576120a8826132f3565b5b60009350505050612286565b606560009054906101000a900473ffffffffffffffffffffffffffffffffffffffff1673ffffffffffffffffffffffffffffffffffffffff1663a9059cbb336121236074546121158660030154876004015461301390919063ffffffff16565b61302990919063ffffffff16565b6040518363ffffffff1660e01b81526004016121409291906141e7565b602060405180830381600087803b15801561215a57600080fd5b505af115801561216e573d6000803e3d6000fd5b505050506040513d601f19601f820116820180604052508101906121929190613f77565b508273ffffffffffffffffffffffffffffffffffffffff166323b872dd338360000160009054906101000a900473ffffffffffffffffffffffffffffffffffffffff1684600401546040518463ffffffff1660e01b81526004016121f8939291906141b0565b602060405180830381600087803b15801561221257600080fd5b505af1158015612226573d6000803e3d6000fd5b505050506040513d601f19601f8201168201806040525081019061224a9190613f77565b5061226281600401548661303f90919063ffffffff16565b9450600082905081600501549250612279816132f3565b5050611e4e565b83925050505b9392505050565b60706020528060005260406000206000915090505481565b606f6020528060005260406000206000915090505481565b6000606a6000838152602001908152602001600020549050919050565b606b6020528060005260406000206000915090505481565b600080600080600080600080607960008a81526020019081526020016000206040518060e00160405290816000820160009054906101000a900473ffffffffffffffffffffffffffffffffffffffff1673ffffffffffffffffffffffffffffffffffffffff1673ffffffffffffffffffffffffffffffffffffffff16815260200160018201548152602001600282015481526020016003820154815260200160048201548152602001600582015481526020016006820154815250509050806000015181602001518260400151836060015184608001518560a001518660c00151975097509750975097509750975050919395979092949650565b600080606c600087815260200190815260200160002054111561250357612415858585610846565b905060008114156124265750612cd1565b606560009054906101000a900473ffffffffffffffffffffffffffffffffffffffff1673ffffffffffffffffffffffffffffffffffffffff166323b872dd333061248d60745461247f8a8861301390919063ffffffff16565b61302990919063ffffffff16565b6040518463ffffffff1660e01b81526004016124ab939291906141b0565b602060405180830381600087803b1580156124c557600080fd5b505af11580156124d9573d6000803e3d6000fd5b505050506040513d601f19601f820116820180604052508101906124fd9190613f77565b506125dc565b606560009054906101000a900473ffffffffffffffffffffffffffffffffffffffff1673ffffffffffffffffffffffffffffffffffffffff166323b872dd333061256a60745461255c8a8a61301390919063ffffffff16565b61302990919063ffffffff16565b6040518463ffffffff1660e01b8152600401612588939291906141b0565b602060405180830381600087803b1580156125a257600080fd5b505af11580156125b6573d6000803e3d6000fd5b505050506040513d601f19601f820116820180604052508101906125da9190613f77565b505b607260008154809291906125ef90614769565b919050555060006040518060e001604052803373ffffffffffffffffffffffffffffffffffffffff16815260200187815260200160725481526020018681526020016000841461263f5783612641565b855b815260200160008152602001600081525090508060786000607254815260200190815260200160002060008201518160000160006101000a81548173ffffffffffffffffffffffffffffffffffffffff021916908373ffffffffffffffffffffffffffffffffffffffff1602179055506020820151816001015560408201518160020155606082015181600301556080820151816004015560a0820151816005015560c082015181600601559050506000606b6000888152602001908152602001600020541415612756576072546069600088815260200190815260200160002081905550606b6000878152602001908152602001600020600081548092919061274a90614769565b91905055505050612cd1565b600060786000606960008a815260200190815260200160002054815260200190815260200160002090508060030154861115612890578160400151606960008981526020019081526020016000208190555080600201548260a001818152505081604001518160060181905550606b600088815260200190815260200160002060008154809291906127e790614769565b91905055508160786000607254815260200190815260200160002060008201518160000160006101000a81548173ffffffffffffffffffffffffffffffffffffffff021916908373ffffffffffffffffffffffffffffffffffffffff1602179055506020820151816001015560408201518160020155606082015181600301556080820151816004015560a0820151816005015560c08201518160060155905050505050612cd1565b600081600501549050600081141561298b578260400151826005018190555081600201548360c0018181525050606b600089815260200190815260200160002060008154809291906128e190614769565b91905055508260786000607254815260200190815260200160002060008201518160000160006101000a81548173ffffffffffffffffffffffffffffffffffffffff021916908373ffffffffffffffffffffffffffffffffffffffff1602179055506020820151816001015560408201518160020155606082015181600301556080820151816004015560a0820151816005015560c0820151816006015590505050505050612cd1565b8760786000878152602001908152602001600020600101541480156129c55750866078600087815260200190815260200160002060030154115b80156129e857506000607860008781526020019081526020016000206004015414155b156129f1578490505b5b8660786000838152602001908152602001600020600301541115612a5257600060786000838152602001908152602001600020600501541415612a3457612a52565b607860008281526020019081526020016000206005015490506129f2565b60006078600083815260200190815260200160002060050154148015612a8d5750866078600083815260200190815260200160002060030154115b15612b895782604001516078600083815260200190815260200160002060050181905550808360c0018181525050606b60008981526020019081526020016000206000815480929190612adf90614769565b91905055508260786000607254815260200190815260200160002060008201518160000160006101000a81548173ffffffffffffffffffffffffffffffffffffffff021916908373ffffffffffffffffffffffffffffffffffffffff1602179055506020820151816001015560408201518160020155606082015181600301556080820151816004015560a0820151816005015560c0820151816006015590505050505050612cd1565b826040015160786000607860008581526020019081526020016000206006015481526020019081526020016000206005018190555060786000828152602001908152602001600020600601548360c0018181525050808360a001818152505082604001516078600083815260200190815260200160002060060181905550606b60008981526020019081526020016000206000815480929190612c2b90614769565b91905055508260786000607254815260200190815260200160002060008201518160000160006101000a81548173ffffffffffffffffffffffffffffffffffffffff021916908373ffffffffffffffffffffffffffffffffffffffff1602179055506020820151816001015560408201518160020155606082015181600301556080820151816004015560a0820151816005015560c08201518160060155905050505050505b50505050565b612cdf6132eb565b73ffffffffffffffffffffffffffffffffffffffff16612cfd611af9565b73ffffffffffffffffffffffffffffffffffffffff1614612d53576040517f08c379a0000000000000000000000000000000000000000000000000000000008152600401612d4a90614303565b60405180910390fd5b600073ffffffffffffffffffffffffffffffffffffffff168173ffffffffffffffffffffffffffffffffffffffff161415612dc3576040517f08c379a0000000000000000000000000000000000000000000000000000000008152600401612dba906142c3565b60405180910390fd5b612dcc816134cb565b50565b600080600080600080600080607860008a81526020019081526020016000206040518060e00160405290816000820160009054906101000a900473ffffffffffffffffffffffffffffffffffffffff1673ffffffffffffffffffffffffffffffffffffffff1673ffffffffffffffffffffffffffffffffffffffff16815260200160018201548152602001600282015481526020016003820154815260200160048201548152602001600582015481526020016006820154815250509050806000015181602001518260400151836060015184608001518560a001518660c00151975097509750975097509750975050919395979092949650565b60008060019054906101000a900460ff1615612f415760018260ff16148015612ef95750612ef730613591565b155b612f38576040517f08c379a0000000000000000000000000000000000000000000000000000000008152600401612f2f906142e3565b60405180910390fd5b60009050612fb5565b8160ff1660008054906101000a900460ff1660ff1610612f96576040517f08c379a0000000000000000000000000000000000000000000000000000000008152600401612f8d906142e3565b60405180910390fd5b816000806101000a81548160ff021916908360ff160217905550600190505b919050565b600060019054906101000a900460ff16613009576040517f08c379a000000000000000000000000000000000000000000000000000000000815260040161300090614323565b60405180910390fd5b6130116135b4565b565b600081836130219190614571565b905092915050565b600081836130379190614540565b905092915050565b6000818361304d919061465f565b905092915050565b600081836130639190614480565b905092915050565b61308260765460755461305590919063ffffffff16565b421061309157613090613615565b5b6130b781606d60008581526020019081526020016000205461305590919063ffffffff16565b606d600084815260200190815260200160002081905550606f600083815260200190815260200160002060008154809291906130f290614769565b91905055504260706000848152602001908152602001600020819055505050565b600060796000838152602001908152602001600020600601541415613156576131516079600083815260200190815260200160002060010154613865565b6132e8565b6000607960008381526020019081526020016000206005015414156131ac57600060796000607960008581526020019081526020016000206006015481526020019081526020016000206005018190555061323b565b607960008281526020019081526020016000206005015460796000607960008581526020019081526020016000206006015481526020019081526020016000206005018190555060796000828152602001908152602001600020600601546079600060796000858152602001908152602001600020600501548152602001908152602001600020600601819055505b60796000828152602001908152602001600020600080820160006101000a81549073ffffffffffffffffffffffffffffffffffffffff02191690556001820160009055600282016000905560038201600090556004820160009055600582016000905560068201600090555050606c60006079600084815260200190815260200160002060010154815260200190815260200160002060008154809291906132e29061470e565b91905055505b50565b600033905090565b600060786000838152602001908152602001600020600601541415613336576133316078600083815260200190815260200160002060010154613977565b6134c8565b60006078600083815260200190815260200160002060050154141561338c57600060786000607860008581526020019081526020016000206006015481526020019081526020016000206005018190555061341b565b607860008281526020019081526020016000206005015460786000607860008581526020019081526020016000206006015481526020019081526020016000206005018190555060786000828152602001908152602001600020600601546078600060786000858152602001908152602001600020600501548152602001908152602001600020600601819055505b60786000828152602001908152602001600020600080820160006101000a81549073ffffffffffffffffffffffffffffffffffffffff02191690556001820160009055600282016000905560038201600090556004820160009055600582016000905560068201600090555050606b60006078600084815260200190815260200160002060010154815260200190815260200160002060008154809291906134c29061470e565b91905055505b50565b6000603360009054906101000a900473ffffffffffffffffffffffffffffffffffffffff16905081603360006101000a81548173ffffffffffffffffffffffffffffffffffffffff021916908373ffffffffffffffffffffffffffffffffffffffff1602179055508173ffffffffffffffffffffffffffffffffffffffff168173ffffffffffffffffffffffffffffffffffffffff167f8be0079c531659141344cd1fd0a4f28419497f9722a3daafe3b4186f6b6457e060405160405180910390a35050565b6000808273ffffffffffffffffffffffffffffffffffffffff163b119050919050565b600060019054906101000a900460ff16613603576040517f08c379a00000000000000000000000000000000000000000000000000000000081526004016135fa90614323565b60405180910390fd5b61361361360e6132eb565b6134cb565b565b60005b60688054905081101561386257600061363082613a89565b90506000606660009054906101000a900473ffffffffffffffffffffffffffffffffffffffff1673ffffffffffffffffffffffffffffffffffffffff1663a2173df4607185815481106136ac577f4e487b7100000000000000000000000000000000000000000000000000000000600052603260045260246000fd5b90600052602060002001546076546040518363ffffffff1660e01b81526004016136d792919061427f565b60206040518083038186803b1580156136ef57600080fd5b505afa158015613703573d6000803e3d6000fd5b505050506040513d601f19601f820116820180604052508101906137279190613fc9565b9050600061373e8284613b5890919063ffffffff16565b9050600061375760775483613b6e90919063ffffffff16565b9050600060745490506137738282613b8490919063ffffffff16565b90506000606887815481106137b1577f4e487b7100000000000000000000000000000000000000000000000000000000600052603260045260246000fd5b9060005260206000200160009054906101000a900473ffffffffffffffffffffffffffffffffffffffff1690508073ffffffffffffffffffffffffffffffffffffffff16638f9bf833836040518263ffffffff1660e01b81526004016138179190614343565b600060405180830381600087803b15801561383157600080fd5b505af1158015613845573d6000803e3d6000fd5b50505050505050505050808061385a90614769565b915050613618565b50565b6000606a60008381526020019081526020016000205490506079600082815260200190815260200160002060050154606a600084815260200190815260200160002081905550600060796000607960008581526020019081526020016000206005015481526020019081526020016000206006018190555060796000828152602001908152602001600020600080820160006101000a81549073ffffffffffffffffffffffffffffffffffffffff02191690556001820160009055600282016000905560038201600090556004820160009055600582016000905560068201600090555050606c6000838152602001908152602001600020600081548092919061396e9061470e565b91905055505050565b60006069600083815260200190815260200160002054905060786000828152602001908152602001600020600501546069600084815260200190815260200160002081905550600060786000607860008581526020019081526020016000206005015481526020019081526020016000206006018190555060786000828152602001908152602001600020600080820160006101000a81549073ffffffffffffffffffffffffffffffffffffffff02191690556001820160009055600282016000905560038201600090556004820160009055600582016000905560068201600090555050606b60008381526020019081526020016000206000815480929190613a809061470e565b91905055505050565b600080613ac5606e600085815260200190815260200160002054606d60008681526020019081526020016000205461303f90919063ffffffff16565b90506000613aef606f6000868152602001908152602001600020548361302990919063ffffffff16565b90506000606f6000868152602001908152602001600020819055506000606d600086815260200190815260200160002081905550606d600085815260200190815260200160002054606e6000868152602001908152602001600020819055508092505050919050565b60008183613b6691906145cb565b905092915050565b60008183613b7c91906144d6565b905092915050565b60008183613b9291906143ec565b905092915050565b828054828255906000526020600020908101928215613c13579160200282015b82811115613c125782518260006101000a81548173ffffffffffffffffffffffffffffffffffffffff021916908373ffffffffffffffffffffffffffffffffffffffff16021790555091602001919060010190613bba565b5b509050613c209190613c71565b5090565b828054828255906000526020600020908101928215613c60579160200282015b82811115613c5f578251825591602001919060010190613c44565b5b509050613c6d9190613c8e565b5090565b5b80821115613c8a576000816000905550600101613c72565b5090565b5b80821115613ca7576000816000905550600101613c8f565b5090565b6000613cbe613cb984614383565b61435e565b90508083825260208201905082856020860282011115613cdd57600080fd5b60005b85811015613d0d5781613cf38882613d83565b845260208401935060208301925050600181019050613ce0565b5050509392505050565b6000613d2a613d25846143af565b61435e565b90508083825260208201905082856020860282011115613d4957600080fd5b60005b85811015613d795781613d5f8882613e01565b845260208401935060208301925050600181019050613d4c565b5050509392505050565b600081359050613d9281614966565b92915050565b600082601f830112613da957600080fd5b8135613db9848260208601613cab565b91505092915050565b600082601f830112613dd357600080fd5b8135613de3848260208601613d17565b91505092915050565b600081519050613dfb8161497d565b92915050565b600081359050613e1081614994565b92915050565b600081359050613e25816149ab565b92915050565b600081519050613e3a816149ab565b92915050565b600060208284031215613e5257600080fd5b6000613e6084828501613d83565b91505092915050565b600080600060608486031215613e7e57600080fd5b6000613e8c86828701613d83565b9350506020613e9d86828701613d83565b9250506040613eae86828701613e01565b9150509250925092565b600080600080600060a08688031215613ed057600080fd5b600086013567ffffffffffffffff811115613eea57600080fd5b613ef688828901613d98565b955050602086013567ffffffffffffffff811115613f1357600080fd5b613f1f88828901613d98565b945050604086013567ffffffffffffffff811115613f3c57600080fd5b613f4888828901613dc2565b9350506060613f5988828901613d83565b9250506080613f6a88828901613d83565b9150509295509295909350565b600060208284031215613f8957600080fd5b6000613f9784828501613dec565b91505092915050565b600060208284031215613fb257600080fd5b6000613fc084828501613e16565b91505092915050565b600060208284031215613fdb57600080fd5b6000613fe984828501613e2b565b91505092915050565b60008060006060848603121561400757600080fd5b600061401586828701613e16565b935050602061402686828701613e16565b925050604061403786828701613e16565b9150509250925092565b6000806000806080858703121561405757600080fd5b600061406587828801613e16565b945050602061407687828801613e16565b935050604061408787828801613e16565b925050606061409887828801613e16565b91505092959194509250565b6140ad81614693565b82525050565b6140bc816146b1565b82525050565b6140cb816146fc565b82525050565b60006140de6026836143db565b91506140e982614850565b604082019050919050565b6000614101602e836143db565b915061410c8261489f565b604082019050919050565b60006141246020836143db565b915061412f826148ee565b602082019050919050565b6000614147602b836143db565b915061415282614917565b604082019050919050565b614166816146e5565b82525050565b600060208201905061418160008301846140a4565b92915050565b600060408201905061419c60008301856140a4565b6141a960208301846140a4565b9392505050565b60006060820190506141c560008301866140a4565b6141d260208301856140a4565b6141df604083018461415d565b949350505050565b60006040820190506141fc60008301856140a4565b614209602083018461415d565b9392505050565b600060e082019050614225600083018a6140a4565b614232602083018961415d565b61423f604083018861415d565b61424c606083018761415d565b614259608083018661415d565b61426660a083018561415d565b61427360c083018461415d565b98975050505050505050565b600060408201905061429460008301856140b3565b6142a1602083018461415d565b9392505050565b60006020820190506142bd60008301846140c2565b92915050565b600060208201905081810360008301526142dc816140d1565b9050919050565b600060208201905081810360008301526142fc816140f4565b9050919050565b6000602082019050818103600083015261431c81614117565b9050919050565b6000602082019050818103600083015261433c8161413a565b9050919050565b6000602082019050614358600083018461415d565b92915050565b6000614368614379565b90506143748282614738565b919050565b6000604051905090565b600067ffffffffffffffff82111561439e5761439d614810565b5b602082029050602081019050919050565b600067ffffffffffffffff8211156143ca576143c9614810565b5b602082029050602081019050919050565b600082825260208201905092915050565b60006143f7826146bb565b9150614402836146bb565b9250817f7fffffffffffffffffffffffffffffffffffffffffffffffffffffffffffffff0383136000831215161561443d5761443c6147b2565b5b817f8000000000000000000000000000000000000000000000000000000000000000038312600083121615614475576144746147b2565b5b828201905092915050565b600061448b826146e5565b9150614496836146e5565b9250827fffffffffffffffffffffffffffffffffffffffffffffffffffffffffffffffff038211156144cb576144ca6147b2565b5b828201905092915050565b60006144e1826146bb565b91506144ec836146bb565b9250826144fc576144fb6147e1565b5b600160000383147f800000000000000000000000000000000000000000000000000000000000000083141615614535576145346147b2565b5b828205905092915050565b600061454b826146e5565b9150614556836146e5565b925082614566576145656147e1565b5b828204905092915050565b600061457c826146e5565b9150614587836146e5565b9250817fffffffffffffffffffffffffffffffffffffffffffffffffffffffffffffffff04831182151516156145c0576145bf6147b2565b5b828202905092915050565b60006145d6826146bb565b91506145e1836146bb565b9250827f80000000000000000000000000000000000000000000000000000000000000000182126000841215161561461c5761461b6147b2565b5b827f7fffffffffffffffffffffffffffffffffffffffffffffffffffffffffffffff018213600084121615614654576146536147b2565b5b828203905092915050565b600061466a826146e5565b9150614675836146e5565b925082821015614688576146876147b2565b5b828203905092915050565b600061469e826146c5565b9050919050565b60008115159050919050565b6000819050919050565b6000819050919050565b600073ffffffffffffffffffffffffffffffffffffffff82169050919050565b6000819050919050565b600060ff82169050919050565b6000614707826146ef565b9050919050565b6000614719826146e5565b9150600082141561472d5761472c6147b2565b5b600182039050919050565b6147418261483f565b810181811067ffffffffffffffff821117156147605761475f614810565b5b80604052505050565b6000614774826146e5565b91507fffffffffffffffffffffffffffffffffffffffffffffffffffffffffffffffff8214156147a7576147a66147b2565b5b600182019050919050565b7f4e487b7100000000000000000000000000000000000000000000000000000000600052601160045260246000fd5b7f4e487b7100000000000000000000000000000000000000000000000000000000600052601260045260246000fd5b7f4e487b7100000000000000000000000000000000000000000000000000000000600052604160045260246000fd5b6000601f19601f8301169050919050565b7f4f776e61626c653a206e6577206f776e657220697320746865207a65726f206160008201527f6464726573730000000000000000000000000000000000000000000000000000602082015250565b7f496e697469616c697a61626c653a20636f6e747261637420697320616c72656160008201527f647920696e697469616c697a6564000000000000000000000000000000000000602082015250565b7f4f776e61626c653a2063616c6c6572206973206e6f7420746865206f776e6572600082015250565b7f496e697469616c697a61626c653a20636f6e7472616374206973206e6f74206960008201527f6e697469616c697a696e67000000000000000000000000000000000000000000602082015250565b61496f81614693565b811461497a57600080fd5b50565b614986816146a5565b811461499157600080fd5b50565b61499d816146b1565b81146149a857600080fd5b50565b6149b4816146e5565b81146149bf57600080fd5b5056fea26469706673582212206c0d525a1d3252cd819c1c25f1c86e6e6d3301064158a8a93c6a2243e1b0256064736f6c63430008040033",
  "linkReferences": {},
  "deployedLinkReferences": {}
}