{
  "_format": "hh-sol-artifact-1",
  "contractName": "OrderBook",
  "sourceName": "contracts/OrderBook/OrderBook.sol",
  "abi": [
    {
      "anonymous": false,
      "inputs": [
        {
          "indexed": false,
          "internalType": "uint8",
          "name": "version",
          "type": "uint8"
        }
      ],
      "name": "Initialized",
      "type": "event"
    },
    {
      "anonymous": false,
      "inputs": [
        {
          "indexed": true,
          "internalType": "address",
          "name": "previousOwner",
          "type": "address"
        },
        {
          "indexed": true,
          "internalType": "address",
          "name": "newOwner",
          "type": "address"
        }
      ],
      "name": "OwnershipTransferred",
      "type": "event"
    },
    {
      "inputs": [
        {
          "internalType": "uint256",
          "name": "",
          "type": "uint256"
        }
      ],
      "name": "FxPerpetuals",
      "outputs": [
        {
          "internalType": "address",
          "name": "",
          "type": "address"
        }
      ],
      "stateMutability": "view",
      "type": "function"
    },
    {
      "inputs": [
        {
          "internalType": "uint256",
          "name": "",
          "type": "uint256"
        }
      ],
      "name": "Vaults",
      "outputs": [
        {
          "internalType": "address",
          "name": "",
          "type": "address"
        }
      ],
      "stateMutability": "view",
      "type": "function"
    },
    {
      "inputs": [
        {
          "internalType": "address",
          "name": "_perpetual",
          "type": "address"
        },
        {
          "internalType": "address",
          "name": "_vault",
          "type": "address"
        },
        {
          "internalType": "bytes32",
          "name": "_priceFeedKey",
          "type": "bytes32"
        }
      ],
      "name": "addFxPerpetual",
      "outputs": [],
      "stateMutability": "nonpayable",
      "type": "function"
    },
    {
      "inputs": [
        {
          "internalType": "uint256",
          "name": "",
          "type": "uint256"
        }
      ],
      "name": "buyHeads",
      "outputs": [
        {
          "internalType": "uint256",
          "name": "",
          "type": "uint256"
        }
      ],
      "stateMutability": "view",
      "type": "function"
    },
    {
      "inputs": [],
      "name": "buyID",
      "outputs": [
        {
          "internalType": "uint256",
          "name": "",
          "type": "uint256"
        }
      ],
      "stateMutability": "view",
      "type": "function"
    },
    {
      "inputs": [
        {
          "internalType": "uint256",
          "name": "_ID",
          "type": "uint256"
        }
      ],
      "name": "deleteBuy",
      "outputs": [],
      "stateMutability": "nonpayable",
      "type": "function"
    },
    {
      "inputs": [
        {
          "internalType": "uint256",
          "name": "_ID",
          "type": "uint256"
        }
      ],
      "name": "deleteSell",
      "outputs": [],
      "stateMutability": "nonpayable",
      "type": "function"
    },
    {
      "inputs": [
        {
          "internalType": "uint256",
          "name": "_ID",
          "type": "uint256"
        }
      ],
      "name": "getBuy",
      "outputs": [
        {
          "internalType": "address",
          "name": "maker",
          "type": "address"
        },
        {
          "internalType": "uint256",
          "name": "index",
          "type": "uint256"
        },
        {
          "internalType": "uint256",
          "name": "id",
          "type": "uint256"
        },
        {
          "internalType": "uint256",
          "name": "price",
          "type": "uint256"
        },
        {
          "internalType": "uint256",
          "name": "volume",
          "type": "uint256"
        },
        {
          "internalType": "uint256",
          "name": "next",
          "type": "uint256"
        },
        {
          "internalType": "uint256",
          "name": "prev",
          "type": "uint256"
        }
      ],
      "stateMutability": "view",
      "type": "function"
    },
    {
      "inputs": [
        {
          "internalType": "uint256",
          "name": "_tokenIndex",
          "type": "uint256"
        }
      ],
      "name": "getBuyHead",
      "outputs": [
        {
          "internalType": "uint256",
          "name": "",
          "type": "uint256"
        }
      ],
      "stateMutability": "view",
      "type": "function"
    },
    {
      "inputs": [
        {
          "internalType": "uint256",
          "name": "_tokenIndex",
          "type": "uint256"
        }
      ],
      "name": "getOpenBuyOrders",
      "outputs": [
        {
          "internalType": "uint256",
          "name": "",
          "type": "uint256"
        }
      ],
      "stateMutability": "view",
      "type": "function"
    },
    {
      "inputs": [
        {
          "internalType": "uint256",
          "name": "_tokenIndex",
          "type": "uint256"
        }
      ],
      "name": "getOpenSellOrders",
      "outputs": [
        {
          "internalType": "uint256",
          "name": "",
          "type": "uint256"
        }
      ],
      "stateMutability": "view",
      "type": "function"
    },
    {
      "inputs": [
        {
          "internalType": "uint256",
          "name": "_ID",
          "type": "uint256"
        }
      ],
      "name": "getSell",
      "outputs": [
        {
          "internalType": "address",
          "name": "maker",
          "type": "address"
        },
        {
          "internalType": "uint256",
          "name": "index",
          "type": "uint256"
        },
        {
          "internalType": "uint256",
          "name": "id",
          "type": "uint256"
        },
        {
          "internalType": "uint256",
          "name": "price",
          "type": "uint256"
        },
        {
          "internalType": "uint256",
          "name": "volume",
          "type": "uint256"
        },
        {
          "internalType": "uint256",
          "name": "next",
          "type": "uint256"
        },
        {
          "internalType": "uint256",
          "name": "prev",
          "type": "uint256"
        }
      ],
      "stateMutability": "view",
      "type": "function"
    },
    {
      "inputs": [
        {
          "internalType": "uint256",
          "name": "_tokenIndex",
          "type": "uint256"
        }
      ],
      "name": "getSellHead",
      "outputs": [
        {
          "internalType": "uint256",
          "name": "",
          "type": "uint256"
        }
      ],
      "stateMutability": "view",
      "type": "function"
    },
    {
      "inputs": [
        {
          "internalType": "address[]",
          "name": "_FxPerpetuals",
          "type": "address[]"
        },
        {
          "internalType": "address[]",
          "name": "_Vaults",
          "type": "address[]"
        },
        {
          "internalType": "bytes32[]",
          "name": "_priceFeedKeys",
          "type": "bytes32[]"
        },
        {
          "internalType": "address",
          "name": "_USD",
          "type": "address"
        },
        {
          "internalType": "address",
          "name": "_Oracle",
          "type": "address"
        }
      ],
      "name": "initialize",
      "outputs": [],
      "stateMutability": "nonpayable",
      "type": "function"
    },
    {
      "inputs": [
        {
          "internalType": "uint256",
          "name": "",
          "type": "uint256"
        }
      ],
      "name": "lastCumulativePriceUpdate",
      "outputs": [
        {
          "internalType": "uint256",
          "name": "",
          "type": "uint256"
        }
      ],
      "stateMutability": "view",
      "type": "function"
    },
    {
      "inputs": [
        {
          "internalType": "uint256",
          "name": "",
          "type": "uint256"
        }
      ],
      "name": "lastPriceCumulative",
      "outputs": [
        {
          "internalType": "uint256",
          "name": "",
          "type": "uint256"
        }
      ],
      "stateMutability": "view",
      "type": "function"
    },
    {
      "inputs": [
        {
          "internalType": "uint256",
          "name": "_tokenIndex",
          "type": "uint256"
        },
        {
          "internalType": "uint256",
          "name": "_price",
          "type": "uint256"
        },
        {
          "internalType": "uint256",
          "name": "_volume",
          "type": "uint256"
        },
        {
          "internalType": "uint256",
          "name": "_targetInsertion",
          "type": "uint256"
        }
      ],
      "name": "limitBuy",
      "outputs": [],
      "stateMutability": "nonpayable",
      "type": "function"
    },
    {
      "inputs": [
        {
          "internalType": "uint256",
          "name": "_tokenIndex",
          "type": "uint256"
        },
        {
          "internalType": "uint256",
          "name": "_price",
          "type": "uint256"
        },
        {
          "internalType": "uint256",
          "name": "_volume",
          "type": "uint256"
        },
        {
          "internalType": "uint256",
          "name": "_targetInsertion",
          "type": "uint256"
        }
      ],
      "name": "limitSell",
      "outputs": [],
      "stateMutability": "nonpayable",
      "type": "function"
    },
    {
      "inputs": [
        {
          "internalType": "uint256",
          "name": "_tokenIndex",
          "type": "uint256"
        },
        {
          "internalType": "uint256",
          "name": "_maxPrice",
          "type": "uint256"
        },
        {
          "internalType": "uint256",
          "name": "_volume",
          "type": "uint256"
        }
      ],
      "name": "marketBuy",
      "outputs": [
        {
          "internalType": "uint256",
          "name": "",
          "type": "uint256"
        }
      ],
      "stateMutability": "nonpayable",
      "type": "function"
    },
    {
      "inputs": [
        {
          "internalType": "uint256",
          "name": "_tokenIndex",
          "type": "uint256"
        },
        {
          "internalType": "uint256",
          "name": "_minPrice",
          "type": "uint256"
        },
        {
          "internalType": "uint256",
          "name": "_volume",
          "type": "uint256"
        }
      ],
      "name": "marketSell",
      "outputs": [
        {
          "internalType": "uint256",
          "name": "",
          "type": "uint256"
        }
      ],
      "stateMutability": "nonpayable",
      "type": "function"
    },
    {
      "inputs": [
        {
          "internalType": "uint256",
          "name": "",
          "type": "uint256"
        }
      ],
      "name": "openBuyOrders",
      "outputs": [
        {
          "internalType": "uint256",
          "name": "",
          "type": "uint256"
        }
      ],
      "stateMutability": "view",
      "type": "function"
    },
    {
      "inputs": [
        {
          "internalType": "uint256",
          "name": "",
          "type": "uint256"
        }
      ],
      "name": "openSellOrders",
      "outputs": [
        {
          "internalType": "uint256",
          "name": "",
          "type": "uint256"
        }
      ],
      "stateMutability": "view",
      "type": "function"
    },
    {
      "inputs": [],
      "name": "owner",
      "outputs": [
        {
          "internalType": "address",
          "name": "",
          "type": "address"
        }
      ],
      "stateMutability": "view",
      "type": "function"
    },
    {
      "inputs": [
        {
          "internalType": "uint256",
          "name": "",
          "type": "uint256"
        }
      ],
      "name": "priceCumulative",
      "outputs": [
        {
          "internalType": "uint256",
          "name": "",
          "type": "uint256"
        }
      ],
      "stateMutability": "view",
      "type": "function"
    },
    {
      "inputs": [],
      "name": "renounceOwnership",
      "outputs": [],
      "stateMutability": "nonpayable",
      "type": "function"
    },
    {
      "inputs": [
        {
          "internalType": "uint256",
          "name": "",
          "type": "uint256"
        }
      ],
      "name": "sellHeads",
      "outputs": [
        {
          "internalType": "uint256",
          "name": "",
          "type": "uint256"
        }
      ],
      "stateMutability": "view",
      "type": "function"
    },
    {
      "inputs": [],
      "name": "sellID",
      "outputs": [
        {
          "internalType": "uint256",
          "name": "",
          "type": "uint256"
        }
      ],
      "stateMutability": "view",
      "type": "function"
    },
    {
      "inputs": [
        {
          "internalType": "uint256",
          "name": "",
          "type": "uint256"
        }
      ],
      "name": "totalPriceDataPoints",
      "outputs": [
        {
          "internalType": "uint256",
          "name": "",
          "type": "uint256"
        }
      ],
      "stateMutability": "view",
      "type": "function"
    },
    {
      "inputs": [
        {
          "internalType": "address",
          "name": "newOwner",
          "type": "address"
        }
      ],
      "name": "transferOwnership",
      "outputs": [],
      "stateMutability": "nonpayable",
      "type": "function"
    }
  ],
  "bytecode": "0x608060405234801561001057600080fd5b50614b6e806100206000396000f3fe608060405234801561001057600080fd5b50600436106101cf5760003560e01c80638da5cb5b11610104578063c146ce0a116100a2578063dde4a70b11610071578063dde4a70b146105c4578063f0768cf7146105fa578063f2fde38b14610616578063f32a547c14610632576101cf565b8063c146ce0a14610504578063c2b422d014610534578063c8ccd72714610564578063d6d423d814610594576101cf565b80639ff1549c116100de5780639ff1549c14610458578063a813643c14610474578063affb21a3146104a4578063b55e0912146104d4576101cf565b80638da5cb5b146103ec57806393a7215e1461040a5780639a699d4a14610428576101cf565b806359d5445b116101715780636ba755ef1161014b5780636ba755ef146103665780636f41e8c214610382578063715018a6146103b25780637d9c5d4c146103bc576101cf565b806359d5445b146102ea5780635aca8415146103065780635c285acb14610336576101cf565b80633c8e5d44116101ad5780633c8e5d441461025057806344e9887b14610280578063476d4f3f1461029e5780635091bf94146102ce576101cf565b8063173c719a146101d45780631bed7a81146101f057806335460d9214610220575b600080fd5b6101ee60048036038101906101e9919061402e565b610668565b005b61020a60048036038101906102059190614116565b6107ef565b60405161021791906142e2565b60405180910390f35b61023a60048036038101906102359190614116565b61082e565b60405161024791906144b9565b60405180910390f35b61026a60048036038101906102659190614168565b610846565b60405161027791906144b9565b60405180910390f35b610288610e07565b60405161029591906144b9565b60405180910390f35b6102b860048036038101906102b39190614116565b610e0d565b6040516102c591906144b9565b60405180910390f35b6102e860048036038101906102e39190613fdf565b610e25565b005b61030460048036038101906102ff9190614116565b610f95565b005b610320600480360381019061031b9190614116565b611117565b60405161032d91906142e2565b60405180910390f35b610350600480360381019061034b9190614116565b611156565b60405161035d91906144b9565b60405180910390f35b610380600480360381019061037b91906141b7565b61116e565b005b61039c60048036038101906103979190614116565b611ace565b6040516103a991906144b9565b60405180910390f35b6103ba611aeb565b005b6103d660048036038101906103d19190614116565b611b73565b6040516103e391906144b9565b60405180910390f35b6103f4611b90565b60405161040191906142e2565b60405180910390f35b610412611bba565b60405161041f91906144b9565b60405180910390f35b610442600480360381019061043d9190614116565b611bc0565b60405161044f91906144b9565b60405180910390f35b610472600480360381019061046d9190614116565b611bd8565b005b61048e60048036038101906104899190614116565b611d76565b60405161049b91906144b9565b60405180910390f35b6104be60048036038101906104b99190614116565b611d8e565b6040516104cb91906144b9565b60405180910390f35b6104ee60048036038101906104e99190614168565b611dab565b6040516104fb91906144b9565b60405180910390f35b61051e60048036038101906105199190614116565b612324565b60405161052b91906144b9565b60405180910390f35b61054e60048036038101906105499190614116565b61233c565b60405161055b91906144b9565b60405180910390f35b61057e60048036038101906105799190614116565b612354565b60405161058b91906144b9565b60405180910390f35b6105ae60048036038101906105a99190614116565b612371565b6040516105bb91906144b9565b60405180910390f35b6105de60048036038101906105d99190614116565b612389565b6040516105f19796959493929190614386565b60405180910390f35b610614600480360381019061060f91906141b7565b612484565b005b610630600480360381019061062b9190613fb6565b612e4d565b005b61064c60048036038101906106479190614116565b612f45565b60405161065f9796959493929190614386565b60405180910390f35b60006106746001613040565b90508015610698576001600060016101000a81548160ff0219169083151502179055505b85606790805190602001906106ae929190613d10565b5084606890805190602001906106c5929190613d10565b5082606560006101000a81548173ffffffffffffffffffffffffffffffffffffffff021916908373ffffffffffffffffffffffffffffffffffffffff16021790555081606660006101000a81548173ffffffffffffffffffffffffffffffffffffffff021916908373ffffffffffffffffffffffffffffffffffffffff160217905550836071908051906020019061075e929190613d9a565b50670de0b6b3a7640000607481905550610e1060768190555060186077819055504260758190555061078e613130565b80156107e75760008060016101000a81548160ff0219169083151502179055507f7f26b83ff96e1f2b6a682f133852f6798a09c465da95921460cefb384740249860016040516107de919061441e565b60405180910390a15b505050505050565b606781815481106107ff57600080fd5b906000526020600020016000915054906101000a900473ffffffffffffffffffffffffffffffffffffffff1681565b606a6020528060005260406000206000915090505481565b60008060678581548110610883577f4e487b7100000000000000000000000000000000000000000000000000000000600052603260045260246000fd5b9060005260206000200160009054906101000a900473ffffffffffffffffffffffffffffffffffffffff1690506108d76074546108c9858761318990919063ffffffff16565b61319f90919063ffffffff16565b606560009054906101000a900473ffffffffffffffffffffffffffffffffffffffff1673ffffffffffffffffffffffffffffffffffffffff1663dd62ed3e33306040518363ffffffff1660e01b81526004016109349291906142fd565b60206040518083038186803b15801561094c57600080fd5b505afa158015610960573d6000803e3d6000fd5b505050506040513d601f19601f82011682018060405250810190610984919061413f565b101561098f57600080fd5b6000606c600087815260200190815260200160002054116109af57600080fd5b6000606a60008781526020019081526020016000205490505b6000841180156109ee575084607960008381526020019081526020016000206003015411155b80156109fb575060008114155b15610dfa57600060796000838152602001908152602001600020905084816004015410610c2f57606560009054906101000a900473ffffffffffffffffffffffffffffffffffffffff1673ffffffffffffffffffffffffffffffffffffffff166323b872dd338360000160009054906101000a900473ffffffffffffffffffffffffffffffffffffffff16610ab1607454610aa387600301548c61318990919063ffffffff16565b61319f90919063ffffffff16565b6040518463ffffffff1660e01b8152600401610acf93929190614326565b602060405180830381600087803b158015610ae957600080fd5b505af1158015610afd573d6000803e3d6000fd5b505050506040513d601f19601f82011682018060405250810190610b2191906140ed565b508273ffffffffffffffffffffffffffffffffffffffff1663a9059cbb33876040518363ffffffff1660e01b8152600401610b5d92919061435d565b602060405180830381600087803b158015610b7757600080fd5b505af1158015610b8b573d6000803e3d6000fd5b505050506040513d601f19601f82011682018060405250810190610baf91906140ed565b50610bc78582600401546131b590919063ffffffff16565b8160040181905550610bf6601e607060008a8152602001908152602001600020546131cb90919063ffffffff16565b421115610c0c57610c0b8782600301546131e1565b5b600081600401541415610c2357610c2282613289565b5b60009350505050610e00565b606560009054906101000a900473ffffffffffffffffffffffffffffffffffffffff1673ffffffffffffffffffffffffffffffffffffffff166323b872dd338360000160009054906101000a900473ffffffffffffffffffffffffffffffffffffffff16610cc2607454610cb48760030154886004015461318990919063ffffffff16565b61319f90919063ffffffff16565b6040518463ffffffff1660e01b8152600401610ce093929190614326565b602060405180830381600087803b158015610cfa57600080fd5b505af1158015610d0e573d6000803e3d6000fd5b505050506040513d601f19601f82011682018060405250810190610d3291906140ed565b508273ffffffffffffffffffffffffffffffffffffffff1663a9059cbb3383600401546040518363ffffffff1660e01b8152600401610d7292919061435d565b602060405180830381600087803b158015610d8c57600080fd5b505af1158015610da0573d6000803e3d6000fd5b505050506040513d601f19601f82011682018060405250810190610dc491906140ed565b50610ddc8160040154866131b590919063ffffffff16565b9450600082905081600501549250610df381613289565b50506109c8565b83925050505b9392505050565b60735481565b60696020528060005260406000206000915090505481565b610e2d613461565b73ffffffffffffffffffffffffffffffffffffffff16610e4b611b90565b73ffffffffffffffffffffffffffffffffffffffff1614610ea1576040517f08c379a0000000000000000000000000000000000000000000000000000000008152600401610e9890614479565b60405180910390fd5b6067839080600181540180825580915050600190039060005260206000200160009091909190916101000a81548173ffffffffffffffffffffffffffffffffffffffff021916908373ffffffffffffffffffffffffffffffffffffffff1602179055506068829080600181540180825580915050600190039060005260206000200160009091909190916101000a81548173ffffffffffffffffffffffffffffffffffffffff021916908373ffffffffffffffffffffffffffffffffffffffff1602179055506071819080600181540180825580915050600190039060005260206000200160009091909190915055505050565b6000610fea607454610fdc6078600086815260200190815260200160002060030154607860008781526020019081526020016000206004015461318990919063ffffffff16565b61319f90919063ffffffff16565b9050606560009054906101000a900473ffffffffffffffffffffffffffffffffffffffff1673ffffffffffffffffffffffffffffffffffffffff1663a9059cbb33836040518363ffffffff1660e01b815260040161104992919061435d565b602060405180830381600087803b15801561106357600080fd5b505af1158015611077573d6000803e3d6000fd5b505050506040513d601f19601f8201168201806040525081019061109b91906140ed565b506078600083815260200190815260200160002060000160009054906101000a900473ffffffffffffffffffffffffffffffffffffffff1673ffffffffffffffffffffffffffffffffffffffff163373ffffffffffffffffffffffffffffffffffffffff161461110a57600080fd5b61111382613469565b5050565b6068818154811061112757600080fd5b906000526020600020016000915054906101000a900473ffffffffffffffffffffffffffffffffffffffff1681565b606c6020528060005260406000206000915090505481565b6000606785815481106111aa577f4e487b7100000000000000000000000000000000000000000000000000000000600052603260045260246000fd5b9060005260206000200160009054906101000a900473ffffffffffffffffffffffffffffffffffffffff169050828173ffffffffffffffffffffffffffffffffffffffff1663dd62ed3e33306040518363ffffffff1660e01b81526004016112139291906142fd565b60206040518083038186803b15801561122b57600080fd5b505afa15801561123f573d6000803e3d6000fd5b505050506040513d601f19601f82011682018060405250810190611263919061413f565b101561126e57600080fd5b600080606b600088815260200190815260200160002054111561133d57611296868686611dab565b905060008114156112a8575050611ac8565b8173ffffffffffffffffffffffffffffffffffffffff166323b872dd3330846040518463ffffffff1660e01b81526004016112e593929190614326565b602060405180830381600087803b1580156112ff57600080fd5b505af1158015611313573d6000803e3d6000fd5b505050506040513d601f19601f8201168201806040525081019061133791906140ed565b506113ce565b8173ffffffffffffffffffffffffffffffffffffffff166323b872dd3330876040518463ffffffff1660e01b815260040161137a93929190614326565b602060405180830381600087803b15801561139457600080fd5b505af11580156113a8573d6000803e3d6000fd5b505050506040513d601f19601f820116820180604052508101906113cc91906140ed565b505b607360008154809291906113e1906148df565b919050555060006040518060e001604052803373ffffffffffffffffffffffffffffffffffffffff1681526020018881526020016073548152602001878152602001600084146114315783611433565b865b815260200160008152602001600081525090508060796000607354815260200190815260200160002060008201518160000160006101000a81548173ffffffffffffffffffffffffffffffffffffffff021916908373ffffffffffffffffffffffffffffffffffffffff1602179055506020820151816001015560408201518160020155606082015181600301556080820151816004015560a0820151816005015560c082015181600601559050506000606c600089815260200190815260200160002054141561154957607354606a600089815260200190815260200160002081905550606c6000888152602001908152602001600020600081548092919061153c906148df565b9190505550505050611ac8565b600060796000606a60008b815260200190815260200160002054815260200190815260200160002090508060030154871015611684578160400151606a60008a81526020019081526020016000208190555080600201548260a001818152505081604001518160060181905550606c600089815260200190815260200160002060008154809291906115da906148df565b91905055508160796000607354815260200190815260200160002060008201518160000160006101000a81548173ffffffffffffffffffffffffffffffffffffffff021916908373ffffffffffffffffffffffffffffffffffffffff1602179055506020820151816001015560408201518160020155606082015181600301556080820151816004015560a0820151816005015560c0820151816006015590505050505050611ac8565b6000816005015490506000811415611780578260400151826005018190555081600201548360c0018181525050606c60008a815260200190815260200160002060008154809291906116d5906148df565b91905055508260796000607354815260200190815260200160002060008201518160000160006101000a81548173ffffffffffffffffffffffffffffffffffffffff021916908373ffffffffffffffffffffffffffffffffffffffff1602179055506020820151816001015560408201518160020155606082015181600301556080820151816004015560a0820151816005015560c082015181600601559050505050505050611ac8565b8860796000888152602001908152602001600020600101541480156117ba5750876079600088815260200190815260200160002060030154105b80156117dd57506000607960008881526020019081526020016000206004015414155b156117e6578590505b5b87607960008381526020019081526020016000206003015410156118475760006079600083815260200190815260200160002060050154141561182957611847565b607960008281526020019081526020016000206005015490506117e7565b600060796000838152602001908152602001600020600501541480156118825750876079600083815260200190815260200160002060030154105b1561197f5782604001516079600083815260200190815260200160002060050181905550808360c0018181525050606c60008a815260200190815260200160002060008154809291906118d4906148df565b91905055508260796000607354815260200190815260200160002060008201518160000160006101000a81548173ffffffffffffffffffffffffffffffffffffffff021916908373ffffffffffffffffffffffffffffffffffffffff1602179055506020820151816001015560408201518160020155606082015181600301556080820151816004015560a0820151816005015560c082015181600601559050505050505050611ac8565b826040015160796000607960008581526020019081526020016000206006015481526020019081526020016000206005018190555060796000828152602001908152602001600020600601548360c0018181525050808360a001818152505082604001516079600083815260200190815260200160002060060181905550606c60008a81526020019081526020016000206000815480929190611a21906148df565b91905055508260796000607354815260200190815260200160002060008201518160000160006101000a81548173ffffffffffffffffffffffffffffffffffffffff021916908373ffffffffffffffffffffffffffffffffffffffff1602179055506020820151816001015560408201518160020155606082015181600301556080820151816004015560a0820151816005015560c0820151816006015590505050505050505b50505050565b6000606c6000838152602001908152602001600020549050919050565b611af3613461565b73ffffffffffffffffffffffffffffffffffffffff16611b11611b90565b73ffffffffffffffffffffffffffffffffffffffff1614611b67576040517f08c379a0000000000000000000000000000000000000000000000000000000008152600401611b5e90614479565b60405180910390fd5b611b716000613641565b565b6000606b6000838152602001908152602001600020549050919050565b6000603360009054906101000a900473ffffffffffffffffffffffffffffffffffffffff16905090565b60725481565b606e6020528060005260406000206000915090505481565b60006067607960008481526020019081526020016000206001015481548110611c2a577f4e487b7100000000000000000000000000000000000000000000000000000000600052603260045260246000fd5b9060005260206000200160009054906101000a900473ffffffffffffffffffffffffffffffffffffffff1690508073ffffffffffffffffffffffffffffffffffffffff1663a9059cbb3360796000868152602001908152602001600020600401546040518363ffffffff1660e01b8152600401611ca892919061435d565b602060405180830381600087803b158015611cc257600080fd5b505af1158015611cd6573d6000803e3d6000fd5b505050506040513d601f19601f82011682018060405250810190611cfa91906140ed565b506079600083815260200190815260200160002060000160009054906101000a900473ffffffffffffffffffffffffffffffffffffffff1673ffffffffffffffffffffffffffffffffffffffff163373ffffffffffffffffffffffffffffffffffffffff1614611d6957600080fd5b611d7282613289565b5050565b606d6020528060005260406000206000915090505481565b600060696000838152602001908152602001600020549050919050565b60008060678581548110611de8577f4e487b7100000000000000000000000000000000000000000000000000000000600052603260045260246000fd5b9060005260206000200160009054906101000a900473ffffffffffffffffffffffffffffffffffffffff169050828173ffffffffffffffffffffffffffffffffffffffff1663dd62ed3e33306040518363ffffffff1660e01b8152600401611e519291906142fd565b60206040518083038186803b158015611e6957600080fd5b505afa158015611e7d573d6000803e3d6000fd5b505050506040513d601f19601f82011682018060405250810190611ea1919061413f565b1015611eac57600080fd5b6000606b60008781526020019081526020016000205411611ecc57600080fd5b6000606960008781526020019081526020016000205490505b600084118015611f0b575084607860008381526020019081526020016000206003015410155b8015611f18575060008114155b156123175760006078600083815260200190815260200160002090508481600401541061214c57606560009054906101000a900473ffffffffffffffffffffffffffffffffffffffff1673ffffffffffffffffffffffffffffffffffffffff1663a9059cbb33611fa9607454611f9b86600301548b61318990919063ffffffff16565b61319f90919063ffffffff16565b6040518363ffffffff1660e01b8152600401611fc692919061435d565b602060405180830381600087803b158015611fe057600080fd5b505af1158015611ff4573d6000803e3d6000fd5b505050506040513d601f19601f8201168201806040525081019061201891906140ed565b508273ffffffffffffffffffffffffffffffffffffffff166323b872dd338360000160009054906101000a900473ffffffffffffffffffffffffffffffffffffffff16886040518463ffffffff1660e01b815260040161207a93929190614326565b602060405180830381600087803b15801561209457600080fd5b505af11580156120a8573d6000803e3d6000fd5b505050506040513d601f19601f820116820180604052508101906120cc91906140ed565b506120e48582600401546131b590919063ffffffff16565b8160040181905550612113601e607060008a8152602001908152602001600020546131cb90919063ffffffff16565b421115612129576121288782600301546131e1565b5b6000816004015414156121405761213f82613469565b5b6000935050505061231d565b606560009054906101000a900473ffffffffffffffffffffffffffffffffffffffff1673ffffffffffffffffffffffffffffffffffffffff1663a9059cbb336121ba6074546121ac8660030154876004015461318990919063ffffffff16565b61319f90919063ffffffff16565b6040518363ffffffff1660e01b81526004016121d792919061435d565b602060405180830381600087803b1580156121f157600080fd5b505af1158015612205573d6000803e3d6000fd5b505050506040513d601f19601f8201168201806040525081019061222991906140ed565b508273ffffffffffffffffffffffffffffffffffffffff166323b872dd338360000160009054906101000a900473ffffffffffffffffffffffffffffffffffffffff1684600401546040518463ffffffff1660e01b815260040161228f93929190614326565b602060405180830381600087803b1580156122a957600080fd5b505af11580156122bd573d6000803e3d6000fd5b505050506040513d601f19601f820116820180604052508101906122e191906140ed565b506122f98160040154866131b590919063ffffffff16565b945060008290508160050154925061231081613469565b5050611ee5565b83925050505b9392505050565b60706020528060005260406000206000915090505481565b606f6020528060005260406000206000915090505481565b6000606a6000838152602001908152602001600020549050919050565b606b6020528060005260406000206000915090505481565b600080600080600080600080607960008a81526020019081526020016000206040518060e00160405290816000820160009054906101000a900473ffffffffffffffffffffffffffffffffffffffff1673ffffffffffffffffffffffffffffffffffffffff1673ffffffffffffffffffffffffffffffffffffffff16815260200160018201548152602001600282015481526020016003820154815260200160048201548152602001600582015481526020016006820154815250509050806000015181602001518260400151836060015184608001518560a001518660c00151975097509750975097509750975050919395979092949650565b6124ab60745461249d858561318990919063ffffffff16565b61319f90919063ffffffff16565b606560009054906101000a900473ffffffffffffffffffffffffffffffffffffffff1673ffffffffffffffffffffffffffffffffffffffff1663dd62ed3e33306040518363ffffffff1660e01b81526004016125089291906142fd565b60206040518083038186803b15801561252057600080fd5b505afa158015612534573d6000803e3d6000fd5b505050506040513d601f19601f82011682018060405250810190612558919061413f565b101561256357600080fd5b600080606c60008781526020019081526020016000205411156126795761258b858585610846565b9050600081141561259c5750612e47565b606560009054906101000a900473ffffffffffffffffffffffffffffffffffffffff1673ffffffffffffffffffffffffffffffffffffffff166323b872dd33306126036074546125f58a8861318990919063ffffffff16565b61319f90919063ffffffff16565b6040518463ffffffff1660e01b815260040161262193929190614326565b602060405180830381600087803b15801561263b57600080fd5b505af115801561264f573d6000803e3d6000fd5b505050506040513d601f19601f8201168201806040525081019061267391906140ed565b50612752565b606560009054906101000a900473ffffffffffffffffffffffffffffffffffffffff1673ffffffffffffffffffffffffffffffffffffffff166323b872dd33306126e06074546126d28a8a61318990919063ffffffff16565b61319f90919063ffffffff16565b6040518463ffffffff1660e01b81526004016126fe93929190614326565b602060405180830381600087803b15801561271857600080fd5b505af115801561272c573d6000803e3d6000fd5b505050506040513d601f19601f8201168201806040525081019061275091906140ed565b505b60726000815480929190612765906148df565b919050555060006040518060e001604052803373ffffffffffffffffffffffffffffffffffffffff1681526020018781526020016072548152602001868152602001600084146127b557836127b7565b855b815260200160008152602001600081525090508060786000607254815260200190815260200160002060008201518160000160006101000a81548173ffffffffffffffffffffffffffffffffffffffff021916908373ffffffffffffffffffffffffffffffffffffffff1602179055506020820151816001015560408201518160020155606082015181600301556080820151816004015560a0820151816005015560c082015181600601559050506000606b60008881526020019081526020016000205414156128cc576072546069600088815260200190815260200160002081905550606b600087815260200190815260200160002060008154809291906128c0906148df565b91905055505050612e47565b600060786000606960008a815260200190815260200160002054815260200190815260200160002090508060030154861115612a06578160400151606960008981526020019081526020016000208190555080600201548260a001818152505081604001518160060181905550606b6000888152602001908152602001600020600081548092919061295d906148df565b91905055508160786000607254815260200190815260200160002060008201518160000160006101000a81548173ffffffffffffffffffffffffffffffffffffffff021916908373ffffffffffffffffffffffffffffffffffffffff1602179055506020820151816001015560408201518160020155606082015181600301556080820151816004015560a0820151816005015560c08201518160060155905050505050612e47565b6000816005015490506000811415612b01578260400151826005018190555081600201548360c0018181525050606b60008981526020019081526020016000206000815480929190612a57906148df565b91905055508260786000607254815260200190815260200160002060008201518160000160006101000a81548173ffffffffffffffffffffffffffffffffffffffff021916908373ffffffffffffffffffffffffffffffffffffffff1602179055506020820151816001015560408201518160020155606082015181600301556080820151816004015560a0820151816005015560c0820151816006015590505050505050612e47565b876078600087815260200190815260200160002060010154148015612b3b5750866078600087815260200190815260200160002060030154115b8015612b5e57506000607860008781526020019081526020016000206004015414155b15612b67578490505b5b8660786000838152602001908152602001600020600301541115612bc857600060786000838152602001908152602001600020600501541415612baa57612bc8565b60786000828152602001908152602001600020600501549050612b68565b60006078600083815260200190815260200160002060050154148015612c035750866078600083815260200190815260200160002060030154115b15612cff5782604001516078600083815260200190815260200160002060050181905550808360c0018181525050606b60008981526020019081526020016000206000815480929190612c55906148df565b91905055508260786000607254815260200190815260200160002060008201518160000160006101000a81548173ffffffffffffffffffffffffffffffffffffffff021916908373ffffffffffffffffffffffffffffffffffffffff1602179055506020820151816001015560408201518160020155606082015181600301556080820151816004015560a0820151816005015560c0820151816006015590505050505050612e47565b826040015160786000607860008581526020019081526020016000206006015481526020019081526020016000206005018190555060786000828152602001908152602001600020600601548360c0018181525050808360a001818152505082604001516078600083815260200190815260200160002060060181905550606b60008981526020019081526020016000206000815480929190612da1906148df565b91905055508260786000607254815260200190815260200160002060008201518160000160006101000a81548173ffffffffffffffffffffffffffffffffffffffff021916908373ffffffffffffffffffffffffffffffffffffffff1602179055506020820151816001015560408201518160020155606082015181600301556080820151816004015560a0820151816005015560c08201518160060155905050505050505b50505050565b612e55613461565b73ffffffffffffffffffffffffffffffffffffffff16612e73611b90565b73ffffffffffffffffffffffffffffffffffffffff1614612ec9576040517f08c379a0000000000000000000000000000000000000000000000000000000008152600401612ec090614479565b60405180910390fd5b600073ffffffffffffffffffffffffffffffffffffffff168173ffffffffffffffffffffffffffffffffffffffff161415612f39576040517f08c379a0000000000000000000000000000000000000000000000000000000008152600401612f3090614439565b60405180910390fd5b612f4281613641565b50565b600080600080600080600080607860008a81526020019081526020016000206040518060e00160405290816000820160009054906101000a900473ffffffffffffffffffffffffffffffffffffffff1673ffffffffffffffffffffffffffffffffffffffff1673ffffffffffffffffffffffffffffffffffffffff16815260200160018201548152602001600282015481526020016003820154815260200160048201548152602001600582015481526020016006820154815250509050806000015181602001518260400151836060015184608001518560a001518660c00151975097509750975097509750975050919395979092949650565b60008060019054906101000a900460ff16156130b75760018260ff1614801561306f575061306d30613707565b155b6130ae576040517f08c379a00000000000000000000000000000000000000000000000000000000081526004016130a590614459565b60405180910390fd5b6000905061312b565b8160ff1660008054906101000a900460ff1660ff161061310c576040517f08c379a000000000000000000000000000000000000000000000000000000000815260040161310390614459565b60405180910390fd5b816000806101000a81548160ff021916908360ff160217905550600190505b919050565b600060019054906101000a900460ff1661317f576040517f08c379a000000000000000000000000000000000000000000000000000000000815260040161317690614499565b60405180910390fd5b61318761372a565b565b6000818361319791906146e7565b905092915050565b600081836131ad91906146b6565b905092915050565b600081836131c391906147d5565b905092915050565b600081836131d991906145f6565b905092915050565b6131f86076546075546131cb90919063ffffffff16565b42106132075761320661378b565b5b61322d81606d6000858152602001908152602001600020546131cb90919063ffffffff16565b606d600084815260200190815260200160002081905550606f60008381526020019081526020016000206000815480929190613268906148df565b91905055504260706000848152602001908152602001600020819055505050565b6000607960008381526020019081526020016000206006015414156132cc576132c760796000838152602001908152602001600020600101546139db565b61345e565b6000607960008381526020019081526020016000206005015414156133225760006079600060796000858152602001908152602001600020600601548152602001908152602001600020600501819055506133b1565b607960008281526020019081526020016000206005015460796000607960008581526020019081526020016000206006015481526020019081526020016000206005018190555060796000828152602001908152602001600020600601546079600060796000858152602001908152602001600020600501548152602001908152602001600020600601819055505b60796000828152602001908152602001600020600080820160006101000a81549073ffffffffffffffffffffffffffffffffffffffff02191690556001820160009055600282016000905560038201600090556004820160009055600582016000905560068201600090555050606c600060796000848152602001908152602001600020600101548152602001908152602001600020600081548092919061345890614884565b91905055505b50565b600033905090565b6000607860008381526020019081526020016000206006015414156134ac576134a76078600083815260200190815260200160002060010154613aed565b61363e565b600060786000838152602001908152602001600020600501541415613502576000607860006078600085815260200190815260200160002060060154815260200190815260200160002060050181905550613591565b607860008281526020019081526020016000206005015460786000607860008581526020019081526020016000206006015481526020019081526020016000206005018190555060786000828152602001908152602001600020600601546078600060786000858152602001908152602001600020600501548152602001908152602001600020600601819055505b60786000828152602001908152602001600020600080820160006101000a81549073ffffffffffffffffffffffffffffffffffffffff02191690556001820160009055600282016000905560038201600090556004820160009055600582016000905560068201600090555050606b600060786000848152602001908152602001600020600101548152602001908152602001600020600081548092919061363890614884565b91905055505b50565b6000603360009054906101000a900473ffffffffffffffffffffffffffffffffffffffff16905081603360006101000a81548173ffffffffffffffffffffffffffffffffffffffff021916908373ffffffffffffffffffffffffffffffffffffffff1602179055508173ffffffffffffffffffffffffffffffffffffffff168173ffffffffffffffffffffffffffffffffffffffff167f8be0079c531659141344cd1fd0a4f28419497f9722a3daafe3b4186f6b6457e060405160405180910390a35050565b6000808273ffffffffffffffffffffffffffffffffffffffff163b119050919050565b600060019054906101000a900460ff16613779576040517f08c379a000000000000000000000000000000000000000000000000000000000815260040161377090614499565b60405180910390fd5b613789613784613461565b613641565b565b60005b6068805490508110156139d85760006137a682613bff565b90506000606660009054906101000a900473ffffffffffffffffffffffffffffffffffffffff1673ffffffffffffffffffffffffffffffffffffffff1663a2173df460718581548110613822577f4e487b7100000000000000000000000000000000000000000000000000000000600052603260045260246000fd5b90600052602060002001546076546040518363ffffffff1660e01b815260040161384d9291906143f5565b60206040518083038186803b15801561386557600080fd5b505afa158015613879573d6000803e3d6000fd5b505050506040513d601f19601f8201168201806040525081019061389d919061413f565b905060006138b48284613cce90919063ffffffff16565b905060006138cd60775483613ce490919063ffffffff16565b9050600060745490506138e98282613cfa90919063ffffffff16565b9050600060688781548110613927577f4e487b7100000000000000000000000000000000000000000000000000000000600052603260045260246000fd5b9060005260206000200160009054906101000a900473ffffffffffffffffffffffffffffffffffffffff1690508073ffffffffffffffffffffffffffffffffffffffff16638f9bf833836040518263ffffffff1660e01b815260040161398d91906144b9565b600060405180830381600087803b1580156139a757600080fd5b505af11580156139bb573d6000803e3d6000fd5b5050505050505050505080806139d0906148df565b91505061378e565b50565b6000606a60008381526020019081526020016000205490506079600082815260200190815260200160002060050154606a600084815260200190815260200160002081905550600060796000607960008581526020019081526020016000206005015481526020019081526020016000206006018190555060796000828152602001908152602001600020600080820160006101000a81549073ffffffffffffffffffffffffffffffffffffffff02191690556001820160009055600282016000905560038201600090556004820160009055600582016000905560068201600090555050606c60008381526020019081526020016000206000815480929190613ae490614884565b91905055505050565b60006069600083815260200190815260200160002054905060786000828152602001908152602001600020600501546069600084815260200190815260200160002081905550600060786000607860008581526020019081526020016000206005015481526020019081526020016000206006018190555060786000828152602001908152602001600020600080820160006101000a81549073ffffffffffffffffffffffffffffffffffffffff02191690556001820160009055600282016000905560038201600090556004820160009055600582016000905560068201600090555050606b60008381526020019081526020016000206000815480929190613bf690614884565b91905055505050565b600080613c3b606e600085815260200190815260200160002054606d6000868152602001908152602001600020546131b590919063ffffffff16565b90506000613c65606f6000868152602001908152602001600020548361319f90919063ffffffff16565b90506000606f6000868152602001908152602001600020819055506000606d600086815260200190815260200160002081905550606d600085815260200190815260200160002054606e6000868152602001908152602001600020819055508092505050919050565b60008183613cdc9190614741565b905092915050565b60008183613cf2919061464c565b905092915050565b60008183613d089190614562565b905092915050565b828054828255906000526020600020908101928215613d89579160200282015b82811115613d885782518260006101000a81548173ffffffffffffffffffffffffffffffffffffffff021916908373ffffffffffffffffffffffffffffffffffffffff16021790555091602001919060010190613d30565b5b509050613d969190613de7565b5090565b828054828255906000526020600020908101928215613dd6579160200282015b82811115613dd5578251825591602001919060010190613dba565b5b509050613de39190613e04565b5090565b5b80821115613e00576000816000905550600101613de8565b5090565b5b80821115613e1d576000816000905550600101613e05565b5090565b6000613e34613e2f846144f9565b6144d4565b90508083825260208201905082856020860282011115613e5357600080fd5b60005b85811015613e835781613e698882613ef9565b845260208401935060208301925050600181019050613e56565b5050509392505050565b6000613ea0613e9b84614525565b6144d4565b90508083825260208201905082856020860282011115613ebf57600080fd5b60005b85811015613eef5781613ed58882613f77565b845260208401935060208301925050600181019050613ec2565b5050509392505050565b600081359050613f0881614adc565b92915050565b600082601f830112613f1f57600080fd5b8135613f2f848260208601613e21565b91505092915050565b600082601f830112613f4957600080fd5b8135613f59848260208601613e8d565b91505092915050565b600081519050613f7181614af3565b92915050565b600081359050613f8681614b0a565b92915050565b600081359050613f9b81614b21565b92915050565b600081519050613fb081614b21565b92915050565b600060208284031215613fc857600080fd5b6000613fd684828501613ef9565b91505092915050565b600080600060608486031215613ff457600080fd5b600061400286828701613ef9565b935050602061401386828701613ef9565b925050604061402486828701613f77565b9150509250925092565b600080600080600060a0868803121561404657600080fd5b600086013567ffffffffffffffff81111561406057600080fd5b61406c88828901613f0e565b955050602086013567ffffffffffffffff81111561408957600080fd5b61409588828901613f0e565b945050604086013567ffffffffffffffff8111156140b257600080fd5b6140be88828901613f38565b93505060606140cf88828901613ef9565b92505060806140e088828901613ef9565b9150509295509295909350565b6000602082840312156140ff57600080fd5b600061410d84828501613f62565b91505092915050565b60006020828403121561412857600080fd5b600061413684828501613f8c565b91505092915050565b60006020828403121561415157600080fd5b600061415f84828501613fa1565b91505092915050565b60008060006060848603121561417d57600080fd5b600061418b86828701613f8c565b935050602061419c86828701613f8c565b92505060406141ad86828701613f8c565b9150509250925092565b600080600080608085870312156141cd57600080fd5b60006141db87828801613f8c565b94505060206141ec87828801613f8c565b93505060406141fd87828801613f8c565b925050606061420e87828801613f8c565b91505092959194509250565b61422381614809565b82525050565b61423281614827565b82525050565b61424181614872565b82525050565b6000614254602683614551565b915061425f826149c6565b604082019050919050565b6000614277602e83614551565b915061428282614a15565b604082019050919050565b600061429a602083614551565b91506142a582614a64565b602082019050919050565b60006142bd602b83614551565b91506142c882614a8d565b604082019050919050565b6142dc8161485b565b82525050565b60006020820190506142f7600083018461421a565b92915050565b6000604082019050614312600083018561421a565b61431f602083018461421a565b9392505050565b600060608201905061433b600083018661421a565b614348602083018561421a565b61435560408301846142d3565b949350505050565b6000604082019050614372600083018561421a565b61437f60208301846142d3565b9392505050565b600060e08201905061439b600083018a61421a565b6143a860208301896142d3565b6143b560408301886142d3565b6143c260608301876142d3565b6143cf60808301866142d3565b6143dc60a08301856142d3565b6143e960c08301846142d3565b98975050505050505050565b600060408201905061440a6000830185614229565b61441760208301846142d3565b9392505050565b60006020820190506144336000830184614238565b92915050565b6000602082019050818103600083015261445281614247565b9050919050565b600060208201905081810360008301526144728161426a565b9050919050565b600060208201905081810360008301526144928161428d565b9050919050565b600060208201905081810360008301526144b2816142b0565b9050919050565b60006020820190506144ce60008301846142d3565b92915050565b60006144de6144ef565b90506144ea82826148ae565b919050565b6000604051905090565b600067ffffffffffffffff82111561451457614513614986565b5b602082029050602081019050919050565b600067ffffffffffffffff8211156145405761453f614986565b5b602082029050602081019050919050565b600082825260208201905092915050565b600061456d82614831565b915061457883614831565b9250817f7fffffffffffffffffffffffffffffffffffffffffffffffffffffffffffffff038313600083121516156145b3576145b2614928565b5b817f80000000000000000000000000000000000000000000000000000000000000000383126000831216156145eb576145ea614928565b5b828201905092915050565b60006146018261485b565b915061460c8361485b565b9250827fffffffffffffffffffffffffffffffffffffffffffffffffffffffffffffffff0382111561464157614640614928565b5b828201905092915050565b600061465782614831565b915061466283614831565b92508261467257614671614957565b5b600160000383147f8000000000000000000000000000000000000000000000000000000000000000831416156146ab576146aa614928565b5b828205905092915050565b60006146c18261485b565b91506146cc8361485b565b9250826146dc576146db614957565b5b828204905092915050565b60006146f28261485b565b91506146fd8361485b565b9250817fffffffffffffffffffffffffffffffffffffffffffffffffffffffffffffffff048311821515161561473657614735614928565b5b828202905092915050565b600061474c82614831565b915061475783614831565b9250827f80000000000000000000000000000000000000000000000000000000000000000182126000841215161561479257614791614928565b5b827f7fffffffffffffffffffffffffffffffffffffffffffffffffffffffffffffff0182136000841216156147ca576147c9614928565b5b828203905092915050565b60006147e08261485b565b91506147eb8361485b565b9250828210156147fe576147fd614928565b5b828203905092915050565b60006148148261483b565b9050919050565b60008115159050919050565b6000819050919050565b6000819050919050565b600073ffffffffffffffffffffffffffffffffffffffff82169050919050565b6000819050919050565b600060ff82169050919050565b600061487d82614865565b9050919050565b600061488f8261485b565b915060008214156148a3576148a2614928565b5b600182039050919050565b6148b7826149b5565b810181811067ffffffffffffffff821117156148d6576148d5614986565b5b80604052505050565b60006148ea8261485b565b91507fffffffffffffffffffffffffffffffffffffffffffffffffffffffffffffffff82141561491d5761491c614928565b5b600182019050919050565b7f4e487b7100000000000000000000000000000000000000000000000000000000600052601160045260246000fd5b7f4e487b7100000000000000000000000000000000000000000000000000000000600052601260045260246000fd5b7f4e487b7100000000000000000000000000000000000000000000000000000000600052604160045260246000fd5b6000601f19601f8301169050919050565b7f4f776e61626c653a206e6577206f776e657220697320746865207a65726f206160008201527f6464726573730000000000000000000000000000000000000000000000000000602082015250565b7f496e697469616c697a61626c653a20636f6e747261637420697320616c72656160008201527f647920696e697469616c697a6564000000000000000000000000000000000000602082015250565b7f4f776e61626c653a2063616c6c6572206973206e6f7420746865206f776e6572600082015250565b7f496e697469616c697a61626c653a20636f6e7472616374206973206e6f74206960008201527f6e697469616c697a696e67000000000000000000000000000000000000000000602082015250565b614ae581614809565b8114614af057600080fd5b50565b614afc8161481b565b8114614b0757600080fd5b50565b614b1381614827565b8114614b1e57600080fd5b50565b614b2a8161485b565b8114614b3557600080fd5b5056fea2646970667358221220ccb92aa871bf0275cdffeed2218aae51cc4c316464a305ac5d3312bb5a1b89f564736f6c63430008040033",
  "linkReferences": {},
  "deployedLinkReferences": {}
}