{
  "_format": "hh-sol-artifact-1",
  "contractName": "OrderBook",
  "sourceName": "contracts/OrderBook/OrderBook.sol",
  "abi": [
    {
      "inputs": [
        {
          "internalType": "address[]",
          "name": "_FxPerpetuals",
          "type": "address[]"
        },
        {
          "internalType": "uint256[]",
          "name": "_baseTokenInfoArray",
          "type": "uint256[]"
        },
        {
          "internalType": "uint256[]",
          "name": "_oracleIndices",
          "type": "uint256[]"
        },
        {
          "internalType": "uint256[][]",
          "name": "_recentSalesBaseArray",
          "type": "uint256[][]"
        },
        {
          "internalType": "address",
          "name": "_USD",
          "type": "address"
        },
        {
          "internalType": "address",
          "name": "_Oracle",
          "type": "address"
        }
      ],
      "stateMutability": "nonpayable",
      "type": "constructor"
    },
    {
      "anonymous": false,
      "inputs": [
        {
          "indexed": true,
          "internalType": "address",
          "name": "previousOwner",
          "type": "address"
        },
        {
          "indexed": true,
          "internalType": "address",
          "name": "newOwner",
          "type": "address"
        }
      ],
      "name": "OwnershipTransferred",
      "type": "event"
    },
    {
      "inputs": [
        {
          "internalType": "uint256",
          "name": "",
          "type": "uint256"
        }
      ],
      "name": "FxPerpetuals",
      "outputs": [
        {
          "internalType": "address",
          "name": "",
          "type": "address"
        }
      ],
      "stateMutability": "view",
      "type": "function"
    },
    {
      "inputs": [
        {
          "internalType": "uint256",
          "name": "",
          "type": "uint256"
        }
      ],
      "name": "TWAPs",
      "outputs": [
        {
          "internalType": "uint256",
          "name": "",
          "type": "uint256"
        }
      ],
      "stateMutability": "view",
      "type": "function"
    },
    {
      "inputs": [
        {
          "internalType": "address",
          "name": "_perpetual",
          "type": "address"
        },
        {
          "internalType": "uint256",
          "name": "_oracleIndex",
          "type": "uint256"
        }
      ],
      "name": "addFxPerpetual",
      "outputs": [],
      "stateMutability": "nonpayable",
      "type": "function"
    },
    {
      "inputs": [
        {
          "internalType": "uint256",
          "name": "",
          "type": "uint256"
        }
      ],
      "name": "buyHeads",
      "outputs": [
        {
          "internalType": "uint256",
          "name": "",
          "type": "uint256"
        }
      ],
      "stateMutability": "view",
      "type": "function"
    },
    {
      "inputs": [
        {
          "internalType": "uint256",
          "name": "_ID",
          "type": "uint256"
        }
      ],
      "name": "deleteBuy",
      "outputs": [],
      "stateMutability": "nonpayable",
      "type": "function"
    },
    {
      "inputs": [
        {
          "internalType": "uint256",
          "name": "_ID",
          "type": "uint256"
        }
      ],
      "name": "deleteSell",
      "outputs": [],
      "stateMutability": "nonpayable",
      "type": "function"
    },
    {
      "inputs": [
        {
          "internalType": "uint256",
          "name": "_tokenIndex",
          "type": "uint256"
        },
        {
          "internalType": "uint256",
          "name": "_price",
          "type": "uint256"
        },
        {
          "internalType": "uint256",
          "name": "_volume",
          "type": "uint256"
        },
        {
          "internalType": "uint256",
          "name": "_targetInsertion",
          "type": "uint256"
        }
      ],
      "name": "limitBuy",
      "outputs": [],
      "stateMutability": "nonpayable",
      "type": "function"
    },
    {
      "inputs": [
        {
          "internalType": "uint256",
          "name": "_tokenIndex",
          "type": "uint256"
        },
        {
          "internalType": "uint256",
          "name": "_price",
          "type": "uint256"
        },
        {
          "internalType": "uint256",
          "name": "_volume",
          "type": "uint256"
        },
        {
          "internalType": "uint256",
          "name": "_targetInsertion",
          "type": "uint256"
        }
      ],
      "name": "limitSell",
      "outputs": [],
      "stateMutability": "nonpayable",
      "type": "function"
    },
    {
      "inputs": [
        {
          "internalType": "uint256",
          "name": "_tokenIndex",
          "type": "uint256"
        },
        {
          "internalType": "uint256",
          "name": "_maxPrice",
          "type": "uint256"
        },
        {
          "internalType": "uint256",
          "name": "_volume",
          "type": "uint256"
        }
      ],
      "name": "marketBuy",
      "outputs": [
        {
          "internalType": "uint256",
          "name": "",
          "type": "uint256"
        }
      ],
      "stateMutability": "nonpayable",
      "type": "function"
    },
    {
      "inputs": [
        {
          "internalType": "uint256",
          "name": "_tokenIndex",
          "type": "uint256"
        },
        {
          "internalType": "uint256",
          "name": "_minPrice",
          "type": "uint256"
        },
        {
          "internalType": "uint256",
          "name": "_volume",
          "type": "uint256"
        }
      ],
      "name": "marketSell",
      "outputs": [
        {
          "internalType": "uint256",
          "name": "",
          "type": "uint256"
        }
      ],
      "stateMutability": "nonpayable",
      "type": "function"
    },
    {
      "inputs": [
        {
          "internalType": "uint256",
          "name": "",
          "type": "uint256"
        }
      ],
      "name": "openBuyOrders",
      "outputs": [
        {
          "internalType": "uint256",
          "name": "",
          "type": "uint256"
        }
      ],
      "stateMutability": "view",
      "type": "function"
    },
    {
      "inputs": [
        {
          "internalType": "uint256",
          "name": "",
          "type": "uint256"
        }
      ],
      "name": "openSellOrders",
      "outputs": [
        {
          "internalType": "uint256",
          "name": "",
          "type": "uint256"
        }
      ],
      "stateMutability": "view",
      "type": "function"
    },
    {
      "inputs": [],
      "name": "owner",
      "outputs": [
        {
          "internalType": "address",
          "name": "",
          "type": "address"
        }
      ],
      "stateMutability": "view",
      "type": "function"
    },
    {
      "inputs": [],
      "name": "renounceOwnership",
      "outputs": [],
      "stateMutability": "nonpayable",
      "type": "function"
    },
    {
      "inputs": [
        {
          "internalType": "uint256",
          "name": "",
          "type": "uint256"
        }
      ],
      "name": "sellHeads",
      "outputs": [
        {
          "internalType": "uint256",
          "name": "",
          "type": "uint256"
        }
      ],
      "stateMutability": "view",
      "type": "function"
    },
    {
      "inputs": [
        {
          "internalType": "address",
          "name": "newOwner",
          "type": "address"
        }
      ],
      "name": "transferOwnership",
      "outputs": [],
      "stateMutability": "nonpayable",
      "type": "function"
    }
  ],
  "bytecode": "0x60806040523480156200001157600080fd5b5060405162004838380380620048388339818101604052810190620000379190620006ac565b620000576200004b620001ff60201b60201c565b6200020760201b60201c565b85600390805190602001906200006f929190620002cb565b5081600160006101000a81548173ffffffffffffffffffffffffffffffffffffffff021916908373ffffffffffffffffffffffffffffffffffffffff16021790555080600260006101000a81548173ffffffffffffffffffffffffffffffffffffffff021916908373ffffffffffffffffffffffffffffffffffffffff16021790555084600490805190602001906200010a9291906200035a565b508460059080519060200190620001239291906200035a565b5084600690805190602001906200013c9291906200035a565b508460079080519060200190620001559291906200035a565b5084600890805190602001906200016e9291906200035a565b5084600a9080519060200190620001879291906200035a565b5084600b9080519060200190620001a09291906200035a565b5083600c9080519060200190620001b99291906200035a565b508260099080519060200190620001d2929190620003ac565b50670de0b6b3a7640000600f81905550610e10601181905550601860128190555050505050505062000944565b600033905090565b60008060009054906101000a900473ffffffffffffffffffffffffffffffffffffffff169050816000806101000a81548173ffffffffffffffffffffffffffffffffffffffff021916908373ffffffffffffffffffffffffffffffffffffffff1602179055508173ffffffffffffffffffffffffffffffffffffffff168173ffffffffffffffffffffffffffffffffffffffff167f8be0079c531659141344cd1fd0a4f28419497f9722a3daafe3b4186f6b6457e060405160405180910390a35050565b82805482825590600052602060002090810192821562000347579160200282015b82811115620003465782518260006101000a81548173ffffffffffffffffffffffffffffffffffffffff021916908373ffffffffffffffffffffffffffffffffffffffff16021790555091602001919060010190620002ec565b5b50905062000356919062000413565b5090565b82805482825590600052602060002090810192821562000399579160200282015b82811115620003985782518255916020019190600101906200037b565b5b509050620003a8919062000413565b5090565b82805482825590600052602060002090810192821562000400579160200282015b82811115620003ff578251829080519060200190620003ee9291906200035a565b5091602001919060010190620003cd565b5b5090506200040f919062000432565b5090565b5b808211156200042e57600081600090555060010162000414565b5090565b5b808211156200045657600081816200044c91906200045a565b5060010162000433565b5090565b50805460008255906000526020600020908101906200047a919062000413565b50565b6000620004946200048e84620007cf565b620007a6565b90508083825260208201905082856020860282011115620004b457600080fd5b60005b85811015620004e85781620004cd8882620005f7565b845260208401935060208301925050600181019050620004b7565b5050509392505050565b6000620005096200050384620007fe565b620007a6565b905080838252602082019050828560208602820111156200052957600080fd5b60005b858110156200057857815167ffffffffffffffff8111156200054d57600080fd5b8086016200055c898262000668565b855260208501945060208401935050506001810190506200052c565b5050509392505050565b60006200059962000593846200082d565b620007a6565b90508083825260208201905082856020860282011115620005b957600080fd5b60005b85811015620005ed5781620005d2888262000695565b845260208401935060208301925050600181019050620005bc565b5050509392505050565b600081519050620006088162000910565b92915050565b600082601f8301126200062057600080fd5b8151620006328482602086016200047d565b91505092915050565b600082601f8301126200064d57600080fd5b81516200065f848260208601620004f2565b91505092915050565b600082601f8301126200067a57600080fd5b81516200068c84826020860162000582565b91505092915050565b600081519050620006a6816200092a565b92915050565b60008060008060008060c08789031215620006c657600080fd5b600087015167ffffffffffffffff811115620006e157600080fd5b620006ef89828a016200060e565b965050602087015167ffffffffffffffff8111156200070d57600080fd5b6200071b89828a0162000668565b955050604087015167ffffffffffffffff8111156200073957600080fd5b6200074789828a0162000668565b945050606087015167ffffffffffffffff8111156200076557600080fd5b6200077389828a016200063b565b93505060806200078689828a01620005f7565b92505060a06200079989828a01620005f7565b9150509295509295509295565b6000620007b2620007c5565b9050620007c082826200089a565b919050565b6000604051905090565b600067ffffffffffffffff821115620007ed57620007ec620008d0565b5b602082029050602081019050919050565b600067ffffffffffffffff8211156200081c576200081b620008d0565b5b602082029050602081019050919050565b600067ffffffffffffffff8211156200084b576200084a620008d0565b5b602082029050602081019050919050565b6000620008698262000870565b9050919050565b600073ffffffffffffffffffffffffffffffffffffffff82169050919050565b6000819050919050565b620008a582620008ff565b810181811067ffffffffffffffff82111715620008c757620008c6620008d0565b5b80604052505050565b7f4e487b7100000000000000000000000000000000000000000000000000000000600052604160045260246000fd5b6000601f19601f8301169050919050565b6200091b816200085c565b81146200092757600080fd5b50565b620009358162000890565b81146200094157600080fd5b50565b613ee480620009546000396000f3fe608060405234801561001057600080fd5b50600436106101005760003560e01c8063804cda4611610097578063d6d423d811610066578063d6d423d8146102d1578063d935e46714610301578063f0768cf71461031d578063f2fde38b1461033957610100565b8063804cda46146102375780638da5cb5b146102675780639ff1549c14610285578063b55e0912146102a157610100565b806359d5445b116100d357806359d5445b146101c55780635c285acb146101e15780636ba755ef14610211578063715018a61461022d57610100565b80631bed7a811461010557806335460d92146101355780633c8e5d4414610165578063476d4f3f14610195575b600080fd5b61011f600480360381019061011a919061382c565b610355565b60405161012c91906139a3565b60405180910390f35b61014f600480360381019061014a919061382c565b610394565b60405161015c9190613aa2565b60405180910390f35b61017f600480360381019061017a919061387e565b6103b8565b60405161018c9190613aa2565b60405180910390f35b6101af60048036038101906101aa919061382c565b610a6a565b6040516101bc9190613aa2565b60405180910390f35b6101df60048036038101906101da919061382c565b610a8e565b005b6101fb60048036038101906101f6919061382c565b610cf7565b6040516102089190613aa2565b60405180910390f35b61022b600480360381019061022691906138cd565b610d1b565b005b6102356115c3565b005b610251600480360381019061024c919061382c565b61164b565b60405161025e9190613aa2565b60405180910390f35b61026f61166f565b60405161027c91906139a3565b60405180910390f35b61029f600480360381019061029a919061382c565b611698565b005b6102bb60048036038101906102b6919061387e565b611901565b6040516102c89190613aa2565b60405180910390f35b6102eb60048036038101906102e6919061382c565b611f7f565b6040516102f89190613aa2565b60405180910390f35b61031b6004803603810190610316919061379e565b611fa3565b005b610337600480360381019061033291906138cd565b61221c565b005b610353600480360381019061034e9190613775565b612abb565b005b6003818154811061036557600080fd5b906000526020600020016000915054906101000a900473ffffffffffffffffffffffffffffffffffffffff1681565b600681815481106103a457600080fd5b906000526020600020016000915090505481565b600080600385815481106103f5577f4e487b7100000000000000000000000000000000000000000000000000000000600052603260045260246000fd5b9060005260206000200160009054906101000a900473ffffffffffffffffffffffffffffffffffffffff1690506104358385612bb390919063ffffffff16565b600160009054906101000a900473ffffffffffffffffffffffffffffffffffffffff1673ffffffffffffffffffffffffffffffffffffffff1663dd62ed3e33306040518363ffffffff1660e01b81526004016104929291906139be565b60206040518083038186803b1580156104aa57600080fd5b505afa1580156104be573d6000803e3d6000fd5b505050506040513d601f19601f820116820180604052508101906104e29190613855565b10156104ed57600080fd5b600060088681548110610529577f4e487b7100000000000000000000000000000000000000000000000000000000600052603260045260246000fd5b90600052602060002001541161053e57600080fd5b60006006868154811061057a577f4e487b7100000000000000000000000000000000000000000000000000000000600052603260045260246000fd5b906000526020600020015490505b6000841180156105ad5750846014600083815260200190815260200160002060030154105b15610a5d5760006014600083815260200190815260200160002090508481600401541061084f57600160009054906101000a900473ffffffffffffffffffffffffffffffffffffffff1673ffffffffffffffffffffffffffffffffffffffff166323b872dd338360000160009054906101000a900473ffffffffffffffffffffffffffffffffffffffff1661064f85600301548a612bb390919063ffffffff16565b6040518463ffffffff1660e01b815260040161066d939291906139e7565b602060405180830381600087803b15801561068757600080fd5b505af115801561069b573d6000803e3d6000fd5b505050506040513d601f19601f820116820180604052508101906106bf91906137da565b508273ffffffffffffffffffffffffffffffffffffffff1663a9059cbb33876040518363ffffffff1660e01b81526004016106fb929190613a1e565b602060405180830381600087803b15801561071557600080fd5b505af1158015610729573d6000803e3d6000fd5b505050506040513d601f19601f8201168201806040525081019061074d91906137da565b50610765858260040154612bc990919063ffffffff16565b81600401819055506000816004015414156107e85760146000838152602001908152602001600020600080820160006101000a81549073ffffffffffffffffffffffffffffffffffffffff021916905560018201600090556002820160009055600382016000905560048201600090556005820160009055600682016000905550505b600a8781548110610822577f4e487b7100000000000000000000000000000000000000000000000000000000600052603260045260246000fd5b906000526020600020015443111561084357610842878260030154612bdf565b5b60009350505050610a63565b600160009054906101000a900473ffffffffffffffffffffffffffffffffffffffff1673ffffffffffffffffffffffffffffffffffffffff166323b872dd338360000160009054906101000a900473ffffffffffffffffffffffffffffffffffffffff166108ce85600301548660040154612bb390919063ffffffff16565b6040518463ffffffff1660e01b81526004016108ec939291906139e7565b602060405180830381600087803b15801561090657600080fd5b505af115801561091a573d6000803e3d6000fd5b505050506040513d601f19601f8201168201806040525081019061093e91906137da565b508273ffffffffffffffffffffffffffffffffffffffff1663a9059cbb3383600401546040518363ffffffff1660e01b815260040161097e929190613a1e565b602060405180830381600087803b15801561099857600080fd5b505af11580156109ac573d6000803e3d6000fd5b505050506040513d601f19601f820116820180604052508101906109d091906137da565b506109e8816004015486612bc990919063ffffffff16565b945060146000838152602001908152602001600020600080820160006101000a81549073ffffffffffffffffffffffffffffffffffffffff0219169055600182016000905560028201600090556003820160009055600482016000905560058201600090556006820160009055505050610588565b83925050505b9392505050565b60058181548110610a7a57600080fd5b906000526020600020016000915090505481565b6013600082815260200190815260200160002060000160009054906101000a900473ffffffffffffffffffffffffffffffffffffffff1673ffffffffffffffffffffffffffffffffffffffff163373ffffffffffffffffffffffffffffffffffffffff1614610afc57600080fd5b6005601360008381526020019081526020016000206001015481548110610b4c577f4e487b7100000000000000000000000000000000000000000000000000000000600052603260045260246000fd5b9060005260206000200154811415610b6357600080fd5b600060136000838152602001908152602001600020600601541415610ba257610ba16013600083815260200190815260200160002060010154612e7f565b5b600060136000838152602001908152602001600020600501541415610bf8576000601360006013600085815260200190815260200160002060060154815260200190815260200160002060050181905550610c87565b601360008281526020019081526020016000206005015460136000601360008581526020019081526020016000206006015481526020019081526020016000206005018190555060136000828152602001908152602001600020600601546013600060136000858152602001908152602001600020600501548152602001908152602001600020600601819055505b60136000828152602001908152602001600020600080820160006101000a81549073ffffffffffffffffffffffffffffffffffffffff0219169055600182016000905560028201600090556003820160009055600482016000905560058201600090556006820160009055505050565b60088181548110610d0757600080fd5b906000526020600020016000915090505481565b600060038581548110610d57577f4e487b7100000000000000000000000000000000000000000000000000000000600052603260045260246000fd5b9060005260206000200160009054906101000a900473ffffffffffffffffffffffffffffffffffffffff169050610d978484612bb390919063ffffffff16565b8173ffffffffffffffffffffffffffffffffffffffff1663dd62ed3e33306040518363ffffffff1660e01b8152600401610dd29291906139be565b60206040518083038186803b158015610dea57600080fd5b505afa158015610dfe573d6000803e3d6000fd5b505050506040513d601f19601f82011682018060405250810190610e229190613855565b1015610e2d57600080fd5b60008060078781548110610e6a577f4e487b7100000000000000000000000000000000000000000000000000000000600052603260045260246000fd5b90600052602060002001541115610f2d57610e86868686611901565b90506000811415610e985750506115bd565b8173ffffffffffffffffffffffffffffffffffffffff166323b872dd3330846040518463ffffffff1660e01b8152600401610ed5939291906139e7565b602060405180830381600087803b158015610eef57600080fd5b505af1158015610f03573d6000803e3d6000fd5b505050506040513d601f19601f82011682018060405250810190610f2791906137da565b50610fbe565b8173ffffffffffffffffffffffffffffffffffffffff166323b872dd3330876040518463ffffffff1660e01b8152600401610f6a939291906139e7565b602060405180830381600087803b158015610f8457600080fd5b505af1158015610f98573d6000803e3d6000fd5b505050506040513d601f19601f82011682018060405250810190610fbc91906137da565b505b600e6000815480929190610fd190613d33565b919050555060006040518060e001604052803373ffffffffffffffffffffffffffffffffffffffff168152602001888152602001600e548152602001878152602001600084146110215783611023565b865b815260200160008152602001600081525090508060146000600e54815260200190815260200160002060008201518160000160006101000a81548173ffffffffffffffffffffffffffffffffffffffff021916908373ffffffffffffffffffffffffffffffffffffffff1602179055506020820151816001015560408201518160020155606082015181600301556080820151816004015560a0820151816005015560c0820151816006015590505060006008888154811061110e577f4e487b7100000000000000000000000000000000000000000000000000000000600052603260045260246000fd5b906000526020600020015414156111cc57600e546006888154811061115c577f4e487b7100000000000000000000000000000000000000000000000000000000600052603260045260246000fd5b9060005260206000200181905550600887815481106111a4577f4e487b7100000000000000000000000000000000000000000000000000000000600052603260045260246000fd5b9060005260206000200160008154809291906111bf90613d33565b91905055505050506115bd565b60006014600060068a8154811061120c577f4e487b7100000000000000000000000000000000000000000000000000000000600052603260045260246000fd5b90600052602060002001548152602001908152602001600020905080600301548710156112fe57816040015160068981548110611272577f4e487b7100000000000000000000000000000000000000000000000000000000600052603260045260246000fd5b906000526020600020018190555080600201548260a001818152505081604001518160060181905550600888815481106112d5577f4e487b7100000000000000000000000000000000000000000000000000000000600052603260045260246000fd5b9060005260206000200160008154809291906112f090613d33565b9190505550505050506115bd565b600081600501549050600081141561138f578260400151826005018190555081600201548360c001818152505060088981548110611365577f4e487b7100000000000000000000000000000000000000000000000000000000600052603260045260246000fd5b90600052602060002001600081548092919061138090613d33565b919050555050505050506115bd565b8860146000888152602001908152602001600020600101541480156113c95750876014600088815260200190815260200160002060030154105b156113d2578590505b5b87601460008381526020019081526020016000206003015410156114335760006014600083815260200190815260200160002060050154141561141557611433565b601460008281526020019081526020016000206005015490506113d3565b6000601460008381526020019081526020016000206005015414156114df5782604001516014600083815260200190815260200160002060050181905550808360c0018181525050600889815481106114b5577f4e487b7100000000000000000000000000000000000000000000000000000000600052603260045260246000fd5b9060005260206000200160008154809291906114d090613d33565b919050555050505050506115bd565b826040015160146000601460008581526020019081526020016000206006015481526020019081526020016000206005018190555060146000828152602001908152602001600020600601548360c0018181525050808360a00181815250508260400151601460008381526020019081526020016000206006018190555060088981548110611597577f4e487b7100000000000000000000000000000000000000000000000000000000600052603260045260246000fd5b9060005260206000200160008154809291906115b290613d33565b919050555050505050505b50505050565b6115cb612fca565b73ffffffffffffffffffffffffffffffffffffffff166115e961166f565b73ffffffffffffffffffffffffffffffffffffffff161461163f576040517f08c379a000000000000000000000000000000000000000000000000000000000815260040161163690613a82565b60405180910390fd5b6116496000612fd2565b565b6004818154811061165b57600080fd5b906000526020600020016000915090505481565b60008060009054906101000a900473ffffffffffffffffffffffffffffffffffffffff16905090565b6014600082815260200190815260200160002060000160009054906101000a900473ffffffffffffffffffffffffffffffffffffffff1673ffffffffffffffffffffffffffffffffffffffff163373ffffffffffffffffffffffffffffffffffffffff161461170657600080fd5b6006601460008381526020019081526020016000206001015481548110611756577f4e487b7100000000000000000000000000000000000000000000000000000000600052603260045260246000fd5b906000526020600020015481141561176d57600080fd5b6000601460008381526020019081526020016000206006015414156117ac576117ab6014600083815260200190815260200160002060010154613096565b5b600060146000838152602001908152602001600020600501541415611802576000601460006014600085815260200190815260200160002060060154815260200190815260200160002060050181905550611891565b601460008281526020019081526020016000206005015460146000601460008581526020019081526020016000206006015481526020019081526020016000206005018190555060146000828152602001908152602001600020600601546014600060146000858152602001908152602001600020600501548152602001908152602001600020600601819055505b60146000828152602001908152602001600020600080820160006101000a81549073ffffffffffffffffffffffffffffffffffffffff0219169055600182016000905560028201600090556003820160009055600482016000905560058201600090556006820160009055505050565b6000806003858154811061193e577f4e487b7100000000000000000000000000000000000000000000000000000000600052603260045260246000fd5b9060005260206000200160009054906101000a900473ffffffffffffffffffffffffffffffffffffffff169050828173ffffffffffffffffffffffffffffffffffffffff1663dd62ed3e33306040518363ffffffff1660e01b81526004016119a79291906139be565b60206040518083038186803b1580156119bf57600080fd5b505afa1580156119d3573d6000803e3d6000fd5b505050506040513d601f19601f820116820180604052508101906119f79190613855565b1015611a0257600080fd5b600060078681548110611a3e577f4e487b7100000000000000000000000000000000000000000000000000000000600052603260045260246000fd5b906000526020600020015411611a5357600080fd5b600060058681548110611a8f577f4e487b7100000000000000000000000000000000000000000000000000000000600052603260045260246000fd5b906000526020600020015490505b600084118015611ac25750846013600083815260200190815260200160002060030154115b15611f7257600060136000838152602001908152602001600020905084816004015410611d6457600160009054906101000a900473ffffffffffffffffffffffffffffffffffffffff1673ffffffffffffffffffffffffffffffffffffffff1663a9059cbb33611b3f846003015489612bb390919063ffffffff16565b6040518363ffffffff1660e01b8152600401611b5c929190613a1e565b602060405180830381600087803b158015611b7657600080fd5b505af1158015611b8a573d6000803e3d6000fd5b505050506040513d601f19601f82011682018060405250810190611bae91906137da565b508273ffffffffffffffffffffffffffffffffffffffff166323b872dd338360000160009054906101000a900473ffffffffffffffffffffffffffffffffffffffff16886040518463ffffffff1660e01b8152600401611c10939291906139e7565b602060405180830381600087803b158015611c2a57600080fd5b505af1158015611c3e573d6000803e3d6000fd5b505050506040513d601f19601f82011682018060405250810190611c6291906137da565b50611c7a858260040154612bc990919063ffffffff16565b8160040181905550600081600401541415611cfd5760136000838152602001908152602001600020600080820160006101000a81549073ffffffffffffffffffffffffffffffffffffffff021916905560018201600090556002820160009055600382016000905560048201600090556005820160009055600682016000905550505b600a8781548110611d37577f4e487b7100000000000000000000000000000000000000000000000000000000600052603260045260246000fd5b9060005260206000200154431115611d5857611d57878260030154612bdf565b5b60009350505050611f78565b600160009054906101000a900473ffffffffffffffffffffffffffffffffffffffff1673ffffffffffffffffffffffffffffffffffffffff1663a9059cbb33611dbe84600301548560040154612bb390919063ffffffff16565b6040518363ffffffff1660e01b8152600401611ddb929190613a1e565b602060405180830381600087803b158015611df557600080fd5b505af1158015611e09573d6000803e3d6000fd5b505050506040513d601f19601f82011682018060405250810190611e2d91906137da565b508273ffffffffffffffffffffffffffffffffffffffff166323b872dd338360000160009054906101000a900473ffffffffffffffffffffffffffffffffffffffff1684600401546040518463ffffffff1660e01b8152600401611e93939291906139e7565b602060405180830381600087803b158015611ead57600080fd5b505af1158015611ec1573d6000803e3d6000fd5b505050506040513d601f19601f82011682018060405250810190611ee591906137da565b50611efd816004015486612bc990919063ffffffff16565b945060136000838152602001908152602001600020600080820160006101000a81549073ffffffffffffffffffffffffffffffffffffffff0219169055600182016000905560028201600090556003820160009055600482016000905560058201600090556006820160009055505050611a9d565b83925050505b9392505050565b60078181548110611f8f57600080fd5b906000526020600020016000915090505481565b611fab612fca565b73ffffffffffffffffffffffffffffffffffffffff16611fc961166f565b73ffffffffffffffffffffffffffffffffffffffff161461201f576040517f08c379a000000000000000000000000000000000000000000000000000000000815260040161201690613a82565b60405180910390fd5b6003829080600181540180825580915050600190039060005260206000200160009091909190916101000a81548173ffffffffffffffffffffffffffffffffffffffff021916908373ffffffffffffffffffffffffffffffffffffffff160217905550600c819080600181540180825580915050600190039060005260206000200160009091909190915055600560009080600181540180825580915050600190039060005260206000200160009091909190915055600660009080600181540180825580915050600190039060005260206000200160009091909190915055600760009080600181540180825580915050600190039060005260206000200160009091909190915055600460009080600181540180825580915050600190039060005260206000200160009091909190915055600b60009080600181540180825580915050600190039060005260206000200160009091909190915055600a6000908060018154018082558091505060019003906000526020600020016000909190919091505560096040518060a00160405280600060ff168152602001600060ff168152602001600060ff168152602001600060ff168152602001600060ff168152509080600181540180825580915050600190039060005260206000200160009091909190915090600561221792919061369d565b505050565b61222f8383612bb390919063ffffffff16565b600160009054906101000a900473ffffffffffffffffffffffffffffffffffffffff1673ffffffffffffffffffffffffffffffffffffffff1663dd62ed3e33306040518363ffffffff1660e01b815260040161228c9291906139be565b60206040518083038186803b1580156122a457600080fd5b505afa1580156122b8573d6000803e3d6000fd5b505050506040513d601f19601f820116820180604052508101906122dc9190613855565b10156122e757600080fd5b60008060088681548110612324577f4e487b7100000000000000000000000000000000000000000000000000000000600052603260045260246000fd5b90600052602060002001541115612408576123408585856103b8565b905060008114156123515750612ab5565b600160009054906101000a900473ffffffffffffffffffffffffffffffffffffffff1673ffffffffffffffffffffffffffffffffffffffff166323b872dd3330846040518463ffffffff1660e01b81526004016123b0939291906139e7565b602060405180830381600087803b1580156123ca57600080fd5b505af11580156123de573d6000803e3d6000fd5b505050506040513d601f19601f8201168201806040525081019061240291906137da565b506124bb565b600160009054906101000a900473ffffffffffffffffffffffffffffffffffffffff1673ffffffffffffffffffffffffffffffffffffffff166323b872dd3330866040518463ffffffff1660e01b8152600401612467939291906139e7565b602060405180830381600087803b15801561248157600080fd5b505af1158015612495573d6000803e3d6000fd5b505050506040513d601f19601f820116820180604052508101906124b991906137da565b505b600d60008154809291906124ce90613d33565b919050555060006040518060e001604052803373ffffffffffffffffffffffffffffffffffffffff168152602001878152602001600d5481526020018681526020016000841461251e5783612520565b855b815260200160008152602001600081525090508060136000600d54815260200190815260200160002060008201518160000160006101000a81548173ffffffffffffffffffffffffffffffffffffffff021916908373ffffffffffffffffffffffffffffffffffffffff1602179055506020820151816001015560408201518160020155606082015181600301556080820151816004015560a0820151816005015560c0820151816006015590505060006007878154811061260b577f4e487b7100000000000000000000000000000000000000000000000000000000600052603260045260246000fd5b906000526020600020015414156126c857600d5460058781548110612659577f4e487b7100000000000000000000000000000000000000000000000000000000600052603260045260246000fd5b9060005260206000200181905550600786815481106126a1577f4e487b7100000000000000000000000000000000000000000000000000000000600052603260045260246000fd5b9060005260206000200160008154809291906126bc90613d33565b91905055505050612ab5565b60006013600060058981548110612708577f4e487b7100000000000000000000000000000000000000000000000000000000600052603260045260246000fd5b90600052602060002001548152602001908152602001600020905080600301548611156127f95781604001516005888154811061276e577f4e487b7100000000000000000000000000000000000000000000000000000000600052603260045260246000fd5b906000526020600020018190555080600201548260a001818152505081604001518160060181905550600787815481106127d1577f4e487b7100000000000000000000000000000000000000000000000000000000600052603260045260246000fd5b9060005260206000200160008154809291906127ec90613d33565b9190505550505050612ab5565b6000816005015490506000811415612889578260400151826005018190555081600201548360c001818152505060078881548110612860577f4e487b7100000000000000000000000000000000000000000000000000000000600052603260045260246000fd5b90600052602060002001600081548092919061287b90613d33565b919050555050505050612ab5565b8760136000878152602001908152602001600020600101541480156128c35750866013600087815260200190815260200160002060030154115b156128cc578490505b5b866013600083815260200190815260200160002060030154111561292d5760006013600083815260200190815260200160002060050154141561290f5761292d565b601360008281526020019081526020016000206005015490506128cd565b6000601360008381526020019081526020016000206005015414156129d85782604001516013600083815260200190815260200160002060050181905550808360c0018181525050600788815481106129af577f4e487b7100000000000000000000000000000000000000000000000000000000600052603260045260246000fd5b9060005260206000200160008154809291906129ca90613d33565b919050555050505050612ab5565b826040015160136000601360008581526020019081526020016000206006015481526020019081526020016000206005018190555060136000828152602001908152602001600020600601548360c0018181525050808360a00181815250508260400151601360008381526020019081526020016000206006018190555060078881548110612a90577f4e487b7100000000000000000000000000000000000000000000000000000000600052603260045260246000fd5b906000526020600020016000815480929190612aab90613d33565b9190505550505050505b50505050565b612ac3612fca565b73ffffffffffffffffffffffffffffffffffffffff16612ae161166f565b73ffffffffffffffffffffffffffffffffffffffff1614612b37576040517f08c379a0000000000000000000000000000000000000000000000000000000008152600401612b2e90613a82565b60405180910390fd5b600073ffffffffffffffffffffffffffffffffffffffff168173ffffffffffffffffffffffffffffffffffffffff161415612ba7576040517f08c379a0000000000000000000000000000000000000000000000000000000008152600401612b9e90613a62565b60405180910390fd5b612bb081612fd2565b50565b60008183612bc19190613bbf565b905092915050565b60008183612bd79190613cad565b905092915050565b612bf66011546010546131e190919063ffffffff16565b4210612c0557612c046131f7565b5b60098281548110612c3f577f4e487b7100000000000000000000000000000000000000000000000000000000600052603260045260246000fd5b9060005260206000200180549050600b8381548110612c87577f4e487b7100000000000000000000000000000000000000000000000000000000600052603260045260246000fd5b90600052602060002001541015612d6c578060098381548110612cd3577f4e487b7100000000000000000000000000000000000000000000000000000000600052603260045260246000fd5b90600052602060002001600b8481548110612d17577f4e487b7100000000000000000000000000000000000000000000000000000000600052603260045260246000fd5b906000526020600020015481548110612d59577f4e487b7100000000000000000000000000000000000000000000000000000000600052603260045260246000fd5b9060005260206000200181905550612dd8565b60098281548110612da6577f4e487b7100000000000000000000000000000000000000000000000000000000600052603260045260246000fd5b906000526020600020018190806001815401808255809150506001900390600052602060002001600090919091909150555b600b8281548110612e12577f4e487b7100000000000000000000000000000000000000000000000000000000600052603260045260246000fd5b906000526020600020016000815480929190612e2d90613d33565b919050555043600a8381548110612e6d577f4e487b7100000000000000000000000000000000000000000000000000000000600052603260045260246000fd5b90600052602060002001819055505050565b600060058281548110612ebb577f4e487b7100000000000000000000000000000000000000000000000000000000600052603260045260246000fd5b90600052602060002001549050601360008281526020019081526020016000206005015460058381548110612f19577f4e487b7100000000000000000000000000000000000000000000000000000000600052603260045260246000fd5b9060005260206000200181905550600060136000601360008581526020019081526020016000206005015481526020019081526020016000206006018190555060136000828152602001908152602001600020600080820160006101000a81549073ffffffffffffffffffffffffffffffffffffffff021916905560018201600090556002820160009055600382016000905560048201600090556005820160009055600682016000905550505050565b600033905090565b60008060009054906101000a900473ffffffffffffffffffffffffffffffffffffffff169050816000806101000a81548173ffffffffffffffffffffffffffffffffffffffff021916908373ffffffffffffffffffffffffffffffffffffffff1602179055508173ffffffffffffffffffffffffffffffffffffffff168173ffffffffffffffffffffffffffffffffffffffff167f8be0079c531659141344cd1fd0a4f28419497f9722a3daafe3b4186f6b6457e060405160405180910390a35050565b6000600682815481106130d2577f4e487b7100000000000000000000000000000000000000000000000000000000600052603260045260246000fd5b90600052602060002001549050601460008281526020019081526020016000206005015460068381548110613130577f4e487b7100000000000000000000000000000000000000000000000000000000600052603260045260246000fd5b9060005260206000200181905550600060146000601460008581526020019081526020016000206005015481526020019081526020016000206006018190555060146000828152602001908152602001600020600080820160006101000a81549073ffffffffffffffffffffffffffffffffffffffff021916905560018201600090556002820160009055600382016000905560048201600090556005820160009055600682016000905550505050565b600081836131ef9190613ace565b905092915050565b60005b600380549050811015613468576132108161346b565b60006004828154811061324c577f4e487b7100000000000000000000000000000000000000000000000000000000600052603260045260246000fd5b906000526020600020015490506000600260009054906101000a900473ffffffffffffffffffffffffffffffffffffffff1673ffffffffffffffffffffffffffffffffffffffff1663f30d3d1b600c85815481106132d3577f4e487b7100000000000000000000000000000000000000000000000000000000600052603260045260246000fd5b90600052602060002001546040518263ffffffff1660e01b81526004016132fa9190613aa2565b60206040518083038186803b15801561331257600080fd5b505afa158015613326573d6000803e3d6000fd5b505050506040513d601f19601f8201168201806040525081019061334a9190613803565b90506000613361828461365b90919063ffffffff16565b9050600061337a6012548361367190919063ffffffff16565b90506000600386815481106133b8577f4e487b7100000000000000000000000000000000000000000000000000000000600052603260045260246000fd5b9060005260206000200160009054906101000a900473ffffffffffffffffffffffffffffffffffffffff1690508073ffffffffffffffffffffffffffffffffffffffff16636d085490836040518263ffffffff1660e01b815260040161341e9190613a47565b600060405180830381600087803b15801561343857600080fd5b505af115801561344c573d6000803e3d6000fd5b505050505050505050808061346090613d33565b9150506131fa565b50565b600080600090505b600b83815481106134ad577f4e487b7100000000000000000000000000000000000000000000000000000000600052603260045260246000fd5b906000526020600020015481101561356d57613558600984815481106134fc577f4e487b7100000000000000000000000000000000000000000000000000000000600052603260045260246000fd5b90600052602060002001828154811061353e577f4e487b7100000000000000000000000000000000000000000000000000000000600052603260045260246000fd5b9060005260206000200154836131e190919063ffffffff16565b9150808061356590613d33565b915050613473565b506135c5600b83815481106135ab577f4e487b7100000000000000000000000000000000000000000000000000000000600052603260045260246000fd5b90600052602060002001548261368790919063ffffffff16565b600483815481106135ff577f4e487b7100000000000000000000000000000000000000000000000000000000600052603260045260246000fd5b90600052602060002001819055506000600b8381548110613649577f4e487b7100000000000000000000000000000000000000000000000000000000600052603260045260246000fd5b90600052602060002001819055505050565b600081836136699190613c19565b905092915050565b6000818361367f9190613b24565b905092915050565b600081836136959190613b8e565b905092915050565b8280548282559060005260206000209081019282156136de579160200282015b828111156136dd578251829060ff169055916020019190600101906136bd565b5b5090506136eb91906136ef565b5090565b5b808211156137085760008160009055506001016136f0565b5090565b60008135905061371b81613e52565b92915050565b60008151905061373081613e69565b92915050565b60008151905061374581613e80565b92915050565b60008135905061375a81613e97565b92915050565b60008151905061376f81613e97565b92915050565b60006020828403121561378757600080fd5b60006137958482850161370c565b91505092915050565b600080604083850312156137b157600080fd5b60006137bf8582860161370c565b92505060206137d08582860161374b565b9150509250929050565b6000602082840312156137ec57600080fd5b60006137fa84828501613721565b91505092915050565b60006020828403121561381557600080fd5b600061382384828501613736565b91505092915050565b60006020828403121561383e57600080fd5b600061384c8482850161374b565b91505092915050565b60006020828403121561386757600080fd5b600061387584828501613760565b91505092915050565b60008060006060848603121561389357600080fd5b60006138a18682870161374b565b93505060206138b28682870161374b565b92505060406138c38682870161374b565b9150509250925092565b600080600080608085870312156138e357600080fd5b60006138f18782880161374b565b94505060206139028782880161374b565b93505060406139138782880161374b565b92505060606139248782880161374b565b91505092959194509250565b61393981613ce1565b82525050565b61394881613cff565b82525050565b600061395b602683613abd565b915061396682613dda565b604082019050919050565b600061397e602083613abd565b915061398982613e29565b602082019050919050565b61399d81613d29565b82525050565b60006020820190506139b86000830184613930565b92915050565b60006040820190506139d36000830185613930565b6139e06020830184613930565b9392505050565b60006060820190506139fc6000830186613930565b613a096020830185613930565b613a166040830184613994565b949350505050565b6000604082019050613a336000830185613930565b613a406020830184613994565b9392505050565b6000602082019050613a5c600083018461393f565b92915050565b60006020820190508181036000830152613a7b8161394e565b9050919050565b60006020820190508181036000830152613a9b81613971565b9050919050565b6000602082019050613ab76000830184613994565b92915050565b600082825260208201905092915050565b6000613ad982613d29565b9150613ae483613d29565b9250827fffffffffffffffffffffffffffffffffffffffffffffffffffffffffffffffff03821115613b1957613b18613d7c565b5b828201905092915050565b6000613b2f82613cff565b9150613b3a83613cff565b925082613b4a57613b49613dab565b5b600160000383147f800000000000000000000000000000000000000000000000000000000000000083141615613b8357613b82613d7c565b5b828205905092915050565b6000613b9982613d29565b9150613ba483613d29565b925082613bb457613bb3613dab565b5b828204905092915050565b6000613bca82613d29565b9150613bd583613d29565b9250817fffffffffffffffffffffffffffffffffffffffffffffffffffffffffffffffff0483118215151615613c0e57613c0d613d7c565b5b828202905092915050565b6000613c2482613cff565b9150613c2f83613cff565b9250827f800000000000000000000000000000000000000000000000000000000000000001821260008412151615613c6a57613c69613d7c565b5b827f7fffffffffffffffffffffffffffffffffffffffffffffffffffffffffffffff018213600084121615613ca257613ca1613d7c565b5b828203905092915050565b6000613cb882613d29565b9150613cc383613d29565b925082821015613cd657613cd5613d7c565b5b828203905092915050565b6000613cec82613d09565b9050919050565b60008115159050919050565b6000819050919050565b600073ffffffffffffffffffffffffffffffffffffffff82169050919050565b6000819050919050565b6000613d3e82613d29565b91507fffffffffffffffffffffffffffffffffffffffffffffffffffffffffffffffff821415613d7157613d70613d7c565b5b600182019050919050565b7f4e487b7100000000000000000000000000000000000000000000000000000000600052601160045260246000fd5b7f4e487b7100000000000000000000000000000000000000000000000000000000600052601260045260246000fd5b7f4f776e61626c653a206e6577206f776e657220697320746865207a65726f206160008201527f6464726573730000000000000000000000000000000000000000000000000000602082015250565b7f4f776e61626c653a2063616c6c6572206973206e6f7420746865206f776e6572600082015250565b613e5b81613ce1565b8114613e6657600080fd5b50565b613e7281613cf3565b8114613e7d57600080fd5b50565b613e8981613cff565b8114613e9457600080fd5b50565b613ea081613d29565b8114613eab57600080fd5b5056fea2646970667358221220cbe16b65e761d1d7f3bd1c20192b3bf7e975454244366a4afbed06cda10c90f864736f6c63430008040033",
  "linkReferences": {},
  "deployedLinkReferences": {}
}