{
  "_format": "hh-sol-artifact-1",
  "contractName": "OrderBook",
  "sourceName": "contracts/OrderBook/OrderBook.sol",
  "abi": [
    {
      "inputs": [
        {
          "internalType": "address[]",
          "name": "_FxPerpetuals",
          "type": "address[]"
        },
        {
          "internalType": "address[]",
          "name": "_Vaults",
          "type": "address[]"
        },
        {
          "internalType": "uint256[]",
          "name": "_baseTokenInfoArray",
          "type": "uint256[]"
        },
        {
          "internalType": "uint256[]",
          "name": "_oracleIndices",
          "type": "uint256[]"
        },
        {
          "internalType": "address",
          "name": "_USD",
          "type": "address"
        },
        {
          "internalType": "address",
          "name": "_Oracle",
          "type": "address"
        }
      ],
      "stateMutability": "nonpayable",
      "type": "constructor"
    },
    {
      "anonymous": false,
      "inputs": [
        {
          "indexed": true,
          "internalType": "address",
          "name": "previousOwner",
          "type": "address"
        },
        {
          "indexed": true,
          "internalType": "address",
          "name": "newOwner",
          "type": "address"
        }
      ],
      "name": "OwnershipTransferred",
      "type": "event"
    },
    {
      "inputs": [
        {
          "internalType": "uint256",
          "name": "",
          "type": "uint256"
        }
      ],
      "name": "FxPerpetuals",
      "outputs": [
        {
          "internalType": "address",
          "name": "",
          "type": "address"
        }
      ],
      "stateMutability": "view",
      "type": "function"
    },
    {
      "inputs": [
        {
          "internalType": "uint256",
          "name": "",
          "type": "uint256"
        }
      ],
      "name": "TWAPs",
      "outputs": [
        {
          "internalType": "uint256",
          "name": "",
          "type": "uint256"
        }
      ],
      "stateMutability": "view",
      "type": "function"
    },
    {
      "inputs": [
        {
          "internalType": "uint256",
          "name": "",
          "type": "uint256"
        }
      ],
      "name": "Vaults",
      "outputs": [
        {
          "internalType": "address",
          "name": "",
          "type": "address"
        }
      ],
      "stateMutability": "view",
      "type": "function"
    },
    {
      "inputs": [
        {
          "internalType": "address",
          "name": "_perpetual",
          "type": "address"
        },
        {
          "internalType": "address",
          "name": "_vault",
          "type": "address"
        },
        {
          "internalType": "uint256",
          "name": "_oracleIndex",
          "type": "uint256"
        }
      ],
      "name": "addFxPerpetual",
      "outputs": [],
      "stateMutability": "nonpayable",
      "type": "function"
    },
    {
      "inputs": [
        {
          "internalType": "uint256",
          "name": "",
          "type": "uint256"
        }
      ],
      "name": "buyHeads",
      "outputs": [
        {
          "internalType": "uint256",
          "name": "",
          "type": "uint256"
        }
      ],
      "stateMutability": "view",
      "type": "function"
    },
    {
      "inputs": [
        {
          "internalType": "uint256",
          "name": "_ID",
          "type": "uint256"
        }
      ],
      "name": "deleteBuy",
      "outputs": [],
      "stateMutability": "nonpayable",
      "type": "function"
    },
    {
      "inputs": [
        {
          "internalType": "uint256",
          "name": "_ID",
          "type": "uint256"
        }
      ],
      "name": "deleteSell",
      "outputs": [],
      "stateMutability": "nonpayable",
      "type": "function"
    },
    {
      "inputs": [
        {
          "internalType": "uint256",
          "name": "_tokenIndex",
          "type": "uint256"
        },
        {
          "internalType": "uint256",
          "name": "_price",
          "type": "uint256"
        },
        {
          "internalType": "uint256",
          "name": "_volume",
          "type": "uint256"
        },
        {
          "internalType": "uint256",
          "name": "_targetInsertion",
          "type": "uint256"
        }
      ],
      "name": "limitBuy",
      "outputs": [],
      "stateMutability": "nonpayable",
      "type": "function"
    },
    {
      "inputs": [
        {
          "internalType": "uint256",
          "name": "_tokenIndex",
          "type": "uint256"
        },
        {
          "internalType": "uint256",
          "name": "_price",
          "type": "uint256"
        },
        {
          "internalType": "uint256",
          "name": "_volume",
          "type": "uint256"
        },
        {
          "internalType": "uint256",
          "name": "_targetInsertion",
          "type": "uint256"
        }
      ],
      "name": "limitSell",
      "outputs": [],
      "stateMutability": "nonpayable",
      "type": "function"
    },
    {
      "inputs": [
        {
          "internalType": "uint256",
          "name": "_tokenIndex",
          "type": "uint256"
        },
        {
          "internalType": "uint256",
          "name": "_maxPrice",
          "type": "uint256"
        },
        {
          "internalType": "uint256",
          "name": "_volume",
          "type": "uint256"
        }
      ],
      "name": "marketBuy",
      "outputs": [
        {
          "internalType": "uint256",
          "name": "",
          "type": "uint256"
        }
      ],
      "stateMutability": "nonpayable",
      "type": "function"
    },
    {
      "inputs": [
        {
          "internalType": "uint256",
          "name": "_tokenIndex",
          "type": "uint256"
        },
        {
          "internalType": "uint256",
          "name": "_minPrice",
          "type": "uint256"
        },
        {
          "internalType": "uint256",
          "name": "_volume",
          "type": "uint256"
        }
      ],
      "name": "marketSell",
      "outputs": [
        {
          "internalType": "uint256",
          "name": "",
          "type": "uint256"
        }
      ],
      "stateMutability": "nonpayable",
      "type": "function"
    },
    {
      "inputs": [
        {
          "internalType": "uint256",
          "name": "",
          "type": "uint256"
        }
      ],
      "name": "openBuyOrders",
      "outputs": [
        {
          "internalType": "uint256",
          "name": "",
          "type": "uint256"
        }
      ],
      "stateMutability": "view",
      "type": "function"
    },
    {
      "inputs": [
        {
          "internalType": "uint256",
          "name": "",
          "type": "uint256"
        }
      ],
      "name": "openSellOrders",
      "outputs": [
        {
          "internalType": "uint256",
          "name": "",
          "type": "uint256"
        }
      ],
      "stateMutability": "view",
      "type": "function"
    },
    {
      "inputs": [],
      "name": "owner",
      "outputs": [
        {
          "internalType": "address",
          "name": "",
          "type": "address"
        }
      ],
      "stateMutability": "view",
      "type": "function"
    },
    {
      "inputs": [],
      "name": "renounceOwnership",
      "outputs": [],
      "stateMutability": "nonpayable",
      "type": "function"
    },
    {
      "inputs": [
        {
          "internalType": "uint256",
          "name": "",
          "type": "uint256"
        }
      ],
      "name": "sellHeads",
      "outputs": [
        {
          "internalType": "uint256",
          "name": "",
          "type": "uint256"
        }
      ],
      "stateMutability": "view",
      "type": "function"
    },
    {
      "inputs": [
        {
          "internalType": "address",
          "name": "newOwner",
          "type": "address"
        }
      ],
      "name": "transferOwnership",
      "outputs": [],
      "stateMutability": "nonpayable",
      "type": "function"
    }
  ],
  "bytecode": "0x60806040523480156200001157600080fd5b50604051620048a0380380620048a083398181016040528101906200003791906200053d565b620000576200004b620001ff60201b60201c565b6200020760201b60201c565b85600390805190602001906200006f929190620002cb565b50846004908051906020019062000088929190620002cb565b5081600160006101000a81548173ffffffffffffffffffffffffffffffffffffffff021916908373ffffffffffffffffffffffffffffffffffffffff16021790555080600260006101000a81548173ffffffffffffffffffffffffffffffffffffffff021916908373ffffffffffffffffffffffffffffffffffffffff1602179055508360059080519060200190620001239291906200035a565b5083600690805190602001906200013c9291906200035a565b508360079080519060200190620001559291906200035a565b5083600890805190602001906200016e9291906200035a565b508360099080519060200190620001879291906200035a565b5083600b9080519060200190620001a09291906200035a565b5083600c9080519060200190620001b99291906200035a565b5082600d9080519060200190620001d29291906200035a565b50670de0b6b3a7640000601081905550610e106012819055506018601381905550505050505050620007a6565b600033905090565b60008060009054906101000a900473ffffffffffffffffffffffffffffffffffffffff169050816000806101000a81548173ffffffffffffffffffffffffffffffffffffffff021916908373ffffffffffffffffffffffffffffffffffffffff1602179055508173ffffffffffffffffffffffffffffffffffffffff168173ffffffffffffffffffffffffffffffffffffffff167f8be0079c531659141344cd1fd0a4f28419497f9722a3daafe3b4186f6b6457e060405160405180910390a35050565b82805482825590600052602060002090810192821562000347579160200282015b82811115620003465782518260006101000a81548173ffffffffffffffffffffffffffffffffffffffff021916908373ffffffffffffffffffffffffffffffffffffffff16021790555091602001919060010190620002ec565b5b509050620003569190620003ac565b5090565b82805482825590600052602060002090810192821562000399579160200282015b82811115620003985782518255916020019190600101906200037b565b5b509050620003a89190620003ac565b5090565b5b80821115620003c7576000816000905550600101620003ad565b5090565b6000620003e2620003dc8462000660565b62000637565b905080838252602082019050828560208602820111156200040257600080fd5b60005b858110156200043657816200041b8882620004b5565b84526020840193506020830192505060018101905062000405565b5050509392505050565b60006200045762000451846200068f565b62000637565b905080838252602082019050828560208602820111156200047757600080fd5b60005b85811015620004ab578162000490888262000526565b8452602084019350602083019250506001810190506200047a565b5050509392505050565b600081519050620004c68162000772565b92915050565b600082601f830112620004de57600080fd5b8151620004f0848260208601620003cb565b91505092915050565b600082601f8301126200050b57600080fd5b81516200051d84826020860162000440565b91505092915050565b60008151905062000537816200078c565b92915050565b60008060008060008060c087890312156200055757600080fd5b600087015167ffffffffffffffff8111156200057257600080fd5b6200058089828a01620004cc565b965050602087015167ffffffffffffffff8111156200059e57600080fd5b620005ac89828a01620004cc565b955050604087015167ffffffffffffffff811115620005ca57600080fd5b620005d889828a01620004f9565b945050606087015167ffffffffffffffff811115620005f657600080fd5b6200060489828a01620004f9565b93505060806200061789828a01620004b5565b92505060a06200062a89828a01620004b5565b9150509295509295509295565b60006200064362000656565b9050620006518282620006fc565b919050565b6000604051905090565b600067ffffffffffffffff8211156200067e576200067d62000732565b5b602082029050602081019050919050565b600067ffffffffffffffff821115620006ad57620006ac62000732565b5b602082029050602081019050919050565b6000620006cb82620006d2565b9050919050565b600073ffffffffffffffffffffffffffffffffffffffff82169050919050565b6000819050919050565b620007078262000761565b810181811067ffffffffffffffff8211171562000729576200072862000732565b5b80604052505050565b7f4e487b7100000000000000000000000000000000000000000000000000000000600052604160045260246000fd5b6000601f19601f8301169050919050565b6200077d81620006be565b81146200078957600080fd5b50565b6200079781620006f2565b8114620007a357600080fd5b50565b6140ea80620007b66000396000f3fe608060405234801561001057600080fd5b506004361061010b5760003560e01c8063715018a6116100a2578063b55e091211610071578063b55e0912146102dc578063c224e7281461030c578063d6d423d814610328578063f0768cf714610358578063f2fde38b146103745761010b565b8063715018a614610268578063804cda46146102725780638da5cb5b146102a25780639ff1549c146102c05761010b565b806359d5445b116100de57806359d5445b146101d05780635aca8415146101ec5780635c285acb1461021c5780636ba755ef1461024c5761010b565b80631bed7a811461011057806335460d92146101405780633c8e5d4414610170578063476d4f3f146101a0575b600080fd5b61012a600480360381019061012591906139c8565b610390565b6040516101379190613b30565b60405180910390f35b61015a600480360381019061015591906139c8565b6103cf565b6040516101679190613c14565b60405180910390f35b61018a60048036038101906101859190613a1a565b6103f3565b6040516101979190613c14565b60405180910390f35b6101ba60048036038101906101b591906139c8565b610acd565b6040516101c79190613c14565b60405180910390f35b6101ea60048036038101906101e591906139c8565b610af1565b005b610206600480360381019061020191906139c8565b610d5a565b6040516102139190613b30565b60405180910390f35b610236600480360381019061023191906139c8565b610d99565b6040516102439190613c14565b60405180910390f35b61026660048036038101906102619190613a69565b610dbd565b005b610270611679565b005b61028c600480360381019061028791906139c8565b611701565b6040516102999190613c14565b60405180910390f35b6102aa611725565b6040516102b79190613b30565b60405180910390f35b6102da60048036038101906102d591906139c8565b61174e565b005b6102f660048036038101906102f19190613a1a565b6119b7565b6040516103039190613c14565b60405180910390f35b61032660048036038101906103219190613927565b61205d565b005b610342600480360381019061033d91906139c8565b61233a565b60405161034f9190613c14565b60405180910390f35b610372600480360381019061036d9190613a69565b61235e565b005b61038e600480360381019061038991906138fe565b612c11565b005b600381815481106103a057600080fd5b906000526020600020016000915054906101000a900473ffffffffffffffffffffffffffffffffffffffff1681565b600781815481106103df57600080fd5b906000526020600020016000915090505481565b60008060038581548110610430577f4e487b7100000000000000000000000000000000000000000000000000000000600052603260045260246000fd5b9060005260206000200160009054906101000a900473ffffffffffffffffffffffffffffffffffffffff1690506104708385612d0990919063ffffffff16565b600160009054906101000a900473ffffffffffffffffffffffffffffffffffffffff1673ffffffffffffffffffffffffffffffffffffffff1663dd62ed3e33306040518363ffffffff1660e01b81526004016104cd929190613b4b565b60206040518083038186803b1580156104e557600080fd5b505afa1580156104f9573d6000803e3d6000fd5b505050506040513d601f19601f8201168201806040525081019061051d91906139f1565b101561052857600080fd5b600060098681548110610564577f4e487b7100000000000000000000000000000000000000000000000000000000600052603260045260246000fd5b90600052602060002001541161057957600080fd5b6000600786815481106105b5577f4e487b7100000000000000000000000000000000000000000000000000000000600052603260045260246000fd5b906000526020600020015490505b6000841180156105e85750846015600083815260200190815260200160002060030154105b15610ac05760006015600083815260200190815260200160002090508481600401541061089e57600160009054906101000a900473ffffffffffffffffffffffffffffffffffffffff1673ffffffffffffffffffffffffffffffffffffffff166323b872dd338360000160009054906101000a900473ffffffffffffffffffffffffffffffffffffffff1661069e60105461069087600301548c612d0990919063ffffffff16565b612d1f90919063ffffffff16565b6040518463ffffffff1660e01b81526004016106bc93929190613b74565b602060405180830381600087803b1580156106d657600080fd5b505af11580156106ea573d6000803e3d6000fd5b505050506040513d601f19601f8201168201806040525081019061070e9190613976565b508273ffffffffffffffffffffffffffffffffffffffff1663a9059cbb33876040518363ffffffff1660e01b815260040161074a929190613bab565b602060405180830381600087803b15801561076457600080fd5b505af1158015610778573d6000803e3d6000fd5b505050506040513d601f19601f8201168201806040525081019061079c9190613976565b506107b4858260040154612d3590919063ffffffff16565b81600401819055506000816004015414156108375760156000838152602001908152602001600020600080820160006101000a81549073ffffffffffffffffffffffffffffffffffffffff021916905560018201600090556002820160009055600382016000905560048201600090556005820160009055600682016000905550505b600b8781548110610871577f4e487b7100000000000000000000000000000000000000000000000000000000600052603260045260246000fd5b906000526020600020015443111561089257610891878260030154612d4b565b5b60009350505050610ac6565b600160009054906101000a900473ffffffffffffffffffffffffffffffffffffffff1673ffffffffffffffffffffffffffffffffffffffff166323b872dd338360000160009054906101000a900473ffffffffffffffffffffffffffffffffffffffff1661093160105461092387600301548860040154612d0990919063ffffffff16565b612d1f90919063ffffffff16565b6040518463ffffffff1660e01b815260040161094f93929190613b74565b602060405180830381600087803b15801561096957600080fd5b505af115801561097d573d6000803e3d6000fd5b505050506040513d601f19601f820116820180604052508101906109a19190613976565b508273ffffffffffffffffffffffffffffffffffffffff1663a9059cbb3383600401546040518363ffffffff1660e01b81526004016109e1929190613bab565b602060405180830381600087803b1580156109fb57600080fd5b505af1158015610a0f573d6000803e3d6000fd5b505050506040513d601f19601f82011682018060405250810190610a339190613976565b50610a4b816004015486612d3590919063ffffffff16565b945060156000838152602001908152602001600020600080820160006101000a81549073ffffffffffffffffffffffffffffffffffffffff02191690556001820160009055600282016000905560038201600090556004820160009055600582016000905560068201600090555050506105c3565b83925050505b9392505050565b60068181548110610add57600080fd5b906000526020600020016000915090505481565b6014600082815260200190815260200160002060000160009054906101000a900473ffffffffffffffffffffffffffffffffffffffff1673ffffffffffffffffffffffffffffffffffffffff163373ffffffffffffffffffffffffffffffffffffffff1614610b5f57600080fd5b6006601460008381526020019081526020016000206001015481548110610baf577f4e487b7100000000000000000000000000000000000000000000000000000000600052603260045260246000fd5b9060005260206000200154811415610bc657600080fd5b600060146000838152602001908152602001600020600601541415610c0557610c046014600083815260200190815260200160002060010154612feb565b5b600060146000838152602001908152602001600020600501541415610c5b576000601460006014600085815260200190815260200160002060060154815260200190815260200160002060050181905550610cea565b601460008281526020019081526020016000206005015460146000601460008581526020019081526020016000206006015481526020019081526020016000206005018190555060146000828152602001908152602001600020600601546014600060146000858152602001908152602001600020600501548152602001908152602001600020600601819055505b60146000828152602001908152602001600020600080820160006101000a81549073ffffffffffffffffffffffffffffffffffffffff0219169055600182016000905560028201600090556003820160009055600482016000905560058201600090556006820160009055505050565b60048181548110610d6a57600080fd5b906000526020600020016000915054906101000a900473ffffffffffffffffffffffffffffffffffffffff1681565b60098181548110610da957600080fd5b906000526020600020016000915090505481565b600060038581548110610df9577f4e487b7100000000000000000000000000000000000000000000000000000000600052603260045260246000fd5b9060005260206000200160009054906101000a900473ffffffffffffffffffffffffffffffffffffffff169050610e4d601054610e3f8686612d0990919063ffffffff16565b612d1f90919063ffffffff16565b8173ffffffffffffffffffffffffffffffffffffffff1663dd62ed3e33306040518363ffffffff1660e01b8152600401610e88929190613b4b565b60206040518083038186803b158015610ea057600080fd5b505afa158015610eb4573d6000803e3d6000fd5b505050506040513d601f19601f82011682018060405250810190610ed891906139f1565b1015610ee357600080fd5b60008060088781548110610f20577f4e487b7100000000000000000000000000000000000000000000000000000000600052603260045260246000fd5b90600052602060002001541115610fe357610f3c8686866119b7565b90506000811415610f4e575050611673565b8173ffffffffffffffffffffffffffffffffffffffff166323b872dd3330846040518463ffffffff1660e01b8152600401610f8b93929190613b74565b602060405180830381600087803b158015610fa557600080fd5b505af1158015610fb9573d6000803e3d6000fd5b505050506040513d601f19601f82011682018060405250810190610fdd9190613976565b50611074565b8173ffffffffffffffffffffffffffffffffffffffff166323b872dd3330876040518463ffffffff1660e01b815260040161102093929190613b74565b602060405180830381600087803b15801561103a57600080fd5b505af115801561104e573d6000803e3d6000fd5b505050506040513d601f19601f820116820180604052508101906110729190613976565b505b600f600081548092919061108790613f39565b919050555060006040518060e001604052803373ffffffffffffffffffffffffffffffffffffffff168152602001888152602001600f548152602001878152602001600084146110d757836110d9565b865b815260200160008152602001600081525090508060156000600f54815260200190815260200160002060008201518160000160006101000a81548173ffffffffffffffffffffffffffffffffffffffff021916908373ffffffffffffffffffffffffffffffffffffffff1602179055506020820151816001015560408201518160020155606082015181600301556080820151816004015560a0820151816005015560c082015181600601559050506000600988815481106111c4577f4e487b7100000000000000000000000000000000000000000000000000000000600052603260045260246000fd5b9060005260206000200154141561128257600f5460078881548110611212577f4e487b7100000000000000000000000000000000000000000000000000000000600052603260045260246000fd5b90600052602060002001819055506009878154811061125a577f4e487b7100000000000000000000000000000000000000000000000000000000600052603260045260246000fd5b90600052602060002001600081548092919061127590613f39565b9190505550505050611673565b60006015600060078a815481106112c2577f4e487b7100000000000000000000000000000000000000000000000000000000600052603260045260246000fd5b90600052602060002001548152602001908152602001600020905080600301548710156113b457816040015160078981548110611328577f4e487b7100000000000000000000000000000000000000000000000000000000600052603260045260246000fd5b906000526020600020018190555080600201548260a0018181525050816040015181600601819055506009888154811061138b577f4e487b7100000000000000000000000000000000000000000000000000000000600052603260045260246000fd5b9060005260206000200160008154809291906113a690613f39565b919050555050505050611673565b6000816005015490506000811415611445578260400151826005018190555081600201548360c00181815250506009898154811061141b577f4e487b7100000000000000000000000000000000000000000000000000000000600052603260045260246000fd5b90600052602060002001600081548092919061143690613f39565b91905055505050505050611673565b88601560008881526020019081526020016000206001015414801561147f5750876015600088815260200190815260200160002060030154105b15611488578590505b5b87601560008381526020019081526020016000206003015410156114e9576000601560008381526020019081526020016000206005015414156114cb576114e9565b60156000828152602001908152602001600020600501549050611489565b6000601560008381526020019081526020016000206005015414156115955782604001516015600083815260200190815260200160002060050181905550808360c00181815250506009898154811061156b577f4e487b7100000000000000000000000000000000000000000000000000000000600052603260045260246000fd5b90600052602060002001600081548092919061158690613f39565b91905055505050505050611673565b826040015160156000601560008581526020019081526020016000206006015481526020019081526020016000206005018190555060156000828152602001908152602001600020600601548360c0018181525050808360a0018181525050826040015160156000838152602001908152602001600020600601819055506009898154811061164d577f4e487b7100000000000000000000000000000000000000000000000000000000600052603260045260246000fd5b90600052602060002001600081548092919061166890613f39565b919050555050505050505b50505050565b611681613136565b73ffffffffffffffffffffffffffffffffffffffff1661169f611725565b73ffffffffffffffffffffffffffffffffffffffff16146116f5576040517f08c379a00000000000000000000000000000000000000000000000000000000081526004016116ec90613bf4565b60405180910390fd5b6116ff600061313e565b565b6005818154811061171157600080fd5b906000526020600020016000915090505481565b60008060009054906101000a900473ffffffffffffffffffffffffffffffffffffffff16905090565b6015600082815260200190815260200160002060000160009054906101000a900473ffffffffffffffffffffffffffffffffffffffff1673ffffffffffffffffffffffffffffffffffffffff163373ffffffffffffffffffffffffffffffffffffffff16146117bc57600080fd5b600760156000838152602001908152602001600020600101548154811061180c577f4e487b7100000000000000000000000000000000000000000000000000000000600052603260045260246000fd5b906000526020600020015481141561182357600080fd5b600060156000838152602001908152602001600020600601541415611862576118616015600083815260200190815260200160002060010154613202565b5b6000601560008381526020019081526020016000206005015414156118b8576000601560006015600085815260200190815260200160002060060154815260200190815260200160002060050181905550611947565b601560008281526020019081526020016000206005015460156000601560008581526020019081526020016000206006015481526020019081526020016000206005018190555060156000828152602001908152602001600020600601546015600060156000858152602001908152602001600020600501548152602001908152602001600020600601819055505b60156000828152602001908152602001600020600080820160006101000a81549073ffffffffffffffffffffffffffffffffffffffff0219169055600182016000905560028201600090556003820160009055600482016000905560058201600090556006820160009055505050565b600080600385815481106119f4577f4e487b7100000000000000000000000000000000000000000000000000000000600052603260045260246000fd5b9060005260206000200160009054906101000a900473ffffffffffffffffffffffffffffffffffffffff169050828173ffffffffffffffffffffffffffffffffffffffff1663dd62ed3e33306040518363ffffffff1660e01b8152600401611a5d929190613b4b565b60206040518083038186803b158015611a7557600080fd5b505afa158015611a89573d6000803e3d6000fd5b505050506040513d601f19601f82011682018060405250810190611aad91906139f1565b1015611ab857600080fd5b600060088681548110611af4577f4e487b7100000000000000000000000000000000000000000000000000000000600052603260045260246000fd5b906000526020600020015411611b0957600080fd5b600060068681548110611b45577f4e487b7100000000000000000000000000000000000000000000000000000000600052603260045260246000fd5b906000526020600020015490505b600084118015611b785750846014600083815260200190815260200160002060030154115b1561205057600060146000838152602001908152602001600020905084816004015410611e2e57600160009054906101000a900473ffffffffffffffffffffffffffffffffffffffff1673ffffffffffffffffffffffffffffffffffffffff1663a9059cbb33611c09601054611bfb86600301548b612d0990919063ffffffff16565b612d1f90919063ffffffff16565b6040518363ffffffff1660e01b8152600401611c26929190613bab565b602060405180830381600087803b158015611c4057600080fd5b505af1158015611c54573d6000803e3d6000fd5b505050506040513d601f19601f82011682018060405250810190611c789190613976565b508273ffffffffffffffffffffffffffffffffffffffff166323b872dd338360000160009054906101000a900473ffffffffffffffffffffffffffffffffffffffff16886040518463ffffffff1660e01b8152600401611cda93929190613b74565b602060405180830381600087803b158015611cf457600080fd5b505af1158015611d08573d6000803e3d6000fd5b505050506040513d601f19601f82011682018060405250810190611d2c9190613976565b50611d44858260040154612d3590919063ffffffff16565b8160040181905550600081600401541415611dc75760146000838152602001908152602001600020600080820160006101000a81549073ffffffffffffffffffffffffffffffffffffffff021916905560018201600090556002820160009055600382016000905560048201600090556005820160009055600682016000905550505b600b8781548110611e01577f4e487b7100000000000000000000000000000000000000000000000000000000600052603260045260246000fd5b9060005260206000200154431115611e2257611e21878260030154612d4b565b5b60009350505050612056565b600160009054906101000a900473ffffffffffffffffffffffffffffffffffffffff1673ffffffffffffffffffffffffffffffffffffffff1663a9059cbb33611e9c601054611e8e86600301548760040154612d0990919063ffffffff16565b612d1f90919063ffffffff16565b6040518363ffffffff1660e01b8152600401611eb9929190613bab565b602060405180830381600087803b158015611ed357600080fd5b505af1158015611ee7573d6000803e3d6000fd5b505050506040513d601f19601f82011682018060405250810190611f0b9190613976565b508273ffffffffffffffffffffffffffffffffffffffff166323b872dd338360000160009054906101000a900473ffffffffffffffffffffffffffffffffffffffff1684600401546040518463ffffffff1660e01b8152600401611f7193929190613b74565b602060405180830381600087803b158015611f8b57600080fd5b505af1158015611f9f573d6000803e3d6000fd5b505050506040513d601f19601f82011682018060405250810190611fc39190613976565b50611fdb816004015486612d3590919063ffffffff16565b945060146000838152602001908152602001600020600080820160006101000a81549073ffffffffffffffffffffffffffffffffffffffff0219169055600182016000905560028201600090556003820160009055600482016000905560058201600090556006820160009055505050611b53565b83925050505b9392505050565b612065613136565b73ffffffffffffffffffffffffffffffffffffffff16612083611725565b73ffffffffffffffffffffffffffffffffffffffff16146120d9576040517f08c379a00000000000000000000000000000000000000000000000000000000081526004016120d090613bf4565b60405180910390fd5b6003839080600181540180825580915050600190039060005260206000200160009091909190916101000a81548173ffffffffffffffffffffffffffffffffffffffff021916908373ffffffffffffffffffffffffffffffffffffffff1602179055506004829080600181540180825580915050600190039060005260206000200160009091909190916101000a81548173ffffffffffffffffffffffffffffffffffffffff021916908373ffffffffffffffffffffffffffffffffffffffff160217905550600d819080600181540180825580915050600190039060005260206000200160009091909190915055600660009080600181540180825580915050600190039060005260206000200160009091909190915055600760009080600181540180825580915050600190039060005260206000200160009091909190915055600860009080600181540180825580915050600190039060005260206000200160009091909190915055600560009080600181540180825580915050600190039060005260206000200160009091909190915055600c60009080600181540180825580915050600190039060005260206000200160009091909190915055600b60009080600181540180825580915050600190039060005260206000200160009091909190915055600a6040518060a00160405280600060ff168152602001600060ff168152602001600060ff168152602001600060ff168152602001600060ff1681525090806001815401808255809150506001900390600052602060002001600090919091909150906005612334929190613826565b50505050565b6008818154811061234a57600080fd5b906000526020600020016000915090505481565b6123856010546123778585612d0990919063ffffffff16565b612d1f90919063ffffffff16565b600160009054906101000a900473ffffffffffffffffffffffffffffffffffffffff1673ffffffffffffffffffffffffffffffffffffffff1663dd62ed3e33306040518363ffffffff1660e01b81526004016123e2929190613b4b565b60206040518083038186803b1580156123fa57600080fd5b505afa15801561240e573d6000803e3d6000fd5b505050506040513d601f19601f8201168201806040525081019061243291906139f1565b101561243d57600080fd5b6000806009868154811061247a577f4e487b7100000000000000000000000000000000000000000000000000000000600052603260045260246000fd5b9060005260206000200154111561255e576124968585856103f3565b905060008114156124a75750612c0b565b600160009054906101000a900473ffffffffffffffffffffffffffffffffffffffff1673ffffffffffffffffffffffffffffffffffffffff166323b872dd3330846040518463ffffffff1660e01b815260040161250693929190613b74565b602060405180830381600087803b15801561252057600080fd5b505af1158015612534573d6000803e3d6000fd5b505050506040513d601f19601f820116820180604052508101906125589190613976565b50612611565b600160009054906101000a900473ffffffffffffffffffffffffffffffffffffffff1673ffffffffffffffffffffffffffffffffffffffff166323b872dd3330866040518463ffffffff1660e01b81526004016125bd93929190613b74565b602060405180830381600087803b1580156125d757600080fd5b505af11580156125eb573d6000803e3d6000fd5b505050506040513d601f19601f8201168201806040525081019061260f9190613976565b505b600e600081548092919061262490613f39565b919050555060006040518060e001604052803373ffffffffffffffffffffffffffffffffffffffff168152602001878152602001600e548152602001868152602001600084146126745783612676565b855b815260200160008152602001600081525090508060146000600e54815260200190815260200160002060008201518160000160006101000a81548173ffffffffffffffffffffffffffffffffffffffff021916908373ffffffffffffffffffffffffffffffffffffffff1602179055506020820151816001015560408201518160020155606082015181600301556080820151816004015560a0820151816005015560c08201518160060155905050600060088781548110612761577f4e487b7100000000000000000000000000000000000000000000000000000000600052603260045260246000fd5b9060005260206000200154141561281e57600e54600687815481106127af577f4e487b7100000000000000000000000000000000000000000000000000000000600052603260045260246000fd5b9060005260206000200181905550600886815481106127f7577f4e487b7100000000000000000000000000000000000000000000000000000000600052603260045260246000fd5b90600052602060002001600081548092919061281290613f39565b91905055505050612c0b565b6000601460006006898154811061285e577f4e487b7100000000000000000000000000000000000000000000000000000000600052603260045260246000fd5b906000526020600020015481526020019081526020016000209050806003015486111561294f578160400151600688815481106128c4577f4e487b7100000000000000000000000000000000000000000000000000000000600052603260045260246000fd5b906000526020600020018190555080600201548260a00181815250508160400151816006018190555060088781548110612927577f4e487b7100000000000000000000000000000000000000000000000000000000600052603260045260246000fd5b90600052602060002001600081548092919061294290613f39565b9190505550505050612c0b565b60008160050154905060008114156129df578260400151826005018190555081600201548360c0018181525050600888815481106129b6577f4e487b7100000000000000000000000000000000000000000000000000000000600052603260045260246000fd5b9060005260206000200160008154809291906129d190613f39565b919050555050505050612c0b565b876014600087815260200190815260200160002060010154148015612a195750866014600087815260200190815260200160002060030154115b15612a22578490505b5b8660146000838152602001908152602001600020600301541115612a8357600060146000838152602001908152602001600020600501541415612a6557612a83565b60146000828152602001908152602001600020600501549050612a23565b600060146000838152602001908152602001600020600501541415612b2e5782604001516014600083815260200190815260200160002060050181905550808360c001818152505060088881548110612b05577f4e487b7100000000000000000000000000000000000000000000000000000000600052603260045260246000fd5b906000526020600020016000815480929190612b2090613f39565b919050555050505050612c0b565b826040015160146000601460008581526020019081526020016000206006015481526020019081526020016000206005018190555060146000828152602001908152602001600020600601548360c0018181525050808360a00181815250508260400151601460008381526020019081526020016000206006018190555060088881548110612be6577f4e487b7100000000000000000000000000000000000000000000000000000000600052603260045260246000fd5b906000526020600020016000815480929190612c0190613f39565b9190505550505050505b50505050565b612c19613136565b73ffffffffffffffffffffffffffffffffffffffff16612c37611725565b73ffffffffffffffffffffffffffffffffffffffff1614612c8d576040517f08c379a0000000000000000000000000000000000000000000000000000000008152600401612c8490613bf4565b60405180910390fd5b600073ffffffffffffffffffffffffffffffffffffffff168173ffffffffffffffffffffffffffffffffffffffff161415612cfd576040517f08c379a0000000000000000000000000000000000000000000000000000000008152600401612cf490613bd4565b60405180910390fd5b612d068161313e565b50565b60008183612d179190613dc5565b905092915050565b60008183612d2d9190613d94565b905092915050565b60008183612d439190613eb3565b905092915050565b612d6260125460115461334d90919063ffffffff16565b4210612d7157612d70613363565b5b600a8281548110612dab577f4e487b7100000000000000000000000000000000000000000000000000000000600052603260045260246000fd5b9060005260206000200180549050600c8381548110612df3577f4e487b7100000000000000000000000000000000000000000000000000000000600052603260045260246000fd5b90600052602060002001541015612ed85780600a8381548110612e3f577f4e487b7100000000000000000000000000000000000000000000000000000000600052603260045260246000fd5b90600052602060002001600c8481548110612e83577f4e487b7100000000000000000000000000000000000000000000000000000000600052603260045260246000fd5b906000526020600020015481548110612ec5577f4e487b7100000000000000000000000000000000000000000000000000000000600052603260045260246000fd5b9060005260206000200181905550612f44565b600a8281548110612f12577f4e487b7100000000000000000000000000000000000000000000000000000000600052603260045260246000fd5b906000526020600020018190806001815401808255809150506001900390600052602060002001600090919091909150555b600c8281548110612f7e577f4e487b7100000000000000000000000000000000000000000000000000000000600052603260045260246000fd5b906000526020600020016000815480929190612f9990613f39565b919050555043600b8381548110612fd9577f4e487b7100000000000000000000000000000000000000000000000000000000600052603260045260246000fd5b90600052602060002001819055505050565b600060068281548110613027577f4e487b7100000000000000000000000000000000000000000000000000000000600052603260045260246000fd5b90600052602060002001549050601460008281526020019081526020016000206005015460068381548110613085577f4e487b7100000000000000000000000000000000000000000000000000000000600052603260045260246000fd5b9060005260206000200181905550600060146000601460008581526020019081526020016000206005015481526020019081526020016000206006018190555060146000828152602001908152602001600020600080820160006101000a81549073ffffffffffffffffffffffffffffffffffffffff021916905560018201600090556002820160009055600382016000905560048201600090556005820160009055600682016000905550505050565b600033905090565b60008060009054906101000a900473ffffffffffffffffffffffffffffffffffffffff169050816000806101000a81548173ffffffffffffffffffffffffffffffffffffffff021916908373ffffffffffffffffffffffffffffffffffffffff1602179055508173ffffffffffffffffffffffffffffffffffffffff168173ffffffffffffffffffffffffffffffffffffffff167f8be0079c531659141344cd1fd0a4f28419497f9722a3daafe3b4186f6b6457e060405160405180910390a35050565b60006007828154811061323e577f4e487b7100000000000000000000000000000000000000000000000000000000600052603260045260246000fd5b9060005260206000200154905060156000828152602001908152602001600020600501546007838154811061329c577f4e487b7100000000000000000000000000000000000000000000000000000000600052603260045260246000fd5b9060005260206000200181905550600060156000601560008581526020019081526020016000206005015481526020019081526020016000206006018190555060156000828152602001908152602001600020600080820160006101000a81549073ffffffffffffffffffffffffffffffffffffffff021916905560018201600090556002820160009055600382016000905560048201600090556005820160009055600682016000905550505050565b6000818361335b9190613cd4565b905092915050565b60005b6003805490508110156135f15761337c816135f4565b6000600582815481106133b8577f4e487b7100000000000000000000000000000000000000000000000000000000600052603260045260246000fd5b906000526020600020015490506000600260009054906101000a900473ffffffffffffffffffffffffffffffffffffffff1673ffffffffffffffffffffffffffffffffffffffff1663f30d3d1b600d858154811061343f577f4e487b7100000000000000000000000000000000000000000000000000000000600052603260045260246000fd5b90600052602060002001546040518263ffffffff1660e01b81526004016134669190613c14565b60206040518083038186803b15801561347e57600080fd5b505afa158015613492573d6000803e3d6000fd5b505050506040513d601f19601f820116820180604052508101906134b6919061399f565b905060006134cd82846137e490919063ffffffff16565b905060006134e6601354836137fa90919063ffffffff16565b905060006010549050613502828261381090919063ffffffff16565b9050600060038781548110613540577f4e487b7100000000000000000000000000000000000000000000000000000000600052603260045260246000fd5b9060005260206000200160009054906101000a900473ffffffffffffffffffffffffffffffffffffffff1690508073ffffffffffffffffffffffffffffffffffffffff16638f9bf833836040518263ffffffff1660e01b81526004016135a69190613c14565b600060405180830381600087803b1580156135c057600080fd5b505af11580156135d4573d6000803e3d6000fd5b5050505050505050505080806135e990613f39565b915050613366565b50565b600080600090505b600c8381548110613636577f4e487b7100000000000000000000000000000000000000000000000000000000600052603260045260246000fd5b90600052602060002001548110156136f6576136e1600a8481548110613685577f4e487b7100000000000000000000000000000000000000000000000000000000600052603260045260246000fd5b9060005260206000200182815481106136c7577f4e487b7100000000000000000000000000000000000000000000000000000000600052603260045260246000fd5b90600052602060002001548361334d90919063ffffffff16565b915080806136ee90613f39565b9150506135fc565b5061374e600c8381548110613734577f4e487b7100000000000000000000000000000000000000000000000000000000600052603260045260246000fd5b906000526020600020015482612d1f90919063ffffffff16565b60058381548110613788577f4e487b7100000000000000000000000000000000000000000000000000000000600052603260045260246000fd5b90600052602060002001819055506000600c83815481106137d2577f4e487b7100000000000000000000000000000000000000000000000000000000600052603260045260246000fd5b90600052602060002001819055505050565b600081836137f29190613e1f565b905092915050565b600081836138089190613d2a565b905092915050565b6000818361381e9190613c40565b905092915050565b828054828255906000526020600020908101928215613867579160200282015b82811115613866578251829060ff16905591602001919060010190613846565b5b5090506138749190613878565b5090565b5b80821115613891576000816000905550600101613879565b5090565b6000813590506138a481614058565b92915050565b6000815190506138b98161406f565b92915050565b6000815190506138ce81614086565b92915050565b6000813590506138e38161409d565b92915050565b6000815190506138f88161409d565b92915050565b60006020828403121561391057600080fd5b600061391e84828501613895565b91505092915050565b60008060006060848603121561393c57600080fd5b600061394a86828701613895565b935050602061395b86828701613895565b925050604061396c868287016138d4565b9150509250925092565b60006020828403121561398857600080fd5b6000613996848285016138aa565b91505092915050565b6000602082840312156139b157600080fd5b60006139bf848285016138bf565b91505092915050565b6000602082840312156139da57600080fd5b60006139e8848285016138d4565b91505092915050565b600060208284031215613a0357600080fd5b6000613a11848285016138e9565b91505092915050565b600080600060608486031215613a2f57600080fd5b6000613a3d868287016138d4565b9350506020613a4e868287016138d4565b9250506040613a5f868287016138d4565b9150509250925092565b60008060008060808587031215613a7f57600080fd5b6000613a8d878288016138d4565b9450506020613a9e878288016138d4565b9350506040613aaf878288016138d4565b9250506060613ac0878288016138d4565b91505092959194509250565b613ad581613ee7565b82525050565b6000613ae8602683613c2f565b9150613af382613fe0565b604082019050919050565b6000613b0b602083613c2f565b9150613b168261402f565b602082019050919050565b613b2a81613f2f565b82525050565b6000602082019050613b456000830184613acc565b92915050565b6000604082019050613b606000830185613acc565b613b6d6020830184613acc565b9392505050565b6000606082019050613b896000830186613acc565b613b966020830185613acc565b613ba36040830184613b21565b949350505050565b6000604082019050613bc06000830185613acc565b613bcd6020830184613b21565b9392505050565b60006020820190508181036000830152613bed81613adb565b9050919050565b60006020820190508181036000830152613c0d81613afe565b9050919050565b6000602082019050613c296000830184613b21565b92915050565b600082825260208201905092915050565b6000613c4b82613f05565b9150613c5683613f05565b9250817f7fffffffffffffffffffffffffffffffffffffffffffffffffffffffffffffff03831360008312151615613c9157613c90613f82565b5b817f8000000000000000000000000000000000000000000000000000000000000000038312600083121615613cc957613cc8613f82565b5b828201905092915050565b6000613cdf82613f2f565b9150613cea83613f2f565b9250827fffffffffffffffffffffffffffffffffffffffffffffffffffffffffffffffff03821115613d1f57613d1e613f82565b5b828201905092915050565b6000613d3582613f05565b9150613d4083613f05565b925082613d5057613d4f613fb1565b5b600160000383147f800000000000000000000000000000000000000000000000000000000000000083141615613d8957613d88613f82565b5b828205905092915050565b6000613d9f82613f2f565b9150613daa83613f2f565b925082613dba57613db9613fb1565b5b828204905092915050565b6000613dd082613f2f565b9150613ddb83613f2f565b9250817fffffffffffffffffffffffffffffffffffffffffffffffffffffffffffffffff0483118215151615613e1457613e13613f82565b5b828202905092915050565b6000613e2a82613f05565b9150613e3583613f05565b9250827f800000000000000000000000000000000000000000000000000000000000000001821260008412151615613e7057613e6f613f82565b5b827f7fffffffffffffffffffffffffffffffffffffffffffffffffffffffffffffff018213600084121615613ea857613ea7613f82565b5b828203905092915050565b6000613ebe82613f2f565b9150613ec983613f2f565b925082821015613edc57613edb613f82565b5b828203905092915050565b6000613ef282613f0f565b9050919050565b60008115159050919050565b6000819050919050565b600073ffffffffffffffffffffffffffffffffffffffff82169050919050565b6000819050919050565b6000613f4482613f2f565b91507fffffffffffffffffffffffffffffffffffffffffffffffffffffffffffffffff821415613f7757613f76613f82565b5b600182019050919050565b7f4e487b7100000000000000000000000000000000000000000000000000000000600052601160045260246000fd5b7f4e487b7100000000000000000000000000000000000000000000000000000000600052601260045260246000fd5b7f4f776e61626c653a206e6577206f776e657220697320746865207a65726f206160008201527f6464726573730000000000000000000000000000000000000000000000000000602082015250565b7f4f776e61626c653a2063616c6c6572206973206e6f7420746865206f776e6572600082015250565b61406181613ee7565b811461406c57600080fd5b50565b61407881613ef9565b811461408357600080fd5b50565b61408f81613f05565b811461409a57600080fd5b50565b6140a681613f2f565b81146140b157600080fd5b5056fea26469706673582212205930bec29d2fca82677cf9f17cf678be553b1bb5987c30a32e8627d7592d8f2164736f6c63430008040033",
  "linkReferences": {},
  "deployedLinkReferences": {}
}