{
  "_format": "hh-sol-artifact-1",
  "contractName": "OrderBook",
  "sourceName": "contracts/OrderBook/OrderBook.sol",
  "abi": [
    {
      "inputs": [
        {
          "internalType": "address[]",
          "name": "_FxPerpetuals",
          "type": "address[]"
        },
        {
          "internalType": "address[]",
          "name": "_Vaults",
          "type": "address[]"
        },
        {
          "internalType": "uint256[]",
          "name": "_oracleIndices",
          "type": "uint256[]"
        },
        {
          "internalType": "address",
          "name": "_USD",
          "type": "address"
        },
        {
          "internalType": "address",
          "name": "_Oracle",
          "type": "address"
        }
      ],
      "stateMutability": "nonpayable",
      "type": "constructor"
    },
    {
      "anonymous": false,
      "inputs": [
        {
          "indexed": true,
          "internalType": "address",
          "name": "previousOwner",
          "type": "address"
        },
        {
          "indexed": true,
          "internalType": "address",
          "name": "newOwner",
          "type": "address"
        }
      ],
      "name": "OwnershipTransferred",
      "type": "event"
    },
    {
      "inputs": [
        {
          "internalType": "uint256",
          "name": "",
          "type": "uint256"
        }
      ],
      "name": "FxPerpetuals",
      "outputs": [
        {
          "internalType": "address",
          "name": "",
          "type": "address"
        }
      ],
      "stateMutability": "view",
      "type": "function"
    },
    {
      "inputs": [
        {
          "internalType": "uint256",
          "name": "",
          "type": "uint256"
        }
      ],
      "name": "Vaults",
      "outputs": [
        {
          "internalType": "address",
          "name": "",
          "type": "address"
        }
      ],
      "stateMutability": "view",
      "type": "function"
    },
    {
      "inputs": [
        {
          "internalType": "address",
          "name": "_perpetual",
          "type": "address"
        },
        {
          "internalType": "address",
          "name": "_vault",
          "type": "address"
        },
        {
          "internalType": "uint256",
          "name": "_oracleIndex",
          "type": "uint256"
        }
      ],
      "name": "addFxPerpetual",
      "outputs": [],
      "stateMutability": "nonpayable",
      "type": "function"
    },
    {
      "inputs": [
        {
          "internalType": "uint256",
          "name": "",
          "type": "uint256"
        }
      ],
      "name": "buyHeads",
      "outputs": [
        {
          "internalType": "uint256",
          "name": "",
          "type": "uint256"
        }
      ],
      "stateMutability": "view",
      "type": "function"
    },
    {
      "inputs": [],
      "name": "buyID",
      "outputs": [
        {
          "internalType": "uint256",
          "name": "",
          "type": "uint256"
        }
      ],
      "stateMutability": "view",
      "type": "function"
    },
    {
      "inputs": [
        {
          "internalType": "uint256",
          "name": "_ID",
          "type": "uint256"
        }
      ],
      "name": "deleteBuy",
      "outputs": [],
      "stateMutability": "nonpayable",
      "type": "function"
    },
    {
      "inputs": [
        {
          "internalType": "uint256",
          "name": "_ID",
          "type": "uint256"
        }
      ],
      "name": "deleteSell",
      "outputs": [],
      "stateMutability": "nonpayable",
      "type": "function"
    },
    {
      "inputs": [
        {
          "internalType": "uint256",
          "name": "_ID",
          "type": "uint256"
        }
      ],
      "name": "getBuy",
      "outputs": [
        {
          "internalType": "address",
          "name": "maker",
          "type": "address"
        },
        {
          "internalType": "uint256",
          "name": "index",
          "type": "uint256"
        },
        {
          "internalType": "uint256",
          "name": "id",
          "type": "uint256"
        },
        {
          "internalType": "uint256",
          "name": "price",
          "type": "uint256"
        },
        {
          "internalType": "uint256",
          "name": "volume",
          "type": "uint256"
        },
        {
          "internalType": "uint256",
          "name": "next",
          "type": "uint256"
        },
        {
          "internalType": "uint256",
          "name": "prev",
          "type": "uint256"
        }
      ],
      "stateMutability": "view",
      "type": "function"
    },
    {
      "inputs": [
        {
          "internalType": "uint256",
          "name": "_tokenIndex",
          "type": "uint256"
        }
      ],
      "name": "getBuyHead",
      "outputs": [
        {
          "internalType": "uint256",
          "name": "",
          "type": "uint256"
        }
      ],
      "stateMutability": "view",
      "type": "function"
    },
    {
      "inputs": [
        {
          "internalType": "uint256",
          "name": "_tokenIndex",
          "type": "uint256"
        }
      ],
      "name": "getOpenBuyOrders",
      "outputs": [
        {
          "internalType": "uint256",
          "name": "",
          "type": "uint256"
        }
      ],
      "stateMutability": "view",
      "type": "function"
    },
    {
      "inputs": [
        {
          "internalType": "uint256",
          "name": "_tokenIndex",
          "type": "uint256"
        }
      ],
      "name": "getOpenSellOrders",
      "outputs": [
        {
          "internalType": "uint256",
          "name": "",
          "type": "uint256"
        }
      ],
      "stateMutability": "view",
      "type": "function"
    },
    {
      "inputs": [
        {
          "internalType": "uint256",
          "name": "_ID",
          "type": "uint256"
        }
      ],
      "name": "getSell",
      "outputs": [
        {
          "internalType": "address",
          "name": "maker",
          "type": "address"
        },
        {
          "internalType": "uint256",
          "name": "index",
          "type": "uint256"
        },
        {
          "internalType": "uint256",
          "name": "id",
          "type": "uint256"
        },
        {
          "internalType": "uint256",
          "name": "price",
          "type": "uint256"
        },
        {
          "internalType": "uint256",
          "name": "volume",
          "type": "uint256"
        },
        {
          "internalType": "uint256",
          "name": "next",
          "type": "uint256"
        },
        {
          "internalType": "uint256",
          "name": "prev",
          "type": "uint256"
        }
      ],
      "stateMutability": "view",
      "type": "function"
    },
    {
      "inputs": [
        {
          "internalType": "uint256",
          "name": "_tokenIndex",
          "type": "uint256"
        }
      ],
      "name": "getSellHead",
      "outputs": [
        {
          "internalType": "uint256",
          "name": "",
          "type": "uint256"
        }
      ],
      "stateMutability": "view",
      "type": "function"
    },
    {
      "inputs": [
        {
          "internalType": "uint256",
          "name": "_tokenIndex",
          "type": "uint256"
        },
        {
          "internalType": "uint256",
          "name": "_price",
          "type": "uint256"
        },
        {
          "internalType": "uint256",
          "name": "_volume",
          "type": "uint256"
        },
        {
          "internalType": "uint256",
          "name": "_targetInsertion",
          "type": "uint256"
        }
      ],
      "name": "limitBuy",
      "outputs": [],
      "stateMutability": "nonpayable",
      "type": "function"
    },
    {
      "inputs": [
        {
          "internalType": "uint256",
          "name": "_tokenIndex",
          "type": "uint256"
        },
        {
          "internalType": "uint256",
          "name": "_price",
          "type": "uint256"
        },
        {
          "internalType": "uint256",
          "name": "_volume",
          "type": "uint256"
        },
        {
          "internalType": "uint256",
          "name": "_targetInsertion",
          "type": "uint256"
        }
      ],
      "name": "limitSell",
      "outputs": [],
      "stateMutability": "nonpayable",
      "type": "function"
    },
    {
      "inputs": [
        {
          "internalType": "uint256",
          "name": "_tokenIndex",
          "type": "uint256"
        },
        {
          "internalType": "uint256",
          "name": "_maxPrice",
          "type": "uint256"
        },
        {
          "internalType": "uint256",
          "name": "_volume",
          "type": "uint256"
        }
      ],
      "name": "marketBuy",
      "outputs": [
        {
          "internalType": "uint256",
          "name": "",
          "type": "uint256"
        }
      ],
      "stateMutability": "nonpayable",
      "type": "function"
    },
    {
      "inputs": [
        {
          "internalType": "uint256",
          "name": "_tokenIndex",
          "type": "uint256"
        },
        {
          "internalType": "uint256",
          "name": "_minPrice",
          "type": "uint256"
        },
        {
          "internalType": "uint256",
          "name": "_volume",
          "type": "uint256"
        }
      ],
      "name": "marketSell",
      "outputs": [
        {
          "internalType": "uint256",
          "name": "",
          "type": "uint256"
        }
      ],
      "stateMutability": "nonpayable",
      "type": "function"
    },
    {
      "inputs": [
        {
          "internalType": "uint256",
          "name": "",
          "type": "uint256"
        }
      ],
      "name": "openBuyOrders",
      "outputs": [
        {
          "internalType": "uint256",
          "name": "",
          "type": "uint256"
        }
      ],
      "stateMutability": "view",
      "type": "function"
    },
    {
      "inputs": [
        {
          "internalType": "uint256",
          "name": "",
          "type": "uint256"
        }
      ],
      "name": "openSellOrders",
      "outputs": [
        {
          "internalType": "uint256",
          "name": "",
          "type": "uint256"
        }
      ],
      "stateMutability": "view",
      "type": "function"
    },
    {
      "inputs": [],
      "name": "owner",
      "outputs": [
        {
          "internalType": "address",
          "name": "",
          "type": "address"
        }
      ],
      "stateMutability": "view",
      "type": "function"
    },
    {
      "inputs": [],
      "name": "renounceOwnership",
      "outputs": [],
      "stateMutability": "nonpayable",
      "type": "function"
    },
    {
      "inputs": [
        {
          "internalType": "uint256",
          "name": "",
          "type": "uint256"
        }
      ],
      "name": "sellHeads",
      "outputs": [
        {
          "internalType": "uint256",
          "name": "",
          "type": "uint256"
        }
      ],
      "stateMutability": "view",
      "type": "function"
    },
    {
      "inputs": [],
      "name": "sellID",
      "outputs": [
        {
          "internalType": "uint256",
          "name": "",
          "type": "uint256"
        }
      ],
      "stateMutability": "view",
      "type": "function"
    },
    {
      "inputs": [
        {
          "internalType": "address",
          "name": "newOwner",
          "type": "address"
        }
      ],
      "name": "transferOwnership",
      "outputs": [],
      "stateMutability": "nonpayable",
      "type": "function"
    }
  ],
  "bytecode": "0x60806040523480156200001157600080fd5b506040516200479f3803806200479f833981810160405281019062000037919062000494565b620000576200004b6200015660201b60201c565b6200015e60201b60201c565b84600390805190602001906200006f92919062000222565b5083600490805190602001906200008892919062000222565b5081600160006101000a81548173ffffffffffffffffffffffffffffffffffffffff021916908373ffffffffffffffffffffffffffffffffffffffff16021790555080600260006101000a81548173ffffffffffffffffffffffffffffffffffffffff021916908373ffffffffffffffffffffffffffffffffffffffff16021790555082600d908051906020019062000123929190620002b1565b50670de0b6b3a7640000601081905550610e106012819055506018601381905550426011819055505050505050620006d0565b600033905090565b60008060009054906101000a900473ffffffffffffffffffffffffffffffffffffffff169050816000806101000a81548173ffffffffffffffffffffffffffffffffffffffff021916908373ffffffffffffffffffffffffffffffffffffffff1602179055508173ffffffffffffffffffffffffffffffffffffffff168173ffffffffffffffffffffffffffffffffffffffff167f8be0079c531659141344cd1fd0a4f28419497f9722a3daafe3b4186f6b6457e060405160405180910390a35050565b8280548282559060005260206000209081019282156200029e579160200282015b828111156200029d5782518260006101000a81548173ffffffffffffffffffffffffffffffffffffffff021916908373ffffffffffffffffffffffffffffffffffffffff1602179055509160200191906001019062000243565b5b509050620002ad919062000303565b5090565b828054828255906000526020600020908101928215620002f0579160200282015b82811115620002ef578251825591602001919060010190620002d2565b5b509050620002ff919062000303565b5090565b5b808211156200031e57600081600090555060010162000304565b5090565b60006200033962000333846200058a565b62000561565b905080838252602082019050828560208602820111156200035957600080fd5b60005b858110156200038d57816200037288826200040c565b8452602084019350602083019250506001810190506200035c565b5050509392505050565b6000620003ae620003a884620005b9565b62000561565b90508083825260208201905082856020860282011115620003ce57600080fd5b60005b85811015620004025781620003e788826200047d565b845260208401935060208301925050600181019050620003d1565b5050509392505050565b6000815190506200041d816200069c565b92915050565b600082601f8301126200043557600080fd5b81516200044784826020860162000322565b91505092915050565b600082601f8301126200046257600080fd5b81516200047484826020860162000397565b91505092915050565b6000815190506200048e81620006b6565b92915050565b600080600080600060a08688031215620004ad57600080fd5b600086015167ffffffffffffffff811115620004c857600080fd5b620004d68882890162000423565b955050602086015167ffffffffffffffff811115620004f457600080fd5b620005028882890162000423565b945050604086015167ffffffffffffffff8111156200052057600080fd5b6200052e8882890162000450565b935050606062000541888289016200040c565b925050608062000554888289016200040c565b9150509295509295909350565b60006200056d62000580565b90506200057b828262000626565b919050565b6000604051905090565b600067ffffffffffffffff821115620005a857620005a76200065c565b5b602082029050602081019050919050565b600067ffffffffffffffff821115620005d757620005d66200065c565b5b602082029050602081019050919050565b6000620005f582620005fc565b9050919050565b600073ffffffffffffffffffffffffffffffffffffffff82169050919050565b6000819050919050565b62000631826200068b565b810181811067ffffffffffffffff821117156200065357620006526200065c565b5b80604052505050565b7f4e487b7100000000000000000000000000000000000000000000000000000000600052604160045260246000fd5b6000601f19601f8301169050919050565b620006a781620005e8565b8114620006b357600080fd5b50565b620006c1816200061c565b8114620006cd57600080fd5b50565b6140bf80620006e06000396000f3fe608060405234801561001057600080fd5b50600436106101585760003560e01c80638da5cb5b116100c3578063c8ccd7271161007c578063c8ccd72714610411578063d6d423d814610441578063dde4a70b14610471578063f0768cf7146104a7578063f2fde38b146104c3578063f32a547c146104df57610158565b80638da5cb5b1461033d57806393a7215e1461035b5780639ff1549c14610379578063affb21a314610395578063b55e0912146103c5578063c224e728146103f557610158565b80635aca8415116101155780635aca8415146102575780635c285acb146102875780636ba755ef146102b75780636f41e8c2146102d3578063715018a6146103035780637d9c5d4c1461030d57610158565b80631bed7a811461015d57806335460d921461018d5780633c8e5d44146101bd57806344e9887b146101ed578063476d4f3f1461020b57806359d5445b1461023b575b600080fd5b61017760048036038101906101729190613904565b610515565b6040516101849190613a6c565b60405180910390f35b6101a760048036038101906101a29190613904565b610554565b6040516101b49190613bbf565b60405180910390f35b6101d760048036038101906101d29190613956565b61056c565b6040516101e49190613bbf565b60405180910390f35b6101f5610b2d565b6040516102029190613bbf565b60405180910390f35b61022560048036038101906102209190613904565b610b33565b6040516102329190613bbf565b60405180910390f35b61025560048036038101906102509190613904565b610b4b565b005b610271600480360381019061026c9190613904565b610ccd565b60405161027e9190613a6c565b60405180910390f35b6102a1600480360381019061029c9190613904565b610d0c565b6040516102ae9190613bbf565b60405180910390f35b6102d160048036038101906102cc91906139a5565b610d24565b005b6102ed60048036038101906102e89190613904565b611684565b6040516102fa9190613bbf565b60405180910390f35b61030b6116a1565b005b61032760048036038101906103229190613904565b611729565b6040516103349190613bbf565b60405180910390f35b610345611746565b6040516103529190613a6c565b60405180910390f35b61036361176f565b6040516103709190613bbf565b60405180910390f35b610393600480360381019061038e9190613904565b611775565b005b6103af60048036038101906103aa9190613904565b611913565b6040516103bc9190613bbf565b60405180910390f35b6103df60048036038101906103da9190613956565b611930565b6040516103ec9190613bbf565b60405180910390f35b61040f600480360381019061040a9190613863565b611ea9565b005b61042b60048036038101906104269190613904565b612019565b6040516104389190613bbf565b60405180910390f35b61045b60048036038101906104569190613904565b612036565b6040516104689190613bbf565b60405180910390f35b61048b60048036038101906104869190613904565b61204e565b60405161049e9796959493929190613b10565b60405180910390f35b6104c160048036038101906104bc91906139a5565b612149565b005b6104dd60048036038101906104d8919061383a565b612b12565b005b6104f960048036038101906104f49190613904565b612c0a565b60405161050c9796959493929190613b10565b60405180910390f35b6003818154811061052557600080fd5b906000526020600020016000915054906101000a900473ffffffffffffffffffffffffffffffffffffffff1681565b60066020528060005260406000206000915090505481565b600080600385815481106105a9577f4e487b7100000000000000000000000000000000000000000000000000000000600052603260045260246000fd5b9060005260206000200160009054906101000a900473ffffffffffffffffffffffffffffffffffffffff1690506105fd6010546105ef8587612d0590919063ffffffff16565b612d1b90919063ffffffff16565b600160009054906101000a900473ffffffffffffffffffffffffffffffffffffffff1673ffffffffffffffffffffffffffffffffffffffff1663dd62ed3e33306040518363ffffffff1660e01b815260040161065a929190613a87565b60206040518083038186803b15801561067257600080fd5b505afa158015610686573d6000803e3d6000fd5b505050506040513d601f19601f820116820180604052508101906106aa919061392d565b10156106b557600080fd5b60006008600087815260200190815260200160002054116106d557600080fd5b6000600660008781526020019081526020016000205490505b600084118015610714575084601560008381526020019081526020016000206003015411155b8015610721575060008114155b15610b205760006015600083815260200190815260200160002090508481600401541061095557600160009054906101000a900473ffffffffffffffffffffffffffffffffffffffff1673ffffffffffffffffffffffffffffffffffffffff166323b872dd338360000160009054906101000a900473ffffffffffffffffffffffffffffffffffffffff166107d76010546107c987600301548c612d0590919063ffffffff16565b612d1b90919063ffffffff16565b6040518463ffffffff1660e01b81526004016107f593929190613ab0565b602060405180830381600087803b15801561080f57600080fd5b505af1158015610823573d6000803e3d6000fd5b505050506040513d601f19601f8201168201806040525081019061084791906138b2565b508273ffffffffffffffffffffffffffffffffffffffff1663a9059cbb33876040518363ffffffff1660e01b8152600401610883929190613ae7565b602060405180830381600087803b15801561089d57600080fd5b505af11580156108b1573d6000803e3d6000fd5b505050506040513d601f19601f820116820180604052508101906108d591906138b2565b506108ed858260040154612d3190919063ffffffff16565b816004018190555060008160040154141561090c5761090b82612d47565b5b610933600a600c60008a815260200190815260200160002054612f1f90919063ffffffff16565b42111561094957610948878260030154612f35565b5b60009350505050610b26565b600160009054906101000a900473ffffffffffffffffffffffffffffffffffffffff1673ffffffffffffffffffffffffffffffffffffffff166323b872dd338360000160009054906101000a900473ffffffffffffffffffffffffffffffffffffffff166109e86010546109da87600301548860040154612d0590919063ffffffff16565b612d1b90919063ffffffff16565b6040518463ffffffff1660e01b8152600401610a0693929190613ab0565b602060405180830381600087803b158015610a2057600080fd5b505af1158015610a34573d6000803e3d6000fd5b505050506040513d601f19601f82011682018060405250810190610a5891906138b2565b508273ffffffffffffffffffffffffffffffffffffffff1663a9059cbb3383600401546040518363ffffffff1660e01b8152600401610a98929190613ae7565b602060405180830381600087803b158015610ab257600080fd5b505af1158015610ac6573d6000803e3d6000fd5b505050506040513d601f19601f82011682018060405250810190610aea91906138b2565b50610b02816004015486612d3190919063ffffffff16565b9450600082905081600501549250610b1981612d47565b50506106ee565b83925050505b9392505050565b600f5481565b60056020528060005260406000206000915090505481565b6000610ba0601054610b9260146000868152602001908152602001600020600301546014600087815260200190815260200160002060040154612d0590919063ffffffff16565b612d1b90919063ffffffff16565b9050600160009054906101000a900473ffffffffffffffffffffffffffffffffffffffff1673ffffffffffffffffffffffffffffffffffffffff1663a9059cbb33836040518363ffffffff1660e01b8152600401610bff929190613ae7565b602060405180830381600087803b158015610c1957600080fd5b505af1158015610c2d573d6000803e3d6000fd5b505050506040513d601f19601f82011682018060405250810190610c5191906138b2565b506014600083815260200190815260200160002060000160009054906101000a900473ffffffffffffffffffffffffffffffffffffffff1673ffffffffffffffffffffffffffffffffffffffff163373ffffffffffffffffffffffffffffffffffffffff1614610cc057600080fd5b610cc982612fc5565b5050565b60048181548110610cdd57600080fd5b906000526020600020016000915054906101000a900473ffffffffffffffffffffffffffffffffffffffff1681565b60086020528060005260406000206000915090505481565b600060038581548110610d60577f4e487b7100000000000000000000000000000000000000000000000000000000600052603260045260246000fd5b9060005260206000200160009054906101000a900473ffffffffffffffffffffffffffffffffffffffff169050828173ffffffffffffffffffffffffffffffffffffffff1663dd62ed3e33306040518363ffffffff1660e01b8152600401610dc9929190613a87565b60206040518083038186803b158015610de157600080fd5b505afa158015610df5573d6000803e3d6000fd5b505050506040513d601f19601f82011682018060405250810190610e19919061392d565b1015610e2457600080fd5b60008060076000888152602001908152602001600020541115610ef357610e4c868686611930565b90506000811415610e5e57505061167e565b8173ffffffffffffffffffffffffffffffffffffffff166323b872dd3330846040518463ffffffff1660e01b8152600401610e9b93929190613ab0565b602060405180830381600087803b158015610eb557600080fd5b505af1158015610ec9573d6000803e3d6000fd5b505050506040513d601f19601f82011682018060405250810190610eed91906138b2565b50610f84565b8173ffffffffffffffffffffffffffffffffffffffff166323b872dd3330876040518463ffffffff1660e01b8152600401610f3093929190613ab0565b602060405180830381600087803b158015610f4a57600080fd5b505af1158015610f5e573d6000803e3d6000fd5b505050506040513d601f19601f82011682018060405250810190610f8291906138b2565b505b600f6000815480929190610f9790613f0e565b919050555060006040518060e001604052803373ffffffffffffffffffffffffffffffffffffffff168152602001888152602001600f54815260200187815260200160008414610fe75783610fe9565b865b815260200160008152602001600081525090508060156000600f54815260200190815260200160002060008201518160000160006101000a81548173ffffffffffffffffffffffffffffffffffffffff021916908373ffffffffffffffffffffffffffffffffffffffff1602179055506020820151816001015560408201518160020155606082015181600301556080820151816004015560a0820151816005015560c082015181600601559050506000600860008981526020019081526020016000205414156110ff57600f5460066000898152602001908152602001600020819055506008600088815260200190815260200160002060008154809291906110f290613f0e565b919050555050505061167e565b600060156000600660008b81526020019081526020016000205481526020019081526020016000209050806003015487101561123a578160400151600660008a81526020019081526020016000208190555080600201548260a00181815250508160400151816006018190555060086000898152602001908152602001600020600081548092919061119090613f0e565b91905055508160156000600f54815260200190815260200160002060008201518160000160006101000a81548173ffffffffffffffffffffffffffffffffffffffff021916908373ffffffffffffffffffffffffffffffffffffffff1602179055506020820151816001015560408201518160020155606082015181600301556080820151816004015560a0820151816005015560c082015181600601559050505050505061167e565b6000816005015490506000811415611336578260400151826005018190555081600201548360c0018181525050600860008a8152602001908152602001600020600081548092919061128b90613f0e565b91905055508260156000600f54815260200190815260200160002060008201518160000160006101000a81548173ffffffffffffffffffffffffffffffffffffffff021916908373ffffffffffffffffffffffffffffffffffffffff1602179055506020820151816001015560408201518160020155606082015181600301556080820151816004015560a0820151816005015560c08201518160060155905050505050505061167e565b8860156000888152602001908152602001600020600101541480156113705750876015600088815260200190815260200160002060030154105b801561139357506000601560008881526020019081526020016000206004015414155b1561139c578590505b5b87601560008381526020019081526020016000206003015410156113fd576000601560008381526020019081526020016000206005015414156113df576113fd565b6015600082815260200190815260200160002060050154905061139d565b600060156000838152602001908152602001600020600501541480156114385750876015600083815260200190815260200160002060030154105b156115355782604001516015600083815260200190815260200160002060050181905550808360c0018181525050600860008a8152602001908152602001600020600081548092919061148a90613f0e565b91905055508260156000600f54815260200190815260200160002060008201518160000160006101000a81548173ffffffffffffffffffffffffffffffffffffffff021916908373ffffffffffffffffffffffffffffffffffffffff1602179055506020820151816001015560408201518160020155606082015181600301556080820151816004015560a0820151816005015560c08201518160060155905050505050505061167e565b826040015160156000601560008581526020019081526020016000206006015481526020019081526020016000206005018190555060156000828152602001908152602001600020600601548360c0018181525050808360a001818152505082604001516015600083815260200190815260200160002060060181905550600860008a815260200190815260200160002060008154809291906115d790613f0e565b91905055508260156000600f54815260200190815260200160002060008201518160000160006101000a81548173ffffffffffffffffffffffffffffffffffffffff021916908373ffffffffffffffffffffffffffffffffffffffff1602179055506020820151816001015560408201518160020155606082015181600301556080820151816004015560a0820151816005015560c0820151816006015590505050505050505b50505050565b600060086000838152602001908152602001600020549050919050565b6116a961319d565b73ffffffffffffffffffffffffffffffffffffffff166116c7611746565b73ffffffffffffffffffffffffffffffffffffffff161461171d576040517f08c379a000000000000000000000000000000000000000000000000000000000815260040161171490613b9f565b60405180910390fd5b61172760006131a5565b565b600060076000838152602001908152602001600020549050919050565b60008060009054906101000a900473ffffffffffffffffffffffffffffffffffffffff16905090565b600e5481565b600060036015600084815260200190815260200160002060010154815481106117c7577f4e487b7100000000000000000000000000000000000000000000000000000000600052603260045260246000fd5b9060005260206000200160009054906101000a900473ffffffffffffffffffffffffffffffffffffffff1690508073ffffffffffffffffffffffffffffffffffffffff1663a9059cbb3360156000868152602001908152602001600020600401546040518363ffffffff1660e01b8152600401611845929190613ae7565b602060405180830381600087803b15801561185f57600080fd5b505af1158015611873573d6000803e3d6000fd5b505050506040513d601f19601f8201168201806040525081019061189791906138b2565b506015600083815260200190815260200160002060000160009054906101000a900473ffffffffffffffffffffffffffffffffffffffff1673ffffffffffffffffffffffffffffffffffffffff163373ffffffffffffffffffffffffffffffffffffffff161461190657600080fd5b61190f82612d47565b5050565b600060056000838152602001908152602001600020549050919050565b6000806003858154811061196d577f4e487b7100000000000000000000000000000000000000000000000000000000600052603260045260246000fd5b9060005260206000200160009054906101000a900473ffffffffffffffffffffffffffffffffffffffff169050828173ffffffffffffffffffffffffffffffffffffffff1663dd62ed3e33306040518363ffffffff1660e01b81526004016119d6929190613a87565b60206040518083038186803b1580156119ee57600080fd5b505afa158015611a02573d6000803e3d6000fd5b505050506040513d601f19601f82011682018060405250810190611a26919061392d565b1015611a3157600080fd5b6000600760008781526020019081526020016000205411611a5157600080fd5b6000600560008781526020019081526020016000205490505b600084118015611a90575084601460008381526020019081526020016000206003015410155b8015611a9d575060008114155b15611e9c57600060146000838152602001908152602001600020905084816004015410611cd157600160009054906101000a900473ffffffffffffffffffffffffffffffffffffffff1673ffffffffffffffffffffffffffffffffffffffff1663a9059cbb33611b2e601054611b2086600301548b612d0590919063ffffffff16565b612d1b90919063ffffffff16565b6040518363ffffffff1660e01b8152600401611b4b929190613ae7565b602060405180830381600087803b158015611b6557600080fd5b505af1158015611b79573d6000803e3d6000fd5b505050506040513d601f19601f82011682018060405250810190611b9d91906138b2565b508273ffffffffffffffffffffffffffffffffffffffff166323b872dd338360000160009054906101000a900473ffffffffffffffffffffffffffffffffffffffff16886040518463ffffffff1660e01b8152600401611bff93929190613ab0565b602060405180830381600087803b158015611c1957600080fd5b505af1158015611c2d573d6000803e3d6000fd5b505050506040513d601f19601f82011682018060405250810190611c5191906138b2565b50611c69858260040154612d3190919063ffffffff16565b8160040181905550600081600401541415611c8857611c8782612fc5565b5b611caf600a600c60008a815260200190815260200160002054612f1f90919063ffffffff16565b421115611cc557611cc4878260030154612f35565b5b60009350505050611ea2565b600160009054906101000a900473ffffffffffffffffffffffffffffffffffffffff1673ffffffffffffffffffffffffffffffffffffffff1663a9059cbb33611d3f601054611d3186600301548760040154612d0590919063ffffffff16565b612d1b90919063ffffffff16565b6040518363ffffffff1660e01b8152600401611d5c929190613ae7565b602060405180830381600087803b158015611d7657600080fd5b505af1158015611d8a573d6000803e3d6000fd5b505050506040513d601f19601f82011682018060405250810190611dae91906138b2565b508273ffffffffffffffffffffffffffffffffffffffff166323b872dd338360000160009054906101000a900473ffffffffffffffffffffffffffffffffffffffff1684600401546040518463ffffffff1660e01b8152600401611e1493929190613ab0565b602060405180830381600087803b158015611e2e57600080fd5b505af1158015611e42573d6000803e3d6000fd5b505050506040513d601f19601f82011682018060405250810190611e6691906138b2565b50611e7e816004015486612d3190919063ffffffff16565b9450600082905081600501549250611e9581612fc5565b5050611a6a565b83925050505b9392505050565b611eb161319d565b73ffffffffffffffffffffffffffffffffffffffff16611ecf611746565b73ffffffffffffffffffffffffffffffffffffffff1614611f25576040517f08c379a0000000000000000000000000000000000000000000000000000000008152600401611f1c90613b9f565b60405180910390fd5b6003839080600181540180825580915050600190039060005260206000200160009091909190916101000a81548173ffffffffffffffffffffffffffffffffffffffff021916908373ffffffffffffffffffffffffffffffffffffffff1602179055506004829080600181540180825580915050600190039060005260206000200160009091909190916101000a81548173ffffffffffffffffffffffffffffffffffffffff021916908373ffffffffffffffffffffffffffffffffffffffff160217905550600d819080600181540180825580915050600190039060005260206000200160009091909190915055505050565b600060066000838152602001908152602001600020549050919050565b60076020528060005260406000206000915090505481565b600080600080600080600080601560008a81526020019081526020016000206040518060e00160405290816000820160009054906101000a900473ffffffffffffffffffffffffffffffffffffffff1673ffffffffffffffffffffffffffffffffffffffff1673ffffffffffffffffffffffffffffffffffffffff16815260200160018201548152602001600282015481526020016003820154815260200160048201548152602001600582015481526020016006820154815250509050806000015181602001518260400151836060015184608001518560a001518660c00151975097509750975097509750975050919395979092949650565b6121706010546121628585612d0590919063ffffffff16565b612d1b90919063ffffffff16565b600160009054906101000a900473ffffffffffffffffffffffffffffffffffffffff1673ffffffffffffffffffffffffffffffffffffffff1663dd62ed3e33306040518363ffffffff1660e01b81526004016121cd929190613a87565b60206040518083038186803b1580156121e557600080fd5b505afa1580156121f9573d6000803e3d6000fd5b505050506040513d601f19601f8201168201806040525081019061221d919061392d565b101561222857600080fd5b6000806008600087815260200190815260200160002054111561233e5761225085858561056c565b905060008114156122615750612b0c565b600160009054906101000a900473ffffffffffffffffffffffffffffffffffffffff1673ffffffffffffffffffffffffffffffffffffffff166323b872dd33306122c86010546122ba8a88612d0590919063ffffffff16565b612d1b90919063ffffffff16565b6040518463ffffffff1660e01b81526004016122e693929190613ab0565b602060405180830381600087803b15801561230057600080fd5b505af1158015612314573d6000803e3d6000fd5b505050506040513d601f19601f8201168201806040525081019061233891906138b2565b50612417565b600160009054906101000a900473ffffffffffffffffffffffffffffffffffffffff1673ffffffffffffffffffffffffffffffffffffffff166323b872dd33306123a56010546123978a8a612d0590919063ffffffff16565b612d1b90919063ffffffff16565b6040518463ffffffff1660e01b81526004016123c393929190613ab0565b602060405180830381600087803b1580156123dd57600080fd5b505af11580156123f1573d6000803e3d6000fd5b505050506040513d601f19601f8201168201806040525081019061241591906138b2565b505b600e600081548092919061242a90613f0e565b919050555060006040518060e001604052803373ffffffffffffffffffffffffffffffffffffffff168152602001878152602001600e5481526020018681526020016000841461247a578361247c565b855b815260200160008152602001600081525090508060146000600e54815260200190815260200160002060008201518160000160006101000a81548173ffffffffffffffffffffffffffffffffffffffff021916908373ffffffffffffffffffffffffffffffffffffffff1602179055506020820151816001015560408201518160020155606082015181600301556080820151816004015560a0820151816005015560c0820151816006015590505060006007600088815260200190815260200160002054141561259157600e54600560008881526020019081526020016000208190555060076000878152602001908152602001600020600081548092919061258590613f0e565b91905055505050612b0c565b600060146000600560008a8152602001908152602001600020548152602001908152602001600020905080600301548611156126cb578160400151600560008981526020019081526020016000208190555080600201548260a00181815250508160400151816006018190555060076000888152602001908152602001600020600081548092919061262290613f0e565b91905055508160146000600e54815260200190815260200160002060008201518160000160006101000a81548173ffffffffffffffffffffffffffffffffffffffff021916908373ffffffffffffffffffffffffffffffffffffffff1602179055506020820151816001015560408201518160020155606082015181600301556080820151816004015560a0820151816005015560c08201518160060155905050505050612b0c565b60008160050154905060008114156127c6578260400151826005018190555081600201548360c001818152505060076000898152602001908152602001600020600081548092919061271c90613f0e565b91905055508260146000600e54815260200190815260200160002060008201518160000160006101000a81548173ffffffffffffffffffffffffffffffffffffffff021916908373ffffffffffffffffffffffffffffffffffffffff1602179055506020820151816001015560408201518160020155606082015181600301556080820151816004015560a0820151816005015560c0820151816006015590505050505050612b0c565b8760146000878152602001908152602001600020600101541480156128005750866014600087815260200190815260200160002060030154115b801561282357506000601460008781526020019081526020016000206004015414155b1561282c578490505b5b866014600083815260200190815260200160002060030154111561288d5760006014600083815260200190815260200160002060050154141561286f5761288d565b6014600082815260200190815260200160002060050154905061282d565b600060146000838152602001908152602001600020600501541480156128c85750866014600083815260200190815260200160002060030154115b156129c45782604001516014600083815260200190815260200160002060050181905550808360c001818152505060076000898152602001908152602001600020600081548092919061291a90613f0e565b91905055508260146000600e54815260200190815260200160002060008201518160000160006101000a81548173ffffffffffffffffffffffffffffffffffffffff021916908373ffffffffffffffffffffffffffffffffffffffff1602179055506020820151816001015560408201518160020155606082015181600301556080820151816004015560a0820151816005015560c0820151816006015590505050505050612b0c565b826040015160146000601460008581526020019081526020016000206006015481526020019081526020016000206005018190555060146000828152602001908152602001600020600601548360c0018181525050808360a001818152505082604001516014600083815260200190815260200160002060060181905550600760008981526020019081526020016000206000815480929190612a6690613f0e565b91905055508260146000600e54815260200190815260200160002060008201518160000160006101000a81548173ffffffffffffffffffffffffffffffffffffffff021916908373ffffffffffffffffffffffffffffffffffffffff1602179055506020820151816001015560408201518160020155606082015181600301556080820151816004015560a0820151816005015560c08201518160060155905050505050505b50505050565b612b1a61319d565b73ffffffffffffffffffffffffffffffffffffffff16612b38611746565b73ffffffffffffffffffffffffffffffffffffffff1614612b8e576040517f08c379a0000000000000000000000000000000000000000000000000000000008152600401612b8590613b9f565b60405180910390fd5b600073ffffffffffffffffffffffffffffffffffffffff168173ffffffffffffffffffffffffffffffffffffffff161415612bfe576040517f08c379a0000000000000000000000000000000000000000000000000000000008152600401612bf590613b7f565b60405180910390fd5b612c07816131a5565b50565b600080600080600080600080601460008a81526020019081526020016000206040518060e00160405290816000820160009054906101000a900473ffffffffffffffffffffffffffffffffffffffff1673ffffffffffffffffffffffffffffffffffffffff1673ffffffffffffffffffffffffffffffffffffffff16815260200160018201548152602001600282015481526020016003820154815260200160048201548152602001600582015481526020016006820154815250509050806000015181602001518260400151836060015184608001518560a001518660c00151975097509750975097509750975050919395979092949650565b60008183612d139190613d70565b905092915050565b60008183612d299190613d3f565b905092915050565b60008183612d3f9190613e5e565b905092915050565b600060156000838152602001908152602001600020600601541415612d8a57612d856015600083815260200190815260200160002060010154613269565b612f1c565b600060156000838152602001908152602001600020600501541415612de0576000601560006015600085815260200190815260200160002060060154815260200190815260200160002060050181905550612e6f565b601560008281526020019081526020016000206005015460156000601560008581526020019081526020016000206006015481526020019081526020016000206005018190555060156000828152602001908152602001600020600601546015600060156000858152602001908152602001600020600501548152602001908152602001600020600601819055505b60156000828152602001908152602001600020600080820160006101000a81549073ffffffffffffffffffffffffffffffffffffffff0219169055600182016000905560028201600090556003820160009055600482016000905560058201600090556006820160009055505060086000601560008481526020019081526020016000206001015481526020019081526020016000206000815480929190612f1690613ee4565b91905055505b50565b60008183612f2d9190613c7f565b905092915050565b612f4c601254601154612f1f90919063ffffffff16565b4210612f5b57612f5a61337b565b5b612f81816009600085815260200190815260200160002054612f1f90919063ffffffff16565b6009600084815260200190815260200160002081905550600b60008381526020019081526020016000206000815480929190612fbc90613f0e565b91905055505050565b6000601460008381526020019081526020016000206006015414156130085761300360146000838152602001908152602001600020600101546135c7565b61319a565b60006014600083815260200190815260200160002060050154141561305e5760006014600060146000858152602001908152602001600020600601548152602001908152602001600020600501819055506130ed565b601460008281526020019081526020016000206005015460146000601460008581526020019081526020016000206006015481526020019081526020016000206005018190555060146000828152602001908152602001600020600601546014600060146000858152602001908152602001600020600501548152602001908152602001600020600601819055505b60146000828152602001908152602001600020600080820160006101000a81549073ffffffffffffffffffffffffffffffffffffffff021916905560018201600090556002820160009055600382016000905560048201600090556005820160009055600682016000905550506007600060146000848152602001908152602001600020600101548152602001908152602001600020600081548092919061319490613ee4565b91905055505b50565b600033905090565b60008060009054906101000a900473ffffffffffffffffffffffffffffffffffffffff169050816000806101000a81548173ffffffffffffffffffffffffffffffffffffffff021916908373ffffffffffffffffffffffffffffffffffffffff1602179055508173ffffffffffffffffffffffffffffffffffffffff168173ffffffffffffffffffffffffffffffffffffffff167f8be0079c531659141344cd1fd0a4f28419497f9722a3daafe3b4186f6b6457e060405160405180910390a35050565b60006006600083815260200190815260200160002054905060156000828152602001908152602001600020600501546006600084815260200190815260200160002081905550600060156000601560008581526020019081526020016000206005015481526020019081526020016000206006018190555060156000828152602001908152602001600020600080820160006101000a81549073ffffffffffffffffffffffffffffffffffffffff0219169055600182016000905560028201600090556003820160009055600482016000905560058201600090556006820160009055505060086000838152602001908152602001600020600081548092919061337290613ee4565b91905055505050565b60005b6004805490508110156135c4576000613396826136d9565b90506000600260009054906101000a900473ffffffffffffffffffffffffffffffffffffffff1673ffffffffffffffffffffffffffffffffffffffff1663f30d3d1b600d8581548110613412577f4e487b7100000000000000000000000000000000000000000000000000000000600052603260045260246000fd5b90600052602060002001546040518263ffffffff1660e01b81526004016134399190613bbf565b60206040518083038186803b15801561345157600080fd5b505afa158015613465573d6000803e3d6000fd5b505050506040513d601f19601f8201168201806040525081019061348991906138db565b905060006134a0828461378f90919063ffffffff16565b905060006134b9601354836137a590919063ffffffff16565b9050600060105490506134d582826137bb90919063ffffffff16565b9050600060048781548110613513577f4e487b7100000000000000000000000000000000000000000000000000000000600052603260045260246000fd5b9060005260206000200160009054906101000a900473ffffffffffffffffffffffffffffffffffffffff1690508073ffffffffffffffffffffffffffffffffffffffff16638f9bf833836040518263ffffffff1660e01b81526004016135799190613bbf565b600060405180830381600087803b15801561359357600080fd5b505af11580156135a7573d6000803e3d6000fd5b5050505050505050505080806135bc90613f0e565b91505061337e565b50565b60006005600083815260200190815260200160002054905060146000828152602001908152602001600020600501546005600084815260200190815260200160002081905550600060146000601460008581526020019081526020016000206005015481526020019081526020016000206006018190555060146000828152602001908152602001600020600080820160006101000a81549073ffffffffffffffffffffffffffffffffffffffff021916905560018201600090556002820160009055600382016000905560048201600090556005820160009055600682016000905550506007600083815260200190815260200160002060008154809291906136d090613ee4565b91905055505050565b600080613715600a6000858152602001908152602001600020546009600086815260200190815260200160002054612d3190919063ffffffff16565b9050600061373f600b60008681526020019081526020016000205483612d1b90919063ffffffff16565b90506000600b6000868152602001908152602001600020819055506009600085815260200190815260200160002054600a6000868152602001908152602001600020819055508092505050919050565b6000818361379d9190613dca565b905092915050565b600081836137b39190613cd5565b905092915050565b600081836137c99190613beb565b905092915050565b6000813590506137e08161402d565b92915050565b6000815190506137f581614044565b92915050565b60008151905061380a8161405b565b92915050565b60008135905061381f81614072565b92915050565b60008151905061383481614072565b92915050565b60006020828403121561384c57600080fd5b600061385a848285016137d1565b91505092915050565b60008060006060848603121561387857600080fd5b6000613886868287016137d1565b9350506020613897868287016137d1565b92505060406138a886828701613810565b9150509250925092565b6000602082840312156138c457600080fd5b60006138d2848285016137e6565b91505092915050565b6000602082840312156138ed57600080fd5b60006138fb848285016137fb565b91505092915050565b60006020828403121561391657600080fd5b600061392484828501613810565b91505092915050565b60006020828403121561393f57600080fd5b600061394d84828501613825565b91505092915050565b60008060006060848603121561396b57600080fd5b600061397986828701613810565b935050602061398a86828701613810565b925050604061399b86828701613810565b9150509250925092565b600080600080608085870312156139bb57600080fd5b60006139c987828801613810565b94505060206139da87828801613810565b93505060406139eb87828801613810565b92505060606139fc87828801613810565b91505092959194509250565b613a1181613e92565b82525050565b6000613a24602683613bda565b9150613a2f82613fb5565b604082019050919050565b6000613a47602083613bda565b9150613a5282614004565b602082019050919050565b613a6681613eda565b82525050565b6000602082019050613a816000830184613a08565b92915050565b6000604082019050613a9c6000830185613a08565b613aa96020830184613a08565b9392505050565b6000606082019050613ac56000830186613a08565b613ad26020830185613a08565b613adf6040830184613a5d565b949350505050565b6000604082019050613afc6000830185613a08565b613b096020830184613a5d565b9392505050565b600060e082019050613b25600083018a613a08565b613b326020830189613a5d565b613b3f6040830188613a5d565b613b4c6060830187613a5d565b613b596080830186613a5d565b613b6660a0830185613a5d565b613b7360c0830184613a5d565b98975050505050505050565b60006020820190508181036000830152613b9881613a17565b9050919050565b60006020820190508181036000830152613bb881613a3a565b9050919050565b6000602082019050613bd46000830184613a5d565b92915050565b600082825260208201905092915050565b6000613bf682613eb0565b9150613c0183613eb0565b9250817f7fffffffffffffffffffffffffffffffffffffffffffffffffffffffffffffff03831360008312151615613c3c57613c3b613f57565b5b817f8000000000000000000000000000000000000000000000000000000000000000038312600083121615613c7457613c73613f57565b5b828201905092915050565b6000613c8a82613eda565b9150613c9583613eda565b9250827fffffffffffffffffffffffffffffffffffffffffffffffffffffffffffffffff03821115613cca57613cc9613f57565b5b828201905092915050565b6000613ce082613eb0565b9150613ceb83613eb0565b925082613cfb57613cfa613f86565b5b600160000383147f800000000000000000000000000000000000000000000000000000000000000083141615613d3457613d33613f57565b5b828205905092915050565b6000613d4a82613eda565b9150613d5583613eda565b925082613d6557613d64613f86565b5b828204905092915050565b6000613d7b82613eda565b9150613d8683613eda565b9250817fffffffffffffffffffffffffffffffffffffffffffffffffffffffffffffffff0483118215151615613dbf57613dbe613f57565b5b828202905092915050565b6000613dd582613eb0565b9150613de083613eb0565b9250827f800000000000000000000000000000000000000000000000000000000000000001821260008412151615613e1b57613e1a613f57565b5b827f7fffffffffffffffffffffffffffffffffffffffffffffffffffffffffffffff018213600084121615613e5357613e52613f57565b5b828203905092915050565b6000613e6982613eda565b9150613e7483613eda565b925082821015613e8757613e86613f57565b5b828203905092915050565b6000613e9d82613eba565b9050919050565b60008115159050919050565b6000819050919050565b600073ffffffffffffffffffffffffffffffffffffffff82169050919050565b6000819050919050565b6000613eef82613eda565b91506000821415613f0357613f02613f57565b5b600182039050919050565b6000613f1982613eda565b91507fffffffffffffffffffffffffffffffffffffffffffffffffffffffffffffffff821415613f4c57613f4b613f57565b5b600182019050919050565b7f4e487b7100000000000000000000000000000000000000000000000000000000600052601160045260246000fd5b7f4e487b7100000000000000000000000000000000000000000000000000000000600052601260045260246000fd5b7f4f776e61626c653a206e6577206f776e657220697320746865207a65726f206160008201527f6464726573730000000000000000000000000000000000000000000000000000602082015250565b7f4f776e61626c653a2063616c6c6572206973206e6f7420746865206f776e6572600082015250565b61403681613e92565b811461404157600080fd5b50565b61404d81613ea4565b811461405857600080fd5b50565b61406481613eb0565b811461406f57600080fd5b50565b61407b81613eda565b811461408657600080fd5b5056fea2646970667358221220a97271a5168bda7a0483dd901ade121bdc48ef4e36f410b9c15275e6742da05264736f6c63430008040033",
  "linkReferences": {},
  "deployedLinkReferences": {}
}