{
  "_format": "hh-sol-artifact-1",
  "contractName": "OrderBook",
  "sourceName": "contracts/OrderBook/OrderBook.sol",
  "abi": [
    {
      "inputs": [
        {
          "internalType": "address[]",
          "name": "_FxPerpetuals",
          "type": "address[]"
        },
        {
          "internalType": "uint256[]",
          "name": "_baseTokenInfoArray",
          "type": "uint256[]"
        },
        {
          "internalType": "uint256[]",
          "name": "_oracleIndeces",
          "type": "uint256[]"
        },
        {
          "internalType": "uint256[][]",
          "name": "_recentSalesBaseArray",
          "type": "uint256[][]"
        },
        {
          "internalType": "address",
          "name": "_USD",
          "type": "address"
        },
        {
          "internalType": "address",
          "name": "_Oracle",
          "type": "address"
        }
      ],
      "stateMutability": "nonpayable",
      "type": "constructor"
    },
    {
      "anonymous": false,
      "inputs": [
        {
          "indexed": true,
          "internalType": "address",
          "name": "previousOwner",
          "type": "address"
        },
        {
          "indexed": true,
          "internalType": "address",
          "name": "newOwner",
          "type": "address"
        }
      ],
      "name": "OwnershipTransferred",
      "type": "event"
    },
    {
      "inputs": [
        {
          "internalType": "uint256",
          "name": "",
          "type": "uint256"
        }
      ],
      "name": "FxPerpetuals",
      "outputs": [
        {
          "internalType": "address",
          "name": "",
          "type": "address"
        }
      ],
      "stateMutability": "view",
      "type": "function"
    },
    {
      "inputs": [
        {
          "internalType": "address",
          "name": "_perpetual",
          "type": "address"
        },
        {
          "internalType": "uint256",
          "name": "_oracleIndex",
          "type": "uint256"
        }
      ],
      "name": "addFxPerpetual",
      "outputs": [],
      "stateMutability": "nonpayable",
      "type": "function"
    },
    {
      "inputs": [
        {
          "internalType": "uint256",
          "name": "",
          "type": "uint256"
        }
      ],
      "name": "buyHeads",
      "outputs": [
        {
          "internalType": "uint256",
          "name": "",
          "type": "uint256"
        }
      ],
      "stateMutability": "view",
      "type": "function"
    },
    {
      "inputs": [
        {
          "internalType": "uint256",
          "name": "_ID",
          "type": "uint256"
        }
      ],
      "name": "deleteBuy",
      "outputs": [],
      "stateMutability": "nonpayable",
      "type": "function"
    },
    {
      "inputs": [
        {
          "internalType": "uint256",
          "name": "_ID",
          "type": "uint256"
        }
      ],
      "name": "deleteSell",
      "outputs": [],
      "stateMutability": "nonpayable",
      "type": "function"
    },
    {
      "inputs": [
        {
          "internalType": "uint256",
          "name": "_tokenIndex",
          "type": "uint256"
        },
        {
          "internalType": "uint256",
          "name": "_price",
          "type": "uint256"
        },
        {
          "internalType": "uint256",
          "name": "_volume",
          "type": "uint256"
        },
        {
          "internalType": "uint256",
          "name": "_targetInsertion",
          "type": "uint256"
        }
      ],
      "name": "limitBuy",
      "outputs": [],
      "stateMutability": "nonpayable",
      "type": "function"
    },
    {
      "inputs": [
        {
          "internalType": "uint256",
          "name": "_tokenIndex",
          "type": "uint256"
        },
        {
          "internalType": "uint256",
          "name": "_price",
          "type": "uint256"
        },
        {
          "internalType": "uint256",
          "name": "_volume",
          "type": "uint256"
        },
        {
          "internalType": "uint256",
          "name": "_targetInsertion",
          "type": "uint256"
        }
      ],
      "name": "limitSell",
      "outputs": [],
      "stateMutability": "nonpayable",
      "type": "function"
    },
    {
      "inputs": [
        {
          "internalType": "uint256",
          "name": "_tokenIndex",
          "type": "uint256"
        },
        {
          "internalType": "uint256",
          "name": "_maxPrice",
          "type": "uint256"
        },
        {
          "internalType": "uint256",
          "name": "_volume",
          "type": "uint256"
        }
      ],
      "name": "marketBuy",
      "outputs": [
        {
          "internalType": "uint256",
          "name": "",
          "type": "uint256"
        }
      ],
      "stateMutability": "nonpayable",
      "type": "function"
    },
    {
      "inputs": [
        {
          "internalType": "uint256",
          "name": "_tokenIndex",
          "type": "uint256"
        },
        {
          "internalType": "uint256",
          "name": "_minPrice",
          "type": "uint256"
        },
        {
          "internalType": "uint256",
          "name": "_volume",
          "type": "uint256"
        }
      ],
      "name": "marketSell",
      "outputs": [
        {
          "internalType": "uint256",
          "name": "",
          "type": "uint256"
        }
      ],
      "stateMutability": "nonpayable",
      "type": "function"
    },
    {
      "inputs": [
        {
          "internalType": "uint256",
          "name": "",
          "type": "uint256"
        }
      ],
      "name": "openBuyOrders",
      "outputs": [
        {
          "internalType": "uint256",
          "name": "",
          "type": "uint256"
        }
      ],
      "stateMutability": "view",
      "type": "function"
    },
    {
      "inputs": [
        {
          "internalType": "uint256",
          "name": "",
          "type": "uint256"
        }
      ],
      "name": "openSellOrders",
      "outputs": [
        {
          "internalType": "uint256",
          "name": "",
          "type": "uint256"
        }
      ],
      "stateMutability": "view",
      "type": "function"
    },
    {
      "inputs": [],
      "name": "owner",
      "outputs": [
        {
          "internalType": "address",
          "name": "",
          "type": "address"
        }
      ],
      "stateMutability": "view",
      "type": "function"
    },
    {
      "inputs": [
        {
          "internalType": "uint256",
          "name": "",
          "type": "uint256"
        }
      ],
      "name": "prices",
      "outputs": [
        {
          "internalType": "uint256",
          "name": "",
          "type": "uint256"
        }
      ],
      "stateMutability": "view",
      "type": "function"
    },
    {
      "inputs": [],
      "name": "renounceOwnership",
      "outputs": [],
      "stateMutability": "nonpayable",
      "type": "function"
    },
    {
      "inputs": [
        {
          "internalType": "uint256",
          "name": "",
          "type": "uint256"
        }
      ],
      "name": "sellHeads",
      "outputs": [
        {
          "internalType": "uint256",
          "name": "",
          "type": "uint256"
        }
      ],
      "stateMutability": "view",
      "type": "function"
    },
    {
      "inputs": [
        {
          "internalType": "address",
          "name": "newOwner",
          "type": "address"
        }
      ],
      "name": "transferOwnership",
      "outputs": [],
      "stateMutability": "nonpayable",
      "type": "function"
    }
  ],
  "bytecode": "0x60806040523480156200001157600080fd5b50604051620044453803806200444583398181016040528101906200003791906200068c565b620000576200004b620001df60201b60201c565b620001e760201b60201c565b85600390805190602001906200006f929190620002ab565b5081600160006101000a81548173ffffffffffffffffffffffffffffffffffffffff021916908373ffffffffffffffffffffffffffffffffffffffff16021790555080600260006101000a81548173ffffffffffffffffffffffffffffffffffffffff021916908373ffffffffffffffffffffffffffffffffffffffff16021790555084600490805190602001906200010a9291906200033a565b508460059080519060200190620001239291906200033a565b5084600690805190602001906200013c9291906200033a565b508460079080519060200190620001559291906200033a565b5084600890805190602001906200016e9291906200033a565b5084600a9080519060200190620001879291906200033a565b5084600b9080519060200190620001a09291906200033a565b5083600c9080519060200190620001b99291906200033a565b508260099080519060200190620001d29291906200038c565b5050505050505062000924565b600033905090565b60008060009054906101000a900473ffffffffffffffffffffffffffffffffffffffff169050816000806101000a81548173ffffffffffffffffffffffffffffffffffffffff021916908373ffffffffffffffffffffffffffffffffffffffff1602179055508173ffffffffffffffffffffffffffffffffffffffff168173ffffffffffffffffffffffffffffffffffffffff167f8be0079c531659141344cd1fd0a4f28419497f9722a3daafe3b4186f6b6457e060405160405180910390a35050565b82805482825590600052602060002090810192821562000327579160200282015b82811115620003265782518260006101000a81548173ffffffffffffffffffffffffffffffffffffffff021916908373ffffffffffffffffffffffffffffffffffffffff16021790555091602001919060010190620002cc565b5b509050620003369190620003f3565b5090565b82805482825590600052602060002090810192821562000379579160200282015b82811115620003785782518255916020019190600101906200035b565b5b509050620003889190620003f3565b5090565b828054828255906000526020600020908101928215620003e0579160200282015b82811115620003df578251829080519060200190620003ce9291906200033a565b5091602001919060010190620003ad565b5b509050620003ef919062000412565b5090565b5b808211156200040e576000816000905550600101620003f4565b5090565b5b808211156200043657600081816200042c91906200043a565b5060010162000413565b5090565b50805460008255906000526020600020908101906200045a9190620003f3565b50565b6000620004746200046e84620007af565b62000786565b905080838252602082019050828560208602820111156200049457600080fd5b60005b85811015620004c85781620004ad8882620005d7565b84526020840193506020830192505060018101905062000497565b5050509392505050565b6000620004e9620004e384620007de565b62000786565b905080838252602082019050828560208602820111156200050957600080fd5b60005b858110156200055857815167ffffffffffffffff8111156200052d57600080fd5b8086016200053c898262000648565b855260208501945060208401935050506001810190506200050c565b5050509392505050565b60006200057962000573846200080d565b62000786565b905080838252602082019050828560208602820111156200059957600080fd5b60005b85811015620005cd5781620005b2888262000675565b8452602084019350602083019250506001810190506200059c565b5050509392505050565b600081519050620005e881620008f0565b92915050565b600082601f8301126200060057600080fd5b8151620006128482602086016200045d565b91505092915050565b600082601f8301126200062d57600080fd5b81516200063f848260208601620004d2565b91505092915050565b600082601f8301126200065a57600080fd5b81516200066c84826020860162000562565b91505092915050565b60008151905062000686816200090a565b92915050565b60008060008060008060c08789031215620006a657600080fd5b600087015167ffffffffffffffff811115620006c157600080fd5b620006cf89828a01620005ee565b965050602087015167ffffffffffffffff811115620006ed57600080fd5b620006fb89828a0162000648565b955050604087015167ffffffffffffffff8111156200071957600080fd5b6200072789828a0162000648565b945050606087015167ffffffffffffffff8111156200074557600080fd5b6200075389828a016200061b565b93505060806200076689828a01620005d7565b92505060a06200077989828a01620005d7565b9150509295509295509295565b600062000792620007a5565b9050620007a082826200087a565b919050565b6000604051905090565b600067ffffffffffffffff821115620007cd57620007cc620008b0565b5b602082029050602081019050919050565b600067ffffffffffffffff821115620007fc57620007fb620008b0565b5b602082029050602081019050919050565b600067ffffffffffffffff8211156200082b576200082a620008b0565b5b602082029050602081019050919050565b6000620008498262000850565b9050919050565b600073ffffffffffffffffffffffffffffffffffffffff82169050919050565b6000819050919050565b6200088582620008df565b810181811067ffffffffffffffff82111715620008a757620008a6620008b0565b5b80604052505050565b7f4e487b7100000000000000000000000000000000000000000000000000000000600052604160045260246000fd5b6000601f19601f8301169050919050565b620008fb816200083c565b81146200090757600080fd5b50565b620009158162000870565b81146200092157600080fd5b50565b613b1180620009346000396000f3fe608060405234801561001057600080fd5b50600436106101005760003560e01c80638da5cb5b11610097578063d6d423d811610066578063d6d423d8146102d1578063d935e46714610301578063f0768cf71461031d578063f2fde38b1461033957610100565b80638da5cb5b146102375780639ff1549c14610255578063b55e091214610271578063bc31c1c1146102a157610100565b806359d5445b116100d357806359d5445b146101c55780635c285acb146101e15780636ba755ef14610211578063715018a61461022d57610100565b80631bed7a811461010557806335460d92146101355780633c8e5d4414610165578063476d4f3f14610195575b600080fd5b61011f600480360381019061011a91906135a2565b610355565b60405161012c919061370a565b60405180910390f35b61014f600480360381019061014a91906135a2565b610394565b60405161015c91906137ee565b60405180910390f35b61017f600480360381019061017a91906135f4565b6103b8565b60405161018c91906137ee565b60405180910390f35b6101af60048036038101906101aa91906135a2565b610b8a565b6040516101bc91906137ee565b60405180910390f35b6101df60048036038101906101da91906135a2565b610bae565b005b6101fb60048036038101906101f691906135a2565b610e17565b60405161020891906137ee565b60405180910390f35b61022b60048036038101906102269190613643565b610e3b565b005b6102356116e3565b005b61023f61176b565b60405161024c919061370a565b60405180910390f35b61026f600480360381019061026a91906135a2565b611794565b005b61028b600480360381019061028691906135f4565b6119fd565b60405161029891906137ee565b60405180910390f35b6102bb60048036038101906102b691906135a2565b61219b565b6040516102c891906137ee565b60405180910390f35b6102eb60048036038101906102e691906135a2565b6121bf565b6040516102f891906137ee565b60405180910390f35b61031b6004803603810190610316919061353d565b6121e3565b005b61033760048036038101906103329190613643565b61245c565b005b610353600480360381019061034e9190613514565b612cfb565b005b6003818154811061036557600080fd5b906000526020600020016000915054906101000a900473ffffffffffffffffffffffffffffffffffffffff1681565b600681815481106103a457600080fd5b906000526020600020016000915090505481565b600083600080600090505b600581101561047a5761046560098481548110610409577f4e487b7100000000000000000000000000000000000000000000000000000000600052603260045260246000fd5b90600052602060002001828154811061044b577f4e487b7100000000000000000000000000000000000000000000000000000000600052603260045260246000fd5b906000526020600020015483612df390919063ffffffff16565b9150808061047290613977565b9150506103c3565b5061048f600582612e0990919063ffffffff16565b600483815481106104c9577f4e487b7100000000000000000000000000000000000000000000000000000000600052603260045260246000fd5b9060005260206000200181905550600060038781548110610513577f4e487b7100000000000000000000000000000000000000000000000000000000600052603260045260246000fd5b9060005260206000200160009054906101000a900473ffffffffffffffffffffffffffffffffffffffff1690506105538587612e1f90919063ffffffff16565b600160009054906101000a900473ffffffffffffffffffffffffffffffffffffffff1673ffffffffffffffffffffffffffffffffffffffff1663dd62ed3e33306040518363ffffffff1660e01b81526004016105b0929190613725565b60206040518083038186803b1580156105c857600080fd5b505afa1580156105dc573d6000803e3d6000fd5b505050506040513d601f19601f8201168201806040525081019061060091906135cb565b101561060b57600080fd5b600060088881548110610647577f4e487b7100000000000000000000000000000000000000000000000000000000600052603260045260246000fd5b90600052602060002001541161065c57600080fd5b600060068881548110610698577f4e487b7100000000000000000000000000000000000000000000000000000000600052603260045260246000fd5b906000526020600020015490505b6000861180156106cb5750866011600083815260200190815260200160002060030154105b15610b7b5760006011600083815260200190815260200160002090508681600401541061096d57600160009054906101000a900473ffffffffffffffffffffffffffffffffffffffff1673ffffffffffffffffffffffffffffffffffffffff166323b872dd338360000160009054906101000a900473ffffffffffffffffffffffffffffffffffffffff1661076d85600301548c612e1f90919063ffffffff16565b6040518463ffffffff1660e01b815260040161078b9392919061374e565b602060405180830381600087803b1580156107a557600080fd5b505af11580156107b9573d6000803e3d6000fd5b505050506040513d601f19601f820116820180604052508101906107dd9190613579565b508273ffffffffffffffffffffffffffffffffffffffff1663a9059cbb33896040518363ffffffff1660e01b8152600401610819929190613785565b602060405180830381600087803b15801561083357600080fd5b505af1158015610847573d6000803e3d6000fd5b505050506040513d601f19601f8201168201806040525081019061086b9190613579565b50610883878260040154612e3590919063ffffffff16565b81600401819055506000816004015414156109065760116000838152602001908152602001600020600080820160006101000a81549073ffffffffffffffffffffffffffffffffffffffff021916905560018201600090556002820160009055600382016000905560048201600090556005820160009055600682016000905550505b600a8981548110610940577f4e487b7100000000000000000000000000000000000000000000000000000000600052603260045260246000fd5b906000526020600020015443111561096157610960898260030154612e4b565b5b60009550505050610b81565b600160009054906101000a900473ffffffffffffffffffffffffffffffffffffffff1673ffffffffffffffffffffffffffffffffffffffff166323b872dd338360000160009054906101000a900473ffffffffffffffffffffffffffffffffffffffff166109ec85600301548660040154612e1f90919063ffffffff16565b6040518463ffffffff1660e01b8152600401610a0a9392919061374e565b602060405180830381600087803b158015610a2457600080fd5b505af1158015610a38573d6000803e3d6000fd5b505050506040513d601f19601f82011682018060405250810190610a5c9190613579565b508273ffffffffffffffffffffffffffffffffffffffff1663a9059cbb3383600401546040518363ffffffff1660e01b8152600401610a9c929190613785565b602060405180830381600087803b158015610ab657600080fd5b505af1158015610aca573d6000803e3d6000fd5b505050506040513d601f19601f82011682018060405250810190610aee9190613579565b50610b06816004015488612e3590919063ffffffff16565b965060116000838152602001908152602001600020600080820160006101000a81549073ffffffffffffffffffffffffffffffffffffffff02191690556001820160009055600282016000905560038201600090556004820160009055600582016000905560068201600090555050506106a6565b85945050505b50509392505050565b60058181548110610b9a57600080fd5b906000526020600020016000915090505481565b6010600082815260200190815260200160002060000160009054906101000a900473ffffffffffffffffffffffffffffffffffffffff1673ffffffffffffffffffffffffffffffffffffffff163373ffffffffffffffffffffffffffffffffffffffff1614610c1c57600080fd5b6005601060008381526020019081526020016000206001015481548110610c6c577f4e487b7100000000000000000000000000000000000000000000000000000000600052603260045260246000fd5b9060005260206000200154811415610c8357600080fd5b600060106000838152602001908152602001600020600601541415610cc257610cc160106000838152602001908152602001600020600101546130ef565b5b600060106000838152602001908152602001600020600501541415610d18576000601060006010600085815260200190815260200160002060060154815260200190815260200160002060050181905550610da7565b601060008281526020019081526020016000206005015460106000601060008581526020019081526020016000206006015481526020019081526020016000206005018190555060106000828152602001908152602001600020600601546010600060106000858152602001908152602001600020600501548152602001908152602001600020600601819055505b60106000828152602001908152602001600020600080820160006101000a81549073ffffffffffffffffffffffffffffffffffffffff0219169055600182016000905560028201600090556003820160009055600482016000905560058201600090556006820160009055505050565b60088181548110610e2757600080fd5b906000526020600020016000915090505481565b600060038581548110610e77577f4e487b7100000000000000000000000000000000000000000000000000000000600052603260045260246000fd5b9060005260206000200160009054906101000a900473ffffffffffffffffffffffffffffffffffffffff169050610eb78484612e1f90919063ffffffff16565b8173ffffffffffffffffffffffffffffffffffffffff1663dd62ed3e33306040518363ffffffff1660e01b8152600401610ef2929190613725565b60206040518083038186803b158015610f0a57600080fd5b505afa158015610f1e573d6000803e3d6000fd5b505050506040513d601f19601f82011682018060405250810190610f4291906135cb565b1015610f4d57600080fd5b60008060078781548110610f8a577f4e487b7100000000000000000000000000000000000000000000000000000000600052603260045260246000fd5b9060005260206000200154111561104d57610fa68686866119fd565b90506000811415610fb85750506116dd565b8173ffffffffffffffffffffffffffffffffffffffff166323b872dd3330846040518463ffffffff1660e01b8152600401610ff59392919061374e565b602060405180830381600087803b15801561100f57600080fd5b505af1158015611023573d6000803e3d6000fd5b505050506040513d601f19601f820116820180604052508101906110479190613579565b506110de565b8173ffffffffffffffffffffffffffffffffffffffff166323b872dd3330876040518463ffffffff1660e01b815260040161108a9392919061374e565b602060405180830381600087803b1580156110a457600080fd5b505af11580156110b8573d6000803e3d6000fd5b505050506040513d601f19601f820116820180604052508101906110dc9190613579565b505b600e60008154809291906110f190613977565b919050555060006040518060e001604052803373ffffffffffffffffffffffffffffffffffffffff168152602001888152602001600e548152602001878152602001600084146111415783611143565b865b815260200160008152602001600081525090508060116000600e54815260200190815260200160002060008201518160000160006101000a81548173ffffffffffffffffffffffffffffffffffffffff021916908373ffffffffffffffffffffffffffffffffffffffff1602179055506020820151816001015560408201518160020155606082015181600301556080820151816004015560a0820151816005015560c0820151816006015590505060006008888154811061122e577f4e487b7100000000000000000000000000000000000000000000000000000000600052603260045260246000fd5b906000526020600020015414156112ec57600e546006888154811061127c577f4e487b7100000000000000000000000000000000000000000000000000000000600052603260045260246000fd5b9060005260206000200181905550600887815481106112c4577f4e487b7100000000000000000000000000000000000000000000000000000000600052603260045260246000fd5b9060005260206000200160008154809291906112df90613977565b91905055505050506116dd565b60006011600060068a8154811061132c577f4e487b7100000000000000000000000000000000000000000000000000000000600052603260045260246000fd5b906000526020600020015481526020019081526020016000209050806003015487101561141e57816040015160068981548110611392577f4e487b7100000000000000000000000000000000000000000000000000000000600052603260045260246000fd5b906000526020600020018190555080600201548260a001818152505081604001518160060181905550600888815481106113f5577f4e487b7100000000000000000000000000000000000000000000000000000000600052603260045260246000fd5b90600052602060002001600081548092919061141090613977565b9190505550505050506116dd565b60008160050154905060008114156114af578260400151826005018190555081600201548360c001818152505060088981548110611485577f4e487b7100000000000000000000000000000000000000000000000000000000600052603260045260246000fd5b9060005260206000200160008154809291906114a090613977565b919050555050505050506116dd565b8860116000888152602001908152602001600020600101541480156114e95750876011600088815260200190815260200160002060030154105b156114f2578590505b5b87601160008381526020019081526020016000206003015410156115535760006011600083815260200190815260200160002060050154141561153557611553565b601160008281526020019081526020016000206005015490506114f3565b6000601160008381526020019081526020016000206005015414156115ff5782604001516011600083815260200190815260200160002060050181905550808360c0018181525050600889815481106115d5577f4e487b7100000000000000000000000000000000000000000000000000000000600052603260045260246000fd5b9060005260206000200160008154809291906115f090613977565b919050555050505050506116dd565b826040015160116000601160008581526020019081526020016000206006015481526020019081526020016000206005018190555060116000828152602001908152602001600020600601548360c0018181525050808360a001818152505082604001516011600083815260200190815260200160002060060181905550600889815481106116b7577f4e487b7100000000000000000000000000000000000000000000000000000000600052603260045260246000fd5b9060005260206000200160008154809291906116d290613977565b919050555050505050505b50505050565b6116eb61323a565b73ffffffffffffffffffffffffffffffffffffffff1661170961176b565b73ffffffffffffffffffffffffffffffffffffffff161461175f576040517f08c379a0000000000000000000000000000000000000000000000000000000008152600401611756906137ce565b60405180910390fd5b6117696000613242565b565b60008060009054906101000a900473ffffffffffffffffffffffffffffffffffffffff16905090565b6011600082815260200190815260200160002060000160009054906101000a900473ffffffffffffffffffffffffffffffffffffffff1673ffffffffffffffffffffffffffffffffffffffff163373ffffffffffffffffffffffffffffffffffffffff161461180257600080fd5b6006601160008381526020019081526020016000206001015481548110611852577f4e487b7100000000000000000000000000000000000000000000000000000000600052603260045260246000fd5b906000526020600020015481141561186957600080fd5b6000601160008381526020019081526020016000206006015414156118a8576118a76011600083815260200190815260200160002060010154613306565b5b6000601160008381526020019081526020016000206005015414156118fe57600060116000601160008581526020019081526020016000206006015481526020019081526020016000206005018190555061198d565b601160008281526020019081526020016000206005015460116000601160008581526020019081526020016000206006015481526020019081526020016000206005018190555060116000828152602001908152602001600020600601546011600060116000858152602001908152602001600020600501548152602001908152602001600020600601819055505b60116000828152602001908152602001600020600080820160006101000a81549073ffffffffffffffffffffffffffffffffffffffff0219169055600182016000905560028201600090556003820160009055600482016000905560058201600090556006820160009055505050565b600083600080600090505b6005811015611abf57611aaa60098481548110611a4e577f4e487b7100000000000000000000000000000000000000000000000000000000600052603260045260246000fd5b906000526020600020018281548110611a90577f4e487b7100000000000000000000000000000000000000000000000000000000600052603260045260246000fd5b906000526020600020015483612df390919063ffffffff16565b91508080611ab790613977565b915050611a08565b50611ad4600582612e0990919063ffffffff16565b60048381548110611b0e577f4e487b7100000000000000000000000000000000000000000000000000000000600052603260045260246000fd5b9060005260206000200181905550600060038781548110611b58577f4e487b7100000000000000000000000000000000000000000000000000000000600052603260045260246000fd5b9060005260206000200160009054906101000a900473ffffffffffffffffffffffffffffffffffffffff169050848173ffffffffffffffffffffffffffffffffffffffff1663dd62ed3e33306040518363ffffffff1660e01b8152600401611bc1929190613725565b60206040518083038186803b158015611bd957600080fd5b505afa158015611bed573d6000803e3d6000fd5b505050506040513d601f19601f82011682018060405250810190611c1191906135cb565b1015611c1c57600080fd5b600060078881548110611c58577f4e487b7100000000000000000000000000000000000000000000000000000000600052603260045260246000fd5b906000526020600020015411611c6d57600080fd5b600060058881548110611ca9577f4e487b7100000000000000000000000000000000000000000000000000000000600052603260045260246000fd5b906000526020600020015490505b600086118015611cdc5750866010600083815260200190815260200160002060030154115b1561218c57600060106000838152602001908152602001600020905086816004015410611f7e57600160009054906101000a900473ffffffffffffffffffffffffffffffffffffffff1673ffffffffffffffffffffffffffffffffffffffff1663a9059cbb33611d5984600301548b612e1f90919063ffffffff16565b6040518363ffffffff1660e01b8152600401611d76929190613785565b602060405180830381600087803b158015611d9057600080fd5b505af1158015611da4573d6000803e3d6000fd5b505050506040513d601f19601f82011682018060405250810190611dc89190613579565b508273ffffffffffffffffffffffffffffffffffffffff166323b872dd338360000160009054906101000a900473ffffffffffffffffffffffffffffffffffffffff168a6040518463ffffffff1660e01b8152600401611e2a9392919061374e565b602060405180830381600087803b158015611e4457600080fd5b505af1158015611e58573d6000803e3d6000fd5b505050506040513d601f19601f82011682018060405250810190611e7c9190613579565b50611e94878260040154612e3590919063ffffffff16565b8160040181905550600081600401541415611f175760106000838152602001908152602001600020600080820160006101000a81549073ffffffffffffffffffffffffffffffffffffffff021916905560018201600090556002820160009055600382016000905560048201600090556005820160009055600682016000905550505b600a8981548110611f51577f4e487b7100000000000000000000000000000000000000000000000000000000600052603260045260246000fd5b9060005260206000200154431115611f7257611f71898260030154612e4b565b5b60009550505050612192565b600160009054906101000a900473ffffffffffffffffffffffffffffffffffffffff1673ffffffffffffffffffffffffffffffffffffffff1663a9059cbb33611fd884600301548560040154612e1f90919063ffffffff16565b6040518363ffffffff1660e01b8152600401611ff5929190613785565b602060405180830381600087803b15801561200f57600080fd5b505af1158015612023573d6000803e3d6000fd5b505050506040513d601f19601f820116820180604052508101906120479190613579565b508273ffffffffffffffffffffffffffffffffffffffff166323b872dd338360000160009054906101000a900473ffffffffffffffffffffffffffffffffffffffff1684600401546040518463ffffffff1660e01b81526004016120ad9392919061374e565b602060405180830381600087803b1580156120c757600080fd5b505af11580156120db573d6000803e3d6000fd5b505050506040513d601f19601f820116820180604052508101906120ff9190613579565b50612117816004015488612e3590919063ffffffff16565b965060106000838152602001908152602001600020600080820160006101000a81549073ffffffffffffffffffffffffffffffffffffffff0219169055600182016000905560028201600090556003820160009055600482016000905560058201600090556006820160009055505050611cb7565b85945050505b50509392505050565b600481815481106121ab57600080fd5b906000526020600020016000915090505481565b600781815481106121cf57600080fd5b906000526020600020016000915090505481565b6121eb61323a565b73ffffffffffffffffffffffffffffffffffffffff1661220961176b565b73ffffffffffffffffffffffffffffffffffffffff161461225f576040517f08c379a0000000000000000000000000000000000000000000000000000000008152600401612256906137ce565b60405180910390fd5b6003829080600181540180825580915050600190039060005260206000200160009091909190916101000a81548173ffffffffffffffffffffffffffffffffffffffff021916908373ffffffffffffffffffffffffffffffffffffffff160217905550600c819080600181540180825580915050600190039060005260206000200160009091909190915055600560009080600181540180825580915050600190039060005260206000200160009091909190915055600660009080600181540180825580915050600190039060005260206000200160009091909190915055600760009080600181540180825580915050600190039060005260206000200160009091909190915055600460009080600181540180825580915050600190039060005260206000200160009091909190915055600b60009080600181540180825580915050600190039060005260206000200160009091909190915055600a6000908060018154018082558091505060019003906000526020600020016000909190919091505560096040518060a00160405280600060ff168152602001600060ff168152602001600060ff168152602001600060ff168152602001600060ff1681525090806001815401808255809150506001900390600052602060002001600090919091909150906005612457929190613451565b505050565b61246f8383612e1f90919063ffffffff16565b600160009054906101000a900473ffffffffffffffffffffffffffffffffffffffff1673ffffffffffffffffffffffffffffffffffffffff1663dd62ed3e33306040518363ffffffff1660e01b81526004016124cc929190613725565b60206040518083038186803b1580156124e457600080fd5b505afa1580156124f8573d6000803e3d6000fd5b505050506040513d601f19601f8201168201806040525081019061251c91906135cb565b101561252757600080fd5b60008060088681548110612564577f4e487b7100000000000000000000000000000000000000000000000000000000600052603260045260246000fd5b90600052602060002001541115612648576125808585856103b8565b905060008114156125915750612cf5565b600160009054906101000a900473ffffffffffffffffffffffffffffffffffffffff1673ffffffffffffffffffffffffffffffffffffffff166323b872dd3330846040518463ffffffff1660e01b81526004016125f09392919061374e565b602060405180830381600087803b15801561260a57600080fd5b505af115801561261e573d6000803e3d6000fd5b505050506040513d601f19601f820116820180604052508101906126429190613579565b506126fb565b600160009054906101000a900473ffffffffffffffffffffffffffffffffffffffff1673ffffffffffffffffffffffffffffffffffffffff166323b872dd3330866040518463ffffffff1660e01b81526004016126a79392919061374e565b602060405180830381600087803b1580156126c157600080fd5b505af11580156126d5573d6000803e3d6000fd5b505050506040513d601f19601f820116820180604052508101906126f99190613579565b505b600d600081548092919061270e90613977565b919050555060006040518060e001604052803373ffffffffffffffffffffffffffffffffffffffff168152602001878152602001600d5481526020018681526020016000841461275e5783612760565b855b815260200160008152602001600081525090508060106000600d54815260200190815260200160002060008201518160000160006101000a81548173ffffffffffffffffffffffffffffffffffffffff021916908373ffffffffffffffffffffffffffffffffffffffff1602179055506020820151816001015560408201518160020155606082015181600301556080820151816004015560a0820151816005015560c0820151816006015590505060006007878154811061284b577f4e487b7100000000000000000000000000000000000000000000000000000000600052603260045260246000fd5b9060005260206000200154141561290857600d5460058781548110612899577f4e487b7100000000000000000000000000000000000000000000000000000000600052603260045260246000fd5b9060005260206000200181905550600786815481106128e1577f4e487b7100000000000000000000000000000000000000000000000000000000600052603260045260246000fd5b9060005260206000200160008154809291906128fc90613977565b91905055505050612cf5565b60006010600060058981548110612948577f4e487b7100000000000000000000000000000000000000000000000000000000600052603260045260246000fd5b9060005260206000200154815260200190815260200160002090508060030154861115612a39578160400151600588815481106129ae577f4e487b7100000000000000000000000000000000000000000000000000000000600052603260045260246000fd5b906000526020600020018190555080600201548260a00181815250508160400151816006018190555060078781548110612a11577f4e487b7100000000000000000000000000000000000000000000000000000000600052603260045260246000fd5b906000526020600020016000815480929190612a2c90613977565b9190505550505050612cf5565b6000816005015490506000811415612ac9578260400151826005018190555081600201548360c001818152505060078881548110612aa0577f4e487b7100000000000000000000000000000000000000000000000000000000600052603260045260246000fd5b906000526020600020016000815480929190612abb90613977565b919050555050505050612cf5565b876010600087815260200190815260200160002060010154148015612b035750866010600087815260200190815260200160002060030154115b15612b0c578490505b5b8660106000838152602001908152602001600020600301541115612b6d57600060106000838152602001908152602001600020600501541415612b4f57612b6d565b60106000828152602001908152602001600020600501549050612b0d565b600060106000838152602001908152602001600020600501541415612c185782604001516010600083815260200190815260200160002060050181905550808360c001818152505060078881548110612bef577f4e487b7100000000000000000000000000000000000000000000000000000000600052603260045260246000fd5b906000526020600020016000815480929190612c0a90613977565b919050555050505050612cf5565b826040015160106000601060008581526020019081526020016000206006015481526020019081526020016000206005018190555060106000828152602001908152602001600020600601548360c0018181525050808360a00181815250508260400151601060008381526020019081526020016000206006018190555060078881548110612cd0577f4e487b7100000000000000000000000000000000000000000000000000000000600052603260045260246000fd5b906000526020600020016000815480929190612ceb90613977565b9190505550505050505b50505050565b612d0361323a565b73ffffffffffffffffffffffffffffffffffffffff16612d2161176b565b73ffffffffffffffffffffffffffffffffffffffff1614612d77576040517f08c379a0000000000000000000000000000000000000000000000000000000008152600401612d6e906137ce565b60405180910390fd5b600073ffffffffffffffffffffffffffffffffffffffff168173ffffffffffffffffffffffffffffffffffffffff161415612de7576040517f08c379a0000000000000000000000000000000000000000000000000000000008152600401612dde906137ae565b60405180910390fd5b612df081613242565b50565b60008183612e01919061381a565b905092915050565b60008183612e179190613870565b905092915050565b60008183612e2d91906138a1565b905092915050565b60008183612e4391906138fb565b905092915050565b6005600b8381548110612e87577f4e487b7100000000000000000000000000000000000000000000000000000000600052603260045260246000fd5b90600052602060002001541015612f6c578060098381548110612ed3577f4e487b7100000000000000000000000000000000000000000000000000000000600052603260045260246000fd5b90600052602060002001600b8481548110612f17577f4e487b7100000000000000000000000000000000000000000000000000000000600052603260045260246000fd5b906000526020600020015481548110612f59577f4e487b7100000000000000000000000000000000000000000000000000000000600052603260045260246000fd5b9060005260206000200181905550613047565b8060098381548110612fa7577f4e487b7100000000000000000000000000000000000000000000000000000000600052603260045260246000fd5b90600052602060002001600081548110612fea577f4e487b7100000000000000000000000000000000000000000000000000000000600052603260045260246000fd5b90600052602060002001819055506001600b8381548110613034577f4e487b7100000000000000000000000000000000000000000000000000000000600052603260045260246000fd5b90600052602060002001819055506130eb565b600b8281548110613081577f4e487b7100000000000000000000000000000000000000000000000000000000600052603260045260246000fd5b90600052602060002001600081548092919061309c90613977565b919050555043600a83815481106130dc577f4e487b7100000000000000000000000000000000000000000000000000000000600052603260045260246000fd5b90600052602060002001819055505b5050565b60006005828154811061312b577f4e487b7100000000000000000000000000000000000000000000000000000000600052603260045260246000fd5b90600052602060002001549050601060008281526020019081526020016000206005015460058381548110613189577f4e487b7100000000000000000000000000000000000000000000000000000000600052603260045260246000fd5b9060005260206000200181905550600060106000601060008581526020019081526020016000206005015481526020019081526020016000206006018190555060106000828152602001908152602001600020600080820160006101000a81549073ffffffffffffffffffffffffffffffffffffffff021916905560018201600090556002820160009055600382016000905560048201600090556005820160009055600682016000905550505050565b600033905090565b60008060009054906101000a900473ffffffffffffffffffffffffffffffffffffffff169050816000806101000a81548173ffffffffffffffffffffffffffffffffffffffff021916908373ffffffffffffffffffffffffffffffffffffffff1602179055508173ffffffffffffffffffffffffffffffffffffffff168173ffffffffffffffffffffffffffffffffffffffff167f8be0079c531659141344cd1fd0a4f28419497f9722a3daafe3b4186f6b6457e060405160405180910390a35050565b600060068281548110613342577f4e487b7100000000000000000000000000000000000000000000000000000000600052603260045260246000fd5b906000526020600020015490506011600082815260200190815260200160002060050154600683815481106133a0577f4e487b7100000000000000000000000000000000000000000000000000000000600052603260045260246000fd5b9060005260206000200181905550600060116000601160008581526020019081526020016000206005015481526020019081526020016000206006018190555060116000828152602001908152602001600020600080820160006101000a81549073ffffffffffffffffffffffffffffffffffffffff021916905560018201600090556002820160009055600382016000905560048201600090556005820160009055600682016000905550505050565b828054828255906000526020600020908101928215613492579160200282015b82811115613491578251829060ff16905591602001919060010190613471565b5b50905061349f91906134a3565b5090565b5b808211156134bc5760008160009055506001016134a4565b5090565b6000813590506134cf81613a96565b92915050565b6000815190506134e481613aad565b92915050565b6000813590506134f981613ac4565b92915050565b60008151905061350e81613ac4565b92915050565b60006020828403121561352657600080fd5b6000613534848285016134c0565b91505092915050565b6000806040838503121561355057600080fd5b600061355e858286016134c0565b925050602061356f858286016134ea565b9150509250929050565b60006020828403121561358b57600080fd5b6000613599848285016134d5565b91505092915050565b6000602082840312156135b457600080fd5b60006135c2848285016134ea565b91505092915050565b6000602082840312156135dd57600080fd5b60006135eb848285016134ff565b91505092915050565b60008060006060848603121561360957600080fd5b6000613617868287016134ea565b9350506020613628868287016134ea565b9250506040613639868287016134ea565b9150509250925092565b6000806000806080858703121561365957600080fd5b6000613667878288016134ea565b9450506020613678878288016134ea565b9350506040613689878288016134ea565b925050606061369a878288016134ea565b91505092959194509250565b6136af8161392f565b82525050565b60006136c2602683613809565b91506136cd82613a1e565b604082019050919050565b60006136e5602083613809565b91506136f082613a6d565b602082019050919050565b6137048161396d565b82525050565b600060208201905061371f60008301846136a6565b92915050565b600060408201905061373a60008301856136a6565b61374760208301846136a6565b9392505050565b600060608201905061376360008301866136a6565b61377060208301856136a6565b61377d60408301846136fb565b949350505050565b600060408201905061379a60008301856136a6565b6137a760208301846136fb565b9392505050565b600060208201905081810360008301526137c7816136b5565b9050919050565b600060208201905081810360008301526137e7816136d8565b9050919050565b600060208201905061380360008301846136fb565b92915050565b600082825260208201905092915050565b60006138258261396d565b91506138308361396d565b9250827fffffffffffffffffffffffffffffffffffffffffffffffffffffffffffffffff03821115613865576138646139c0565b5b828201905092915050565b600061387b8261396d565b91506138868361396d565b925082613896576138956139ef565b5b828204905092915050565b60006138ac8261396d565b91506138b78361396d565b9250817fffffffffffffffffffffffffffffffffffffffffffffffffffffffffffffffff04831182151516156138f0576138ef6139c0565b5b828202905092915050565b60006139068261396d565b91506139118361396d565b925082821015613924576139236139c0565b5b828203905092915050565b600061393a8261394d565b9050919050565b60008115159050919050565b600073ffffffffffffffffffffffffffffffffffffffff82169050919050565b6000819050919050565b60006139828261396d565b91507fffffffffffffffffffffffffffffffffffffffffffffffffffffffffffffffff8214156139b5576139b46139c0565b5b600182019050919050565b7f4e487b7100000000000000000000000000000000000000000000000000000000600052601160045260246000fd5b7f4e487b7100000000000000000000000000000000000000000000000000000000600052601260045260246000fd5b7f4f776e61626c653a206e6577206f776e657220697320746865207a65726f206160008201527f6464726573730000000000000000000000000000000000000000000000000000602082015250565b7f4f776e61626c653a2063616c6c6572206973206e6f7420746865206f776e6572600082015250565b613a9f8161392f565b8114613aaa57600080fd5b50565b613ab681613941565b8114613ac157600080fd5b50565b613acd8161396d565b8114613ad857600080fd5b5056fea2646970667358221220832239703d144cadb18b69ad0486d49511af10f7e2d149b7cfb86a83f6ad786364736f6c63430008040033",
  "linkReferences": {},
  "deployedLinkReferences": {}
}