{
  "_format": "hh-sol-artifact-1",
  "contractName": "OrderBook",
  "sourceName": "contracts/OrderBook/OrderBook.sol",
  "abi": [
    {
      "anonymous": false,
      "inputs": [
        {
          "indexed": false,
          "internalType": "uint8",
          "name": "version",
          "type": "uint8"
        }
      ],
      "name": "Initialized",
      "type": "event"
    },
    {
      "anonymous": false,
      "inputs": [
        {
          "indexed": true,
          "internalType": "address",
          "name": "previousOwner",
          "type": "address"
        },
        {
          "indexed": true,
          "internalType": "address",
          "name": "newOwner",
          "type": "address"
        }
      ],
      "name": "OwnershipTransferred",
      "type": "event"
    },
    {
      "inputs": [
        {
          "internalType": "uint256",
          "name": "",
          "type": "uint256"
        }
      ],
      "name": "FxPerpetuals",
      "outputs": [
        {
          "internalType": "address",
          "name": "",
          "type": "address"
        }
      ],
      "stateMutability": "view",
      "type": "function"
    },
    {
      "inputs": [
        {
          "internalType": "uint256",
          "name": "",
          "type": "uint256"
        }
      ],
      "name": "Vaults",
      "outputs": [
        {
          "internalType": "address",
          "name": "",
          "type": "address"
        }
      ],
      "stateMutability": "view",
      "type": "function"
    },
    {
      "inputs": [
        {
          "internalType": "address",
          "name": "_perpetual",
          "type": "address"
        },
        {
          "internalType": "address",
          "name": "_vault",
          "type": "address"
        },
        {
          "internalType": "bytes32",
          "name": "_priceFeedKey",
          "type": "bytes32"
        }
      ],
      "name": "addFxPerpetual",
      "outputs": [],
      "stateMutability": "nonpayable",
      "type": "function"
    },
    {
      "inputs": [
        {
          "internalType": "uint256",
          "name": "",
          "type": "uint256"
        }
      ],
      "name": "buyHeads",
      "outputs": [
        {
          "internalType": "uint256",
          "name": "",
          "type": "uint256"
        }
      ],
      "stateMutability": "view",
      "type": "function"
    },
    {
      "inputs": [],
      "name": "buyID",
      "outputs": [
        {
          "internalType": "uint256",
          "name": "",
          "type": "uint256"
        }
      ],
      "stateMutability": "view",
      "type": "function"
    },
    {
      "inputs": [
        {
          "internalType": "uint256",
          "name": "_ID",
          "type": "uint256"
        }
      ],
      "name": "deleteBuy",
      "outputs": [],
      "stateMutability": "nonpayable",
      "type": "function"
    },
    {
      "inputs": [
        {
          "internalType": "uint256",
          "name": "_ID",
          "type": "uint256"
        }
      ],
      "name": "deleteSell",
      "outputs": [],
      "stateMutability": "nonpayable",
      "type": "function"
    },
    {
      "inputs": [
        {
          "internalType": "uint256",
          "name": "_ID",
          "type": "uint256"
        }
      ],
      "name": "getBuy",
      "outputs": [
        {
          "internalType": "address",
          "name": "maker",
          "type": "address"
        },
        {
          "internalType": "uint256",
          "name": "index",
          "type": "uint256"
        },
        {
          "internalType": "uint256",
          "name": "id",
          "type": "uint256"
        },
        {
          "internalType": "uint256",
          "name": "price",
          "type": "uint256"
        },
        {
          "internalType": "uint256",
          "name": "volume",
          "type": "uint256"
        },
        {
          "internalType": "uint256",
          "name": "next",
          "type": "uint256"
        },
        {
          "internalType": "uint256",
          "name": "prev",
          "type": "uint256"
        }
      ],
      "stateMutability": "view",
      "type": "function"
    },
    {
      "inputs": [
        {
          "internalType": "uint256",
          "name": "_tokenIndex",
          "type": "uint256"
        }
      ],
      "name": "getBuyHead",
      "outputs": [
        {
          "internalType": "uint256",
          "name": "",
          "type": "uint256"
        }
      ],
      "stateMutability": "view",
      "type": "function"
    },
    {
      "inputs": [
        {
          "internalType": "uint256",
          "name": "_tokenIndex",
          "type": "uint256"
        }
      ],
      "name": "getOpenBuyOrders",
      "outputs": [
        {
          "internalType": "uint256",
          "name": "",
          "type": "uint256"
        }
      ],
      "stateMutability": "view",
      "type": "function"
    },
    {
      "inputs": [
        {
          "internalType": "uint256",
          "name": "_tokenIndex",
          "type": "uint256"
        }
      ],
      "name": "getOpenSellOrders",
      "outputs": [
        {
          "internalType": "uint256",
          "name": "",
          "type": "uint256"
        }
      ],
      "stateMutability": "view",
      "type": "function"
    },
    {
      "inputs": [
        {
          "internalType": "uint256",
          "name": "_ID",
          "type": "uint256"
        }
      ],
      "name": "getSell",
      "outputs": [
        {
          "internalType": "address",
          "name": "maker",
          "type": "address"
        },
        {
          "internalType": "uint256",
          "name": "index",
          "type": "uint256"
        },
        {
          "internalType": "uint256",
          "name": "id",
          "type": "uint256"
        },
        {
          "internalType": "uint256",
          "name": "price",
          "type": "uint256"
        },
        {
          "internalType": "uint256",
          "name": "volume",
          "type": "uint256"
        },
        {
          "internalType": "uint256",
          "name": "next",
          "type": "uint256"
        },
        {
          "internalType": "uint256",
          "name": "prev",
          "type": "uint256"
        }
      ],
      "stateMutability": "view",
      "type": "function"
    },
    {
      "inputs": [
        {
          "internalType": "uint256",
          "name": "_tokenIndex",
          "type": "uint256"
        }
      ],
      "name": "getSellHead",
      "outputs": [
        {
          "internalType": "uint256",
          "name": "",
          "type": "uint256"
        }
      ],
      "stateMutability": "view",
      "type": "function"
    },
    {
      "inputs": [
        {
          "internalType": "address[]",
          "name": "_FxPerpetuals",
          "type": "address[]"
        },
        {
          "internalType": "address[]",
          "name": "_Vaults",
          "type": "address[]"
        },
        {
          "internalType": "address",
          "name": "_USD",
          "type": "address"
        },
        {
          "internalType": "address",
          "name": "_Oracle",
          "type": "address"
        }
      ],
      "name": "initialize",
      "outputs": [],
      "stateMutability": "nonpayable",
      "type": "function"
    },
    {
      "inputs": [
        {
          "internalType": "uint256",
          "name": "",
          "type": "uint256"
        }
      ],
      "name": "lastCumulativePriceUpdate",
      "outputs": [
        {
          "internalType": "uint256",
          "name": "",
          "type": "uint256"
        }
      ],
      "stateMutability": "view",
      "type": "function"
    },
    {
      "inputs": [
        {
          "internalType": "uint256",
          "name": "",
          "type": "uint256"
        }
      ],
      "name": "lastPriceCumulative",
      "outputs": [
        {
          "internalType": "uint256",
          "name": "",
          "type": "uint256"
        }
      ],
      "stateMutability": "view",
      "type": "function"
    },
    {
      "inputs": [
        {
          "internalType": "uint256",
          "name": "_tokenIndex",
          "type": "uint256"
        },
        {
          "internalType": "uint256",
          "name": "_price",
          "type": "uint256"
        },
        {
          "internalType": "uint256",
          "name": "_volume",
          "type": "uint256"
        },
        {
          "internalType": "uint256",
          "name": "_targetInsertion",
          "type": "uint256"
        }
      ],
      "name": "limitBuy",
      "outputs": [
        {
          "internalType": "uint256",
          "name": "newID",
          "type": "uint256"
        }
      ],
      "stateMutability": "nonpayable",
      "type": "function"
    },
    {
      "inputs": [
        {
          "internalType": "uint256",
          "name": "_tokenIndex",
          "type": "uint256"
        },
        {
          "internalType": "uint256",
          "name": "_price",
          "type": "uint256"
        },
        {
          "internalType": "uint256",
          "name": "_volume",
          "type": "uint256"
        },
        {
          "internalType": "uint256",
          "name": "_targetInsertion",
          "type": "uint256"
        }
      ],
      "name": "limitSell",
      "outputs": [
        {
          "internalType": "uint256",
          "name": "newIDs",
          "type": "uint256"
        }
      ],
      "stateMutability": "nonpayable",
      "type": "function"
    },
    {
      "inputs": [
        {
          "internalType": "uint256",
          "name": "_tokenIndex",
          "type": "uint256"
        },
        {
          "internalType": "uint256",
          "name": "_maxPrice",
          "type": "uint256"
        },
        {
          "internalType": "uint256",
          "name": "_volume",
          "type": "uint256"
        }
      ],
      "name": "marketBuy",
      "outputs": [
        {
          "internalType": "uint256",
          "name": "",
          "type": "uint256"
        }
      ],
      "stateMutability": "nonpayable",
      "type": "function"
    },
    {
      "inputs": [
        {
          "internalType": "uint256",
          "name": "_tokenIndex",
          "type": "uint256"
        },
        {
          "internalType": "uint256",
          "name": "_minPrice",
          "type": "uint256"
        },
        {
          "internalType": "uint256",
          "name": "_volume",
          "type": "uint256"
        }
      ],
      "name": "marketSell",
      "outputs": [
        {
          "internalType": "uint256",
          "name": "",
          "type": "uint256"
        }
      ],
      "stateMutability": "nonpayable",
      "type": "function"
    },
    {
      "inputs": [
        {
          "internalType": "uint256",
          "name": "_ID",
          "type": "uint256"
        },
        {
          "internalType": "uint256",
          "name": "_newPrice",
          "type": "uint256"
        },
        {
          "internalType": "uint256",
          "name": "_newVolume",
          "type": "uint256"
        }
      ],
      "name": "modifyBuy",
      "outputs": [],
      "stateMutability": "nonpayable",
      "type": "function"
    },
    {
      "inputs": [
        {
          "internalType": "uint256",
          "name": "_ID",
          "type": "uint256"
        },
        {
          "internalType": "uint256",
          "name": "_newPrice",
          "type": "uint256"
        },
        {
          "internalType": "uint256",
          "name": "_newVolume",
          "type": "uint256"
        }
      ],
      "name": "modifySell",
      "outputs": [],
      "stateMutability": "nonpayable",
      "type": "function"
    },
    {
      "inputs": [
        {
          "internalType": "uint256",
          "name": "",
          "type": "uint256"
        }
      ],
      "name": "openBuyOrders",
      "outputs": [
        {
          "internalType": "uint256",
          "name": "",
          "type": "uint256"
        }
      ],
      "stateMutability": "view",
      "type": "function"
    },
    {
      "inputs": [
        {
          "internalType": "uint256",
          "name": "",
          "type": "uint256"
        }
      ],
      "name": "openSellOrders",
      "outputs": [
        {
          "internalType": "uint256",
          "name": "",
          "type": "uint256"
        }
      ],
      "stateMutability": "view",
      "type": "function"
    },
    {
      "inputs": [],
      "name": "owner",
      "outputs": [
        {
          "internalType": "address",
          "name": "",
          "type": "address"
        }
      ],
      "stateMutability": "view",
      "type": "function"
    },
    {
      "inputs": [
        {
          "internalType": "uint256",
          "name": "",
          "type": "uint256"
        }
      ],
      "name": "priceCumulative",
      "outputs": [
        {
          "internalType": "uint256",
          "name": "",
          "type": "uint256"
        }
      ],
      "stateMutability": "view",
      "type": "function"
    },
    {
      "inputs": [],
      "name": "renounceOwnership",
      "outputs": [],
      "stateMutability": "nonpayable",
      "type": "function"
    },
    {
      "inputs": [
        {
          "internalType": "uint256",
          "name": "",
          "type": "uint256"
        }
      ],
      "name": "sellHeads",
      "outputs": [
        {
          "internalType": "uint256",
          "name": "",
          "type": "uint256"
        }
      ],
      "stateMutability": "view",
      "type": "function"
    },
    {
      "inputs": [],
      "name": "sellID",
      "outputs": [
        {
          "internalType": "uint256",
          "name": "",
          "type": "uint256"
        }
      ],
      "stateMutability": "view",
      "type": "function"
    },
    {
      "inputs": [
        {
          "internalType": "uint256",
          "name": "",
          "type": "uint256"
        }
      ],
      "name": "totalPriceDataPoints",
      "outputs": [
        {
          "internalType": "uint256",
          "name": "",
          "type": "uint256"
        }
      ],
      "stateMutability": "view",
      "type": "function"
    },
    {
      "inputs": [
        {
          "internalType": "address",
          "name": "newOwner",
          "type": "address"
        }
      ],
      "name": "transferOwnership",
      "outputs": [],
      "stateMutability": "nonpayable",
      "type": "function"
    }
  ],
  "bytecode": "0x608060405234801561001057600080fd5b50614aeb806100206000396000f3fe608060405234801561001057600080fd5b50600436106101e55760003560e01c80638da5cb5b1161010f578063c2b422d0116100a2578063f01957ec11610071578063f01957ec14610640578063f0768cf71461065c578063f2fde38b1461068c578063f32a547c146106a8576101e5565b8063c2b422d01461057a578063c8ccd727146105aa578063d6d423d8146105da578063dde4a70b1461060a576101e5565b8063a813643c116100de578063a813643c146104ba578063affb21a3146104ea578063b55e09121461051a578063c146ce0a1461054a576101e5565b80638da5cb5b1461043257806393a7215e146104505780639a699d4a1461046e5780639ff1549c1461049e576101e5565b80635091bf94116101875780636ba755ef116101565780636ba755ef146103985780636f41e8c2146103c8578063715018a6146103f85780637d9c5d4c14610402576101e5565b80635091bf941461030057806359d5445b1461031c5780635aca8415146103385780635c285acb14610368576101e5565b80633c8bf9b3116101c35780633c8bf9b3146102665780633c8e5d441461028257806344e9887b146102b2578063476d4f3f146102d0576101e5565b80630cffe874146101ea5780631bed7a811461020657806335460d9214610236575b600080fd5b61020460048036038101906101ff91906142e5565b6106de565b005b610220600480360381019061021b9190614293565b610a6b565b60405161022d9190614450565b60405180910390f35b610250600480360381019061024b9190614293565b610aaa565b60405161025d91906145fe565b60405180910390f35b610280600480360381019061027b91906141d7565b610ac2565b005b61029c600480360381019061029791906142e5565b610c55565b6040516102a991906145fe565b60405180910390f35b6102ba611202565b6040516102c791906145fe565b60405180910390f35b6102ea60048036038101906102e59190614293565b611208565b6040516102f791906145fe565b60405180910390f35b61031a60048036038101906103159190614188565b611220565b005b61033660048036038101906103319190614293565b611390565b005b610352600480360381019061034d9190614293565b611512565b60405161035f9190614450565b60405180910390f35b610382600480360381019061037d9190614293565b611551565b60405161038f91906145fe565b60405180910390f35b6103b260048036038101906103ad9190614334565b611569565b6040516103bf91906145fe565b60405180910390f35b6103e260048036038101906103dd9190614293565b61183e565b6040516103ef91906145fe565b60405180910390f35b61040061185b565b005b61041c60048036038101906104179190614293565b6118e3565b60405161042991906145fe565b60405180910390f35b61043a611900565b6040516104479190614450565b60405180910390f35b61045861192a565b60405161046591906145fe565b60405180910390f35b61048860048036038101906104839190614293565b611930565b60405161049591906145fe565b60405180910390f35b6104b860048036038101906104b39190614293565b611948565b005b6104d460048036038101906104cf9190614293565b611ae6565b6040516104e191906145fe565b60405180910390f35b61050460048036038101906104ff9190614293565b611afe565b60405161051191906145fe565b60405180910390f35b610534600480360381019061052f91906142e5565b611b1b565b60405161054191906145fe565b60405180910390f35b610564600480360381019061055f9190614293565b612080565b60405161057191906145fe565b60405180910390f35b610594600480360381019061058f9190614293565b612098565b6040516105a191906145fe565b60405180910390f35b6105c460048036038101906105bf9190614293565b6120b0565b6040516105d191906145fe565b60405180910390f35b6105f460048036038101906105ef9190614293565b6120cd565b60405161060191906145fe565b60405180910390f35b610624600480360381019061061f9190614293565b6120e5565b60405161063797969594939291906144f4565b60405180910390f35b61065a600480360381019061065591906142e5565b6121e0565b005b61067660048036038101906106719190614334565b612587565b60405161068391906145fe565b60405180910390f35b6106a660048036038101906106a1919061415f565b6128a2565b005b6106c260048036038101906106bd9190614293565b61299a565b6040516106d597969594939291906144f4565b60405180910390f35b6000607a60008581526020019081526020016000206040518060e00160405290816000820160009054906101000a900473ffffffffffffffffffffffffffffffffffffffff1673ffffffffffffffffffffffffffffffffffffffff1673ffffffffffffffffffffffffffffffffffffffff168152602001600182015481526020016002820154815260200160038201548152602001600482015481526020016005820154815260200160068201548152505090508060600151831415806107a9575080608001518214155b6107b257600080fd5b600083141580156107c4575060008214155b6107cd57600080fd5b806000015173ffffffffffffffffffffffffffffffffffffffff163373ffffffffffffffffffffffffffffffffffffffff161461080957600080fd5b60006067826020015181548110610849577f4e487b7100000000000000000000000000000000000000000000000000000000600052603260045260246000fd5b9060005260206000200160009054906101000a900473ffffffffffffffffffffffffffffffffffffffff169050600082602001519050826080015184146109ff576000848460800151116108b3576108ae846080015186612a9590919063ffffffff16565b6108cb565b6108ca858560800151612a9590919063ffffffff16565b5b9050848460800151111561096c578273ffffffffffffffffffffffffffffffffffffffff1663a9059cbb33836040518363ffffffff1660e01b81526004016109149291906144cb565b602060405180830381600087803b15801561092e57600080fd5b505af1158015610942573d6000803e3d6000fd5b505050506040513d601f19601f82011682018060405250810190610966919061426a565b506109fd565b8273ffffffffffffffffffffffffffffffffffffffff166323b872dd3330846040518463ffffffff1660e01b81526004016109a993929190614494565b602060405180830381600087803b1580156109c357600080fd5b505af11580156109d7573d6000803e3d6000fd5b505050506040513d601f19601f820116820180604052508101906109fb919061426a565b505b505b610a0886612aab565b60006040518060e001604052803373ffffffffffffffffffffffffffffffffffffffff1681526020018381526020018881526020018781526020018681526020016000815260200160008152509050610a62816000612c83565b50505050505050565b60678181548110610a7b57600080fd5b906000526020600020016000915054906101000a900473ffffffffffffffffffffffffffffffffffffffff1681565b606a6020528060005260406000206000915090505481565b6000610ace6001613318565b90508015610af2576001600060016101000a81548160ff0219169083151502179055505b8460679080519060200190610b08929190613fb9565b508360689080519060200190610b1f929190613fb9565b5082606560006101000a81548173ffffffffffffffffffffffffffffffffffffffff021916908373ffffffffffffffffffffffffffffffffffffffff16021790555081606660006101000a81548173ffffffffffffffffffffffffffffffffffffffff021916908373ffffffffffffffffffffffffffffffffffffffff160217905550670de0b6b3a7640000607581905550610e10607881905550601860798190555042607781905550601e607181905550610be7603260755461340890919063ffffffff16565b607681905550610bf561341e565b8015610c4e5760008060016101000a81548160ff0219169083151502179055507f7f26b83ff96e1f2b6a682f133852f6798a09c465da95921460cefb38474024986001604051610c459190614563565b60405180910390a15b5050505050565b60008060678581548110610c92577f4e487b7100000000000000000000000000000000000000000000000000000000600052603260045260246000fd5b9060005260206000200160009054906101000a900473ffffffffffffffffffffffffffffffffffffffff169050610ce6607554610cd8858761340890919063ffffffff16565b61347790919063ffffffff16565b606560009054906101000a900473ffffffffffffffffffffffffffffffffffffffff1673ffffffffffffffffffffffffffffffffffffffff1663dd62ed3e33306040518363ffffffff1660e01b8152600401610d4392919061446b565b60206040518083038186803b158015610d5b57600080fd5b505afa158015610d6f573d6000803e3d6000fd5b505050506040513d601f19601f82011682018060405250810190610d9391906142bc565b1015610d9e57600080fd5b6000606c60008781526020019081526020016000205411610dbe57600080fd5b6000606a60008781526020019081526020016000205490505b600084118015610dfd575084607b60008381526020019081526020016000206003015411155b8015610e0a575060008114155b156111f5576000607b600083815260200190815260200160002090508481600401541061102a57606560009054906101000a900473ffffffffffffffffffffffffffffffffffffffff1673ffffffffffffffffffffffffffffffffffffffff166323b872dd338360000160009054906101000a900473ffffffffffffffffffffffffffffffffffffffff16610ec0607554610eb287600301548c61340890919063ffffffff16565b61347790919063ffffffff16565b6040518463ffffffff1660e01b8152600401610ede93929190614494565b602060405180830381600087803b158015610ef857600080fd5b505af1158015610f0c573d6000803e3d6000fd5b505050506040513d601f19601f82011682018060405250810190610f30919061426a565b508273ffffffffffffffffffffffffffffffffffffffff1663a9059cbb33876040518363ffffffff1660e01b8152600401610f6c9291906144cb565b602060405180830381600087803b158015610f8657600080fd5b505af1158015610f9a573d6000803e3d6000fd5b505050506040513d601f19601f82011682018060405250810190610fbe919061426a565b50610fd6858260040154612a9590919063ffffffff16565b8160040181905550611006607154607060008a81526020019081526020016000205461348d90919063ffffffff16565b5060008160040154141561101e5761101d82612aab565b5b600093505050506111fb565b606560009054906101000a900473ffffffffffffffffffffffffffffffffffffffff1673ffffffffffffffffffffffffffffffffffffffff166323b872dd338360000160009054906101000a900473ffffffffffffffffffffffffffffffffffffffff166110bd6075546110af8760030154886004015461340890919063ffffffff16565b61347790919063ffffffff16565b6040518463ffffffff1660e01b81526004016110db93929190614494565b602060405180830381600087803b1580156110f557600080fd5b505af1158015611109573d6000803e3d6000fd5b505050506040513d601f19601f8201168201806040525081019061112d919061426a565b508273ffffffffffffffffffffffffffffffffffffffff1663a9059cbb3383600401546040518363ffffffff1660e01b815260040161116d9291906144cb565b602060405180830381600087803b15801561118757600080fd5b505af115801561119b573d6000803e3d6000fd5b505050506040513d601f19601f820116820180604052508101906111bf919061426a565b506111d7816004015486612a9590919063ffffffff16565b94506000829050816005015492506111ee81612aab565b5050610dd7565b83925050505b9392505050565b60745481565b60696020528060005260406000206000915090505481565b6112286134a3565b73ffffffffffffffffffffffffffffffffffffffff16611246611900565b73ffffffffffffffffffffffffffffffffffffffff161461129c576040517f08c379a0000000000000000000000000000000000000000000000000000000008152600401611293906145be565b60405180910390fd5b6067839080600181540180825580915050600190039060005260206000200160009091909190916101000a81548173ffffffffffffffffffffffffffffffffffffffff021916908373ffffffffffffffffffffffffffffffffffffffff1602179055506068829080600181540180825580915050600190039060005260206000200160009091909190916101000a81548173ffffffffffffffffffffffffffffffffffffffff021916908373ffffffffffffffffffffffffffffffffffffffff1602179055506072819080600181540180825580915050600190039060005260206000200160009091909190915055505050565b60006113e56075546113d7607a600086815260200190815260200160002060030154607a60008781526020019081526020016000206004015461340890919063ffffffff16565b61347790919063ffffffff16565b9050606560009054906101000a900473ffffffffffffffffffffffffffffffffffffffff1673ffffffffffffffffffffffffffffffffffffffff1663a9059cbb33836040518363ffffffff1660e01b81526004016114449291906144cb565b602060405180830381600087803b15801561145e57600080fd5b505af1158015611472573d6000803e3d6000fd5b505050506040513d601f19601f82011682018060405250810190611496919061426a565b50607a600083815260200190815260200160002060000160009054906101000a900473ffffffffffffffffffffffffffffffffffffffff1673ffffffffffffffffffffffffffffffffffffffff163373ffffffffffffffffffffffffffffffffffffffff161461150557600080fd5b61150e826134ab565b5050565b6068818154811061152257600080fd5b906000526020600020016000915054906101000a900473ffffffffffffffffffffffffffffffffffffffff1681565b606c6020528060005260406000206000915090505481565b6000607654611595607554611587878761340890919063ffffffff16565b61347790919063ffffffff16565b10156115a057600080fd5b6000606786815481106115dc577f4e487b7100000000000000000000000000000000000000000000000000000000600052603260045260246000fd5b9060005260206000200160009054906101000a900473ffffffffffffffffffffffffffffffffffffffff169050600085607a6000606960008b815260200190815260200160002054815260200190815260200160002060030154106116f157611646878787611b1b565b9050600081141561165c57600092505050611836565b8173ffffffffffffffffffffffffffffffffffffffff166323b872dd3330846040518463ffffffff1660e01b815260040161169993929190614494565b602060405180830381600087803b1580156116b357600080fd5b505af11580156116c7573d6000803e3d6000fd5b505050506040513d601f19601f820116820180604052508101906116eb919061426a565b50611782565b8173ffffffffffffffffffffffffffffffffffffffff166323b872dd3330886040518463ffffffff1660e01b815260040161172e93929190614494565b602060405180830381600087803b15801561174857600080fd5b505af115801561175c573d6000803e3d6000fd5b505050506040513d601f19601f82011682018060405250810190611780919061426a565b505b607460008154809291906117959061485c565b919050555060006040518060e001604052803373ffffffffffffffffffffffffffffffffffffffff1681526020018981526020016074548152602001888152602001600084146117e557836117e7565b875b815260200160008152602001600081525090506118048186612c83565b606c600089815260200190815260200160002060008154809291906118289061485c565b919050555060745493505050505b949350505050565b6000606c6000838152602001908152602001600020549050919050565b6118636134a3565b73ffffffffffffffffffffffffffffffffffffffff16611881611900565b73ffffffffffffffffffffffffffffffffffffffff16146118d7576040517f08c379a00000000000000000000000000000000000000000000000000000000081526004016118ce906145be565b60405180910390fd5b6118e16000613683565b565b6000606b6000838152602001908152602001600020549050919050565b6000603360009054906101000a900473ffffffffffffffffffffffffffffffffffffffff16905090565b60735481565b606e6020528060005260406000206000915090505481565b60006067607b6000848152602001908152602001600020600101548154811061199a577f4e487b7100000000000000000000000000000000000000000000000000000000600052603260045260246000fd5b9060005260206000200160009054906101000a900473ffffffffffffffffffffffffffffffffffffffff1690508073ffffffffffffffffffffffffffffffffffffffff1663a9059cbb33607b6000868152602001908152602001600020600401546040518363ffffffff1660e01b8152600401611a189291906144cb565b602060405180830381600087803b158015611a3257600080fd5b505af1158015611a46573d6000803e3d6000fd5b505050506040513d601f19601f82011682018060405250810190611a6a919061426a565b50607b600083815260200190815260200160002060000160009054906101000a900473ffffffffffffffffffffffffffffffffffffffff1673ffffffffffffffffffffffffffffffffffffffff163373ffffffffffffffffffffffffffffffffffffffff1614611ad957600080fd5b611ae282612aab565b5050565b606d6020528060005260406000206000915090505481565b600060696000838152602001908152602001600020549050919050565b60008060678581548110611b58577f4e487b7100000000000000000000000000000000000000000000000000000000600052603260045260246000fd5b9060005260206000200160009054906101000a900473ffffffffffffffffffffffffffffffffffffffff169050828173ffffffffffffffffffffffffffffffffffffffff1663dd62ed3e33306040518363ffffffff1660e01b8152600401611bc192919061446b565b60206040518083038186803b158015611bd957600080fd5b505afa158015611bed573d6000803e3d6000fd5b505050506040513d601f19601f82011682018060405250810190611c1191906142bc565b1015611c1c57600080fd5b6000606b60008781526020019081526020016000205411611c3c57600080fd5b6000606960008781526020019081526020016000205490505b600084118015611c7b575084607a60008381526020019081526020016000206003015410155b8015611c88575060008114155b15612073576000607a6000838152602001908152602001600020905084816004015410611ea857606560009054906101000a900473ffffffffffffffffffffffffffffffffffffffff1673ffffffffffffffffffffffffffffffffffffffff1663a9059cbb33611d19607554611d0b86600301548b61340890919063ffffffff16565b61347790919063ffffffff16565b6040518363ffffffff1660e01b8152600401611d369291906144cb565b602060405180830381600087803b158015611d5057600080fd5b505af1158015611d64573d6000803e3d6000fd5b505050506040513d601f19601f82011682018060405250810190611d88919061426a565b508273ffffffffffffffffffffffffffffffffffffffff166323b872dd338360000160009054906101000a900473ffffffffffffffffffffffffffffffffffffffff16886040518463ffffffff1660e01b8152600401611dea93929190614494565b602060405180830381600087803b158015611e0457600080fd5b505af1158015611e18573d6000803e3d6000fd5b505050506040513d601f19601f82011682018060405250810190611e3c919061426a565b50611e54858260040154612a9590919063ffffffff16565b8160040181905550611e84607154607060008a81526020019081526020016000205461348d90919063ffffffff16565b50600081600401541415611e9c57611e9b826134ab565b5b60009350505050612079565b606560009054906101000a900473ffffffffffffffffffffffffffffffffffffffff1673ffffffffffffffffffffffffffffffffffffffff1663a9059cbb33611f16607554611f088660030154876004015461340890919063ffffffff16565b61347790919063ffffffff16565b6040518363ffffffff1660e01b8152600401611f339291906144cb565b602060405180830381600087803b158015611f4d57600080fd5b505af1158015611f61573d6000803e3d6000fd5b505050506040513d601f19601f82011682018060405250810190611f85919061426a565b508273ffffffffffffffffffffffffffffffffffffffff166323b872dd338360000160009054906101000a900473ffffffffffffffffffffffffffffffffffffffff1684600401546040518463ffffffff1660e01b8152600401611feb93929190614494565b602060405180830381600087803b15801561200557600080fd5b505af1158015612019573d6000803e3d6000fd5b505050506040513d601f19601f8201168201806040525081019061203d919061426a565b50612055816004015486612a9590919063ffffffff16565b945060008290508160050154925061206c816134ab565b5050611c55565b83925050505b9392505050565b60706020528060005260406000206000915090505481565b606f6020528060005260406000206000915090505481565b6000606a6000838152602001908152602001600020549050919050565b606b6020528060005260406000206000915090505481565b600080600080600080600080607b60008a81526020019081526020016000206040518060e00160405290816000820160009054906101000a900473ffffffffffffffffffffffffffffffffffffffff1673ffffffffffffffffffffffffffffffffffffffff1673ffffffffffffffffffffffffffffffffffffffff16815260200160018201548152602001600282015481526020016003820154815260200160048201548152602001600582015481526020016006820154815250509050806000015181602001518260400151836060015184608001518560a001518660c00151975097509750975097509750975050919395979092949650565b6000607a60008581526020019081526020016000206040518060e00160405290816000820160009054906101000a900473ffffffffffffffffffffffffffffffffffffffff1673ffffffffffffffffffffffffffffffffffffffff1673ffffffffffffffffffffffffffffffffffffffff168152602001600182015481526020016002820154815260200160038201548152602001600482015481526020016005820154815260200160068201548152505090508060600151831415806122ab575080608001518214155b6122b457600080fd5b600083141580156122c6575060008214155b6122cf57600080fd5b806000015173ffffffffffffffffffffffffffffffffffffffff163373ffffffffffffffffffffffffffffffffffffffff161461230b57600080fd5b60008160200151905060006123456075546123378560800151866060015161340890919063ffffffff16565b61347790919063ffffffff16565b90506000612370607554612362878961340890919063ffffffff16565b61347790919063ffffffff16565b905060008183116123935761238e8283612a9590919063ffffffff16565b6123a7565b6123a68284612a9590919063ffffffff16565b5b90508183111561246657606560009054906101000a900473ffffffffffffffffffffffffffffffffffffffff1673ffffffffffffffffffffffffffffffffffffffff1663a9059cbb33836040518363ffffffff1660e01b815260040161240e9291906144cb565b602060405180830381600087803b15801561242857600080fd5b505af115801561243c573d6000803e3d6000fd5b505050506040513d601f19601f82011682018060405250810190612460919061426a565b50612519565b606560009054906101000a900473ffffffffffffffffffffffffffffffffffffffff1673ffffffffffffffffffffffffffffffffffffffff166323b872dd3330846040518463ffffffff1660e01b81526004016124c593929190614494565b602060405180830381600087803b1580156124df57600080fd5b505af11580156124f3573d6000803e3d6000fd5b505050506040513d601f19601f82011682018060405250810190612517919061426a565b505b612522886134ab565b60006040518060e001604052803373ffffffffffffffffffffffffffffffffffffffff1681526020018681526020018a8152602001898152602001888152602001600081526020016000815250905061257c816000613749565b505050505050505050565b60006076546125b36075546125a5878761340890919063ffffffff16565b61347790919063ffffffff16565b10156125be57600080fd5b600084607b6000606a60008a8152602001908152602001600020548152602001908152602001600020600301541115801561260c57506000606c600088815260200190815260200160002054115b1561270e5761261c868686610c55565b9050600081141561263157600091505061289a565b606560009054906101000a900473ffffffffffffffffffffffffffffffffffffffff1673ffffffffffffffffffffffffffffffffffffffff166323b872dd333061269860755461268a8b8861340890919063ffffffff16565b61347790919063ffffffff16565b6040518463ffffffff1660e01b81526004016126b693929190614494565b602060405180830381600087803b1580156126d057600080fd5b505af11580156126e4573d6000803e3d6000fd5b505050506040513d601f19601f82011682018060405250810190612708919061426a565b506127e7565b606560009054906101000a900473ffffffffffffffffffffffffffffffffffffffff1673ffffffffffffffffffffffffffffffffffffffff166323b872dd33306127756075546127678b8b61340890919063ffffffff16565b61347790919063ffffffff16565b6040518463ffffffff1660e01b815260040161279393929190614494565b602060405180830381600087803b1580156127ad57600080fd5b505af11580156127c1573d6000803e3d6000fd5b505050506040513d601f19601f820116820180604052508101906127e5919061426a565b505b607360008154809291906127fa9061485c565b919050555060006040518060e001604052803373ffffffffffffffffffffffffffffffffffffffff16815260200188815260200160735481526020018781526020016000841461284a578361284c565b865b815260200160008152602001600081525090506128698185613749565b606b6000888152602001908152602001600020600081548092919061288d9061485c565b9190505550607354925050505b949350505050565b6128aa6134a3565b73ffffffffffffffffffffffffffffffffffffffff166128c8611900565b73ffffffffffffffffffffffffffffffffffffffff161461291e576040517f08c379a0000000000000000000000000000000000000000000000000000000008152600401612915906145be565b60405180910390fd5b600073ffffffffffffffffffffffffffffffffffffffff168173ffffffffffffffffffffffffffffffffffffffff16141561298e576040517f08c379a00000000000000000000000000000000000000000000000000000000081526004016129859061457e565b60405180910390fd5b61299781613683565b50565b600080600080600080600080607a60008a81526020019081526020016000206040518060e00160405290816000820160009054906101000a900473ffffffffffffffffffffffffffffffffffffffff1673ffffffffffffffffffffffffffffffffffffffff1673ffffffffffffffffffffffffffffffffffffffff16815260200160018201548152602001600282015481526020016003820154815260200160048201548152602001600582015481526020016006820154815250509050806000015181602001518260400151836060015184608001518560a001518660c00151975097509750975097509750975050919395979092949650565b60008183612aa3919061475c565b905092915050565b6000607b6000838152602001908152602001600020600601541415612aee57612ae9607b600083815260200190815260200160002060010154613d11565b612c80565b6000607b6000838152602001908152602001600020600501541415612b44576000607b6000607b600085815260200190815260200160002060060154815260200190815260200160002060050181905550612bd3565b607b600082815260200190815260200160002060050154607b6000607b600085815260200190815260200160002060060154815260200190815260200160002060050181905550607b600082815260200190815260200160002060060154607b6000607b6000858152602001908152602001600020600501548152602001908152602001600020600601819055505b607b6000828152602001908152602001600020600080820160006101000a81549073ffffffffffffffffffffffffffffffffffffffff02191690556001820160009055600282016000905560038201600090556004820160009055600582016000905560068201600090555050606c6000607b60008481526020019081526020016000206001015481526020019081526020016000206000815480929190612c7a90614801565b91905055505b50565b60008260400151905060008360600151905060008460200151905084607b600085815260200190815260200160002060008201518160000160006101000a81548173ffffffffffffffffffffffffffffffffffffffff021916908373ffffffffffffffffffffffffffffffffffffffff1602179055506020820151816001015560408201518160020155606082015181600301556080820151816004015560a0820151816005015560c082015181600601559050506000606c6000838152602001908152602001600020541415612d9d5782606a600083815260200190815260200160002081905550606c60008281526020019081526020016000206000815480929190612d909061485c565b9190505550505050613314565b6000607b6000606a600085815260200190815260200160002054815260200190815260200160002090508060030154831015612ed6578560400151606a60008481526020019081526020016000208190555080600201548660a001818152505085604001518160060181905550606c60008381526020019081526020016000206000815480929190612e2e9061485c565b919050555085607b600086815260200190815260200160002060008201518160000160006101000a81548173ffffffffffffffffffffffffffffffffffffffff021916908373ffffffffffffffffffffffffffffffffffffffff1602179055506020820151816001015560408201518160020155606082015181600301556080820151816004015560a0820151816005015560c0820151816006015590505050505050613314565b6000816005015490506000811415612fd0578660400151826005018190555081600201548760c0018181525050606c60008481526020019081526020016000206000815480929190612f279061485c565b919050555086607b600087815260200190815260200160002060008201518160000160006101000a81548173ffffffffffffffffffffffffffffffffffffffff021916908373ffffffffffffffffffffffffffffffffffffffff1602179055506020820151816001015560408201518160020155606082015181600301556080820151816004015560a0820151816005015560c082015181600601559050505050505050613314565b82607b60008881526020019081526020016000206001015414801561300a575083607b600088815260200190815260200160002060030154105b801561302d57506000607b60008881526020019081526020016000206004015414155b15613036578590505b5b83607b6000838152602001908152602001600020600301541015613097576000607b600083815260200190815260200160002060050154141561307957613097565b607b6000828152602001908152602001600020600501549050613037565b6000607b6000838152602001908152602001600020600501541480156130d2575083607b600083815260200190815260200160002060030154105b156131cd578660400151607b600083815260200190815260200160002060050181905550808760c0018181525050606c600084815260200190815260200160002060008154809291906131249061485c565b919050555086607b600087815260200190815260200160002060008201518160000160006101000a81548173ffffffffffffffffffffffffffffffffffffffff021916908373ffffffffffffffffffffffffffffffffffffffff1602179055506020820151816001015560408201518160020155606082015181600301556080820151816004015560a0820151816005015560c082015181600601559050505050505050613314565b8660400151607b6000607b600085815260200190815260200160002060060154815260200190815260200160002060050181905550607b6000828152602001908152602001600020600601548760c0018181525050808760a00181815250508660400151607b600083815260200190815260200160002060060181905550606c6000848152602001908152602001600020600081548092919061326f9061485c565b919050555086607b600087815260200190815260200160002060008201518160000160006101000a81548173ffffffffffffffffffffffffffffffffffffffff021916908373ffffffffffffffffffffffffffffffffffffffff1602179055506020820151816001015560408201518160020155606082015181600301556080820151816004015560a0820151816005015560c0820151816006015590505050505050505b5050565b60008060019054906101000a900460ff161561338f5760018260ff16148015613347575061334530613e23565b155b613386576040517f08c379a000000000000000000000000000000000000000000000000000000000815260040161337d9061459e565b60405180910390fd5b60009050613403565b8160ff1660008054906101000a900460ff1660ff16106133e4576040517f08c379a00000000000000000000000000000000000000000000000000000000081526004016133db9061459e565b60405180910390fd5b816000806101000a81548160ff021916908360ff160217905550600190505b919050565b600081836134169190614702565b905092915050565b600060019054906101000a900460ff1661346d576040517f08c379a0000000000000000000000000000000000000000000000000000000008152600401613464906145de565b60405180910390fd5b613475613e46565b565b6000818361348591906146d1565b905092915050565b6000818361349b919061467b565b905092915050565b600033905090565b6000607a60008381526020019081526020016000206006015414156134ee576134e9607a600083815260200190815260200160002060010154613ea7565b613680565b6000607a6000838152602001908152602001600020600501541415613544576000607a6000607a6000858152602001908152602001600020600601548152602001908152602001600020600501819055506135d3565b607a600082815260200190815260200160002060050154607a6000607a600085815260200190815260200160002060060154815260200190815260200160002060050181905550607a600082815260200190815260200160002060060154607a6000607a6000858152602001908152602001600020600501548152602001908152602001600020600601819055505b607a6000828152602001908152602001600020600080820160006101000a81549073ffffffffffffffffffffffffffffffffffffffff02191690556001820160009055600282016000905560038201600090556004820160009055600582016000905560068201600090555050606b6000607a6000848152602001908152602001600020600101548152602001908152602001600020600081548092919061367a90614801565b91905055505b50565b6000603360009054906101000a900473ffffffffffffffffffffffffffffffffffffffff16905081603360006101000a81548173ffffffffffffffffffffffffffffffffffffffff021916908373ffffffffffffffffffffffffffffffffffffffff1602179055508173ffffffffffffffffffffffffffffffffffffffff168173ffffffffffffffffffffffffffffffffffffffff167f8be0079c531659141344cd1fd0a4f28419497f9722a3daafe3b4186f6b6457e060405160405180910390a35050565b60008260400151905060008360600151905060008460200151905084607a600085815260200190815260200160002060008201518160000160006101000a81548173ffffffffffffffffffffffffffffffffffffffff021916908373ffffffffffffffffffffffffffffffffffffffff1602179055506020820151816001015560408201518160020155606082015181600301556080820151816004015560a0820151816005015560c082015181600601559050506000606b600083815260200190815260200160002054141561383a57826069600083815260200190815260200160002081905550505050613d0d565b6000607a6000606960008581526020019081526020016000205481526020019081526020016000209050806003015483111561394a578560400151606960008481526020019081526020016000208190555080600201548660a00181815250508560400151816006018190555085607a600086815260200190815260200160002060008201518160000160006101000a81548173ffffffffffffffffffffffffffffffffffffffff021916908373ffffffffffffffffffffffffffffffffffffffff1602179055506020820151816001015560408201518160020155606082015181600301556080820151816004015560a0820151816005015560c0820151816006015590505050505050613d0d565b6000816005015490506000811415613a1b578660400151826005018190555081600201548760c001818152505086607a600087815260200190815260200160002060008201518160000160006101000a81548173ffffffffffffffffffffffffffffffffffffffff021916908373ffffffffffffffffffffffffffffffffffffffff1602179055506020820151816001015560408201518160020155606082015181600301556080820151816004015560a0820151816005015560c082015181600601559050505050505050613d0d565b82607a600088815260200190815260200160002060010154148015613a55575083607a600088815260200190815260200160002060030154115b8015613a7857506000607a60008881526020019081526020016000206004015414155b15613a81578590505b5b83607a6000838152602001908152602001600020600301541115613ae2576000607a6000838152602001908152602001600020600501541415613ac457613ae2565b607a6000828152602001908152602001600020600501549050613a82565b6000607a600083815260200190815260200160002060050154148015613b1d575083607a600083815260200190815260200160002060030154115b15613bef578660400151607a600083815260200190815260200160002060050181905550808760c001818152505086607a600087815260200190815260200160002060008201518160000160006101000a81548173ffffffffffffffffffffffffffffffffffffffff021916908373ffffffffffffffffffffffffffffffffffffffff1602179055506020820151816001015560408201518160020155606082015181600301556080820151816004015560a0820151816005015560c082015181600601559050505050505050613d0d565b8660400151607a6000607a600085815260200190815260200160002060060154815260200190815260200160002060050181905550607a6000828152602001908152602001600020600601548760c0018181525050808760a00181815250508660400151607a60008381526020019081526020016000206006018190555086607a600087815260200190815260200160002060008201518160000160006101000a81548173ffffffffffffffffffffffffffffffffffffffff021916908373ffffffffffffffffffffffffffffffffffffffff1602179055506020820151816001015560408201518160020155606082015181600301556080820151816004015560a0820151816005015560c0820151816006015590505050505050505b5050565b6000606a6000838152602001908152602001600020549050607b600082815260200190815260200160002060050154606a6000848152602001908152602001600020819055506000607b6000607b600085815260200190815260200160002060050154815260200190815260200160002060060181905550607b6000828152602001908152602001600020600080820160006101000a81549073ffffffffffffffffffffffffffffffffffffffff02191690556001820160009055600282016000905560038201600090556004820160009055600582016000905560068201600090555050606c60008381526020019081526020016000206000815480929190613e1a90614801565b91905055505050565b6000808273ffffffffffffffffffffffffffffffffffffffff163b119050919050565b600060019054906101000a900460ff16613e95576040517f08c379a0000000000000000000000000000000000000000000000000000000008152600401613e8c906145de565b60405180910390fd5b613ea5613ea06134a3565b613683565b565b600060696000838152602001908152602001600020549050607a60008281526020019081526020016000206005015460696000848152602001908152602001600020819055506000607a6000607a600085815260200190815260200160002060050154815260200190815260200160002060060181905550607a6000828152602001908152602001600020600080820160006101000a81549073ffffffffffffffffffffffffffffffffffffffff02191690556001820160009055600282016000905560038201600090556004820160009055600582016000905560068201600090555050606b60008381526020019081526020016000206000815480929190613fb090614801565b91905055505050565b828054828255906000526020600020908101928215614032579160200282015b828111156140315782518260006101000a81548173ffffffffffffffffffffffffffffffffffffffff021916908373ffffffffffffffffffffffffffffffffffffffff16021790555091602001919060010190613fd9565b5b50905061403f9190614043565b5090565b5b8082111561405c576000816000905550600101614044565b5090565b600061407361406e8461463e565b614619565b9050808382526020820190508285602086028201111561409257600080fd5b60005b858110156140c257816140a888826140cc565b845260208401935060208301925050600181019050614095565b5050509392505050565b6000813590506140db81614a59565b92915050565b600082601f8301126140f257600080fd5b8135614102848260208601614060565b91505092915050565b60008151905061411a81614a70565b92915050565b60008135905061412f81614a87565b92915050565b60008135905061414481614a9e565b92915050565b60008151905061415981614a9e565b92915050565b60006020828403121561417157600080fd5b600061417f848285016140cc565b91505092915050565b60008060006060848603121561419d57600080fd5b60006141ab868287016140cc565b93505060206141bc868287016140cc565b92505060406141cd86828701614120565b9150509250925092565b600080600080608085870312156141ed57600080fd5b600085013567ffffffffffffffff81111561420757600080fd5b614213878288016140e1565b945050602085013567ffffffffffffffff81111561423057600080fd5b61423c878288016140e1565b935050604061424d878288016140cc565b925050606061425e878288016140cc565b91505092959194509250565b60006020828403121561427c57600080fd5b600061428a8482850161410b565b91505092915050565b6000602082840312156142a557600080fd5b60006142b384828501614135565b91505092915050565b6000602082840312156142ce57600080fd5b60006142dc8482850161414a565b91505092915050565b6000806000606084860312156142fa57600080fd5b600061430886828701614135565b935050602061431986828701614135565b925050604061432a86828701614135565b9150509250925092565b6000806000806080858703121561434a57600080fd5b600061435887828801614135565b945050602061436987828801614135565b935050604061437a87828801614135565b925050606061438b87828801614135565b91505092959194509250565b6143a081614790565b82525050565b6143af816147ef565b82525050565b60006143c260268361466a565b91506143cd82614943565b604082019050919050565b60006143e5602e8361466a565b91506143f082614992565b604082019050919050565b600061440860208361466a565b9150614413826149e1565b602082019050919050565b600061442b602b8361466a565b915061443682614a0a565b604082019050919050565b61444a816147d8565b82525050565b60006020820190506144656000830184614397565b92915050565b60006040820190506144806000830185614397565b61448d6020830184614397565b9392505050565b60006060820190506144a96000830186614397565b6144b66020830185614397565b6144c36040830184614441565b949350505050565b60006040820190506144e06000830185614397565b6144ed6020830184614441565b9392505050565b600060e082019050614509600083018a614397565b6145166020830189614441565b6145236040830188614441565b6145306060830187614441565b61453d6080830186614441565b61454a60a0830185614441565b61455760c0830184614441565b98975050505050505050565b600060208201905061457860008301846143a6565b92915050565b60006020820190508181036000830152614597816143b5565b9050919050565b600060208201905081810360008301526145b7816143d8565b9050919050565b600060208201905081810360008301526145d7816143fb565b9050919050565b600060208201905081810360008301526145f78161441e565b9050919050565b60006020820190506146136000830184614441565b92915050565b6000614623614634565b905061462f828261482b565b919050565b6000604051905090565b600067ffffffffffffffff82111561465957614658614903565b5b602082029050602081019050919050565b600082825260208201905092915050565b6000614686826147d8565b9150614691836147d8565b9250827fffffffffffffffffffffffffffffffffffffffffffffffffffffffffffffffff038211156146c6576146c56148a5565b5b828201905092915050565b60006146dc826147d8565b91506146e7836147d8565b9250826146f7576146f66148d4565b5b828204905092915050565b600061470d826147d8565b9150614718836147d8565b9250817fffffffffffffffffffffffffffffffffffffffffffffffffffffffffffffffff0483118215151615614751576147506148a5565b5b828202905092915050565b6000614767826147d8565b9150614772836147d8565b925082821015614785576147846148a5565b5b828203905092915050565b600061479b826147b8565b9050919050565b60008115159050919050565b6000819050919050565b600073ffffffffffffffffffffffffffffffffffffffff82169050919050565b6000819050919050565b600060ff82169050919050565b60006147fa826147e2565b9050919050565b600061480c826147d8565b915060008214156148205761481f6148a5565b5b600182039050919050565b61483482614932565b810181811067ffffffffffffffff8211171561485357614852614903565b5b80604052505050565b6000614867826147d8565b91507fffffffffffffffffffffffffffffffffffffffffffffffffffffffffffffffff82141561489a576148996148a5565b5b600182019050919050565b7f4e487b7100000000000000000000000000000000000000000000000000000000600052601160045260246000fd5b7f4e487b7100000000000000000000000000000000000000000000000000000000600052601260045260246000fd5b7f4e487b7100000000000000000000000000000000000000000000000000000000600052604160045260246000fd5b6000601f19601f8301169050919050565b7f4f776e61626c653a206e6577206f776e657220697320746865207a65726f206160008201527f6464726573730000000000000000000000000000000000000000000000000000602082015250565b7f496e697469616c697a61626c653a20636f6e747261637420697320616c72656160008201527f647920696e697469616c697a6564000000000000000000000000000000000000602082015250565b7f4f776e61626c653a2063616c6c6572206973206e6f7420746865206f776e6572600082015250565b7f496e697469616c697a61626c653a20636f6e7472616374206973206e6f74206960008201527f6e697469616c697a696e67000000000000000000000000000000000000000000602082015250565b614a6281614790565b8114614a6d57600080fd5b50565b614a79816147a2565b8114614a8457600080fd5b50565b614a90816147ae565b8114614a9b57600080fd5b50565b614aa7816147d8565b8114614ab257600080fd5b5056fea26469706673582212209074f5c3c1a7fabe120adc0e06dfdd66168f68e3f8d5ef73d63bbbe59cb38d4564736f6c63430008040033",
  "linkReferences": {},
  "deployedLinkReferences": {}
}