{
  "_format": "hh-sol-artifact-1",
  "contractName": "OrderBook",
  "sourceName": "contracts/OrderBook/OrderBook.sol",
  "abi": [
    {
      "inputs": [
        {
          "internalType": "address[]",
          "name": "_FxPerpetuals",
          "type": "address[]"
        },
        {
          "internalType": "address[]",
          "name": "_Vaults",
          "type": "address[]"
        },
        {
          "internalType": "uint256[]",
          "name": "_oracleIndices",
          "type": "uint256[]"
        },
        {
          "internalType": "address",
          "name": "_USD",
          "type": "address"
        },
        {
          "internalType": "address",
          "name": "_Oracle",
          "type": "address"
        }
      ],
      "stateMutability": "nonpayable",
      "type": "constructor"
    },
    {
      "anonymous": false,
      "inputs": [
        {
          "indexed": true,
          "internalType": "address",
          "name": "previousOwner",
          "type": "address"
        },
        {
          "indexed": true,
          "internalType": "address",
          "name": "newOwner",
          "type": "address"
        }
      ],
      "name": "OwnershipTransferred",
      "type": "event"
    },
    {
      "inputs": [
        {
          "internalType": "uint256",
          "name": "",
          "type": "uint256"
        }
      ],
      "name": "FxPerpetuals",
      "outputs": [
        {
          "internalType": "address",
          "name": "",
          "type": "address"
        }
      ],
      "stateMutability": "view",
      "type": "function"
    },
    {
      "inputs": [
        {
          "internalType": "uint256",
          "name": "",
          "type": "uint256"
        }
      ],
      "name": "Vaults",
      "outputs": [
        {
          "internalType": "address",
          "name": "",
          "type": "address"
        }
      ],
      "stateMutability": "view",
      "type": "function"
    },
    {
      "inputs": [
        {
          "internalType": "address",
          "name": "_perpetual",
          "type": "address"
        },
        {
          "internalType": "address",
          "name": "_vault",
          "type": "address"
        },
        {
          "internalType": "uint256",
          "name": "_oracleIndex",
          "type": "uint256"
        }
      ],
      "name": "addFxPerpetual",
      "outputs": [],
      "stateMutability": "nonpayable",
      "type": "function"
    },
    {
      "inputs": [
        {
          "internalType": "uint256",
          "name": "",
          "type": "uint256"
        }
      ],
      "name": "buyHeads",
      "outputs": [
        {
          "internalType": "uint256",
          "name": "",
          "type": "uint256"
        }
      ],
      "stateMutability": "view",
      "type": "function"
    },
    {
      "inputs": [],
      "name": "buyID",
      "outputs": [
        {
          "internalType": "uint256",
          "name": "",
          "type": "uint256"
        }
      ],
      "stateMutability": "view",
      "type": "function"
    },
    {
      "inputs": [
        {
          "internalType": "uint256",
          "name": "_ID",
          "type": "uint256"
        }
      ],
      "name": "deleteBuy",
      "outputs": [],
      "stateMutability": "nonpayable",
      "type": "function"
    },
    {
      "inputs": [
        {
          "internalType": "uint256",
          "name": "_ID",
          "type": "uint256"
        }
      ],
      "name": "deleteSell",
      "outputs": [],
      "stateMutability": "nonpayable",
      "type": "function"
    },
    {
      "inputs": [
        {
          "internalType": "uint256",
          "name": "_ID",
          "type": "uint256"
        }
      ],
      "name": "getBuy",
      "outputs": [
        {
          "internalType": "address",
          "name": "maker",
          "type": "address"
        },
        {
          "internalType": "uint256",
          "name": "index",
          "type": "uint256"
        },
        {
          "internalType": "uint256",
          "name": "id",
          "type": "uint256"
        },
        {
          "internalType": "uint256",
          "name": "price",
          "type": "uint256"
        },
        {
          "internalType": "uint256",
          "name": "volume",
          "type": "uint256"
        },
        {
          "internalType": "uint256",
          "name": "next",
          "type": "uint256"
        },
        {
          "internalType": "uint256",
          "name": "prev",
          "type": "uint256"
        }
      ],
      "stateMutability": "view",
      "type": "function"
    },
    {
      "inputs": [
        {
          "internalType": "uint256",
          "name": "_tokenIndex",
          "type": "uint256"
        }
      ],
      "name": "getBuyHead",
      "outputs": [
        {
          "internalType": "uint256",
          "name": "",
          "type": "uint256"
        }
      ],
      "stateMutability": "view",
      "type": "function"
    },
    {
      "inputs": [
        {
          "internalType": "uint256",
          "name": "_tokenIndex",
          "type": "uint256"
        }
      ],
      "name": "getOpenBuyOrders",
      "outputs": [
        {
          "internalType": "uint256",
          "name": "",
          "type": "uint256"
        }
      ],
      "stateMutability": "view",
      "type": "function"
    },
    {
      "inputs": [
        {
          "internalType": "uint256",
          "name": "_tokenIndex",
          "type": "uint256"
        }
      ],
      "name": "getOpenSellOrders",
      "outputs": [
        {
          "internalType": "uint256",
          "name": "",
          "type": "uint256"
        }
      ],
      "stateMutability": "view",
      "type": "function"
    },
    {
      "inputs": [
        {
          "internalType": "uint256",
          "name": "_ID",
          "type": "uint256"
        }
      ],
      "name": "getSell",
      "outputs": [
        {
          "internalType": "address",
          "name": "maker",
          "type": "address"
        },
        {
          "internalType": "uint256",
          "name": "index",
          "type": "uint256"
        },
        {
          "internalType": "uint256",
          "name": "id",
          "type": "uint256"
        },
        {
          "internalType": "uint256",
          "name": "price",
          "type": "uint256"
        },
        {
          "internalType": "uint256",
          "name": "volume",
          "type": "uint256"
        },
        {
          "internalType": "uint256",
          "name": "next",
          "type": "uint256"
        },
        {
          "internalType": "uint256",
          "name": "prev",
          "type": "uint256"
        }
      ],
      "stateMutability": "view",
      "type": "function"
    },
    {
      "inputs": [
        {
          "internalType": "uint256",
          "name": "_tokenIndex",
          "type": "uint256"
        }
      ],
      "name": "getSellHead",
      "outputs": [
        {
          "internalType": "uint256",
          "name": "",
          "type": "uint256"
        }
      ],
      "stateMutability": "view",
      "type": "function"
    },
    {
      "inputs": [
        {
          "internalType": "uint256",
          "name": "",
          "type": "uint256"
        }
      ],
      "name": "lastCumulativePriceUpdate",
      "outputs": [
        {
          "internalType": "uint256",
          "name": "",
          "type": "uint256"
        }
      ],
      "stateMutability": "view",
      "type": "function"
    },
    {
      "inputs": [
        {
          "internalType": "uint256",
          "name": "",
          "type": "uint256"
        }
      ],
      "name": "lastPriceCumulative",
      "outputs": [
        {
          "internalType": "uint256",
          "name": "",
          "type": "uint256"
        }
      ],
      "stateMutability": "view",
      "type": "function"
    },
    {
      "inputs": [
        {
          "internalType": "uint256",
          "name": "_tokenIndex",
          "type": "uint256"
        },
        {
          "internalType": "uint256",
          "name": "_price",
          "type": "uint256"
        },
        {
          "internalType": "uint256",
          "name": "_volume",
          "type": "uint256"
        },
        {
          "internalType": "uint256",
          "name": "_targetInsertion",
          "type": "uint256"
        }
      ],
      "name": "limitBuy",
      "outputs": [],
      "stateMutability": "nonpayable",
      "type": "function"
    },
    {
      "inputs": [
        {
          "internalType": "uint256",
          "name": "_tokenIndex",
          "type": "uint256"
        },
        {
          "internalType": "uint256",
          "name": "_price",
          "type": "uint256"
        },
        {
          "internalType": "uint256",
          "name": "_volume",
          "type": "uint256"
        },
        {
          "internalType": "uint256",
          "name": "_targetInsertion",
          "type": "uint256"
        }
      ],
      "name": "limitSell",
      "outputs": [],
      "stateMutability": "nonpayable",
      "type": "function"
    },
    {
      "inputs": [
        {
          "internalType": "uint256",
          "name": "_tokenIndex",
          "type": "uint256"
        },
        {
          "internalType": "uint256",
          "name": "_maxPrice",
          "type": "uint256"
        },
        {
          "internalType": "uint256",
          "name": "_volume",
          "type": "uint256"
        }
      ],
      "name": "marketBuy",
      "outputs": [
        {
          "internalType": "uint256",
          "name": "",
          "type": "uint256"
        }
      ],
      "stateMutability": "nonpayable",
      "type": "function"
    },
    {
      "inputs": [
        {
          "internalType": "uint256",
          "name": "_tokenIndex",
          "type": "uint256"
        },
        {
          "internalType": "uint256",
          "name": "_minPrice",
          "type": "uint256"
        },
        {
          "internalType": "uint256",
          "name": "_volume",
          "type": "uint256"
        }
      ],
      "name": "marketSell",
      "outputs": [
        {
          "internalType": "uint256",
          "name": "",
          "type": "uint256"
        }
      ],
      "stateMutability": "nonpayable",
      "type": "function"
    },
    {
      "inputs": [
        {
          "internalType": "uint256",
          "name": "",
          "type": "uint256"
        }
      ],
      "name": "openBuyOrders",
      "outputs": [
        {
          "internalType": "uint256",
          "name": "",
          "type": "uint256"
        }
      ],
      "stateMutability": "view",
      "type": "function"
    },
    {
      "inputs": [
        {
          "internalType": "uint256",
          "name": "",
          "type": "uint256"
        }
      ],
      "name": "openSellOrders",
      "outputs": [
        {
          "internalType": "uint256",
          "name": "",
          "type": "uint256"
        }
      ],
      "stateMutability": "view",
      "type": "function"
    },
    {
      "inputs": [],
      "name": "owner",
      "outputs": [
        {
          "internalType": "address",
          "name": "",
          "type": "address"
        }
      ],
      "stateMutability": "view",
      "type": "function"
    },
    {
      "inputs": [
        {
          "internalType": "uint256",
          "name": "",
          "type": "uint256"
        }
      ],
      "name": "priceCumulative",
      "outputs": [
        {
          "internalType": "uint256",
          "name": "",
          "type": "uint256"
        }
      ],
      "stateMutability": "view",
      "type": "function"
    },
    {
      "inputs": [],
      "name": "renounceOwnership",
      "outputs": [],
      "stateMutability": "nonpayable",
      "type": "function"
    },
    {
      "inputs": [
        {
          "internalType": "uint256",
          "name": "",
          "type": "uint256"
        }
      ],
      "name": "sellHeads",
      "outputs": [
        {
          "internalType": "uint256",
          "name": "",
          "type": "uint256"
        }
      ],
      "stateMutability": "view",
      "type": "function"
    },
    {
      "inputs": [],
      "name": "sellID",
      "outputs": [
        {
          "internalType": "uint256",
          "name": "",
          "type": "uint256"
        }
      ],
      "stateMutability": "view",
      "type": "function"
    },
    {
      "inputs": [
        {
          "internalType": "uint256",
          "name": "",
          "type": "uint256"
        }
      ],
      "name": "totalPriceDataPoints",
      "outputs": [
        {
          "internalType": "uint256",
          "name": "",
          "type": "uint256"
        }
      ],
      "stateMutability": "view",
      "type": "function"
    },
    {
      "inputs": [
        {
          "internalType": "address",
          "name": "newOwner",
          "type": "address"
        }
      ],
      "name": "transferOwnership",
      "outputs": [],
      "stateMutability": "nonpayable",
      "type": "function"
    }
  ],
  "bytecode": "0x60806040523480156200001157600080fd5b506040516200495c3803806200495c833981810160405281019062000037919062000494565b620000576200004b6200015660201b60201c565b6200015e60201b60201c565b84600390805190602001906200006f92919062000222565b5083600490805190602001906200008892919062000222565b5081600160006101000a81548173ffffffffffffffffffffffffffffffffffffffff021916908373ffffffffffffffffffffffffffffffffffffffff16021790555080600260006101000a81548173ffffffffffffffffffffffffffffffffffffffff021916908373ffffffffffffffffffffffffffffffffffffffff16021790555082600d908051906020019062000123929190620002b1565b50670de0b6b3a7640000601081905550610e106012819055506018601381905550426011819055505050505050620006d0565b600033905090565b60008060009054906101000a900473ffffffffffffffffffffffffffffffffffffffff169050816000806101000a81548173ffffffffffffffffffffffffffffffffffffffff021916908373ffffffffffffffffffffffffffffffffffffffff1602179055508173ffffffffffffffffffffffffffffffffffffffff168173ffffffffffffffffffffffffffffffffffffffff167f8be0079c531659141344cd1fd0a4f28419497f9722a3daafe3b4186f6b6457e060405160405180910390a35050565b8280548282559060005260206000209081019282156200029e579160200282015b828111156200029d5782518260006101000a81548173ffffffffffffffffffffffffffffffffffffffff021916908373ffffffffffffffffffffffffffffffffffffffff1602179055509160200191906001019062000243565b5b509050620002ad919062000303565b5090565b828054828255906000526020600020908101928215620002f0579160200282015b82811115620002ef578251825591602001919060010190620002d2565b5b509050620002ff919062000303565b5090565b5b808211156200031e57600081600090555060010162000304565b5090565b60006200033962000333846200058a565b62000561565b905080838252602082019050828560208602820111156200035957600080fd5b60005b858110156200038d57816200037288826200040c565b8452602084019350602083019250506001810190506200035c565b5050509392505050565b6000620003ae620003a884620005b9565b62000561565b90508083825260208201905082856020860282011115620003ce57600080fd5b60005b85811015620004025781620003e788826200047d565b845260208401935060208301925050600181019050620003d1565b5050509392505050565b6000815190506200041d816200069c565b92915050565b600082601f8301126200043557600080fd5b81516200044784826020860162000322565b91505092915050565b600082601f8301126200046257600080fd5b81516200047484826020860162000397565b91505092915050565b6000815190506200048e81620006b6565b92915050565b600080600080600060a08688031215620004ad57600080fd5b600086015167ffffffffffffffff811115620004c857600080fd5b620004d68882890162000423565b955050602086015167ffffffffffffffff811115620004f457600080fd5b620005028882890162000423565b945050604086015167ffffffffffffffff8111156200052057600080fd5b6200052e8882890162000450565b935050606062000541888289016200040c565b925050608062000554888289016200040c565b9150509295509295909350565b60006200056d62000580565b90506200057b828262000626565b919050565b6000604051905090565b600067ffffffffffffffff821115620005a857620005a76200065c565b5b602082029050602081019050919050565b600067ffffffffffffffff821115620005d757620005d66200065c565b5b602082029050602081019050919050565b6000620005f582620005fc565b9050919050565b600073ffffffffffffffffffffffffffffffffffffffff82169050919050565b6000819050919050565b62000631826200068b565b810181811067ffffffffffffffff821117156200065357620006526200065c565b5b80604052505050565b7f4e487b7100000000000000000000000000000000000000000000000000000000600052604160045260246000fd5b6000601f19601f8301169050919050565b620006a781620005e8565b8114620006b357600080fd5b50565b620006c1816200061c565b8114620006cd57600080fd5b50565b61427c80620006e06000396000f3fe608060405234801561001057600080fd5b50600436106101c45760003560e01c80639a699d4a116100f9578063c2b422d011610097578063dde4a70b11610071578063dde4a70b1461059d578063f0768cf7146105d3578063f2fde38b146105ef578063f32a547c1461060b576101c4565b8063c2b422d01461050d578063c8ccd7271461053d578063d6d423d81461056d576101c4565b8063affb21a3116100d3578063affb21a314610461578063b55e091214610491578063c146ce0a146104c1578063c224e728146104f1576101c4565b80639a699d4a146103e55780639ff1549c14610415578063a813643c14610431576101c4565b80635c285acb11610166578063715018a611610140578063715018a61461036f5780637d9c5d4c146103795780638da5cb5b146103a957806393a7215e146103c7576101c4565b80635c285acb146102f35780636ba755ef146103235780636f41e8c21461033f576101c4565b806344e9887b116101a257806344e9887b14610259578063476d4f3f1461027757806359d5445b146102a75780635aca8415146102c3576101c4565b80631bed7a81146101c957806335460d92146101f95780633c8e5d4414610229575b600080fd5b6101e360048036038101906101de9190613ac1565b610641565b6040516101f09190613c29565b60405180910390f35b610213600480360381019061020e9190613ac1565b610680565b6040516102209190613d7c565b60405180910390f35b610243600480360381019061023e9190613b13565b610698565b6040516102509190613d7c565b60405180910390f35b610261610c59565b60405161026e9190613d7c565b60405180910390f35b610291600480360381019061028c9190613ac1565b610c5f565b60405161029e9190613d7c565b60405180910390f35b6102c160048036038101906102bc9190613ac1565b610c77565b005b6102dd60048036038101906102d89190613ac1565b610df9565b6040516102ea9190613c29565b60405180910390f35b61030d60048036038101906103089190613ac1565b610e38565b60405161031a9190613d7c565b60405180910390f35b61033d60048036038101906103389190613b62565b610e50565b005b61035960048036038101906103549190613ac1565b6117b0565b6040516103669190613d7c565b60405180910390f35b6103776117cd565b005b610393600480360381019061038e9190613ac1565b611855565b6040516103a09190613d7c565b60405180910390f35b6103b1611872565b6040516103be9190613c29565b60405180910390f35b6103cf61189b565b6040516103dc9190613d7c565b60405180910390f35b6103ff60048036038101906103fa9190613ac1565b6118a1565b60405161040c9190613d7c565b60405180910390f35b61042f600480360381019061042a9190613ac1565b6118b9565b005b61044b60048036038101906104469190613ac1565b611a57565b6040516104589190613d7c565b60405180910390f35b61047b60048036038101906104769190613ac1565b611a6f565b6040516104889190613d7c565b60405180910390f35b6104ab60048036038101906104a69190613b13565b611a8c565b6040516104b89190613d7c565b60405180910390f35b6104db60048036038101906104d69190613ac1565b612005565b6040516104e89190613d7c565b60405180910390f35b61050b60048036038101906105069190613a20565b61201d565b005b61052760048036038101906105229190613ac1565b61218d565b6040516105349190613d7c565b60405180910390f35b61055760048036038101906105529190613ac1565b6121a5565b6040516105649190613d7c565b60405180910390f35b61058760048036038101906105829190613ac1565b6121c2565b6040516105949190613d7c565b60405180910390f35b6105b760048036038101906105b29190613ac1565b6121da565b6040516105ca9796959493929190613ccd565b60405180910390f35b6105ed60048036038101906105e89190613b62565b6122d5565b005b610609600480360381019061060491906139f7565b612c9e565b005b61062560048036038101906106209190613ac1565b612d96565b6040516106389796959493929190613ccd565b60405180910390f35b6003818154811061065157600080fd5b906000526020600020016000915054906101000a900473ffffffffffffffffffffffffffffffffffffffff1681565b60066020528060005260406000206000915090505481565b600080600385815481106106d5577f4e487b7100000000000000000000000000000000000000000000000000000000600052603260045260246000fd5b9060005260206000200160009054906101000a900473ffffffffffffffffffffffffffffffffffffffff16905061072960105461071b8587612e9190919063ffffffff16565b612ea790919063ffffffff16565b600160009054906101000a900473ffffffffffffffffffffffffffffffffffffffff1673ffffffffffffffffffffffffffffffffffffffff1663dd62ed3e33306040518363ffffffff1660e01b8152600401610786929190613c44565b60206040518083038186803b15801561079e57600080fd5b505afa1580156107b2573d6000803e3d6000fd5b505050506040513d601f19601f820116820180604052508101906107d69190613aea565b10156107e157600080fd5b600060086000878152602001908152602001600020541161080157600080fd5b6000600660008781526020019081526020016000205490505b600084118015610840575084601560008381526020019081526020016000206003015411155b801561084d575060008114155b15610c4c57600060156000838152602001908152602001600020905084816004015410610a8157600160009054906101000a900473ffffffffffffffffffffffffffffffffffffffff1673ffffffffffffffffffffffffffffffffffffffff166323b872dd338360000160009054906101000a900473ffffffffffffffffffffffffffffffffffffffff166109036010546108f587600301548c612e9190919063ffffffff16565b612ea790919063ffffffff16565b6040518463ffffffff1660e01b815260040161092193929190613c6d565b602060405180830381600087803b15801561093b57600080fd5b505af115801561094f573d6000803e3d6000fd5b505050506040513d601f19601f820116820180604052508101906109739190613a6f565b508273ffffffffffffffffffffffffffffffffffffffff1663a9059cbb33876040518363ffffffff1660e01b81526004016109af929190613ca4565b602060405180830381600087803b1580156109c957600080fd5b505af11580156109dd573d6000803e3d6000fd5b505050506040513d601f19601f82011682018060405250810190610a019190613a6f565b50610a19858260040154612ebd90919063ffffffff16565b8160040181905550610a48601e600c60008a815260200190815260200160002054612ed390919063ffffffff16565b421115610a5e57610a5d878260030154612ee9565b5b600081600401541415610a7557610a7482612f91565b5b60009350505050610c52565b600160009054906101000a900473ffffffffffffffffffffffffffffffffffffffff1673ffffffffffffffffffffffffffffffffffffffff166323b872dd338360000160009054906101000a900473ffffffffffffffffffffffffffffffffffffffff16610b14601054610b0687600301548860040154612e9190919063ffffffff16565b612ea790919063ffffffff16565b6040518463ffffffff1660e01b8152600401610b3293929190613c6d565b602060405180830381600087803b158015610b4c57600080fd5b505af1158015610b60573d6000803e3d6000fd5b505050506040513d601f19601f82011682018060405250810190610b849190613a6f565b508273ffffffffffffffffffffffffffffffffffffffff1663a9059cbb3383600401546040518363ffffffff1660e01b8152600401610bc4929190613ca4565b602060405180830381600087803b158015610bde57600080fd5b505af1158015610bf2573d6000803e3d6000fd5b505050506040513d601f19601f82011682018060405250810190610c169190613a6f565b50610c2e816004015486612ebd90919063ffffffff16565b9450600082905081600501549250610c4581612f91565b505061081a565b83925050505b9392505050565b600f5481565b60056020528060005260406000206000915090505481565b6000610ccc601054610cbe60146000868152602001908152602001600020600301546014600087815260200190815260200160002060040154612e9190919063ffffffff16565b612ea790919063ffffffff16565b9050600160009054906101000a900473ffffffffffffffffffffffffffffffffffffffff1673ffffffffffffffffffffffffffffffffffffffff1663a9059cbb33836040518363ffffffff1660e01b8152600401610d2b929190613ca4565b602060405180830381600087803b158015610d4557600080fd5b505af1158015610d59573d6000803e3d6000fd5b505050506040513d601f19601f82011682018060405250810190610d7d9190613a6f565b506014600083815260200190815260200160002060000160009054906101000a900473ffffffffffffffffffffffffffffffffffffffff1673ffffffffffffffffffffffffffffffffffffffff163373ffffffffffffffffffffffffffffffffffffffff1614610dec57600080fd5b610df582613169565b5050565b60048181548110610e0957600080fd5b906000526020600020016000915054906101000a900473ffffffffffffffffffffffffffffffffffffffff1681565b60086020528060005260406000206000915090505481565b600060038581548110610e8c577f4e487b7100000000000000000000000000000000000000000000000000000000600052603260045260246000fd5b9060005260206000200160009054906101000a900473ffffffffffffffffffffffffffffffffffffffff169050828173ffffffffffffffffffffffffffffffffffffffff1663dd62ed3e33306040518363ffffffff1660e01b8152600401610ef5929190613c44565b60206040518083038186803b158015610f0d57600080fd5b505afa158015610f21573d6000803e3d6000fd5b505050506040513d601f19601f82011682018060405250810190610f459190613aea565b1015610f5057600080fd5b6000806007600088815260200190815260200160002054111561101f57610f78868686611a8c565b90506000811415610f8a5750506117aa565b8173ffffffffffffffffffffffffffffffffffffffff166323b872dd3330846040518463ffffffff1660e01b8152600401610fc793929190613c6d565b602060405180830381600087803b158015610fe157600080fd5b505af1158015610ff5573d6000803e3d6000fd5b505050506040513d601f19601f820116820180604052508101906110199190613a6f565b506110b0565b8173ffffffffffffffffffffffffffffffffffffffff166323b872dd3330876040518463ffffffff1660e01b815260040161105c93929190613c6d565b602060405180830381600087803b15801561107657600080fd5b505af115801561108a573d6000803e3d6000fd5b505050506040513d601f19601f820116820180604052508101906110ae9190613a6f565b505b600f60008154809291906110c3906140cb565b919050555060006040518060e001604052803373ffffffffffffffffffffffffffffffffffffffff168152602001888152602001600f548152602001878152602001600084146111135783611115565b865b815260200160008152602001600081525090508060156000600f54815260200190815260200160002060008201518160000160006101000a81548173ffffffffffffffffffffffffffffffffffffffff021916908373ffffffffffffffffffffffffffffffffffffffff1602179055506020820151816001015560408201518160020155606082015181600301556080820151816004015560a0820151816005015560c0820151816006015590505060006008600089815260200190815260200160002054141561122b57600f54600660008981526020019081526020016000208190555060086000888152602001908152602001600020600081548092919061121e906140cb565b91905055505050506117aa565b600060156000600660008b815260200190815260200160002054815260200190815260200160002090508060030154871015611366578160400151600660008a81526020019081526020016000208190555080600201548260a0018181525050816040015181600601819055506008600089815260200190815260200160002060008154809291906112bc906140cb565b91905055508160156000600f54815260200190815260200160002060008201518160000160006101000a81548173ffffffffffffffffffffffffffffffffffffffff021916908373ffffffffffffffffffffffffffffffffffffffff1602179055506020820151816001015560408201518160020155606082015181600301556080820151816004015560a0820151816005015560c08201518160060155905050505050506117aa565b6000816005015490506000811415611462578260400151826005018190555081600201548360c0018181525050600860008a815260200190815260200160002060008154809291906113b7906140cb565b91905055508260156000600f54815260200190815260200160002060008201518160000160006101000a81548173ffffffffffffffffffffffffffffffffffffffff021916908373ffffffffffffffffffffffffffffffffffffffff1602179055506020820151816001015560408201518160020155606082015181600301556080820151816004015560a0820151816005015560c0820151816006015590505050505050506117aa565b88601560008881526020019081526020016000206001015414801561149c5750876015600088815260200190815260200160002060030154105b80156114bf57506000601560008881526020019081526020016000206004015414155b156114c8578590505b5b87601560008381526020019081526020016000206003015410156115295760006015600083815260200190815260200160002060050154141561150b57611529565b601560008281526020019081526020016000206005015490506114c9565b600060156000838152602001908152602001600020600501541480156115645750876015600083815260200190815260200160002060030154105b156116615782604001516015600083815260200190815260200160002060050181905550808360c0018181525050600860008a815260200190815260200160002060008154809291906115b6906140cb565b91905055508260156000600f54815260200190815260200160002060008201518160000160006101000a81548173ffffffffffffffffffffffffffffffffffffffff021916908373ffffffffffffffffffffffffffffffffffffffff1602179055506020820151816001015560408201518160020155606082015181600301556080820151816004015560a0820151816005015560c0820151816006015590505050505050506117aa565b826040015160156000601560008581526020019081526020016000206006015481526020019081526020016000206005018190555060156000828152602001908152602001600020600601548360c0018181525050808360a001818152505082604001516015600083815260200190815260200160002060060181905550600860008a81526020019081526020016000206000815480929190611703906140cb565b91905055508260156000600f54815260200190815260200160002060008201518160000160006101000a81548173ffffffffffffffffffffffffffffffffffffffff021916908373ffffffffffffffffffffffffffffffffffffffff1602179055506020820151816001015560408201518160020155606082015181600301556080820151816004015560a0820151816005015560c0820151816006015590505050505050505b50505050565b600060086000838152602001908152602001600020549050919050565b6117d5613341565b73ffffffffffffffffffffffffffffffffffffffff166117f3611872565b73ffffffffffffffffffffffffffffffffffffffff1614611849576040517f08c379a000000000000000000000000000000000000000000000000000000000815260040161184090613d5c565b60405180910390fd5b6118536000613349565b565b600060076000838152602001908152602001600020549050919050565b60008060009054906101000a900473ffffffffffffffffffffffffffffffffffffffff16905090565b600e5481565b600a6020528060005260406000206000915090505481565b6000600360156000848152602001908152602001600020600101548154811061190b577f4e487b7100000000000000000000000000000000000000000000000000000000600052603260045260246000fd5b9060005260206000200160009054906101000a900473ffffffffffffffffffffffffffffffffffffffff1690508073ffffffffffffffffffffffffffffffffffffffff1663a9059cbb3360156000868152602001908152602001600020600401546040518363ffffffff1660e01b8152600401611989929190613ca4565b602060405180830381600087803b1580156119a357600080fd5b505af11580156119b7573d6000803e3d6000fd5b505050506040513d601f19601f820116820180604052508101906119db9190613a6f565b506015600083815260200190815260200160002060000160009054906101000a900473ffffffffffffffffffffffffffffffffffffffff1673ffffffffffffffffffffffffffffffffffffffff163373ffffffffffffffffffffffffffffffffffffffff1614611a4a57600080fd5b611a5382612f91565b5050565b60096020528060005260406000206000915090505481565b600060056000838152602001908152602001600020549050919050565b60008060038581548110611ac9577f4e487b7100000000000000000000000000000000000000000000000000000000600052603260045260246000fd5b9060005260206000200160009054906101000a900473ffffffffffffffffffffffffffffffffffffffff169050828173ffffffffffffffffffffffffffffffffffffffff1663dd62ed3e33306040518363ffffffff1660e01b8152600401611b32929190613c44565b60206040518083038186803b158015611b4a57600080fd5b505afa158015611b5e573d6000803e3d6000fd5b505050506040513d601f19601f82011682018060405250810190611b829190613aea565b1015611b8d57600080fd5b6000600760008781526020019081526020016000205411611bad57600080fd5b6000600560008781526020019081526020016000205490505b600084118015611bec575084601460008381526020019081526020016000206003015410155b8015611bf9575060008114155b15611ff857600060146000838152602001908152602001600020905084816004015410611e2d57600160009054906101000a900473ffffffffffffffffffffffffffffffffffffffff1673ffffffffffffffffffffffffffffffffffffffff1663a9059cbb33611c8a601054611c7c86600301548b612e9190919063ffffffff16565b612ea790919063ffffffff16565b6040518363ffffffff1660e01b8152600401611ca7929190613ca4565b602060405180830381600087803b158015611cc157600080fd5b505af1158015611cd5573d6000803e3d6000fd5b505050506040513d601f19601f82011682018060405250810190611cf99190613a6f565b508273ffffffffffffffffffffffffffffffffffffffff166323b872dd338360000160009054906101000a900473ffffffffffffffffffffffffffffffffffffffff16886040518463ffffffff1660e01b8152600401611d5b93929190613c6d565b602060405180830381600087803b158015611d7557600080fd5b505af1158015611d89573d6000803e3d6000fd5b505050506040513d601f19601f82011682018060405250810190611dad9190613a6f565b50611dc5858260040154612ebd90919063ffffffff16565b8160040181905550611df4601e600c60008a815260200190815260200160002054612ed390919063ffffffff16565b421115611e0a57611e09878260030154612ee9565b5b600081600401541415611e2157611e2082613169565b5b60009350505050611ffe565b600160009054906101000a900473ffffffffffffffffffffffffffffffffffffffff1673ffffffffffffffffffffffffffffffffffffffff1663a9059cbb33611e9b601054611e8d86600301548760040154612e9190919063ffffffff16565b612ea790919063ffffffff16565b6040518363ffffffff1660e01b8152600401611eb8929190613ca4565b602060405180830381600087803b158015611ed257600080fd5b505af1158015611ee6573d6000803e3d6000fd5b505050506040513d601f19601f82011682018060405250810190611f0a9190613a6f565b508273ffffffffffffffffffffffffffffffffffffffff166323b872dd338360000160009054906101000a900473ffffffffffffffffffffffffffffffffffffffff1684600401546040518463ffffffff1660e01b8152600401611f7093929190613c6d565b602060405180830381600087803b158015611f8a57600080fd5b505af1158015611f9e573d6000803e3d6000fd5b505050506040513d601f19601f82011682018060405250810190611fc29190613a6f565b50611fda816004015486612ebd90919063ffffffff16565b9450600082905081600501549250611ff181613169565b5050611bc6565b83925050505b9392505050565b600c6020528060005260406000206000915090505481565b612025613341565b73ffffffffffffffffffffffffffffffffffffffff16612043611872565b73ffffffffffffffffffffffffffffffffffffffff1614612099576040517f08c379a000000000000000000000000000000000000000000000000000000000815260040161209090613d5c565b60405180910390fd5b6003839080600181540180825580915050600190039060005260206000200160009091909190916101000a81548173ffffffffffffffffffffffffffffffffffffffff021916908373ffffffffffffffffffffffffffffffffffffffff1602179055506004829080600181540180825580915050600190039060005260206000200160009091909190916101000a81548173ffffffffffffffffffffffffffffffffffffffff021916908373ffffffffffffffffffffffffffffffffffffffff160217905550600d819080600181540180825580915050600190039060005260206000200160009091909190915055505050565b600b6020528060005260406000206000915090505481565b600060066000838152602001908152602001600020549050919050565b60076020528060005260406000206000915090505481565b600080600080600080600080601560008a81526020019081526020016000206040518060e00160405290816000820160009054906101000a900473ffffffffffffffffffffffffffffffffffffffff1673ffffffffffffffffffffffffffffffffffffffff1673ffffffffffffffffffffffffffffffffffffffff16815260200160018201548152602001600282015481526020016003820154815260200160048201548152602001600582015481526020016006820154815250509050806000015181602001518260400151836060015184608001518560a001518660c00151975097509750975097509750975050919395979092949650565b6122fc6010546122ee8585612e9190919063ffffffff16565b612ea790919063ffffffff16565b600160009054906101000a900473ffffffffffffffffffffffffffffffffffffffff1673ffffffffffffffffffffffffffffffffffffffff1663dd62ed3e33306040518363ffffffff1660e01b8152600401612359929190613c44565b60206040518083038186803b15801561237157600080fd5b505afa158015612385573d6000803e3d6000fd5b505050506040513d601f19601f820116820180604052508101906123a99190613aea565b10156123b457600080fd5b600080600860008781526020019081526020016000205411156124ca576123dc858585610698565b905060008114156123ed5750612c98565b600160009054906101000a900473ffffffffffffffffffffffffffffffffffffffff1673ffffffffffffffffffffffffffffffffffffffff166323b872dd33306124546010546124468a88612e9190919063ffffffff16565b612ea790919063ffffffff16565b6040518463ffffffff1660e01b815260040161247293929190613c6d565b602060405180830381600087803b15801561248c57600080fd5b505af11580156124a0573d6000803e3d6000fd5b505050506040513d601f19601f820116820180604052508101906124c49190613a6f565b506125a3565b600160009054906101000a900473ffffffffffffffffffffffffffffffffffffffff1673ffffffffffffffffffffffffffffffffffffffff166323b872dd33306125316010546125238a8a612e9190919063ffffffff16565b612ea790919063ffffffff16565b6040518463ffffffff1660e01b815260040161254f93929190613c6d565b602060405180830381600087803b15801561256957600080fd5b505af115801561257d573d6000803e3d6000fd5b505050506040513d601f19601f820116820180604052508101906125a19190613a6f565b505b600e60008154809291906125b6906140cb565b919050555060006040518060e001604052803373ffffffffffffffffffffffffffffffffffffffff168152602001878152602001600e548152602001868152602001600084146126065783612608565b855b815260200160008152602001600081525090508060146000600e54815260200190815260200160002060008201518160000160006101000a81548173ffffffffffffffffffffffffffffffffffffffff021916908373ffffffffffffffffffffffffffffffffffffffff1602179055506020820151816001015560408201518160020155606082015181600301556080820151816004015560a0820151816005015560c0820151816006015590505060006007600088815260200190815260200160002054141561271d57600e546005600088815260200190815260200160002081905550600760008781526020019081526020016000206000815480929190612711906140cb565b91905055505050612c98565b600060146000600560008a815260200190815260200160002054815260200190815260200160002090508060030154861115612857578160400151600560008981526020019081526020016000208190555080600201548260a0018181525050816040015181600601819055506007600088815260200190815260200160002060008154809291906127ae906140cb565b91905055508160146000600e54815260200190815260200160002060008201518160000160006101000a81548173ffffffffffffffffffffffffffffffffffffffff021916908373ffffffffffffffffffffffffffffffffffffffff1602179055506020820151816001015560408201518160020155606082015181600301556080820151816004015560a0820151816005015560c08201518160060155905050505050612c98565b6000816005015490506000811415612952578260400151826005018190555081600201548360c00181815250506007600089815260200190815260200160002060008154809291906128a8906140cb565b91905055508260146000600e54815260200190815260200160002060008201518160000160006101000a81548173ffffffffffffffffffffffffffffffffffffffff021916908373ffffffffffffffffffffffffffffffffffffffff1602179055506020820151816001015560408201518160020155606082015181600301556080820151816004015560a0820151816005015560c0820151816006015590505050505050612c98565b87601460008781526020019081526020016000206001015414801561298c5750866014600087815260200190815260200160002060030154115b80156129af57506000601460008781526020019081526020016000206004015414155b156129b8578490505b5b8660146000838152602001908152602001600020600301541115612a19576000601460008381526020019081526020016000206005015414156129fb57612a19565b601460008281526020019081526020016000206005015490506129b9565b60006014600083815260200190815260200160002060050154148015612a545750866014600083815260200190815260200160002060030154115b15612b505782604001516014600083815260200190815260200160002060050181905550808360c0018181525050600760008981526020019081526020016000206000815480929190612aa6906140cb565b91905055508260146000600e54815260200190815260200160002060008201518160000160006101000a81548173ffffffffffffffffffffffffffffffffffffffff021916908373ffffffffffffffffffffffffffffffffffffffff1602179055506020820151816001015560408201518160020155606082015181600301556080820151816004015560a0820151816005015560c0820151816006015590505050505050612c98565b826040015160146000601460008581526020019081526020016000206006015481526020019081526020016000206005018190555060146000828152602001908152602001600020600601548360c0018181525050808360a001818152505082604001516014600083815260200190815260200160002060060181905550600760008981526020019081526020016000206000815480929190612bf2906140cb565b91905055508260146000600e54815260200190815260200160002060008201518160000160006101000a81548173ffffffffffffffffffffffffffffffffffffffff021916908373ffffffffffffffffffffffffffffffffffffffff1602179055506020820151816001015560408201518160020155606082015181600301556080820151816004015560a0820151816005015560c08201518160060155905050505050505b50505050565b612ca6613341565b73ffffffffffffffffffffffffffffffffffffffff16612cc4611872565b73ffffffffffffffffffffffffffffffffffffffff1614612d1a576040517f08c379a0000000000000000000000000000000000000000000000000000000008152600401612d1190613d5c565b60405180910390fd5b600073ffffffffffffffffffffffffffffffffffffffff168173ffffffffffffffffffffffffffffffffffffffff161415612d8a576040517f08c379a0000000000000000000000000000000000000000000000000000000008152600401612d8190613d3c565b60405180910390fd5b612d9381613349565b50565b600080600080600080600080601460008a81526020019081526020016000206040518060e00160405290816000820160009054906101000a900473ffffffffffffffffffffffffffffffffffffffff1673ffffffffffffffffffffffffffffffffffffffff1673ffffffffffffffffffffffffffffffffffffffff16815260200160018201548152602001600282015481526020016003820154815260200160048201548152602001600582015481526020016006820154815250509050806000015181602001518260400151836060015184608001518560a001518660c00151975097509750975097509750975050919395979092949650565b60008183612e9f9190613f2d565b905092915050565b60008183612eb59190613efc565b905092915050565b60008183612ecb919061401b565b905092915050565b60008183612ee19190613e3c565b905092915050565b612f00601254601154612ed390919063ffffffff16565b4210612f0f57612f0e61340d565b5b612f35816009600085815260200190815260200160002054612ed390919063ffffffff16565b6009600084815260200190815260200160002081905550600b60008381526020019081526020016000206000815480929190612f70906140cb565b919050555042600c6000848152602001908152602001600020819055505050565b600060156000838152602001908152602001600020600601541415612fd457612fcf6015600083815260200190815260200160002060010154613659565b613166565b60006015600083815260200190815260200160002060050154141561302a5760006015600060156000858152602001908152602001600020600601548152602001908152602001600020600501819055506130b9565b601560008281526020019081526020016000206005015460156000601560008581526020019081526020016000206006015481526020019081526020016000206005018190555060156000828152602001908152602001600020600601546015600060156000858152602001908152602001600020600501548152602001908152602001600020600601819055505b60156000828152602001908152602001600020600080820160006101000a81549073ffffffffffffffffffffffffffffffffffffffff0219169055600182016000905560028201600090556003820160009055600482016000905560058201600090556006820160009055505060086000601560008481526020019081526020016000206001015481526020019081526020016000206000815480929190613160906140a1565b91905055505b50565b6000601460008381526020019081526020016000206006015414156131ac576131a7601460008381526020019081526020016000206001015461376b565b61333e565b600060146000838152602001908152602001600020600501541415613202576000601460006014600085815260200190815260200160002060060154815260200190815260200160002060050181905550613291565b601460008281526020019081526020016000206005015460146000601460008581526020019081526020016000206006015481526020019081526020016000206005018190555060146000828152602001908152602001600020600601546014600060146000858152602001908152602001600020600501548152602001908152602001600020600601819055505b60146000828152602001908152602001600020600080820160006101000a81549073ffffffffffffffffffffffffffffffffffffffff0219169055600182016000905560028201600090556003820160009055600482016000905560058201600090556006820160009055505060076000601460008481526020019081526020016000206001015481526020019081526020016000206000815480929190613338906140a1565b91905055505b50565b600033905090565b60008060009054906101000a900473ffffffffffffffffffffffffffffffffffffffff169050816000806101000a81548173ffffffffffffffffffffffffffffffffffffffff021916908373ffffffffffffffffffffffffffffffffffffffff1602179055508173ffffffffffffffffffffffffffffffffffffffff168173ffffffffffffffffffffffffffffffffffffffff167f8be0079c531659141344cd1fd0a4f28419497f9722a3daafe3b4186f6b6457e060405160405180910390a35050565b60005b6004805490508110156136565760006134288261387d565b90506000600260009054906101000a900473ffffffffffffffffffffffffffffffffffffffff1673ffffffffffffffffffffffffffffffffffffffff1663f30d3d1b600d85815481106134a4577f4e487b7100000000000000000000000000000000000000000000000000000000600052603260045260246000fd5b90600052602060002001546040518263ffffffff1660e01b81526004016134cb9190613d7c565b60206040518083038186803b1580156134e357600080fd5b505afa1580156134f7573d6000803e3d6000fd5b505050506040513d601f19601f8201168201806040525081019061351b9190613a98565b90506000613532828461394c90919063ffffffff16565b9050600061354b6013548361396290919063ffffffff16565b905060006010549050613567828261397890919063ffffffff16565b90506000600487815481106135a5577f4e487b7100000000000000000000000000000000000000000000000000000000600052603260045260246000fd5b9060005260206000200160009054906101000a900473ffffffffffffffffffffffffffffffffffffffff1690508073ffffffffffffffffffffffffffffffffffffffff16638f9bf833836040518263ffffffff1660e01b815260040161360b9190613d7c565b600060405180830381600087803b15801561362557600080fd5b505af1158015613639573d6000803e3d6000fd5b50505050505050505050808061364e906140cb565b915050613410565b50565b60006006600083815260200190815260200160002054905060156000828152602001908152602001600020600501546006600084815260200190815260200160002081905550600060156000601560008581526020019081526020016000206005015481526020019081526020016000206006018190555060156000828152602001908152602001600020600080820160006101000a81549073ffffffffffffffffffffffffffffffffffffffff02191690556001820160009055600282016000905560038201600090556004820160009055600582016000905560068201600090555050600860008381526020019081526020016000206000815480929190613762906140a1565b91905055505050565b60006005600083815260200190815260200160002054905060146000828152602001908152602001600020600501546005600084815260200190815260200160002081905550600060146000601460008581526020019081526020016000206005015481526020019081526020016000206006018190555060146000828152602001908152602001600020600080820160006101000a81549073ffffffffffffffffffffffffffffffffffffffff02191690556001820160009055600282016000905560038201600090556004820160009055600582016000905560068201600090555050600760008381526020019081526020016000206000815480929190613874906140a1565b91905055505050565b6000806138b9600a6000858152602001908152602001600020546009600086815260200190815260200160002054612ebd90919063ffffffff16565b905060006138e3600b60008681526020019081526020016000205483612ea790919063ffffffff16565b90506000600b600086815260200190815260200160002081905550600060096000868152602001908152602001600020819055506009600085815260200190815260200160002054600a6000868152602001908152602001600020819055508092505050919050565b6000818361395a9190613f87565b905092915050565b600081836139709190613e92565b905092915050565b600081836139869190613da8565b905092915050565b60008135905061399d816141ea565b92915050565b6000815190506139b281614201565b92915050565b6000815190506139c781614218565b92915050565b6000813590506139dc8161422f565b92915050565b6000815190506139f18161422f565b92915050565b600060208284031215613a0957600080fd5b6000613a178482850161398e565b91505092915050565b600080600060608486031215613a3557600080fd5b6000613a438682870161398e565b9350506020613a548682870161398e565b9250506040613a65868287016139cd565b9150509250925092565b600060208284031215613a8157600080fd5b6000613a8f848285016139a3565b91505092915050565b600060208284031215613aaa57600080fd5b6000613ab8848285016139b8565b91505092915050565b600060208284031215613ad357600080fd5b6000613ae1848285016139cd565b91505092915050565b600060208284031215613afc57600080fd5b6000613b0a848285016139e2565b91505092915050565b600080600060608486031215613b2857600080fd5b6000613b36868287016139cd565b9350506020613b47868287016139cd565b9250506040613b58868287016139cd565b9150509250925092565b60008060008060808587031215613b7857600080fd5b6000613b86878288016139cd565b9450506020613b97878288016139cd565b9350506040613ba8878288016139cd565b9250506060613bb9878288016139cd565b91505092959194509250565b613bce8161404f565b82525050565b6000613be1602683613d97565b9150613bec82614172565b604082019050919050565b6000613c04602083613d97565b9150613c0f826141c1565b602082019050919050565b613c2381614097565b82525050565b6000602082019050613c3e6000830184613bc5565b92915050565b6000604082019050613c596000830185613bc5565b613c666020830184613bc5565b9392505050565b6000606082019050613c826000830186613bc5565b613c8f6020830185613bc5565b613c9c6040830184613c1a565b949350505050565b6000604082019050613cb96000830185613bc5565b613cc66020830184613c1a565b9392505050565b600060e082019050613ce2600083018a613bc5565b613cef6020830189613c1a565b613cfc6040830188613c1a565b613d096060830187613c1a565b613d166080830186613c1a565b613d2360a0830185613c1a565b613d3060c0830184613c1a565b98975050505050505050565b60006020820190508181036000830152613d5581613bd4565b9050919050565b60006020820190508181036000830152613d7581613bf7565b9050919050565b6000602082019050613d916000830184613c1a565b92915050565b600082825260208201905092915050565b6000613db38261406d565b9150613dbe8361406d565b9250817f7fffffffffffffffffffffffffffffffffffffffffffffffffffffffffffffff03831360008312151615613df957613df8614114565b5b817f8000000000000000000000000000000000000000000000000000000000000000038312600083121615613e3157613e30614114565b5b828201905092915050565b6000613e4782614097565b9150613e5283614097565b9250827fffffffffffffffffffffffffffffffffffffffffffffffffffffffffffffffff03821115613e8757613e86614114565b5b828201905092915050565b6000613e9d8261406d565b9150613ea88361406d565b925082613eb857613eb7614143565b5b600160000383147f800000000000000000000000000000000000000000000000000000000000000083141615613ef157613ef0614114565b5b828205905092915050565b6000613f0782614097565b9150613f1283614097565b925082613f2257613f21614143565b5b828204905092915050565b6000613f3882614097565b9150613f4383614097565b9250817fffffffffffffffffffffffffffffffffffffffffffffffffffffffffffffffff0483118215151615613f7c57613f7b614114565b5b828202905092915050565b6000613f928261406d565b9150613f9d8361406d565b9250827f800000000000000000000000000000000000000000000000000000000000000001821260008412151615613fd857613fd7614114565b5b827f7fffffffffffffffffffffffffffffffffffffffffffffffffffffffffffffff0182136000841216156140105761400f614114565b5b828203905092915050565b600061402682614097565b915061403183614097565b92508282101561404457614043614114565b5b828203905092915050565b600061405a82614077565b9050919050565b60008115159050919050565b6000819050919050565b600073ffffffffffffffffffffffffffffffffffffffff82169050919050565b6000819050919050565b60006140ac82614097565b915060008214156140c0576140bf614114565b5b600182039050919050565b60006140d682614097565b91507fffffffffffffffffffffffffffffffffffffffffffffffffffffffffffffffff82141561410957614108614114565b5b600182019050919050565b7f4e487b7100000000000000000000000000000000000000000000000000000000600052601160045260246000fd5b7f4e487b7100000000000000000000000000000000000000000000000000000000600052601260045260246000fd5b7f4f776e61626c653a206e6577206f776e657220697320746865207a65726f206160008201527f6464726573730000000000000000000000000000000000000000000000000000602082015250565b7f4f776e61626c653a2063616c6c6572206973206e6f7420746865206f776e6572600082015250565b6141f38161404f565b81146141fe57600080fd5b50565b61420a81614061565b811461421557600080fd5b50565b6142218161406d565b811461422c57600080fd5b50565b61423881614097565b811461424357600080fd5b5056fea26469706673582212204da6a8e478880afa9a8227b7f7c8b3f151db21552d58aa39281da8405820688f64736f6c63430008040033",
  "linkReferences": {},
  "deployedLinkReferences": {}
}