{
  "_format": "hh-sol-artifact-1",
  "contractName": "FxVaults",
  "sourceName": "contracts/Vaults/FxVaults.sol",
  "abi": [
    {
      "inputs": [
        {
          "internalType": "address[]",
          "name": "_collateralWhitelist",
          "type": "address[]"
        },
        {
          "internalType": "address",
          "name": "_oracle",
          "type": "address"
        },
        {
          "internalType": "uint256",
          "name": "_debtTokenIndex",
          "type": "uint256"
        }
      ],
      "stateMutability": "nonpayable",
      "type": "constructor"
    },
    {
      "inputs": [],
      "name": "DYNAMIC_DEBT_MULTIPLIER",
      "outputs": [
        {
          "internalType": "uint256",
          "name": "",
          "type": "uint256"
        }
      ],
      "stateMutability": "view",
      "type": "function"
    },
    {
      "inputs": [
        {
          "internalType": "uint256",
          "name": "",
          "type": "uint256"
        }
      ],
      "name": "Vaults",
      "outputs": [
        {
          "internalType": "address",
          "name": "Owner",
          "type": "address"
        },
        {
          "internalType": "uint256",
          "name": "CollateralIndex",
          "type": "uint256"
        },
        {
          "internalType": "uint256",
          "name": "Collateral",
          "type": "uint256"
        },
        {
          "internalType": "uint256",
          "name": "Debt",
          "type": "uint256"
        },
        {
          "internalType": "uint256",
          "name": "ID",
          "type": "uint256"
        }
      ],
      "stateMutability": "view",
      "type": "function"
    },
    {
      "inputs": [
        {
          "internalType": "address",
          "name": "_collateral",
          "type": "address"
        }
      ],
      "name": "addCollateralOption",
      "outputs": [],
      "stateMutability": "nonpayable",
      "type": "function"
    },
    {
      "inputs": [
        {
          "internalType": "uint256",
          "name": "_vaultID",
          "type": "uint256"
        },
        {
          "internalType": "uint256",
          "name": "_amount",
          "type": "uint256"
        }
      ],
      "name": "borrow",
      "outputs": [],
      "stateMutability": "nonpayable",
      "type": "function"
    },
    {
      "inputs": [
        {
          "internalType": "uint256",
          "name": "_vaultID",
          "type": "uint256"
        }
      ],
      "name": "closeVault",
      "outputs": [],
      "stateMutability": "nonpayable",
      "type": "function"
    },
    {
      "inputs": [
        {
          "internalType": "uint256",
          "name": "",
          "type": "uint256"
        }
      ],
      "name": "collateralWhitelist",
      "outputs": [
        {
          "internalType": "address",
          "name": "",
          "type": "address"
        }
      ],
      "stateMutability": "view",
      "type": "function"
    },
    {
      "inputs": [
        {
          "internalType": "uint256",
          "name": "_index",
          "type": "uint256"
        }
      ],
      "name": "getVault",
      "outputs": [
        {
          "internalType": "address",
          "name": "vaultOwner",
          "type": "address"
        },
        {
          "internalType": "uint256",
          "name": "collateralIndex",
          "type": "uint256"
        },
        {
          "internalType": "uint256",
          "name": "collateral",
          "type": "uint256"
        },
        {
          "internalType": "uint256",
          "name": "debt",
          "type": "uint256"
        },
        {
          "internalType": "uint256",
          "name": "id",
          "type": "uint256"
        }
      ],
      "stateMutability": "view",
      "type": "function"
    },
    {
      "inputs": [
        {
          "internalType": "uint256",
          "name": "",
          "type": "uint256"
        }
      ],
      "name": "isClosed",
      "outputs": [
        {
          "internalType": "bool",
          "name": "",
          "type": "bool"
        }
      ],
      "stateMutability": "view",
      "type": "function"
    },
    {
      "inputs": [
        {
          "internalType": "uint256",
          "name": "_vaultID",
          "type": "uint256"
        }
      ],
      "name": "liquidate",
      "outputs": [],
      "stateMutability": "nonpayable",
      "type": "function"
    },
    {
      "inputs": [
        {
          "internalType": "uint256",
          "name": "_collateralIndex",
          "type": "uint256"
        }
      ],
      "name": "openVault",
      "outputs": [
        {
          "internalType": "uint256",
          "name": "",
          "type": "uint256"
        }
      ],
      "stateMutability": "nonpayable",
      "type": "function"
    },
    {
      "inputs": [],
      "name": "owner",
      "outputs": [
        {
          "internalType": "address",
          "name": "",
          "type": "address"
        }
      ],
      "stateMutability": "view",
      "type": "function"
    },
    {
      "inputs": [
        {
          "internalType": "uint256",
          "name": "_vaultID",
          "type": "uint256"
        },
        {
          "internalType": "uint256",
          "name": "_amount",
          "type": "uint256"
        }
      ],
      "name": "repay",
      "outputs": [],
      "stateMutability": "nonpayable",
      "type": "function"
    },
    {
      "inputs": [
        {
          "internalType": "address",
          "name": "_perpStatic",
          "type": "address"
        },
        {
          "internalType": "address",
          "name": "_perpDynamic",
          "type": "address"
        },
        {
          "internalType": "address",
          "name": "_OrderBook",
          "type": "address"
        }
      ],
      "name": "setState",
      "outputs": [],
      "stateMutability": "nonpayable",
      "type": "function"
    },
    {
      "inputs": [
        {
          "internalType": "uint256",
          "name": "_vaultID",
          "type": "uint256"
        },
        {
          "internalType": "uint256",
          "name": "_amount",
          "type": "uint256"
        }
      ],
      "name": "supply",
      "outputs": [],
      "stateMutability": "nonpayable",
      "type": "function"
    },
    {
      "inputs": [
        {
          "internalType": "uint256",
          "name": "_fundingRate",
          "type": "uint256"
        }
      ],
      "name": "updateDynamicMultiplier",
      "outputs": [],
      "stateMutability": "nonpayable",
      "type": "function"
    },
    {
      "inputs": [
        {
          "internalType": "uint256",
          "name": "_vaultID",
          "type": "uint256"
        },
        {
          "internalType": "uint256",
          "name": "_amount",
          "type": "uint256"
        }
      ],
      "name": "withdraw",
      "outputs": [],
      "stateMutability": "nonpayable",
      "type": "function"
    },
    {
      "stateMutability": "payable",
      "type": "receive"
    }
  ],
  "bytecode": "0x60806040523480156200001157600080fd5b50604051620023ea380380620023ea83398181016040528101906200003791906200028d565b81600960006101000a81548173ffffffffffffffffffffffffffffffffffffffff021916908373ffffffffffffffffffffffffffffffffffffffff160217905550806001819055508260059080519060200190620000979291906200010f565b50670de0b6b3a7640000600281905550670de0b6b3a7640000600481905550670c7d713b49da000060038190555033600660006101000a81548173ffffffffffffffffffffffffffffffffffffffff021916908373ffffffffffffffffffffffffffffffffffffffff1602179055505050506200043c565b8280548282559060005260206000209081019282156200018b579160200282015b828111156200018a5782518260006101000a81548173ffffffffffffffffffffffffffffffffffffffff021916908373ffffffffffffffffffffffffffffffffffffffff1602179055509160200191906001019062000130565b5b5090506200019a91906200019e565b5090565b5b80821115620001b95760008160009055506001016200019f565b5090565b6000620001d4620001ce8462000325565b620002fc565b90508083825260208201905082856020860282011115620001f457600080fd5b60005b858110156200022857816200020d888262000232565b845260208401935060208301925050600181019050620001f7565b5050509392505050565b600081519050620002438162000408565b92915050565b600082601f8301126200025b57600080fd5b81516200026d848260208601620001bd565b91505092915050565b600081519050620002878162000422565b92915050565b600080600060608486031215620002a357600080fd5b600084015167ffffffffffffffff811115620002be57600080fd5b620002cc8682870162000249565b9350506020620002df8682870162000232565b9250506040620002f28682870162000276565b9150509250925092565b6000620003086200031b565b905062000316828262000392565b919050565b6000604051905090565b600067ffffffffffffffff821115620003435762000342620003c8565b5b602082029050602081019050919050565b6000620003618262000368565b9050919050565b600073ffffffffffffffffffffffffffffffffffffffff82169050919050565b6000819050919050565b6200039d82620003f7565b810181811067ffffffffffffffff82111715620003bf57620003be620003c8565b5b80604052505050565b7f4e487b7100000000000000000000000000000000000000000000000000000000600052604160045260246000fd5b6000601f19601f8301169050919050565b620004138162000354565b81146200041f57600080fd5b50565b6200042d8162000388565b81146200043957600080fd5b50565b611f9e806200044c6000396000f3fe6080604052600436106100f75760003560e01c80638f9bf8331161008a578063d9d75db411610059578063d9d75db414610349578063daecfa6c14610372578063f987714f1461039b578063fcd96b02146103c6576100fe565b80638f9bf833146102795780639403b634146102a2578063d5c78a28146102e3578063d8aed14514610320576100fe565b8063441a3e70116100c6578063441a3e70146101bb5780635aca8415146101e45780636feba3ca146102255780638da5cb5b1461024e576100fe565b806304a2ce7e146101035780630ecbcdab14610140578063360c328814610169578063415f124014610192576100fe565b366100fe57005b600080fd5b34801561010f57600080fd5b5061012a60048036038101906101259190611b60565b610403565b6040516101379190611d04565b60405180910390f35b34801561014c57600080fd5b5061016760048036038101906101629190611bb2565b61050a565b005b34801561017557600080fd5b50610190600480360381019061018b9190611b60565b61079b565b005b34801561019e57600080fd5b506101b960048036038101906101b49190611b60565b6108e8565b005b3480156101c757600080fd5b506101e260048036038101906101dd9190611bb2565b610933565b005b3480156101f057600080fd5b5061020b60048036038101906102069190611b60565b610c42565b60405161021c959493929190611c96565b60405180910390f35b34801561023157600080fd5b5061024c60048036038101906102479190611abf565b610ca8565b005b34801561025a57600080fd5b50610263610d68565b6040516102709190611c1b565b60405180910390f35b34801561028557600080fd5b506102a0600480360381019061029b9190611b60565b610d8e565b005b3480156102ae57600080fd5b506102c960048036038101906102c49190611b60565b610eaf565b6040516102da959493929190611c96565b60405180910390f35b3480156102ef57600080fd5b5061030a60048036038101906103059190611b60565b610fb8565b6040516103179190611ce9565b60405180910390f35b34801561032c57600080fd5b5061034760048036038101906103429190611bb2565b610fd8565b005b34801561035557600080fd5b50610370600480360381019061036b9190611ae8565b611115565b005b34801561037e57600080fd5b5061039960048036038101906103949190611bb2565b611212565b005b3480156103a757600080fd5b506103b06113b5565b6040516103bd9190611d04565b60405180910390f35b3480156103d257600080fd5b506103ed60048036038101906103e89190611b60565b6113bb565b6040516103fa9190611c1b565b60405180910390f35b6000806040518060a001604052803373ffffffffffffffffffffffffffffffffffffffff16815260200184815260200160008152602001600081526020016000548152509050600b81908060018154018082558091505060019003906000526020600020906005020160009091909190915060008201518160000160006101000a81548173ffffffffffffffffffffffffffffffffffffffff021916908373ffffffffffffffffffffffffffffffffffffffff1602179055506020820151816001015560408201518160020155606082015181600301556080820151816004015550506000808154809291906104f890611e7c565b91905055508060800151915050919050565b816000600b8281548110610547577f4e487b7100000000000000000000000000000000000000000000000000000000600052603260045260246000fd5b90600052602060002090600502016040518060a00160405290816000820160009054906101000a900473ffffffffffffffffffffffffffffffffffffffff1673ffffffffffffffffffffffffffffffffffffffff1673ffffffffffffffffffffffffffffffffffffffff1681526020016001820154815260200160028201548152602001600382015481526020016004820154815250509050806000015173ffffffffffffffffffffffffffffffffffffffff163373ffffffffffffffffffffffffffffffffffffffff161461061c57600080fd5b83600c600082815260200190815260200160002060009054906101000a900460ff161561064857600080fd5b6000600b8681548110610684577f4e487b7100000000000000000000000000000000000000000000000000000000600052603260045260246000fd5b9060005260206000209060050201905060006106b86001546106b38885600301546113fa90919063ffffffff16565b611410565b905060006106ce83600101548460020154611410565b90506106da8282611500565b6106e357600080fd5b6106fa8784600301546113fa90919063ffffffff16565b8360030181905550600a60009054906101000a900473ffffffffffffffffffffffffffffffffffffffff1673ffffffffffffffffffffffffffffffffffffffff166340c10f1933896040518363ffffffff1660e01b815260040161075f929190611c6d565b600060405180830381600087803b15801561077957600080fd5b505af115801561078d573d6000803e3d6000fd5b505050505050505050505050565b806000600b82815481106107d8577f4e487b7100000000000000000000000000000000000000000000000000000000600052603260045260246000fd5b90600052602060002090600502016040518060a00160405290816000820160009054906101000a900473ffffffffffffffffffffffffffffffffffffffff1673ffffffffffffffffffffffffffffffffffffffff1673ffffffffffffffffffffffffffffffffffffffff1681526020016001820154815260200160028201548152602001600382015481526020016004820154815250509050806000015173ffffffffffffffffffffffffffffffffffffffff163373ffffffffffffffffffffffffffffffffffffffff16146108ad57600080fd5b82600c600082815260200190815260200160002060009054906101000a900460ff16156108d957600080fd5b6108e284611562565b50505050565b80600c600082815260200190815260200160002060009054906101000a900460ff161561091457600080fd5b61091d826118be565b61092657600080fd5b61092f82611562565b5050565b816000600b8281548110610970577f4e487b7100000000000000000000000000000000000000000000000000000000600052603260045260246000fd5b90600052602060002090600502016040518060a00160405290816000820160009054906101000a900473ffffffffffffffffffffffffffffffffffffffff1673ffffffffffffffffffffffffffffffffffffffff1673ffffffffffffffffffffffffffffffffffffffff1681526020016001820154815260200160028201548152602001600382015481526020016004820154815250509050806000015173ffffffffffffffffffffffffffffffffffffffff163373ffffffffffffffffffffffffffffffffffffffff1614610a4557600080fd5b83600c600082815260200190815260200160002060009054906101000a900460ff1615610a7157600080fd5b6000600b8681548110610aad577f4e487b7100000000000000000000000000000000000000000000000000000000600052603260045260246000fd5b906000526020600020906005020190508481600201541015610ace57600080fd5b6000610ae06001548360030154611410565b90506000610b088360010154610b03898660020154611a2990919063ffffffff16565b611410565b9050610b148282611500565b610b1d57600080fd5b610b34878460020154611a2990919063ffffffff16565b836002018190555060006005846001015481548110610b7c577f4e487b7100000000000000000000000000000000000000000000000000000000600052603260045260246000fd5b9060005260206000200160009054906101000a900473ffffffffffffffffffffffffffffffffffffffff1690508073ffffffffffffffffffffffffffffffffffffffff1663a9059cbb338a6040518363ffffffff1660e01b8152600401610be4929190611c6d565b602060405180830381600087803b158015610bfe57600080fd5b505af1158015610c12573d6000803e3d6000fd5b505050506040513d601f19601f82011682018060405250810190610c369190611b37565b50505050505050505050565b600b8181548110610c5257600080fd5b90600052602060002090600502016000915090508060000160009054906101000a900473ffffffffffffffffffffffffffffffffffffffff16908060010154908060020154908060030154908060040154905085565b600660009054906101000a900473ffffffffffffffffffffffffffffffffffffffff1673ffffffffffffffffffffffffffffffffffffffff163373ffffffffffffffffffffffffffffffffffffffff1614610d0257600080fd5b6005819080600181540180825580915050600190039060005260206000200160009091909190916101000a81548173ffffffffffffffffffffffffffffffffffffffff021916908373ffffffffffffffffffffffffffffffffffffffff16021790555050565b600660009054906101000a900473ffffffffffffffffffffffffffffffffffffffff1681565b600760009054906101000a900473ffffffffffffffffffffffffffffffffffffffff1673ffffffffffffffffffffffffffffffffffffffff163373ffffffffffffffffffffffffffffffffffffffff1614610de857600080fd5b6000610dff82600454611a3f90919063ffffffff16565b9050610e1660025482611a5590919063ffffffff16565b600481905550600860009054906101000a900473ffffffffffffffffffffffffffffffffffffffff1673ffffffffffffffffffffffffffffffffffffffff16638f9bf8336004546040518263ffffffff1660e01b8152600401610e799190611d04565b600060405180830381600087803b158015610e9357600080fd5b505af1158015610ea7573d6000803e3d6000fd5b505050505050565b600080600080600080600b8781548110610ef2577f4e487b7100000000000000000000000000000000000000000000000000000000600052603260045260246000fd5b90600052602060002090600502016040518060a00160405290816000820160009054906101000a900473ffffffffffffffffffffffffffffffffffffffff1673ffffffffffffffffffffffffffffffffffffffff1673ffffffffffffffffffffffffffffffffffffffff168152602001600182015481526020016002820154815260200160038201548152602001600482015481525050905080600001518160200151826040015183606001518460800151955095509550955095505091939590929450565b600c6020528060005260406000206000915054906101000a900460ff1681565b81600c600082815260200190815260200160002060009054906101000a900460ff161561100457600080fd5b6000600b8481548110611040577f4e487b7100000000000000000000000000000000000000000000000000000000600052603260045260246000fd5b90600052602060002090600502019050828160030154101561106157600080fd5b611078838260030154611a2990919063ffffffff16565b8160030181905550600a60009054906101000a900473ffffffffffffffffffffffffffffffffffffffff1673ffffffffffffffffffffffffffffffffffffffff16639dc29fac33856040518363ffffffff1660e01b81526004016110dd929190611c6d565b600060405180830381600087803b1580156110f757600080fd5b505af115801561110b573d6000803e3d6000fd5b5050505050505050565b600760149054906101000a900460ff161561112f57600080fd5b82600a60006101000a81548173ffffffffffffffffffffffffffffffffffffffff021916908373ffffffffffffffffffffffffffffffffffffffff16021790555081600860006101000a81548173ffffffffffffffffffffffffffffffffffffffff021916908373ffffffffffffffffffffffffffffffffffffffff16021790555080600760006101000a81548173ffffffffffffffffffffffffffffffffffffffff021916908373ffffffffffffffffffffffffffffffffffffffff1602179055506001600760146101000a81548160ff021916908315150217905550505050565b81600c600082815260200190815260200160002060009054906101000a900460ff161561123e57600080fd5b6000600b848154811061127a577f4e487b7100000000000000000000000000000000000000000000000000000000600052603260045260246000fd5b90600052602060002090600502019050600060058260010154815481106112ca577f4e487b7100000000000000000000000000000000000000000000000000000000600052603260045260246000fd5b9060005260206000200160009054906101000a900473ffffffffffffffffffffffffffffffffffffffff1690508073ffffffffffffffffffffffffffffffffffffffff166323b872dd3330876040518463ffffffff1660e01b815260040161133493929190611c36565b602060405180830381600087803b15801561134e57600080fd5b505af1158015611362573d6000803e3d6000fd5b505050506040513d601f19601f820116820180604052508101906113869190611b37565b61138f57600080fd5b6113a68483600201546113fa90919063ffffffff16565b82600201819055505050505050565b60045481565b600581815481106113cb57600080fd5b906000526020600020016000915054906101000a900473ffffffffffffffffffffffffffffffffffffffff1681565b600081836114089190611d1f565b905092915050565b600080600960009054906101000a900473ffffffffffffffffffffffffffffffffffffffff1673ffffffffffffffffffffffffffffffffffffffff1663e7572230856040518263ffffffff1660e01b815260040161146e9190611d04565b60206040518083038186803b15801561148657600080fd5b505afa15801561149a573d6000803e3d6000fd5b505050506040513d601f19601f820116820180604052508101906114be9190611b89565b9050600081146114f4576114ef6002546114e18584611a3f90919063ffffffff16565b611a5590919063ffffffff16565b6114f7565b60005b91505092915050565b60008061152c60025461151e60045487611a3f90919063ffffffff16565b611a5590919063ffffffff16565b90506003546115588461154a60025485611a3f90919063ffffffff16565b611a5590919063ffffffff16565b1091505092915050565b6000600b828154811061159e577f4e487b7100000000000000000000000000000000000000000000000000000000600052603260045260246000fd5b90600052602060002090600502019050600060058260010154815481106115ee577f4e487b7100000000000000000000000000000000000000000000000000000000600052603260045260246000fd5b9060005260206000200160009054906101000a900473ffffffffffffffffffffffffffffffffffffffff1690508160030154600a60009054906101000a900473ffffffffffffffffffffffffffffffffffffffff1673ffffffffffffffffffffffffffffffffffffffff166370a08231336040518263ffffffff1660e01b815260040161167b9190611c1b565b60206040518083038186803b15801561169357600080fd5b505afa1580156116a7573d6000803e3d6000fd5b505050506040513d601f19601f820116820180604052508101906116cb9190611b89565b10156116d657600080fd5b600a60009054906101000a900473ffffffffffffffffffffffffffffffffffffffff1673ffffffffffffffffffffffffffffffffffffffff16639dc29fac3384600301546040518363ffffffff1660e01b8152600401611737929190611c6d565b600060405180830381600087803b15801561175157600080fd5b505af1158015611765573d6000803e3d6000fd5b505050508073ffffffffffffffffffffffffffffffffffffffff1663a9059cbb3384600201546040518363ffffffff1660e01b81526004016117a8929190611c6d565b602060405180830381600087803b1580156117c257600080fd5b505af11580156117d6573d6000803e3d6000fd5b505050506040513d601f19601f820116820180604052508101906117fa9190611b37565b50600b8381548110611835577f4e487b7100000000000000000000000000000000000000000000000000000000600052603260045260246000fd5b9060005260206000209060050201600080820160006101000a81549073ffffffffffffffffffffffffffffffffffffffff0219169055600182016000905560028201600090556003820160009055600482016000905550506001600c600085815260200190815260200160002060006101000a81548160ff021916908315150217905550505050565b600080600b83815481106118fb577f4e487b7100000000000000000000000000000000000000000000000000000000600052603260045260246000fd5b90600052602060002090600502016040518060a00160405290816000820160009054906101000a900473ffffffffffffffffffffffffffffffffffffffff1673ffffffffffffffffffffffffffffffffffffffff1673ffffffffffffffffffffffffffffffffffffffff168152602001600182015481526020016002820154815260200160038201548152602001600482015481525050905060006119ce6001546119c96002546119bb6004548760600151611a3f90919063ffffffff16565b611a5590919063ffffffff16565b611410565b905060006119e483602001518460400151611410565b9050600354611a1082611a0260025486611a3f90919063ffffffff16565b611a5590919063ffffffff16565b10158015611a1f575060008214155b9350505050919050565b60008183611a379190611e00565b905092915050565b60008183611a4d9190611da6565b905092915050565b60008183611a639190611d75565b905092915050565b600081359050611a7a81611f23565b92915050565b600081519050611a8f81611f3a565b92915050565b600081359050611aa481611f51565b92915050565b600081519050611ab981611f51565b92915050565b600060208284031215611ad157600080fd5b6000611adf84828501611a6b565b91505092915050565b600080600060608486031215611afd57600080fd5b6000611b0b86828701611a6b565b9350506020611b1c86828701611a6b565b9250506040611b2d86828701611a6b565b9150509250925092565b600060208284031215611b4957600080fd5b6000611b5784828501611a80565b91505092915050565b600060208284031215611b7257600080fd5b6000611b8084828501611a95565b91505092915050565b600060208284031215611b9b57600080fd5b6000611ba984828501611aaa565b91505092915050565b60008060408385031215611bc557600080fd5b6000611bd385828601611a95565b9250506020611be485828601611a95565b9150509250929050565b611bf781611e34565b82525050565b611c0681611e46565b82525050565b611c1581611e72565b82525050565b6000602082019050611c306000830184611bee565b92915050565b6000606082019050611c4b6000830186611bee565b611c586020830185611bee565b611c656040830184611c0c565b949350505050565b6000604082019050611c826000830185611bee565b611c8f6020830184611c0c565b9392505050565b600060a082019050611cab6000830188611bee565b611cb86020830187611c0c565b611cc56040830186611c0c565b611cd26060830185611c0c565b611cdf6080830184611c0c565b9695505050505050565b6000602082019050611cfe6000830184611bfd565b92915050565b6000602082019050611d196000830184611c0c565b92915050565b6000611d2a82611e72565b9150611d3583611e72565b9250827fffffffffffffffffffffffffffffffffffffffffffffffffffffffffffffffff03821115611d6a57611d69611ec5565b5b828201905092915050565b6000611d8082611e72565b9150611d8b83611e72565b925082611d9b57611d9a611ef4565b5b828204905092915050565b6000611db182611e72565b9150611dbc83611e72565b9250817fffffffffffffffffffffffffffffffffffffffffffffffffffffffffffffffff0483118215151615611df557611df4611ec5565b5b828202905092915050565b6000611e0b82611e72565b9150611e1683611e72565b925082821015611e2957611e28611ec5565b5b828203905092915050565b6000611e3f82611e52565b9050919050565b60008115159050919050565b600073ffffffffffffffffffffffffffffffffffffffff82169050919050565b6000819050919050565b6000611e8782611e72565b91507fffffffffffffffffffffffffffffffffffffffffffffffffffffffffffffffff821415611eba57611eb9611ec5565b5b600182019050919050565b7f4e487b7100000000000000000000000000000000000000000000000000000000600052601160045260246000fd5b7f4e487b7100000000000000000000000000000000000000000000000000000000600052601260045260246000fd5b611f2c81611e34565b8114611f3757600080fd5b50565b611f4381611e46565b8114611f4e57600080fd5b50565b611f5a81611e72565b8114611f6557600080fd5b5056fea26469706673582212206a3620f10bb74290827752bc796976b0a4418336e9b160100dc02a5b0b2075c264736f6c63430008040033",
  "linkReferences": {},
  "deployedLinkReferences": {}
}