{
  "_format": "hh-sol-artifact-1",
  "contractName": "FxVaults",
  "sourceName": "contracts/Vaults/FxVaults.sol",
  "abi": [
    {
      "anonymous": false,
      "inputs": [
        {
          "indexed": false,
          "internalType": "uint8",
          "name": "version",
          "type": "uint8"
        }
      ],
      "name": "Initialized",
      "type": "event"
    },
    {
      "inputs": [],
      "name": "DYNAMIC_DEBT_MULTIPLIER",
      "outputs": [
        {
          "internalType": "uint256",
          "name": "",
          "type": "uint256"
        }
      ],
      "stateMutability": "view",
      "type": "function"
    },
    {
      "inputs": [
        {
          "internalType": "uint256",
          "name": "",
          "type": "uint256"
        }
      ],
      "name": "Vaults",
      "outputs": [
        {
          "internalType": "address",
          "name": "Owner",
          "type": "address"
        },
        {
          "internalType": "uint256",
          "name": "CollateralIndex",
          "type": "uint256"
        },
        {
          "internalType": "uint256",
          "name": "Collateral",
          "type": "uint256"
        },
        {
          "internalType": "uint256",
          "name": "Debt",
          "type": "uint256"
        },
        {
          "internalType": "uint256",
          "name": "ID",
          "type": "uint256"
        }
      ],
      "stateMutability": "view",
      "type": "function"
    },
    {
      "inputs": [
        {
          "internalType": "address",
          "name": "_collateral",
          "type": "address"
        },
        {
          "internalType": "bytes32",
          "name": "_priceFeedKey",
          "type": "bytes32"
        }
      ],
      "name": "addCollateralOption",
      "outputs": [],
      "stateMutability": "nonpayable",
      "type": "function"
    },
    {
      "inputs": [
        {
          "internalType": "uint256",
          "name": "_vaultID",
          "type": "uint256"
        },
        {
          "internalType": "uint256",
          "name": "_amount",
          "type": "uint256"
        }
      ],
      "name": "borrow",
      "outputs": [],
      "stateMutability": "nonpayable",
      "type": "function"
    },
    {
      "inputs": [
        {
          "internalType": "uint256",
          "name": "_vaultID",
          "type": "uint256"
        }
      ],
      "name": "closeVault",
      "outputs": [],
      "stateMutability": "nonpayable",
      "type": "function"
    },
    {
      "inputs": [
        {
          "internalType": "uint256",
          "name": "",
          "type": "uint256"
        }
      ],
      "name": "collateralWhitelist",
      "outputs": [
        {
          "internalType": "address",
          "name": "",
          "type": "address"
        }
      ],
      "stateMutability": "view",
      "type": "function"
    },
    {
      "inputs": [
        {
          "internalType": "uint256",
          "name": "_index",
          "type": "uint256"
        }
      ],
      "name": "getVault",
      "outputs": [
        {
          "internalType": "address",
          "name": "vaultOwner",
          "type": "address"
        },
        {
          "internalType": "uint256",
          "name": "collateralIndex",
          "type": "uint256"
        },
        {
          "internalType": "uint256",
          "name": "collateral",
          "type": "uint256"
        },
        {
          "internalType": "uint256",
          "name": "debt",
          "type": "uint256"
        },
        {
          "internalType": "uint256",
          "name": "id",
          "type": "uint256"
        }
      ],
      "stateMutability": "view",
      "type": "function"
    },
    {
      "inputs": [
        {
          "internalType": "address[]",
          "name": "_collateralWhitelist",
          "type": "address[]"
        },
        {
          "internalType": "address",
          "name": "_oracle",
          "type": "address"
        },
        {
          "internalType": "uint256",
          "name": "_debtTokenIndex",
          "type": "uint256"
        }
      ],
      "name": "initialize",
      "outputs": [],
      "stateMutability": "nonpayable",
      "type": "function"
    },
    {
      "inputs": [
        {
          "internalType": "uint256",
          "name": "",
          "type": "uint256"
        }
      ],
      "name": "isClosed",
      "outputs": [
        {
          "internalType": "bool",
          "name": "",
          "type": "bool"
        }
      ],
      "stateMutability": "view",
      "type": "function"
    },
    {
      "inputs": [
        {
          "internalType": "uint256",
          "name": "_vaultID",
          "type": "uint256"
        }
      ],
      "name": "liquidate",
      "outputs": [],
      "stateMutability": "nonpayable",
      "type": "function"
    },
    {
      "inputs": [
        {
          "internalType": "uint256",
          "name": "_collateralIndex",
          "type": "uint256"
        }
      ],
      "name": "openVault",
      "outputs": [
        {
          "internalType": "uint256",
          "name": "",
          "type": "uint256"
        }
      ],
      "stateMutability": "nonpayable",
      "type": "function"
    },
    {
      "inputs": [],
      "name": "owner",
      "outputs": [
        {
          "internalType": "address",
          "name": "",
          "type": "address"
        }
      ],
      "stateMutability": "view",
      "type": "function"
    },
    {
      "inputs": [
        {
          "internalType": "uint256",
          "name": "",
          "type": "uint256"
        }
      ],
      "name": "priceFeedKeys",
      "outputs": [
        {
          "internalType": "bytes32",
          "name": "",
          "type": "bytes32"
        }
      ],
      "stateMutability": "view",
      "type": "function"
    },
    {
      "inputs": [
        {
          "internalType": "uint256",
          "name": "_vaultID",
          "type": "uint256"
        },
        {
          "internalType": "uint256",
          "name": "_amount",
          "type": "uint256"
        }
      ],
      "name": "repay",
      "outputs": [],
      "stateMutability": "nonpayable",
      "type": "function"
    },
    {
      "inputs": [
        {
          "internalType": "address",
          "name": "_perpStatic",
          "type": "address"
        },
        {
          "internalType": "address",
          "name": "_perpDynamic",
          "type": "address"
        },
        {
          "internalType": "address",
          "name": "_OrderBook",
          "type": "address"
        }
      ],
      "name": "setState",
      "outputs": [],
      "stateMutability": "nonpayable",
      "type": "function"
    },
    {
      "inputs": [
        {
          "internalType": "uint256",
          "name": "_vaultID",
          "type": "uint256"
        },
        {
          "internalType": "uint256",
          "name": "_amount",
          "type": "uint256"
        }
      ],
      "name": "supply",
      "outputs": [],
      "stateMutability": "nonpayable",
      "type": "function"
    },
    {
      "inputs": [
        {
          "internalType": "uint256",
          "name": "_fundingRate",
          "type": "uint256"
        }
      ],
      "name": "updateDynamicMultiplier",
      "outputs": [],
      "stateMutability": "nonpayable",
      "type": "function"
    },
    {
      "inputs": [
        {
          "internalType": "uint256",
          "name": "_vaultID",
          "type": "uint256"
        },
        {
          "internalType": "uint256",
          "name": "_amount",
          "type": "uint256"
        }
      ],
      "name": "withdraw",
      "outputs": [],
      "stateMutability": "nonpayable",
      "type": "function"
    },
    {
      "stateMutability": "payable",
      "type": "receive"
    }
  ],
  "bytecode": "0x608060405234801561001057600080fd5b50612709806100206000396000f3fe60806040526004361061010d5760003560e01c80638da5cb5b11610095578063d8aed14511610064578063d8aed1451461039c578063d9d75db4146103c5578063daecfa6c146103ee578063f987714f14610417578063fcd96b021461044257610114565b80638da5cb5b146102ca5780638f9bf833146102f55780639403b6341461031e578063d5c78a281461035f57610114565b8063360c3288116100dc578063360c3288146101e5578063415f12401461020e578063441a3e70146102375780635aca8415146102605780638cefbdd4146102a157610114565b806304a2ce7e146101195780630ecbcdab146101565780631301c2101461017f5780632a0ab1dd146101a857610114565b3661011457005b600080fd5b34801561012557600080fd5b50610140600480360381019061013b91906120d2565b61047f565b60405161014d919061230d565b60405180910390f35b34801561016257600080fd5b5061017d60048036038101906101789190612124565b610599565b005b34801561018b57600080fd5b506101a660048036038101906101a19190612006565b61082a565b005b3480156101b457600080fd5b506101cf60048036038101906101ca91906120d2565b61092a565b6040516101dc91906122b7565b60405180910390f35b3480156101f157600080fd5b5061020c600480360381019061020791906120d2565b61094e565b005b34801561021a57600080fd5b50610235600480360381019061023091906120d2565b610a9b565b005b34801561024357600080fd5b5061025e60048036038101906102599190612124565b610ae6565b005b34801561026c57600080fd5b50610287600480360381019061028291906120d2565b610df5565b604051610298959493929190612249565b60405180910390f35b3480156102ad57600080fd5b506102c860048036038101906102c39190612042565b610e5b565b005b3480156102d657600080fd5b506102df610fb7565b6040516102ec91906121ce565b60405180910390f35b34801561030157600080fd5b5061031c600480360381019061031791906120d2565b610fdd565b005b34801561032a57600080fd5b50610345600480360381019061034091906120d2565b6110fe565b604051610356959493929190612249565b60405180910390f35b34801561036b57600080fd5b50610386600480360381019061038191906120d2565b611207565b604051610393919061229c565b60405180910390f35b3480156103a857600080fd5b506103c360048036038101906103be9190612124565b611227565b005b3480156103d157600080fd5b506103ec60048036038101906103e79190611fb7565b611364565b005b3480156103fa57600080fd5b5061041560048036038101906104109190612124565b611461565b005b34801561042357600080fd5b5061042c611604565b604051610439919061230d565b60405180910390f35b34801561044e57600080fd5b50610469600480360381019061046491906120d2565b61160a565b60405161047691906121ce565b60405180910390f35b6000600680549050821061049257600080fd5b60006040518060a001604052803373ffffffffffffffffffffffffffffffffffffffff16815260200184815260200160008152602001600081526020016001548152509050600d81908060018154018082558091505060019003906000526020600020906005020160009091909190915060008201518160000160006101000a81548173ffffffffffffffffffffffffffffffffffffffff021916908373ffffffffffffffffffffffffffffffffffffffff1602179055506020820151816001015560408201518160020155606082015181600301556080820151816004015550506001600081548092919061058790612541565b91905055508060800151915050919050565b816000600d82815481106105d6577f4e487b7100000000000000000000000000000000000000000000000000000000600052603260045260246000fd5b90600052602060002090600502016040518060a00160405290816000820160009054906101000a900473ffffffffffffffffffffffffffffffffffffffff1673ffffffffffffffffffffffffffffffffffffffff1673ffffffffffffffffffffffffffffffffffffffff1681526020016001820154815260200160028201548152602001600382015481526020016004820154815250509050806000015173ffffffffffffffffffffffffffffffffffffffff163373ffffffffffffffffffffffffffffffffffffffff16146106ab57600080fd5b83600e600082815260200190815260200160002060009054906101000a900460ff16156106d757600080fd5b6000600d8681548110610713577f4e487b7100000000000000000000000000000000000000000000000000000000600052603260045260246000fd5b90600052602060002090600502019050600061074760025461074288856003015461164990919063ffffffff16565b61165f565b9050600061075d8360010154846002015461165f565b90506107698282611793565b61077257600080fd5b61078987846003015461164990919063ffffffff16565b8360030181905550600c60009054906101000a900473ffffffffffffffffffffffffffffffffffffffff1673ffffffffffffffffffffffffffffffffffffffff166340c10f1933896040518363ffffffff1660e01b81526004016107ee929190612220565b600060405180830381600087803b15801561080857600080fd5b505af115801561081c573d6000803e3d6000fd5b505050505050505050505050565b600860009054906101000a900473ffffffffffffffffffffffffffffffffffffffff1673ffffffffffffffffffffffffffffffffffffffff163373ffffffffffffffffffffffffffffffffffffffff161461088457600080fd5b6007805490506006805490501461089a57600080fd5b6006829080600181540180825580915050600190039060005260206000200160009091909190916101000a81548173ffffffffffffffffffffffffffffffffffffffff021916908373ffffffffffffffffffffffffffffffffffffffff16021790555060078190806001815401808255809150506001900390600052602060002001600090919091909150555050565b6007818154811061093a57600080fd5b906000526020600020016000915090505481565b806000600d828154811061098b577f4e487b7100000000000000000000000000000000000000000000000000000000600052603260045260246000fd5b90600052602060002090600502016040518060a00160405290816000820160009054906101000a900473ffffffffffffffffffffffffffffffffffffffff1673ffffffffffffffffffffffffffffffffffffffff1673ffffffffffffffffffffffffffffffffffffffff1681526020016001820154815260200160028201548152602001600382015481526020016004820154815250509050806000015173ffffffffffffffffffffffffffffffffffffffff163373ffffffffffffffffffffffffffffffffffffffff1614610a6057600080fd5b82600e600082815260200190815260200160002060009054906101000a900460ff1615610a8c57600080fd5b610a95846117f5565b50505050565b80600e600082815260200190815260200160002060009054906101000a900460ff1615610ac757600080fd5b610ad082611b51565b610ad957600080fd5b610ae2826117f5565b5050565b816000600d8281548110610b23577f4e487b7100000000000000000000000000000000000000000000000000000000600052603260045260246000fd5b90600052602060002090600502016040518060a00160405290816000820160009054906101000a900473ffffffffffffffffffffffffffffffffffffffff1673ffffffffffffffffffffffffffffffffffffffff1673ffffffffffffffffffffffffffffffffffffffff1681526020016001820154815260200160028201548152602001600382015481526020016004820154815250509050806000015173ffffffffffffffffffffffffffffffffffffffff163373ffffffffffffffffffffffffffffffffffffffff1614610bf857600080fd5b83600e600082815260200190815260200160002060009054906101000a900460ff1615610c2457600080fd5b6000600d8681548110610c60577f4e487b7100000000000000000000000000000000000000000000000000000000600052603260045260246000fd5b906000526020600020906005020190508481600201541015610c8157600080fd5b6000610c93600254836003015461165f565b90506000610cbb8360010154610cb6898660020154611cbc90919063ffffffff16565b61165f565b9050610cc78282611793565b610cd057600080fd5b610ce7878460020154611cbc90919063ffffffff16565b836002018190555060006006846001015481548110610d2f577f4e487b7100000000000000000000000000000000000000000000000000000000600052603260045260246000fd5b9060005260206000200160009054906101000a900473ffffffffffffffffffffffffffffffffffffffff1690508073ffffffffffffffffffffffffffffffffffffffff1663a9059cbb338a6040518363ffffffff1660e01b8152600401610d97929190612220565b602060405180830381600087803b158015610db157600080fd5b505af1158015610dc5573d6000803e3d6000fd5b505050506040513d601f19601f82011682018060405250810190610de991906120a9565b50505050505050505050565b600d8181548110610e0557600080fd5b90600052602060002090600502016000915090508060000160009054906101000a900473ffffffffffffffffffffffffffffffffffffffff16908060010154908060020154908060030154908060040154905085565b6000610e676001611cd2565b90508015610e8b576001600060016101000a81548160ff0219169083151502179055505b82600b60006101000a81548173ffffffffffffffffffffffffffffffffffffffff021916908373ffffffffffffffffffffffffffffffffffffffff160217905550816002819055508360069080519060200190610ee9929190611e11565b50670de0b6b3a7640000600381905550670de0b6b3a7640000600581905550670c7d713b49da000060048190555033600860006101000a81548173ffffffffffffffffffffffffffffffffffffffff021916908373ffffffffffffffffffffffffffffffffffffffff1602179055508015610fb15760008060016101000a81548160ff0219169083151502179055507f7f26b83ff96e1f2b6a682f133852f6798a09c465da95921460cefb38474024986001604051610fa891906122d2565b60405180910390a15b50505050565b600860009054906101000a900473ffffffffffffffffffffffffffffffffffffffff1681565b600960009054906101000a900473ffffffffffffffffffffffffffffffffffffffff1673ffffffffffffffffffffffffffffffffffffffff163373ffffffffffffffffffffffffffffffffffffffff161461103757600080fd5b600061104e82600554611dc290919063ffffffff16565b905061106560035482611dd890919063ffffffff16565b600581905550600a60009054906101000a900473ffffffffffffffffffffffffffffffffffffffff1673ffffffffffffffffffffffffffffffffffffffff16638f9bf8336005546040518263ffffffff1660e01b81526004016110c8919061230d565b600060405180830381600087803b1580156110e257600080fd5b505af11580156110f6573d6000803e3d6000fd5b505050505050565b600080600080600080600d8781548110611141577f4e487b7100000000000000000000000000000000000000000000000000000000600052603260045260246000fd5b90600052602060002090600502016040518060a00160405290816000820160009054906101000a900473ffffffffffffffffffffffffffffffffffffffff1673ffffffffffffffffffffffffffffffffffffffff1673ffffffffffffffffffffffffffffffffffffffff168152602001600182015481526020016002820154815260200160038201548152602001600482015481525050905080600001518160200151826040015183606001518460800151955095509550955095505091939590929450565b600e6020528060005260406000206000915054906101000a900460ff1681565b81600e600082815260200190815260200160002060009054906101000a900460ff161561125357600080fd5b6000600d848154811061128f577f4e487b7100000000000000000000000000000000000000000000000000000000600052603260045260246000fd5b9060005260206000209060050201905082816003015410156112b057600080fd5b6112c7838260030154611cbc90919063ffffffff16565b8160030181905550600c60009054906101000a900473ffffffffffffffffffffffffffffffffffffffff1673ffffffffffffffffffffffffffffffffffffffff16639dc29fac33856040518363ffffffff1660e01b815260040161132c929190612220565b600060405180830381600087803b15801561134657600080fd5b505af115801561135a573d6000803e3d6000fd5b5050505050505050565b600960149054906101000a900460ff161561137e57600080fd5b82600c60006101000a81548173ffffffffffffffffffffffffffffffffffffffff021916908373ffffffffffffffffffffffffffffffffffffffff16021790555081600a60006101000a81548173ffffffffffffffffffffffffffffffffffffffff021916908373ffffffffffffffffffffffffffffffffffffffff16021790555080600960006101000a81548173ffffffffffffffffffffffffffffffffffffffff021916908373ffffffffffffffffffffffffffffffffffffffff1602179055506001600960146101000a81548160ff021916908315150217905550505050565b81600e600082815260200190815260200160002060009054906101000a900460ff161561148d57600080fd5b6000600d84815481106114c9577f4e487b7100000000000000000000000000000000000000000000000000000000600052603260045260246000fd5b9060005260206000209060050201905060006006826001015481548110611519577f4e487b7100000000000000000000000000000000000000000000000000000000600052603260045260246000fd5b9060005260206000200160009054906101000a900473ffffffffffffffffffffffffffffffffffffffff1690508073ffffffffffffffffffffffffffffffffffffffff166323b872dd3330876040518463ffffffff1660e01b8152600401611583939291906121e9565b602060405180830381600087803b15801561159d57600080fd5b505af11580156115b1573d6000803e3d6000fd5b505050506040513d601f19601f820116820180604052508101906115d591906120a9565b6115de57600080fd5b6115f584836002015461164990919063ffffffff16565b82600201819055505050505050565b60055481565b6006818154811061161a57600080fd5b906000526020600020016000915054906101000a900473ffffffffffffffffffffffffffffffffffffffff1681565b60008183611657919061238a565b905092915050565b600080600b60009054906101000a900473ffffffffffffffffffffffffffffffffffffffff1673ffffffffffffffffffffffffffffffffffffffff166331d98b3f600786815481106116da577f4e487b7100000000000000000000000000000000000000000000000000000000600052603260045260246000fd5b90600052602060002001546040518263ffffffff1660e01b815260040161170191906122b7565b60206040518083038186803b15801561171957600080fd5b505afa15801561172d573d6000803e3d6000fd5b505050506040513d601f19601f8201168201806040525081019061175191906120fb565b905060008114611787576117826003546117748584611dc290919063ffffffff16565b611dd890919063ffffffff16565b61178a565b60005b91505092915050565b6000806117bf6003546117b160055487611dc290919063ffffffff16565b611dd890919063ffffffff16565b90506004546117eb846117dd60035485611dc290919063ffffffff16565b611dd890919063ffffffff16565b1091505092915050565b6000600d8281548110611831577f4e487b7100000000000000000000000000000000000000000000000000000000600052603260045260246000fd5b9060005260206000209060050201905060006006826001015481548110611881577f4e487b7100000000000000000000000000000000000000000000000000000000600052603260045260246000fd5b9060005260206000200160009054906101000a900473ffffffffffffffffffffffffffffffffffffffff1690508160030154600c60009054906101000a900473ffffffffffffffffffffffffffffffffffffffff1673ffffffffffffffffffffffffffffffffffffffff166370a08231336040518263ffffffff1660e01b815260040161190e91906121ce565b60206040518083038186803b15801561192657600080fd5b505afa15801561193a573d6000803e3d6000fd5b505050506040513d601f19601f8201168201806040525081019061195e91906120fb565b101561196957600080fd5b600c60009054906101000a900473ffffffffffffffffffffffffffffffffffffffff1673ffffffffffffffffffffffffffffffffffffffff16639dc29fac3384600301546040518363ffffffff1660e01b81526004016119ca929190612220565b600060405180830381600087803b1580156119e457600080fd5b505af11580156119f8573d6000803e3d6000fd5b505050508073ffffffffffffffffffffffffffffffffffffffff1663a9059cbb3384600201546040518363ffffffff1660e01b8152600401611a3b929190612220565b602060405180830381600087803b158015611a5557600080fd5b505af1158015611a69573d6000803e3d6000fd5b505050506040513d601f19601f82011682018060405250810190611a8d91906120a9565b50600d8381548110611ac8577f4e487b7100000000000000000000000000000000000000000000000000000000600052603260045260246000fd5b9060005260206000209060050201600080820160006101000a81549073ffffffffffffffffffffffffffffffffffffffff0219169055600182016000905560028201600090556003820160009055600482016000905550506001600e600085815260200190815260200160002060006101000a81548160ff021916908315150217905550505050565b600080600d8381548110611b8e577f4e487b7100000000000000000000000000000000000000000000000000000000600052603260045260246000fd5b90600052602060002090600502016040518060a00160405290816000820160009054906101000a900473ffffffffffffffffffffffffffffffffffffffff1673ffffffffffffffffffffffffffffffffffffffff1673ffffffffffffffffffffffffffffffffffffffff16815260200160018201548152602001600282015481526020016003820154815260200160048201548152505090506000611c61600254611c5c600354611c4e6005548760600151611dc290919063ffffffff16565b611dd890919063ffffffff16565b61165f565b90506000611c778360200151846040015161165f565b9050600454611ca382611c9560035486611dc290919063ffffffff16565b611dd890919063ffffffff16565b10158015611cb2575060008214155b9350505050919050565b60008183611cca919061246b565b905092915050565b60008060019054906101000a900460ff1615611d495760018260ff16148015611d015750611cff30611dee565b155b611d40576040517f08c379a0000000000000000000000000000000000000000000000000000000008152600401611d37906122ed565b60405180910390fd5b60009050611dbd565b8160ff1660008054906101000a900460ff1660ff1610611d9e576040517f08c379a0000000000000000000000000000000000000000000000000000000008152600401611d95906122ed565b60405180910390fd5b816000806101000a81548160ff021916908360ff160217905550600190505b919050565b60008183611dd09190612411565b905092915050565b60008183611de691906123e0565b905092915050565b6000808273ffffffffffffffffffffffffffffffffffffffff163b119050919050565b828054828255906000526020600020908101928215611e8a579160200282015b82811115611e895782518260006101000a81548173ffffffffffffffffffffffffffffffffffffffff021916908373ffffffffffffffffffffffffffffffffffffffff16021790555091602001919060010190611e31565b5b509050611e979190611e9b565b5090565b5b80821115611eb4576000816000905550600101611e9c565b5090565b6000611ecb611ec68461234d565b612328565b90508083825260208201905082856020860282011115611eea57600080fd5b60005b85811015611f1a5781611f008882611f24565b845260208401935060208301925050600181019050611eed565b5050509392505050565b600081359050611f3381612677565b92915050565b600082601f830112611f4a57600080fd5b8135611f5a848260208601611eb8565b91505092915050565b600081519050611f728161268e565b92915050565b600081359050611f87816126a5565b92915050565b600081359050611f9c816126bc565b92915050565b600081519050611fb1816126bc565b92915050565b600080600060608486031215611fcc57600080fd5b6000611fda86828701611f24565b9350506020611feb86828701611f24565b9250506040611ffc86828701611f24565b9150509250925092565b6000806040838503121561201957600080fd5b600061202785828601611f24565b925050602061203885828601611f78565b9150509250929050565b60008060006060848603121561205757600080fd5b600084013567ffffffffffffffff81111561207157600080fd5b61207d86828701611f39565b935050602061208e86828701611f24565b925050604061209f86828701611f8d565b9150509250925092565b6000602082840312156120bb57600080fd5b60006120c984828501611f63565b91505092915050565b6000602082840312156120e457600080fd5b60006120f284828501611f8d565b91505092915050565b60006020828403121561210d57600080fd5b600061211b84828501611fa2565b91505092915050565b6000806040838503121561213757600080fd5b600061214585828601611f8d565b925050602061215685828601611f8d565b9150509250929050565b6121698161249f565b82525050565b612178816124b1565b82525050565b612187816124bd565b82525050565b612196816124fe565b82525050565b60006121a9602e83612379565b91506121b482612628565b604082019050919050565b6121c8816124e7565b82525050565b60006020820190506121e36000830184612160565b92915050565b60006060820190506121fe6000830186612160565b61220b6020830185612160565b61221860408301846121bf565b949350505050565b60006040820190506122356000830185612160565b61224260208301846121bf565b9392505050565b600060a08201905061225e6000830188612160565b61226b60208301876121bf565b61227860408301866121bf565b61228560608301856121bf565b61229260808301846121bf565b9695505050505050565b60006020820190506122b1600083018461216f565b92915050565b60006020820190506122cc600083018461217e565b92915050565b60006020820190506122e7600083018461218d565b92915050565b600060208201905081810360008301526123068161219c565b9050919050565b600060208201905061232260008301846121bf565b92915050565b6000612332612343565b905061233e8282612510565b919050565b6000604051905090565b600067ffffffffffffffff821115612368576123676125e8565b5b602082029050602081019050919050565b600082825260208201905092915050565b6000612395826124e7565b91506123a0836124e7565b9250827fffffffffffffffffffffffffffffffffffffffffffffffffffffffffffffffff038211156123d5576123d461258a565b5b828201905092915050565b60006123eb826124e7565b91506123f6836124e7565b925082612406576124056125b9565b5b828204905092915050565b600061241c826124e7565b9150612427836124e7565b9250817fffffffffffffffffffffffffffffffffffffffffffffffffffffffffffffffff04831182151516156124605761245f61258a565b5b828202905092915050565b6000612476826124e7565b9150612481836124e7565b9250828210156124945761249361258a565b5b828203905092915050565b60006124aa826124c7565b9050919050565b60008115159050919050565b6000819050919050565b600073ffffffffffffffffffffffffffffffffffffffff82169050919050565b6000819050919050565b600060ff82169050919050565b6000612509826124f1565b9050919050565b61251982612617565b810181811067ffffffffffffffff82111715612538576125376125e8565b5b80604052505050565b600061254c826124e7565b91507fffffffffffffffffffffffffffffffffffffffffffffffffffffffffffffffff82141561257f5761257e61258a565b5b600182019050919050565b7f4e487b7100000000000000000000000000000000000000000000000000000000600052601160045260246000fd5b7f4e487b7100000000000000000000000000000000000000000000000000000000600052601260045260246000fd5b7f4e487b7100000000000000000000000000000000000000000000000000000000600052604160045260246000fd5b6000601f19601f8301169050919050565b7f496e697469616c697a61626c653a20636f6e747261637420697320616c72656160008201527f647920696e697469616c697a6564000000000000000000000000000000000000602082015250565b6126808161249f565b811461268b57600080fd5b50565b612697816124b1565b81146126a257600080fd5b50565b6126ae816124bd565b81146126b957600080fd5b50565b6126c5816124e7565b81146126d057600080fd5b5056fea2646970667358221220900e5d0a1d3604416e80c291e1974595d890f034840212ecf12fe8318354bd3564736f6c63430008040033",
  "linkReferences": {},
  "deployedLinkReferences": {}
}