{
  "_format": "hh-sol-artifact-1",
  "contractName": "FxVaults",
  "sourceName": "contracts/Vaults/FxVaults.sol",
  "abi": [
    {
      "anonymous": false,
      "inputs": [
        {
          "indexed": false,
          "internalType": "uint8",
          "name": "version",
          "type": "uint8"
        }
      ],
      "name": "Initialized",
      "type": "event"
    },
    {
      "inputs": [],
      "name": "DYNAMIC_DEBT_MULTIPLIER",
      "outputs": [
        {
          "internalType": "uint256",
          "name": "",
          "type": "uint256"
        }
      ],
      "stateMutability": "view",
      "type": "function"
    },
    {
      "inputs": [
        {
          "internalType": "uint256",
          "name": "",
          "type": "uint256"
        }
      ],
      "name": "Vaults",
      "outputs": [
        {
          "internalType": "address",
          "name": "Owner",
          "type": "address"
        },
        {
          "internalType": "uint256",
          "name": "CollateralIndex",
          "type": "uint256"
        },
        {
          "internalType": "uint256",
          "name": "Collateral",
          "type": "uint256"
        },
        {
          "internalType": "uint256",
          "name": "Debt",
          "type": "uint256"
        },
        {
          "internalType": "uint256",
          "name": "ID",
          "type": "uint256"
        }
      ],
      "stateMutability": "view",
      "type": "function"
    },
    {
      "inputs": [
        {
          "internalType": "address",
          "name": "_collateral",
          "type": "address"
        },
        {
          "internalType": "bytes32",
          "name": "_priceFeedKey",
          "type": "bytes32"
        }
      ],
      "name": "addCollateralOption",
      "outputs": [],
      "stateMutability": "nonpayable",
      "type": "function"
    },
    {
      "inputs": [
        {
          "internalType": "uint256",
          "name": "_vaultID",
          "type": "uint256"
        },
        {
          "internalType": "uint256",
          "name": "_amount",
          "type": "uint256"
        }
      ],
      "name": "borrow",
      "outputs": [],
      "stateMutability": "nonpayable",
      "type": "function"
    },
    {
      "inputs": [
        {
          "internalType": "uint256",
          "name": "_vaultID",
          "type": "uint256"
        }
      ],
      "name": "closeVault",
      "outputs": [],
      "stateMutability": "nonpayable",
      "type": "function"
    },
    {
      "inputs": [
        {
          "internalType": "uint256",
          "name": "",
          "type": "uint256"
        }
      ],
      "name": "collateralWhitelist",
      "outputs": [
        {
          "internalType": "address",
          "name": "",
          "type": "address"
        }
      ],
      "stateMutability": "view",
      "type": "function"
    },
    {
      "inputs": [
        {
          "internalType": "uint256",
          "name": "_index",
          "type": "uint256"
        }
      ],
      "name": "getVault",
      "outputs": [
        {
          "internalType": "address",
          "name": "vaultOwner",
          "type": "address"
        },
        {
          "internalType": "uint256",
          "name": "collateralIndex",
          "type": "uint256"
        },
        {
          "internalType": "uint256",
          "name": "collateral",
          "type": "uint256"
        },
        {
          "internalType": "uint256",
          "name": "debt",
          "type": "uint256"
        },
        {
          "internalType": "uint256",
          "name": "id",
          "type": "uint256"
        }
      ],
      "stateMutability": "view",
      "type": "function"
    },
    {
      "inputs": [
        {
          "internalType": "address[]",
          "name": "_collateralWhitelist",
          "type": "address[]"
        },
        {
          "internalType": "bytes32[]",
          "name": "_priceFeedKeys",
          "type": "bytes32[]"
        },
        {
          "internalType": "address",
          "name": "_oracle",
          "type": "address"
        },
        {
          "internalType": "uint256",
          "name": "_debtTokenIndex",
          "type": "uint256"
        }
      ],
      "name": "initialize",
      "outputs": [],
      "stateMutability": "nonpayable",
      "type": "function"
    },
    {
      "inputs": [
        {
          "internalType": "uint256",
          "name": "",
          "type": "uint256"
        }
      ],
      "name": "isClosed",
      "outputs": [
        {
          "internalType": "bool",
          "name": "",
          "type": "bool"
        }
      ],
      "stateMutability": "view",
      "type": "function"
    },
    {
      "inputs": [
        {
          "internalType": "uint256",
          "name": "_vaultID",
          "type": "uint256"
        }
      ],
      "name": "liquidate",
      "outputs": [],
      "stateMutability": "nonpayable",
      "type": "function"
    },
    {
      "inputs": [
        {
          "internalType": "uint256",
          "name": "_collateralIndex",
          "type": "uint256"
        }
      ],
      "name": "openVault",
      "outputs": [
        {
          "internalType": "uint256",
          "name": "",
          "type": "uint256"
        }
      ],
      "stateMutability": "nonpayable",
      "type": "function"
    },
    {
      "inputs": [],
      "name": "owner",
      "outputs": [
        {
          "internalType": "address",
          "name": "",
          "type": "address"
        }
      ],
      "stateMutability": "view",
      "type": "function"
    },
    {
      "inputs": [
        {
          "internalType": "uint256",
          "name": "",
          "type": "uint256"
        }
      ],
      "name": "priceFeedKeys",
      "outputs": [
        {
          "internalType": "bytes32",
          "name": "",
          "type": "bytes32"
        }
      ],
      "stateMutability": "view",
      "type": "function"
    },
    {
      "inputs": [
        {
          "internalType": "uint256",
          "name": "_vaultID",
          "type": "uint256"
        },
        {
          "internalType": "uint256",
          "name": "_amount",
          "type": "uint256"
        }
      ],
      "name": "repay",
      "outputs": [],
      "stateMutability": "nonpayable",
      "type": "function"
    },
    {
      "inputs": [
        {
          "internalType": "address",
          "name": "_perpStatic",
          "type": "address"
        },
        {
          "internalType": "address",
          "name": "_perpDynamic",
          "type": "address"
        },
        {
          "internalType": "address",
          "name": "_OrderBook",
          "type": "address"
        }
      ],
      "name": "setState",
      "outputs": [],
      "stateMutability": "nonpayable",
      "type": "function"
    },
    {
      "inputs": [
        {
          "internalType": "uint256",
          "name": "_vaultID",
          "type": "uint256"
        },
        {
          "internalType": "uint256",
          "name": "_amount",
          "type": "uint256"
        }
      ],
      "name": "supply",
      "outputs": [],
      "stateMutability": "nonpayable",
      "type": "function"
    },
    {
      "inputs": [
        {
          "internalType": "uint256",
          "name": "_fundingRate",
          "type": "uint256"
        }
      ],
      "name": "updateDynamicMultiplier",
      "outputs": [],
      "stateMutability": "nonpayable",
      "type": "function"
    },
    {
      "inputs": [
        {
          "internalType": "uint256",
          "name": "_vaultID",
          "type": "uint256"
        },
        {
          "internalType": "uint256",
          "name": "_amount",
          "type": "uint256"
        }
      ],
      "name": "withdraw",
      "outputs": [],
      "stateMutability": "nonpayable",
      "type": "function"
    },
    {
      "stateMutability": "payable",
      "type": "receive"
    }
  ],
  "bytecode": "0x608060405234801561001057600080fd5b50612879806100206000396000f3fe60806040526004361061010d5760003560e01c80638da5cb5b11610095578063d8aed14511610064578063d8aed1451461039c578063d9d75db4146103c5578063daecfa6c146103ee578063f987714f14610417578063fcd96b021461044257610114565b80638da5cb5b146102ca5780638f9bf833146102f55780639403b6341461031e578063d5c78a281461035f57610114565b80632a0ab1dd116100dc5780632a0ab1dd146101d1578063360c32881461020e578063415f124014610237578063441a3e70146102605780635aca84151461028957610114565b806304a2ce7e146101195780630afbd698146101565780630ecbcdab1461017f5780631301c210146101a857610114565b3661011457005b600080fd5b34801561012557600080fd5b50610140600480360381019061013b9190612216565b61047f565b60405161014d9190612451565b60405180910390f35b34801561016257600080fd5b5061017d6004803603810190610178919061215a565b610599565b005b34801561018b57600080fd5b506101a660048036038101906101a19190612268565b61070d565b005b3480156101b457600080fd5b506101cf60048036038101906101ca919061211e565b61099e565b005b3480156101dd57600080fd5b506101f860048036038101906101f39190612216565b610a9e565b60405161020591906123fb565b60405180910390f35b34801561021a57600080fd5b5061023560048036038101906102309190612216565b610ac2565b005b34801561024357600080fd5b5061025e60048036038101906102599190612216565b610c0f565b005b34801561026c57600080fd5b5061028760048036038101906102829190612268565b610c5a565b005b34801561029557600080fd5b506102b060048036038101906102ab9190612216565b610f69565b6040516102c195949392919061238d565b60405180910390f35b3480156102d657600080fd5b506102df610fcf565b6040516102ec9190612312565b60405180910390f35b34801561030157600080fd5b5061031c60048036038101906103179190612216565b610ff5565b005b34801561032a57600080fd5b5061034560048036038101906103409190612216565b611116565b60405161035695949392919061238d565b60405180910390f35b34801561036b57600080fd5b5061038660048036038101906103819190612216565b61121f565b60405161039391906123e0565b60405180910390f35b3480156103a857600080fd5b506103c360048036038101906103be9190612268565b61123f565b005b3480156103d157600080fd5b506103ec60048036038101906103e791906120cf565b61137c565b005b3480156103fa57600080fd5b5061041560048036038101906104109190612268565b611479565b005b34801561042357600080fd5b5061042c61161c565b6040516104399190612451565b60405180910390f35b34801561044e57600080fd5b5061046960048036038101906104649190612216565b611622565b6040516104769190612312565b60405180910390f35b6000600680549050821061049257600080fd5b60006040518060a001604052803373ffffffffffffffffffffffffffffffffffffffff16815260200184815260200160008152602001600081526020016001548152509050600d81908060018154018082558091505060019003906000526020600020906005020160009091909190915060008201518160000160006101000a81548173ffffffffffffffffffffffffffffffffffffffff021916908373ffffffffffffffffffffffffffffffffffffffff16021790555060208201518160010155604082015181600201556060820151816003015560808201518160040155505060016000815480929190610587906126b1565b91905055508060800151915050919050565b60006105a56001611661565b905080156105c9576001600060016101000a81548160ff0219169083151502179055505b82600b60006101000a81548173ffffffffffffffffffffffffffffffffffffffff021916908373ffffffffffffffffffffffffffffffffffffffff160217905550816002819055508460069080519060200190610627929190611e29565b50836007908051906020019061063e929190611eb3565b50670de0b6b3a7640000600381905550670de0b6b3a7640000600581905550670c7d713b49da000060048190555033600860006101000a81548173ffffffffffffffffffffffffffffffffffffffff021916908373ffffffffffffffffffffffffffffffffffffffff16021790555080156107065760008060016101000a81548160ff0219169083151502179055507f7f26b83ff96e1f2b6a682f133852f6798a09c465da95921460cefb384740249860016040516106fd9190612416565b60405180910390a15b5050505050565b816000600d828154811061074a577f4e487b7100000000000000000000000000000000000000000000000000000000600052603260045260246000fd5b90600052602060002090600502016040518060a00160405290816000820160009054906101000a900473ffffffffffffffffffffffffffffffffffffffff1673ffffffffffffffffffffffffffffffffffffffff1673ffffffffffffffffffffffffffffffffffffffff1681526020016001820154815260200160028201548152602001600382015481526020016004820154815250509050806000015173ffffffffffffffffffffffffffffffffffffffff163373ffffffffffffffffffffffffffffffffffffffff161461081f57600080fd5b83600e600082815260200190815260200160002060009054906101000a900460ff161561084b57600080fd5b6000600d8681548110610887577f4e487b7100000000000000000000000000000000000000000000000000000000600052603260045260246000fd5b9060005260206000209060050201905060006108bb6002546108b688856003015461175190919063ffffffff16565b611767565b905060006108d183600101548460020154611767565b90506108dd828261189b565b6108e657600080fd5b6108fd87846003015461175190919063ffffffff16565b8360030181905550600c60009054906101000a900473ffffffffffffffffffffffffffffffffffffffff1673ffffffffffffffffffffffffffffffffffffffff166340c10f1933896040518363ffffffff1660e01b8152600401610962929190612364565b600060405180830381600087803b15801561097c57600080fd5b505af1158015610990573d6000803e3d6000fd5b505050505050505050505050565b600860009054906101000a900473ffffffffffffffffffffffffffffffffffffffff1673ffffffffffffffffffffffffffffffffffffffff163373ffffffffffffffffffffffffffffffffffffffff16146109f857600080fd5b60078054905060068054905014610a0e57600080fd5b6006829080600181540180825580915050600190039060005260206000200160009091909190916101000a81548173ffffffffffffffffffffffffffffffffffffffff021916908373ffffffffffffffffffffffffffffffffffffffff16021790555060078190806001815401808255809150506001900390600052602060002001600090919091909150555050565b60078181548110610aae57600080fd5b906000526020600020016000915090505481565b806000600d8281548110610aff577f4e487b7100000000000000000000000000000000000000000000000000000000600052603260045260246000fd5b90600052602060002090600502016040518060a00160405290816000820160009054906101000a900473ffffffffffffffffffffffffffffffffffffffff1673ffffffffffffffffffffffffffffffffffffffff1673ffffffffffffffffffffffffffffffffffffffff1681526020016001820154815260200160028201548152602001600382015481526020016004820154815250509050806000015173ffffffffffffffffffffffffffffffffffffffff163373ffffffffffffffffffffffffffffffffffffffff1614610bd457600080fd5b82600e600082815260200190815260200160002060009054906101000a900460ff1615610c0057600080fd5b610c09846118fd565b50505050565b80600e600082815260200190815260200160002060009054906101000a900460ff1615610c3b57600080fd5b610c4482611c59565b610c4d57600080fd5b610c56826118fd565b5050565b816000600d8281548110610c97577f4e487b7100000000000000000000000000000000000000000000000000000000600052603260045260246000fd5b90600052602060002090600502016040518060a00160405290816000820160009054906101000a900473ffffffffffffffffffffffffffffffffffffffff1673ffffffffffffffffffffffffffffffffffffffff1673ffffffffffffffffffffffffffffffffffffffff1681526020016001820154815260200160028201548152602001600382015481526020016004820154815250509050806000015173ffffffffffffffffffffffffffffffffffffffff163373ffffffffffffffffffffffffffffffffffffffff1614610d6c57600080fd5b83600e600082815260200190815260200160002060009054906101000a900460ff1615610d9857600080fd5b6000600d8681548110610dd4577f4e487b7100000000000000000000000000000000000000000000000000000000600052603260045260246000fd5b906000526020600020906005020190508481600201541015610df557600080fd5b6000610e076002548360030154611767565b90506000610e2f8360010154610e2a898660020154611dc490919063ffffffff16565b611767565b9050610e3b828261189b565b610e4457600080fd5b610e5b878460020154611dc490919063ffffffff16565b836002018190555060006006846001015481548110610ea3577f4e487b7100000000000000000000000000000000000000000000000000000000600052603260045260246000fd5b9060005260206000200160009054906101000a900473ffffffffffffffffffffffffffffffffffffffff1690508073ffffffffffffffffffffffffffffffffffffffff1663a9059cbb338a6040518363ffffffff1660e01b8152600401610f0b929190612364565b602060405180830381600087803b158015610f2557600080fd5b505af1158015610f39573d6000803e3d6000fd5b505050506040513d601f19601f82011682018060405250810190610f5d91906121ed565b50505050505050505050565b600d8181548110610f7957600080fd5b90600052602060002090600502016000915090508060000160009054906101000a900473ffffffffffffffffffffffffffffffffffffffff16908060010154908060020154908060030154908060040154905085565b600860009054906101000a900473ffffffffffffffffffffffffffffffffffffffff1681565b600960009054906101000a900473ffffffffffffffffffffffffffffffffffffffff1673ffffffffffffffffffffffffffffffffffffffff163373ffffffffffffffffffffffffffffffffffffffff161461104f57600080fd5b600061106682600554611dda90919063ffffffff16565b905061107d60035482611df090919063ffffffff16565b600581905550600a60009054906101000a900473ffffffffffffffffffffffffffffffffffffffff1673ffffffffffffffffffffffffffffffffffffffff16638f9bf8336005546040518263ffffffff1660e01b81526004016110e09190612451565b600060405180830381600087803b1580156110fa57600080fd5b505af115801561110e573d6000803e3d6000fd5b505050505050565b600080600080600080600d8781548110611159577f4e487b7100000000000000000000000000000000000000000000000000000000600052603260045260246000fd5b90600052602060002090600502016040518060a00160405290816000820160009054906101000a900473ffffffffffffffffffffffffffffffffffffffff1673ffffffffffffffffffffffffffffffffffffffff1673ffffffffffffffffffffffffffffffffffffffff168152602001600182015481526020016002820154815260200160038201548152602001600482015481525050905080600001518160200151826040015183606001518460800151955095509550955095505091939590929450565b600e6020528060005260406000206000915054906101000a900460ff1681565b81600e600082815260200190815260200160002060009054906101000a900460ff161561126b57600080fd5b6000600d84815481106112a7577f4e487b7100000000000000000000000000000000000000000000000000000000600052603260045260246000fd5b9060005260206000209060050201905082816003015410156112c857600080fd5b6112df838260030154611dc490919063ffffffff16565b8160030181905550600c60009054906101000a900473ffffffffffffffffffffffffffffffffffffffff1673ffffffffffffffffffffffffffffffffffffffff16639dc29fac33856040518363ffffffff1660e01b8152600401611344929190612364565b600060405180830381600087803b15801561135e57600080fd5b505af1158015611372573d6000803e3d6000fd5b5050505050505050565b600960149054906101000a900460ff161561139657600080fd5b82600c60006101000a81548173ffffffffffffffffffffffffffffffffffffffff021916908373ffffffffffffffffffffffffffffffffffffffff16021790555081600a60006101000a81548173ffffffffffffffffffffffffffffffffffffffff021916908373ffffffffffffffffffffffffffffffffffffffff16021790555080600960006101000a81548173ffffffffffffffffffffffffffffffffffffffff021916908373ffffffffffffffffffffffffffffffffffffffff1602179055506001600960146101000a81548160ff021916908315150217905550505050565b81600e600082815260200190815260200160002060009054906101000a900460ff16156114a557600080fd5b6000600d84815481106114e1577f4e487b7100000000000000000000000000000000000000000000000000000000600052603260045260246000fd5b9060005260206000209060050201905060006006826001015481548110611531577f4e487b7100000000000000000000000000000000000000000000000000000000600052603260045260246000fd5b9060005260206000200160009054906101000a900473ffffffffffffffffffffffffffffffffffffffff1690508073ffffffffffffffffffffffffffffffffffffffff166323b872dd3330876040518463ffffffff1660e01b815260040161159b9392919061232d565b602060405180830381600087803b1580156115b557600080fd5b505af11580156115c9573d6000803e3d6000fd5b505050506040513d601f19601f820116820180604052508101906115ed91906121ed565b6115f657600080fd5b61160d84836002015461175190919063ffffffff16565b82600201819055505050505050565b60055481565b6006818154811061163257600080fd5b906000526020600020016000915054906101000a900473ffffffffffffffffffffffffffffffffffffffff1681565b60008060019054906101000a900460ff16156116d85760018260ff16148015611690575061168e30611e06565b155b6116cf576040517f08c379a00000000000000000000000000000000000000000000000000000000081526004016116c690612431565b60405180910390fd5b6000905061174c565b8160ff1660008054906101000a900460ff1660ff161061172d576040517f08c379a000000000000000000000000000000000000000000000000000000000815260040161172490612431565b60405180910390fd5b816000806101000a81548160ff021916908360ff160217905550600190505b919050565b6000818361175f91906124fa565b905092915050565b600080600b60009054906101000a900473ffffffffffffffffffffffffffffffffffffffff1673ffffffffffffffffffffffffffffffffffffffff166331d98b3f600786815481106117e2577f4e487b7100000000000000000000000000000000000000000000000000000000600052603260045260246000fd5b90600052602060002001546040518263ffffffff1660e01b815260040161180991906123fb565b60206040518083038186803b15801561182157600080fd5b505afa158015611835573d6000803e3d6000fd5b505050506040513d601f19601f82011682018060405250810190611859919061223f565b90506000811461188f5761188a60035461187c8584611dda90919063ffffffff16565b611df090919063ffffffff16565b611892565b60005b91505092915050565b6000806118c76003546118b960055487611dda90919063ffffffff16565b611df090919063ffffffff16565b90506004546118f3846118e560035485611dda90919063ffffffff16565b611df090919063ffffffff16565b1091505092915050565b6000600d8281548110611939577f4e487b7100000000000000000000000000000000000000000000000000000000600052603260045260246000fd5b9060005260206000209060050201905060006006826001015481548110611989577f4e487b7100000000000000000000000000000000000000000000000000000000600052603260045260246000fd5b9060005260206000200160009054906101000a900473ffffffffffffffffffffffffffffffffffffffff1690508160030154600c60009054906101000a900473ffffffffffffffffffffffffffffffffffffffff1673ffffffffffffffffffffffffffffffffffffffff166370a08231336040518263ffffffff1660e01b8152600401611a169190612312565b60206040518083038186803b158015611a2e57600080fd5b505afa158015611a42573d6000803e3d6000fd5b505050506040513d601f19601f82011682018060405250810190611a66919061223f565b1015611a7157600080fd5b600c60009054906101000a900473ffffffffffffffffffffffffffffffffffffffff1673ffffffffffffffffffffffffffffffffffffffff16639dc29fac3384600301546040518363ffffffff1660e01b8152600401611ad2929190612364565b600060405180830381600087803b158015611aec57600080fd5b505af1158015611b00573d6000803e3d6000fd5b505050508073ffffffffffffffffffffffffffffffffffffffff1663a9059cbb3384600201546040518363ffffffff1660e01b8152600401611b43929190612364565b602060405180830381600087803b158015611b5d57600080fd5b505af1158015611b71573d6000803e3d6000fd5b505050506040513d601f19601f82011682018060405250810190611b9591906121ed565b50600d8381548110611bd0577f4e487b7100000000000000000000000000000000000000000000000000000000600052603260045260246000fd5b9060005260206000209060050201600080820160006101000a81549073ffffffffffffffffffffffffffffffffffffffff0219169055600182016000905560028201600090556003820160009055600482016000905550506001600e600085815260200190815260200160002060006101000a81548160ff021916908315150217905550505050565b600080600d8381548110611c96577f4e487b7100000000000000000000000000000000000000000000000000000000600052603260045260246000fd5b90600052602060002090600502016040518060a00160405290816000820160009054906101000a900473ffffffffffffffffffffffffffffffffffffffff1673ffffffffffffffffffffffffffffffffffffffff1673ffffffffffffffffffffffffffffffffffffffff16815260200160018201548152602001600282015481526020016003820154815260200160048201548152505090506000611d69600254611d64600354611d566005548760600151611dda90919063ffffffff16565b611df090919063ffffffff16565b611767565b90506000611d7f83602001518460400151611767565b9050600454611dab82611d9d60035486611dda90919063ffffffff16565b611df090919063ffffffff16565b10158015611dba575060008214155b9350505050919050565b60008183611dd291906125db565b905092915050565b60008183611de89190612581565b905092915050565b60008183611dfe9190612550565b905092915050565b6000808273ffffffffffffffffffffffffffffffffffffffff163b119050919050565b828054828255906000526020600020908101928215611ea2579160200282015b82811115611ea15782518260006101000a81548173ffffffffffffffffffffffffffffffffffffffff021916908373ffffffffffffffffffffffffffffffffffffffff16021790555091602001919060010190611e49565b5b509050611eaf9190611f00565b5090565b828054828255906000526020600020908101928215611eef579160200282015b82811115611eee578251825591602001919060010190611ed3565b5b509050611efc9190611f1d565b5090565b5b80821115611f19576000816000905550600101611f01565b5090565b5b80821115611f36576000816000905550600101611f1e565b5090565b6000611f4d611f4884612491565b61246c565b90508083825260208201905082856020860282011115611f6c57600080fd5b60005b85811015611f9c5781611f828882612012565b845260208401935060208301925050600181019050611f6f565b5050509392505050565b6000611fb9611fb4846124bd565b61246c565b90508083825260208201905082856020860282011115611fd857600080fd5b60005b858110156120085781611fee8882612090565b845260208401935060208301925050600181019050611fdb565b5050509392505050565b600081359050612021816127e7565b92915050565b600082601f83011261203857600080fd5b8135612048848260208601611f3a565b91505092915050565b600082601f83011261206257600080fd5b8135612072848260208601611fa6565b91505092915050565b60008151905061208a816127fe565b92915050565b60008135905061209f81612815565b92915050565b6000813590506120b48161282c565b92915050565b6000815190506120c98161282c565b92915050565b6000806000606084860312156120e457600080fd5b60006120f286828701612012565b935050602061210386828701612012565b925050604061211486828701612012565b9150509250925092565b6000806040838503121561213157600080fd5b600061213f85828601612012565b925050602061215085828601612090565b9150509250929050565b6000806000806080858703121561217057600080fd5b600085013567ffffffffffffffff81111561218a57600080fd5b61219687828801612027565b945050602085013567ffffffffffffffff8111156121b357600080fd5b6121bf87828801612051565b93505060406121d087828801612012565b92505060606121e1878288016120a5565b91505092959194509250565b6000602082840312156121ff57600080fd5b600061220d8482850161207b565b91505092915050565b60006020828403121561222857600080fd5b6000612236848285016120a5565b91505092915050565b60006020828403121561225157600080fd5b600061225f848285016120ba565b91505092915050565b6000806040838503121561227b57600080fd5b6000612289858286016120a5565b925050602061229a858286016120a5565b9150509250929050565b6122ad8161260f565b82525050565b6122bc81612621565b82525050565b6122cb8161262d565b82525050565b6122da8161266e565b82525050565b60006122ed602e836124e9565b91506122f882612798565b604082019050919050565b61230c81612657565b82525050565b600060208201905061232760008301846122a4565b92915050565b600060608201905061234260008301866122a4565b61234f60208301856122a4565b61235c6040830184612303565b949350505050565b600060408201905061237960008301856122a4565b6123866020830184612303565b9392505050565b600060a0820190506123a260008301886122a4565b6123af6020830187612303565b6123bc6040830186612303565b6123c96060830185612303565b6123d66080830184612303565b9695505050505050565b60006020820190506123f560008301846122b3565b92915050565b600060208201905061241060008301846122c2565b92915050565b600060208201905061242b60008301846122d1565b92915050565b6000602082019050818103600083015261244a816122e0565b9050919050565b60006020820190506124666000830184612303565b92915050565b6000612476612487565b90506124828282612680565b919050565b6000604051905090565b600067ffffffffffffffff8211156124ac576124ab612758565b5b602082029050602081019050919050565b600067ffffffffffffffff8211156124d8576124d7612758565b5b602082029050602081019050919050565b600082825260208201905092915050565b600061250582612657565b915061251083612657565b9250827fffffffffffffffffffffffffffffffffffffffffffffffffffffffffffffffff03821115612545576125446126fa565b5b828201905092915050565b600061255b82612657565b915061256683612657565b92508261257657612575612729565b5b828204905092915050565b600061258c82612657565b915061259783612657565b9250817fffffffffffffffffffffffffffffffffffffffffffffffffffffffffffffffff04831182151516156125d0576125cf6126fa565b5b828202905092915050565b60006125e682612657565b91506125f183612657565b925082821015612604576126036126fa565b5b828203905092915050565b600061261a82612637565b9050919050565b60008115159050919050565b6000819050919050565b600073ffffffffffffffffffffffffffffffffffffffff82169050919050565b6000819050919050565b600060ff82169050919050565b600061267982612661565b9050919050565b61268982612787565b810181811067ffffffffffffffff821117156126a8576126a7612758565b5b80604052505050565b60006126bc82612657565b91507fffffffffffffffffffffffffffffffffffffffffffffffffffffffffffffffff8214156126ef576126ee6126fa565b5b600182019050919050565b7f4e487b7100000000000000000000000000000000000000000000000000000000600052601160045260246000fd5b7f4e487b7100000000000000000000000000000000000000000000000000000000600052601260045260246000fd5b7f4e487b7100000000000000000000000000000000000000000000000000000000600052604160045260246000fd5b6000601f19601f8301169050919050565b7f496e697469616c697a61626c653a20636f6e747261637420697320616c72656160008201527f647920696e697469616c697a6564000000000000000000000000000000000000602082015250565b6127f08161260f565b81146127fb57600080fd5b50565b61280781612621565b811461281257600080fd5b50565b61281e8161262d565b811461282957600080fd5b50565b61283581612657565b811461284057600080fd5b5056fea26469706673582212200ec6afa1bbc0fc5cdacc88b139a1d920030bd27fa4d0b190fc1325c91b931e5464736f6c63430008040033",
  "linkReferences": {},
  "deployedLinkReferences": {}
}