{
  "_format": "hh-sol-artifact-1",
  "contractName": "FxVaults",
  "sourceName": "contracts/Vaults/FxVaults.sol",
  "abi": [
    {
      "anonymous": false,
      "inputs": [
        {
          "indexed": false,
          "internalType": "uint8",
          "name": "version",
          "type": "uint8"
        }
      ],
      "name": "Initialized",
      "type": "event"
    },
    {
      "inputs": [],
      "name": "DYNAMIC_DEBT_MULTIPLIER",
      "outputs": [
        {
          "internalType": "uint256",
          "name": "",
          "type": "uint256"
        }
      ],
      "stateMutability": "view",
      "type": "function"
    },
    {
      "inputs": [
        {
          "internalType": "uint256",
          "name": "",
          "type": "uint256"
        }
      ],
      "name": "Vaults",
      "outputs": [
        {
          "internalType": "address",
          "name": "Owner",
          "type": "address"
        },
        {
          "internalType": "uint256",
          "name": "CollateralIndex",
          "type": "uint256"
        },
        {
          "internalType": "uint256",
          "name": "Collateral",
          "type": "uint256"
        },
        {
          "internalType": "uint256",
          "name": "Debt",
          "type": "uint256"
        },
        {
          "internalType": "uint256",
          "name": "ID",
          "type": "uint256"
        }
      ],
      "stateMutability": "view",
      "type": "function"
    },
    {
      "inputs": [
        {
          "internalType": "address",
          "name": "_collateral",
          "type": "address"
        }
      ],
      "name": "addCollateralOption",
      "outputs": [],
      "stateMutability": "nonpayable",
      "type": "function"
    },
    {
      "inputs": [
        {
          "internalType": "uint256",
          "name": "_vaultID",
          "type": "uint256"
        },
        {
          "internalType": "uint256",
          "name": "_amount",
          "type": "uint256"
        }
      ],
      "name": "borrow",
      "outputs": [],
      "stateMutability": "nonpayable",
      "type": "function"
    },
    {
      "inputs": [
        {
          "internalType": "uint256",
          "name": "_vaultID",
          "type": "uint256"
        }
      ],
      "name": "closeVault",
      "outputs": [],
      "stateMutability": "nonpayable",
      "type": "function"
    },
    {
      "inputs": [
        {
          "internalType": "uint256",
          "name": "",
          "type": "uint256"
        }
      ],
      "name": "collateralWhitelist",
      "outputs": [
        {
          "internalType": "address",
          "name": "",
          "type": "address"
        }
      ],
      "stateMutability": "view",
      "type": "function"
    },
    {
      "inputs": [
        {
          "internalType": "uint256",
          "name": "_index",
          "type": "uint256"
        }
      ],
      "name": "getVault",
      "outputs": [
        {
          "internalType": "address",
          "name": "vaultOwner",
          "type": "address"
        },
        {
          "internalType": "uint256",
          "name": "collateralIndex",
          "type": "uint256"
        },
        {
          "internalType": "uint256",
          "name": "collateral",
          "type": "uint256"
        },
        {
          "internalType": "uint256",
          "name": "debt",
          "type": "uint256"
        },
        {
          "internalType": "uint256",
          "name": "id",
          "type": "uint256"
        }
      ],
      "stateMutability": "view",
      "type": "function"
    },
    {
      "inputs": [
        {
          "internalType": "address[]",
          "name": "_collateralWhitelist",
          "type": "address[]"
        },
        {
          "internalType": "bytes32[]",
          "name": "_priceFeedKeys",
          "type": "bytes32[]"
        },
        {
          "internalType": "address",
          "name": "_oracle",
          "type": "address"
        },
        {
          "internalType": "uint256",
          "name": "_debtTokenIndex",
          "type": "uint256"
        }
      ],
      "name": "initialize",
      "outputs": [],
      "stateMutability": "nonpayable",
      "type": "function"
    },
    {
      "inputs": [
        {
          "internalType": "uint256",
          "name": "",
          "type": "uint256"
        }
      ],
      "name": "isClosed",
      "outputs": [
        {
          "internalType": "bool",
          "name": "",
          "type": "bool"
        }
      ],
      "stateMutability": "view",
      "type": "function"
    },
    {
      "inputs": [
        {
          "internalType": "uint256",
          "name": "_vaultID",
          "type": "uint256"
        }
      ],
      "name": "liquidate",
      "outputs": [],
      "stateMutability": "nonpayable",
      "type": "function"
    },
    {
      "inputs": [
        {
          "internalType": "uint256",
          "name": "_collateralIndex",
          "type": "uint256"
        }
      ],
      "name": "openVault",
      "outputs": [
        {
          "internalType": "uint256",
          "name": "",
          "type": "uint256"
        }
      ],
      "stateMutability": "nonpayable",
      "type": "function"
    },
    {
      "inputs": [],
      "name": "owner",
      "outputs": [
        {
          "internalType": "address",
          "name": "",
          "type": "address"
        }
      ],
      "stateMutability": "view",
      "type": "function"
    },
    {
      "inputs": [
        {
          "internalType": "uint256",
          "name": "",
          "type": "uint256"
        }
      ],
      "name": "priceFeedKeys",
      "outputs": [
        {
          "internalType": "bytes32",
          "name": "",
          "type": "bytes32"
        }
      ],
      "stateMutability": "view",
      "type": "function"
    },
    {
      "inputs": [
        {
          "internalType": "uint256",
          "name": "_vaultID",
          "type": "uint256"
        },
        {
          "internalType": "uint256",
          "name": "_amount",
          "type": "uint256"
        }
      ],
      "name": "repay",
      "outputs": [],
      "stateMutability": "nonpayable",
      "type": "function"
    },
    {
      "inputs": [
        {
          "internalType": "address",
          "name": "_perpStatic",
          "type": "address"
        },
        {
          "internalType": "address",
          "name": "_perpDynamic",
          "type": "address"
        },
        {
          "internalType": "address",
          "name": "_OrderBook",
          "type": "address"
        }
      ],
      "name": "setState",
      "outputs": [],
      "stateMutability": "nonpayable",
      "type": "function"
    },
    {
      "inputs": [
        {
          "internalType": "uint256",
          "name": "_vaultID",
          "type": "uint256"
        },
        {
          "internalType": "uint256",
          "name": "_amount",
          "type": "uint256"
        }
      ],
      "name": "supply",
      "outputs": [],
      "stateMutability": "nonpayable",
      "type": "function"
    },
    {
      "inputs": [
        {
          "internalType": "uint256",
          "name": "_fundingRate",
          "type": "uint256"
        }
      ],
      "name": "updateDynamicMultiplier",
      "outputs": [],
      "stateMutability": "nonpayable",
      "type": "function"
    },
    {
      "inputs": [
        {
          "internalType": "uint256",
          "name": "_vaultID",
          "type": "uint256"
        },
        {
          "internalType": "uint256",
          "name": "_amount",
          "type": "uint256"
        }
      ],
      "name": "withdraw",
      "outputs": [],
      "stateMutability": "nonpayable",
      "type": "function"
    },
    {
      "stateMutability": "payable",
      "type": "receive"
    }
  ],
  "bytecode": "0x608060405234801561001057600080fd5b5061268f806100206000396000f3fe60806040526004361061010d5760003560e01c80638da5cb5b11610095578063d8aed14511610064578063d8aed1451461039c578063d9d75db4146103c5578063daecfa6c146103ee578063f987714f14610417578063fcd96b021461044257610114565b80638da5cb5b146102ca5780638f9bf833146102f55780639403b6341461031e578063d5c78a281461035f57610114565b8063360c3288116100dc578063360c3288146101e5578063415f12401461020e578063441a3e70146102375780635aca8415146102605780636feba3ca146102a157610114565b806304a2ce7e146101195780630afbd698146101565780630ecbcdab1461017f5780632a0ab1dd146101a857610114565b3661011457005b600080fd5b34801561012557600080fd5b50610140600480360381019061013b9190612075565b61047f565b60405161014d9190612286565b60405180910390f35b34801561016257600080fd5b5061017d60048036038101906101789190611fb9565b610599565b005b34801561018b57600080fd5b506101a660048036038101906101a191906120c7565b6106d2565b005b3480156101b457600080fd5b506101cf60048036038101906101ca9190612075565b610963565b6040516101dc919061224b565b60405180910390f35b3480156101f157600080fd5b5061020c60048036038101906102079190612075565b610987565b005b34801561021a57600080fd5b5061023560048036038101906102309190612075565b610ad4565b005b34801561024357600080fd5b5061025e600480360381019061025991906120c7565b610b1f565b005b34801561026c57600080fd5b5061028760048036038101906102829190612075565b610e2e565b6040516102989594939291906121dd565b60405180910390f35b3480156102ad57600080fd5b506102c860048036038101906102c39190611f41565b610e94565b005b3480156102d657600080fd5b506102df610f54565b6040516102ec9190612162565b60405180910390f35b34801561030157600080fd5b5061031c60048036038101906103179190612075565b610f7a565b005b34801561032a57600080fd5b5061034560048036038101906103409190612075565b61109b565b6040516103569594939291906121dd565b60405180910390f35b34801561036b57600080fd5b5061038660048036038101906103819190612075565b6111a4565b6040516103939190612230565b60405180910390f35b3480156103a857600080fd5b506103c360048036038101906103be91906120c7565b6111c4565b005b3480156103d157600080fd5b506103ec60048036038101906103e79190611f6a565b611301565b005b3480156103fa57600080fd5b50610415600480360381019061041091906120c7565b6113fe565b005b34801561042357600080fd5b5061042c6115a1565b6040516104399190612286565b60405180910390f35b34801561044e57600080fd5b5061046960048036038101906104649190612075565b6115a7565b6040516104769190612162565b60405180910390f35b6000600680549050821061049257600080fd5b60006040518060a001604052803373ffffffffffffffffffffffffffffffffffffffff16815260200184815260200160008152602001600081526020016001548152509050600d81908060018154018082558091505060019003906000526020600020906005020160009091909190915060008201518160000160006101000a81548173ffffffffffffffffffffffffffffffffffffffff021916908373ffffffffffffffffffffffffffffffffffffffff16021790555060208201518160010155604082015181600201556060820151816003015560808201518160040155505060016000815480929190610587906124c7565b91905055508060800151915050919050565b600060019054906101000a900460ff166105e8576040517f08c379a00000000000000000000000000000000000000000000000000000000081526004016105df90612266565b60405180910390fd5b81600b60006101000a81548173ffffffffffffffffffffffffffffffffffffffff021916908373ffffffffffffffffffffffffffffffffffffffff160217905550806002819055508360069080519060200190610646929190611c9b565b50826007908051906020019061065d929190611d25565b50670de0b6b3a7640000600381905550670de0b6b3a7640000600581905550670c7d713b49da000060048190555033600860006101000a81548173ffffffffffffffffffffffffffffffffffffffff021916908373ffffffffffffffffffffffffffffffffffffffff16021790555050505050565b816000600d828154811061070f577f4e487b7100000000000000000000000000000000000000000000000000000000600052603260045260246000fd5b90600052602060002090600502016040518060a00160405290816000820160009054906101000a900473ffffffffffffffffffffffffffffffffffffffff1673ffffffffffffffffffffffffffffffffffffffff1673ffffffffffffffffffffffffffffffffffffffff1681526020016001820154815260200160028201548152602001600382015481526020016004820154815250509050806000015173ffffffffffffffffffffffffffffffffffffffff163373ffffffffffffffffffffffffffffffffffffffff16146107e457600080fd5b83600e600082815260200190815260200160002060009054906101000a900460ff161561081057600080fd5b6000600d868154811061084c577f4e487b7100000000000000000000000000000000000000000000000000000000600052603260045260246000fd5b90600052602060002090600502019050600061088060025461087b8885600301546115e690919063ffffffff16565b6115fc565b90506000610896836001015484600201546115fc565b90506108a28282611730565b6108ab57600080fd5b6108c28784600301546115e690919063ffffffff16565b8360030181905550600c60009054906101000a900473ffffffffffffffffffffffffffffffffffffffff1673ffffffffffffffffffffffffffffffffffffffff166340c10f1933896040518363ffffffff1660e01b81526004016109279291906121b4565b600060405180830381600087803b15801561094157600080fd5b505af1158015610955573d6000803e3d6000fd5b505050505050505050505050565b6007818154811061097357600080fd5b906000526020600020016000915090505481565b806000600d82815481106109c4577f4e487b7100000000000000000000000000000000000000000000000000000000600052603260045260246000fd5b90600052602060002090600502016040518060a00160405290816000820160009054906101000a900473ffffffffffffffffffffffffffffffffffffffff1673ffffffffffffffffffffffffffffffffffffffff1673ffffffffffffffffffffffffffffffffffffffff1681526020016001820154815260200160028201548152602001600382015481526020016004820154815250509050806000015173ffffffffffffffffffffffffffffffffffffffff163373ffffffffffffffffffffffffffffffffffffffff1614610a9957600080fd5b82600e600082815260200190815260200160002060009054906101000a900460ff1615610ac557600080fd5b610ace84611792565b50505050565b80600e600082815260200190815260200160002060009054906101000a900460ff1615610b0057600080fd5b610b0982611aee565b610b1257600080fd5b610b1b82611792565b5050565b816000600d8281548110610b5c577f4e487b7100000000000000000000000000000000000000000000000000000000600052603260045260246000fd5b90600052602060002090600502016040518060a00160405290816000820160009054906101000a900473ffffffffffffffffffffffffffffffffffffffff1673ffffffffffffffffffffffffffffffffffffffff1673ffffffffffffffffffffffffffffffffffffffff1681526020016001820154815260200160028201548152602001600382015481526020016004820154815250509050806000015173ffffffffffffffffffffffffffffffffffffffff163373ffffffffffffffffffffffffffffffffffffffff1614610c3157600080fd5b83600e600082815260200190815260200160002060009054906101000a900460ff1615610c5d57600080fd5b6000600d8681548110610c99577f4e487b7100000000000000000000000000000000000000000000000000000000600052603260045260246000fd5b906000526020600020906005020190508481600201541015610cba57600080fd5b6000610ccc60025483600301546115fc565b90506000610cf48360010154610cef898660020154611c5990919063ffffffff16565b6115fc565b9050610d008282611730565b610d0957600080fd5b610d20878460020154611c5990919063ffffffff16565b836002018190555060006006846001015481548110610d68577f4e487b7100000000000000000000000000000000000000000000000000000000600052603260045260246000fd5b9060005260206000200160009054906101000a900473ffffffffffffffffffffffffffffffffffffffff1690508073ffffffffffffffffffffffffffffffffffffffff1663a9059cbb338a6040518363ffffffff1660e01b8152600401610dd09291906121b4565b602060405180830381600087803b158015610dea57600080fd5b505af1158015610dfe573d6000803e3d6000fd5b505050506040513d601f19601f82011682018060405250810190610e22919061204c565b50505050505050505050565b600d8181548110610e3e57600080fd5b90600052602060002090600502016000915090508060000160009054906101000a900473ffffffffffffffffffffffffffffffffffffffff16908060010154908060020154908060030154908060040154905085565b600860009054906101000a900473ffffffffffffffffffffffffffffffffffffffff1673ffffffffffffffffffffffffffffffffffffffff163373ffffffffffffffffffffffffffffffffffffffff1614610eee57600080fd5b6006819080600181540180825580915050600190039060005260206000200160009091909190916101000a81548173ffffffffffffffffffffffffffffffffffffffff021916908373ffffffffffffffffffffffffffffffffffffffff16021790555050565b600860009054906101000a900473ffffffffffffffffffffffffffffffffffffffff1681565b600960009054906101000a900473ffffffffffffffffffffffffffffffffffffffff1673ffffffffffffffffffffffffffffffffffffffff163373ffffffffffffffffffffffffffffffffffffffff1614610fd457600080fd5b6000610feb82600554611c6f90919063ffffffff16565b905061100260035482611c8590919063ffffffff16565b600581905550600a60009054906101000a900473ffffffffffffffffffffffffffffffffffffffff1673ffffffffffffffffffffffffffffffffffffffff16638f9bf8336005546040518263ffffffff1660e01b81526004016110659190612286565b600060405180830381600087803b15801561107f57600080fd5b505af1158015611093573d6000803e3d6000fd5b505050505050565b600080600080600080600d87815481106110de577f4e487b7100000000000000000000000000000000000000000000000000000000600052603260045260246000fd5b90600052602060002090600502016040518060a00160405290816000820160009054906101000a900473ffffffffffffffffffffffffffffffffffffffff1673ffffffffffffffffffffffffffffffffffffffff1673ffffffffffffffffffffffffffffffffffffffff168152602001600182015481526020016002820154815260200160038201548152602001600482015481525050905080600001518160200151826040015183606001518460800151955095509550955095505091939590929450565b600e6020528060005260406000206000915054906101000a900460ff1681565b81600e600082815260200190815260200160002060009054906101000a900460ff16156111f057600080fd5b6000600d848154811061122c577f4e487b7100000000000000000000000000000000000000000000000000000000600052603260045260246000fd5b90600052602060002090600502019050828160030154101561124d57600080fd5b611264838260030154611c5990919063ffffffff16565b8160030181905550600c60009054906101000a900473ffffffffffffffffffffffffffffffffffffffff1673ffffffffffffffffffffffffffffffffffffffff16639dc29fac33856040518363ffffffff1660e01b81526004016112c99291906121b4565b600060405180830381600087803b1580156112e357600080fd5b505af11580156112f7573d6000803e3d6000fd5b5050505050505050565b600960149054906101000a900460ff161561131b57600080fd5b82600c60006101000a81548173ffffffffffffffffffffffffffffffffffffffff021916908373ffffffffffffffffffffffffffffffffffffffff16021790555081600a60006101000a81548173ffffffffffffffffffffffffffffffffffffffff021916908373ffffffffffffffffffffffffffffffffffffffff16021790555080600960006101000a81548173ffffffffffffffffffffffffffffffffffffffff021916908373ffffffffffffffffffffffffffffffffffffffff1602179055506001600960146101000a81548160ff021916908315150217905550505050565b81600e600082815260200190815260200160002060009054906101000a900460ff161561142a57600080fd5b6000600d8481548110611466577f4e487b7100000000000000000000000000000000000000000000000000000000600052603260045260246000fd5b90600052602060002090600502019050600060068260010154815481106114b6577f4e487b7100000000000000000000000000000000000000000000000000000000600052603260045260246000fd5b9060005260206000200160009054906101000a900473ffffffffffffffffffffffffffffffffffffffff1690508073ffffffffffffffffffffffffffffffffffffffff166323b872dd3330876040518463ffffffff1660e01b81526004016115209392919061217d565b602060405180830381600087803b15801561153a57600080fd5b505af115801561154e573d6000803e3d6000fd5b505050506040513d601f19601f82011682018060405250810190611572919061204c565b61157b57600080fd5b6115928483600201546115e690919063ffffffff16565b82600201819055505050505050565b60055481565b600681815481106115b757600080fd5b906000526020600020016000915054906101000a900473ffffffffffffffffffffffffffffffffffffffff1681565b600081836115f4919061232f565b905092915050565b600080600b60009054906101000a900473ffffffffffffffffffffffffffffffffffffffff1673ffffffffffffffffffffffffffffffffffffffff166331d98b3f60078681548110611677577f4e487b7100000000000000000000000000000000000000000000000000000000600052603260045260246000fd5b90600052602060002001546040518263ffffffff1660e01b815260040161169e919061224b565b60206040518083038186803b1580156116b657600080fd5b505afa1580156116ca573d6000803e3d6000fd5b505050506040513d601f19601f820116820180604052508101906116ee919061209e565b9050600081146117245761171f6003546117118584611c6f90919063ffffffff16565b611c8590919063ffffffff16565b611727565b60005b91505092915050565b60008061175c60035461174e60055487611c6f90919063ffffffff16565b611c8590919063ffffffff16565b90506004546117888461177a60035485611c6f90919063ffffffff16565b611c8590919063ffffffff16565b1091505092915050565b6000600d82815481106117ce577f4e487b7100000000000000000000000000000000000000000000000000000000600052603260045260246000fd5b906000526020600020906005020190506000600682600101548154811061181e577f4e487b7100000000000000000000000000000000000000000000000000000000600052603260045260246000fd5b9060005260206000200160009054906101000a900473ffffffffffffffffffffffffffffffffffffffff1690508160030154600c60009054906101000a900473ffffffffffffffffffffffffffffffffffffffff1673ffffffffffffffffffffffffffffffffffffffff166370a08231336040518263ffffffff1660e01b81526004016118ab9190612162565b60206040518083038186803b1580156118c357600080fd5b505afa1580156118d7573d6000803e3d6000fd5b505050506040513d601f19601f820116820180604052508101906118fb919061209e565b101561190657600080fd5b600c60009054906101000a900473ffffffffffffffffffffffffffffffffffffffff1673ffffffffffffffffffffffffffffffffffffffff16639dc29fac3384600301546040518363ffffffff1660e01b81526004016119679291906121b4565b600060405180830381600087803b15801561198157600080fd5b505af1158015611995573d6000803e3d6000fd5b505050508073ffffffffffffffffffffffffffffffffffffffff1663a9059cbb3384600201546040518363ffffffff1660e01b81526004016119d89291906121b4565b602060405180830381600087803b1580156119f257600080fd5b505af1158015611a06573d6000803e3d6000fd5b505050506040513d601f19601f82011682018060405250810190611a2a919061204c565b50600d8381548110611a65577f4e487b7100000000000000000000000000000000000000000000000000000000600052603260045260246000fd5b9060005260206000209060050201600080820160006101000a81549073ffffffffffffffffffffffffffffffffffffffff0219169055600182016000905560028201600090556003820160009055600482016000905550506001600e600085815260200190815260200160002060006101000a81548160ff021916908315150217905550505050565b600080600d8381548110611b2b577f4e487b7100000000000000000000000000000000000000000000000000000000600052603260045260246000fd5b90600052602060002090600502016040518060a00160405290816000820160009054906101000a900473ffffffffffffffffffffffffffffffffffffffff1673ffffffffffffffffffffffffffffffffffffffff1673ffffffffffffffffffffffffffffffffffffffff16815260200160018201548152602001600282015481526020016003820154815260200160048201548152505090506000611bfe600254611bf9600354611beb6005548760600151611c6f90919063ffffffff16565b611c8590919063ffffffff16565b6115fc565b90506000611c14836020015184604001516115fc565b9050600454611c4082611c3260035486611c6f90919063ffffffff16565b611c8590919063ffffffff16565b10158015611c4f575060008214155b9350505050919050565b60008183611c679190612410565b905092915050565b60008183611c7d91906123b6565b905092915050565b60008183611c939190612385565b905092915050565b828054828255906000526020600020908101928215611d14579160200282015b82811115611d135782518260006101000a81548173ffffffffffffffffffffffffffffffffffffffff021916908373ffffffffffffffffffffffffffffffffffffffff16021790555091602001919060010190611cbb565b5b509050611d219190611d72565b5090565b828054828255906000526020600020908101928215611d61579160200282015b82811115611d60578251825591602001919060010190611d45565b5b509050611d6e9190611d8f565b5090565b5b80821115611d8b576000816000905550600101611d73565b5090565b5b80821115611da8576000816000905550600101611d90565b5090565b6000611dbf611dba846122c6565b6122a1565b90508083825260208201905082856020860282011115611dde57600080fd5b60005b85811015611e0e5781611df48882611e84565b845260208401935060208301925050600181019050611de1565b5050509392505050565b6000611e2b611e26846122f2565b6122a1565b90508083825260208201905082856020860282011115611e4a57600080fd5b60005b85811015611e7a5781611e608882611f02565b845260208401935060208301925050600181019050611e4d565b5050509392505050565b600081359050611e93816125fd565b92915050565b600082601f830112611eaa57600080fd5b8135611eba848260208601611dac565b91505092915050565b600082601f830112611ed457600080fd5b8135611ee4848260208601611e18565b91505092915050565b600081519050611efc81612614565b92915050565b600081359050611f118161262b565b92915050565b600081359050611f2681612642565b92915050565b600081519050611f3b81612642565b92915050565b600060208284031215611f5357600080fd5b6000611f6184828501611e84565b91505092915050565b600080600060608486031215611f7f57600080fd5b6000611f8d86828701611e84565b9350506020611f9e86828701611e84565b9250506040611faf86828701611e84565b9150509250925092565b60008060008060808587031215611fcf57600080fd5b600085013567ffffffffffffffff811115611fe957600080fd5b611ff587828801611e99565b945050602085013567ffffffffffffffff81111561201257600080fd5b61201e87828801611ec3565b935050604061202f87828801611e84565b925050606061204087828801611f17565b91505092959194509250565b60006020828403121561205e57600080fd5b600061206c84828501611eed565b91505092915050565b60006020828403121561208757600080fd5b600061209584828501611f17565b91505092915050565b6000602082840312156120b057600080fd5b60006120be84828501611f2c565b91505092915050565b600080604083850312156120da57600080fd5b60006120e885828601611f17565b92505060206120f985828601611f17565b9150509250929050565b61210c81612444565b82525050565b61211b81612456565b82525050565b61212a81612462565b82525050565b600061213d602b8361231e565b9150612148826125ae565b604082019050919050565b61215c8161248c565b82525050565b60006020820190506121776000830184612103565b92915050565b60006060820190506121926000830186612103565b61219f6020830185612103565b6121ac6040830184612153565b949350505050565b60006040820190506121c96000830185612103565b6121d66020830184612153565b9392505050565b600060a0820190506121f26000830188612103565b6121ff6020830187612153565b61220c6040830186612153565b6122196060830185612153565b6122266080830184612153565b9695505050505050565b60006020820190506122456000830184612112565b92915050565b60006020820190506122606000830184612121565b92915050565b6000602082019050818103600083015261227f81612130565b9050919050565b600060208201905061229b6000830184612153565b92915050565b60006122ab6122bc565b90506122b78282612496565b919050565b6000604051905090565b600067ffffffffffffffff8211156122e1576122e061256e565b5b602082029050602081019050919050565b600067ffffffffffffffff82111561230d5761230c61256e565b5b602082029050602081019050919050565b600082825260208201905092915050565b600061233a8261248c565b91506123458361248c565b9250827fffffffffffffffffffffffffffffffffffffffffffffffffffffffffffffffff0382111561237a57612379612510565b5b828201905092915050565b60006123908261248c565b915061239b8361248c565b9250826123ab576123aa61253f565b5b828204905092915050565b60006123c18261248c565b91506123cc8361248c565b9250817fffffffffffffffffffffffffffffffffffffffffffffffffffffffffffffffff048311821515161561240557612404612510565b5b828202905092915050565b600061241b8261248c565b91506124268361248c565b92508282101561243957612438612510565b5b828203905092915050565b600061244f8261246c565b9050919050565b60008115159050919050565b6000819050919050565b600073ffffffffffffffffffffffffffffffffffffffff82169050919050565b6000819050919050565b61249f8261259d565b810181811067ffffffffffffffff821117156124be576124bd61256e565b5b80604052505050565b60006124d28261248c565b91507fffffffffffffffffffffffffffffffffffffffffffffffffffffffffffffffff82141561250557612504612510565b5b600182019050919050565b7f4e487b7100000000000000000000000000000000000000000000000000000000600052601160045260246000fd5b7f4e487b7100000000000000000000000000000000000000000000000000000000600052601260045260246000fd5b7f4e487b7100000000000000000000000000000000000000000000000000000000600052604160045260246000fd5b6000601f19601f8301169050919050565b7f496e697469616c697a61626c653a20636f6e7472616374206973206e6f74206960008201527f6e697469616c697a696e67000000000000000000000000000000000000000000602082015250565b61260681612444565b811461261157600080fd5b50565b61261d81612456565b811461262857600080fd5b50565b61263481612462565b811461263f57600080fd5b50565b61264b8161248c565b811461265657600080fd5b5056fea264697066735822122033b52343f1b9058589b5b00bdcc285158173da3d85f9ffa76801b1b2dd0a90e064736f6c63430008040033",
  "linkReferences": {},
  "deployedLinkReferences": {}
}